:020000041000EA
:1000000000B5324B212058609868022188439860DF
:10001000D860186158612E4B002199600221596106
:100020000121F02299502B49196001219960352056
:1000300000F044F80222904214D00621196600F024
:1000400034F8196E01211966002018661A6600F04E
:100050002CF8196E196E196E052000F02FF8012189
:100060000842F9D1002199601B49196000215960AB
:100070001A491B48016001219960EB211966A021F2
:10008000196600F012F800219960164914480160C1
:100090000121996001BC002800D000471248134993
:1000A000086003C880F30888084703B5996A0420EC
:1000B0000142FBD001200142F8D103BD02B5186610
:1000C0001866FFF7F2FF186E186E02BD00000240BE
:1000D000000000180000070000035F00212200005C
:1000E000F4000018222000A00001001008ED00E03C
:1000F00000000000000000000000000074B24E7A12
:1001000000200420F7010010C3010010C5010010F9
:10011000C1010010C1010010C1010010C101001097
:10012000C1010010C1010010C1010010C701001081
:10013000C1010010C1010010C9010010CB01001065
:10014000CD010010CD010010CD010010CD01001037
:10015000CD010010CD010010CD010010CD01001027
:10016000CD010010CD010010CD010010CD01001017
:10017000CD010010CD010010CD010010CD01001007
:10018000CD010010CD010010CD010010CD010010F7
:10019000CD010010CD010010CD010010CD010010E7
:1001A000CD010010CD010010CD010010CD010010D7
:1001B000CD010010CD010010CD010010CD010010C7
:1001C00000BE00BE00BE00BE00BE00BE00F04BF888
:1001D000103800BEF2EB8871140602103C060210C3
:1001E0003402001090A31AE700202149086006C8D5
:1001F00081F3088810471F48006800282FD10DA4FC
:100200000ECC002902D000F012F8F9E71A491B4A77
:10021000002000E001C19142FCD1194988471949E9
:1002200088471949884700BEFDE701C901C29A42C3
:10023000FBD370473C060210C0000020501E012076
:10024000CC2303100000042000000420CC23031062
:1002500000100420001004200000000070470B482C
:1002600013F052FC0047EFF30580C0B27047000066
:1002700008ED00E0000000D0501E0120A087022001
:100280000D1B0110A50B00103D1C0110575600005E
:1002900006005250ABB36053B8F70110060052503D
:1002A000861C0302C8F70110060052505422A29D7A
:1002B000D8F7011005005250DE65F468CC23031016
:1002C000F8B5C0460448054B10B5834203D0044B33
:1002D000002B00D0984710BD501E0120501E012059
:1002E0000000000006480749091A8B10C90FC918F9
:1002F00010B5491003D0044B002B00D0984710BD17
:10030000501E0120501E01200000000010B5074CB7
:100310002378002B09D1FFF7D5FF054B002B02D026
:10032000044800E000BF0123237010BD701F0120AE
:1003300000000000E0D40110054B10B5002B03D0E5
:100340000449054800E000BFFFF7CCFF10BDC046E0
:1003500000000000741F0120E0D40110F8B505234F
:100360004746CE469846043B80B500269946174C32
:10037000174D184F0BE0032B07D110F0BBF93B686A
:10038000002B02D004233E6023700EF0E5FD00F048
:1003900091FF0FF055F80FF089FF2378042B0FD051
:1003A00006D8012BE7D110F085F903232370ECE781
:1003B000052BEAD12B68002BE7D04B462370E4E7EE
:1003C00010F014FA43462E602370DEE7A8040020E4
:1003D00098240120A0290120CE49CF4B0A8882B061
:1003E0009A4200D18AE1104383B20B80D02280214F
:1003F0001206090291618021C9049161010400D5AE
:10040000C4E08021C9019161D02280211206C90473
:1004100051619161590400D5C4E08021C901916105
:10042000D02280211206C90451619161990400D53E
:10043000C4E08021C9019161D02280211206C90443
:1004400051619161D90400D5C4E08021C901916155
:10045000D02280211206C90451619161190500D58D
:10046000C4E08021C9019161D02280211206C90413
:1004700051619161590500D5C4E08021C9019161A4
:10048000D02280211206C90451619161990500D5DD
:10049000C4E08021C9019161D02280211206C904E3
:1004A00051619161D90500D5C4E08021C9019161F4
:1004B000D02280211206C90451619161190600D52C
:1004C000C4E08021C9019161D02280211206C904B3
:1004D00051619161590600D5C4E08021C901916143
:1004E000D02280211206C90451619161990600D57C
:1004F000C4E08021C9019161D02280211206C90483
:1005000051619161D90600D5C4E08021C901916192
:10051000D02280211206C90451619161190700D5CA
:10052000C4E08021C9019161D02280211206C90452
:1005300051619161590700D5C4E08021C9019161E1
:10054000D02280211206C90451619161990700D51A
:10055000C4E08021C9019161D02280211206C90422
:1005600051619161D90700D4C4E08021C901516172
:10057000D02280211206C9045161802109025161F3
:10058000654A934200D1BFE002B070478021C901A3
:100590005161D02280211206C90451619161590430
:1005A00000D43AE78021C9015161D022802112068E
:1005B000C90451619161990400D43AE78021C901CD
:1005C0005161D02280211206C90451619161D90480
:1005D00000D43AE78021C9015161D022802112065E
:1005E000C90451619161190500D43AE78021C9011C
:1005F0005161D02280211206C904516191615905CF
:1006000000D43AE78021C9015161D022802112062D
:10061000C90451619161990500D43AE78021C9016B
:100620005161D02280211206C90451619161D9051E
:1006300000D43AE78021C9015161D02280211206FD
:10064000C90451619161190600D43AE78021C901BA
:100650005161D02280211206C9045161916159066D
:1006600000D43AE78021C9015161D02280211206CD
:10067000C90451619161990600D43AE78021C9010A
:100680005161D02280211206C90451619161D906BD
:1006900000D43AE78021C9015161D022802112069D
:1006A000C90451619161190700D43AE78021C90159
:1006B0005161D02280211206C9045161916159070C
:1006C00000D43AE78021C9015161D022802112066D
:1006D000C90451619161990700D43AE78021C901A9
:1006E0005161D02280211206C90451619161D9075C
:1006F00000D53AE78021C901916139E700230093D1
:10070000009B002BFCD16EE600230193019B002B84
:10071000FCD139E7DA2A012009200000CE4B82B053
:10072000984200D18CE1CD4A138883431380802006
:10073000D022000212069061802019B2C00490619C
:10074000002900DAC4E08021C9019161D022802112
:100750001206C90451619161590400D5C4E0802199
:10076000C9019161D02280211206C90451619161B1
:10077000990400D5C4E08021C9019161D022802173
:100780001206C90451619161D90400D5C4E08021E9
:10079000C9019161D02280211206C9045161916181
:1007A000190500D5C4E08021C9019161D0228021C2
:1007B0001206C90451619161590500D5C4E0802138
:1007C000C9019161D02280211206C9045161916151
:1007D000990500D5C4E08021C9019161D022802112
:1007E0001206C90451619161D90500D5C4E0802188
:1007F000C9019161D02280211206C9045161916121
:10080000190600D5C4E08021C9019161D022802160
:100810001206C90451619161590600D5C4E08021D6
:10082000C9019161D02280211206C90451619161F0
:10083000990600D5C4E08021C9019161D0228021B0
:100840001206C90451619161D90600D5C4E0802126
:10085000C9019161D02280211206C90451619161C0
:10086000190700D5C4E08021C9019161D0228021FF
:100870001206C90451619161590700D5C4E0802175
:10088000C9019161D02280211206C9045161916190
:10089000990700D5C4E08021C9019161D02280214F
:1008A0001206C90451619161D90700D4C4E08021C6
:1008B000C9015161D02280211206C90451618021F1
:1008C00009025161644A934200D1BFE002B070470F
:1008D0008021C9015161D02280211206C9045161D1
:1008E0009161590400D43AE78021C9015161D022B5
:1008F00080211206C90451619161990400D43AE73C
:100900008021C9015161D02280211206C9045161A0
:100910009161D90400D43AE78021C9015161D02204
:1009200080211206C90451619161190500D43AE78A
:100930008021C9015161D02280211206C904516170
:100940009161590500D43AE78021C9015161D02253
:1009500080211206C90451619161990500D43AE7DA
:100960008021C9015161D02280211206C904516140
:100970009161D90500D43AE78021C9015161D022A3
:1009800080211206C90451619161190600D43AE729
:100990008021C9015161D02280211206C904516110
:1009A0009161590600D43AE78021C9015161D022F2
:1009B00080211206C90451619161990600D43AE779
:1009C0008021C9015161D02280211206C9045161E0
:1009D0009161D90600D43AE78021C9015161D02242
:1009E00080211206C90451619161190700D43AE7C8
:1009F0008021C9015161D02280211206C9045161B0
:100A00009161590700D43AE78021C9015161D02290
:100A100080211206C90451619161990700D43AE717
:100A20008021C9015161D02280211206C90451617F
:100A30009161D90700D53AE78021C901916139E771
:100A400000230093009B002BFCD16CE60023019354
:100A5000019B002BFCD139E709200000DA2A012094
:100A600001210A00D02382401B069A619A615A61D3
:100A7000802252039A615A6158689A615A615B6890
:100A8000400D08405B0D4000194202D0012318437D
:100A9000C0B2D02380221B0652039A615A615B6860
:100AA00040009B0202D501231843C0B2D02380220C
:100AB0001B0652039A615A615B684000C0B29B02F8
:100AC00002D501231843C0B2D02380221B06520353
:100AD0009A615A615B684000C0B29B0202D5012353
:100AE0001843C0B2D02380221B0652039A615A6178
:100AF0005B684000C0B29B0202D501231843C0B21C
:100B0000D02380221B0652039A615A615B68400021
:100B1000C0B29B0202D501231843C0B2D023802269
:100B20001B0652039A615A615B684000C0B29B0287
:100B300002D501231843C0B27047C046F0B5012466
:100B4000230083409C46D02360461B069861002A00
:100B500010DD8025501E8026ED0484402F000020EB
:100B6000F6019F6121420AD001305E6149005D615A
:100B70008242F6D1D02362461B065A61F0BD013095
:100B80009E6149005D618242EBD1F3E710B50FF041
:100B9000BDFC00F08FFB0EF053FC0FF087FB0EF056
:100BA000DBF910BD10B51B200FF0A6FED02480236A
:100BB00024061B0563620D2063610FF09DFE0E206D
:100BC0000FF09AFE0F200FF097FE16200FF094FE04
:100BD00015200FF091FE1A200FF08EFE13200FF05B
:100BE0008BFE14200FF088FE12200FF085FE0020EF
:100BF0000FF082FE01200FF07FFE02200FF07CFE3E
:100C000003200FF079FE04200FF076FE05200FF090
:100C100073FE06200FF070FE07200FF06DFE01221C
:100C2000002100200FF050FE0122002101200FF0D2
:100C30004BFE0122002102200FF046FE012200217E
:100C400003200FF041FE0122002104200FF03CFEA2
:100C50000122002105200FF037FE0122002106208D
:100C60000FF032FE0122002107200FF02DFE0A2096
:100C70000FF042FE0B200FF03FFE0C200FF03CFE69
:100C800011200FF039FE10200FF036FE0022012156
:100C900010200FF019FE0121002211200FF014FE88
:100CA00080238022DB0192016362A262636280235F
:100CB0001B0263628023DB03636280239B03A362C6
:100CC0008023DB04636280231B0363628022802312
:100CD000D2025B03636262628022D200626280227F
:100CE0001201626280225201626201206361FFF799
:100CF00073FB0A2010F0DCFA00F050F800F030F935
:100D000014F0C0F801F0AEFB0DF096FA0D4816F0A5
:100D100055FCA0240FF0AEFA01F0F6FB013C0FF0F9
:100D2000F5FB002CFAD1084B1B68002B05D00122E3
:100D3000064B1A601A68002AFCD101F007FC01F08A
:100D400005FCFAE75D0300103C25012098240120F2
:100D500000B583B06A4680231371793B034050206D
:100D60004042184350710221782001AA0EF0E0FEA3
:100D700003B000BD10B5102482B0030901AA2343BB
:100D800053700F238021184011709170D0707C39FE
:100D900078200EF0CDFE02B010BDC046F0B5802622
:100DA0006C4C6D4B21881D68314385B0280089B299
:100DB00008222180FA27FFF7C1FE7F212388FF0048
:100DC00019402800082221800397FFF7B7FE2188E9
:100DD0000822314389B2280021800297FFF7AEFE36
:100DE00001970EF07BFC78200EF0ECFC80200EF0DA
:100DF000E9FCAE200EF0E6FC80200EF0E3FCD520EE
:100E00000EF0E0FC80200EF0DDFCA0200EF0DAFCFD
:100E100080200EF0D7FCA8200EF0D4FC80200EF02D
:100E2000D1FC1F200EF0CEFC80200EF0CBFCD32096
:100E30000EF0C8FC80200EF0C5FC00200EF0C2FCB5
:100E400080200EF0BFFCAD200EF0BCFC80200EF028
:100E5000B9FC8E200EF0B6FC80200EF0B3FCD8203A
:100E60000EF0B0FC80200EF0ADFC05200EF0AAFCC8
:100E700080200EF0A7FCA1200EF0A4FC80200EF034
:100E8000A1FCC8200EF09EFC80200EF09BFCDA2016
:100E90000EF098FC80200EF095FC12200EF092FCD3
:100EA00080200EF08FFC91200EF08CFC80200EF044
:100EB00089FC3F200EF086FC80200EF083FC3F2052
:100EC0000EF080FC80200EF07DFC3F200EF07AFCBE
:100ED00080200EF077FC3F200EF074FC80200EF096
:100EE00071FC81200EF06EFC80200EF06BFC1B4B21
:100EF00018780EF067FC80200EF064FCD9200EF00C
:100F000061FC80200EF05EFCD2200EF05BFC8020A5
:100F10000EF058FCDB200EF055FC80200EF052FC49
:100F200034200EF04FFC80200EF04CFCA6200EF07A
:100F300049FC80200EF046FCA4200EF043FC8020EB
:100F40000EF040FCAF200EF03DFC0EF0FBFB05B0B8
:100F5000F0BDC046DC2A0120ECD40110A904002019
:100F60008023F0B54746CE469946D03B00259846AB
:100F700080B5174F83B001AE4B4633704346320005
:100F80002B430221782073700EF0D2FD3200042131
:100F9000782001970EF0CCFD0EF0A0FB78200EF02B
:100FA00011FC40200EF00EFC8424013C0020E4B231
:100FB0000EF008FC002CF8D10135EDB20EF0C2FBAA
:100FC000042DD9D103B00CBC90469946F0BDC04663
:100FD00080108000032370B5040015005B1AD8B29E
:100FE000FFF7B6FEA000201A40007F30C0B2FFF726
:100FF000C1FE0EF073FB78200EF0E4FB40200EF0F3
:10100000E1FBAA00521901240425154EB61822004E
:10101000735D1A405810204052000243981052004D
:1010200020401043DA102240400010431A114000C3
:1010300022400243581120405200024398115200AE
:10104000204010434000DB1118430EF0BBFB013D74
:10105000DDD200200EF0B6FB0EF074FB70BDC04672
:10106000AC04002010B500F005F910BD70B51500F6
:1010700012780E00002A09D004002D1A2000310039
:10108000013400F0F7F82A5D002AF7D170BDC046A0
:1010900070B584B001AD04000E002800084912F0BC
:1010A000DFFC2A78002A08D02D1B200031000134F3
:1010B00000F0E0F82A5D002AF7D104B070BDC04608
:1010C000F8D4011070B5002500242100202228004A
:1010D000013400F0CFF8042CF7D10135152DF3D1F0
:1010E0000023024A1360024A136070BDA824012045
:1010F000AC2401200021054B054A19601368013317
:10110000032B01DC136070471160FCE7A824012069
:10111000AC240120F8B54746CE4680B5144E154F95
:101120000278804634683D68002A0BD0031B99463C
:101130002000290000F09EF84B4601341A5D002A79
:10114000F6D13468404617F073FA2418142C04DCE6
:1011500034600CBC90469946F8BD00223B68326072
:101160000133032B01DD3A60F3E73B60F1E7C04652
:10117000A8240120AC240120FA2010B50124064B3C
:1011800040001C6010F094F8044B1B689C40D02376
:101190001B069C6110BDC0465C2A0120F4D40110DE
:1011A000264A10B5136882B001331360C0239B0038
:1011B000984208D0403398422FD0813BFF3B984261
:1011C0001AD002B010BD002380211D4C23801D4B7E
:1011D0001A8811407F22114319801B4B773A1868F7
:1011E000FFF7ACFC0220194923884A7DDB1203403B
:1011F000824313434B75E4E70FF04AF8FA200124C9
:10120000134B40001C6010F053F8124B1B689C40BD
:101210000193D0231B069C61D3E78021094A084C27
:101220001088238801407F2001339BB223804340F4
:10123000194389B21180044B0822D0E76C2A01209F
:10124000DE2A0120DC2A0120ECD40110D42F012059
:101250005C2A0120F4D401108023044A5B42517CB3
:101260000B4353740122024B1A707047D42F012094
:10127000980E0020074B10B51C684B005918CB0086
:10128000591A6418235C0449CA540122034B1A609A
:1012900010BDC046702F0120DC3002201C2501202B
:1012A0000122024B1954024B1A6070476C2F012027
:1012B0001C250120F0B5DE4657464E464546E0B5B2
:1012C000052083B00EF004FA5D4B5E491A68002ACF
:1012D00003D10A68002A00D1A4E000225A4F1A6004
:1012E0003B680A60002B00DAA2E0584B00249946C4
:1012F000574B9B46574B9846574B9A460EE0574BD9
:101300002000196812F02EFC03002A0008001900C2
:10131000FFF760FE3B680134A34239DB4B465A4677
:101320001B681B5DD55C424612689342E7D1534669
:101330001B68002BE3D04A4B1B68002B07D0494B9E
:101340001B68002B06D0019580256D00D7E7454B23
:101350001B6801938021AB005B1901950225424A6D
:101360004942D05C414E08439055D3185878404EBE
:101370000843905598783F4E08439055D8780136E9
:10138000084390551B79FF350B433B495354B6E74F
:101390001421200012F0E6FB14218246200012F0F6
:1013A000E1FB8946354B00269846434631009A5D5D
:1013B00014200136FFF70EFE042EF6D16A1EFF3A06
:1013C0002B00012A26D92E4AD35C682293431FD0D2
:1013D0005346162058434B462A4EEDB235552A4CFB
:1013E0002018C5543D6859462A00284813F0C8FB08
:1013F00000232B22A3541632A35416326375A35430
:10140000735503B03CBC90469946A246AB46F0BD2E
:101410002025DDE7019D1A4A2B00D35C6822934307
:10142000D6D1F5E70A4B084F9B46164E164CD9E726
:10143000002399469A46064B00249B46B2E7C046D5
:101440001C250120A4240120F8090020702F012070
:10145000DC3002206C29012078290120FC090020C1
:10146000A024012074290120AC04002005050000FF
:101470000605000007050000090500006C2F01208B
:1014800081FA0110F82B0120742F0120F42A012089
:10149000F0B5C023D6464F4646465B00C0B59842DD
:1014A00000D176E08223FF3398426DD10123684A50
:1014B0001360684A1268002A12D0674D674A28688C
:1014C0001154674A1360674B1A68531E9A410223EE
:1014D00052421340013BC318FF2B00DDFF232B605A
:1014E000614B1B68002B4FD0072213005A4D0F1180
:1014F0002868B846C41723401B18DB10640F9E00F1
:10150000F31806193240121B0124A446944064B219
:10151000E2439146554A6746D656B246464637425A
:1015200000D084E056464F463E40D6545E1CB4463A
:1015300096570F0700D576E04F463E406746D65592
:101540009E1CB44696574F0769D44F463E406746A7
:10155000D655DE1CB44696578F075CD44F463E40A6
:101560006746D6550433D656C90750D53443D454AC
:101570003C4B1B685A1E93415A4202231340013BC5
:10158000C018502840DC28601CBC90469946A246F2
:10159000F0BD4BB2002B2CDB0B00403B3F2B0CD99A
:1015A000072915D8032946D801294DD00239012928
:1015B000EAD80022284B1A60E6E73F2300221940B0
:1015C000254B1960234B1A60274B01321A60DBE769
:1015D0000B00083B072BD7D8012325488A101A4057
:1015E00002604A101A4019402248234B02601960D9
:1015F000CAE77F2301221940174B1960154B1A6067
:101600000022194B1A60BFE750232B60BCE7494604
:101610000E40D654ACE767462643D655A2E7674648
:101620002643D65595E767462643D65588E756465E
:101630002643D6547AE701234A101A401940094834
:101640000E4B026019609FE7FFF73CFDB1E7C04613
:10165000A4240120842901206C290120DC300220EF
:101660001C2501207029012080290120AC040020C4
:101670002025012078290120742901207C290120BE
:10168000022210B502490348FF3213F079FA10BD67
:10169000DC300220D42F0220022210B5FF32044990
:1016A000044813F06DFA0122034B1A6010BDC046C6
:1016B000D42F0220DC3002201C250120002330B56D
:1016C00085B00393039B002BFCD19621354A49003A
:1016D00013688B4207DAD22533495C006554013325
:1016E000091948701360C04383072DD001231800E7
:1016F0002E490A684C689040D02212069062180069
:10170000A040906218008C68A04090621800CC68DD
:10171000A040906218000C69A040906218004C69CB
:10172000A040906218008C69C969A04090621800BE
:1017300088401F499062096880208B400191936125
:10174000FEF7ECFF05B030BD0124194BD0251B6816
:101750002D0601932300019A802093406B61FEF7D0
:10176000DDFF2200114B19688A406A622200596825
:101770008A406A62220099688A406A622200D968B7
:101780008A406A62220019698A406A6222005969A5
:101790008A406A6222009969DB698A409C406A62D9
:1017A0006C62CFE7AC2A0120FC2C0120580E0020EF
:1017B000F0D401109621F8B5294A2A4B050018707B
:1017C000136849008B4207DA16242749580044540D
:1017D000013309184D701360244C254E2700203723
:1017E0000AE001222A4235D09A40D0231B065A61D2
:1017F00004346D08A74212D02368632BF1D9643BEF
:10180000042BF5D89B00F3589F4680208001EB07FE
:101810000AD5FEF7E1FD04346D08A742ECD1F8BD0E
:1018200080204001EB07F4D4FEF778FFE0E780204A
:101830000001EB07F8D5FEF7CFFDECE70820EB073A
:10184000F2D4FEF7C9FDE6E71020EB07ECD5FEF772
:10185000C3FDE0E79A40D0231B069A61C8E7C04663
:10186000AC2A0120EF2A0120FC2C0120780E002058
:1018700000D50110002330B583B00193019B002BEC
:10188000FCD196213E4A490013688B4207DAD625DF
:101890003C495C0065540133091948701360002805
:1018A00052D0394B1A68632A05D8012191400A00A9
:1018B000D02109064A625A68632A05D8012191405D
:1018C0000A00D02109064A629A68632A05D80121D4
:1018D00091400A00D02109064A62DA68632A05D8D5
:1018E000012191400A00D02109064A621A69632A3F
:1018F00005D8012191400A00D02109064A625A699F
:10190000632A05D8012191400A00D02109064A62C4
:101910009A69632A05D8012191400A00D02109065D
:101920004A62DB69632B08D94020FEF7F7FE174BAC
:101930001878FFF73FFF03B030BD01229A40130033
:10194000D02212065362EFE78025802440202D012B
:10195000FEF7E4FE64012800FEF73EFD2000FEF7DE
:101960003BFD80208001FEF737FD1020FEF734FD9F
:10197000D02380221B06D2009D619A619C61DAE728
:10198000AC2A0120FC2C0120780E0020EF2A012037
:1019900030B5040083B017280AD8022800D86CE0BC
:1019A000C31E9BB2142B5ED8B24A9B00D3589F46ED
:1019B000B0239B00984200D130E122D9E0239B0064
:1019C000984200D150E12CD9F0239B00984200D1DD
:1019D00044E1E822A84B92000340934243D198424D
:1019E00000D132E1F8239B0098423AD1A34A136810
:1019F000002B00D02BE1802300201B02136003B0DA
:101A000030BD013BFF3B984200D1F5E01ED9A02339
:101A10009B00984231D10420FEF7DEFC984B185D04
:101A2000EDE7403B98420CD02033984206D100238A
:101A3000944A00201360914A1360E0E7603B9842AB
:101A40001BD12000FFF7ACFB0020D8E70300813B4F
:101A5000FF3B9BB2012B10D88223FF33984200D06A
:101A6000E2E00020CBE7230400D5B4E08023DB01D3
:101A70009C4202D3834B1B68E418814B185DBEE780
:101A8000D022814B1206506819685268C8405C68C1
:101A90000121E2400840C0014008114201D08022EB
:101AA0001043D0221206526899684008CA40D207F3
:101AB00003D5802252421043C0B2D022120652688F
:101AC000D9684008CA40D20703D580225242104349
:101AD000C0B2D0221206526819694008CA40D20723
:101AE00003D5802252421043C0B2D022120652685F
:101AF00059694008CA40D20703D580225242104398
:101B0000C0B2D0221206526899694008CA40D20772
:101B100003D5802252421043C0B2D022120652682E
:101B2000DB694008DA40D30703D580235B421843C2
:101B3000C0B29621554A490013688B4200DB5EE72C
:101B4000E22553495C00655401330919487013605C
:101B500055E7504B187852E74F4B18784FE74F4AEC
:101B60001378D9B2012B64D0022986D1122884D1EE
:101B7000032313707F22424B597C0A405A74185D2C
:101B80003DE7474B1868FEF76BFF7F2343407E20FD
:101B90001840D0233A4C1B0660755B68414A5B0BCA
:101BA000DB011843022312889843D21213401843D2
:101BB00060750EF02FFE607D21E73B4B18781EE725
:101BC000354B1888000A1AE7374B1888000A16E7C1
:101BD000364B187813E7C0231B029C4205D9344BBF
:101BE0009C466444334B185D09E7314B9C46234BBC
:101BF000644418682418F5E70EF04AFBFA20012423
:101C00002D4B40001C600FF053FB2C4B00201B6839
:101C10009C400193D0231B069C61F0E60420FEF754
:101C20007DFD174B185DEAE6254B18687F231840A9
:101C3000E5E6134B112800D0F1E6597C7F2900D846
:101C4000EDE602211170185DD9E60E4A1368802175
:101C5000C9018C46634400201360D0E60122194B71
:101C60001A60074B185DCAE60022164B1A60044B37
:101C7000185DC4E614D50110BFFF00004C2A0120F6
:101C8000D42F0120342A0120580E0020AC2A012034
:101C9000FC2C0120F02A0120E42A0120980E0020CB
:101CA000E8D40110DE2A0120E62A0120EF2A0120D3
:101CB0000080FFFF9C0E00205C2A0120F4D401105C
:101CC0006C290120540A0020E02330B55B00040099
:101CD00083B0984200D123E10BD817281FD80228DF
:101CE00065D9C31E9BB2142B57D8A64A9B00D35864
:101CF0009F46D0239B00984241D039D9E8239B00CE
:101D0000984200D134E126D9F0239B00984213D1A8
:101D100001229D4B1A609D4B185D03B030BD03003E
:101D2000813BFF3B9BB2012B41D88223FF3398427A
:101D300000D007E10020F0E7203398422DD1944AEB
:101D40001368002B00D102E18021C9018C46634455
:101D500000201360E1E7403B984200D10BE12033C3
:101D6000984224D10022884B1A60884B185DD4E732
:101D7000803B984200D1CDE04033984204D120000E
:101D8000FFF70EFA0020C8E7803B98420FD10420ED
:101D9000FEF722FB7D4B185DBFE7230400D5A8E0CA
:101DA0008023DB019C4202D37A4B1B68E418774BFB
:101DB000185DB2E7784B1868FEF752FE7F23434068
:101DC0007E201840D023714C1B0660755B68734AF7
:101DD0005B0BDB011843022312889843D212134095
:101DE000184360750EF016FD607D96E7D0226C4BAF
:101DF0001206506819685268C8405C680121E240C8
:101E00000840C0014008114201D080221043D02276
:101E10001206526899684008CA40D20703D580224A
:101E200052421043C0B2D02212065268D96840080C
:101E3000CA40D20703D5802252421043C0B2D022FA
:101E40001206526819694008CA40D20703D5802299
:101E500052421043C0B2D02212065268596940085B
:101E6000CA40D20703D5802252421043C0B2D022CA
:101E70001206526899694008CA40D20703D58022E9
:101E800052421043C0B2D02212065268DB694008A9
:101E9000DA40D30703D580235B421843C0B29621B2
:101EA000404A490013688B4200DB36E7E2253E4991
:101EB0005C00655401330919487013602DE73B4BF2
:101EC00018782AE73A4B187827E73A4A1378D9B2B4
:101ED000012B41D0022900D069E7122800D066E723
:101EE000032313707F22294B597C0A405A74185DD2
:101EF00013E7C0231B029C4205D92F4B9C46644428
:101F00002E4B185D09E72C4B9C46214B6444186806
:101F10002418F5E70420FEF701FC1C4B185DFCE6D5
:101F20000EF0B6F9FA200124254B40001C600FF09A
:101F3000BFF9244B00201B689C400193D0231B0653
:101F40009C61EAE6204B18687F231840E5E6802371
:101F50001B0200201360E0E60C4B112800D0DBE6EA
:101F6000597C7F2900D8D7E602211170185DD4E68C
:101F7000084A1368E8E60023064A00201360044A72
:101F80001360CAE668D50110540A0020D42F01203E
:101F90004C2A0120342A0120E8D40110DE2A012035
:101FA000580E0020AC2A0120FC2C0120F02A012030
:101FB000EF2A0120980E00200080FFFF9C0E0020D9
:101FC0005C2A0120F4D401106C29012003B230B541
:101FD000002B19DB8023DB0198420BD3194B1A49E4
:101FE0001A680B189B5C1B0201308218885C181859
:101FF00080B230BD1449154C0B5C421C1B02A04240
:10200000F4D1104A1268EFE7C0242402A04209D993
:102010000F4A104994460B1863441B781B020E4A62
:102020008218E3E70A4A0D4B94460A491D680B18CB
:102030005B19094A63441B7882181B025219A0429B
:10204000D4D1ECE7342A0120D42F0120FF3F000037
:102050000080FFFF9C0E00200180FFFF4C2A012022
:10206000C123F0B55B000D00040083B098420CD290
:10207000023B984200D3D1E0431E162B68D81728A4
:102080005CD8934A8300D3589F46C0239B00984254
:1020900032D021D9E0239B00984200D10CE128D90D
:1020A000F0239B00984200D100E1E8224023010088
:1020B00092009943914241D1884200D1D4E0F82363
:1020C0009B0098421AD1834A1368002B00D0CDE0C0
:1020D00080231B02136011E0803B984200D1A0E0F6
:1020E000403398420CD10420FEF718FB7A4B1D5563
:1020F00004E0403B984218D1FFF752F803B0F0BD1E
:10210000013BFF3B984223D10EF0C2F8FA20012494
:10211000724B40001C600FF0CBF8714B1B689C4069
:102120000193D0231B069C61E8E7203398420FD12E
:1021300000236C4A1360674A1360DFE703B2002B89
:10214000DCDB8023DB01984202D3664B1C68041958
:10215000614B1D55D2E70800FFF78CFBCEE79621B7
:10216000614A490013688B4207DA12245F4958001C
:102170004454013309184D70136001225C4B1968F7
:102180002A426CD18A40D02109068A61012259680D
:102190008A40A90700D585E0D02109068A6101227D
:1021A00099688A40690779D4D02109068A61012299
:1021B000D9688A4029076DD4D02109068A61012295
:1021C00019698A40E90661D4D02109068A61012291
:1021D00059698A40A90655D4D02109068A6101228D
:1021E00099698A40690649D4D02109068A61DA6969
:1021F00001239340D022ED091206002D3CD05361FB
:102200007CE73C4B1970344B1D5577E70800FFF70E
:1022100055FA73E70800FFF7CDFA6FE7FFF738F9D3
:102220006CE70420FEF7D8F82B4B1D5566E7FA2122
:10223000314E89003768781C11F094FC2F4B1B68D5
:1022400099423FD00022316020212D4B1A602D4B46
:10225000DD55214B5A7C0A435A741D554EE78A407E
:10226000D02109064A6191E71E4A13688021C901FD
:102270008C466344136041E793613FE7D021090630
:102280004A61B4E7D02109064A61A8E7D0210906CE
:102290004A619CE7D02109064A6190E7D0210906EE
:1022A0004A6184E7D02109064A6178E70122164B8A
:1022B0001A60094B1D5521E70022134B1A60064B8B
:1022C0001D551BE701220E4B1A60034B1D5515E7E8
:1022D000BCD501104C2A0120D42F01205C2A0120FA
:1022E000F4D40110342A0120AC2A0120FC2C012056
:1022F000580E0020F02A01205C24012060240120D7
:10230000202A0120B4390220540A00200B4B1A88DD
:10231000824206D01A8A82420BD01A8C82420AD09C
:10232000704700220121064812019B180160596084
:10233000F6E70122F6E70222F4E7C046C8090020CA
:1023400048290120F0B5C64600B582B00FF09EF8CE
:102350003C4F0B0039680200884600291CD0100051
:102360001900394C25686668401BB14105000029F9
:102370004BD036492260636035480C88844252D085
:102380000C8A844257D00C8C844258D00121494297
:102390008C46E0444146396014001D002D498C46AE
:1023A00008684968241A8D4100940195002D03D1D5
:1023B000294D009CAC4220D90025274C00196941C9
:1023C000644620606160100019001F4C2568666833
:1023D000401BB1410500002902D120498D4210D98E
:1023E0001A49226063600A88194B9A4219D00A8AF6
:1023F0009A4222D00A8C9A420BD002B004BC90467A
:10240000F0BD464601363E60F7E714498D42C3D918
:10241000AFE70223012212481B01C91802604A607B
:10242000EBE70023F6E7002001240D4D0001091819
:102430002C604C60AAE70120F6E70123EAE70220BE
:10244000F2E7C0461C2A0120581F0120C8090020BD
:10245000FCFF0000601F012040420F00400D030000
:10246000482901201E4B10B51A68002A25D0012AE0
:1024700012D114221B4C1C4B20001A600021230097
:1024800050301A78914200DA110001338342F8D1BA
:10249000164B1960164B1C60FEF714FE1548164BC0
:1024A0001649C25C164B1202C35C402013430B80DA
:1024B000F1230B72FEF732F910BD1021114C0A4BBB
:1024C000200019602300203019788A4200DA0A00BF
:1024D00001339842F8D1054B1A60054B1C60DBE7CD
:1024E000500A0020000A0020FC090020F809002002
:1024F000702F01209C0E0020FE7F0000582F01202D
:10250000FF7F0000A00E01200A4B002219880A4B11
:102510001B88994201D1094B1A780221084B1A7580
:102520005A7D8A435A750022064B1A80064B0132A7
:102530001A607047D82A0120D62A01209C0E01205B
:10254000D42F0120DE2A0120642A0120F0B54E4656
:102550004546DE4657460023E0B5B3B011931093CD
:1025600001931B932893299321930D9313932A93FB
:102570002B932C931C932D93199323931A932593A8
:102580001D9326931E9327931F93229302932093C8
:10259000CA4BCB4D9B46CB4B2C889946CA4ECB4B56
:1025A000CB4F984623B2002B00DABEE08023DB013C
:1025B0009C4201D302F0D6FF2300C64AD35CC64A30
:1025C00013700022C5490A60C54A1460FF2B01D967
:1025D00003F089FCC3499A008A5897460134A4B293
:1025E000C14BC14A1B882C800C339BB2190013804D
:1025F000BE4A0C391288914219DA934217D3BC4B68
:10260000BB491A78402313430B7013070FD5328848
:10261000B84B9A4201D105F0FCFB328A9A4201D1B3
:1026200005F000FC328C9A4201D105F0B3FCB24BAC
:10263000B14A1B8801339BB21380002B0BD1AF4AE8
:10264000AE491288013292B20A808021C9008A42C2
:1026500001D102F097FFAA4B1A683B6801333B6037
:102660003968A84B99420ADD00233B60A64B1B68E2
:1026700059424B41A4490B600123A4490B60002A35
:102680003FD0B368002B04D02B7ADB0601D502F0D3
:10269000ACFFF368002B05D05B461B68002B01D014
:1026A00002F0AFFF7368002B01D002F0B6FFB369F0
:1026B000002B04D02B7ADB0601D502F09BFFF369D7
:1026C000002B05D05B461B68002B01D002F09DFF5C
:1026D0007369002B01D003F002FBB36A002B02D018
:1026E0002B7ADB060DD4F36A002B05D05B461B6802
:1026F000002B01D002F08DFF736A002B01D003F094
:10270000F0FA4B461B68002B01D002F00CFF434649
:102710007F4A1B68934201DD02F0FDFE4246013311
:10272000136023B2002B00DB40E7C0231B029C4256
:1027300001D802F01DFF774BE318774AD35C664A55
:1027400013703EE7E023621C92B292465B009A420D
:1027500001D108F057FA01D903F0EEFA172A01D98E
:1027600003F0D7FA022A01D807F034FBD31E9BB23C
:10277000142B03D869499B00CB589F4613B2002BFA
:1027800001DB07F030FEC02109028A4201D808F0BF
:10279000CFF9604960485118415C7F2901D808F0A1
:1027A000D5F9E0235B009A4201D807F011F9D02354
:1027B0009B009A420CD001D905F083FB803B9A42E2
:1027C00001D109F039FC40339A4201D005F06EFB8B
:1027D0001000FEF7E5FC00232A88013BFF3B013295
:1027E0001BB292B23C4909782039C9B20F2901D9EC
:1027F00002F000FE4A48890041588F46494B1B7839
:102800007F2B01D808F0EEFA464B1B78E4E7464BE5
:102810001B6818000093FEF723F97F237E224340B4
:1028200013402C4A41495375D02212065268098838
:10283000520BD20113430222C91293430A4013439D
:10284000244A53750DF0E6FF2A88224B013292B2DA
:1028500092465B7D5BB2002B01DB03F081FAE02343
:102860005B009A429DD10DF013FDFA200124304BFC
:1028700040001C600EF01CFD2E4B1B689C4000931A
:10288000D0231B069C610023A6E72B4B1B78D9B2F3
:10289000012B01D109F0A8F91300022901D109F097
:1028A000DFF80C49CB5CD5E7114B1B787F2B01D8A7
:1028B00008F090FA0E4B1B788EE7C046540A0020B1
:1028C000582F0120202A0120C8090020A82A012011
:1028D0009C240120D42F0120D5300220D8300220A2
:1028E000E03102201CD60110E62A0120E42A012052
:1028F000F02A0120F4FF0000E02A0120E22A012052
:10290000482901209F860100A0240120A424012041
:10291000102700000080FFFF9C0E00201CDA011031
:1029200070DA0110EF2A0120E8D40110DE2A01201C
:102930005C2A0120F4D40110980E0020D022D24944
:10294000120653680968D048CB405268406800912D
:102950000121C2400B40DB015B080090114201D015
:1029600080221343D022C8491206526889685B0846
:10297000CA400091D20703D5802252421343DBB2F2
:10298000D022C14912065268C9685B08CA4000914A
:10299000D20703D5802252421343DBB2D022BA4978
:1029A0001206526809695B08CA400091D20703D534
:1029B000802252421343DBB2D022B349120652683E
:1029C00049695B08CA400091D20703D58022524270
:1029D0001343DBB2D022AC491206526889695B0806
:1029E000CA400091D20703D5802252421343DBB282
:1029F000D022A54912065268C9695B08CA400091F5
:102A0000D20701D408F0F6F98022962152421343EE
:102A10009E4ADBB2126849008A4209DA9C4CE220E5
:102A2000A4465100605461444B70984901320A60D9
:102A30005BB2002B01DB08F0E5F9D02292491206C7
:102A4000536809689048CB40526840680091012162
:102A5000C2400B40DB01CB4000900A4201D08022F3
:102A60001343D02288491206526889685B08CA401D
:102A70000091D20703D5802252421343DBB2D02209
:102A8000814912065268C9685B08CA400091D207A2
:102A900003D5802252421343DBB2D0227A49120678
:102AA000526809695B08CA400091D20703D58022A9
:102AB00052421343DBB2D02273491206526849696D
:102AC0005B08CA400091D20703D5802252421343CB
:102AD000DBB2D0226C491206526889695B08CA4091
:102AE0000091D20703D5802252421343DBB2D02299
:102AF000654912065268C9695B08CA400091D2074D
:102B000003D5802252421343DBB296215F4A49002B
:102B100012688A4200DB5FE65D4CE220A446510069
:102B2000605461444B70594901320A6054E6BB2B32
:102B300001D107F05CFD01D903F064F99B2B01D1B1
:102B400007F03DFD01D803F07DF9AB2B0FD16B8869
:102B5000601C80B29A46FFF7B7F8504480B2FFF786
:102B6000B3F82B88109001332B80AB1D049304998C
:102B7000109C0A7860B2A318DBB20B7051B2002926
:102B800001DA05F051F9240604D45BB2002B01DA16
:102B900005F053F902242B7AA343049C2B7224786A
:102BA000002C01D005F067F804342343049C2B72F9
:102BB00024787F2C01D905F067F80824A3432B72F1
:102BC000002901DA05F067F8002801DB05F06DF84F
:102BD000049909787F2901D905F067F801210B4391
:102BE00008212B72114201D104F018FE109A1142F3
:102BF00001D104F016FE20222C88134301342B72DD
:102C0000A4B2EDE4CE2B01D107F0BFFC01D903F053
:102C1000C3F9AE2B01D107F0AFFC01D903F0A0F945
:102C20008E2B01D107F064FC9E2B01D007F00BF92D
:102C3000601C80B2FFF748F880B2FFF7C7F92B8815
:102C40002B9001332B802B1D190016932B9B0222F6
:102C50000B802B7A1800904328720988002901D034
:102C600004F03DFF0423169A03432B720021525EA9
:102C7000002A01DA04F03DFF08222C889343013436
:102C80002B72A4B2ACE4C046580E0020AC2A01203E
:102C9000FC2C0120C92B01D107F0F2FB01D903F074
:102CA000EAFAA92B01D107F0E2FB01D903F0C7FA38
:102CB000892B01D107F033FC992B01D007F021F8C3
:102CC000601C80B2FFF700F880B2FEF7FDFF2B8892
:102CD000119001332B80AB1D18000593119C01232B
:102CE000A446297A02780B406344D318DBB251B270
:102CF000037060B2002901DA05F0F2F8240601D56C
:102D000006F0D7FF02242B7AA343059C2B7224786C
:102D1000002C01D004F091FF04342343059C2B7256
:102D200024787F2C01D904F091FF0824A3432B724F
:102D3000002901DA04F091FF002801DB04F097FF7D
:102D4000059909787F2901D904F091FF01210B43EE
:102D500008212B72114201D104F036FD119A114263
:102D600001D104F034FD20222C88134301342B724E
:102D7000A4B235E4C82B01D107F029FB01D903F037
:102D800035FBA82B01D107F039FB01D903F03CF941
:102D9000882B01D107F0C9FB982B01D006F0ABFFBF
:102DA000601C80B2FEF790FF80B2FEF78DFF83B209
:102DB0002A932B8801332B80AB1D190015930B78B8
:102DC0002A9A53400B702B7A0222180090432872E3
:102DD0000978002901D004F071FE0423159A0343F9
:102DE0002B7212787F2A01D904F071FE08222C88F8
:102DF000934301342B72A4B2FFF7F2FBC62B01D12F
:102E000007F087FB01D904F0C6F8A62B01D107F023
:102E100092FB01D904F0A4F8862B01D107F088FBBE
:102E2000962B0CD1601C80B2FEF74EFF80B2FEF7ED
:102E30004BFF2B882C9001332B80AB1D1793022264
:102E40002B7A93432B72179A2C9B1370002B01D073
:102E500004F0F9FD04222B7A1343179A2B7212788F
:102E60007F2A01D904F0F9FD08222C88934301340C
:102E70002B72A4B2FFF7B4FBC52B01D107F079FB8D
:102E800001D903F081FAA52B01D107F0FFFA01D98E
:102E900003F0A4F9852B01D107F043FA952B01D05B
:102EA00006F0CEFF601C80B2FEF70EFF80B2FEF788
:102EB0000BFF83B229932B8801332B80AB1D2E93FC
:102EC0001A78299B1A4051B22B7A002A01D003F0BC
:102ED000A8F9023293430232134308222C88934309
:102EE00001342B72A4B2FFF77BFBC42B01D107F096
:102EF0008EFA01D904F06DF8A42B01D107F0EEF998
:102F000001D903F071FD842B01D107F0E4F9942B72
:102F100001D007F078F9601C80B2FEF7D5FE80B2D0
:102F2000FEF7D2FE83B228932B8801332B80AB1D92
:102F3000190014930B78289A13400B702B7A0222F5
:102F40001800904328720978002901D004F00AFE85
:102F50000423149A03432B7212787F2A01D904F0B8
:102F60000AFE08222C88934301342B72A4B2FFF787
:102F700037FBC22B01D107F0ABF901D903F05FFF9A
:102F8000A22B01D107F09BF901D903F03CFF822B62
:102F900001D107F0C7FA922B01D006F0A9FE601C00
:102FA00080B2FEF791FE80B2FEF78EFE2B8819905C
:102FB00001332B80AB1D1C0006932278199B287AC5
:102FC000D11A01230340CB1A1998DBB252B22370F5
:102FD00041B2002A01DA04F0AFFF000601D506F085
:102FE00080FE02202B7A834306982B7200780028FB
:102FF00001D004F03AFD0430034306982B720078A8
:103000007F2801D904F03AFD082083432B72002A5F
:1030100001DA04F03AFD002901DA04F060FC069AB6
:1030200012787F2A01D904F05AFC01222C8893439C
:1030300001342B72A4B2FFF7D3FAC12B01D107F0F0
:10304000F2F901D903F091FBA12B01D107F0E2F9CC
:1030500001D903F06FFB812B01D107F05DFA912BB1
:1030600001D006F04BFE601C80B2FEF72DFE80B250
:10307000FEF72AFE2B88219001332B80AB1D2F9366
:103080001A78219BD41A59B2E4B252B28A4661B27C
:10309000002A01DA04F032FF1B0601D506F003FE18
:1030A00002202B7A8343002C01D004F0F4FC04347A
:1030B00023430824A343002A01DA04F0F8FC524613
:1030C000002A01DA04F003FC002901DA04F0FFFB16
:1030D00001222C88934301342B72A4B2FFF780FAAB
:1030E000C02B01D107F0CFF901D903F058F8A02B7C
:1030F00001D107F05BFA01D902F0F8FF802B01D172
:1031000007F047F9902B01D006F09CFF601C80B2BD
:10311000FEF7DAFD80B2FEF7D7FD2B88229001334F
:103120002B80AB1D190007930A78131ADBB252B239
:103130000B7041B2002A01DA02F0FCFF000601D553
:1031400006F0A4FD02202B7A834307982B720078A7
:10315000002801D003F001F80430034307982B72D4
:1031600000787F2801D903F001F8082083432B72EF
:10317000002A01DA03F001F8002901DA03F007F868
:10318000079A12787F2A01D903F001F801222C88CE
:10319000934301342B72A4B2FFF722FACA2B01D158
:1031A00007F0A3F901D903F03DFFAA2B01D107F0E5
:1031B000BBF801D903F0B7FE8A2B01D107F0C4F99F
:1031C0009A2B01D006F014FE601C80B2FEF77CFD45
:1031D00080B2FEF779FD83B22D932B8801332B80CB
:1031E000AB1D190018930B782D9A13430B702B7A93
:1031F00002221800904328720978002901D004F0B7
:10320000A0FC0423189A03432B7212787F2A01D959
:1032100004F0A0FC08222C88934301342B72A4B242
:10322000FFF7DEF9D72B01D107F037F801D903F00A
:103230005CFEA72B01D107F027F8B72B01D003F0D4
:1032400043FE0134A0B2FEF73FFD84B22888240279
:10325000023080B2FEF738FDA4B20443A3B2239338
:10326000AB791A932B8802332B801A9C2398210068
:10327000FEF7F6FE22002B7A002C01D004F0A3FD0D
:10328000023293430232134308222C8893430134C1
:103290002B72A4B2FFF7A4F9EC2B01D106F0BDFE0E
:1032A00001D903F035FDCC2B01D106F0BFFDDC2B9D
:1032B00014D10134A0B2FEF707FD80B2FEF704FD81
:1032C000A8712888013080B2FEF7FEFC013080B280
:1032D000FEF7FAFC2B88E87101332B80EA882B7A01
:1032E00051BA002A01D003F038FD02329343023272
:1032F000134308222C88934301342B72A4B2FFF7A6
:103300006FF9E32B01D106F06AFD01D903F0DEFC71
:10331000C32B01D106F078FDD32B01D006F025F8A0
:103320000134A0B2FEF7D0FC83B29A461800FEF733
:10333000CBFC53460400581C80B2FEF7C5FC2402A7
:103340002418A2B22C880134A4B2A979EB7909021D
:103350000B43D3189BB20193EB8880215BBA180012
:1033600009020840194201D004F034FC13B29C4613
:10337000130406D46B4604229B5E002B01DA04F092
:1033800036FC0222297A91436346002801D104F0D9
:1033900018FC002B06DB6B4604229A5E002A01DA39
:1033A00004F013FC01230B43019A002A01D004F01E
:1033B000A8FB04321343082293432B72019B013470
:1033C0005BBAEB80A4B2FFF70BF9AC2B01D106F08E
:1033D000CFFC01D902F06EFF8C2B01D106F094FCDA
:1033E0009C2B01D005F071FC0134A0B2FEF76CFCFF
:1033F00083B29A461800FEF767FC53460400581C37
:1034000080B2FEF761FC24022418A3B22C88013498
:10341000A4B22C806A8818B2D11A89B212B20D9166
:10342000002A01DA04F034FD1B0401D506F048FC43
:1034300002212B7A8B431900002A01DA04F002FDE5
:10344000002801DA04F02BFA6B4634229A5E002A37
:1034500001DA04F024FA01220B0093430D9A002AAA
:1034600001D004F023FA04321343082201349343B9
:103470002B72A4B2FFF7B4F8AD2B01D106F062FDB8
:1034800001D903F03CFF8D2B01D106F07EFD9D2B71
:1034900001D006F076FD0134A0B2FEF715FC2988B4
:1034A00084B20131A88889B2431E2980C9B2AB8099
:1034B000FEF7D6FDA8882988431E090AAB80FEF7CF
:1034C000CFFDFFF78DF8672B01D106F016FE01D96D
:1034D00003F0DEF9472B01D106F09BFE572B01D0FC
:1034E00006F094FEEB1DE96812930122129B1B78F3
:1034F0001A4201D103F0FCF92B7A1343DBB22B7291
:10350000002901D003F0FBF94023129A14786408D3
:103510001470234201D103F0FEF940331C431470B0
:10352000EB68002B01D004F0BCFE04222B7A9343FD
:10353000DA0701D503F0FFF90A222C8893430134FE
:103540002B72A4B2FFF74CF8662B01D106F043FDB5
:1035500001D903F010FC462B01D106F023FE562BB7
:1035600001D006F01CFEEB1DE8680C93012211004F
:103570002B7A19408A460C9909780A4201D104F045
:1035800051FB1343DBB22B72002801D004F050FB37
:1035900053460C9A147864081470002B01D104F07F
:1035A0002BFB80231C431470EB68002B01D004F02C
:1035B0007AFD04222B7A93430C9A2B7212787F2A7D
:1035C00001D904F02BFB0822934309221A40082A50
:1035D00001D104F03EF9012A01D104F03AF90222A6
:1035E0002C88934301342B72A4B2FEF7F9FF642BAD
:1035F00001D106F0ABFD01D902F0B7FF442B01D198
:1036000006F076FD542B01D006F06BFDEB1DE9684A
:103610000F9301220F9B1B781A4201D102F0D5FFB4
:103620002B7A1343DBB22B72002901D002F0D4FFB6
:103630000F9B1A7854081C70EB68002B01D002F025
:10364000D7FF2B7ADA0701D404F0ADFA0222134334
:103650000F9A2B721278002A01D004F0A0FA0432DB
:10366000134308222C88934301342B72A4B2FEF733
:10367000B7FF632B01D106F013FD01D902F02FFF34
:10368000432B01D106F05DFD532B01D006F056FD12
:10369000EA1DEB680E92002B01D002F048FF0E9B52
:1036A0001C78E443E4B21C70EB68002B01D002F0FC
:1036B0004BFF2A7A0223110099430B0001211800C5
:1036C000084328720E980078002801D004F068FBA7
:1036D000052213430E9A2B7212787F2A01D904F027
:1036E0006AFB08222C88934301342B72A4B2FEF7A4
:1036F00077FF6F2B01D106F0FCFB01D903F049FAEB
:103700004F2B01D106F019FC5F2B01D006F012FC03
:10371000EA1DEB683092002B01D003F062FA309A78
:1037200013700B222B7A2C88934304220134134309
:103730002B72A4B2FEF754FF6D2B01D106F086FC6C
:1037400001D903F08BF94D2B01D106F0A4FC5D2BC0
:1037500001D006F09DFCEB1DE96824932B7A03222F
:10376000180090432872002901D003F0A9F9249988
:103770000978002901D005F015F80423249A0343A1
:103780002B7212787F2A01D905F015F808222C88AF
:10379000934301342B72A4B2FEF722FF6C2B01D1AC
:1037A00006F054FB01D903F04BFA4C2B01D106F083
:1037B00071FB5C2B01D006F06AFBEA1DEB680A92F4
:1037C000002B01D003F064FA0A9B1C780134E4B2A8
:1037D0001C70EB68002B01D003F067FA02222B7AF1
:1037E000802C01D104F05CFC93430A9A2B7212786E
:1037F000002A01D004F0C3FA043213430A9A2B7250
:1038000012787F2A01D904F0C3FA08222C88934346
:1038100001342B72A4B2FEF7E3FE692B01D106F04E
:1038200085FA01D902F0F5FE492B01D106F0B2FC70
:10383000592B01D006F0ABFCEB1DE8680B9301227D
:1038400011002B7A19408A460B9909787F2901D9F2
:1038500004F00DFB93432B72002801D004F00EFB03
:1038600053460B9A14786400E4B21470002B01D113
:1038700004F063FA01231C431470EB68002B01D0A1
:1038800005F055FE04222B7A93430B9A2B72127883
:103890007F2A01D904F064FA0822934309221A40CE
:1038A000082A01D103F0E5FF012A01D103F0E1FF6D
:1038B00002222C88934301342B72A4B2FEF790FEAF
:1038C000682B01D106F0EBFA01D903F00DF9482B72
:1038D00001D106F009FB582B01D006F002FBEB1DCD
:1038E000E9680893089B1B787F2B01D903F02BF91B
:1038F00001222B7A93432B72002901D003F02BF97C
:10390000089B1C786400E4B21C70EB68002B01D0AB
:1039100003F02EF904222B7A002C01D004F033F9A5
:103920001343089A2B7212787F2A01D904F033F9D5
:103930000822934309221A40082A01D103F091FF7B
:10394000012A01D103F08DFF02222C889343013418
:103950002B72A4B2FEF744FE6A2B01D106F02AFCBA
:1039600001D902F06EFB4A2B01D106F047FC5A2B1D
:1039700001D006F040FCEB1DE9680993099B1B7818
:10398000802B01D102F08CFB02222B7A93432B7205
:10399000002901D002F08CFB099B1C78013CE4B2A9
:1039A0001C70EB68002B01D002F08FFB04222B7AF5
:1039B000002C01D003F0C4FF1343099A2B72127834
:1039C0007F2A01D903F0C4FF08222C8893430134D5
:1039D0002B72A4B2FEF704FE602B01D106F0D1F9E0
:1039E00001D902F08BFC402B01D106F0EEF9502BEF
:1039F00001D006F0E7F9EA1DEB680392002B01D035
:103A000002F0A4FC039B1C786442E4B21C70EB68D7
:103A1000002B01D002F0A7FC02222B7A802C01D1CE
:103A200004F03BFB9343039A2B721278002A01D1D6
:103A300004F050F901221343039A2B721278002AE2
:103A400001D004F036F904321343039A2B72127832
:103A50007F2A01D904F036F908222C8893430134D7
:103A60002B72A4B2FEF7BCFDA32B01D106F0C3F963
:103A700001D902F0F9FD832B01D106F04EF9932B09
:103A800001D005F015FD0134A0B2FEF71DF983B297
:103A90009A461800FEF718F953460400581C80B2E5
:103AA000FEF712F924022418A2B22C880134A4B221
:103AB000A979EB7909020B439B1A9BB20293EB881D
:103AC00080215BBA180009020840194201D004F0B5
:103AD00022F913B29C46130401D506F0A7FB02227B
:103AE000297A91436346002801D004F005F9002BA0
:103AF00001DA04F00CF96B4608229B5E002B01DA18
:103B000004F005F901220B009343029A002A01D028
:103B100003F081FF04321343082293432B72029B6C
:103B200001345BBAEB80A4B2FEF75AFD372B01D10A
:103B300006F017F83C2B01D106F001F8362B01D125
:103B400005F0F2FF0134A4B2FEF74AFD332B01D198
:103B500006F090F8382B01D106F076F8322B01D11F
:103B600006F066F80134A4B2FEF73AFDAF2B01D19E
:103B700005F0BBFFBF2B01D105F0A1FF9F2B01D1A9
:103B800005F090FF269B1E9C9A461800210AFEF71E
:103B900067FA5346581CE1B280B2FEF761FA2B7AFD
:103BA000002C01D003F0BAFF0222934302321343E8
:103BB00008222C88934301342B72A4B2FEF710FD27
:103BC000EF2B01D106F01FF8FF2B01D106F005F80D
:103BD000DF2B01D106F027F8279B1F9C9A4618007F
:103BE000210AFEF73DFA5346581CE1B280B2FEF7B7
:103BF00037FA2B7A002C01D004F0F8F80222934314
:103C00000232134308222C88934301342B72A4B24E
:103C1000FEF7E6FCED2B01D105F0D7FFFD2B01D11E
:103C200005F0BAFFDD2B01D105F0A6FF259B1D9CF9
:103C30009A461800210AFEF713FA5346581CE1B2BF
:103C400080B2FEF70DFA2B7A002C01D003F088FE2B
:103C5000022293430232134308222C8893430134F7
:103C60002B72A4B2FEF7BCFC092B01D105F019F9A7
:103C7000342B01D105F00EF90134A4B2FEF7B0FCEB
:103C8000082B01D104F07EFD312B01D104F073FD2E
:103C90000134A4B2FEF7A4FC622B01D104F0C2FDF2
:103CA000722B19D10234A0B2FEF70EF880B2FEF7E3
:103CB0000BF804002888013080B2FEF705F80443B1
:103CC0002888E4B2023080B21C94FDF7FDFF210089
:103CD00080B2FEF7C5F92C886A4670215218127816
:103CE0002B7A52B2002A01DA03F001FE0A22934332
:103CF0001C9A002A01D003F0FEFD04220334134372
:103D00002B72A4B2FEF76CFC612B01D104F05BFDB9
:103D1000712B41D1A31C9BB29A46E0235B009A45CC
:103D200001D108F0BCF901D904F0A9FD5346172BC5
:103D300001D904F097FD022B01D804F0B9FD033B33
:103D40009BB2142B03D8C64A9B00D3589F465346B8
:103D50001B0401D407F0A6FEC0231B029A4501D81C
:103D600008F07CF9BF4B5344BF4AD05C80B2FDF7EA
:103D7000ABFF04002888013080B2FDF7A5FF0440A6
:103D80002888E4B2023080B21B94FDF79DFF210029
:103D900080B2FEF765F92C886A466C2152181278B9
:103DA0002B7A52B2002A01DA03F0DEFF0A22934393
:103DB0001B9A002A01D003F0DBFF042203341343D3
:103DC0002B72A4B2FEF70CFC6B2B01D105F0D0FADC
:103DD0007B2B01D000F0CFFD0234A0B2FDF774FFC1
:103DE000C31EDBB2142B01D900F0BBFD9F4A9B0020
:103DF000D3589F46652B01D105F0CFFA752B01D022
:103E000002F073FCA31C9BB29A46E0235B009A4528
:103E100001D108F066F901D905F035FB5346172B9F
:103E200001D904F039FB022B01D805F078FC033BE3
:103E30009BB2142B03D88E4A9B00D3589F465346FF
:103E40001B0401D407F040FEC0231B029A4501D891
:103E500008F080F9834B5344834AD35C05F062FC3D
:103E60006E2B01D105F077FA7E2B01D105F029F8F0
:103E70000134A4B2FEF7B4FB01222B7A01341343C0
:103E80002B72A4B2FEF7ACFB01222B7A01349343D0
:103E90002B72A4B2FEF7A4FB6A88EB7901349B185D
:103EA0006B80A4B2FEF79CFBE023AA885B00501C49
:103EB00080B20400A880984201D106F076FE01D9B4
:103EC00003F0D0F8172801D902F03FFD022800D8EE
:103ED000C2E0C31E9BB2142B03D866499B00CB588B
:103EE0009F4603B2002B01DB06F0F0FAC0231B0251
:103EF000984201D806F04AFE5A4B9C4660445A4B01
:103F000002321C5CE02390B2240282462C80A880FE
:103F10005B00984201D803F07FFBD0239B009842BE
:103F200061D8803B984201D106F02BFE4033984285
:103F300001D002F0F2FBFDF733F92C88FEF750FBBD
:103F40004D4B1C782402013080B28246A8800300C9
:103F5000813BFF3B012B01D902F0E6FB8223FF33BB
:103F6000984201D1FEF73CFB7F22444B1B68009333
:103F700013401C43FEF734FB414B1B6818000093B1
:103F8000FCF76EFD7F237E22434013403D4A3E49AD
:103F90005375D022120652680988520BD20113437E
:103FA0000222C91293430A401343364A53750CF058
:103FB00031FC344BA8885C7D2402E023013080B2C0
:103FC00082462C80A8805B00984201D106F05CFDFF
:103FD00001D803F021FBD0239B009842ABD0D02323
:103FE0009B0098429DD9E8239B00984201D108F09C
:103FF000E6FF01D803F00FFAF0239B00984201D0AE
:1040000003F0E6F901235A46136002F08CFB1F4BC4
:104010001C782402013080B28246A88003B2002BB3
:1040200001DB02F081FBC0231B02984201D806F09D
:104030003EFD0C4B9C4660440B4B1B5C1C43FEF747
:10404000CFFA134B1B78DAB2012B01D107F0A0FD98
:10405000022A01D107F0D1FC0A4B1C5D2402ACE717
:10406000B0DA01100080FFFF9C0E002004DB01107D
:1040700058DB0110ACDB0110EF2A01206C29012074
:10408000E8D40110D42F0120DE2A0120F02A0120DB
:10409000980E0020D023DC4A1B065C681268DA49BF
:1040A000D4405B68496800920122CB401440E4018F
:1040B000640800911A4201D080231C43D023D24AC5
:1040C0001B065B6892686408D3400092DB0703D547
:1040D00080235B421C43E4B2D023CB4A1B065B68BF
:1040E000D2686408D3400092DB0703D580235B428B
:1040F0001C43E4B2D023C44A1B065B6812696408FF
:10410000D3400092DB0703D580235B421C43E4B21B
:10411000D023BD4A1B065B6852696408D3400092F5
:10412000DB0703D580235B421C43E4B2D023B64AAD
:104130001B065B6892696408D3400092DB0703D5D5
:1041400080235B421C43E4B2D023AF4A1B065B686A
:10415000D2696408D3400092DB0703D580235B4219
:104160001C43E4B29622A94B52001B689A46934224
:1041700000DB4EE7E2215A00A54B9C46995453467A
:1041800062445470A14A01331360240242E76B88F1
:104190000134013BAB80A4B2FEF722FAAB880134B4
:1041A00001336B80A4B2FEF71BFAEA79AB79534373
:1041B0005ABAEA801B0601D403F0BAFB01222B7A1B
:1041C000013413432B72A4B2FEF70AFAE023AA8843
:1041D0005B00501C80B20400A880984201D106F018
:1041E0003FFC01D902F0CFFB172801D902F0BCFB3C
:1041F000022800D89CE1C31E9BB2142B03D885492A
:104200009B00CB589F4603B2002B01DB06F095F8CC
:10421000C0231B02984201D806F0A9FC7E4B9C46A5
:1042200060447E4B02321B5C90B22B72E023040090
:10423000A8805B00984201D803F02AF9D0239B00A4
:10424000984200D926E1803B984201D106F0A8FCB3
:104250004033984201D002F0C4FAFCF7A1FF0023DA
:10426000A888EB71E023013080B20400A8805B00D5
:10427000984201D106F03CFD00D83EE1D0239B00DE
:1042800098420FD0D0239B00984201D902F099FFA9
:10429000803B984201D106F041FC4033984201D066
:1042A00002F082FFFCF77CFF0023A888AB71E023BB
:1042B000013080B20400A8805B00984201D106F072
:1042C00000FC00D88EE3D0239B0098420FD0D0236F
:1042D0009B00984201D902F0BEFA803B984201D17E
:1042E00006F0C6FC4033984201D002F085FAFCF794
:1042F00057FF0022A888E023013080B204006A80C2
:10430000A8805B00984201D106F068FC00D8CCE39D
:10431000D0239B0098420FD0D0239B00984201D914
:1043200002F0F4FE803B984201D106F097FC403346
:10433000984201D002F075FBFCF732FF6A88A8882A
:10434000E023013080B204006A80A8805B009842BC
:1043500001D106F0CAFB01D800F06FFCD0239B000E
:1043600098420FD0D0239B00984201D902F0DDFE85
:10437000803B984201D106F076FC4033984201D050
:1043800002F05EFB0024FCF70BFFA888E02301305D
:1043900080B282462C80A8805B00984201D106F052
:1043A0008FFC01D800F0D0FCD0239B0098420FD0A6
:1043B000D0239B00984201D902F004FA803B984236
:1043C00001D106F090FC4033984201D002F0EBF9A5
:1043D000FCF7E6FE2C88FEF703F9114B1B78013041
:1043E00080B204002B720300813BFF3B012B01D9FB
:1043F00002F0FEF98223FF33984201D007F03BFC24
:10440000002301F072FCC046580E0020AC2A0120A7
:10441000FC2C012000DC01100080FFFF9C0E00201E
:10442000EF2A0120DD4B1B6818000093FCF718FBF6
:104430007F237E2243401340D94ADA495375D02264
:10444000120652680988520BD20113430222C91284
:1044500093430A401343D24A53750CF0DBF9D04B17
:10446000A8885B7D2B72E023013080B20400A88015
:104470005B00984201D106F000FC01D803F008F877
:10448000D0239B00984200D1E7E6D0239B009842BE
:1044900000D8D8E6E8239B00984201D108F09AFDA5
:1044A00001D802F086FFF0239B00984201D002F071
:1044B0005FFF01235A46136002F099F9BA4B1B784B
:1044C000013080B204002B7203B2002B01DB05F037
:1044D0000EFFB64B1B680093009AB54B9446C31869
:1044E0006344B44A0130D35C80B2EB71E023040032
:1044F000A8805B00984200D9C4E6172801D901F0D2
:10450000F8FB022800D866E3C31E9BB2142B00D927
:104510004FE2A94A9B00D3589F46A84B1B78DAB2BA
:10452000012B01D107F098FB022A01D107F056FABE
:104530009B4B1B5D96E7D022A14912065368096880
:104540009F4CCB405268646800910121E2400B40CF
:10455000DB015B080094114201D080221343D0227A
:1045600097491206526889685B08CA400091D207D1
:1045700003D5802252421343DBB2D0229049120667
:104580005268C9685B08CA400091D20703D58022EF
:1045900052421343DBB2D02289491206526809699C
:1045A0005B08CA400091D20703D5802252421343D0
:1045B000DBB2D02282491206526849695B08CA40C0
:1045C0000091D20703D5802252421343DBB2D0229E
:1045D0007B491206526889695B08CA400091D2077C
:1045E00003D5802252421343DBB2D0227449120613
:1045F0005268C9695B08CA400091D20703D580227E
:1046000052421343DBB296216E4A49001268924629
:104610008A4200DB54E7E22451006B4A944654542A
:10462000524661444B70674901320A6048E7A888E6
:104630000134431EE1B2AB80FDF712FD2988A88842
:1046400001310912431EC9B2AB80FDF709FDA888EC
:10465000A978431EAB80FDF703FDA8886988431E37
:10466000090AAB80FDF7FCFCA888A979431EAB8042
:10467000FDF7F6FCA888E979431EAB80FDF7F0FC56
:10468000A888297A431EAB80FDF7EAFC10222B7A1A
:1046900013432B72474A4D4BD05C4D4B0002D45C08
:1046A0004C4B4C4A1B682418009301331360A4B28E
:1046B000FDF796FF0F20A9792B7A084084460A005F
:1046C000980600D58A1D6046092800D90632D80709
:1046D00000D560329F2A01DC03F06CF960320120C2
:1046E00018438446100601D409F03CF808236046BC
:1046F0000343042083435140090601D403F056F9D3
:1047000002210B4301342B72AA71A4B2FDF768FF9A
:10471000A9796B88EA7909025BBA0A4301346A8095
:10472000EB80A4B2FDF75CFF2B7A0134AB71A4B22D
:10473000FDF756FF3F222B7AA97993430A40134392
:1047400001342B72A4B2FDF74BFFAB79EA791B025F
:104750001A4313B2002B01DA03F095FB01212B7AE7
:104760008B43520092B20421002A01D003F01FFAB9
:104770000B4308218B4309211940082901D103F07B
:1047800064F8012901D103F060F802218B4352BA89
:1047900001342B72EA80A4B2FDF722FFE8D40110A5
:1047A000D42F0120DE2A0120F02A01204C2A0120EA
:1047B0000080FFFF9C0E002054DC0110980E0020AA
:1047C000580E0020AC2A0120FC2C0120FA7F0000AA
:1047D000FB7F0000D8300220AB79EA791B0213433B
:1047E0005908D20701D403F09EF803202A7A024325
:1047F0000420002901D003F093F8024308205B0A4B
:10480000824301342A72AB71E971A4B2FDF7E8FE6C
:10481000E979AB795A1AD2B294465AB263465BB27E
:1048200049B20093002A01DA03F012FB002901DAF1
:1048300005F033FA02202B7A83436046002801D02A
:1048400003F0A1F80430034308208343002A01DA6F
:1048500003F0A6F8002901DA03F01AF8009A002AFA
:1048600001DA03F015F80122013493432B72A4B24C
:10487000FDF7B6FEEA79A97953B2881AC0B249B2F7
:10488000A8710093002901DA03F045FB002B01DA3F
:1048900005F01FFA43B29C4602232A7A9A4313007A
:1048A000002801D003F098F8043003430820009A50
:1048B0008343002901DA03F09DF8002A01DA02F0AF
:1048C000E0FF6246002A01DA02F0DBFF0122013438
:1048D00093432B72A4B2FDF783FEEA792B7AAA7177
:1048E000002A01D003F00EF8023293430232134340
:1048F0000822013493432B72A4B2FDF771FE1022FB
:104900002B7A013413432B72A4B2FDF769FE1022F7
:104910002B7A013493432B72A4B2FDF761FEAA797E
:104920002B7AEA71002A01D003F0D8F902329343BE
:10493000023213430822013493432B72A4B2FDF7D1
:104940004FFEE14B1B78DAB2012B01D007F028FBB8
:10495000112806D1DD4B5B7C7F2B02D90223DA4A7A
:104960001370DA4B1C5C2888013080B2FDF7ACF97B
:10497000044020942C886A468021521812782B7AA1
:1049800052B2002A01DA03F03BF80A229343209A3C
:10499000002A01D003F038F80422033413432B72A9
:1049A000A4B2FDF71DFECA4B1B78013080B2040093
:1049B000EB7103B2002B01DB05F0A5FCC54B1B68B6
:1049C0000093009AC44B9446C3186344C34A013011
:1049D000D35C80B2AB71E0230400A8805B009842F6
:1049E00000D974E4172810D8022800D8E7E3C31EC2
:1049F0009BB2142B3FD8BA4A9B00D3589F46B94B61
:104A00001B78013080B20400AB710300813BFF3B97
:104A1000012B00D9D3E38223FF33984201D007F062
:104A200033F9002217E3B04B1B6818000093FCF722
:104A300017F87F237E2243401340A44AAB495375A5
:104A4000D022120652680988520BD2011343022267
:104A5000C91293430A4013439C4A53750BF0DAFE84
:104A60009A4BA8885B7DFFF721FC994B1B7801309E
:104A700080B20400AB7103B2002B01DB05F06BFCCC
:104A8000944B1B680093009A934B9446C31863445D
:104A9000924A0130D25CE02380B2120204006A80A4
:104AA000A8805B00984200D936E4172800D9D5E2E7
:104AB000022800D8E8E1C31E9BB2142B00D9A1E064
:104AC0008B499B00CB589F46D0228A4912065368D7
:104AD0000968884CCB405268646800910121E2402B
:104AE0000B40DB015B080094114201D0802213438C
:104AF000D02280491206526889685B08CA4000913A
:104B0000D20703D5802252421343DBB2D022794927
:104B100012065268C9685B08CA400091D20703D5E3
:104B2000802252421343DBB2D022724912065268ED
:104B300009695B08CA400091D20703D5802252421E
:104B40001343DBB2D0226B491206526849695B08F5
:104B5000CA400091D20703D5802252421343DBB2F0
:104B6000D02264491206526889695B08CA400091E4
:104B7000D20703D5802252421343DBB2D0225D49D3
:104B800012065268C9695B08CA400091D20703D572
:104B9000802252421343DBB29621574A49001268E1
:104BA00092468A4200DB62E7E2245100534A94466F
:104BB0005454524661444B704F4901320A6056E7E3
:104BC000414B1B78DAB2012B01D107F06FF8022AB2
:104BD00001D106F03EFF3D4B1B5DFFF767FB203325
:104BE000984201D002F0F2F83A4B1B68002B01D03A
:104BF00007F0D4FF8023374A1B021360013080B2D4
:104C00000400002203B2002B01DB05F00FFC314B46
:104C10001B6800930099304B8C46C31863442F499E
:104C20000130CB5C80B21A43E02304006A80A88084
:104C30005B00984201D9FFF795FB172811D802288D
:104C400000D800E2C31E9BB2142B62D82C4A9B00F2
:104C5000D3589F46234B1B781A43013080B204007F
:104C60006A800300813BFF3B012B00D9EBE18223EB
:104C7000FF33984201D007F020F800240CE11A4BD2
:104C80001B6818000093FBF7EBFE7F237E22434056
:104C900013400E4A15495375D022120652680988EE
:104CA000520BD20113430222C91293430A40134309
:104CB000064A53750BF0AEFD044BA8885A7D6B88ED
:104CC0001A43FFF73DFBC046980E0020D42F012069
:104CD000F02A01204C2A01200080FFFF9C0E0020BA
:104CE000A8DC0110EF2A0120E8D40110DE2A0120FF
:104CF000FCDC0110580E0020AC2A0120FC2C012005
:104D000050DD0110DF4B1B781A43013080B20400E4
:104D10006A8003B2002B01DB05F02CFBDA4B1B6829
:104D20000093009AD94B9446C3186344D84A013083
:104D3000D45CE02380B2240282462C80A8805B00F1
:104D4000984201D9FFF734FB172800D9A8E00228C0
:104D500000D8A2E2C31E9BB2142B00D95AE2CD4A5E
:104D60009B00D3589F46D024CB492406636809682A
:104D70006468CB40009101218C460B40C649DB01A1
:104D800049685B08CC4000916146214201D07F31E7
:104D90000B43D021C04C09064968A4685B08E14078
:104DA0000094C90703D5802149420B43DBB2D021CF
:104DB000B94C09064968E4685B08E1400094C907FA
:104DC00003D5802149420B43DBB2D021B24C090606
:104DD000496824695B08E1400094C90703D5802134
:104DE00049420B43DBB2D021AB4C090649686469E8
:104DF0005B08E1400094C90703D5802149420B4379
:104E0000DBB2D021A44C09064968A4695B08E140E3
:104E10000094C90703D5802149420B43DBB2D0215E
:104E20009D4C09064968E4695B08E14000933194B0
:104E3000C90704D5802149420B43DBB20093962475
:104E4000964964000B689A46A34201DB06F0B1FD67
:104E5000E224A4466146924C5B00E154A44619004A
:104E6000009B61444B7051468C4C013121601A43C8
:104E70004BE78C4B1B78D9B2012B01D106F00FFF09
:104E8000022901D106F0CFFD874B1B5D1A43FFF7C6
:104E900057FA864B1C782402013080B28246A880E3
:104EA0000300813BFF3B012B00D9F6E18223FF3356
:104EB000984201D1FDF794FB7F227D4B1B68009344
:104EC00013401C43FDF78CFB7A4B1B6818000093C2
:104ED000FBF7C6FD7F237E2243401340724A76498A
:104EE0005375D022120652680988520BD20113431F
:104EF0000222C91293430A4013436B4A53750BF0C5
:104F000089FC694BA8885C7D2402FFF73FFA5D4B62
:104F10001C782402013080B28246A88003B2002BA4
:104F200000DBE8E2594B9C46574B60441B689C46AB
:104F30000093604479E1D023574A1B065C681268ED
:104F40005549D4405B68496800920122CB40144027
:104F5000E401640800911A4201D080231C43D0234D
:104F60004D4A1B065B6892686408D3400092DB07D9
:104F700003D580235B421C43E4B2D023464A1B0680
:104F80005B68D2686408D3400092DB0703D58023B6
:104F90005B421C43E4B2D0233F4A1B065B681269A4
:104FA0006408D3400092DB0703D580235B421C4397
:104FB000E4B2D023384A1B065B6852696408D340C8
:104FC0000092DB0703D580235B421C43E4B2D0236D
:104FD000314A1B065B6892696408D3400092DB0784
:104FE00003D580235B421C43E4B2D0232A4A1B062C
:104FF0005B68D2696408D3400092DB0703D5802345
:105000005B421C43E4B29622244B52001B689A4632
:10501000934200DB7DE7E2215A00214B9C469954E4
:105020005346624454701D4A01331360240271E7F1
:105030001C4B1B78DAB2012B01D106F0CEFD022AFF
:1050400001D106F01CFD184B1C5D2402FFF79EF9F0
:10505000164B1A781202013080B204000300813B23
:10506000FF3B012B00D90FE78223FF33984200D189
:10507000F3E57F21C0200E4B40001B6800930B40DE
:105080001A43EAE5F02A01204C2A01200080FFFFA4
:105090009C0E0020A4DD0110580E0020AC2A012037
:1050A000FC2C0120980E0020D42F0120EF2A012093
:1050B0006C290120E8D40110DE2A0120D023E14927
:1050C0001B065A680968DF4CCA405B686468009137
:1050D0000121E3400A40D20152080094194201D054
:1050E00080231A43D023D7491B065B68896852087E
:1050F000CB400091DB0703D580235B421A43D2B239
:10510000D023D0491B065B68C9685208CB40009188
:10511000DB0703D580235B421A43D2B2D023C949AF
:105120001B065B6809695208CB400091DB0703D579
:1051300080235B421A43D2B2D023C2491B065B686C
:1051400049695208CB400091DB0703D580235B42BD
:105150001A43D2B2D023BB491B065B688969520847
:10516000CB400091DB0703D580235B421A43D2B2C8
:10517000D023B4491B065B68C9695208CB40009133
:10518000DB0703D580235B421A43D2B29621AE4B94
:1051900049001B689A468B4201DA06F011FC1202A4
:1051A000013080B204002DE5A84B1B78DAB2012B48
:1051B00001D106F00BFD022A01D106F02DFCA44B13
:1051C0001A5D1202FFF797F8A24B1B6818000093B4
:1051D000FBF746FC7F237E22434013409C4A9E49B6
:1051E0005375D022120652680988520BD20113431C
:1051F0000222C91293430A401343954A53750BF098
:1052000009FB934BA8885A7D1202FFF774F8934B61
:105210001A78C4E703B2002B3FDAC0231B0298427E
:1052200000D87FE68E4B9C4660448E4B1B5C1C4333
:10523000FDF7D6F98C4B1B781C43FDF7D1F9854B54
:105240001B6818000093FBF70BFC7F237E22434072
:1052500013407F4A80495375D0221206526809884C
:10526000520BD20113430222C91293430A40134343
:10527000774A53750BF0CEFA754B5C7D2B881C4337
:10528000FDF7AEF9714B1B78DAB2012B01D106F0B4
:105290008EFC022A01D106F0CDFB52466C4B9B5C82
:1052A0001C43FDF79DF96D4B1B781C43FDF798F9E6
:1052B000D02264491206536809686248CB4052689C
:1052C000406800910121C2400B40DB015B08009067
:1052D000114201D080221343D0225A49120652684B
:1052E00089685B08CA400091D20703D580225242E8
:1052F0001343DBB2D022534912065268C9685B08D7
:10530000CA400091D20703D5802252421343DBB238
:10531000D0224C491206526809695B08CA400091C4
:10532000D20703D5802252421343DBB2D022454933
:105330001206526849695B08CA400091D20703D53A
:10534000802252421343DBB2D0223E4912065268F9
:1053500089695B08CA400091D20703D58022524276
:105360001343DBB2D022374912065268C9695B0881
:10537000CA400091D20703D5802252421343DBB2C8
:105380009621314A4900126892468A4201DB06F0B2
:1053900014FBE2205100354A1C43944650545246B7
:1053A00061444B70284901320A60FDF719F9297AE6
:1053B000480701D406F06AFBD218541CA4B2FDF7CA
:1053C0000FF9297A480715D40A200140814201D0FB
:1053D00000290FD1D218541CA4B2FDF701F90A20FC
:1053E000297A0140022901D106F098FC082901D14F
:1053F00006F094FC013294B2FDF7F2F80A20297A03
:105400000140814201D00029F4D1D218541CA4B229
:10541000FDF7E6F8297A0907ECD5D218541CA4B296
:10542000FDF7DEF8297A0907E4D4D218541CA4B297
:10543000FDF7D6F8297A8907DCD5D218541CA4B216
:10544000FDF7CEF8580E0020AC2A0120980E00205F
:10545000D42F0120E8D40110DE2A0120F02A0120F7
:105460000080FFFF9C0E0020EF2A0120FC2C012071
:10547000297A8907BED4D218541CA4B2FDF7B0F81B
:10548000297A4907B6D5D218541CA4B2FDF7A8F85A
:10549000297A4907AED4D218541CA4B2FDF7A0F85B
:1054A000297AC907A6D5D218541CA4B2FDF798F8DA
:1054B000297AC9079ED4D218541CA4B2FDF790F8DB
:1054C0000521287A084295D0D218541CA4B2FDF7C1
:1054D00087F80521287A08428CD1D218541CA4B22E
:1054E000FDF77EF8D218541CA4B2FDF779F803B288
:1054F000002B00DA91E68023DB01984200D2CCE653
:10550000D54B1B689A46824452460093D34B9B5C12
:105510001C43FDF765F8002342461360FCF712FFB9
:105520002C88FDF73FF8FA21CD4B89001B68581CE9
:105530009A460EF017FBCB4B1B68009399424FD055
:1055400000224846C54BDB7C02605046C64A1354D5
:105550002022C34B1960C14B5B7C1343BF4A537479
:10556000FDF7D5F8BC4B1B680093E318FDF725F851
:10557000BE4B1B680093009ABD4B9446E3186344EE
:10558000FDF7DBF8BB4A13803288BB4B9A4201D14E
:1055900002F055F9328A9A4201D102F053F9328C65
:1055A0009A4201D0FDF757F8022301221B01F3189C
:1055B0005A603B68B14901333B600A60B04B3968BF
:1055C000994201DCFDF75DF800233B60AD4B1B68A1
:1055D00059424B41AB490B60AB4B1A60FDF751F898
:1055E00001234A461360FDF792F8B369002B01D1FD
:1055F000FDF765F8B36A002B01D0FDF782F8FDF7DF
:1056000072F800237360FDF752F800237361FDF711
:1056100064F800237362FDF774F8002300229246B9
:105620005146964A1B010093F31811605960A888EF
:10563000E1B2431EAB80FCF713FDA8882988431E06
:10564000090AAB80FCF70CFDA888A978431EAB8043
:10565000FCF706FDA8886988431E090AAB80FCF7A1
:10566000FFFCA888A979431EAB80FCF7F9FCA88849
:10567000E979431EAB80FCF7F3FCA888297A431E26
:10568000AB80FCF7EDFC009BF05AE02304005B00CC
:10569000984201D104F0E0F900D94AE2172800D974
:1056A0007CE2022800D896E0C31E9BB2142B03D8DC
:1056B000764A9B00D3589F4603B2002B01DB02F0D1
:1056C00081FCC0231B02984201D804F0B6F9684B54
:1056D000C3186F4AD456421C23029A46C12392B281
:1056E00014005B009A4200D3A6E200226948023807
:1056F000142800D9A3E0D31E9BB2142B03D866490B
:105700009B00CB589F4613B2002B00DB97E0C023D1
:105710001B029A4201D804F0BCF9554BE3185C4ACD
:10572000D35C52461A439246534610229CB22B7ABF
:105730002C8013432B72FCF7E4FF5246574B1B7827
:105740001A439246F0E7564B15241B681800319314
:10575000FBF786F97F237E22434013403F4A51499D
:105760005375D022120652680988520BD201134396
:105770000222C91293430A401343384A53750BF06F
:1057800049F8364B1C5723029A46009BF05AC12316
:10579000441CA4B222005B009C4227D2023B9C42E4
:1057A000A5D38223FF339C42BED07F223E4B1B6891
:1057B0000093134052461A439246B5E73B4B1B7881
:1057C000DAB2012B01D105F0D8F8022A03D1122850
:1057D00001D106F098FA214B1C5723029A46C123A7
:1057E000441CA4B222005B009C42D7D3C0239B0080
:1057F0009C4200D14DE200D91EE2803B9C4201D187
:1058000004F025F940339C4200D050E20420FAF71E
:1058100085FF14E00024214B1C5723029A460130D7
:1058200082B2140013B2002B00DA70E78023DB0190
:105830009A4204D3084B1B689C4600936444074B70
:105840001B5D52461A4392466EE70024184B1C57C4
:1058500023029A46E3E7C046342A0120D42F0120D0
:105860005C24012060240120B43902204C2A01204C
:105870000080FFFFE22A0120FCFF000048290120F0
:105880009F860100A0240120A4240120F8DD01103E
:105890009C0E0020FFFF00004CDE0110EF2A0120CB
:1058A000E8D40110DE2A01206C290120980E002086
:1058B000F02A0120D023D64A1B065B681268D34029
:1058C0000092DB0701D404F0F1FC60212023D022F8
:1058D000CF4C120652686468E2400094D20700D5AB
:1058E0000B00D022CA49120652688968CA4000914A
:1058F000D20703D5802252421343DBB2D022C449DF
:1059000012065268C9685B08CA40DBB20091D20730
:1059100001D580221343D022BD491206526809697D
:105920005B08CA400091D20703D58022524213433C
:10593000DBB2D022B6491206526849695B08CA40F8
:105940000091D20703D5802252421343DBB2D0220A
:10595000AF491206526889695B08CA400091D207B4
:1059600003D5802252421343DBB25C08D0231B06CE
:105970005A68A74BDB69DA400093D30703D580232D
:105980005B421C43E4B29621A24B49001B689A4635
:105990008B4201DB04F08EFCE2219F4A5B009446BF
:1059A000D154524663445C709A4B013224021A600F
:1059B00023B29A4633E7994B1B6818000093FBF714
:1059C0004FF87F237E2243401340954A95495375F3
:1059D000D022120652680988520BD20113430222C8
:1059E000C91293430A4013438D4A53750AF012FFBC
:1059F00052468B4B5B7D1A43924695E652468A4B44
:105A00001B781A4392468FE6D023814A1B065B68B7
:105A10001268D3400092DB0701D404F043FC6021FC
:105A20002023D0227A48120652684068C240009073
:105A3000D20700D50B00D02275491206526889683A
:105A4000CA400091D20703D5802252421343DBB2F1
:105A5000D0226F4912065268C9685B08CA40DBB29F
:105A60000091D20701D580221343D0226849120643
:105A7000526809695B08CA400091D20703D58022A9
:105A800052421343DBB2D02261491206526849697F
:105A90005B08CA400091D20703D5802252421343CB
:105AA000DBB2D0225A491206526889695B08CA40A3
:105AB0000091D20703D5802252421343DBB2D02299
:105AC000534912065268C9695B08CA400091D2075F
:105AD00003D5802252421343DBB296214D4A49003E
