:020000041000EA
:1000000000B5324B212058609868022188439860DF
:10001000D860186158612E4B002199600221596106
:100020000121F02299502B49196001219960352056
:1000300000F044F80222904214D00621196600F024
:1000400034F8196E01211966002018661A6600F04E
:100050002CF8196E196E196E052000F02FF8012189
:100060000842F9D1002199601B49196000215960AB
:100070001A491B48016001219960EB211966A021F2
:10008000196600F012F800219960164914480160C1
:100090000121996001BC002800D000471248134993
:1000A000086003C880F30888084703B5996A0420EC
:1000B0000142FBD001200142F8D103BD02B5186610
:1000C0001866FFF7F2FF186E186E02BD00000240BE
:1000D000000000180000070000035F00212200005C
:1000E000F4000018222000A00001001008ED00E03C
:1000F00000000000000000000000000074B24E7A12
:1001000000200420F7010010C3010010C5010010F9
:10011000C1010010C1010010C1010010C101001097
:10012000C1010010C1010010C1010010C701001081
:10013000C1010010C1010010C9010010CB01001065
:10014000CD010010CD010010CD010010CD01001037
:10015000CD010010CD010010CD010010CD01001027
:10016000CD010010CD010010CD010010CD01001017
:10017000CD010010CD010010CD010010CD01001007
:10018000CD010010CD010010CD010010CD010010F7
:10019000CD010010CD010010CD010010CD010010E7
:1001A000CD010010CD010010CD010010CD010010D7
:1001B000CD010010CD010010CD010010CD010010C7
:1001C00000BE00BE00BE00BE00BE00BE00F04BF888
:1001D000103800BEF2EB8871140802103C080210BF
:1001E0003402001090A31AE700202149086006C8D5
:1001F00081F3088810471F48006800282FD10DA4FC
:100200000ECC002902D000F012F8F9E71A491B4A77
:10021000002000E001C19142FCD1194988471949E9
:1002200088471949884700BEFDE701C901C29A42C3
:10023000FBD370473C080210C0000020009F002044
:100240007CA6021000000420000004207CA60210FE
:1002500000100420001004200000000070470B482C
:1002600013F08AF80047EFF30580C0B27047000032
:1002700008ED00E0000000D0009F0020441B022099
:10028000AD160110AD0B0010D1170110575600002C
:1002900006005250ABB3605300FA011006005250F2
:1002A000861C030210FA0110060052505422A29D2F
:1002B00020FA011005005250DE65F4687CA6021099
:1002C000F8B5C0460448054B10B5834203D0044B33
:1002D000002B00D0984710BD009F0020009F0020F9
:1002E0000000000006480749091A8B10C90FC918F9
:1002F00010B5491003D0044B002B00D0984710BD17
:10030000009F0020009F00200000000010B5074C57
:100310002378002B09D1FFF7D5FF054B002B02D026
:10032000044800E000BF0123237010BD20A000207E
:100330000000000030D40110054B10B5002B03D095
:100340000449054800E000BFFFF7CCFF10BDC046E0
:100350000000000024A0002030D40110F8B50523CF
:100360004746CE469846043B80B500269946184C31
:10037000184D194F0DE0032B07D10FF047FB3B68D9
:10038000002B02D004233E6023700FF07FFD0DF0A0
:10039000CFFF01F087F80EF03FFA0FF015F9237840
:1003A000042B0FD006D8012BE5D10FF00FFB032350
:1003B0002370EAE7052BE8D12B68002BE5D04B46EC
:1003C0002370E2E70FF09EFB43462E602370DCE7CC
:1003D000400400206CA5002078AA0020CE49CF4B15
:1003E0000A8882B09A4200D18AE1104383B20B801E
:1003F000D02280211206090291618021C9049161F5
:10040000010400D5C4E08021C9019161D02280217E
:100410001206C90451619161590400D5C4E08021DC
:10042000C9019161D02280211206C90451619161F4
:10043000990400D5C4E08021C9019161D0228021B6
:100440001206C90451619161D90400D5C4E080212C
:10045000C9019161D02280211206C90451619161C4
:10046000190500D5C4E08021C9019161D022802105
:100470001206C90451619161590500D5C4E080217B
:10048000C9019161D02280211206C9045161916194
:10049000990500D5C4E08021C9019161D022802155
:1004A0001206C90451619161D90500D5C4E08021CB
:1004B000C9019161D02280211206C9045161916164
:1004C000190600D5C4E08021C9019161D0228021A4
:1004D0001206C90451619161590600D5C4E080211A
:1004E000C9019161D02280211206C9045161916134
:1004F000990600D5C4E08021C9019161D0228021F4
:100500001206C90451619161D90600D5C4E0802169
:10051000C9019161D02280211206C9045161916103
:10052000190700D5C4E08021C9019161D022802142
:100530001206C90451619161590700D5C4E08021B8
:10054000C9019161D02280211206C90451619161D3
:10055000990700D5C4E08021C9019161D022802192
:100560001206C90451619161D90700D4C4E0802109
:10057000C9015161D02280211206C9045161802134
:1005800009025161654A934200D1BFE002B0704751
:100590008021C9015161D02280211206C904516114
:1005A0009161590400D43AE78021C9015161D022F8
:1005B00080211206C90451619161990400D43AE77F
:1005C0008021C9015161D02280211206C9045161E4
:1005D0009161D90400D43AE78021C9015161D02248
:1005E00080211206C90451619161190500D43AE7CE
:1005F0008021C9015161D02280211206C9045161B4
:100600009161590500D43AE78021C9015161D02296
:1006100080211206C90451619161990500D43AE71D
:100620008021C9015161D02280211206C904516183
:100630009161D90500D43AE78021C9015161D022E6
:1006400080211206C90451619161190600D43AE76C
:100650008021C9015161D02280211206C904516153
:100660009161590600D43AE78021C9015161D02235
:1006700080211206C90451619161990600D43AE7BC
:100680008021C9015161D02280211206C904516123
:100690009161D90600D43AE78021C9015161D02285
:1006A00080211206C90451619161190700D43AE70B
:1006B0008021C9015161D02280211206C9045161F3
:1006C0009161590700D43AE78021C9015161D022D4
:1006D00080211206C90451619161990700D43AE75B
:1006E0008021C9015161D02280211206C9045161C3
:1006F0009161D90700D53AE78021C901916139E7B5
:1007000000230093009B002BFCD16EE60023019395
:10071000019B002BFCD139E7C2AB0020092000006F
:10072000CE4B82B0984200D18CE1CD4A13888343EE
:1007300013808020D022000212069061802019B21E
:10074000C0049061002900DAC4E08021C9019161F0
:10075000D02280211206C90451619161590400D54B
:10076000C4E08021C9019161D02280211206C90410
:1007700051619161990400D5C4E08021C901916162
:10078000D02280211206C90451619161D90400D59B
:10079000C4E08021C9019161D02280211206C904E0
:1007A00051619161190500D5C4E08021C9019161B1
:1007B000D02280211206C90451619161590500D5EA
:1007C000C4E08021C9019161D02280211206C904B0
:1007D00051619161990500D5C4E08021C901916101
:1007E000D02280211206C90451619161D90500D53A
:1007F000C4E08021C9019161D02280211206C90480
:1008000051619161190600D5C4E08021C90191614F
:10081000D02280211206C90451619161590600D588
:10082000C4E08021C9019161D02280211206C9044F
:1008300051619161990600D5C4E08021C90191619F
:10084000D02280211206C90451619161D90600D5D8
:10085000C4E08021C9019161D02280211206C9041F
:1008600051619161190700D5C4E08021C9019161EE
:10087000D02280211206C90451619161590700D527
:10088000C4E08021C9019161D02280211206C904EF
:1008900051619161990700D5C4E08021C90191613E
:1008A000D02280211206C90451619161D90700D478
:1008B000C4E08021C9015161D02280211206C904FF
:1008C0005161802109025161644A934200D1BFE025
:1008D00002B070478021C9015161D02280211206E7
:1008E000C90451619161590400D43AE78021C901DA
:1008F0005161D02280211206C9045161916199048D
:1009000000D43AE78021C9015161D022802112062A
:10091000C90451619161D90400D43AE78021C90129
:100920005161D02280211206C904516191611905DB
:1009300000D43AE78021C9015161D02280211206FA
:10094000C90451619161590500D43AE78021C90178
:100950005161D02280211206C9045161916199052B
:1009600000D43AE78021C9015161D02280211206CA
:10097000C90451619161D90500D43AE78021C901C8
:100980005161D02280211206C9045161916119067A
:1009900000D43AE78021C9015161D022802112069A
:1009A000C90451619161590600D43AE78021C90117
:1009B0005161D02280211206C904516191619906CA
:1009C00000D43AE78021C9015161D022802112066A
:1009D000C90451619161D90600D43AE78021C90167
:1009E0005161D02280211206C90451619161190719
:1009F00000D43AE78021C9015161D022802112063A
:100A0000C90451619161590700D43AE78021C901B5
:100A10005161D02280211206C90451619161990768
:100A200000D43AE78021C9015161D0228021120609
:100A3000C90451619161D90700D53AE78021C90104
:100A4000916139E700230093009B002BFCD16CE6F9
:100A500000230193019B002BFCD139E70920000002
:100A6000C2AB002001210A00D02382401B069A61FC
:100A70009A615A61802252039A615A6158689A6158
:100A80005A615B68400D08405B0D4000194202D07E
:100A900001231843C0B2D02380221B0652039A615F
:100AA0005A615B6840009B0202D501231843C0B223
:100AB000D02380221B0652039A615A615B68400072
:100AC000C0B29B0202D501231843C0B2D0238022BA
:100AD0001B0652039A615A615B684000C0B29B02D8
:100AE00002D501231843C0B2D02380221B06520333
:100AF0009A615A615B684000C0B29B0202D5012333
:100B00001843C0B2D02380221B0652039A615A6157
:100B10005B684000C0B29B0202D501231843C0B2FB
:100B2000D02380221B0652039A615A615B68400001
:100B3000C0B29B0202D501231843C0B27047C04621
:100B4000F0B50124230083409C46D02360461B0659
:100B50009861002A10DD8025501E8026ED04844017
:100B60002F000020F6019F6121420AD001305E6112
:100B700049005D618242F6D1D02362461B065A616C
:100B8000F0BD01309E6149005D618242EBD1F3E727
:100B900010B50EF047FE00F085FC0DF03DFE0EF0A6
:100BA00013FD0DF0C5FB0FF071F910BDF8B5DE4671
:100BB00057464E4645461B20E0B50FF0BFF9D024FE
:100BC000802324061B0563620D2063610FF0B6F9D4
:100BD0000E200FF0B3F90F200FF0B0F916200FF030
:100BE000ADF915200FF0AAF91A200FF0A7F913207C
:100BF0000FF0A4F914200FF0A1F912200FF09EF9C4
:100C000000200FF09BF901200FF098F902200FF05F
:100C100095F903200FF092F904200FF08FF90520C9
:100C20000FF08CF906200FF089F907200FF086F9F4
:100C30000122002100200FF069F90122002101208A
:100C40000FF064F90122002102200FF05FF9012268
:100C5000002103200FF05AF90122002104200FF097
:100C600055F90122002105200FF050F90122002141
:100C700006200FF04BF90122002107200FF046F962
:100C80000A200FF05BF90B200FF058F90C200FF041
:100C900055F911200FF052F910200FF04FF90022F2
:100CA000012110200FF032F90121002211200FF054
:100CB0002DF980238022DB0192016362A2626362CC
:100CC00080231B0263628023DB03636280239B0318
:100CD000A3628023DB04636280231B0363628022A0
:100CE0008023D2025B03636262628022D20062626E
:100CF00080221201626280225201626201206361DD
:100D0000FFF76CFB0A2010F039F800F0C5F800F08E
:100D1000A5F913F0FBFD02F0D9F80CF077FC36488A
:100D200016F0F4FBA024013C0EF07CFD002CFAD15F
:100D3000324B1B68002B05D00122314B1A601A6818
:100D4000002AFCD12F4813F0D5FD2F4B2F4C9A468B
:100D50002F4B304E9B46304B304D994696235B00CF
:100D600098461BE02E4A1268002A15D028682D49A3
:100D700042008B52A3792C490B54E3792B490B5435
:100D8000A3882B4901308B5263882A498B529621C4
:100D9000490012F01FFB296002F0EAF8524623884E
:100DA00012889A420ED03268424503DA59460968E1
:100DB00000290DD14A4612889A42D3D10023184AFD
:100DC0001360E9E75A460121116032684245F1DAC1
:100DD00051008C46674618484352A07917498854F9
:100DE000E07917498854A08816490132C853326007
:100DF00062881549CA53DDE75D03001010A6002084
:100E00006CA5002030D401104804002000C300204D
:100E100094AB002004A400204204002008A4002079
:100E200044040020B8B100203CB500208CB0002064
:100E3000DCAB002044BC002034AE002018BB0020F6
:100E400010B40020C0B8002068B6002000B583B000
:100E50006A4680231371793B034050204042184377
:100E600050710221782001AA0EF04EF803B000BDA7
:100E700010B5102482B0030901AA234353700F2335
:100E80008021184011709170D0707C3978200EF05C
:100E90003BF802B010BDC046F0B580266C4C6D4BDF
:100EA00021881D68314385B0280089B2082221803D
:100EB000FA27FFF745FE7F212388FF00194028000D
:100EC000082221800397FFF73BFE21880822314347
:100ED00089B2280021800297FFF732FE01970DF0BA
:100EE000E9FD78200DF05AFE80200DF057FEAE206F
:100EF0000DF054FE80200DF051FED5200DF04EFE79
:100F000080200DF04BFEA0200DF048FE80200DF05B
:100F100045FEA8200DF042FE80200DF03FFE1F2070
:100F20000DF03CFE80200DF039FED3200DF036FE92
:100F300080200DF033FE00200DF030FE80200DF0FB
:100F40002DFEAD200DF02AFE80200DF027FE8E2014
:100F50000DF024FE80200DF021FED8200DF01EFEA5
:100F600080200DF01BFE05200DF018FE80200DF0F6
:100F700015FEA1200DF012FE80200DF00FFEC820FE
:100F80000DF00CFE80200DF009FEDA200DF006FEBB
:100F900080200DF003FE12200DF000FE80200DF0E9
:100FA000FDFD91200DF0FAFD80200DF0F7FD3F20B2
:100FB0000DF0F4FD80200DF0F1FD3F200DF0EEFD71
:100FC00080200DF0EBFD3F200DF0E8FD80200DF0BE
:100FD000E5FD3F200DF0E2FD80200DF0DFFD8120DA
:100FE0000DF0DCFD80200DF0D9FD1B4B18780DF0C5
:100FF000D5FD80200DF0D2FDD9200DF0CFFD802051
:101000000DF0CCFDD2200DF0C9FD80200DF0C6FD05
:10101000DB200DF0C3FD80200DF0C0FD34200DF06D
:10102000BDFD80200DF0BAFDA6200DF0B7FD80209B
:101030000DF0B4FDA4200DF0B1FD80200DF0AEFD4B
:10104000AF200DF0ABFD0DF069FD05B0F0BDC04661
:10105000C4AB002048D401104A0400208023F0B51E
:101060004746CE469946D03B0025984680B5174F57
:1010700083B001AE4B463370434632002B4302210E
:10108000782073700DF040FF320004217820019722
:101090000DF03AFF0DF00EFD78200DF07FFD4020A1
:1010A0000DF07CFD8424013C0020E4B20DF076FDBF
:1010B000002CF8D10135EDB20DF030FD042DD9D161
:1010C00003B00CBC90469946F0BDC046801080002D
:1010D000032370B5040015005B1AD8B2FFF7B6FE03
:1010E000A000201A40007F30C0B2FFF7C1FE0DF013
:1010F000E1FC78200DF052FD40200DF04FFDAA00DC
:10110000521901240425154EB6182200735D1A40A9
:1011100058102040520002439810520020401043C3
:10112000DA102240400010431A11400022400243CE
:1011300058112040520002439811520020401043A1
:101140004000DB1118430DF029FD013DDDD20020E8
:101150000DF024FD0DF0E2FC70BDC0464C040020F3
:1011600010B500F07FF910BD70B5150012780E00B3
:10117000002A09D004002D1A20003100013400F0AB
:1011800071F92A5D002AF7D170BDC04670B584B0F0
:1011900001AD04000E002800084912F089F82A78F1
:1011A000002A08D02D1B20003100013400F05AF92C
:1011B0002A5D002AF7D104B070BDC04654D4011096
:1011C00070B500250024210020222800013400F001
:1011D00049F9042CF7D10135152DF3D10023024A2A
:1011E0001360024A136070BD7CA5002080A500201A
:1011F0000021054B054A196013680133032B01DCFC
:10120000136070471160FCE77CA5002080A50020DA
:10121000F8B54746CE4680B5144E154F0278804645
:1012200034683D68002A0BD0031B99462000290032
:1012300000F018F94B4601341A5D002AF6D13468E3
:10124000404617F04BFB2418142C04DC34600CBC13
:1012500090469946F8BD00223B6832600133032B6B
:1012600001DD3A60F3E73B60F1E7C0467CA5002072
:1012700080A50020FA2170B50C4C06002568890075
:10128000681C12F0A7F80A4B1B6899420BD021602A
:101290002021084B084A5E55537C0B4353740022AF
:1012A000064B1A6070BD0122FAE7C04630A5002047
:1012B00034A500205CCD01207CC3002000AB0020C1
:1012C000E0239B00984206D04033984202D101228D
:1012D000034B1A6070470022014B1A60FAE7C046C0
:1012E000F0090020FA2010B50124064B40001C60D4
:1012F0000FF044FD044B1B689C40D0231B069C61EF
:1013000010BDC0463CAB002050D40110E8239B0028
:10131000984206D04033984211D0803B984208D082
:1013200070470B4A13688021C9018C4663441360DF
:10133000F6E70023064A1360064A1360F0E7054A01
:101340001368002BEFD180231B021360E8E7C0462F
:1013500014AB00202CAB0020344A10B513680400F5
:1013600001331360B02382B09B00984255D024D93A
:10137000C0239B00984232D0403398421BD1802139
:101380002B4A2C4C1088238801407F2001339BB2CC
:1013900023804340194389B211800822264B1868E4
:1013A000FFF7CEFB0220254923884A7DDB1203404C
:1013B000824313434B7502B010BD013BFF3B984283
:1013C0001AD040339842F6D180204000FFF706F84B
:1013D0002000FFF703F864200FF0D0FCEBE70023B8
:1013E0008021144C2380124B1A8811407F22114314
:1013F0001980773A104BD2E70EF0D8F8FA20012482
:101400000F4B40001C600FF0B9FC0E4B1B689C405A
:101410000193D0231B069C61CDE780204000FFF79D
:101420007FF980208000FFF77BF9C4E74CAB0020F8
:10143000C4AB0020C6AB002048D401107CC3002000
:101440003CAB002050D401108023044A5B42517C05
:101450000B4353740122024B1A7070477CC3002067
:10146000340E0020074B10B51C684B005918CB00F8
:10147000591A6418235C0449CA540122034B1A60A8
:1014800010BDC04618C3002084C40120F0A5002070
:101490000122024B1954024B1A60704714C30020FA
:1014A000F0A50020F0B5DE4657464E464546E0B56D
:1014B000052083B00DF0F8FA5D4B5E491A68002AEA
:1014C00003D10A68002A00D1A4E000225A4F1A6012
:1014D0003B680A60002B00DAA2E0584B00249946D2
:1014E000574B9B46574B9846574B9A460EE0574BE7
:1014F0002000196811F06EFF03002A00080019008F
:10150000FFF7E6FD3B680134A34239DB4B465A4600
:101510001B681B5DD55C424612689342E7D1534677
:101520001B68002BE3D04A4B1B68002B07D0494BAC
:101530001B68002B06D0019580256D00D7E7454B31
:101540001B6801938021AB005B1901950225424A7B
:101550004942D05C414E08439055D3185878404ECC
:101560000843905598783F4E08439055D8780136F7
:10157000084390551B79FF350B433B495354B6E75D
:101580001421200011F026FF14218246200011F0C2
:1015900021FF8946354B00269846434631009A5D27
:1015A00014200136FFF794FD042EF6D16A1EFF3A8F
:1015B0002B00012A26D92E4AD35C682293431FD0E0
:1015C0005346162058434B462A4EEDB235552A4C09
:1015D0002018C5543D6859462A00284812F0D8FE04
:1015E00000232B22A3541632A35416326375A3543E
:1015F000735503B03CBC90469946A246AB46F0BD3D
:101600002025DDE7019D1A4A2B00D35C6822934315
:10161000D6D1F5E70A4B084F9B46164E164CD9E734
:10162000002399469A46064B00249B46B2E7C046E3
:10163000F0A5002078A500209809002018C30020FC
:1016400084C4012044AA002050AA00209C09002044
:1016500074A500204CAA00204C04002005050000C1
:1016600006050000070500000905000014C300205E
:101670007DFC0110A0BF00201CC300209CBE0020E8
:10168000F0B5C023D6464F4646465B00C0B59842EB
:1016900000D176E08223FF3398426DD10123684A5E
:1016A0001360684A1268002A12D0674D674A28689A
:1016B0001154674A1360674B1A68531E9A410223FC
:1016C00052421340013BC318FF2B00DDFF232B6068
:1016D000614B1B68002B4FD0072213005A4D0F118E
:1016E0002868B846C41723401B18DB10640F9E00FF
:1016F000F31806193240121B0124A446944064B228
:10170000E2439146554A6746D656B2464646374268
:1017100000D084E056464F463E40D6545E1CB44648
:1017200096570F0700D576E04F463E406746D655A0
:101730009E1CB44696574F0769D44F463E406746B5
:10174000D655DE1CB44696578F075CD44F463E40B4
:101750006746D6550433D656C90750D53443D454BA
:101760003C4B1B685A1E93415A4202231340013BD3
:10177000C018502840DC28601CBC90469946A24600
:10178000F0BD4BB2002B2CDB0B00403B3F2B0CD9A8
:10179000072915D8032946D801294DD00239012936
:1017A000EAD80022284B1A60E6E73F2300221940BE
:1017B000254B1960234B1A60274B01321A60DBE777
:1017C0000B00083B072BD7D8012325488A101A4065
:1017D00002604A101A4019402248234B02601960E7
:1017E000CAE77F2301221940174B1960154B1A6075
:1017F0000022194B1A60BFE750232B60BCE7494613
:101800000E40D654ACE767462643D655A2E7674656
:101810002643D65595E767462643D65588E756466C
:101820002643D6547AE701234A101A401940094842
:101830000E4B026019609FE7FFF7C2FCB1E7C0469C
:1018400078A500205CAA002044AA002084C40120BE
:10185000F0A5002048AA002058AA00204C0400202F
:10186000F4A5002050AA00204CAA002054AA002071
:10187000022210B502490348FF3212F089FD10BD63
:1018800084C401207CC30120022210B5FF32044928
:10189000044812F07DFD0122034B1A6010BDC046C2
:1018A0007CC3012084C40120F0A500209621484A71
:1018B00030B5136849008B4207DA122545495C00B0
:1018C000655401330919487013600122424B1968AD
:1018D000024200D072E08A40D02109068A610122CA
:1018E00059688A40810734D4D02109068A610122CF
:1018F00099688A40410734D4D02109068A610122BF
:10190000D9688A40010734D4D02109068A610122AE
:1019100019698A40C10634D4D02109068A6101229E
:1019200059698A40810634D4D02109068A6101228E
:1019300099698A40410634D4D02109068A61DA695E
:1019400001239340D022C0091206002834D05361ED
:1019500030BDD02109064A61012299688A404107B9
:10196000CAD5D02109064A610122D9688A400107F7
:10197000CAD5D02109064A61012219698A40C106E7
:10198000CAD5D02109064A61012259698A408106D7
:10199000CAD5D02109064A61012299698A404106C7
:1019A000CAD5D02109064A61DA6901239340D022C1
:1019B000C00912060028CAD19361C9E78A40D02124
:1019C00009064A61012259688A408107C1D48BE720
:1019D00090AB0020A4C00020F40D0020002330B5FF
:1019E00085B00393039B002BFCD19621354A490017
:1019F00013688B4207DAD22533495C006554013302
:101A0000091948701360C04383072DD001231800C3
:101A10002E490A684C689040D02212069062180045
:101A2000A040906218008C68A04090621800CC68BA
:101A3000A040906218000C69A040906218004C69A8
:101A4000A040906218008C69C969A040906218009B
:101A500088401F499062096880208B400191936102
:101A6000FEF75EFE05B030BD0124194BD0251B6882
:101A70002D0601932300019A802093406B61FEF7AD
:101A80004FFE2200114B19688A406A622200596891
:101A90008A406A62220099688A406A622200D96894
:101AA0008A406A62220019698A406A622200596982
:101AB0008A406A6222009969DB698A409C406A62B6
:101AC0006C62CFE790AB0020A4C00020F40D002092
:101AD0004CD401109621F8B5294A2A4B05001870FC
:101AE000136849008B4207DA1624274958004454EA
:101AF000013309184D701360244C254E2700203700
:101B00000AE001222A4235D09A40D0231B065A61AE
:101B100004346D08A74212D02368632BF1D9643BCB
:101B2000042BF5D89B00F3589F4680208001EB07DB
:101B30000AD5FEF753FC04346D08A742ECD1F8BD7A
:101B400080204001EB07F4D4FEF7EAFDE0E78020B7
:101B50000001EB07F8D5FEF741FCECE70820EB07A6
:101B6000F2D4FEF73BFCE6E71020EB07ECD5FEF7DE
:101B700035FCE0E79A40D0231B069A61C8E7C046CF
:101B800090AB0020D8AB0020A4C00020140E002091
:101B90005CD40110002330B583B00193019B002B6E
:101BA000FCD196213E4A490013688B4207DAD625BC
:101BB0003C495C00655401330919487013600028E2
:101BC00052D0394B1A68632A05D8012191400A0086
:101BD000D02109064A625A68632A05D8012191403A
:101BE0000A00D02109064A629A68632A05D80121B1
:101BF00091400A00D02109064A62DA68632A05D8B2
:101C0000012191400A00D02109064A621A69632A1B
:101C100005D8012191400A00D02109064A625A697B
:101C2000632A05D8012191400A00D02109064A62A1
:101C30009A69632A05D8012191400A00D02109063A
:101C40004A62DB69632B08D94020FEF769FD174B18
:101C50001878FFF73FFF03B030BD01229A40130010
:101C6000D02212065362EFE78025802440202D0108
:101C7000FEF756FD64012800FEF7B0FB2000FEF7DA
:101C8000ADFB80208001FEF7A9FB1020FEF7A6FB2C
:101C9000D02380221B06D2009D619A619C61DAE705
:101CA00090AB0020A4C00020140E0020D8AB002070
:101CB00030B5040083B017280AD8022800D86FE096
:101CC000C31E9BB2142B61D8B64A9B00D3589F46C3
:101CD000B0239B00984200D125E122D9E0239B004C
:101CE000984200D157E12FD9F0239B00984200D1B0
:101CF0004BE1E822AC4B92000340934246D198421C
:101D000000D139E1F8239B0098423DD1A74A1368DE
:101D1000002B00D032E1802300201B02136003B0AF
:101D200030BD013BFF3B984200D102E121D9802325
:101D30009B00984218D08033984231D10420FEF79E
:101D40004DFB9B4B185DEAE7403B98420CD020339B
:101D5000984206D10023974A00201360934A1360EB
:101D6000DDE7603B98421BD12000FFF7F5FA002029
:101D7000D5E70300813BFF3B9BB2012B10D88223A8
:101D8000FF33984200D0E6E00020C8E7230400D5E6
:101D9000B8E08023DB019C4202D3864B1B68E41829
:101DA000834B185DBBE7844B1878B8E7D022834B90
:101DB0001206506819685268C8405C680121E24008
:101DC0000840C0014008114201D080221043D022B7
:101DD0001206526899684008CA40D20703D580228B
:101DE00052421043C0B2D02212065268D96840084D
:101DF000CA40D20703D5802252421043C0B2D0223B
:101E00001206526819694008CA40D20703D58022D9
:101E100052421043C0B2D02212065268596940089B
:101E2000CA40D20703D5802252421043C0B2D0220A
:101E30001206526899694008CA40D20703D5802229
:101E400052421043C0B2D02212065268DB694008E9
:101E5000DA40D30703D580235B421843C0B29621F2
:101E6000574A490013688B4200DB58E7E225554981
:101E70005C00655401330919487013604FE7524BF9
:101E800018784CE7514B1888000A48E74F4B1878F0
:101E900045E74F4A1378D9B2012B61D0022900D00F
:101EA0007EE7122800D07BE7032313707F22404B8C
:101EB000597C0A405A74185D31E7464B1868FEF7A2
:101EC000D1FD7F2343407E20184002231843D023B6
:101ED0000222374C1B0660755B685B0BDB01184305
:101EE0003D4B90431B88DB121A40104360750DF088
:101EF0001DFE607D13E7394B1888000A0FE7374B4A
:101F000018780CE7C0231B029C4205D9344B9C4631
:101F10006444344B185D02E7314B9C46234B6444C8
:101F200018682418F5E70420FEF7FAFB204B185D2B
:101F3000F5E60DF03BFBFA2001242B4B40001C6022
:101F40000EF01CFF294B00201B689C400193D023FE
:101F50001B069C61E3E6264B18687F231840DEE6EB
:101F6000134B112800D0EDE6597C7F2900D8E9E613
:101F700002211170185DD2E60E4A13688021C90152
:101F80008C46634400201360C9E60122194B1A6095
:101F9000074B185DC3E60022164B1A60044B185D10
:101FA000BDE6C04670D40110BFFF00002CAB00207E
:101FB0007CC3002014AB0020D8AB0020F40D00201F
:101FC00090AB0020A4C00020D9AB0020CCAB0020F7
:101FD000340E002044D40110C6AB0020CEAB00204C
:101FE0000080FFFF380E00203CAB002050D40110D1
:101FF00044AA0020F0090020E02330B55B00040073
:1020000083B0984200D123E10BD817281FD80228AB
:1020100065D9C31E9BB2142B57D8A64A9B00D35830
:102020009F46D0239B00984241D039D9E8239B009A
:10203000984200D134E126D9F0239B00984213D175
:1020400001229D4B1A609D4B185D03B030BD03000B
:10205000813BFF3B9BB2012B41D88223FF33984247
:1020600000D007E10020F0E7203398422DD1944AB8
:102070001368002B00D102E18021C9018C46634422
:1020800000201360E1E7403B984200D10BE1203390
:10209000984224D10022884B1A60884B185DD4E7FF
:1020A000803B984200D1CDE04033984204D12000DB
:1020B000FFF752F90020C8E7803B98420FD1042077
:1020C000FEF78CF97D4B185DBFE7230400D5A8E02F
:1020D0008023DB019C4202D37A4B1B68E418774BC8
:1020E000185DB2E7784B1868FEF7BCFC7F234340CD
:1020F0007E201840D023714C1B0660755B68734AC4
:102100005B0BDB011843022312889843D212134061
:10211000184360750DF00AFD607D96E7D0226C4B88
:102120001206506819685268C8405C680121E24094
:102130000840C0014008114201D080221043D02243
:102140001206526899684008CA40D20703D5802217
:1021500052421043C0B2D02212065268D9684008D9
:10216000CA40D20703D5802252421043C0B2D022C7
:102170001206526819694008CA40D20703D5802266
:1021800052421043C0B2D022120652685969400828
:10219000CA40D20703D5802252421043C0B2D02297
:1021A0001206526899694008CA40D20703D58022B6
:1021B00052421043C0B2D02212065268DB69400876
:1021C000DA40D30703D580235B421843C0B296217F
:1021D000404A490013688B4200DB36E7E2253E495E
:1021E0005C00655401330919487013602DE73B4BBF
:1021F00018782AE73A4B187827E73A4A1378D9B281
:10220000012B41D0022900D069E7122800D066E7EF
:10221000032313707F22294B597C0A405A74185D9E
:1022200013E7C0231B029C4205D92F4B9C466444F4
:102230002E4B185D09E72C4B9C46214B64441868D3
:102240002418F5E70420FEF76BFA1C4B185DFCE63A
:102250000DF0ACF9FA200124254B40001C600EF073
:102260008DFD244B00201B689C400193D0231B064E
:102270009C61EAE6204B18687F231840E5E680233E
:102280001B0200201360E0E60C4B112800D0DBE6B7
:10229000597C7F2900D8D7E602211170185DD4E659
:1022A000084A1368E8E60023064A00201360044A3F
:1022B0001360CAE6C4D40110F00900207CC30020DA
:1022C0002CAB002014AB002044D40110C6AB00207E
:1022D000F40D002090AB0020A4C00020D9AB00205A
:1022E000D8AB0020340E00200080FFFF380E002005
:1022F0003CAB002050D4011044AA0020C123F0B50B
:102300005B000D00040083B098420CD2023B98425F
:1023100000D3D1E0431E162B68D817285CD8934A07
:102320008300D3589F46C0239B00984232D021D9C6
:10233000E0239B00984200D10CE128D9F0239B00B8
:10234000984200D100E1E822402301009200994325
:10235000914241D1884200D1D4E0F8239B009842B9
:102360001AD1834A1368002B00D0CDE080231B02D2
:10237000136011E0803B984200D1A0E040339842C6
:102380000CD10420FEF7CCF97A4B1D5504E0403BFC
:10239000984218D1FEF7E0FF03B0F0BD013BFF3BD0
:1023A000984223D10DF002F9FA200124724B40002B
:1023B0001C600EF0E3FC714B1B689C400193D02322
:1023C0001B069C61E8E7203398420FD100236C4A3A
:1023D0001360674A1360DFE703B2002BDCDB802366
:1023E000DB01984202D3664B1C680419614B1D55F2
:1023F000D2E70800FFF7CEFBCEE79621614A4900FD
:1024000013688B4207DA12245F49580044540133A1
:1024100009184D70136001225C4B19682A426CD177
:102420008A40D02109068A61012259688A40A90799
:1024300000D585E0D02109068A61012299688A4089
:10244000690779D4D02109068A610122D9688A40B6
:1024500029076DD4D02109068A61012219698A40B1
:10246000E90661D4D02109068A61012259698A40AE
:10247000A90655D4D02109068A61012299698A40AA
:10248000690649D4D02109068A61DA69012393409B
:10249000D022ED091206002D3CD053617CE73C4B65
:1024A0001970344B1D5577E70800FFF797FA73E76B
:1024B0000800FFF70FFB6FE7FFF7E2F86CE7042077
:1024C000FDF78CFF2B4B1D5566E7FA21314E890035
:1024D0003768781C10F07EFF2F4B1B6899423FD065
:1024E0000022316020212D4B1A602D4BDD55214BF0
:1024F0005A7C0A435A741D554EE78A40D02109067A
:102500004A6191E71E4A13688021C9018C466344E1
:10251000136041E793613FE7D02109064A61B4E7C0
:10252000D02109064A61A8E7D02109064A619CE743
:10253000D02109064A6190E7D02109064A6184E763
:10254000D02109064A6178E70122164B1A60094B2F
:102550001D5521E70022134B1A60064B1D551BE742
:1025600001220E4B1A60034B1D5515E718D50110BB
:102570002CAB00207CC300203CAB002050D40110C9
:1025800014AB002090AB0020A4C00020F40D00206C
:10259000D9AB002030A5002034A5002000AB0020DE
:1025A0005CCD0120F00900201021F0B54F46D64641
:1025B00046460800C0B5B64CB64F227A3B68B64DC9
:1025C00082B01040114224D1002B10D16A68002A39
:1025D0002ED16B69002B00D077E06B6A002B00D006
:1025E00047E302B01CBC90469946A246F0BDEB689A
:1025F000002B00D002E36A68002A19D1EB69002B96
:1026000065D000236B61EB6A002BE6D000236B6280
:10261000E7E7002B60D1AB68002B06D0AB69002B3D
:1026200050D0AB6A002BDCD1D7E76A68002AF5D01E
:1026300000261B019846994AEB1816605E60A08838
:102640002178431EA380FFF759FEA0882188431EEE
:10265000090AA380FFF752FEA088A178431EA38039
:10266000FFF74CFEA0886188431E090AA380FFF78C
:1026700045FEA088A179431EA380FFF73FFEA088F6
:10268000E179431EA380FFF739FEA088217A431E1B
:10269000A380FFF733FE4346E85AE02382465B00FF
:1026A000984200D1F6E242D8172833D8022800D841
:1026B00040E1C31E9BB2142B00D942E1784A9B0033
:1026C000D3589F466B69002BABD00123B0E76B69F1
:1026D000002B98D00123ABE7AA68002A06D1EB684B
:1026E000002B00D08CE26A68002AA1D1AB69002BD4
:1026F00006D1EA69002A00D084E26B69002BE4D19C
:10270000AB6A002B00D06CE7EA6A002A00D164E7CC
:102710006B6266E70300813BFF3B012B00D909E1B7
:102720008223FF33984200D06EE2002686E0D02359
:102730009B00984219D010D9E8239B00984200D101
:10274000F7E200D898E0F0239B00984200D084E0A4
:1027500001233B60534B9946EEE0803B984200D109
:10276000ACE24033984200D0AAE0FEF7F5FD4346C4
:102770000026E85AC123451CADB22A005B009D42E9
:102780003AD3C0239B009D4200D1BDE00DD8803BD1
:102790009D4200D19AE240339D4200D09BE004204C
:1027A000FDF7BEFF3F4B9946B7E1E0239B009A42FD
:1027B00000D1B9E200D8A4E0F0239B009A4200D1F6
:1027C000ADE24021384B884398423AD1E8239B0040
:1027D0009A4200D11EE240339A4207D1334A13682D
:1027E000002B00D018E280231B0213601022237AF2
:1027F000268013432372F4E6023B9D4200D36BE232
:102800000238142800D986E1D31E9BB2142B03D8BA
:1028100027499B00CB589F4613B2002B00DB2AE2CE
:10282000244B9C46214B65441B68ED18224B5B5D95
:102830001E43DBE70026214B9E573602013082B251
:10284000150013B2002B00DB15E2C0231B029A42D5
:10285000E6D9184B9C466544E8E72033984270D18E
:10286000124A1368002B00D1FEE18021C9018C4679
:10287000634400261360E1E7403B984200D15BE2ED
:102880002033984256D1074B3E60994654E0C046EB
:1028900000C30020F0090020680900201CAA0020C5
:1028A00078D501107CC300209F0300002CAB0020D2
:1028B000CCD501100080FFFF380E0020D9AB0020DE
:1028C000803B984236D10420FDF788FD4346E85A04
:1028D000D44B994630E0013BFF3B9D4200D01AE1CA
:1028E0000CF064FEFA200125CF4B40001D600EF075
:1028F00045FACE4B1B689D400193D0231B069D617A
:1029000074E7403B9A4203D11000FEF725FD6DE7C6
:1029100020339A4200D0FEE00023C54A1360C54A26
:10292000136063E78023DB01984203D3C04B1E682A
:10293000B2468244BB4B99464B4652469E5636029F
:1029400018E703B2002BEDDAC0231B02984200D82F
:102950009AE1B94BC318B94AD656C123421C92B268
:10296000150036025B009A4200D31EE70022B448ED
:1029700046E7B44B1B781E4338E7B34B1A78D1B205
:10298000012A00D1BFE10229D4D11228D2D10322D9
:102990001A70A44B7C3299465B7C13404A465374B0
:1029A000CAE7D023A94A1B065E6811685B68CE405F
:1029B00055680121EB400E40F6017608194201D01E
:1029C00080231E43D0231B065B6891687608CB40AA
:1029D000DB0703D580235B421E43F6B2D0231B06E0
:1029E0005B68D1687608CB40DB0703D580235B4268
:1029F0001E43F6B2D0231B065B6811697608CB40F4
:102A0000DB0703D580235B421E43F6B2D0231B06AF
:102A10005B6851697608CB40DB0703D580235B42B6
:102A20001E43F6B2D0231B065B6891697608CB4043
:102A3000DB0703D580235B421E43F6B2D0231B067F
:102A40005B68D2697608D340DB0703D580235B42FD
:102A50001E43F6B296217E4A490013688B4207DA7C
:102A6000E2277C495D006F54013349194E701360B1
:102A7000360236B2E2E60026724B9E573602DDE69B
:102A8000754B15261868FDF7EDFF7F2358407E2310
:102A9000644A034053759146D022120652686F492A
:102AA000520BD2011343022209889343C9120A40F0
:102AB00013434A4653750DF039F84B469E5743462B
:102AC0003602E85A56E6644B1868FDF7CBFF7F23C1
:102AD00058407E23D022534D03406B751206526836
:102AE0005E49520BD2011343022209889343C91253
:102AF0000A4013436B750DF019F86B7D1E4375E6A4
:102B0000514B1978C8B2012900D1F0E0022802D156
:102B1000122A00D116E1434B99464B465B5D1E439A
:102B200064E64F4B1B781E4360E6D021474A0906F6
:102B30004B6810684968C34055680120E94003406C
:102B4000DB015B08084201D080210B43D02109063C
:102B5000496890685B08C140C90703D58021494294
:102B60000B43DBB2D02109064968D0685B08C1403D
:102B7000C90703D5802149420B43DBB2D0210906A6
:102B8000496810695B08C140C90703D580214942E3
:102B90000B43DBB2D0210906496850695B08C1408C
:102BA000C90703D5802149420B43DBB2D021090676
:102BB000496890695B08C140C90703D58021494233
:102BC0000B43DBB2D02109064968D2695B08D140CA
:102BD000CA0703D5802252421343DBB296201C4918
:102BE00040000A6882429ADAE2271A4855002F54B8
:102BF0000132401943700A601E43F7E56860FDE446
:102C00006A6073E56B617BE57F26164B1B681E408F
:102C10003602EBE5064A13688021C9018C466344FD
:102C20001360E3E57CC300203CAB002050D40110CE
:102C300014AB00202CAB00200080FFFF380E0020DA
:102C4000FFFF0000D8AB0020340E0020F40D002060
:102C500090AB0020A4C0002044D40110C6AB0020DB
:102C6000D9AB002044AA002080231B020026136059
:102C7000E4E50223DCE48023DB019A4200D24AE748
:102C8000354B1B68ED1846E7344B1A68344BC318B4
:102C90009B1860E60CF08AFCFA200126314B4000BC
:102CA0001E600EF06BF8304B1B689E400193D023E2
:102CB0001B069E6143460026E85A5BE50420FDF7AB
:102CC0002FFD4346E85A294B994635E60420FDF787
:102CD00085FB264B994620E78223FF339D4200D196
:102CE00084E5234B1A687F2313401E437EE5112A97
:102CF00000D010E71D4A9146527C7F2A00D80CE78D
:102D000002221A7009E7112800D013E6174A9146EB
:102D1000527C7F2A00D80FE602221A700CE60123AB
:102D20003B60124B9946F8E600233B600F4B9946F7
:102D3000F3E6094A136898E5074B1E60074B1E60CF
:102D400000267BE503221A70084B7C3299465B7C97
:102D500013404A465374E0E614AB00202CAB00202D
:102D60000080FFFF3CAB002050D401107CC300204A
:102D700044AA00200B4B1A88824206D01A8A82424B
:102D80000BD01A8C82420AD07047002201210648DB
:102D900012019B1801605960F6E70122F6E7022252
:102DA000F4E7C046680900201CAA0020F0B5C6461A
:102DB00000B582B00EF0D0F83C4F0B00396802002D
:102DC000884600291CD010001900394C2568666817
:102DD000401BB141050000294BD036492260636099
:102DE00035480C88844252D00C8A844257D00C8CCF
:102DF000844258D0012149428C46E0444146396022
:102E000014001D002D498C4608684968241A8D411C
:102E100000940195002D03D1294D009CAC4220D98E
:102E20000025274C0019694164462060616010004C
:102E300019001F4C25686668401BB1410500002938
:102E400002D120498D4210D91A49226063600A8854
:102E5000194B9A4219D00A8A9A4222D00A8C9A4275
:102E60000BD002B004BC9046F0BD464601363E6031
:102E7000F7E714498D42C3D9AFE702230122124874
:102E80001B01C91802604A60EBE70023F6E7002047
:102E900001240D4D000109182C604C60AAE70120A7
:102EA000F6E70123EAE70220F2E7C046FCAA002089
:102EB00008A0002068090020FCFF000010A00020EE
:102EC00040420F00400D03001CAA00201E4B10B50D
:102ED0001A68002A25D0012A12D114221B4C1C4B3F
:102EE00020001A600021230050301A78914200DA45
:102EF000110001338342F8D1164B1960164B1C6048
:102F0000FEF75EF91548164B1649C25C164B1202C5
:102F1000C35C402013430B80F1230B72FDF700FCD0
:102F200010BD1021114C0A4B2000196023002030E5
:102F300019788A4200DA0A0001339842F8D1054B29
:102F40001A60054B1C60DBE780AA0020A009002066
:102F50009C0900209809002018C30020380E00208A
:102F6000FE7F000000C30020FF7F0000388E00209D
:102F7000F0B557464E464546DE460023E0B5B24C16
:102F8000ADB09C4698469A46994606931193129383
:102F900009930293039313930C931493049315933F
:102FA0000A930D930E9308930F9310930B9307932B
:102FB000059301930022A35E00272188002B19DBD3
:102FC0008023DB01994213D3A04B1B68CB18A04D83
:102FD000A04EEB5C337000229F4D2A609F4A116027
:102FE000FF2B01D903F0E9FD9D489A0082589746CE
:102FF0000B00ECE7C0231B02994206D9994BCB1872
:10300000994A944ED35C3370E5E7984B1A68954B18
:10301000CB189B18F4E701318EB2954A26801388AD
:103020000C339BB219001380924A0C3912889142DA
:1030300019DA934217D340238F490A7813430B7050
:10304000130710D58D4B8E4A1988914201D105F096
:10305000C1F9198A914201D105F0BFF9198C914249
:1030600001D101F031FD8748874A138801339BB2B3
:103070001380002B0AD180248449E4000A8801329D
:1030800092B20A80A24201D103F055FA804B016846
:103090001A6801321A6018687E4A904209DD0022DF
:1030A0001A607D4A136858424341136001227B4BEA
:1030B0001A60002901D0FFF777FA794C2368002BBA
:1030C00001D003F020FA774A774913688B4201DD7B
:1030D00003F013FA013313602DB03CBC90469946BF
:1030E000A246AB46F0BDE023481C80B207005B005F
:1030F000984201D108F06AFB01D903F0B9FD172805
:1031000001D903F097FD022800D88FE0C31E9BB2BF
:10311000142B03D8654A9B00D3589F4602B2002A5D
:1031200001DB08F055F8C0231B02984201D808F0D3
:10313000A6FB4C4BC3184C49CB5C7F2B01D808F045
:1031400042FCE0235B00984201D807F092FBD023B9
:103150009B0098420CD001D905F053FA803B98426D
:1031600001D108F0B2FD4033984201D005F03AFA9F
:10317000FEF7F2F800212088013080B24B1EFF3BA1
:103180001BB23278203AD2B20F2A01D903F03DF8AF
:10319000474992008A589746464B1868FDF762FCEB
:1031A0007F2358407E23D022294D03406B751206A1
:1031B00052684149520BD2011343022209889343BA
:1031C000C9120A4013436B750CF0B0FC20886B7D6C
:1031D000013080B207005BB2002B01DB03F05DFD24
:1031E000E0235B009842ACD10CF0E0F9FA20012515
:1031F000324B40001D600DF0C1FD314B20881B6833
:1032000001309D400193D0231B0600219D6180B2B7
:10321000B4E72C4B1A78D1B2012A01D108F05CFF37
:10322000022903D1122801D109F0DCFA0300084D6C
:10323000EB5CD0E7104B1A787F2A01D803F046FDEB
:10324000082019789AE7C04600C3002014AB00207C
:103250007CC300207DC4012080C4012088C50120DA
:1032600020D601100080FFFF380E00202CAB00207C
:10327000CEAB0020CCAB0020D9AB002068090020E9
:10328000F4FF00001CAA0020C8AB0020CAAB00203D
:1032900070A500209F86010074A5002078A500205D
:1032A00000AB00208CAB00201027000020DA0110BA
:1032B00074DA011044D40110C6AB00203CAB0020EE
:1032C00050D40110340E0020D021D84B09064A6892
:1032D00018684968C2405D680120E9400240D20197
:1032E0005208084201D080210A43D02109064968CA
:1032F00098685208C140C90703D5802149420A4352
:10330000D2B2D02109064968D8685208C140C9071D
:1033100003D5802149420A43D2B2D0210906496827
:1033200018695208C140C90703D5802149420A43A0
:10333000D2B2D0210906496858695208C140C9076C
:1033400003D5802149420A43D2B2D02109064968F7
:1033500098695208C140C90703D5802149420A43F0
:10336000D2B252089146D02212065168DA69D14091
:10337000CA0701D408F095FC80214D4696204942A9
:103380000D43EAB29146AA4A4000116881420BDA25
:10339000A8484F008046E2204546785538004D4603
:1033A000404401314570116049464DB2002D01DBAA
:1033B00003F097FCD020000641681D684068E94092
:1033C0005F680125F8402940C901E940284201D041
:1033D00080200143D020000640689D684908E840ED
:1033E000C00703D5802040420143C9B2D020000667
:1033F0004068DD684908E840C00703D580204042A6
:103400000143C9B2D020000640681D694908E84060
:10341000C00703D5802040420143C9B2D020000636
:1034200040685D694908E840C00703D580204042F4
:103430000143C9B2D020000640689D694908E840B0
:10344000C00703D5802040420143C9B2D020000606
:103450004068DB694908D840C30703D580235B4235
:103460001943C9B296251368032099466D00AB42F3
:1034700000DB83E66F4B4A3D98464B465F00434670
:10348000FD543D004B46454401336970136075E6B9
:10349000694B1A787F2A01D803F018FC1720197895
:1034A0006CE6BB2B01D107F0EBFF01D903F0D6FE90
:1034B0009B2B01D107F0D2FF01D803F0C3FEAB2B49
:1034C0000ED1013188B26588FEF796FD281880B2CA
:1034D000FEF792FD0700238801332380A31D179375
:1034E000179978B20A78BB18DBB20B7051B2002979
:1034F00001DA05F096F83D0604D45BB2002B01DA40
:1035000005F098F80225237AAB43179D23722D7896
:10351000002D01D004F032FE04352B43179D237299
:103520002D787F2D01D905F022F80825AB432372B1
:10353000002901DA04F0F4FF002801DB04F042FF67
:10354000179909787F2901D904F03CFF01210B4329
:1035500008212372114201D104F0ABFC394201D1A0
:1035600004F0A9FC20222688134301362372B6B248
:1035700053E5C02B01D107F06CFE01D904F068F9C6
:10358000A02B01D107F05DFE01D904F045F9802B95
:1035900001D107F066FE902B01D007F03BFD013111
:1035A00088B2FEF729FD80B2FEF726FD23880B9036
:1035B00001332380A31D19001A930A78131ADBB272
:1035C00052B20B7041B2002A01DA04F06CFF00061F
:1035D00001D507F0DFFA0220237A83431A98237279
:1035E0000078002801D004F066FE043003431A98E6
:1035F000237200787F2801D904F063FF08208343F9
:103600002372002A01DA04F042FF002901DA04F0F3
:10361000EAFC1A9A12787F2A01D904F0E4FC01220C
:103620002688934301362372B6B2F6E4F40D0020E7
:1036300090AB0020A4C00020D8AB0020C12B01D14A
:1036400007F037FE01D903F01AFDA12B01D107F0D5
:1036500028FE01D903F0F8FC812B01D107F00DFE03
:10366000912B01D007F030FB013188B2FEF7C4FC8A
:1036700080B2FEF7C1FC2388099001332380A31D8B
:103680002A931978099BCA1AD2B249B25EB255B2CE
:10369000002901DA04F0CBFE1B0601D507F081FA00
:1036A0000220237A8343002A01D004F00FFD043264
:1036B000134308229343002901DA04F081FF002E0E
:1036C00001DA04F088FC002D01DA04F084FC012208
:1036D0002688934301362372B6B29EE4C52B01D1EE
:1036E00007F07AFE01D903F0D9FDA52B01D107F02F
:1036F0003BFE01D903F083FD852B01D107F0C5FD09
:10370000952B01D007F0DDFA013188B2FEF774FC89
:1037100080B2FEF771FC83B21293238801332380B9
:10372000A31D29931878129B034018005AB2237ADC
:10373000002801D004F0C7FD022293430232134354
:1037400008222688934301362372B6B265E4C82B5B
:1037500001D107F005FE01D903F031FDA82B01D1FD
:1037600007F0F6FD01D903F00DFD882B01D107F01C
:1037700088FD982B01D007F0A1FA013188B2FEF73D
:103780003BFC80B2FEF738FC83B2139323880133ED
:103790002380A31D190024930878139A50400870C1
:1037A000237A02221800904320720978002901D060
:1037B00004F062FD04230343249A237212787F2AC3
:1037C00001D904F026FE082226889343013623728D
:1037D000B6B2FFF722FCCA2B01D107F0F5FD01D9E3
:1037E00003F074FFAA2B01D107F0C6FD01D903F045
:1037F00050FF8A2B01D107F050FD9A2B01D007F022
:10380000EAF9013188B2FEF7F7FB80B2FEF7F4FB6C
:1038100083B21593238801332380A31D19002793B6
:103820000878159A10430870237A022218009043F2
:1038300020720978002901D004F0DFFC042303433F
:10384000279A237212787F2A01D904F03EFE0822BB
:103850002688934301362372B6B2FFF7DEFBCE2BE8
:1038600001D107F02AFD01D903F041FEAE2B01D1B1
:1038700007F038FD01D903F070F98E2B01D107F064
:10388000AFFD9E2B01D007F0FCFA013188B2FEF7A4
:10389000B3FBDE4A135C121852781B029B189BB2D2
:1038A0000C93238801332380231D190025930C9B3F
:1038B00002220B80237A1800904320720988002985
:1038C00001D004F035FD04230343259A237200211F
:1038D000525E002A01DA04F079FE0822268893431A
:1038E00001362372B6B2FFF798FBC22B01D107F065
:1038F00067FD01D904F00DF8A22B01D107F010FDEE
:1039000001D903F0EEFF822B01D107F061FD922B6C
:1039100001D007F0B9FA013188B2FEF76DFB80B231
:10392000FEF76AFB23880A9001332380A31D1D0044
:103930000600199301232978207A8A1B0340D31AA1
:10394000DBB249B22B70002901DA04F089FD3000A6
:1039500072B2000601D507F02AF90220237A8343C8
:10396000199823720078002801D004F08EFC0430EE
:1039700003431998237200787F2801D904F06CFD65
:10398000082083432372002901DA04F086FD002A0F
:1039900001DA04F030FB199A12787F2A01D904F079
:1039A0002AFB01222688934301362372B6B2FFF721
:1039B00034FBC92B01D107F024FC01D904F0B9F87C
:1039C000A92B01D107F021FC01D904F009F8892BBA
:1039D00001D107F042FC992B01D007F018FB01310F
:1039E00088B2FEF709FB80B2FEF706FB2388844607
:1039F00001332380A31D180018930123217A027834
:103A00000B406344D318DBB20370604651B2654685
:103A100040B2002901DA04F064FD2D0601D507F05B
:103A2000ACF80225237AAB43189D23722D78002D24
:103A300001D004F0E6FB04352B43189D23722D784A
:103A40007F2D01D904F049FD0825AB4323720029DD
:103A500001DA04F0E6FC002801DB04F0AFFC189961
:103A600009787F2901D904F0A9FC01210B43082121
:103A70002372114201D104F02CFA6246114201D1A5
:103A800004F02AFA20222688134301362372B6B2A4
:103A9000FFF7C3FAC62B01D107F0A7FB01D903F04A
:103AA000CFFFA62B01D107F0BCFB01D903F051FFDA
:103AB000862B01D107F068FC962B0CD1013188B21E
:103AC000FEF79AFA80B2FEF797FA23881490013332
:103AD0002380A31D26930222237A93432372269ADE
:103AE000149B1370002B01D004F0CAFB0422237A2C
:103AF0001343269A237212787F2A01D904F0A4FC7A
:103B000008222688934301362372B6B2FFF785FA5E
:103B1000C42B01D107F0BDFB01D903F00DFAA42B92
:103B200001D107F086FB01D903F0E9F9842B01D11B
:103B300007F073FB942B01D007F049FA013188B2EA
:103B4000FEF75AFA80B2FEF757FA83B21193238830
:103B500001332380A31D190023930878119A024092
:103B60000A70237A022218009043207209780029F3
:103B700001D004F0FFFA04230343239A237212783E
:103B80007F2A01D904F00CFD0822268893430136D0
:103B90002372B6B2FFF741FAD72B01D107F013FB1E
:103BA00001D903F0BEFAA72B01D107F0F5FAB72B24
:103BB00001D003F081FA013188B2FEF71DFA85B217
:103BC00020882D02023080B2FEF716FAADB22843EB
:103BD00083B20D93A379984623880233238041460C
:103BE0000D98FEF78BFB4346227A002B01D004F0A0
:103BF00087FB02339A4302331A43082326889A43E9
:103C000001362272B6B2FFF708FAC0467CC3002024
:103C1000AD2B01D107F05BF801D903F05EFA8D2BD3
:103C200001D107F075F89D2B01D007F06DF8013137
:103C300088B2FEF7E1F9218886B20131A08889B205
:103C4000431E2180C9B2A380FEF758FBA0882188BB
:103C5000431E090AA380FEF751FBFFF7DEF9E32BB1
:103C600001D107F015F901D903F01FFCC32B01D1D5
:103C700007F011F8D32B13D1013188B2FEF7BCF94C
:103C800085B22800FEF7B8F901350600A8B2FEF7A4
:103C9000B3F9360221883618B3B20131069389B2DE
:103CA000069DA279AC46E37912021343634498B2AD
:103CB000E38880225BBA1E00120216401A4201D02D
:103CC00004F00FFB6B4618229B5E002B04DB02B254
:103CD000002A01DA04F00FFB0225227AAA43002E03
:103CE00001D104F0C1FA002B04DB03B2002B01DA8E
:103CF00004F0BEFA01231A430423002801D004F083
:103D00000BFA1A4308239A4340BA01312272E08029
:103D10008EB2FFF782F9602B01D107F03CF901D98F
:103D200003F0B5FD402B01D107F07BF9502B01D0FA
:103D300007F074F9E21DE3681692002B01D003F03E
:103D4000CBFD169B19784942C8B21870E368002B66
:103D500001D006F01EFA0222237A802801D104F055
:103D6000E8FC9343169A23721278002A01D104F0DA
:103D70004CFA01221343169A23721278002A01D0BA
:103D800004F047FA04321343169A237212787F2AFA
:103D900001D904F074FB082226889343013623726C
:103DA000B6B2FFF73AF9EC2B01D107F0E0F801D9F0
:103DB00003F04FFCCC2B01D106F03CFFDC2B14D1DF
:103DC000013188B2FEF718F980B2FEF715F9A0713B
:103DD0002088013080B2FEF70FF9013080B2FEF783
:103DE0000BF92388E07101332380E288237A51BAEA
:103DF000002A01D004F02CF902329343023213431B
:103E000008222688934301362372B6B2FFF705F9DC
:103E1000682B01D107F05DF801D903F089FC482B2C
:103E200001D107F014F9582B01D007F00DF9E31D6B
:103E3000E2681B931B9B1B787F2B01D904F08AFB44
:103E40000121237A8B432372002A01D006F0CEFA97
:103E50001B9B19784900C8B21870E368002B01D089
:103E600006F0C9FA0422237A002801D004F0E7F80A
:103E700013431B9A237212787F2A01D904F0AEFBF8
:103E80000822934309221A40082A01D104F05EF85F
:103E9000012A01D104F05AF8022226889343013600
:103EA0002372B6B2FFF7B9F8632B01D106F0A5FE75
:103EB00001D903F0A4FB432B01D107F005F8532BE4
:103EC00001D006F0FEFFE21DE3682092002B01D036
:103ED00003F0BAFB209B1978C943C8B21870E36895
:103EE000002B01D005F07EFE227A022311009943B7
:103EF0000B00012118000843207220980078002848
:103F000001D004F09FF805221343209A23721278FF
:103F10007F2A01D904F00AFB082226889343013640
:103F20002372B6B2FFF779F8642B01D106F057FF80
:103F300001D903F011FA442B01D106F071FF542B83
:103F400001D006F06AFFE31DE16821930122219B65
:103F50001B781A4201D104F0E7F9237A1343DBB24C
:103F60002372002901D006F0F0F8219B1878400850
:103F70001870E368002B01D006F06BF8237ADA079B
:103F800001D404F0CDF902221343219A237212784E
:103F9000002A01D004F0CEF8043213430822268808
:103FA000934301362372B6B2FFF737F86D2B01D178
:103FB00006F053FE01D902F0E9FB4D2B01D106F0CA
:103FC0007BFF5D2B01D006F074FFE31DE1682893B1
:103FD000237A0322180090432072002901D006F0B2
:103FE000C4F828990978002901D005F024FC04239D
:103FF0000343289A237212787F2A01D906F0ACFC79
:1040000008222688934301362372B6B2FFF705F8DB
:104010006A2B01D106F00EFF01D902F0AEFF4A2B48
:1040200001D106F07AFF5A2B01D006F073FFE31D91
:10403000E2681C931C9B1B78802B01D104F07FFB52
:104040000221237A8B432372002A01D005F046FE19
:104050001C9B19780139C8B21870E368002B01D095
:1040600005F078FF0422237A002801D003F0FEFF38
:1040700013431C9A237212787F2A01D904F05EFA46
:1040800008222688934301362372B6B2FEF7C5FF95
:10409000692B01D106F046FF01D903F073FA492BD1
:1040A00001D106F05FFF592B01D006F058FFE31D48
:1040B000E0681E93012215001E99237A09781D409D
:1040C0007F2901D904F078FA93432372002801D0A4
:1040D00005F014FE1E9A11784900C8B21070002D28
:1040E00001D104F039F8012318431070E368002B64
:1040F00001D005F09DFE0422237A93431E9A237279
:1041000012787F2A01D904F053FA08229343092236
:104110001A40082A01D103F0F3FE012A01D103F06D
:10412000EFFE02222688934301362372B6B2FEF7D1
:1041300074FFA32B01D106F09BFE01D903F020FBF5
:10414000832B01D106F072FF932B13D1013188B27A
:10415000FDF752FF85B22800FDF74EFF013506003E
:10416000A8B2FDF749FF36022188301883B2013129
:10417000079389B2A279E3791202079813431B1AB5
:104180009AB2E38880255BBA1E002D022E401D42A4
:1041900001D003F07EFF6B461C20185E002801DA78
:1041A00006F0E6FF0225237AAB43002E01D003F090
:1041B0006AFF002801DA04F009F910B2002801DAD8
:1041C00004F004F9012083430420002A01D003F005
:1041D00050FF03430820834352BA01312372E28027
:1041E0008EB2FEF71AFFAC2B01D106F02DFD01D9DE
:1041F00002F0F6FB8C2B01D106F0F0FC9C2B14D1C5
:10420000013188B2FDF7F8FE85B22800FDF7F4FE13
:1042100001350600A8B2FDF7EFFE218836023618F8
:104220000131B3B289B2029321806088029BC51A22
:1042300000B2ADB2002801DA04F0A3F96B460822FF
:104240009B5E002B01DA06F0BFFC0226227AB24305
:10425000002801DA04F08FF9002B01DA03F0B0FE38
:104260002BB2002B01DA03F0ABFE01239A430423A7
:10427000002D01D003F062FF1A43082301319A4355
:1042800022728EB2FEF7C9FE6F2B01D106F069FDD6
:1042900001D903F089F84F2B01D106F075FD5F2B92
:1042A00001D006F05BFDE21DE3682B92002B01D0EC
:1042B00003F095F82B9A13700B22237A26889343E8
:1042C0000422013613432372B6B2FEF7A6FE6C2B0E
:1042D00001D106F0C9FE01D902F026FB4C2B01D119
:1042E00006F0BDFE5C2B01D006F0B6FEE21DE368D1
:1042F0001D92002B01D002F03CFB1D9B197801316F
:10430000C8B21870E368002B01D005F0A3FF0222A9
:10431000237A802801D104F00FFA93431D9A237267
:104320001278002A01D003F001FF043213431D9AD2
:10433000237212787F2A01D904F011F90822268805
:10434000934301362372B6B2FEF767FE662B01D1A6
:1043500006F040FE01D902F039F9462B01D106F0F2
:10436000A3FD562B01D006F09CFDE31DE0681F93D2
:10437000012215001F99237A09781D400A4201D1B4
:1043800003F0ECFF1343DBB22372002801D005F0E9
:10439000CBFC1F9A107840081070002D01D103F05B
:1043A000CFFF802318431070E368002B01D005F085
:1043B00086FB0422237A93431F9A237212787F2A62
:1043C00001D904F0C3F80822934309221A40082AAD
:1043D00001D103F0C3FD012A01D103F0BFFD022288
:1043E0002688934301362372B6B2FEF716FE672B7A
:1043F00001D106F0CEFC01D902F010F9472B01D112
:1044000006F0E8FC572B01D006F0E1FCE31DE16863
:1044100022930122229B1B781A4201D103F0AFFFA5
:10442000237A1343DBB22372002901D005F077FC15
:104430004023229A107840081070034201D103F003
:1044400090FF403318431070E368002B01D005F053
:1044500070FC0422237A9343DA0701D504F05FF954
:104460000A222688934301362372B6B2FEF7D5FDA1
:10447000372B01D106F0EAFA3C2B01D106F0D4FA31
:10448000362B01D106F036FB01318EB2FEF7C5FDA9
:10449000ED2B01D106F0C0FAFD2B01D106F0A3FAF5
:1044A000DD2B01D106F060FA089D0E9E290A30002E
:1044B000FDF724FF30000130E9B280B2FDF71EFFA6
:1044C000227A002D01D003F016FE02239A43023314
:1044D0001A43082326889A4301362272B6B2FEF7A1
:1044E0009CFDAF2B01D106F0FDFABF2B01D106F0E8
:1044F000E3FA9F2B01D106F069FA53460F9D190A82
:104500002800FDF7FBFE280053460130D9B280B2E7
:10451000FDF7F4FE5346227A002B01D003F033FF5F
:1045200002339A4302331A43082326889A430136FA
:104530002272B6B2FEF771FD332B01D106F007FBF4
:10454000382B01D106F0EDFA322B01D106F0DDFA5D
:1045500001318EB2FEF761FDEF2B01D106F0A4FA16
:10456000FF2B01D106F08AFADF2B01D106F079FA90
:104570004B46109D190A2800FDF7C0FE28004B4647
:104580000130D9B280B2FDF7B9FE4B46227A002B3A
:1045900001D003F009FE02339A4302331A43082381
:1045A00026889A4301362272B6B2FEF736FD082BF2
:1045B00001D105F04BF9312B01D105F040F9013162
:1045C0008EB2FEF72AFD622B01D104F0BDF8722BEA
:1045D0003FD1E0238E1CB6B25B009E4201D107F0B2
:1045E00031FD01D905F08DF9172E01D905F011F92A
:1045F000022E01D806F07CFDF31E9BB2142B03D8CB
:10460000E14A9B00D3589F46330401D406F069FD6C
:10461000C0231B029E4201D807F0CBFCDB4B9C461B
:104620006644DB4B985D80B2FDF7E6FC0500208810
:10463000013080B2FDF7E0FC05432088EDB2023086
:1046400080B20495FDF7D8FC290080B2FDF756FE34
:1046500021886A46127C237A52B2002A01DA03F0DA
:10466000B3FD0A229343049A002A01D003F0B0FD5F
:1046700004220331134323728EB2FEF7CEFCC54BE6
:104680001878D0E7C44B1868FCF7ECF97F237E223A
:1046900043401340D0220221C04D12066B75526870
:1046A000520BD2011343BE4A8B431288D2120A40E6
:1046B00013436B750BF03AFA687DB4E7B94BB74D0D
:1046C0001A78D1B2012A01D108F062F9022903D186
:1046D000122E01D108F017FAA85DA4E7B24B1878A2
:1046E000A1E7D022B14B1206506819685268C84041
:1046F0005D680121EA400840C001C8400A4201D07B
:1047000080221043D0221206526899684008CA409D
:10471000D20703D5802252421043C0B2D0221206E3
:104720005268D9684008CA40D20703D58022524255
:104730001043C0B2D0221206526819694008CA401C
:10474000D20703D5802252421043C0B2D0221206B3
:10475000526859694008CA40D20703D580225242A4
:104760001043C0B2D0221206526899694008CA406C
:10477000D20703D5802252421043C0B2D022120683
:104780005268DB694008DA40D30703D580235B42D7
:104790001843C0B29622864952000B68934200DB50
:1047A00041E7E226834A5D00AE540133521950704E
:1047B0000B6038E76E2B01D104F09DF97E2B01D1FF
:1047C00003F0E2FF01318EB2FEF727FC092B01D185
:1047D00005F064F8342B01D105F059F801318EB29F
:1047E000FEF71BFC652B01D104F0D4FE752B19D10B
:1047F000023188B2FDF700FC80B2FDF7FDFB050039
:104800002088013080B2FDF7F7FB45402088EDB2EB
:10481000023080B20395FDF7EFFB290080B2FDF76F
:104820006DFD21886A46127B237A52B2002A01DA92
:1048300003F0B9FD0A229343039A002A01D003F042
:10484000B6FD04220331134323728EB2FEF7E5FB5B
:104850006B2B01D105F088F87B2B10D1023188B287
:10486000FDF7CAFB80B2FDF7C7FB050020880130C9
:1048700080B2FDF7C1FB2840C3B2218805936A4688
:10488000127D237A52B2002A01DA03F029FC0A22AF
:104890009343059A002A01D003F026FC0422033139
:1048A000134323728EB2FEF7B8FB612B01D104F0E3
:1048B0006FF9712B01D001F013FBE0238E1CB6B20F
:1048C0005B009E4201D107F001FB01D904F035FDE8
:1048D000172E01D904F0CAFF022E01D806F0F2FB10
:1048E000F31E9BB2142B03D8334A9B00D3589F4628
:1048F000330401D406F0DFFBC0231B029E4201D823
:1049000007F0D5FB214B9C466644214B985DC31EA6
:10491000DBB20100142B00D9B6E0284A9B00D35823
:104920009F461C4B1878F2E71B4B1868FCF79AF867
:104930007F237E2243401340D0220221174D1206CE
:104940006B755268520BD2011343154A8B43128880
:10495000D2120A4013436B750BF0E8F8687DD6E776
:10496000104B0E4D1A78D1B2012A01D108F01EF871
:10497000022903D1122E01D108F0A4F8A85DC6E7E0
:10498000094B1878C3E7C046B4DA01100080FFFF76
:10499000380E0020D8AB002044D401107CC3002086
:1049A000C6AB0020340E0020D9AB0020F40D00204F
:1049B00090AB0020A4C0002008DB01105CDB0110DC
:1049C000D021A74B09064A6818684968C2405D684B
:1049D0000120E9400240D201C240014201D08021C1
:1049E0000A43D0210906496898685208C140C9079E
:1049F00003D5802149420A43D2B2D0210906496831
:104A0000D8685208C140C90703D5802149420A43EA
:104A1000D2B2D0210906496818695208C140C907B5
:104A200003D5802149420A43D2B2D0210906496800
:104A300058695208C140C90703D5802149420A4339
:104A4000D2B2D0210906496898695208C140C90705
:104A500003D5802149420A43D2B25008D02212061F
:104A60005268DB69DA40D30701D407F06BFD80227E
:104A70009621524210437B4AC0B2136849008B42D0
:104A800001DA07F067FD0100774D6F5CE0232288B3
:104A90005B00561CB6B29E4201D107F041FA01D923
:104AA00004F06AFF172E01D904F008FF022E01D886
:104AB00006F013FBF31E9BB2142B01D901F0D2F9BF
:104AC0006A499B00CB589F46022201216848120187
:104AD0009B1801605960FEF7C7FA63880131013BFA
:104AE000A3808EB2FEF799FAA379E2791B021343F1
:104AF00018005D08D30701D403F051FB0322237A89
:104B000013430422002D01D003F046FB1343082277
:104B1000400A934301312372A071E5718EB2FEF712
:104B20007CFAA279E37912021A4310B2237A0028A0
:104B300001DA03F0E4FC01208343520092B2042026
:104B4000002A01D003F01EFB034308208343092001
:104B50001840082801D103F0F5F9012801D103F02C
:104B6000F1F90220834352BA01312372E2808EB2FE
:104B7000FEF753FA3F22237AA0799343024013436E
:104B8000013123728EB2FEF748FA237A0131A37104
:104B90008EB2FEF742FA0122237A01319343237247
:104BA0008EB2FEF73AFA0122237A013113432372BF
:104BB0008EB2FEF732FAA0796388E27900025BBA1E
:104BC000024301316280E3808EB2FEF726FA0F22A3
:104BD000A579237A28002A409E0600D5A81D092A17
:104BE00000D90630DA0700D560309F2801DC03F0D9
:104BF00050FB603001221A43060601D407F0DBFFA8
:104C0000082313430422934345402A0601D403F0AA
:104C100056FB0222134301312372A0718EB2FEF7BC
:104C2000FCF9E023A1885B00481C80B20600A0804C
:104C3000984201D106F05EFE01D901F012FF17285B
:104C400001D901F0B9FE022801D803F0EAF9C31E28
:104C50009BB2142B10D8074A9B00D3589F46C046DE
:104C6000F40D002090AB00207CC30020B0DB0110CD
:104C70001CAA002004DC011003B2002B01DB03F0AE
:104C8000C9F9C0231B02984201D806F0FFFDDF4B93
:104C90009C466044DE4B02311B5C88B22372E023E9
:104CA0000600A0805B00984201D803F04BF8D023A7
:104CB0009B00984201D901F09EFD803B984201D1B2
:104CC00006F061FE4033984201D001F087FDFCF709
:104CD00043FB0023A088E371E023013080B206008B
:104CE000A0805B00984201D106F0B5FD00D809E133
:104CF000D0239B0098420FD0D0239B00984201D92B
:104D000001F031FD803B984201D106F042FE403374
:104D1000984201D001F01AFDFCF71EFB0023A08889
:104D2000A371E023013080B20600A0805B009842AE
:104D300001D106F01DFD00D81EE1D0239B00984252
:104D40000FD0D0239B00984201D901F067FD803B32
:104D5000984201D106F0A2FD4033984201D001F003
:104D6000D7FCFCF7F9FA0022A088E023013080B2DA
:104D700006006280A0805B00984201D106F00FFE21
:104D800000D833E1D0239B0098420FD0D0239B0062
:104D9000984201D901F07DFD803B984201D106F097
:104DA00083FD4033984201D001F048FDFCF7D4FA6E
:104DB0006288A088E023013080B206006280A08073
:104DC0005B00984201D106F0E7FC00D853E1D02304
:104DD0009B0098420FD0D0239B00984201D901F04C
:104DE000A3FC803B984201D106F0EAFC4033984294
:104DF00001D001F058FC0026FCF7AEFAA088E023B1
:104E0000013080B207002680A0805B00984201D16B
:104E100006F0FAFC00D856E1D0239B0098420FD050
:104E2000D0239B00984201D901F0C0FB803B9842FF
:104E300001D106F09CFD4033984201D001F0ACFB5B
:104E4000FCF78AFA2688FEF7E8F8724B1868FBF739
:104E500009FE7F2358407E23D0226F4D03406B759F
:104E6000120652686D49520BD2011343022209887F
:104E70009343C9120A4013436B750AF057FE6B7DCA
:104E8000A0882372E023013080B20600A0805B007E
:104E9000984201D106F0CBFC01D802F053FFD02399
:104EA0009B00984200D002E711E75D4B5A4D1A78FB
:104EB000D1B2012A01D107F046F8022903D1122804
:104EC00001D101F0E2FAAB5DDBE7564B1A78013015
:104ED00080B206002272A08003B2002B01DB03F037
:104EE00045F8514B1A68494BC3189B18484A013082
:104EF000D35C80B2E371E0230600A0805B0098429F
:104F000000D9F9E6172801D900F07DFC022801D864
:104F100003F03EF8C31E9BB2142B17D8434A9B00E4
:104F2000D3589F462033984201D001F07CFD3E4A81
:104F30001368002B01D006F0AFFF80231B02136023
:104F4000013080B200230600E371A08003B2002B81
:104F500001DB03F016F8344B1A682C4BC3189B186E
:104F60002B4A0130D35C80B2A371E0230600A080FD
:104F70005B00984200D9E4E6172800D934E3022800
:104F800001D803F010F8C31E9BB2142B17D8284A7F
:104F90009B00D3589F462033984201D001F09AFDE0
:104FA000214A1368002B01D007F0F4F880231B027C
:104FB0001360013080B200230600A371A08003B209
:104FC000002B01DB02F0E8FF174B1A680F4BC318E8
:104FD0009B180F4A0130D25CE02380B21202060017
:104FE0006280A0805B00984200D9CFE6172800D9E4
:104FF000DFE2022801D802F0E0FFC31E9BB2142BAF
:1050000022D80C499B00CB589F46C0460080FFFF2A
:10501000380E002044D401107CC30020C6AB002011
:10502000340E0020D9AB00202CAB002058DC01103E
:10503000ACDC011000DD0110B34B1A781202013014
:1050400080B206006280A08003B2002B01DB02F078
:10505000ADFFAE4B1968AE4BC3185B18AD490130BC
:10506000CB5C80B21A43E02306006280A0805B0024
:10507000984200D9AFE6172800D911E1022801D8DB
:1050800001F028FAC31E9BB2142B03D8A24A9B003E
:10509000D3589F4603B2002B01DB01F01BFAC0235B
:1050A0001B02984200D808E2994BC318994A013074
:1050B000D65CE02380B2360207002680A0805B0029
:1050C000984200D9ACE6172800D9CDE0022801D8D3
:1050D00001F0F1F9C31E9BB2142B0BD88F4A9B0031
:1050E000D3589F46884B1E783602013080B20700A5
:1050F0002680A08003B2002B01DB01F0DCF9C02385
:105100001B02984201D806F00FFC814B9C4660447C
:10511000804B1B5C1E43FDF780FF814B1B781E43B9
:10512000FDF77BFF7F4B1868FBF79CFC7F23584003
:105130007E23D0227C4D03406B75120652687B495A
:10514000520BD2011343022209889343C9120A4029
:1051500013436B750AF0EAFC697D26880E43FDF760
:105160005CFF734B704D1A78D1B2012A01D107F060
:1051700020F8022903D1122801D107F057FBEB5D7B
:105180001E43FDF74AFF604B1B781E43FDF745FFAA
:10519000D021684B09064A6818684968C2405D68B2
:1051A0000120E9400240D2015208084201D080218A
:1051B0000A43D0210906496898685208C140C907C6
:1051C00003D5802149420A43D2B2D0210906496859
:1051D000D8685208C140C90703D5802149420A4313
:1051E000D2B2D0210906496818695208C140C907DE
:1051F00003D5802149420A43D2B2D0210906496829
:1052000058695208C140C90703D5802149420A4361
:10521000D2B2D0210906496898695208C140C9072D
:1052200003D5802149420A43D2B2D02109064968F8
:10523000DB695208D940CB0703D580235B421A4370
:10524000D2B296213C48490003688B4201DA06F04D
:1052500090FC1643FDF7E1FE314B1E78360201301B
:1052600080B207002680A0800300813BFF3B012B1A
:1052700001D901F020F98223FF33984201D1FDF7D3
:10528000CCFE7F222D4B1B6813401E43FDF7C5FE4D
:10529000234B1B781A43013080B206006280A08045
:1052A0000300813BFF3B012B01D901F013F982235D
:1052B000FF33984201D106F069FD7F21C0201F4BCA
:1052C00040001E680E403602C9E7164B1868FBF70F
:1052D000C9FB7F2358407E23D022134D03406B75BA
:1052E000120652681149520BD20113430222098857
:1052F0009343C9120A4013436B750AF017FC6E7D85
:10530000A08836027BE5C046D9AB00202CAB00203C
:105310000080FFFF380E002054DD0110A8DD0110D1
:10532000D8AB002044D401107CC30020C6AB0020C1
:10533000340E0020F40D002090AB002044AA002081
:10534000D022C74B120651681D685268E9405E685A
:105350000125F2402940C9014908154201D08022A7
:105360001143D022120652689D684908EA40D207CC
:1053700003D5802252421143C9B2D022120652688C
:10538000DD684908EA40D20703D580225242114322
:10539000C9B2D022120652681D694908EA40D207F4
:1053A00003D5802252421143C9B2D022120652685C
:1053B0005D694908EA40D20703D580225242114371
:1053C000C9B2D022120652689D694908EA40D20744
:1053D00003D5802252421143C9B2D022120652682C
:1053E000DB694908DA40D30703D580235B421943C0
:1053F000C9B296229B4D52002B68934207DAE227EE
:10540000994A5E00B7540133921951702B600E0215
:105410006BE6964B1A78D1B2012A01D106F0B4FDA1
:10542000022901D001F056F8122801D107F043FA01
:1054300011208F4DAE5D3602E1E48E4B1868FBF70C
:1054400011FB7F2358407E23D022894D03406B758A
:10545000120652688849520BD2011343022209886E
:105460009343C9120A4013436B750AF05FFB6A7DD0
:105470006388A0881A439DE47C4B1978CDB201293A
:1054800001D106F00CFE022D01D002F096FD12288B
:1054900001D107F023FA1120754DAB5D1A4389E461
:1054A000764B19780A43013080B203B2060062805D
:1054B000A080002B01DB01F006F8714B1A68714BDC
:1054C000C3189B18F2E5D025654B2D0669681E6848
:1054D0006D68F1405F680126FD403140C90149080F
:1054E0002E4201D080252943D0252D066D689E6867
:1054F0004908F540ED0703D580256D422943C9B21F
:10550000D0252D066D68DE684908F540ED0703D506
:1055100080256D422943C9B2D0252D066D681E69CC
:105520004908F540ED0703D580256D422943C9B2EE
:10553000D0252D066D685E694908F540ED0703D555
:1055400080256D422943C9B2D0252D066D689E691C
:105550004908F540ED0703D580256D422943C9B2BE
:10556000D0252D066D68DB694908DD40EB0703D5C2
:1055700080235B421943C9B296253A4B6D00994688
:105580001B68AB420BDA384D5F00A846E225464661
:10559000BD553D00454469704D4601332B600A43BB
:1055A00081E7394B1A781202013080B2060062801E
:1055B000A0800300813BFF3B012B01D902F0FDFCE1
:1055C0008223FF33984200D165E67F21C0202F4B14
:1055D00040001B680B401A435DE62B4B1B780130E3
:1055E00080B20600A371A0800300813BFF3B012B2A
:1055F00001D902F0D8FC8223FF33984201D106F092
:105600005EFD224BC0201A687F231A401202400020
:10561000CAE7184B1868FBF725FA7F2358407E230A
:10562000D022134D03406B75120652681249520B7B
:10563000D2011343022209889343C9120A4013433B
:105640006B750AF073FA6B7DA088FFF769FB0B4B53
:105650001A78013080B20600A271A080AFE4C04683
:10566000F40D002090AB0020A4C00020340E0020D8
:105670007CC3002044D40110C6AB0020D9AB00206D
:105680002CAB00200080FFFFD8AB002044AA0020F4
:10569000D021E44B09064A681D684968EA405E6803
:1056A0000125F1402A40D20152080D4201D080214B
:1056B0000A43D021090649689D685208E940C90794
:1056C00003D5802149420A43D2B2D0210906496854
:1056D000DD685208E940C90703D5802149420A43E1
:1056E000D2B2D021090649681D695208E940C907AC
:1056F00003D5802149420A43D2B2D0210906496824
:105700005D695208E940C90703D5802149420A432F
:10571000D2B2D021090649689D695208E940C907FB
:1057200003D5802149420A43D2B2D02109064968F3
:10573000DB695208D940CB0703D580235B421A436B
:10574000D2B29621B84D49002B688B4200DB80E72E
:10575000E227B6495E007754013389194A702B60FD
:1057600077E7B34B1A78D1B2012A01D106F003FCD6
:10577000022901D002F00CFC122801D106F095FF9D
:10578000AC4D1120AB5DFFF7CBFAAB4B1868FBF7C4
:1057900069F97F2358407E23D022A64D03406B75C4
:1057A00012065268A549520BD201134302220988FE
:1057B0009343C9120A4013436B750AF0B7F96A7D27
:1057C000A0881202FFF7D1FA9D4B1B78013080B2FE
:1057D00006002372A0800300813BFF3B012B01D90F
:1057E00002F0CBFB8223FF33984201D106F00CFC80
:1057F0007F22C020934B40001B681340013080B2D1
:105800000600E371A0800300813BFF3B012B01D91F
:1058100002F0BEFB8223FF33984201D106F037FB32
:105820007F22C020874B40001B681340D7E6D02161
:105830007C4B09064A681D684968EA405E68012594
:10584000F1402A40D20152080D4201D080210A4382
:10585000D021090649689D685208E940C90703D567
:10586000802149420A43D2B2D02109064968DD6845
:105870005208E940C90703D5802149420A43D2B200
:10588000D021090649681D695208E940C90703D5B6
:10589000802149420A43D2B2D021090649685D6994
:1058A0005208E940C90703D5802149420A43D2B2D0
:1058B000D021090649689D695208E940C90703D506
:1058C000802149420A43D2B2D02109064968DB69E6
:1058D0005208D940CB0703D580235B421A43D2B28A
:1058E0009621514D49002B688B4201DBFFF7EFFAFF
:1058F000E2274E495E007754013389194A702B60C4
:10590000FFF7E5FAD021474B09064A681D68496848
:10591000EA405E680125F1402A40D20152080D425A
:1059200001D080210A43D021090649689D685208A8
:10593000E940C90703D5802149420A43D2B2D021A8
:1059400009064968DD685208E940C90703D5802186
:1059500049420A43D2B2D021090649681D6952085A
:10596000E940C90703D5802149420A43D2B2D02178
:10597000090649685D695208E940C90703D58021D5
:1059800049420A43D2B2D021090649689D695208AA
:10599000E940C90703D5802149420A43D2B2D02148
:1059A00009064968DB695208D940CB0703D5802333
:1059B0005B421A43D2B296211B4D49002B688B42A1
:1059C00007DAE22719495E007754013389194A70D2
:1059D0002B601202FFF733FB154B1A78D1B2012A64
:1059E00001D106F09DF9022901D002F0DCFA12285B
:1059F00001D106F0BBFE11200E4DAA5D1202FFF789
:105A0000B4F91022237A0131934323728EB2FDF749
:105A100004FB1022237A0131134323728EB2FDF767
:105A2000FCFAC046F40D002090AB0020A4C000207A
:105A3000340E00207CC3002044D40110C6AB0020EB
:105A4000D8AB002044AA0020A579E0792A1AD2B266
:105A50006DB2A27140B257B2002D01DA02F053FDCF
:105A6000002801DA05F090F80226237AB343002AD1
:105A700001D002F0E5FB0432134308229343002DCA
:105A800001DA02F0ADFC002801DA02F09DFA002FE5
:105A900001DA02F099FA01220131934323728EB2A6
:105AA000FDF7BBFAE079A5792A1AD2B26DB240B2FD
:105AB00057B2002D01DA02F099FC002801DA05F056
:105AC0007DF80226237AB343002A01D002F0C2FBFC
:105AD0000432134308229343002D01DA02F093FCB1
