:020000041000EA
:1000000000B5324B212058609868022188439860DF
:10001000D860186158612E4B002199600221596106
:100020000121F02299502B49196001219960352056
:1000300000F044F80222904214D00621196600F024
:1000400034F8196E01211966002018661A6600F04E
:100050002CF8196E196E196E052000F02FF8012189
:100060000842F9D1002199601B49196000215960AB
:100070001A491B48016001219960EB211966A021F2
:10008000196600F012F800219960164914480160C1
:100090000121996001BC002800D000471248134993
:1000A000086003C880F30888084703B5996A0420EC
:1000B0000142FBD001200142F8D103BD02B5186610
:1000C0001866FFF7F2FF186E186E02BD00000240BE
:1000D000000000180000070000035F00212200005C
:1000E000F4000018222000A00001001008ED00E03C
:1000F00000000000000000000000000074B24E7A12
:1001000000200420F7010010C3010010C5010010F9
:10011000C1010010C1010010C1010010C101001097
:10012000C1010010C1010010C1010010C701001081
:10013000C1010010C1010010C9010010CB01001065
:10014000CD010010CD010010CD010010CD01001037
:10015000CD010010CD010010CD010010CD01001027
:10016000CD010010CD010010CD010010CD01001017
:10017000CD010010CD010010CD010010CD01001007
:10018000CD010010CD010010CD010010CD010010F7
:10019000CD010010CD010010CD010010CD010010E7
:1001A000CD010010CD010010CD010010CD010010D7
:1001B000CD010010CD010010CD010010CD010010C7
:1001C00000BE00BE00BE00BE00BE00BE00F04BF888
:1001D000103800BEF2EB8871241502104C15021085
:1001E0003402001090A31AE700202149086006C8D5
:1001F00081F3088810471F48006800282FD10DA4FC
:100200000ECC002902D000F012F8F9E71A491B4A77
:10021000002000E001C19142FCD1194988471949E9
:1002200088471949884700BEFDE701C901C29A42C3
:10023000FBD370474C150210C0000020E01E0120C7
:100240006C33031000000420000004206C33031002
:1002500000100420001004200000000070470B482C
:1002600014F028F80047EFF30580C0B27047000093
:1002700008ED00E0000000D0E01E012058880220B8
:10028000E9250110AD0B00100D2701105756000095
:1002900006005250ABB360531007021006005250D4
:1002A000861C030220070210060052505422A29D11
:1002B0003007021005005250DE65F4686C330310FD
:1002C000F8B5C0460448054B10B5834203D0044B33
:1002D000002B00D0984710BDE01E0120E01E012039
:1002E0000000000006480749091A8B10C90FC918F9
:1002F00010B5491003D0044B002B00D0984710BD17
:10030000E01E0120E01E01200000000010B5074C97
:100310002378002B09D1FFF7D5FF054B002B02D026
:10032000044800E000BF0123237010BD002001201D
:100330000000000070E30110054B10B5002B03D046
:100340000449054800E000BFFFF7CCFF10BDC046E0
:10035000000000000420012070E30110F8B505231F
:100360004746CE469846043B80B500269946184C31
:10037000184D194F0DE0032B07D110F0A5FB3B687A
:10038000002B02D004233E60237010F01DFD0EF000
:10039000CDFF00F0B3FF0FF03DFA10F071F92378B4
:1003A000042B0FD006D8012BE5D110F06DFB0323F1
:1003B0002370EAE7052BE8D12B68002BE5D04B46EC
:1003C0002370E2E710F0FCFB43462E602370DCE76D
:1003D0004004002044250120502A0120CE49CF4B63
:1003E0000A8882B09A4200D18AE1104383B20B801E
:1003F000D02280211206090291618021C9049161F5
:10040000010400D5C4E08021C9019161D02280217E
:100410001206C90451619161590400D5C4E08021DC
:10042000C9019161D02280211206C90451619161F4
:10043000990400D5C4E08021C9019161D0228021B6
:100440001206C90451619161D90400D5C4E080212C
:10045000C9019161D02280211206C90451619161C4
:10046000190500D5C4E08021C9019161D022802105
:100470001206C90451619161590500D5C4E080217B
:10048000C9019161D02280211206C9045161916194
:10049000990500D5C4E08021C9019161D022802155
:1004A0001206C90451619161D90500D5C4E08021CB
:1004B000C9019161D02280211206C9045161916164
:1004C000190600D5C4E08021C9019161D0228021A4
:1004D0001206C90451619161590600D5C4E080211A
:1004E000C9019161D02280211206C9045161916134
:1004F000990600D5C4E08021C9019161D0228021F4
:100500001206C90451619161D90600D5C4E0802169
:10051000C9019161D02280211206C9045161916103
:10052000190700D5C4E08021C9019161D022802142
:100530001206C90451619161590700D5C4E08021B8
:10054000C9019161D02280211206C90451619161D3
:10055000990700D5C4E08021C9019161D022802192
:100560001206C90451619161D90700D4C4E0802109
:10057000C9015161D02280211206C9045161802134
:1005800009025161654A934200D1BFE002B0704751
:100590008021C9015161D02280211206C904516114
:1005A0009161590400D43AE78021C9015161D022F8
:1005B00080211206C90451619161990400D43AE77F
:1005C0008021C9015161D02280211206C9045161E4
:1005D0009161D90400D43AE78021C9015161D02248
:1005E00080211206C90451619161190500D43AE7CE
:1005F0008021C9015161D02280211206C9045161B4
:100600009161590500D43AE78021C9015161D02296
:1006100080211206C90451619161990500D43AE71D
:100620008021C9015161D02280211206C904516183
:100630009161D90500D43AE78021C9015161D022E6
:1006400080211206C90451619161190600D43AE76C
:100650008021C9015161D02280211206C904516153
:100660009161590600D43AE78021C9015161D02235
:1006700080211206C90451619161990600D43AE7BC
:100680008021C9015161D02280211206C904516123
:100690009161D90600D43AE78021C9015161D02285
:1006A00080211206C90451619161190700D43AE70B
:1006B0008021C9015161D02280211206C9045161F3
:1006C0009161590700D43AE78021C9015161D022D4
:1006D00080211206C90451619161990700D43AE75B
:1006E0008021C9015161D02280211206C9045161C3
:1006F0009161D90700D53AE78021C901916139E7B5
:1007000000230093009B002BFCD16EE60023019395
:10071000019B002BFCD139E7962B0120092000001A
:10072000CE4B82B0984200D18CE1CD4A13888343EE
:1007300013808020D022000212069061802019B21E
:10074000C0049061002900DAC4E08021C9019161F0
:10075000D02280211206C90451619161590400D54B
:10076000C4E08021C9019161D02280211206C90410
:1007700051619161990400D5C4E08021C901916162
:10078000D02280211206C90451619161D90400D59B
:10079000C4E08021C9019161D02280211206C904E0
:1007A00051619161190500D5C4E08021C9019161B1
:1007B000D02280211206C90451619161590500D5EA
:1007C000C4E08021C9019161D02280211206C904B0
:1007D00051619161990500D5C4E08021C901916101
:1007E000D02280211206C90451619161D90500D53A
:1007F000C4E08021C9019161D02280211206C90480
:1008000051619161190600D5C4E08021C90191614F
:10081000D02280211206C90451619161590600D588
:10082000C4E08021C9019161D02280211206C9044F
:1008300051619161990600D5C4E08021C90191619F
:10084000D02280211206C90451619161D90600D5D8
:10085000C4E08021C9019161D02280211206C9041F
:1008600051619161190700D5C4E08021C9019161EE
:10087000D02280211206C90451619161590700D527
:10088000C4E08021C9019161D02280211206C904EF
:1008900051619161990700D5C4E08021C90191613E
:1008A000D02280211206C90451619161D90700D478
:1008B000C4E08021C9015161D02280211206C904FF
:1008C0005161802109025161644A934200D1BFE025
:1008D00002B070478021C9015161D02280211206E7
:1008E000C90451619161590400D43AE78021C901DA
:1008F0005161D02280211206C9045161916199048D
:1009000000D43AE78021C9015161D022802112062A
:10091000C90451619161D90400D43AE78021C90129
:100920005161D02280211206C904516191611905DB
:1009300000D43AE78021C9015161D02280211206FA
:10094000C90451619161590500D43AE78021C90178
:100950005161D02280211206C9045161916199052B
:1009600000D43AE78021C9015161D02280211206CA
:10097000C90451619161D90500D43AE78021C901C8
:100980005161D02280211206C9045161916119067A
:1009900000D43AE78021C9015161D022802112069A
:1009A000C90451619161590600D43AE78021C90117
:1009B0005161D02280211206C904516191619906CA
:1009C00000D43AE78021C9015161D022802112066A
:1009D000C90451619161D90600D43AE78021C90167
:1009E0005161D02280211206C90451619161190719
:1009F00000D43AE78021C9015161D022802112063A
:100A0000C90451619161590700D43AE78021C901B5
:100A10005161D02280211206C90451619161990768
:100A200000D43AE78021C9015161D0228021120609
:100A3000C90451619161D90700D53AE78021C90104
:100A4000916139E700230093009B002BFCD16CE6F9
:100A500000230193019B002BFCD139E70920000002
:100A6000962B012001210A00D02382401B069A61A7
:100A70009A615A61802252039A615A6158689A6158
:100A80005A615B68400D08405B0D4000194202D07E
:100A900001231843C0B2D02380221B0652039A615F
:100AA0005A615B6840009B0202D501231843C0B223
:100AB000D02380221B0652039A615A615B68400072
:100AC000C0B29B0202D501231843C0B2D0238022BA
:100AD0001B0652039A615A615B684000C0B29B02D8
:100AE00002D501231843C0B2D02380221B06520333
:100AF0009A615A615B684000C0B29B0202D5012333
:100B00001843C0B2D02380221B0652039A615A6157
:100B10005B684000C0B29B0202D501231843C0B2FB
:100B2000D02380221B0652039A615A615B68400001
:100B3000C0B29B0202D501231843C0B27047C04621
:100B4000F0B50124230083409C46D02360461B0659
:100B50009861002A10DD8025501E8026ED04844017
:100B60002F000020F6019F6121420AD001305E6112
:100B700049005D618242F6D1D02362461B065A616C
:100B8000F0BD01309E6149005D618242EBD1F3E727
:100B900010B50FF0A5FE00F0B1FB0EF03BFE0FF01C
:100BA0006FFD0EF0C3FB10F00FF910BD10B51B2048
:100BB00010F062F9D024802324061B0563620D2007
:100BC000636110F059F90E2010F056F90F2010F063
:100BD00053F9162010F050F9152010F04DF91A2095
:100BE00010F04AF9132010F047F9142010F044F9DE
:100BF000122010F041F9002010F03EF9012010F011
:100C00003BF9022010F038F9032010F035F90420E8
:100C100010F032F9052010F02FF9062010F02CF911
:100C2000072010F029F901220021002010F00CF912
:100C300001220021012010F007F9012200210220E9
:100C400010F002F901220021032010F0FDF801222A
:100C50000021042010F0F8F801220021052010F0F6
:100C6000F3F801220021062010F0EEF80122002105
:100C7000072010F0E9F80A2010F0FEF80B2010F021
:100C8000FBF80C2010F0F8F8112010F0F5F8102007
:100C900010F0F2F800220121102010F0D5F8012107
:100CA0000022112010F0D0F880238022DB01920175
:100CB0006362A262636280231B0263628023DB03A0
:100CC000636280239B03A3628023DB04636280232F
:100CD0001B03636280228023D2025B036362626231
:100CE0008022D2006262802212016262802252015E
:100CF000626201206361FFF771FB0A2010F0DCFFE4
:100D000000F054F800F034F914F09EFD01F0D6FB29
:100D10000DF07AFC0E4817F097FBA0240FF094FC1E
:100D200001F01EFC013C0FF0DBFD002CFAD1094B59
:100D30001B68002B05D00122074B1A601A68002A95
:100D4000FCD1064814F074FD01F02CFCFCE7C04611
:100D50005D030010E82501204425012070E3011007
:100D600000B583B06A4680231371793B034050205D
:100D70004042184350710221782001AA0FF0C2F8B6
:100D800003B000BD10B5102482B0030901AA2343AB
:100D900053700F238021184011709170D0707C39EE
:100DA00078200FF0AFF802B010BDC046F0B5802635
:100DB0006C4C6D4B21881D68314385B0280089B289
:100DC00008222180FA27FFF7BBFE7F212388FF003E
:100DD00019402800082221800397FFF7B1FE2188DF
:100DE0000822314389B2280021800297FFF7A8FE2C
:100DF00001970EF05DFE78200EF0CEFE80200EF002
:100E0000CBFEAE200EF0C8FE80200EF0C5FED52031
:100E10000EF0C2FE80200EF0BFFEA0200EF0BCFE41
:100E200080200EF0B9FEA8200EF0B6FE80200EF055
:100E3000B3FE1F200EF0B0FE80200EF0ADFED320DA
:100E40000EF0AAFE80200EF0A7FE00200EF0A4FEF9
:100E500080200EF0A1FEAD200EF09EFE80200EF050
:100E60009BFE8E200EF098FE80200EF095FED8207E
:100E70000EF092FE80200EF08FFE05200EF08CFE0C
:100E800080200EF089FEA1200EF086FE80200EF05C
:100E900083FEC8200EF080FE80200EF07DFEDA205A
:100EA0000EF07AFE80200EF077FE12200EF074FE17
:100EB00080200EF071FE91200EF06EFE80200EF06C
:100EC0006BFE3F200EF068FE80200EF065FE3F2096
:100ED0000EF062FE80200EF05FFE3F200EF05CFE02
:100EE00080200EF059FE3F200EF056FE80200EF0BE
:100EF00053FE81200EF050FE80200EF04DFE1B4B65
:100F000018780EF049FE80200EF046FED9200EF033
:100F100043FE80200EF040FED2200EF03DFE8020E9
:100F20000EF03AFEDB200EF037FE80200EF034FE8D
:100F300034200EF031FE80200EF02EFEA6200EF0A2
:100F40002BFE80200EF028FEA4200EF025FE80202F
:100F50000EF022FEAF200EF01FFE0EF0DDFD05B0FC
:100F6000F0BDC046982B012088E301104104002009
:100F70008023F0B54746CE469946D03B002598469B
:100F800080B5174F83B001AE4B46337043463200F5
:100F90002B430221782073700EF0B4FF320004213D
:100FA000782001970EF0AEFF0EF082FD78200EF053
:100FB000F3FD40200EF0F0FD8424013C0020E4B25B
:100FC0000EF0EAFD002CF8D10135EDB20EF0A4FDD3
:100FD000042DD9D103B00CBC90469946F0BDC04653
:100FE00080108000032370B5040015005B1AD8B28E
:100FF000FFF7B6FEA000201A40007F30C0B2FFF716
:10100000C1FE0EF055FD78200EF0C6FD40200EF01A
:10101000C3FDAA00521901240425154EB61822005A
:10102000735D1A405810204052000243981052003D
:1010300020401043DA102240400010431A114000B3
:10104000224002435811204052000243981152009E
:10105000204010434000DB1118430EF09DFD013D80
:10106000DDD200200EF098FD0EF056FD70BDC0469A
:101070004404002010B500F021F910BD70B5150032
:1010800012780E00002A09D004002D1A2000310029
:10109000013400F013F92A5D002AF7D170BDC04673
:1010A00070B584B001AD04000E002800084913F0AB
:1010B0009DF82A78002A08D02D1B20003100013429
:1010C00000F0FCF82A5D002AF7D104B070BDC046DC
:1010D00094E3011070B5002500242100202228008F
:1010E000013400F0EBF8042CF7D10135152DF3D1C4
:1010F0000023024A1360024A136070BD5425012088
:10110000582501200021054B054A19601368013359
:10111000032B01DC136070471160FCE754250120AC
:1011200058250120F8B54746CE4680B5144E154FD8
:101130000278804634683D68002A0BD0031B99462C
:101140002000290000F0BAF84B4601341A5D002A4D
:10115000F6D13468404618F05FFB2418142C04DCE8
:1011600034600CBC90469946F8BD00223B68326062
:101170000133032B01DD3A60F3E73B60F1E7C04642
:101180005425012058250120FA2010B50124064BD2
:1011900040001C6010F090FD044B1B689C40D02365
:1011A0001B069C6110BDC046102B012090E301106E
:1011B000344A10B51368040001331360B02382B0C1
:1011C0009B00984255D024D9C0239B00984232D02E
:1011D000403398421BD180212B4A2C4C1088238805
:1011E00001407F2001339BB223804340194389B2E1
:1011F00011800822264B1868FFF7A2FC022025491F
:1012000023884A7DDB120340824313434B7502B0AF
:1012100010BD013BFF3B98421AD040339842F6D1B3
:1012200080204000FFF7DAF82000FFF7D7F86420AD
:1012300010F042FDEBE700238021144C2380124B79
:101240001A8811407F2211431980773A104BD2E758
:101250000FF008FAFA2001240F4B40001C6010F038
:101260002BFD0E4B1B689C400193D0231B069C61F9
:10127000CDE780204000FFF753FA80208000FFF781
:101280004FFAC4E7202B0120982B01209A2B012034
:1012900088E3011090300120102B012090E3011011
:1012A0008023044A5B42517C0B4353740122024B5E
:1012B0001A70704790300120300E0020074B10B597
:1012C0001C684B005918CB00591A6418235C044958
:1012D000CA540122034B1A6010BDC0462C300120B5
:1012E00098310220C82501200122024B1954024BDB
:1012F0001A60704728300120C8250120F0B5DE466D
:1013000057464E464546E0B5052083B00EF0CAFB71
:101310005D4B5E491A68002A03D10A68002A00D191
:10132000A4E000225A4F1A603B680A60002B00DAE2
:10133000A2E0584B00249946574B9B46574B984682
:10134000574B9A460EE0574B2000196812F0E0FF09
:1013500003002A0008001900FFF744FE3B6801342F
:10136000A34239DB4B465A461B681B5DD55C42469F
:1013700012689342E7D153461B68002BE3D04A4BD7
:101380001B68002B07D0494B1B68002B06D001952A
:1013900080256D00D7E7454B1B6801938021AB008A
:1013A0005B1901950225424A4942D05C414E0843EF
:1013B0009055D3185878404E0843905598783F4E32
:1013C00008439055D8780136084390551B79FF356E
:1013D0000B433B495354B6E71421200012F098FF09
:1013E00014218246200012F093FF8946354B0026D7
:1013F0009846434631009A5D14200136FFF7F2FD0E
:10140000042EF6D16A1EFF3A2B00012A26D92E4A55
:10141000D35C682293431FD05346162058434B4653
:101420002A4EEDB235552A4C2018C5543D68594610
:101430002A00284813F04AFF00232B22A354163217
:10144000A35416326375A354735503B03CBC904645
:101450009946A246AB46F0BD2025DDE7019D1A4A1C
:101460002B00D35C68229343D6D1F5E70A4B084F93
:101470009B46164E164CD9E7002399469A46064BD2
:1014800000249B46B2E7C046C82501205025012014
:10149000900900202C300120983102201C2A0120C4
:1014A000282A0120940900204C250120242A01200B
:1014B00044040020050500000605000007050000A3
:1014C00009050000283001208D090210B42C0120EC
:1014D00030300120B02B0120F0B5C023D6464F4656
:1014E00046465B00C0B5984200D176E08223FF33C8
:1014F00098426DD10123684A1360684A1268002A35
:1015000012D0674D674A28681154674A1360674BC9
:101510001A68531E9A41022352421340013BC318DA
:10152000FF2B00DDFF232B60614B1B68002B4FD08E
:10153000072213005A4D0F112868B846C4172340DC
:101540001B18DB10640F9E00F31806193240121BA3
:101550000124A446944064B2E2439146554A67464A
:10156000D656B2464646374200D084E056464F46ED
:101570003E40D6545E1CB44696570F0700D576E021
:101580004F463E406746D6559E1CB44696574F0779
:1015900069D44F463E406746D655DE1CB446965742
:1015A0008F075CD44F463E406746D6550433D65627
:1015B000C90750D53443D4543C4B1B685A1E934141
:1015C0005A4202231340013BC018502840DC2860D7
:1015D0001CBC90469946A246F0BD4BB2002B2CDBBA
:1015E0000B00403B3F2B0CD9072915D8032946D8BF
:1015F00001294DD002390129EAD80022284B1A606E
:10160000E6E73F2300221940254B1960234B1A605F
:10161000274B01321A60DBE70B00083B072BD7D8BA
:10162000012325488A101A4002604A101A401940C6
:101630002248234B02601960CAE77F230122194028
:10164000174B1960154B1A600022194B1A60BFE73F
:1016500050232B60BCE749460E40D654ACE76746A2
:101660002643D655A2E767462643D65595E76746F3
:101670002643D65588E756462643D6547AE70123B3
:101680004A101A40194009480E4B026019609FE742
:10169000FFF720FDB1E7C04650250120342A012084
:1016A0001C2A012098310220C8250120202A01206F
:1016B000302A012044040020CC250120282A0120C2
:1016C000242A01202C2A0120022210B502490348B5
:1016D000FF3213F0FBFD10BD983102209030022044
:1016E000022210B5FF320449044813F0EFFD012235
:1016F000034B1A6010BDC046903002209831022082
:10170000C8250120002330B585B00393039B002B2F
:10171000FCD19621354A490013688B4207DAD2255D
:1017200033495C0065540133091948701360C043A4
:1017300083072DD0012318002E490A684C68904079
:10174000D022120690621800A040906218008C68A7
:10175000A04090621800CC68A040906218000C690C
:10176000A040906218004C69A040906218008C69FB
:10177000C969A0409062180088401F4990620968BA
:1017800080208B4001919361FEF7CAFF05B030BD08
:101790000124194BD0251B682D0601932300019AC3
:1017A000802093406B61FEF7BBFF2200114B19684C
:1017B0008A406A62220059688A406A6222009968F7
:1017C0008A406A622200D9688A406A6222001969E6
:1017D0008A406A62220059698A406A6222009969D5
:1017E000DB698A409C406A626C62CFE7642B01200F
:1017F000B82D0120F00D00208CE301109621F8B5E2
:10180000294A2A4B05001870136849008B4207DAF1
:101810001624274958004454013309184D701360A9
:10182000244C254E270020370AE001222A4235D0D9
:101830009A40D0231B065A6104346D08A74212D087
:101840002368632BF1D9643B042BF5D89B00F35834
:101850009F4680208001EB070AD5FEF7BFFD0434C8
:101860006D08A742ECD1F8BD80204001EB07F4D40D
:10187000FEF756FFE0E780200001EB07F8D5FEF702
:10188000ADFDECE70820EB07F2D4FEF7A7FDE6E795
:101890001020EB07ECD5FEF7A1FDE0E79A40D0233E
:1018A0001B069A61C8E7C046642B0120AC2B0120BF
:1018B000B82D0120100E00209CE30110002330B54C
:1018C00083B00193019B002BFCD196213E4A490035
:1018D00013688B4207DAD6253C495C006554013316
:1018E000091948701360002852D0394B1A68632ACE
:1018F00005D8012191400A00D02109064A625A68A0
:10190000632A05D8012191400A00D02109064A62C4
:101910009A68632A05D8012191400A00D02109065E
:101920004A62DA68632A05D8012191400A00D02171
:1019300009064A621A69632A05D8012191400A0002
:10194000D02109064A625A69632A05D801219140CB
:101950000A00D02109064A629A69632A05D8012142
:1019600091400A00D02109064A62DB69632B08D93D
:101970004020FEF7D5FE174B1878FFF73FFF03B066
:1019800030BD01229A401300D02212065362EFE7C5
:101990008025802440202D01FEF7C2FE640128002E
:1019A000FEF71CFD2000FEF719FD80208001FEF7E8
:1019B00015FD1020FEF712FDD02380221B06D20059
:1019C0009D619A619C61DAE7642B0120B82D0120AA
:1019D000100E0020AC2B012030B5040083B0172876
:1019E0000AD8022800D86FE0C31E9BB2142B61D81E
:1019F000B64A9B00D3589F46B0239B00984200D123
:101A000025E122D9E0239B00984200D157E12FD94C
:101A1000F0239B00984200D14BE1E822AC4B9200AE
:101A20000340934246D1984200D139E1F8239B000C
:101A300098423DD1A74A1368002B00D032E18023A1
:101A400000201B02136003B030BD013BFF3B9842F6
:101A500000D102E121D980239B00984218D0803325
:101A6000984231D10420FEF7B9FC9B4B185DEAE7A0
:101A7000403B98420CD02033984206D10023974A2D
:101A800000201360934A1360DDE7603B98421BD14E
:101A90002000FFF78DFB0020D5E70300813BFF3BD3
:101AA0009BB2012B10D88223FF33984200D0E6E08E
:101AB0000020C8E7230400D5B8E08023DB019C4266
:101AC00002D3864B1B68E418834B185DBBE7844B3D
:101AD0001878B8E7D022834B12065068196852680C
:101AE000C8405C680121E2400840C0014008114242
:101AF00001D080221043D022120652689968400813
:101B0000CA40D20703D5802252421043C0B2D0222D
:101B100012065268D9684008CA40D20703D580220D
:101B200052421043C0B2D0221206526819694008CE
:101B3000CA40D20703D5802252421043C0B2D022FD
:101B40001206526859694008CA40D20703D580225C
:101B500052421043C0B2D02212065268996940081E
:101B6000CA40D20703D5802252421043C0B2D022CD
:101B700012065268DB694008DA40D30703D5802398
:101B80005B421843C0B29621574A490013688B4202
:101B900000DB58E7E22555495C006554013309191B
:101BA000487013604FE7524B18784CE7514B188838
:101BB000000A48E74F4B187845E74F4A1378D9B2E7
:101BC000012B61D0022900D07EE7122800D07BE7EC
:101BD000032313707F22404B597C0A405A74185DCE
:101BE00031E7464B1868FEF73DFF7F2343407E20D8
:101BF000184002231843D0230222374C1B0660757D
:101C00005B685B0BDB0118433D4B90431B88DB1289
:101C10001A40104360750EF0E7FF607D13E7394B03
:101C20001888000A0FE7374B18780CE7C0231B020F
:101C30009C4205D9344B9C466444344B185D02E702
:101C4000314B9C46234B644418682418F5E7042064
:101C5000FEF766FD204B185DF5E60EF003FDFA2059
:101C600001242B4B40001C6010F026F8294B00206B
:101C70001B689C400193D0231B069C61E3E6264B26
:101C800018687F231840DEE6134B112800D0EDE6DC
:101C9000597C7F2900D8E9E602211170185DD2E64F
:101CA0000E4A13688021C9018C46634400201360EA
:101CB000C9E60122194B1A60074B185DC3E60022E2
:101CC000164B1A60044B185DBDE6C046B0E3011028
:101CD000BFFF0000002B012090300120E82A0120E6
:101CE000AC2B0120F00D0020642B0120B82D012029
:101CF000AD2B0120A02B0120300E002084E3011029
:101D00009A2B0120A22B01200080FFFF340E00201F
:101D1000102B012090E301101C2A0120EC09002067
:101D2000E02330B55B00040083B0984200D123E18A
:101D30000BD817281FD8022865D9C31E9BB2142BB5
:101D400057D8A64A9B00D3589F46D0239B00984261
:101D500041D039D9E8239B00984200D134E126D9FB
:101D6000F0239B00984213D101229D4B1A609D4B9A
:101D7000185D03B030BD0300813BFF3B9BB2012BDC
:101D800041D88223FF33984200D007E10020F0E7DA
:101D9000203398422DD1944A1368002B00D102E1E0
:101DA0008021C9018C46634400201360E1E7403B79
:101DB000984200D10BE12033984224D10022884B75
:101DC0001A60884B185DD4E7803B984200D1CDE083
:101DD0004033984204D12000FFF7EAF90020C8E719
:101DE000803B98420FD10420FEF7F8FA7D4B185D36
:101DF000BFE7230400D5A8E08023DB019C4202D387
:101E00007A4B1B68E418774B185DB2E7784B18687B
:101E1000FEF728FE7F2343407E201840D023714CDC
:101E20001B0660755B68734A5B0BDB01184302237A
:101E300012889843D2121340184360750EF0D4FEF6
:101E4000607D96E7D0226C4B120650681968526884
:101E5000C8405C680121E2400840C00140081142CE
:101E600001D080221043D02212065268996840089F
:101E7000CA40D20703D5802252421043C0B2D022BA
:101E800012065268D9684008CA40D20703D580229A
:101E900052421043C0B2D02212065268196940085B
:101EA000CA40D20703D5802252421043C0B2D0228A
:101EB0001206526859694008CA40D20703D58022E9
:101EC00052421043C0B2D0221206526899694008AB
:101ED000CA40D20703D5802252421043C0B2D0225A
:101EE00012065268DB694008DA40D30703D5802325
:101EF0005B421843C0B29621404A490013688B42A6
:101F000000DB36E7E2253E495C00655401330919E0
:101F1000487013602DE73B4B18782AE73A4B187846
:101F200027E73A4A1378D9B2012B41D0022900D0D1
:101F300069E7122800D066E7032313707F22294B3C
:101F4000597C0A405A74185D13E7C0231B029C4257
:101F500005D92F4B9C4664442E4B185D09E72C4B4A
:101F60009C46214B644418682418F5E70420FEF7CA
:101F7000D7FB1C4B185DFCE60EF074FBFA20012425
:101F8000254B40001C600FF097FE244B00201B687F
:101F90009C400193D0231B069C61EAE6204B186805
:101FA0007F231840E5E680231B0200201360E0E653
:101FB0000C4B112800D0DBE6597C7F2900D8D7E6EE
:101FC00002211170185DD4E6084A1368E8E6002380
:101FD000064A00201360044A1360CAE604E40110B4
:101FE000EC09002090300120002B0120E82A01207C
:101FF00084E301109A2B0120F00D0020642B0120B6
:10200000B82D0120AD2B0120AC2B0120300E00207B
:102010000080FFFF340E0020102B012090E3011000
:102020001C2A012003B230B5002B19DB8023DB0111
:1020300098420BD3194B1A491A680B189B5C1B0268
:1020400001308218885C181880B230BD1449154CD4
:102050000B5C421C1B02A042F4D1104A1268EFE74D
:10206000C0242402A04209D90F4A104994460B18F3
:1020700063441B781B020E4A8218E3E70A4A0D4BA1
:1020800094460A491D680B185B19094A63441B787A
:1020900082181B025219A042D4D1ECE7E82A012091
:1020A00090300120FF3F00000080FFFF340E002031
:1020B0000180FFFF002B0120C123F0B55B000D0064
:1020C000040083B098420CD2023B984200D3D1E086
:1020D000431E162B68D817285CD8934A8300D35820
:1020E0009F46C0239B00984232D021D9E0239B0019
:1020F000984200D10CE128D9F0239B00984200D1EE
:1021000000E1E8224023010092009943914241D12D
:10211000884200D1D4E0F8239B0098421AD1834A28
:102120001368002B00D0CDE080231B02136011E068
:10213000803B984200D1A0E0403398420CD104206B
:10214000FEF7EEFA7A4B1D5504E0403B984218D159
:10215000FFF72EF803B0F0BD013BFF3B984223D1BF
:102160000EF080FAFA200124724B40001C600FF040
:10217000A3FD714B1B689C400193D0231B069C61FF
:10218000E8E7203398420FD100236C4A1360674A76
:102190001360DFE703B2002BDCDB8023DB01984216
:1021A00002D3664B1C680419614B1D55D2E7080029
:1021B000FFF784FBCEE79621614A490013688B4202
:1021C00007DA12245F4958004454013309184D704E
:1021D000136001225C4B19682A426CD18A40D021DD
:1021E00009068A61012259688A40A90700D585E05D
:1021F000D02109068A61012299688A40690779D449
:10220000D02109068A610122D9688A4029076DD444
:10221000D02109068A61012219698A40E90661D440
:10222000D02109068A61012259698A40A90655D43C
:10223000D02109068A61012299698A40690649D438
:10224000D02109068A61DA6901239340D022ED0981
:102250001206002D3CD053617CE73C4B1970344B87
:102260001D5577E70800FFF74DFA73E70800FFF701
:10227000C5FA6FE7FFF730F96CE70420FEF7AEF818
:102280002B4B1D5566E7FA21314E89003768781CC3
:1022900012F03EF82F4B1B6899423FD0002231606C
:1022A00020212D4B1A602D4BDD55214B5A7C0A43C2
:1022B0005A741D554EE78A40D02109064A6191E7BC
:1022C0001E4A13688021C9018C466344136041E7AC
:1022D00093613FE7D02109064A61B4E7D02109069E
:1022E0004A61A8E7D02109064A619CE7D021090686
:1022F0004A6190E7D02109064A6184E7D0210906A6
:102300004A6178E70122164B1A60094B1D5521E7F7
:102310000022134B1A60064B1D551BE701220E4B82
:102320001A60034B1D5515E758E40110002B0120DE
:1023300090300120102B012090E30110E82A0120A9
:10234000642B0120B82D0120F00D0020AD2B0120C1
:10235000082501200C250120D42A0120703A0220F2
:10236000EC0900200B4B1A88824206D01A8A82425E
:102370000BD01A8C82420AD07047002201210648F5
:1023800012019B1801605960F6E70122F6E702226C
:10239000F4E7C04660090020F4290120F0B5C646E4
:1023A00000B582B00FF076FD3C4F0B00396802009B
:1023B000884600291CD010001900394C2568666831
:1023C000401BB141050000294BD0364922606360B3
:1023D00035480C88844252D00C8A844257D00C8CE9
:1023E000844258D0012149428C46E044414639603C
:1023F00014001D002D498C4608684968241A8D4137
:1024000000940195002D03D1294D009CAC4220D9A8
:102410000025274C00196941644620606160100066
:1024200019001F4C25686668401BB1410500002952
:1024300002D120498D4210D91A49226063600A886E
:10244000194B9A4219D00A8A9A4222D00A8C9A428F
:102450000BD002B004BC9046F0BD464601363E604B
:10246000F7E714498D42C3D9AFE70223012212488E
:102470001B01C91802604A60EBE70023F6E7002061
:1024800001240D4D000109182C604C60AAE70120C1
:10249000F6E70123EAE70220F2E7C046D02A01204E
:1024A000E81F012060090020FCFF0000F01F012050
:1024B00040420F00400D0300F42901201E4B10B5CF
:1024C0001A68002A25D0012A12D114221B4C1C4B59
:1024D00020001A600021230050301A78914200DA5F
:1024E000110001338342F8D1164B1960164B1C6062
:1024F000FEF7F0FD1548164B1649C25C164B12024A
:10250000C35C402013430B80F1230B72FEF708F9E4
:1025100010BD1021114C0A4B2000196023002030FF
:1025200019788A4200DA0A0001339842F8D1054B43
:102530001A60054B1C60DBE7E809002098090020C1
:1025400094090020900900202C300120340E002036
:10255000FE7F000014300120FF7F0000380E0120B4
:102560000A4B002219880A4B1B88994201D1094B5A
:102570001A780221084B1A755A7D8A435A7500222F
:10258000064B1A80064B01321A607047942B0120CB
:10259000922B0120340E0120903001209A2B012033
:1025A000182B0120F0B54E464546DE46574600231F
:1025B000E0B5B3B01193109301931B932893299323
:1025C00021930D931C932A932B932C9312932D9369
:1025D000199323931A9325931D9326931E93279360
:1025E0001F93229302932093CA4BCB4D9B46CB4B18
:1025F0002C889946CA4ECB4BCB4F984623B2002B22
:1026000000DABEE08023DB019C4201D302F0A6FF8A
:102610002300C64AD35CC64A13700022C5490A602B
:10262000C54A1460FF2B01D903F0BAFFC3499A00D1
:102630008A5897460134A4B2C14BC14A1B882C80EA
:102640000C339BB219001380BE4A0C391288914298
:1026500019DA934217D3BC4BBB491A784023134372
:102660000B7013070FD53288B84B9A4201D105F091
:1026700029FC328A9A4201D105F02DFC328C9A4213
:1026800001D105F0CCFCB24BB14A1B8801339BB29F
:102690001380002B0BD1AF4AAE491288013292B29F
:1026A0000A808021C9008A4201D102F067FFAA4B4B
:1026B0001A683B6801333B603968A84B99420ADDD0
:1026C00000233B60A64B1B6859424B41A4490B6059
:1026D0000123A4490B60002A3FD0B368002B04D02B
:1026E0002B7ADB0601D502F07CFFF368002B05D0C6
:1026F0005B461B68002B01D002F07FFF7368002B44
:1027000001D002F086FFB369002B04D02B7ADB06E0
:1027100001D502F06BFFF369002B05D05B461B6807
:10272000002B01D002F06DFF7369002B01D003F084
:10273000D4FAB36A002B02D02B7ADB060DD4F36AED
:10274000002B05D05B461B68002B01D002F05DFF1B
:10275000736A002B01D003F0C2FA4B461B68002BB2
:1027600001D002F0DCFE43467F4A1B68934201DD44
:1027700002F0CDFE42460133136023B2002B00DB92
:1027800040E7C0231B029C4201D802F0EDFE774BCC
:10279000E318774AD35C664A13703EE7E023621C75
:1027A00092B292465B009A4201D108F091FB01D9A6
:1027B00003F0AAFA172A01D903F093FA022A01D8E2
:1027C00007F08AFED31E9BB2142B03D869499B00E5
:1027D000CB589F4613B2002B01DB07F0B4FFC0219A
:1027E00009028A4201D808F0B8FB604960485118D4
:1027F000415C7F2901D808F0BEFBE0235B009A42D0
:1028000001D807F085FAD0239B009A420CD001D959
:1028100005F0A3FB803B9A4201D109F0BCFD403397
:102820009A4201D005F08EFB1000FEF7C1FC002398
:102830002A88013BFF3B01321BB292B23C49097826
:102840002039C9B20F2901D902F0D0FD4A488900C8
:1028500041588F46494B1B787F2B01D808F0DEFC8E
:10286000464B1B78E4E7464B1B6818000093FEF7C5
:10287000F9F87F2358407E232C4A03405375D02219
:10288000120652683F49520BD201134302220988B3
:102890009343C9120A401343244A53750EF0A4F916
:1028A0002A88224B013292B292465B7D5BB2002BAA
:1028B00001DB03F03EFAE0235B009A429DD10DF06C
:1028C000D1FEFA200124304B40001C600FF0F4F9D7
:1028D0002E4B1B689C400093D0231B069C61002359
:1028E000A6E72B4B1B78D9B2012B01D109F054FC80
:1028F0001300022901D109F08CFB0C49CB5CD5E710
:10290000114B1B787F2B01D808F0BBFB0E4B1B78BB
:102910008EE7C046EC09002014300120D42A0120A3
:1029200060090020602B0120482501209030012003
:1029300091310220943102209C320220B8E401102F
:10294000A22B0120A02B0120AD2B0120F4FF0000C1
:102950009C2B01209E2B0120F42901209F86010041
:102960004C25012050250120102700000080FFFF8A
:10297000340E0020B8E801100CE90110AC2B012046
:1029800084E301109A2B0120102B012090E3011009
:10299000300E0020D022D249120653680968D04870
:1029A000CB405268406800910121C2400B40DB01DE
:1029B0005B080090114201D080221343D022C84905
:1029C0001206526889685B08CA400091D20703D595
:1029D000802252421343DBB2D022C1491206526810
:1029E000C9685B08CA400091D20703D580225242D1
:1029F0001343DBB2D022BA491206526809695B0858
:102A0000CA400091D20703D5802252421343DBB261
:102A1000D022B3491206526849695B08CA40009146
:102A2000D20703D5802252421343DBB2D022AC49F5
:102A30001206526889695B08CA400091D20703D523
:102A4000802252421343DBB2D022A54912065268BB
:102A5000C9695B08CA400091D20701D408F056FB4F
:102A600080229621524213439E4ADBB212684900EB
:102A70008A4209DA9C48E224844651004454614465
:102A80004B70984901320A605BB2002B01DB08F001
:102A900045FBD02292491206536809689048CB4002
:102AA0005268406800910121C2400B40DB01CB40DD
:102AB00000900A4201D080221343D0228849120696
:102AC000526889685B08CA400091D20703D580220A
:102AD00052421343DBB2D022814912065268C968C0
:102AE0005B08CA400091D20703D5802252421343AB
:102AF000DBB2D0227A491206526809695B08CA40E3
:102B00000091D20703D5802252421343DBB2D02278
:102B100073491206526849695B08CA400091D2079E
:102B200003D5802252421343DBB2D0226C491206F5
:102B3000526889695B08CA400091D20703D5802298
:102B400052421343DBB2D022654912065268C9696A
:102B50005B08CA400091D20703D58022524213433A
:102B6000DBB296215F4A490012688A4200DB5FE6C9
:102B70005D48E22484465100445461444B705949F5
:102B800001320A6054E6BB2B01D107F0B9FE01D92E
:102B900003F0BBF99B2B01D107F0CFFE01D803F066
:102BA000D5F9AB2B0FD16B88601C80B29A46FFF72A
:102BB000B7F8504480B2FFF7B3F82B881090013378
:102BC0002B80AB1D04930499109C0A7860B2A31863
:102BD000DBB20B7051B2002901DA05F001FA2406CC
:102BE00004D45BB2002B01DA05F003FA02242B7A3D
:102BF000A343049C2B722478002C01D004F014FF12
:102C000004342343049C2B7224787F2C01D904F0D4
:102C100014FF0824A3432B72002901DA04F014FFE7
:102C2000002801DB04F01AFF049909787F2901D9F3
:102C300004F014FF01210B4308212B72114201D132
:102C400004F034FE109A114201D104F032FE202229
:102C50002C88134301342B72A4B2EDE4CE2B01D1A6
:102C600007F060FD01D903F0B9F9AE2B01D107F0EF
:102C700050FD01D903F084F98E2B01D107F08CFDB2
:102C80009E2B01D007F04CFB601C80B2FFF748F888
:102C900080B2FFF7C7F92B882B9001332B802B1DB7
:102CA000190016932B9B02220B802B7A180090435D
:102CB00028720988002901D004F002FF0423169A23
:102CC00003432B720021525E002A01DA04F002FF56
:102CD00008222C88934301342B72A4B2ACE4C04682
:102CE000F00D0020642B0120B82D0120C92B01D14B
:102CF00007F098FD01D903F0C8FBA92B01D107F01B
:102D000088FD01D903F0A5FB892B01D107F035FD22
:102D1000992B01D007F002FA601C80B2FFF700F88F
:102D200080B2FEF7FDFF2B88119001332B80AB1D85
:102D300018000593119C0123A446297A02780B40C0
:102D40006344D318DBB251B2037060B2002901DAD8
:102D500005F0EAF8240601D507F043F902242B7A9E
:102D6000A343059C2B722478002C01D004F0C8FFEB
:102D700004342343059C2B7224787F2C01D904F062
:102D8000C8FF0824A3432B72002901DA04F0C8FF0E
:102D9000002801DB04F0CEFF059909787F2901D9CD
:102DA00004F0C8FF01210B4308212B72114201D10D
:102DB00004F08DFD119A114201D104F08BFD202207
:102DC0002C88134301342B72A4B235E4C82B01D1F3
:102DD00007F00AFC01D903F04DFCA82B01D107F044
:102DE0007AFC01D903F01AF9882B01D107F03DFDD7
:102DF000982B01D007F01DF9601C80B2FEF790FF00
:102E000080B2FEF78DFF83B22A932B8801332B808B
:102E1000AB1D190015930B782A9A53400B702B7A2F
:102E200002221800904328720978002901D004F08A
:102E300036FE0423159A03432B7212787F2A01D998
:102E400004F036FE08222C88934301342B72A4B27E
:102E5000FFF7F2FBC62B01D107F0EAFB01D904F022
:102E600063F8A62B01D107F006FD01D904F06BF938
:102E7000862B01D107F0F3FC962B0CD1601C80B29D
:102E8000FEF74EFF80B2FEF74BFF2B882C900133EC
:102E90002B80AB1D179302222B7A93432B72179A28
:102EA0002C9B1370002B01D004F0A2FE04222B7A7D
:102EB0001343179A2B7212787F2A01D904F0A2FECD
:102EC00008222C88934301342B72A4B2FFF7B4FB81
:102ED000C52B01D107F0BBFB01D903F0ABF9A52B42
:102EE00001D107F00DFC01D903F02DF9852B01D19B
:102EF00007F0B8FC952B01D007F098F8601C80B261
:102F0000FEF70EFF80B2FEF70BFF83B229932B88EA
:102F100001332B80AB1D2E931A78299B1A4051B296
:102F20002B7A002A01D003F031F9023293430232A6
:102F3000134308222C88934301342B72A4B2FFF769
:102F40007BFBC42B01D107F0A3FB01D903F069FE81
:102F5000A42B01D107F0A7FC01D903F045FE842B77
:102F600001D107F02AFC942B01D007F0DCF9601C9A
:102F700080B2FEF7D5FE80B2FEF7D2FE83B2289370
:102F80002B8801332B80AB1D190014930B78289AE2
:102F900013400B702B7A0222180090432872097894
:102FA000002901D004F0F5FD0423149A03432B7289
:102FB00012787F2A01D904F0F5FD08222C8893436A
:102FC00001342B72A4B2FFF737FBC22B01D107F0FB
:102FD0004FFC01D903F089FFA22B01D107F01FFBA1
:102FE00001D903F066FF822B01D107F0B7FB922BCA
:102FF00001D007F09DFA601C80B2FEF791FE80B20E
:10300000FEF78EFE2B88199001332B80AB1D1C0020
:1030100006932278199B287AD11A01230340CB1AF0
:103020001998DBB252B2237041B2002A01DA04F0DF
:1030300060FF000601D506F0C7FF02202B7A83430C
:1030400006982B720078002801D004F003FE0430AB
:10305000034306982B7200787F2801D904F003FE01
:10306000082083432B72002A01DA04F003FE0029B2
:1030700001DA04F082FC069A12787F2A01D904F062
:103080007CFC01222C88934301342B72A4B2FFF7FD
:10309000D3FAC12B01D107F0DFFB01D904F035F8D9
:1030A000A12B01D107F06CFB01D904F013F8812B9F
:1030B00001D107F0C0FA912B01D007F0FAF9601C9A
:1030C00080B2FEF72DFE80B2FEF72AFE2B882190FB
:1030D00001332B80AB1D2F931A78219BD41A59B240
:1030E000E4B252B28A4661B2002A01DA04F00FFF5C
:1030F0001B0601D506F06FFF02202B7A8343002CBC
:1031000001D004F0BDFD043423430824A343002A66
:1031100001DA04F0C1FD5246002A01DA04F025FC70
:10312000002901DA04F021FC01222C8893430134A8
:103130002B72A4B2FFF780FAC02B01D107F0DDFAA1
:1031400001D902F0E1FFA02B01D107F0CDFA01D99E
:1031500002F081FF802B01D107F08EFA902B01D075
:1031600007F060F9601C80B2FEF7DAFD80B2FEF76E
:10317000D7FD2B88229001332B80AB1D19000793BC
:103180000A78131ADBB252B20B7041B2002A01DA8C
:1031900002F085FF000601D506F032FF02202B7AEF
:1031A000834307982B720078002801D002F08AFF31
:1031B0000430034307982B7200787F2801D902F06E
:1031C0008AFF082083432B72002A01DA02F08AFF6B
:1031D000002901DA02F090FF079A12787F2A01D9BC
:1031E00002F08AFF01222C88934301342B72A4B28F
:1031F000FFF722FACA2B01D107F0CBFA01D903F06D
:1032000026FFAA2B01D107F046FA01D903F02AFDC7
:103210008A2B01D107F0FAFA9A2B01D007F0FFF8B8
:10322000601C80B2FEF77CFD80B2FEF779FD83B2B0
:103230002D932B8801332B80AB1D190018930B782D
:103240002D9A13430B702B7A022218009043287298
:103250000978002901D004F08BFC0423189A034359
:103260002B7212787F2A01D904F08BFC08222C885B
:10327000934301342B72A4B2FFF7DEF9D72B01D1AF
:1032800007F090F901D903F0C4FEA72B01D107F094
:1032900080F9B72B01D003F0ABFE0134A0B2FEF7EA
:1032A0003FFD84B228882402023080B2FEF738FD48
:1032B000A4B20443A3B22393AB791A932B880233AD
:1032C0002B801A9C23982100FEF7F6FE22002B7A11
:1032D000002C01D004F0D0FD02329343023213439C
:1032E00008222C88934301342B72A4B2FFF7A4F96F
:1032F000EC2B01D106F0D7FF01D904F0A7F8CC2BB5
:1033000001D107F035F8DC2B14D10134A0B2FEF75F
:1033100007FD80B2FEF704FDA8712888013080B255
:10332000FEF7FEFC013080B2FEF7FAFC2B88E87154
:1033300001332B80EA882B7A51BA002A01D004F09D
:10334000AAF8023293430232134308222C88934393
:1033500001342B72A4B2FFF76FF9E32B01D106F011
:103360009EFE01D903F093FEC32B01D106F08EFE21
:10337000D32B01D005F005FC0134A0B2FEF7D0FC40
:1033800083B29A461800FEF7CBFC53460400581C43
:1033900080B2FEF7C5FC24022418A2B22C880134A6
:1033A000A4B2A979EB7909020B43D3189BB201931C
:1033B000EB8880215BBA180009020840194201D04D
:1033C00004F08CFC13B29C46130406D46B46042212
:1033D0009B5E002B01DA04F08EFC0222297A9143D5
:1033E0006346002801D104F0AAFB002B06DB6B46E4
:1033F00004229A5E002A01DA04F0A5FB0123019A57
:103400000B43002A01D004F0A6FB04321343082228
:1034100093432B72019B01345BBAEB80A4B2FFF79C
:103420000BF9AC2B01D107F07AF801D903F04CF875
:103430008C2B01D106F0C9FE9C2B01D006F053FB6A
:103440000134A0B2FEF76CFC83B29A461800FEF776
:1034500067FC53460400581C80B2FEF761FC24024E
:1034600020182C8880B20134A4B22C8069880A1AF2
:1034700093B209B20D93002901DA03F050F803B2B8
:103480009C46030401D506F0C8FD0222287A634653
:103490009043002901DA03F055F8002B01DA03F01C
:1034A0005CF86B4634229A5E002A01DA03F055F884
:1034B0000122030093430D9A002A01D003F054F82F
:1034C000043213430822013493432B72A4B2FFF752
:1034D000B3F8AD2B01D106F055FF01D902F065FF1D
:1034E0008D2B01D106F076FF9D2B01D006F069FFF0
:1034F0000134A0B2FEF714FC298884B20131A888F7
:1035000089B2431E2980C9B2AB80FEF7D5FDA888D9
:103510002988431E090AAB80FEF7CEFDFFF78CF821
:10352000672B01D106F082FF01D903F0C1FA472BC6
:1035300001D106F0C0FD572B01D006F0B9FDEB1DFF
:10354000E96813930122139B1B781A4201D103F0FF
:10355000DFFA2B7A1343DBB22B72002901D003F080
:10356000DEFA4023139A147864081470234201D1C0
:1035700003F0E1FA40331C431470EB68002B01D0D8
:1035800005F011FF04222B7A9343DA0701D503F0EB
:10359000E2FA0A222C88934301342B72A4B2FFF77B
:1035A0004BF8662B01D106F0BCFD01D903F0F0FE0B
:1035B000462B01D106F0DAFD562B01D006F0D3FDE3
:1035C000EB1DE8680C93012211002B7A19408A4602
:1035D0000C9909780A4201D104F0C7FB1343DBB20E
:1035E0002B72002801D004F0C6FB53460C9A1478C5
:1035F00064081470002B01D104F0A0FB80231C434D
:103600001470EB68002B01D005F0BEFA04222B7A6F
:1036100093430C9A2B7212787F2A01D904F0A1FBF4
:103620000822934309221A40082A01D104F066F9BE
:10363000012A01D104F062F902222C88934301345B
:103640002B72A4B2FEF7F8FF642B01D106F0D8FD6F
:1036500001D903F04AF9442B01D106F0F6FD542BB1
:1036600001D006F0EFFDEB1DE9680F9301220F9BDF
:103670001B781A4201D103F068F92B7A1343DBB2AD
:103680002B72002901D003F067F90F9B1A785408B8
:103690001C70EB68002B01D003F06AF92B7ADA0773
:1036A00001D404F06DFB022213430F9A2B7212789F
:1036B000002A01D004F00EFB0432134308222C88A8
:1036C000934301342B72A4B2FEF7B6FF632B01D1F2
:1036D00006F0C0FD01D903F0C2F8432B01D106F07A
:1036E000DDFD532B01D006F0D6FDEA1DEB680E92EE
:1036F000002B01D003F0DBF80E9B1C78E443E4B20E
:103700001C70EB68002B01D003F0DEF82A7A02234C
:10371000110099430B0001211800084328720E98EC
:103720000078002801D004F094FB052213430E9A80
:103730002B7212787F2A01D904F096FB08222C887C
:10374000934301342B72A4B2FEF776FF6F2B01D1A5
:1037500006F0B6FC01D903F019FD4F2B01D106F09C
:10376000D3FC5F2B01D006F0CCFCEA1DEB68309255
:10377000002B01D003F032FD309A13700B222B7A0C
:103780002C8893430422013413432B72A4B2FEF716
:1037900053FF6D2B01D106F0C9FD01D903F0E2FB07
:1037A0004D2B01D106F08BFE5D2B01D006F084FE7F
:1037B000EB1DE96824932B7A0322180090432872AA
:1037C000002901D003F000FC24990978002901D0D8
:1037D00004F0CCFF0423249A03432B7212787F2A2F
:1037E00001D904F0CCFF08222C88934301342B72BA
:1037F000A4B2FEF721FF6C2B01D106F070FE01D9B7
:1038000003F018FD4C2B01D106F061FE5C2B01D0BA
:1038100006F05AFEEA1DEB680A92002B01D003F075
:1038200031FD0A9B1C780134E4B21C70EB68002B5C
:1038300001D003F034FD02222B7A802C01D104F058
:1038400074FC93430A9A2B721278002A01D004F078
:10385000EFFA043213430A9A2B7212787F2A01D9A5
:1038600004F0EFFA08222C88934301342B72A4B29F
:10387000FEF7E2FE692B01D106F0FAFD01D903F053
:10388000C0F8492B01D106F059FE592B01D006F0A2
:1038900052FEEB1DE8680B93012211002B7A1940B0
:1038A0008A460B9909787F2901D904F016FB9343C6
:1038B0002B72002801D004F017FB53460B9A1478A2
:1038C0006400E4B21470002B01D104F09AFA0123D1
:1038D0001C431470EB68002B01D005F05DF8042246
:1038E0002B7A93430B9A2B7212787F2A01D904F01A
:1038F0009BFA0822934309221A40082A01D104F0B6
:1039000011F8012A01D104F00DF802222C8893430A
:1039100001342B72A4B2FEF78FFE682B01D106F0A2
:103920002AFC01D903F0CCFC482B01D106F048FC5D
:10393000582B01D006F041FCEB1DE9680893089B69
:103940001B787F2B01D903F0EAFC01222B7A9343E9
:103950002B72002901D003F0EAFC089B1C7864005C
:10396000E4B21C70EB68002B01D003F0EDFC0422E4
:103970002B7A002C01D004F0A1F91343089A2B7282
:1039800012787F2A01D904F0A1F908229343092271
:103990001A40082A01D103F0BDFF012A01D103F02A
:1039A000B9FF02222C88934301342B72A4B2FEF794
:1039B00043FE6A2B01D106F03FFB01D902F0A0FCC7
:1039C0004A2B01D106F05DFB5A2B01D006F056FBC5
:1039D000EB1DE9680993099B1B78802B01D102F04C
:1039E000BEFC02222B7A93432B72002901D002F0F5
:1039F000BEFC099B1C78013CE4B21C70EB68002BF8
:103A000001D002F0C1FC04222B7A002C01D003F07B
:103A1000FBFF1343099A2B7212787F2A01D903F016
:103A2000FBFF08222C88934301342B72A4B2FEF7CB
:103A300003FE602B01D106F04BFC01D902F0B4FB70
:103A4000402B01D106F067FC502B01D006F060FC42
:103A5000EA1DEB680392002B01D002F0CDFB039B23
:103A60001C786442E4B21C70EB68002B01D002F0B9
:103A7000D0FB02222B7A802C01D104F053FB93431C
:103A8000039A2B721278002A01D104F049F801221E
:103A90001343039A2B721278002A01D003F07CFFA3
:103AA00004321343039A2B7212787F2A01D903F050
:103AB0007CFF08222C88934301342B72A4B2FEF7BA
:103AC000BBFDA32B01D106F092FB01D902F076FFDA
:103AD000832B01D106F082FB932B01D006F006F870
:103AE0000134A0B2FEF71CF983B29A461800FEF723
:103AF00017F953460400581C80B2FEF711F924024E
:103B00002418A2B22C880134A4B2A979EB79090255
:103B10000B439B1A9BB20293EB8880215BBA18007F
:103B200009020840194201D004F059F913B29C4629
:103B3000130401D506F024FD0222297A914363463D
:103B4000002801D004F03CF9002B01DA04F043F91D
:103B50006B4608229B5E002B01DA04F03CF901223F
:103B60000B009343029A002A01D004F05EF804325D
:103B70001343082293432B72029B01345BBAEB8000
:103B8000A4B2FEF759FD372B01D106F07BF93C2B8F
:103B900001D106F065F9362B01D106F056F9013452
:103BA000A4B2FEF749FD332B01D106F098F9382B6A
:103BB00001D106F07EF9322B01D106F06EF9013405
:103BC000A4B2FEF739FDAF2B01D106F02EF9BF2BC1
:103BD00001D106F014F99F2B01D106F0A1F9269B23
:103BE0001E9C9A461800210AFEF766FA5346581C96
:103BF000E1B280B2FEF760FA2B7A002C01D003F01C
:103C0000D9FF022293430232134308222C889343A4
:103C100001342B72A4B2FEF70FFDEF2B01D106F099
:103C2000CBF9FF2B01D106F0B1F9DF2B01D106F062
:103C3000D9F8279B1F9C9A461800210AFEF73CFAE8
:103C40005346581CE1B280B2FEF736FA2B7A002CAC
:103C500001D004F024F902229343023213430822D4
:103C60002C88934301342B72A4B2FEF7E5FCED2BB4
:103C700001D106F073F9FD2B01D106F056F9DD2BC9
:103C800001D106F07EF9259B1D9C9A461800210A59
:103C9000FEF712FA5346581CE1B280B2FEF70CFA56
:103CA0002B7A002C01D003F09CFE022293430232B7
:103CB000134308222C88934301342B72A4B2FEF7DD
:103CC000BBFC092B01D105F063FD342B01D105F0BC
:103CD00058FD0134A4B2FEF7AFFC082B01D105F06A
:103CE0006BFA312B01D105F060FA0134A4B2FEF772
:103CF000A3FC622B01D105F0C7F8722B01D002F0B2
:103D0000ECF8A31C9BB29A46E0235B009A4501D1D4
:103D100008F068FB01D904F05EFB5346172B01D96C
:103D200005F034FA022B01D804F0D7FB033B9BB219
:103D3000142B03D8E94A9B00D3589F4653461B04D3
:103D400001D408F0DDF9C0231B029A4501D808F020
:103D500091FBE34B5344E34AD35C98B2FDF7E0FF99
:103D6000E0232A888246541CA4B25B009C4201D105
:103D700008F089FB01D904F07FFB172C01D904F06E
:103D80006DFB022C01D804F09FFBE31E9BB2142BA9
:103D900001D904F034FBD4499B00CB589F46612BDA
:103DA00001D104F0F6FF712B19D10234A0B2FDF756
:103DB000B7FF80B2FDF7B4FF04002888013080B25D
:103DC000FDF7AEFF04402888E4B2023080B21B94B5
:103DD000FDF7A6FF210080B2FEF76EF92C886A4637
:103DE0006C21521812782B7A52B2002A01DA03F0B1
:103DF000F4FE0A2293431B9A002A01D003F0F1FE3D
:103E00000422033413432B72A4B2FEF715FC6B2B70
:103E100001D105F060FE7B2B10D10234A0B2FDF77A
:103E20007FFF80B2FDF77CFF04002888013080B25C
:103E3000FDF776FF0440E3B22C8820936A46802188
:103E4000521812782B7A52B2002A01DA03F0E2FEFD
:103E50000A229343209A002A01D003F0DFFE0422B5
:103E6000033413432B72A4B2FEF7E6FB652B01D19A
:103E700005F011FE752B19D10234A0B2FDF750FFE9
:103E800080B2FDF74DFF04002888013080B2FDF7B5
:103E900047FF44402888E4B2023080B21C94FDF70A
:103EA0003FFF210080B2FEF707F92C886A46702197
:103EB000521812782B7A52B2002A01DA03F0F3FE7C
:103EC0000A2293431C9A002A01D003F0F0FE042238
:103ED000033413432B72A4B2FEF7AEFB6E2B01D159
:103EE00005F0CDFC7E2B01D105F062FC0134A4B2BB
:103EF000FEF7A2FB01222B7A013413432B72A4B2EA
:103F0000FEF79AFB01222B7A013493432B72A4B261
:103F1000FEF792FB6A88EB7901349B186B80A4B2A0
:103F2000FEF78AFBE023AA885B00501C80B20400E5
:103F3000A880984201D106F08FFF01D902F015FE4A
:103F4000172801D902F00DF8022800D8C2E0C31EDC
:103F50009BB2142B03D865499B00CB589F4603B2F4
:103F6000002B01DB06F04CFBC0231B02984201D85A
:103F700006F00AFF5A4B9C4660445A4B02321C5CC6
:103F8000E02390B2240282462C80A8805B009842F5
:103F900001D803F0B3FBD0239B00984261D8803B4B
:103FA000984201D106F049FF4033984201D002F017
:103FB0000EFEFDF7FDF82C88FEF73EFB4C4B1C78FF
:103FC0002402013080B28246A8800300813BFF3B7F
:103FD000012B01D902F002FE8223FF33984201D166
:103FE000FEF72AFB7F22434B1B68009313401C43C0
:103FF000FEF722FB404B1B6818000093FCF732FDD4
:104000007F2358407E233D4A03405375D022120639
:1040100052683B49520BD201134302220988934351
:10402000C9120A401343354A53750CF0DDFD334B7A
:10403000A8885C7D2402E023013080B282462C8077
:10404000A8805B00984201D106F0A6FF01D803F0DA
:1040500055FBD0239B009842ABD0D0239B009842C5
:104060009DD9E8239B00984201D109F004F801D8BA
:1040700002F0E3FEF0239B00984201D002F0BCFE68
:1040800001235A46136002F0A8FD1E4B1C7824023F
:10409000013080B28246A88003B2002B01DB02F01F
:1040A0009DFDC0231B02984201D806F088FF0C4BEF
:1040B0009C4660440B4B1B5C1C43FEF7BDFA124B45
:1040C0001B78DAB2012B01D108F0D8F8022A01D10D
:1040D00007F0AEFF094B1C5D2402ACE74CE9011070
:1040E0000080FFFF340E0020A0E90110F4E9011068
:1040F000AC2B01201C2A012084E301109030012008
:104100009A2B0120AD2B0120300E0020D023D14A64
:104110001B065C681268CF49D4405B68496800920E
:104120000122CB401440E401640800911A4201D0FE
:1041300080231C43D023C74A1B065B68926864082F
:10414000D3400092DB0703D580235B421C43E4B2DB
:10415000D023C04A1B065B68D2686408D340009233
:10416000DB0703D580235B421C43E4B2D023B94A6A
:104170001B065B6812696408D3400092DB0703D515
:1041800080235B421C43E4B2D023B24A1B065B6827
:1041900052696408D3400092DB0703D580235B4259
:1041A0001C43E4B2D023AB4A1B065B6892696408E7
:1041B000D3400092DB0703D580235B421C43E4B26B
:1041C000D023A44A1B065B68D2696408D3400092DE
:1041D000DB0703D580235B421C43E4B296229E4B4F
:1041E00052001B689A46934200DB50E75A00E223D4
:1041F0009A498C468B54534662445470964A013314
:104200001360240244E76B880134013BAB80A4B205
:10421000FEF712FAAB88013401336B80A4B2FEF7CB
:104220000BFAEA79AB7953435ABAEA801B0601D4F8
:1042300003F06EFC01222B7A013413432B72A4B2DB
:10424000FEF7FAF9E023AA885B00501C80B2040054
:10425000A880984201D106F0A1FD01D902F03EFAF2
:10426000172801D902F0E6F8022800D855E1C31E4C
:104270009BB2142B03D87A499B00CB589F4603B2BC
:10428000002B01DB06F010FAC0231B02984201D874
:1042900006F0F6FD734B9C466044734B02321B5C88
:1042A00090B22B72E0230400A8805B00984201D8F2
:1042B00003F050F9D0239B00984200D90EE1803BD7
:1042C000984201D106F097FD4033984201D002F0A8
:1042D000C3FBFCF76DFF0023A888EB71E0230130DE
:1042E00080B20400A8805B00984201D106F06FFD07
:1042F00000D84AE1D0239B0098420FD0D0239B00E6
:10430000984201D902F01AFA803B984201D106F096
:104310001FFE4033984201D002F0C1FCFCF748FF79
:104320000023A888AB71E023013080B20400A8808C
:104330005B00984201D106F06FFE00D85CE3D02309
:104340009B0098420FD0D0239B00984201D902F0E5
:104350009CFB803B984201D106F065FD40339842BA
:1043600001D002F084FBFCF723FF0022A888E023A1
:10437000013080B204006A80A8805B00984201D1BD
:1043800006F092FD00D899E3D0239B0098420FD00D
:10439000D0239B00984201D902F08BFC803B9842CD
:1043A00001D106F077FD4033984201D001F047FD7E
:1043B000FCF7FEFE6A88A888E023013080B2040082
:1043C0006A80A8805B00984201D106F002FE01D805
:1043D00000F02FFCD0239B0098420FD0D0239B00ED
:1043E000984201D901F048FD803B984201D106F086
:1043F0002EFD4033984201D001F030FD0024FCF73F
:10440000D7FEA888E023013080B282462C80A880A5
:104410005B00984201D106F0F3FC01D800F071FC7A
:10442000D0239B0098420FD0D0239B00984201D903
:1044300001F055FF803B984201D106F030FD40333A
:10444000984201D001F03CFFFCF7B2FE2C88FEF749
:10445000F3F8C046F00D0020642B0120B82D012098
:1044600048EA01100080FFFF340E0020E84B1B6873
:1044700018000093FCF7F6FA7F2358407E23E54AA4
:1044800003405375D02212065268E349520BD20101
:104490001343022209889343C9120A401343DD4A99
:1044A00053750CF0A1FBDB4BA8885B7D2B72E023DE
:1044B000013080B20400A8805B00984201D106F070
:1044C00033FD01D803F046F8D0239B00984200D179
:1044D000FFE6D0239B00984200D8F0E6E8239B003B
:1044E000984201D108F0B1FD01D802F015FCF0238B
:1044F0009B00984201D002F0EEFB01235A46136064
:1045000002F0B0FAC54B1B78DAB2012B01D107F0EB
:10451000D3FE022A01D107F0A1FDBE4B1B5DC5E70A
:10452000BF4B1B78013080B204002B720300813B2B
:10453000FF3B012B01D902F096FA8223FF33984208
:1045400001D007F092FE002302F080F8B54B1B78F3
:10455000013080B204002B7203B2002B01DB06F0A5
:1045600000F9B14B1B680093009AB04B9446C318F6
:104570006344AF4A0130D35C80B2EB71E0230400A6
:10458000A8805B00984200D9B8E6172801D902F04C
:1045900061F8022800D827E3C31E9BB2142B00D970
:1045A00011E2A44A9B00D3589F46D022A24912068A
:1045B00053680968A04CCB4052686468009101219F
:1045C000E2400B40DB015B080094114201D08022E5
:1045D0001343D02298491206526889685B08CA4082
:1045E0000091D20703D5802252421343DBB2D0227E
:1045F000914912065268C9685B08CA400091D20707
:1046000003D5802252421343DBB2D0228A491206DC
:10461000526809695B08CA400091D20703D580221D
:1046200052421343DBB2D0228349120652684969D1
:104630005B08CA400091D20703D58022524213433F
:10464000DBB2D0227C491206526889695B08CA40F5
:104650000091D20703D5802252421343DBB2D0220D
:10466000754912065268C9695B08CA400091D207B1
:1046700003D5802252421343DBB296216F4A490090
:10468000126892468A4200DB62E75100E2226C4CDB
:10469000A4466254524661444B70684901320A6034
:1046A00056E7A8880134431EE1B2AB80FDF704FD54
:1046B0002988A88801310912431EC9B2AB80FDF7D1
:1046C000FBFCA888A978431EAB80FDF7F5FCA88801
:1046D0006988431E090AAB80FDF7EEFCA888A9791A
:1046E000431EAB80FDF7E8FCA888E979431EAB8048
:1046F000FDF7E2FCA888297A431EAB80FDF7DCFCBD
:1047000010222B7A13432B72494A4E4BD05C4E4BEE
:104710000002D45C4D4B4D4A1B68241800930133B2
:104720001360A4B2FDF788FF0F20A9792B7A084007
:1047300084460A00980600D58A1D6046092800D9DB
:104740000632D80700D560329F2A01DC03F0CEF98B
:104750006032012018438446100601D409F0ADF9F7
:10476000082360460343042083435140090601D4D3
:1047700003F0B8F902210B4301342B72AA71A4B2E1
:10478000FDF75AFFA9796B88EA7909025BBA0A43F7
:1047900001346A80EB80A4B2FDF74EFF2B7A01341E
:1047A000AB71A4B2FDF748FF3F222B7AA97993435E
:1047B0000A40134301342B72A4B2FDF73DFFAB79DD
:1047C000EA791B021A4313B2002B01DA03F0F4FB5F
:1047D00001212B7A8B43520092B20421002A01D08E
:1047E00003F040F90B4308218B43092119400829A4
:1047F00001D103F08BF8012901D103F087F80221E0
:104800008B4352BA01342B72EA80A4B2FDF714FF35
:1048100084E30110903001209A2B0120300E0020FB
:10482000AC2B0120AD2B0120002B01200080FFFFCD
:10483000340E00209CEA0110F00D0020642B0120B2
:10484000B82D0120FA7F0000FB7F00009431022088
:10485000AB79EA791B0213435908D20701D403F05C
:10486000F4F903202A7A02430420002901D003F03E
:10487000E9F9024308205B0A824301342A72AB71D2
:10488000E971A4B2FDF7D8FEE979AB795A1AD2B230
:1048900094465AB263465BB249B20093002A01DAE9
:1048A00003F08FFB002901DA05F0B1FB02202B7A1F
:1048B00083436046002801D003F0DEF80430034350
:1048C00008208343002A01DA03F0E3F8002901DA23
:1048D00003F044F8009A002A01DA03F03FF80122BD
:1048E000013493432B72A4B2FDF7A6FEEA79A979AD
:1048F00053B2881AC0B249B2A8710093002901DAF4
:1049000003F07CFB002B01DA05F072FB43B29C46FE
:1049100002232A7A9A431300002801D003F04DF8AD
:10492000043003430820009A8343002901DA03F08E
:1049300052F8002A01DA03F028F86246002A01DA68
:1049400003F023F80122013493432B72A4B2FDF744
:1049500073FEEA792B7AAA71002A01D003F014FAC7
:1049600002329343023213430822013493432B72E1
:10497000A4B2FDF761FE10222B7A013413432B728F
:10498000A4B2FDF759FE10222B7A013493432B7207
:10499000A4B2FDF751FEAA792B7AEA71002A01D060
:1049A00003F000FA02329343023213430822013427
:1049B00093432B72A4B2FDF73FFED94B1B78013015
:1049C00080B20400EB7103B2002B01DB05F036FF6F
:1049D000D44B1B680093009AD34B9446C31863448E
:1049E000D24A0130D35C80B2AB71E0230400A880CE
:1049F0005B00984200D9A6E4172810D8022800D8F6
:104A0000DCE3C31E9BB2142B3ED8C94A9B00D3588B
:104A10009F46C84B1B78013080B20400AB71030085
:104A2000813BFF3B012B00D9C8E38223FF3398422F
:104A300001D007F06DFC002208E3BF4B1B68180093
:104A40000093FCF70FF87F2358407E23BB4A0340B6
:104A50005375D02212065268B949520BD201134342
:104A6000022209889343C9120A401343B34A53757B
:104A70000CF0BAF8B14BA8885B7D53E4A84B1B78C7
:104A8000013080B20400AB7103B2002B01DB05F0F2
:104A9000FBFEA44B1B680093009AA34B9446C318DB
:104AA0006344A24A0130D25CE02380B212020400C7
:104AB0006A80A8805B00984200D969E4172800D971
:104AC000C7E2022800D8DAE1C31E9BB2142B00D93A
:104AD00094E09C499B00CB589F46D0229A491206ED
:104AE00053680968984CCB40526864680091012172
:104AF000E2400B40DB015B080094114201D08022B0
:104B00001343D02290491206526889685B08CA4054
:104B10000091D20703D5802252421343DBB2D02248
:104B2000894912065268C9685B08CA400091D207D9
:104B300003D5802252421343DBB2D02282491206AF
:104B4000526809695B08CA400091D20703D58022E8
:104B500052421343DBB2D0227B49120652684969A4
:104B60005B08CA400091D20703D58022524213430A
:104B7000DBB2D02274491206526889695B08CA40C8
:104B80000091D20703D5802252421343DBB2D022D8
:104B90006D4912065268C9695B08CA400091D20784
:104BA00003D5802252421343DBB29621674A490063
:104BB000126892468A4200DB62E75100E222644CAE
:104BC000A4466254524661444B70604901320A6007
:104BD00056E7604B1B78DAB2012B01D107F0A3FB3B
:104BE000022A01D107F066FA544B1B5DFFF79AFBCE
:104BF0004B4B1A781202013080B2040003B2002B32
:104C000001DB05F0EFFD474B1B6800930099464B15
:104C10008C46C318634445490130CB5C80B21A43CB
:104C2000E02304006A80A8805B00984201D9FFF766
:104C3000D5FB172811D8022800D8FFE1C31E9BB26C
:104C4000142B43D8444A9B00D3589F46394B1B78BA
:104C50001A43013080B204006A800300813BFF3BAD
:104C6000012B00D9EAE18223FF33984201D007F0FB
:104C700044FB00240BE1304B1B6818000093FBF74A
:104C8000F1FE7F2358407E232C4A03405375D022E7
:104C9000120652682A49520BD20113430222098894
:104CA0009343C9120A401343244A53750BF09CFFE7
:104CB000224BA8885A7D6B881A43FFF77DFB184B5F
:104CC0001B781A43013080B204006A8003B2002BC3
:104CD00001DB05F0FAFD134B1B680093009A124BA1
:104CE0009446C3186344114A0130D45CE02380B277
:104CF000240282462C80A8805B00984201D9FFF7ED
:104D000093FB172800D9C6E0022800D8C1E2C31ED1
:104D10009BB2142B00D979E2104A9B00D3589F46CE
:104D2000AD2B0120002B01200080FFFF340E00205E
:104D3000F0EA0110AC2B012084E301109030012037
:104D40009A2B012044EB0110F00D0020642B012070
:104D5000B82D0120300E002098EB0110ECEB011073
:104D6000D024C6492406636809686468CB40009172
:104D700001218C460B40C149DB0149685B08CC40EE
:104D800000916146214201D07F310B43D021BB4CC1
:104D900009064968A4685B08E1400094C90703D587
:104DA000802149420B43DBB2D021B44C090649684B
:104DB000E4685B08E1400094C90703D580214942BB
:104DC0000B43DBB2D021AD4C0906496824695B086E
:104DD000E1400094C90703D5802149420B43DBB26F
:104DE000D021A64C0906496864695B08E14000943B
:104DF000C90703D5802149420B43DBB2D0219F4C28
:104E000009064968A4695B08E1400094C90703D515
:104E1000802149420B43DBB2D021984C09064968F6
:104E2000E4695B08E1409A460094CB0705D58021F0
:104E3000534649420B43DBB29A469624904964009C
:104E40000B680093A3420CDAE22300994C008D49D1
:104E50008C460B555346009964446370884B01316E
:104E6000196053461A432DE7874B1B78D9B2012BA3
:104E700001D107F0F3F9022901D107F014F9834BAE
:104E80001B5D1A43FFF798FA814B1C78240201300E
:104E900080B28246A8800300813BFF3B012B00D9F2
:104EA000F7E18223FF33984201D1FDF7C5FB7F2252
:104EB000784B1B68009313401C43FDF7BDFB764BFA
:104EC0001B6818000093FBF7CDFD7F2358407E231D
:104ED0006E4A03405375D022120652686F49520B36
:104EE000D2011343022209889343C9120A40134393
:104EF000664A53750BF078FE644BA8885C7D2402EB
:104F0000FFF780FA664B1C782402013080B282469B
:104F1000A88003B2002B00DBE9E2624B9C46624BA7
:104F200060441B689C46009360447AE1D023534A56
:104F30001B065C6812685149D4405B68496800925E
:104F40000122CB401440E401640800911A4201D0D0
:104F500080231C43D023494A1B065B68926864087F
:104F6000D3400092DB0703D580235B421C43E4B2AD
:104F7000D023424A1B065B68D2686408D340009283
:104F8000DB0703D580235B421C43E4B2D0233B4ABA
:104F90001B065B6812696408D3400092DB0703D5E7
:104FA00080235B421C43E4B2D023344A1B065B6877
:104FB00052696408D3400092DB0703D580235B422B
:104FC0001C43E4B2D0232D4A1B065B689269640837
:104FD000D3400092DB0703D580235B421C43E4B23D
:104FE000D023264A1B065B68D2696408D34000922E
:104FF000DB0703D580235B421C43E4B29622204B9F
:1050000052001B689A46934200DB7DE75A00E22378
:105010001C498C468B54534662445470184A0133E1
:105020001360240271E7184B1B78DAB2012B01D10F
:1050300007F00DF9022A01D107F009F8134B1C5DA6
:105040002402FFF7DFF9124B1A781202013080B206
:1050500004000300813BFF3B012B00D90FE78223B3
:10506000FF33984200D1F4E57F21C020094B400076
:105070001B6800930B401A43EBE5C046F00D00207F
:10508000642B0120B82D0120300E0020903001202B
:10509000AC2B01201C2A012084E301109A2B012053
:1050A000AD2B01200080FFFF002B0120D023E3491E
:1050B0001B065A680968E14CCA405B686468009145
:1050C0000121E3400A40D20152080094194201D064
:1050D00080231A43D023D9491B065B68896852088C
:1050E000CB400091DB0703D580235B421A43D2B249
:1050F000D023D2491B065B68C9685208CB40009197
:10510000DB0703D580235B421A43D2B2D023CB49BD
:105110001B065B6809695208CB400091DB0703D589
:1051200080235B421A43D2B2D023C4491B065B687A
:1051300049695208CB400091DB0703D580235B42CD
:105140001A43D2B2D023BD491B065B688969520855
:10515000CB400091DB0703D580235B421A43D2B2D8
:10516000D023B6491B065B68C9695208CB40009141
:10517000DB0703D580235B421A43D2B29621B04BA2
:1051800049001B689A468B4200DB33E55900E22355
:10519000AC4CA4466354534661444A70A849013359
:1051A0000B60120227E5A84B1B78DAB2012B01D164
:1051B00007F03FF8022A01D106F05FFFA34B1A5D0A
:1051C0001202FFF7D4F8A24B1B6818000093FBF7FC
:1051D00049FC7F2358407E239C4A03405375D022CC
:1051E000120652689B49520BD201134302220988CE
:1051F0009343C9120A401343944A53750BF0F4FCCD
:10520000924BA8885A7D1202FFF7B1F803B2002B27
:105210003FDAC0231B02984200D87EE68E4B9C46A4
:1052200060448E4B1B5C1C43FDF706FA8C4B1B78CD
:105230001C43FDF701FA864B1B6818000093FBF72F
:1052400011FC7F2358407E23804A03405375D022AF
:10525000120652687F49520BD20113430222098879
:105260009343C9120A401343784A53750BF0BCFCB0
:10527000764B5C7D2B881C43FDF7DEF9724B1B7867
:10528000DAB2012B01D106F0C5FF022A01D106F0E6
:10529000FBFE52466D4B9B5C1C43FDF7CDF9714BF9
:1052A0001B781C43FDF7C8F9D022644912065368E5
:1052B00009686248CB405268406800910121C240B1
:1052C0000B40DB015B080090114201D080221343A8
:1052D000D0225A491206526889685B08CA40009178
:1052E000D20703D5802252421343DBB2D022534966
:1052F00012065268C9685B08CA400091D20703D5FC
:10530000802252421343DBB2D0224C49120652682B
:1053100009695B08CA400091D20703D58022524236
:105320001343DBB2D02245491206526849695B0833
:10533000CA400091D20703D5802252421343DBB208
:10534000D0223E491206526889695B08CA40009122
:10535000D20703D5802252421343DBB2D022374911
:1053600012065268C9695B08CA400091D20703D58A
:10537000802252421343DBB29621314A490012681F
:1053800092468A4201DB06F041FE5100E2222D489E
:105390001C4384464254524661444B7028490132B2
:1053A0000A60FDF749F9297A480701D406F089FE19
:1053B000D218541CA4B2FDF73FF9297A480715D436
:1053C0000A200140814201D000290FD1D218541C7B
:1053D000A4B2FDF731F90A20297A0140022901D14E
:1053E00006F0A8FF082901D106F0A4FF013294B20B
:1053F000FDF722F90A20297A0140814201D00029D3
:10540000F4D1D218541CA4B2FDF716F9297A090771
:10541000ECD5D218541CA4B2FDF70EF9297A09076D
:10542000E4D4D218541CA4B2FDF706F9297A8907EE
:10543000DCD5D218541CA4B2FDF7FEF8F00D002004
:10544000642B0120B82D0120300E00209030012067
:1054500084E301109A2B01200080FFFF340E00200E
:10546000AC2B0120AD2B0120297A8907BED4D2189C
:10547000541CA4B2FDF7E0F8297A4907B6D5D21832
:10548000541CA4B2FDF7D8F8297A4907AED4D21833
:10549000541CA4B2FDF7D0F8297AC907A6D5D218B2
:1054A000541CA4B2FDF7C8F8297AC9079ED4D218B3
:1054B000541CA4B2FDF7C0F80521287A084295D003
:1054C000D218541CA4B2FDF7B7F80521287A084277
:1054D0008CD1D218541CA4B2FDF7AEF8D218541CCB
:1054E000A4B2FDF7A9F803B2002B00DA91E68023FD
:1054F000DB01984200D2CCE6D54B1B689A46824429
:1055000052460093D34B9B5C1C43FDF795F8002358
:1055100042461360FCF742FF2C88FDF76FF8FA2132
:10552000CD4B89001B68581C9A460EF0F1FECB4B00
:105530001B68009399424FD000224846C54BDB7C44
:1055400002605046C64A13542022C34B1960C14B17
:105550005B7C1343BF4A5374FDF705F9BC4B1B68D2
:105560000093E318FDF755F8BE4B1B680093009AB3
:10557000BD4B9446E3186344FDF70BF9BB4A138017
:105580003288BB4B9A4201D102F0B2F9328A9A4278
:1055900001D102F0B0F9328C9A4201D0FDF787F8C0
:1055A000022301221B01F3185A603B68B149013301
:1055B0003B600A60B04B3968994201DCFDF78DF819
:1055C00000233B60AD4B1B6859424B41AB490B601C
:1055D000AB4B1A60FDF781F801234A461360FDF7D3
:1055E000C2F8B369002B01D1FDF795F8B36A002B1F
:1055F00001D0FDF7B2F8FDF7A2F800237360FDF7C4
:1056000082F800237361FDF794F800237362FDF7BD
:10561000A4F80023002292465146964A1B010093AB
:10562000F31811605960A888E1B2431EAB80FCF703
:1056300043FDA8882988431E090AAB80FCF73CFD7E
:10564000A888A978431EAB80FCF736FDA888698836
:10565000431E090AAB80FCF72FFDA888A979431ED9
:10566000AB80FCF729FDA888E979431EAB80FCF7E5
:1056700023FDA888297A431EAB80FCF71DFD009B03
:10568000F05AE02304005B00984201D104F07FFB54
:1056900000D94BE2172800D97DE2022800D896E015
:1056A000C31E9BB2142B03D8764A9B00D3589F4647
:1056B00003B2002B01DB02F0CAFCC0231B0298429C
:1056C00001D804F05AFB684BC3186F4AD456421CE9
:1056D00023029A46C12392B214005B009A4200D37F
:1056E000A8E2002269480238142800D9A3E0D31E9A
:1056F0009BB2142B03D866499B00CB589F4613B22C
:10570000002B00DB97E0C0231B029A4201D804F073
:105710005BFB554BE3185C4AD35C52461A439246F6
:10572000534610229CB22B7A2C8013432B72FDF728
:1057300014F85246574B1B781A439246F0E7564BE3
:1057400015241B6818003193FBF78CF97F23584010
:105750007E23404A03405375D022120652684F49B7
:10576000520BD2011343022209889343C9120A4003
:105770001343384A53750BF037FA364B1C57230244
:105780009A46009BF05AC123441CA4B222005B003D
:105790009C4227D2023B9C42A5D38223FF339C42EA
:1057A000BED07F223E4B1B680093134052461A43E3
:1057B0009246B5E73B4B1B78DAB2012B01D105F0DD
:1057C00080FA022A03D1122801D106F004FD214BF0
:1057D0001C5723029A46C123441CA4B222005B003A
:1057E0009C42D7D3C0239B009C4200D14FE200D9FA
:1057F00020E2803B9C4201D104F0EFFA40339C420E
:1058000000D052E20420FAF78BFF14E00024214B71
:105810001C5723029A46013082B2140013B2002BA7
:1058200000DA70E78023DB019A4204D3084B1B683F
:105830009C4600936444074B1B5D52461A439246B4
:105840006EE70024184B1C5723029A46E3E7C04634
:10585000E82A012090300120082501200C25012094
:10586000703A0220002B01200080FFFF9E2B0120B8
:10587000FCFF0000F42901209F8601004C25012037
:105880005025012040EC0110340E0020FFFF0000E5
:1058900094EC0110AC2B012084E301109A2B012021
:1058A0001C2A0120300E0020AD2B0120D023D74A26
:1058B0001B065B681268D3400092DB0701D404F03A
:1058C0008AFE60212023D022D04C120652686468E0
:1058D000E2400094D20700D50B00D022CB4912063B
:1058E00052688968CA400091D20703D5802252428B
:1058F0001343DBB2D022C54912065268C9685B085F
:10590000CA40DBB20091D20701D580221343D022D6
:10591000BE491206526809695B08CA400091D20765
:1059200003D5802252421343DBB2D022B74912067C
:10593000526849695B08CA400091D20703D58022AA
:1059400052421343DBB2D022B04912065268896931
:105950005B08CA400091D20703D58022524213430C
:10596000DBB25C08D0231B065A68A84BDB69DA401F
:105970000093D30703D580235B421C43E4B2A44BBE
:105980001B689A4696235B009A4501DB04F027FECC
:105990005346E2229F495B008C46CA5452466344F8
:1059A0005C709B4B013224021A6023B29A4632E7A4
:1059B000994B1B6818000093FBF754F87F2358405D
:1059C0007E23964A03405375D022120652689449AA
:1059D000520BD2011343022209889343C9120A4091
:1059E00013438E4A53750BF0FFF852468B4B5B7D89
:1059F0001A43924694E652468A4B1B781A439246C3
:105A00008EE6D023814A1B065B681268D340009261
:105A1000DB0701D404F0DBFD60212023D0227B488A
:105A2000120652684068C2400090D20700D50B00B1
:105A3000D0227649120652688968CA400091D2077E
:105A400003D5802252421343DBB2D0226F491206A3
:105A50005268C9685B08CA40DBB20091D20701D521
:105A600080221343D02269491206526809695B08F3
:105A7000CA400091D20703D5802252421343DBB2C1
:105A8000D02262491206526849695B08CA400091F7
:105A9000D20703D5802252421343DBB2D0225B49A6
:105AA0001206526889695B08CA400091D20703D583
:105AB000802252421343DBB2D0225449120652686C
:105AC000C9695B08CA400091D20703D580225242BF
:105AD0001343DBB296214E4A490012688A4200DB2A
