:020000041000EA
:1000000000B5324B212058609868022188439860DF
:10001000D860186158612E4B002199600221596106
:100020000121F02299502B49196001219960352056
:1000300000F044F80222904214D00621196600F024
:1000400034F8196E01211966002018661A6600F04E
:100050002CF8196E196E196E052000F02FF8012189
:100060000842F9D1002199601B49196000215960AB
:100070001A491B48016001219960EB211966A021F2
:10008000196600F012F800219960164914480160C1
:100090000121996001BC002800D000471248134993
:1000A000086003C880F30888084703B5996A0420EC
:1000B0000142FBD001200142F8D103BD02B5186610
:1000C0001866FFF7F2FF186E186E02BD00000240BE
:1000D000000000180000070000035F00212200005C
:1000E000F4000018222000A00001001008ED00E03C
:1000F00000000000000000000000000074B24E7A12
:1001000000200420F7010010C3010010C5010010F9
:10011000C1010010C1010010C1010010C101001097
:10012000C1010010C1010010C1010010C701001081
:10013000C1010010C1010010C9010010CB01001065
:10014000CD010010CD010010CD010010CD01001037
:10015000CD010010CD010010CD010010CD01001027
:10016000CD010010CD010010CD010010CD01001017
:10017000CD010010CD010010CD010010CD01001007
:10018000CD010010CD010010CD010010CD010010F7
:10019000CD010010CD010010CD010010CD010010E7
:1001A000CD010010CD010010CD010010CD010010D7
:1001B000CD010010CD010010CD010010CD010010C7
:1001C00000BE00BE00BE00BE00BE00BE00F04BF888
:1001D000103800BEF2EB8871E84D0010184E001088
:1001E0003402001090A31AE700202149086006C8D5
:1001F00081F3088810471F48006800282FD10DA4FC
:100200000ECC002902D000F012F8F9E71A491B4A77
:10021000002000E001C19142FCD1194988471949E9
:1002200088471949884700BEFDE701C901C29A42C3
:10023000FBD37047184E0010C000002004050020BA
:100240005C52001000000420000004205C520010EA
:1002500000100420001004200000000070470B482C
:1002600001F0FCFD0047EFF30580C0B270470000CD
:1002700008ED00E0000000D0080500207412002006
:10028000551500105D030010511600105756000060
:1002900006005250ABB36053204B00100600525082
:1002A000861C0302304B0010060052505422A29DBF
:1002B000404B001005005250DE65F4685C5200109F
:1002C000F8B5C0460448054B10B5834203D0044B33
:1002D000002B00D0984710BD040500200405002025
:1002E0000000000006480749091A8B10C90FC918F9
:1002F00010B5491003D0044B002B00D0984710BD17
:1003000004050020040500200000000010B5074C83
:100310002378002B09D1FFF7D5FF054B002B02D026
:10032000044800E000BF0123237010BD1006002028
:1003300000000000584A0010054B10B5002B03D0F8
:100340000449054800E000BFFFF7CCFF10BDC046E0
:100350000000000014060020584A0010F8B580255F
:10036000D024AD042E0001F0BBFF192000F02AF8C4
:100370002406074F6562FA20A66100F0E7FC38000A
:10038000656101F071FFFA20800000F0DFFCF2E708
:10039000584A0010094A830094464022634410B52D
:1003A0001C68C0006240C0241440802252011343E4
:1003B0001C60034B9C466044416010BD04C001407A
:1003C000004001400123D0228340120693629361D2
:1003D000094A83009446402263441968C0004A4099
:1003E000C02111408022520113431960034B9C46E7
:1003F000052360444360704704C001400040014051
:10040000F8B5EFF3108772B60E4E3368002BFCD0B0
:10041000BFF35F8FCB08C4180725A446C45C012333
:100420000D40AB4018002040234208D162462343D0
:100430001370BFF35F8F306087F31088F8BD100032
:1004400001F008F92C0100D0F8B5CE4647468C469D
:1004500080B5EFF3108872B6214D2C68002CFCD0CB
:10046000BFF35F8F9A422CD8D4080721055D061987
:10047000012411408C402C421FD0072189460639A7
:1004800009E0D408055D06194C460F001440A7404A
:100490003C002F4211D001329342F2D2012040425F
:1004A000BFF35F8F00220E4B1A6088F3108800287C
:1004B0000FDB0CBC90469946F8BD2C4310003470FD
:1004C000EEE7BFF35F8F00232B6088F310880120D5
:1004D00040426346002BECD0089801F0BBF8C046C0
:1004E0002C0100D0024B18688007C00F7047C0462F
:1004F00000C006400021044B044ABFF35F8F02C3D3
:100500009342FAD17047C046000100D0800100D06C
:10051000044A1078431CDBB2172B00D91023137048
:100520007047C046F003002000B5054B83B00100C2
:10053000009318221F230348FFF786FF03B000BD76
:10054000A84A0010B40A0020F8B5040006200D00E7
:1005500001F0FCF9002845D02B4B2C49E3185A42F6
:1005600053418022D20394465B421340284A63449D
:100570001360284A136018008A689043FBD1224B0D
:100580008021E3185A425341234A5B004900062068
:10059000995201F0DBF92900C00001F08DFCC3097C
:1005A00021D140270122260080256262A362002318
:1005B0002C36AD0135432B60062001F0C7F9390018
:1005C000800001F079FC6023E26A53406E221A40F9
:1005D00080235B0133431A60104B236310232B608D
:1005E0000D3BA364F8BD0E4A934203D900230D4F7F
:1005F0000D4AD8E77F221040013040089F011A00C1
:100600003F180300CFE7C0460080FCBF00C0004099
:1006100000E0004000F00040AC0F002001030000AB
:10062000FEFF0000C0FF3F00FFFF000083680B4893
:1006300010B5844661446244090112019A185918A0
:1006400054684B6801209C4201D802D00020C0B2FF
:1006500010BD12680B689A42F9D8F7E7FFFFFF0F49
:100660000A4B1968EFF3108072B60A68002AFCD0B2
:10067000BFF35F8F1B68BFF35F8F00221A6080F3A8
:10068000108840BF002000217047C046740F002032
:10069000F8B557464E464546DE46E0B5434D8146E1
:1006A0008A466A68EFF3108872B61368002BFCD094
:1006B000BFF35F8F2E68B47B002C3ED06700336899
:1006C0003F19033FDA195378B373002B00D1F3734A
:1006D0000023937053701370A968354A8C464946BD
:1006E000A218120162441160514651603149D36031
:1006F00091603268D219937053701370737B9B466C
:10070000002B35D022001900B06873689847326812
:10071000002820D05B4658465B005B44D719033B5A
:10072000B870D118D35C002B00D07B705B460C7086
:1007300073735C451DD0002626E06B68BFF35F8FA6
:100740001C6088F31088012040423CBC90469946CA
:10075000A246AB46F8BD5B465B005B44033BD31847
:100760009C70D119D25D002A00D05A705B460B7084
:1007700074734A465346287D00F036FC061EDAD0D4
:100780002100286800F0A8FEEB686A681B19013B8D
:100790001B78BFF35F8F0021116088F31088002061
:1007A000002ED2D118022043CFE7C046F403002028
:1007B000FFFFFF0F61060010F8B5574645464E464D
:1007C000DE46E0B599460CAB19780DAB1B780500F9
:1007D00090469A460768002912D1BE7B002E45D06C
:1007E00074003B68A419033C1B195A783100BA7392
:1007F000002A00D1FA7300229A705A701A7003E02E
:100800000E004C006418033C2C4B00229C46AB6845
:1008100061449C464346090161440B604B464B6072
:100820000A9B8B600B9BCB603B681B199A705A70BC
:100830001A707B7B9B46002B2CD032005946B8683F
:100840007B6898473A68002817D05B4658465B009B
:100850005B441419033BA070D118D35C002B00D06B
:1008600063705B460E707B73B34514D030003CBCA4
:1008700090469946A246AB46F8BD5B465B005B449A
:10088000033BD3189E701119125D002A00D05A70D4
:100890005B460B707E7342464B46287D00F0A4FBFE
:1008A000041E06D05346002B03D13100286800F007
:1008B00013FE0E9B002BD9D01C70D7E7FFFFFF0F54
:1008C000F0B5DE464E46574645460023E0B58DB0AE
:1008D0000A936B4B8200D3580B90994600239B469A
:1008E0004B46079300F020FB079C06000F00626850
:1008F000EFF3108572B61368002BFCD0220007942A
:10090000BFF35F8F2468637B9946002B67D09268A2
:100910005C4B90464B441B01984443461A685B6805
:1009200010001900801BB94100295FDD0B9800F011
:100930005BFB00230026984600279A46079C6368C5
:10094000BFF35F8F5A461A6085F310885346002B19
:1009500008D10028C6D10DB03CBC90469946A246AD
:10096000AB46F0BD0A9B414618024B461843D047A0
:10097000089009916268EFF3108572B61368002B36
:10098000FCD00794BFF35F8F0899099A002A48DBCF
:10099000114303D0079B1B69002B5DD1079B1B688C
:1009A000DA7B002A07D051008A1819688C4649461C
:1009B0006244033A51704A46DA734B46079A013B48
:1009C000D168CA5C0132CA545B46079A1361536806
:1009D000BFF35F8F5A461A6085F3108882E70023C1
:1009E0000026984600279A460020A7E7002901D153
:1009F00000289BD10021200000F0D0FC43461E6857
:100A00005F689B68079A9A464346DB689846D368B6
:100A10004B44013B1B780A931B02034313610020E4
:100A20008CE72369002BB9D033003C005B1A94415A
:100A30001A002300A74219D89F421BD0594604919F
:100A4000012103914946029141460191514607987F
:100A50000091FFF7B1FEB7E700F066FA089A099B2C
:100A600006000F0092197B419942E5D901225242BA
:100A7000D317E3E79642E1D901225242D317DDE7CB
:100A80005C0F0020FFFFFF0F10B5124C6368002BB6
:100A900004D00A21104800F039FB10BD23000F4A92
:100AA0001021206800F098FB032000F031FA0320A9
:100AB00000F00CFB03200A4900F050FAFFF728FD74
:100AC000084B9C46032360442375074B80006060FD
:100AD000DC60DEE7F4030020740F00202D06001018
:100AE000C1080010400000345C0F0020004870472F
:100AF000F4030020F0B557464546DE464E46E0B5C5
:100B000085B0019310AB1B78002703930023804628
:100B10009A46009243465A68EFF3108972B61368FA
:100B2000002BFCD0BFF35F8F43461D68AC7B002CCD
:100B30004FD066002B683619033E9B195A78AA736A
:100B4000002A00D1EA7342469F705F701F7092685E
:100B5000524B94460099019AE3181B0163441960B3
:100B60005A600E9A9A600F9ADA602B689B199F70F0
:100B70005F701F706B7B9B46002B46D022001900D4
:100B8000A8686B6898472A68002831D05B465846A9
:100B90005B005B449619033BB070D118D35C002B0B
:100BA00000D073705B460C706B735C452ED043466F
:100BB000DB681B19013B187843465B68BFF35F8F06
:100BC0001F6089F310885346002B2ED1000220436A
:100BD00007E05B68BFF35F8F1C6089F3108801201A
:100BE000404205B03CBC90469946A246AB46F0BD9B
:100BF0005B465B005B44033BD3189C709119925D8C
:100C0000002A00D05A705B460B706C734346187D07
:100C1000009A019B00F0E8F982460028C7D04346BD
:100C20002100186800F058FCC1E7039B002B32D06C
:100C30000E9B00200F999847030004000D000B4302
:100C400029D000290DDA0098019902000B00121B2F
:100C5000AB41994215D81AD000920193039B9A4652
:100C600058E700F061F902000B00A4185D41200074
:100C7000290000900191AB4203D8EFD100998A423C
:100C8000ECD901235B42DC1700930194E6E700995D
:100C90009142E1D9F5E70020A3E7C046FFFFFF0F2F
:100CA000F0B504000D0006267642F717C646361941
:100CB0006F4100B58F4213D810D000F035F93200E3
:100CC0003B00121A8B41002B14DC002B37D029007B
:100CD000200000F033F904BC9046F0BD8642ECD908
:100CE0000026002700F020F932003B00121A8B4149
:100CF000002BEADD30003900FFF7CAFC0028E6DBF4
:100D000000239846BC460F4A0F4F7B6A9C4504D887
:100D1000B96A8E42DBD99C45D9D11168EFF31080B6
:100D200072B60B68002BFCD0BFF35F8F1368BFF364
:100D30005F8F4146196080F3108820BFE5E7002AE5
:100D4000C5D0D7E7740F00200040054070B50600FD
:100D500000F0EAF8FA2204000D0000233000002120
:100D6000920001F03BF9001969418D4205D802D08B
:100D7000FFF796FF70BD8442FAD901204042C117A7
:100D8000F6E7C046F8B5CE46474680B506000C00EB
:100D9000FFF77EFC00280CDC2D4B0020596A8C42AA
:100DA00003D89B6A0130B34245D30CBC90469946A8
:100DB000F8BD20BF274D6A68EFF3108772B613683D
:100DC000002BFCD0BFF35F8F2B68C1B29C465B7BCE
:100DD0008B4235D0FF2303405A0091466246126889
:100DE000994490464A464244033A9278002A1DD0DC
:100DF000EA68000A90464344013B1B78C0B2834234
:100E000021D06B68BFF35F8F00221A6087F31088D0
:100E10000F4A0020536A9C42C7D8926A0130B242FE
:100E2000C3D2E41A601E8441E0B2BEE72B69984247
:100E3000E7D12A61E5E7641A601E8441E0B2B4E7B5
:100E4000FF230340D4E7604600F046FBD9E7C046E5
:100E500000400540F4030020F0B5D6464F46464614
:100E6000C0B5EFF305833F22134018001038EFF3AD
:100E7000108C72B6204D2A68002AFCD0BFF35F8F19
:100E80000122110081401D4C884661631C491700F6
:100E90000E788A463100C1400F400A4215D01949E8
:100EA0008200646A51588C4219D3174BD25843467A
:100EB0009E4353461E70BFF35F8F00232B608CF35D
:100EC0001088002A06D0904704E0BFF35F8F2F60A0
:100ED0008CF310881CBC90469946A246F0BD0B4A84
:100EE0009B00904643441A681A60BFF35F8F00234B
:100EF0002B608CF31088EDE7280100D000400540FE
:100F0000AB0F0020800F0020A4090020D03F054037
:100F100010B50100024A0348FFF772FA10BDC0463F
:100F2000C44A0010A80F0020034B596A0A00986AAF
:100F3000596A8A42FAD1704700400540064A536A0E
:100F40009942FCD807D1044B02E05A6A914202D17F
:100F50009A6A8242F9D370470040054070B5040098
:100F60000D00EFF3108672B61A4A1368002BFCD0FE
:100F7000BFF35F8F002D1BD0200000F007FD164946
:100F800081420AD0200000F009FD0121200000F07C
:100F9000E3FC0123A340114A1360114BA400E55068
:100FA000BFF35F8F00220B4B1A6086F3108870BD71
:100FB0000B4BA200D5500122A2400A4920000B7819
:100FC00093430B70044900F013FD0021200000F052
:100FD000C3FCE5E7280100D0590E00103860054039
:100FE000A4090020AB0F0020F0B54F46D646464678
:100FF000C0B50700304C616A0D00A66A616AA9425B
:10100000FAD18B4208D805D001201CBC90469946E5
:10101000A246F0BDB242F7D9EFF3108972B6274865
:1010200001680029FCD0BFF35F8F01252449BD4032
:101030008C460978204C0E002E438846F1B28A4631
:10104000614650460870391D1E48890065630A5183
:10105000B9000B50216A0020294219D0616A0800AA
:10106000A66A616A8142FAD18B4219D801D1B24293
:1010700016D8C2451DD0104B1F201D625D63012391
:101080000740BB40104A1E381360634642461A7040
:10109000BFF35F8F0022094B1A6089F31088B4E711
:1010A0000020BFF35F8F0022044B1A6089F3108881
:1010B000ABE70120ECE7C04600400540280100D026
:1010C000AB0F0020800F002080E200E010B5EFF3AE
:1010D000108472B60A490B68002BFCD0BFF35F8FF7
:1010E00001238340074A0848136202789A4302703A
:1010F000BFF35F8F00230B6084F3108810BDC046E0
:10110000280100D000400540AB0F0020024B9C4658
:1011100061448900016070474000003410B504004C
:10112000FFF7F6F901002000FFF7F0FFFF23A3808F
:10113000BFF35F8F10BDC04610B50400FFF7E8F99C
:1011400001002000FFF7E2FF01235B42A380BFF311
:101150005F8F10BD10B504000120FFF7E5F9034BC8
:10116000C3189B002360BFF35F8F10BD40000034A5
:1011700070B505000E001400002924D0002A24D0E8
:1011800080686B689847296800280ED063001B1997
:101190007200033B9219CB18033A9E7088188A5C40
:1011A000002A14D1047030000EE073009B19620015
:1011B000033B1219CB18033A9C7088188A5C002AEA
:1011C00000D05A700670200070BD0800FCE75A700D
:1011D00004703000F8E7C04630B583600023CCB21D
:1011E00043730133047342608373C4730D0000685A
:1011F000012C06D9421C0133DBB2137003329C422E
:10120000F9D1FF2129404B00591800234018033819
:10121000437030BDF8B5CE46474606000C0080B599
:10122000002907D04D0003686D18033D5A195778FF
:10123000002F04D120000CBC90469946F8BD7900DF
:10124000C9190339884643445978894600215970A1
:10125000517073683A00210080689847336800280D
:1012600014D042469A18947059195B5D002B00D037
:1012700053700F70270049463000FFF7CBFF39004D
:1012800002003000FFF774FF0400D3E742464146F6
:101290005D19AF709A185B5C002B00D06B701470F6
:1012A000E9E7C046F0B557464546DE464E46E0B54E
:1012B0000D006B0001685B19DF1E0400C85D83B080
:1012C0000192CA1900284CD043001B18033BCB18CD
:1012D0005E78B446002E16D1019E002E3ED0E67BED
:1012E000002E04D073009B19CB18033B5D70E5738F
:1012F00000282FD10023537003B03CBC9046994680
:10130000A246AB46F0BD72006244033A89184A789F
:10131000904600224A7091465A7001003200200027
:10132000FFF726FF43468246002B07D05B0021686B
:101330004344033BCB185A78002A16D14246514603
:101340002000FFF715FF2168019BCA19002BC6D1A9
:101350000028CFD043001B18033BCB180021997005
:10136000C8E7019B002BBAD1C4E7500080180338AE
:10137000091848788346484648705870414620000E
:10138000FFF7F6FE594680462000FFF743FF41462F
:1013900002002000FFF7ECFE8046CFE7F0B54E4696
:1013A0004546DE465746E0B5467B040075000068BA
:1013B000AD19033D83B00191415D421900294ED022
:1013C0004B005B18033BC3185F78BC46002F18D155
:1013D000019D002D40D0E57B002D04D06B005B19F2
:1013E000C318033B5E70E673002931D1002330003F
:1013F0005370617303B03CBC90469946A246AB461D
:10140000F0BD7A006244033A801842789346002285
:10141000427091465A7020003A00FFF7A9FE5B46E1
:101420008046002B07D05B0021685B44033BCB1850
:101430005A78002A17D15A4641462000FFF798FEF5
:10144000019B010020684219002BC4D10029CDD096
:101450004B005B18033BC31800209870C6E7019B44
:10146000002BB8D1C2E7500080180338091848781B
:10147000824648464870587059462000FFF778FE6B
:1014800053468346002B07D05B0021685344033B3F
:10149000CB185A78002A06D1594652462000FFF749
:1014A00067FE8346C7E7500080180338091848468E
:1014B0004F784870587051462000FFF759FE3900A8
:1014C00081462000FFF7A6FE494602002000FFF7F4
:1014D0004FFE8246E0E7C04670B5040000292CD0DC
:1014E000437B8B422ED005684800401803382818EB
:1014F0008278002A21D053009B18033BEA5CEE1847
:101500008A4202D11BE0002A08D053009B18033BFB
:10151000EB185A788A42F6D142785A700023012299
:10152000837043702000FFF7BDFE617B0200200046
:10153000FFF71EFE6073012000E0002070BD4378BD
:101540003370EBE701221900FFF7ACFE6073012056
:10155000F4E7C0462F4B304A70B51A602F4A304B23
:1015600030491A6010008B689843FBD12E4C2F4BEA
:101570009C4209D2013B1D1BAD080135AD002D1960
:1015800008CC9847AC42FBD100F082F8284A244BA3
:101590001A60244A9368DB018033FBD14022254B3B
:1015A000254C9A675A671A67DA66244B9C4214D214
:1015B000013B1D1BED080135ED002D1904E0083439
:1015C000FFF7BAFDAC4208D063792000002BF6D1BA
:1015D0000834FFF7A3FDAC42F6D1194C194DA168B0
:1015E000C022280000F06AFDA560FEF783FF00F02E
:1015F00037FBFFF749FA144C144B9C4209D2013BCC
:101600001D1BAD080135AD002D1908CC9847A5422A
:10161000FBD170BD00E00040BFCDFBFEFE7F3C0073
:1016200000F0004000C00040EC040020FC0400205A
:10163000FFFFFF0100F00140E4040020EC04002063
:1016400000ED00E000000020FC0400200405002064
:1016500000BEFDE70FB400B5084883B000F004FEFB
:10166000049B002B07D005A91800019100F0D6FBC0
:10167000034800F0F9FD00BEFDE7C046E84A00104F
:10168000F84A001010B50148FFF7E4FFFC4A0010CB
:1016900030B50C2083B000F051FBFEF723FF00288B
:1016A0000ED0944B944A1A605A609A60DA601A61BC
:1016B0005A619A61DA611A62904A5A6203B030BD87
:1016C0008F4CA06700F08EFB01228E4B1A60636C7A
:1016D000012BFCD103228C4B1A60894A936B012B9E
:1016E000FCD102240121894A89480533009400F085
:1016F000D3FA0523874A01218748009400F0CCFAE9
:10170000864B5A68FF2A02D8802252005A608022F3
:10171000784C7D4B21691201804D1A60002905D05B
:10172000606900F0C9FB01300138FDD1E0217B4B3D
:1017300002201A681140802252012A431160196860
:10174000484003210140116004219A681142FCD0F5
:101750008022802192012A430901116080225200D7
:101760005A606F4B23616F4B5968FF2900D85A604C
:1017700003226C48634B01211A60020093681942EE
:10178000FCD0E02513681D4080235B0103431D60EE
:1017900012684A400321114019600221614A93688E
:1017A0001942FCD0802380219B0103430901196069
:1017B00080215D4B4900516063615C4B5A68FF2A90
:1017C00000D8596080225A4BE1691201574D1A60C6
:1017D000002905D0606900F06FFB01300138FDD1B0
:1017E000E02252490B681A4080235B012B431A60A8
:1017F000802380229B012B4312011A6080223E4BE2
:1018000052004A60E3614B4B5968FF2900D85A6087
:101810008022494B216A1201464D1A60002905D0E9
:10182000606900F049FB01300138FDD1E0224149F7
:101830000B681A4080235B012B431A6080238022AF
:101840009B012B4312011A60802380225B004B60B6
:10185000294BD2022362394B5968914200D25A6017
:101860008022374B616A1201344D1A60002905D07D
:10187000606900F021FB01300138FDD1E0222F49E1
:101880000B681A4080235B012B431A60802380225F
:101890009B012B4312011A608023DB024B60174B24
:1018A0006362284B5A68FF2A02D8802252005A608D
:1018B0008022254BA1691201224D1A60002905D012
:1018C000606900F0F9FA01300138FDD1E0221D49CC
:1018D0000B681A4080235B012B431A60802380220F
:1018E0009B012B4312011A6080235B004B600E4B5F
:1018F000A361E3E6B80A0020006CDC021BB700001D
:10190000008000403CB0004030B00040002F6859DB
:101910000080024000389C1C00C002403080004023
:10192000001BB7003C8000404059730754800040C2
:1019300054B000406080004060B000406C800040C7
:101940006CB000404880004048B00040014B80002F
:10195000C0587047B80A002001238340002904D0F2
:10196000034A1360034A13607047034A1360FBE79E
:1019700080E200E000E100E080E100E0012383403C
:10198000014A13607047C04600E200E0024B10308D
:101990009B688000C058704700ED00E070B50D00F6
:1019A000EFF3108672B60F4A1368002BFCD0BFF31A
:1019B0005F8F0D4B10309B6884001B590B4A93427C
:1019C00003D09D4201D0FFF75DFE074B9B681D5180
:1019D000BFF35F8FBFF35F8F0022024B1A6086F365
:1019E000108870BD240100D000ED00E0CD01001092
:1019F000F0B5DE4657464E464546E0B50C0083B08E
:101A0000EFF3108A72B65B4A1368002BFCD0BFF369
:101A10005F8F1022914681444A46574B96009B683F
:101A20009D59564B98469D4205D0A54216D0544F1D
:101A3000EB1B2F2B14D9504B9B689D51BFF35F8F2D
:101A4000BFF35F8F00224B4B1A608AF3108803B0FC
:101A50003CBC90469946A246AB46F0BD1D00EAE765
:101A6000012383409B465A46464B1B681A4000920E
:101A70005A46454B1A60BFF35F8FFEF7F4FB0190A7
:101A8000002803D0814501D0FFF7FCFD01232A0087
:101A90009A431300DB1B5B4142495943090D93688C
:101AA0009C4208D15BE043001B189B00FB18986820
:101AB000A04211D01A00062010560028F3DA009B2D
:101AC000002B05D05A46314B1A602E4B1A60B2E7F4
:101AD0005A462D4B1A60AEE706201856002822DB26
:101AE0004200111889007C188846A1689960E17944
:101AF000D971062161569971A1797F291FD8A488CF
:101B0000F91A6405241544440919E0240905490D0E
:101B100024022143998012181D4B9200BF181A7895
:101B20001870BA71CBE7019800280BD1FF30907183
:101B300018489080164A107811709871BFE7BD213F
:101B40000902E7E7144A1549D21A083A5002400D33
:101B500001439980124952080A43DA80AFE7062010
:101B6000105613000028BBDA019A002AEAD1454634
:101B7000E0E7C046240100D000ED00E0CD010010F8
:101B80001C04002000E100E080E100E080E200E0D1
:101B9000A90F002000BDFFFF5604002000F0FFFF4A
:101BA00000F8FFFFAAAA0000F8B5012504000543CC
:101BB000FEF759FB0200EFF3108672B621490B685D
:101BC000002BFCD0BFF35F8F1F492000401A40411B
:101BD000224B43431B0D1D48920087685BB2BF58E0
:101BE000AF421CD006228A569A421CD012228A5634
:101BF0009A4222D01E228A569A4220D02A228A56FF
:101C000003209A4210D0124A11781370A171BFF3C9
:101C10005F8F00220B4B1A6086F31088F8BD816835
:101C20000C488850EFE700204200121892008918F3
:101C3000FF228A71084A8A80E5E70120F4E7022042
:101C4000F2E7C046240100D01C04002000ED00E0B3
:101C5000A90F0020CD01001000BDFFFFAAAA0000BF
:101C6000F0B500220324FF27802620003D00094B09
:101C700011009C461040C0008540A14361440B68A0
:101C80000132AB43350085402B430B60202AECD159
:101C9000F0BDC04600E400E0F8B504000C201700D9
:101CA0001D000E0000F008F94101091A8B01591AB4
:101CB000C90009188901380000F0FEF8069A2B04C3
:101CC000120313432268002A21DB184AA21851424A
:101CD0004A41802149018C4652420A4014496244DB
:101CE0000A6014490A60144917008D68AF43FBD19C
:101CF000C021221D8901114321222660A0600A60B3
:101D00002268002AFCDAE36008230B60F8BD3F225A
:101D100021680A40B242D8D1A2681205120D82424F
:101D2000D3D1E268002BD0D1F0E7C0460040FDBF20
:101D300000E0004000F0004000C000408023024A64
:101D40009B000343D36270470080054010B5140028
:101D500080221A4BD2051A6000282CD00123184A81
:101D60001843184BDA61184A42401A625962986265
:101D70008022124BD2051A601449154A1160E022E4
:101D8000D2041A60002C12D080236201121B920030
:101D9000121912015B049A4200D30E4A0E4B1A60CC
:101DA000084B5A6080220D4BD2051A6010BD0C4AB8
:101DB000094B1A60F4E7034BD861D9E700B005403E
:101DC000D3C007B0008005402D3FF84FFCFF010055
:101DD00008200140FFFFFF00540F002000A0054035
:101DE000A0860100AA23064A1B0113602F23054980
:101DF000D360054B19605368002BFCDA7047C0466E
:101E00000040024000B0FA000060024010B5002817
:101E100000D110BD00F01AFAFBE7C04610B5094A20
:101E20000300146884B0002C08D0012200910648F9
:101E3000524203A9A047012004B010BD00F014FADB
:101E40000020F9E7500F00200D1E0010014804216A
:101E5000014B1847700400207D1E0010142310B59C
:101E60000100188804331B88984710BD162310B54D
:101E70000100188802331B88984710BDF0B5C6468C
:101E800000B5002916D01423040001259846182710
:101E9000890046184346216818883B88984701C442
:101EA000431E984140420540A642F3D1280004BC9D
:101EB0009046F0BD0125F9E7114A936F9B0813D2B4
:101EC00010665166002905D0FFE7FFE7FFE7516F75
:101ED000106F704704B5002801D00020C04302F005
:101EE0009BFD002104BDC046F0B5146E556E576FC2
:101EF000166FFFF7E5FF1466556657671667F0BD66
:101F0000000000D0132370B51D78012D10D00BDD1B
:101F10002448FFF7ABFF244C01008022200000F092
:101F2000CDF8022D01D070BD1F4C204AA264FAE703
:101F30002E001D4C1D4AA3085B421E401D422FD09F
:101F4000330022602020B1006118801B0A604A60C3
:101F50008A60CA600A614A618A61CA610A624A6229
:101F60008A62CA620A634A638A63CA630A644A6409
:101F70008A64CA640A654A658A65CA650A664A66E9
:101F80008A66CA660A674A674008102803D18A67CA
:101F9000CA67A264C7E71E339B00E250A264C2E78F
:101FA0000023CFE753440000B00F0020B11F001002
:101FB00007B5604601880A0A0230DF2AFAD1C9B2A1
:101FC000820804D3028840880004104300E00068BF
:101FD000014A5050039007BDB00F002051434343C6
:101FE000C9188C46110C83B24B4310B4040C6143E6
:101FF00092B280B2504362431C041B0C001910BC07
:1020000059411304120CC01851416144704700003B
:10201000132310B512481C78FFF728FF0100012C8C
:102020000AD003DD80220F4800F048F80E48FFF781
:1020300015FF0E4B186010BD0A4C5422200000F012
:102040003DF80B4B6365A365E36523666366A36692
:10205000E36623676367A367E3672362E361E5E7FA
:1020600053460000B01000204C330000B011002097
:102070007520001007B5604601880A0A0230DF2A81
:10208000FAD1C9B2820804D3028840880004104300
:1020900000E00068014A5050039007BDB0100020D6
:1020A00001480421014B1847800400207D1E0010C8
:1020B000014B1B681847000080040020014B5B683F
:1020C0001847000080040020F8B54746CE460D00B2
:1020D00080B516000700002A20DD4B1E98461A4BDB
:1020E000002400209946002C2BD043461B5D0D3B5D
:1020F0005A425341DBB22A5D0A2A13D00134A64268
:10210000F1DC864203DD311A3B6828189847AD1987
:10211000013D2B780D3B5A4253413B740CBC904619
:102120009946F8BD002BE9D1A04203DA211A3B6899
:1021300028189847484602213B68013498472000F8
:10214000DDE73B7CD7E7C046704B0010F0B5574643
:102150004546DE464E46D023E0B51B061C68374B8D
:1021600083B007000D00180001A990469A4602F0BE
:102170005BFC8146002808D1019B64B29C4204D0DC
:10218000504602F061FC012399466B1C03D13800D4
:1021900002F0FCFB05002A4B1C68002C2FD00A2300
:1021A000284E9B4602E0E468002C28D02268002AD2
:1021B000F9D03368002B01D0A342F4D1637C002B0B
:1021C0002AD02A0039002000FFF77EFF4346002B6B
:1021D000E9D06B465A461A71637C002B20D0237CD1
:1021E000002B26D00121236801A898476B461B7954
:1021F0000D3B5A4253412374E468002CD6D14B4620
:10220000002B12D1681E8541E8B203B03CBC904659
:102210009946A246AB46F0BD290038009047D5E765
:102220000121236801A89847BDE7504602F0ECFB66
:10223000E8E70221044823689847D7E7E404002030
:10224000480B00204C0B0020704B001010B582B0E2
:102250006B4604000022D81D01210470FFF776FFB1
:10226000200002B010BDC04670B5040002F08EFB25
:102270000122010005002000FFF768FF084B1C68E1
:10228000002C06D06368002B05D09847E468002C2A
:10229000F8D1280070BDE468002CF3D1F9E7C046FE
:1022A000480B00200D4A1368002B13D0834202D143
:1022B00009E0984208D01A00DB68002BF9D1002908
:1022C00000D0D06070471A000029FBD1DB68D360D2
:1022D000C160F7E70029F5D01060F3E7480B002054
:1022E00010B500F045F800F09BF910BDF0B50D1EDB
:1022F00015DD0E4B0D271A680D4B4519D3185942A1
:102300004B410C495B005E5E20210478A64207D059
:1023100093691942FCD101301460A842F5D1F0BD97
:1023200093691942FCD11760F2E7C046900F002074
:102330000080FCBFAC0F002030B50500002912DD85
:1023400000201024094B013D1A6893691C4208D1F2
:10235000013093691C42FCD113682B548142F4D1A3
:1023600030BD0028FCD103204042F9E7900F002047
:10237000E12110B50B4B0C481B780C4B49021B7824
:102380000B4B1860FEF7E0F802210020FEF702F880
:1023900002210120FDF7FEFF01210648FFF782FF21
:1023A00010BDC0460C4E001000400340104E0010FF
:1023B000900F0020900400207047C0460022014B7F
:1023C0001A707047AA0F00204B790020FF2B0BD109
:1023D0008B79002B08D1CB79012B05D1082A03D9A1
:1023E0008A78024B09301A707047C046AA0F002045
:1023F0000120704770B5002915D11549537910791E
:1024000009781B0203430020994200D070BD537825
:10241000012B0AD0022BF9D1002064220021FFF702
:1024200095FC0120F2E70120F0E79478D2780500CE
:1024300012021443D20502D5620A93401D000548DA
:10244000FFF70CFD7F210300214028009847C0467C
:10245000AA0F002055420000012303700048704776
:10246000B44B00104A780B7812021A438B7810B5DF
:102470001B041A43CB781B0613439622D2009342C7
:1024800000D010BD0348FFF7E9FC0021030008005D
:102490009847C0465542000070B5184C82B00600FF
:1024A0000D00200001A902F0BFFA002808D1D023B6
:1024B0001B061B68019A9A421CD0200002F0C4FA45
:1024C000002001F055FC002807D103256D422000B3
:1024D00002F09AFA280002B070BD002001F060FC02
:1024E0000028F2D02A003100002001F065FC051E12
:1024F000EBD0ECE703256D42ECE7C046780F0020F7
:10250000F0B54F46D6464646C0B5354B82B00700BB
:102510000D00180001A9994602F086FA002808D19A
:10252000D0231B061B68019A9A4252D0484602F0FB
:102530008BFA002001F01CFC002842D00024002D62
:1025400044DD284B9A46984611E03919002001F0E5
:10255000A7FC060000F0C6FC002001F065FCFEF7B9
:10256000E3FC434618605960A419AC422EDA0020FF
:1025700001F0B0FC2E1B0200B04200DD3200002A48
:10258000E3D100F0AFFC002001F04EFC002001F090
:10259000EFFB00281AD0002001F09CFC0028E4D1B9
:1025A000FEF7C2FC53460E001A685B6800218446A1
:1025B0000D4812184B419E4208D8D6D19445D4D923
:1025C00004E000200021074B18605960484602F0E3
:1025D0001BFA02B01CBC90469946A246F0BDC0460C
:1025E000780F00200806002020A107001F2010B54A
:1025F000FFF7C4F9FA200021800010BD10B5074C88
:102600000021200002F010FA002800D110BD00F0D7
:1026100069FC200002F0F8F9F8E7C046780F0020C6
:1026200070B51E4B84B01B7801F066FE1F201C495C
:10263000FFF7B4F901211F20FFF78EF91948FEF7C3
:102640006DFDFEF753FA0600FEF76EFCFA22040059
:102650000D000023920012196B41994214D811D039
:1026600001210291002101910F4930000091FEF7F4
:1026700041FA0400631E9C41E4B2002808D1200006
:1026800004B070BD9042EBD901225242D317E7E764
:1026900001210648FFF706FEF1E7C046144E001080
:1026A000FD250010780F0020ED250010A404002067
:1026B000004870476C4C001000487047184C0010E0
:1026C00010B5040016480378002B20D0002C06D14A
:1026D000144B15484380063BFF3B038010BD052C7F
:1026E0001CD8124B1048A400E458811C002304E0BD
:1026F00001330A800231132B0DD0E25C002AF7D19E
:10270000C02201335B00920013439BB2E5E7112125
:1027100002F03EF8DAE7CA239B00DEE70020DDE79F
:10272000940F002009040000200B0020804C0010B2
:10273000F0B5982357464546DE464E46484AE0B532
:10274000D75880253C0085B06D02883B2C40039310
:102750002F4214D0012123200022424B2C00195477
:10276000D9702F315A541A74002001323E4901F0B9
:1027700053F880223D4B92021A653D4B0393FB06B2
:102780002AD480239B011F420CD180235B011F426E
:1027900015D1BC425FD105B03CBC90469946A246DB
:1027A000AB46F0BD1C432E4B1B6DDB034DD5802289
:1027B0002E4B52021A6580235B011F42E9D0002193
:1027C000274A0020116001221C4300F0FBFF8022F9
:1027D000264B12031A65DCE7214B9A6D002A26D09E
:1027E0009A46224BB946002601259B46170003E076
:1027F0006D000136202E19D02F42F9D05346DB6DE3
:102800005B4601229D6573085C00164B90469C4612
:10281000B243A41864016444200000F009FA0028BF
:1028200007D1AF4301366D00002FE3D14F46039C23
:10283000A7E74346A28AA17800200093002301F075
:1028400013F8200000F0CEF9EBE70122022100206E
:1028500000F044FFABE7210006487940FEF7FAFE9E
:1028600000001150500B002000001050003011509B
:1028700010000100984C001010B501210520FFF751
:102880006BF810BD01222321002310B506484254E5
:10289000C2702F3283540374002200212030013390
:1028A00000F048FA10BDC046500B00208022024BB9
:1028B0005202DA647047C0460020115070B505001E
:1028C00000F068F905201C49FFF768F880221B4CCE
:1028D00000212000D200FFF7EBFB194B194A4020E2
:1028E0001A6080235B0063800122002321261649A1
:1028F0006270A083A377A1600B60A0870238A35504
:102900002354124912486036FF366360E16022703A
:102910006684A062036063622033E2540D4BE1627F
:102920001A6480229205DA6490220B49280099509B
:10293000FFF7BCFF70BDC04631270010500B0020D0
:10294000580F0020800110508400105000011050DA
:102950008000105000001150103001000B785B0611
:1029600002D14B78052B09D0012123200022054BF1
:10297000D97019542F311A745A5470478A78024BFF
:102980001A60F1E7500B0020000011500720F0B54D
:102990004F464646D6464A79CC780B79104000021D
:1029A000A4071843A30F99469A467F23C0B58F7892
:1029B0003A4E3B40FD0959004A195201B21897702E
:1029C00001276F4057705F425F41D7704A46012A26
:1029D0004CD040284ED84F464A195201B218908325
:1029E0009777DA00012D49D02D4F0024BC469F0176
:1029F0006244F719BA601460002B0FD100226B01FA
:102A0000F3185A60274ADA6001224B195B01012052
:102A1000F2541CBC90469946A246F0BDDA00224B07
:102A20009C4662447A604B195B01F25C002AEBD150
:102A30001E4FF3183A68DA60031C402800D940237F
:102A40003F209BB2D318034201D0834340333B6005
:102A5000174B5A4053469C061443A0224B195B0166
:102A6000F3185B68120614431C60CDE78022D20085
:102A70009042B0D301000F48FEF7ECFD0E4C9F01D1
:102A8000A44600246244F719BA621460002BB5D042
:102A9000074ADB00944663447B62C4E7500B002086
:102AA000840010500001105004001050580F0020F6
:102AB00000001050AC4C00108000105010B57F206A
:102AC0000C0020404000E409110000191A00044BDA
:102AD0004001C018012300F02DF9012010BDC046AF
:102AE000500B00207F2270B50D00110029404C00D2
:102AF000ED090B4E60194001301883781A4204D159
:102B00007D3ADB09D31A074A9366802206491201EF
:102B100000F06EF80123641964013419237470BD48
:102B2000500B002000201150FFF7FFFF7F2270B5EF
:102B30000D00110029404C00ED090B4E60194001B9
:102B4000301883781A4204D17D3ADB09D31A074A38
:102B500093660022064900F04BF8002364196401D3
:102B60003419237470BDC046500B00200030115042
:102B7000FFF7FFFF7F2110B58078044AC3099B004F
:102B800001409A580248FEF765FDC046B80400208F
:102B9000D44C001080220E4B520410B51A600D4B1D
:102BA0000D491A6010008B689843FBD10B4C9C2296
:102BB00000212000FFF77CFA802200215201084802
:102BC000FFF776FA092363670333A36710BDC04696
:102BD00000E0004000F0004000C000400000115044
:102BE0000000105000230361436183617047C046B9
:102BF00010B58368002901D01C682140002A11D03B
:102C00008024E400114322420CD01A6822420BD1E6
:102C1000064A0A401A60FFE7FFE7FFE7FFE7FFE722
:102C2000FFE78368196010BDFFF7A4FFFFFBFFFFFC
:102C3000F8B5467C0400002E00D169E08368407836
:102C4000196889058D0D002847D1A18A691889B2B4
:102C5000A182A58B628A2B1C3F2D2BD99FB2BC462B
:102C6000551AAFB2BC4523D89DB2E3828A424CD3F9
:102C700049D0002826D08022D2002A43E378002BB6
:102C800002D0802189010A4301214B40A168E370F1
:102C90000B685B0543D4234B13400B60FFE7FFE752
:102CA000FFE7FFE7FFE7FFE70020A3681A60F8BD32
:102CB0002B1CD9E740239FB2BC46551AAFB2BC4586
:102CC000D2D9F5E7A3692A009C46E0686144FFF782
:102CD000F5F9842212022A43D0E7A369A08A9C4610
:102CE000E1682A006044FFF7E9F9A18A6078691871
:102CF00089B2A1820028ACD0E38AAB42A9D90023D3
:102D00006182E382D3E73000D1E70748FEF7A2FCF7
:102D10007F238178054A06481940FEF79BFC200076
:102D2000FFF728FFFFFBFFFF204D0010B804002035
:102D3000F44C001070B50400002B49D0437C002BEC
:102D400001D0002303740023A08BA3826282031CA2
:102D50003F2830D998B2904223D89DB2E382012314
:102D600063746378A161002B2AD08022D2002A43A9
:102D7000E378002B02D0802189010A4301214B40D6
:102D8000A168E3700B685B0525D4144B13400B60FE
:102D9000FFE7FFE7FFE7FFE7FFE7FFE7A3681A604A
:102DA00070BD131C9DB2E382012363746378A1613B
:102DB000002BDAD104E0402398B29042CDD9F0E75D
:102DC0002A00E068FFF77AF9842212022A43CFE74B
:102DD000FFF72EFFE4E72000FFF7CCFEFFFBFFFF2D
:102DE000024B5878431E9841C0B2704764090020D6
:102DF000024B18784007C00F7047C0466409002096
:102E0000014B18787047C046A60F0020F8B547461A
:102E1000CE4680B5294F05003B78002B04D0012019
:102E20000CBC90469946F8BD372200212448FFF794
:102E30003FF9244C2000FEF771F9234B1C60234C12
:102E400020001C30FEF786F9200001F055FC204BD5
:102E5000204E1C60204B9846002B04D03000FFF71A
:102E6000FBFA1E4B1860424600243378002A1DD01E
:102E70001B4A9046194A91469C4210D31BD14346A7
:102E8000984701343378E4B2A342F5D22800FFF723
:102E900015FD2800FFF7F0FC01233B70BFE74A4611
:102EA000630012681B19DB009B58E9E701F01EF86C
:102EB0003378002BEAD000231B68FFDEA60F00202A
:102EC000640900201C0900209C090020C004002087
:102ED000A0090020A50F0020592400102C06002076
:102EE000ED3E0010F0B5DE4657464E464546E0B58D
:102EF0008BB001F007FA002800D132E1B94B07ACE2
:102F00009A46B94B9B4653461D68EA69EFF3108316
:102F100072B611680029FCD0BFF35F8F2B622100CD
:102F2000280001F055FAEA692B6ABFF35F8F002190
:102F3000116083F31088002800D112E16378082B18
:102F4000E1D85A469B00D3589F466368002BDAD0DD
:102F5000A0689847D7E77F222179A44B0A40550003
:102F6000C8095B191B181800012620304579B543A4
:102F7000457145790336B5434571002A00D1F7E024
:102F80009B4ADB7C002A06D09A4A1278934200D2F0
:102F900079E19B1ADBB2002B00D0E2E0964D62791A
:102FA0002078A368A847AEE70122904F01213B7823
:102FB000042013433B702523FA5C8A43FA54FA5CDD
:102FC0008243FA540133FA5C8A43FA54FA5C82432E
:102FD000FA5423780020009300F03AFE602223790F
:102FE0001A40602A0DD0402A00D1DDE0DB06DB0E5E
:102FF000012B00D152E1022B00D10FE1002B00D1B7
:10300000E1E020780021FFF76DFD80212078FFF7B7
:1030100069FD78E7794B002B00D174E700E000BF31
:1030200071E7774B002B00D16DE7704B18780007E4
:10303000C00F00E000BF66E76E4E6D4A0025337892
:10304000002A00D1A3E06F4F9D4208D39D4200D0DB
:10305000A0E00135EDB29D4200D954E7F6D23968BF
:103060006A008C465219D20062445269002AF0D09C
:103070002078904701353378EDB29D42E4D942E79C
:103080003722002159482778FFF712F81022FF2134
:103090005D48FFF70DF855481222FF211330FFF766
:1030A00007F800F0CBFD534E514A00253378002A33
:1030B00064D0564A9046534A9146AB423FD863D1BA
:1030C00043463800984701353378EDB2AB42F4D22D
:1030D0004F4B002B00D116E700E000BF13E7434F32
:1030E00023783722002138009846FEF7E1FF1022AE
:1030F000FF21F81CFEF7DCFF38001222FF211330FD
:10310000FEF7D6FF00F09AFD3A4E394A0025337893
:10311000002A42D03B4A91463A0037004646904644
:103120009D4215D330D1394B3000984701353B785B
:10313000EDB2AB42F4D247462379BB70E3E64A4690
:1031400012686B0094465B19DB0063445B68B8E768
:103150004A4612686B0094465B19DB0063445B6867
:10316000E2E70BB03CBC90469946A246AB46F0BDA8
:1031700062792078A36800F07FFDC4E6380000F093
:10318000F3FE3378002BA3D000235B68FFDE002B17
:1031900000D1B8E600235B69FFDE404600F0E4FEA4
:1031A0003378002BC8D0EFE71A48002800D128E771
:1031B00000F04EFD0021009808AA00E000BF0028A2
:1031C00000D0A0E61DE7202A00D198E0002A00D018
:1031D00017E76379092B00D913E70F4A9B00D358EF
:1031E0009F46C046A0090020444D001064090020FD
:1031F00059240010A50F00206141001000000000BC
:10320000000000002C06002067090020693F001024
:103210000000000000000000684D00107F25217AAA
:103220000D40082D00D9ECE6CB0998466D007B19BE
:10323000BF484344DB7C002805D0BE480078834269
:103240007ED31B1ADBB2002B76D1002A00D022E1FC
:10325000B94E0222637999469343012B00D11DE1B7
:103260004B46002B00D0CCE67B19434420335B79DE
:1032700006AA9B07DB0F023213800098022308A9DD
:1032800000F080FC3FE65A00D318AC4ADB0012681D
:10329000D318002B00D164E71D6980E6237A0F2B39
:1032A00000D9AEE6A24AFB18DB78002A05D0A14A75
:1032B0001278934258D39B1ADBB2002B00D0A0E6C1
:1032C0009F489D4D00F0C4FC0021EB68009808AABF
:1032D0009847002800D016E6602211002379194093
:1032E0001A4200D08DE663790A2B00D109E10B2B3D
:1032F00000D086E6009808A900F02CFC03E6237AAB
:103300000F2B00D97DE68A4AFB18DB78002A06D00D
:10331000884A1278934200D2E8E09B1ADBB2002B75
:1033200000D06EE68648844D00F092FC0021EB68E8
:10333000009808AA984742E70026002A89D060E64C
:103340007E485E00F3180668DB00F618002A80D07D
:10335000002E00D155E6F06800F07AFC0021F368F9
:10336000009808AA98472AE7744A5D00EB18156888
:10337000DB00ED18002D00D143E6E868A2E7E38802
:10338000012B00D03DE608223B780098934308A922
:103390003B7000F0DFFBB6E50220397806AB9A1CE3
:1033A0008B068908DB0F01400B4365E7A379039384
:1033B0001A007B78002B02D1002A00D0C8E0039BC2
:1033C000009808A97B7000F0C5FB9CE57B7806AAF5
:1033D000023213700098012308A900F0D3FB92E594
:1033E000E388A0791B0A0F2B00D90AE6554A9B00F7
:1033F000D3589F4608A800F031FCA1790098FFF748
:1034000041FA02223B7813433B707CE5E388012BB1
:1034100000D0F6E508223B780098134308A93B70DA
:1034200000F098FB6FE5484B002B00D1E9E500E088
:1034300000BF050006AB9E1CA91C02223000FEF74F
:103440003DFE2A003388009808A900F09BFBB6E6F1
:103450003E4B002B00D1D4E500E000BF021E00D19E
:10346000CFE51378009808A900F08CFBA7E6218926
:10347000FFF726F9021EF4D1C3E5FFF71DF9051E7B
:10348000D8D1BEE5FFF714F91223020008A900986D
:1034900000F078FB93E62A48274E5DE7E388002B8F
:1034A00010D14B460098012B34D0FFF71BFB0221B3
:1034B0007B19434420335A790A4301215A715A79BE
:1034C0000A435A71002E00D11DE5F06800F0C0FBE0
:1034D000F368002108AA00989847002000F0B8FB84
:1034E0002623FB5CDB0700D50DE503E7134A5D00EF
:1034F000EB181568DB00ED18002D00D181E5E868B8
:1035000012E706AB9A1C11700123009808A900F07D
:1035100039FBF8E4FFF70AFB02217B19434420330F
:103520005A798A4349465A715A798A435A71C9E786
:1035300059240010A50F0020D04D00102C060020AB
:1035400081400010904D00100000000000000000BD
:10355000501EC0B2FFF7B0F8002800D151E5437803
:10356000022B00D04DE501210600C27909369311E6
:1035700052110B400A4012015B0113433A782F317C
:103580008A4313433B70C37882781B021343C318EA
:1035900004934D4BB84699463700049BBB4200D874
:1035A00088E000237A7802930B2A04D13B780297B3
:1035B000FB181F005A78042A00D022E5049B434AD6
:1035C000DB1B9BB201934B4600251B78002A10D1D0
:1035D0001CE09D4226D13E4B3900019A0098984745
:1035E000002822D14B4601351B78EDB2AB4200D208
:1035F00007E59D42EDD2374B1B680593059A6B009A
:1036000094465B19DB0063449B68E5E73900019A47
:10361000009800F0BFFC061E54D14B461B78002BCF
:1036200000D1EEE400239B68FFDE0600082E00D8E0
:10363000E7E4019BB34200D2E3E44246BB78D218F0
:10364000D178FF2900D0DCE4D570029A002A15D089
:1036500091781000994200D0D3E412797B799A4294
:1036600000D0CEE4C278012A08D9023A043141449C
:10367000D2B2080001322900FEF71AFD7F213A007C
:1036800000238C465178052907D161469078014086
:10369000490041441331C0090D5411785B189BB2A5
:1036A0005218B342EED34B461B78BF19AB4200D33E
:1036B00073E7A6E4084B4746002B00D17FE600E005
:1036C00000BF7CE6014DB1E7A50F00205924001092
:1036D000953F00102C0600200000000030B585B09A
:1036E00005000C000C22002101A8FEF7E1FC6B464E
:1036F0001D715C71042C29D005D8022C38D0032C04
:1037000051D105B030BD052C4DD12C4B1A78D207C4
:10371000F7D504211A788A431A70294B1C68E2698C
:10372000EFF3108172B61368002BFCD0BFF35F8FEC
:103730002162200001A900F017FFE269236ABFF3AC
:103740005F8F0021116083F31088DAE71B4B1A7832
:10375000D207D6D504211A780A431A70184B1C6870
:10376000E269EFF3108172B61368002BDED1FBE73C
:10377000124B1A78D207C4D501211A788A431A70DD
:103780001A780331A2431A7000225A701A788A43B9
:103790001A700B4B1C68E269EFF3108172B6136864
:1037A000002BC3D1FBE7064B1C68E269EFF31081E5
:1037B00072B61368002BB9D1FBE7C046640900203C
:1037C000A009002070B584B001AD06000C000C22E9
:1037D00000212800FEF76CFC01236B700D4B2C714F
:1037E0001C682E70E269EFF3108372B6116800292D
:1037F000FCD0BFF35F8F23622900200000F0B4FEED
:10380000E269236ABFF35F8F0021116083F31088A0
:1038100004B070BDA0090020002330B585B001AD13
:103820006B8028700633082202A86B70FEF746FCF6
:103830000C4B1C68E269EFF3108372B61168002923
:10384000FCD0BFF35F8F23622900200000F08CFEC4
:10385000E269236ABFF35F8F0021116083F3108850
:1038600005B030BDA0090020F0B5C646804600B5C1
:1038700084B001AC0F0016000021082220001D00BA
:10388000FEF716FC43462370072363700F4B6571E8
:103890001D682771A660EA69EFF3108372B611689C
:1038A0000029FCD0BFF35F8F2B622100280000F0BD
:1038B0005BFEEA692B6ABFF35F8F0021116083F31F
:1038C000108804B004BC9046F0BDC046A00900209A
:1038D000F8B5454657464E46DE468046E0B50C00F4
:1038E00017001D000026002A39D0304B9A469B460F
:1038F00099466378052B0AD1E3789B079B0FAB426F
:1039000005D1022D3AD0032D2DD0012D06D0002057
:103910003CBC90469946A246AB46F8BD4B469B78C8
:10392000023B5A425341224A94466344072260793B
:103930002179024012020A439342E8DB210040460B
:10394000FFF724F80028E2D0A378DA09012A08D08A
:103950000A9A137023780136E418BE42C9DB0120AD
:10396000D6E70B9AF5E75B469B78023B5A425341F8
:10397000F0225B42920013404033D7E753469B78D6
:10398000022B08D00723617922790B401B021343D5
:10399000402BD3D9BBE762790533134080222179CC
:1039A0001B0292000B439342B1D1C7E76409002088
:1039B000FF030000CB7802009B0770B59B0F022B22
:1039C00005D0032B27D00020012B10D070BD214B38
:1039D00008799B784C79022B31D0072323401B02B6
:1039E0000343402B29D81000FEF7D0FFEEE7194B18
:1039F0004E799B780D79023B5C426341164CA4469C
:103A000007243440240263442C439C42DEDC100033
:103A1000FEF7BCFFDAE70F4B4D799B780C79023B40
:103A200058424341F0205B42800003400720284079
:103A30000002403320439842D5DD0020C6E705331D
:103A4000234080241B020343A4000020A342BDD1D5
:103A5000C9E7C04664090020FF03000070B57F2459
:103A60000C406300144CC909E418641820346379CD
:103A7000DB07DD0F002B18D163795B0701D5280028
:103A800070BD01210D4E4942306800F0D5FF6379C9
:103A9000DB07DD0F002B0AD163795B0708D4042212
:103AA000637901251343637102E00025E7E70025F0
:103AB000306800F0A9FFE2E7640900209C090020BB
:103AC00070B50C0001210F4D4942286800F0B4FF89
:103AD0007F2121404B000C49E409C9180919203104
:103AE0004B790024DB0708D44B795B07DC0F002BF4
:103AF00003DA04224B7993434B71286800F084FF6A
:103B0000200070BD9C0900206409002070B57F244E
:103B10000C4065000E4C06006419C80924182034B6
:103B200065790020ED0700D570BD01256079284337
:103B300060713000FEF7C2FF0028F5D101226379E1
:103B4000934363716379033293436371ECE7C04637
:103B50006409002070B50A4E0500082230000C00F0
:103B6000FEF7ACFA002161560023C943C90F2800B3
:103B7000F3600022C901B360FFF7C8FF70BDC04603
:103B800008090020F8B5CE4647469046294E80B534
:103B90008146082230000D001F00FEF78FFA4346D1
:103BA000B3600023F381EC79AB7924021C43231C1E
:103BB000BC4200D93B1C9FB2B381002C12D0002F15
:103BC0001ED04346002B32D03B1C402F1ED89FB244
:103BD00033787F2B1FD80021174A3B004846FFF758
:103BE00095FF09E0002169560023C943C90F00224F
:103BF0004846C901FFF78AFF0CBC90469946F8BDBC
:103C000033787F2B10D980210022E6E740239FB232
:103C100033787F2BDFD9084C3A0041462000FEF76D
:103C20004DFA80212200D8E700210022D5E70020AC
:103C3000E2E7C046080900202409002010B514223C
:103C400000210248FEF734FA10BDC04608090020E2
:103C5000014B18617047C0460809002010B5054C9B
:103C6000010008222000FEF729FA0023A360E36088
:103C700010BDC04608090020F8B53A4C1D00237855
:103C80000600DA09C9098A4213D00020002D00D0AD
:103C9000F8BD354B002B03D021003000FEF75EFE4F
:103CA0002369002B43D022000221300098470120D5
:103CB000EEE77F2B06D8A068002836D02A002B49D3
:103CC000FEF7FCF9A368E28959195219E38892B208
:103CD000E281A160934214D03F2D12D9A589A81A80
:103CE000071C80B240282ED82378BFB27F2B2CD857
:103CF0000021AA4234D01D4A3B003000FFF706FFE6
:103D0000C6E72369002B05D0220001213000984727
:103D100000280ED0002161560023C943C90F00229C
:103D20003000C901FFF7F2FEB2E70020B0E7012042
:103D3000AEE700213000FEF7D5FE30008021FEF70F
:103D4000D1FE0120A4E74027CEE7AA4207D0074CC6
:103D50003A002000FEF7B2F980212200CCE7802152
:103D60000022C9E7080900205D290010240900206D
:103D700010B50400FFF734F8002801D1002010BD71
:103D8000FFF736F80028F9D1B620800044430348F5
:103D90000019037901201840F1E7C04630060020E1
:103DA000B6239B00584310B5024B1030C01800F0EA
:103DB000E9FA10BD30060020F0B5B625AD00454348
:103DC0002C00C646174F1034E41900B5200092B2FB
:103DD00000F04CFB0600200000F0ECFA3F2803D86E
:103DE000300004BC9046F0BD7B190020D97898467D
:103DF000FFF734FE0028F3D0200000F0DBFA3F2864
:103E00000AD996239B00EA184346D219D978002094
:103E10004023FFF77BFEE3E743460020D978FFF716
:103E20004FFEDDE730060020F8B50400FEF7D8FFAE
:103E3000002801D10020F8BDFEF7DAFF0028F9D1F3
:103E4000B620800044432500144E2C35AD192800BF
:103E500000F098FA0028EDD037190020B978FFF764
:103E6000FDFD0028E6D0A6239B009C466444A419CF
:103E700021002800402200F0F9FAB978051E08D088
:103E8000030022000020FFF741FE0028D2D02800C6
:103E9000D1E70020FFF714FECCE7C0463006002033
:103EA00070B5B624A4004443094B2C34E418050033
:103EB00092B2200000F094FB0600200000F062FAAD
:103EC0003F2801D8300070BD2800FFF7ADFFF9E7AB
:103ED00030060020B6239B00584310B5024B2C300F
:103EE000C01800F067FA10BD30060020B622F0B509
:103EF0001B4C83B0002120009200FEF7D9F8FF236D
:103F00006371184B80260025E380012708232100D8
:103F100020007600237332002781658148310095A7
:103F2000073B103000F0F2F9210020004931320047
:103F3000FF31012300972C3000F0E8F992239B0019
:103F4000E6183000FDF7EAF894239B00A662E61815
:103F500030006562FDF7E2F82664656403B0F0BDE9
:103F60003006002000C2FFFF10B5094C05220021D9
:103F70002000FEF79DF820002C34103000F0BCFB30
:103F8000200000F0B9FB0121200000F0DBFB10BD98
:103F900030060020F0B54B79060083B0022B02D129
:103FA0008B79022B03D00025280003B0F0BDCB791C
:103FB000062BF8D82F4FBB78002BF4D18B7809252E
:103FC0003B700C780C196378242B0BD1082A02D88B
:103FD0000FE0AA420DD32378E418ED186378ADB250
:103FE000242BF6D0052B20D0042B02D163790A2B89
:103FF0002ED0214C200000F0DDF93F28D4D9260036
:10400000103E0020F178FFF729FD0028CCD02000D9
:1040100000F0D0F93F2816D992239B00E218F178DE
:1040200040230020FFF772FDBEE721003000FFF7BC
:10403000C1FC0028B7D0A3787B702378ED18E41872
:104040006378ADB2D0E7F1780020FFF739FDABE738
:104050000A4B277801930133009302220223300098
:10406000E119FFF735FC00289DD00E35ED19ADB2F2
:10407000BFE7C04630060020400600203206002080
:10408000F8B5602314001278050013400020202B9F
:1040900012D12E4A6379277916781B023B439E4240
:1040A0000AD16378222B27D007D8202B17D0212BB9
:1040B00002D100293CD00120F8BD232BFCD10029DE
:1040C0003ED00229F7D1224B002BF4D0E178A3781F
:1040D00009020020194300E000BF0120ECE700299D
:1040E00026D00229E7D11B4B002BE4D00020911DE4
:1040F000FEF7B8F90120DFE7002921D00229DAD143
:104100000125A178E47824020C43290014712C3293
:104110001000A14300F016FB0F4B002BCBD0290061
:10412000620800202A40214000E000BF0120C3E7D0
:10413000072321002800094AFFF724FD0120BBE7DF
:1041400021002800FFF706FD0120B5E7300600201A
:10415000000000006524001000000000360600206A
:10416000F8B557464E464546DE46E0B55D4F8046BB
:10417000FA780C001E008A4265D19AB296239B0001
:10418000FD1810239946B9442900484600F028FA42
:10419000554B002B19D07B79FF2B16D0002E14D055
:1041A000AA199246BB4603E0013555450DD07B79EF
:1041B0002A789A42F8D1484600F0F4F80028F3D162
:1041C0005B46597900E000BFEEE7484B002B05D075
:1041D000484600F0E7F8002800D176E0484600F0B5
:1041E000E9F83F2858D84A46103A93789C4207D0BD
:1041F000012420003CBC90469946A246AB46F8BD3F
:104200003B4B002B02D0002000E000BFFEF7E8FD92
:1042100000281DD1374C200000F0B4F80028E7D169
:10422000002EE5D0B306E3D12C3CA1784046FFF741
:1042300015FC2500041EDBD0002300224046A9788F
:10424000FFF764FCD5E7BB788B42D9D00024D0E7D8
:10425000FEF7CEFD274C0028DDD1200000F092F8BB
:104260000028D8D025002C3D0020A978FFF7F6FBC8
:104270000028D0D09B239B00E71839004022200063
:1042800000F0F4F8A978031E28D03A000020FFF7C8
:104290003DFC0028ACD1BEE74D46103D0020E9783A
:1042A000FFF7DCFB002801D1AB789FE7484600F020
:1042B00081F83F280CD99222920040230020E9780F
:1042C0004A44FFF723FCAB7890E700E000BF85E7A6
:1042D0000020E978FFF7F4FBAB7887E70020FFF7D1
:1042E000EFFB98E73006002000000000000000000F
:1042F000000000005C06002010B50020FEF786FDDF
:1043000010BDC04610B5FEF77BFD10BDF0B5C6462A
:1043100000B5150006AA1E001378802204000F00C5
:104320009846120295422AD84069002803D00121FC
:10433000494200F081FBA069002803D001214942D5
:1043400000F07AFB4346A5806D00ADB223726B1E70
:10435000A381002360696D42E3812760E680658167
:104360002382002801D000F04FFBA069012400281F
:1043700001D000F049FB200004BC9046F0BD0024B1
:10438000F9E7C046C189028A8B1A9BB2914202D2D8
:1043900042899B1A9BB28288101C9A4200D9181C31
:1043A00080B27047C389008A181A43425841C0B28C
:1043B0007047C04610B5C489018A8388621A92B2D8
:1043C0008C4202D24089121A92B2981A80B210BD61
:1043D00070B5040080690E00002803D00121494215
:1043E00000F02AFBE589208AA9B22A1A83B292B288
:1043F000854202D26089121A92B2A088904206D2F7
:10440000A5890A1AAA4228DC92B222820200002A56
:1044100002D127E01B1A9BB29842FBD9E28821689F
:1044200053433000C918FDF749FE01250120012240
:10443000218A8BB20918A08981420BDD61895B1842
:10444000D3189BB2A0692382002801D000F0DCFAC7
:10445000280070BD9B189BB2F4E7628982188A1A03
:1044600092B2D2E700200025E2E7C046F0B54F4601
:104470004646D6460400806988469146C0B5002865
:1044800003D00121494200F0D7FAE289238A91B290
:10449000D51A9EB2ADB29A4202D26389ED1AADB27C
:1044A000A788AF4208D2A289CB1B934255DC9BB2AE
:1044B0003D002382268AB6B2002D53D04B46A94533
:1044C00049D89DB2B74203D8F61BB6B2B742FBD962
:1044D000E388B81B19009946236871439C4680B253
:1044E0006144854228D94B46584383B21A0040465E
:1044F0009A46FDF7E3FD4B464046EF1BF6195E4337
:1045000021685044B2B2FDF7D9FD2F00228AA1895B
:1045100093B2D2198A421BDD62899B18EB189BB2B9
:10452000A0692382002801D000F06EFA28001CBC8C
:1045300090469946A246F0BD4A462F006A4340463F
:10454000FDF7BCFD228AA18993B2D2198A42E3DC2D
:104550005B199BB2E4E72B1CB3E76389FB18CB1A0A
:104560009BB2A5E70027D1E7F8B5040040690E002B
:10457000002803D00121494200F05EFAE289218A35
:1045800095B2531A9BB2914202D962899B1A9BB28F
:10459000A2889A4220D02B00954203D39B1A9BB24B
:1045A0009A42FBD9E28821685343C8183100FDF7CD
:1045B00085FDA389AB420AD90135ADB260690127F7
:1045C000E581002801D000F01FFA3800F8BD6389AA
:1045D000ED180135ADB2F1E7277A002FDBD1F4E712
:1045E000F0B54E464546DE465746E0B504008846DF
:1045F000160083B0002A5DD04069002803D0012155
:10460000494200F019FAE789237A228AA588BFB2C5
:1046100092B2002B41D1BB1A9BB2974202D262895F
:104620009B1A9BB2EB1A1A1C9BB2B34259D893B295
:104630009946E388CA469B464B465E1BB3B201933C
:104640003E00AF4203D3761BB6B2AE42FBD2584611
:10465000236870439C46AD1BADB26044A9452ED87B
:104660005A46534641465A43FDF728FD5346A28910
:10467000FB184F44934220DD6389FF18BFB2606985
:10468000E781002801D000F0BFF9484603B03CBCE8
:1046900090469946A246AB46F0BDAE4223D3E3888E
:1046A000761B5E439B460023AA461700A946B044EA
:1046B0000193C5E700239946E7E7BFB2DFE75B4612
:1046C0005D43ADB22A004146FDF7F8FC019B29008D
:1046D000F2185B465A43206892B24144FDF7EEFC63
:1046E000C4E7321CA3E7B246E388761B9B46B3B20D
:1046F000D1460193A4E7C04610B5040040690028E4
:1047000003D00121494200F097F9A069002803D0A5
:104710000121494200F090F90023E3812382A3881C
:1047200060695B009BB25A1E5B42A28163810028D4
:1047300001D000F069F9A069002801D000F064F907
:10474000012010BD70B5040040690D00002803D0A1
:104750000121494200F070F9A069002803D001212D
:10476000494200F069F960692572002801D000F023
:104770004BF9A069002801D000F046F9012070BD76
:1047800010B5024800F0E2F810BDC0466C0F0020E2
:1047900030B54B1E012900D1B0E06B4A11780D11E4
:1047A0002C0030349F2900D9ABE00470012B00D1DC
:1047B000C7E00F21147821400C003034092900DDB6
:1047C000A1E04470022B00D1BBE051780D112C0008
:1047D00030349F2900D999E08470032B00D1B0E0D8
:1047E0000F21547821400C003034092900DD8FE07E
:1047F000C470042B00D1A4E091780D112C0030344A
:104800009F2900D987E00471052B00D199E00F2181
:10481000947821400C003034092900DD7DE044719A
:10482000062B00D18DE0D1780D112C0030349F295A
:1048300000D975E08471072B00D182E00F21D47874
:1048400021400C003034092900DD6BE0C471082BD5
:1048500000D176E011790D112C0030349F2964D8F5
:104860000472092B00D16CE00F21147921400C0057
:10487000303409295BDC44720A2B62D051790D1166
:104880002C0030349F2955D884720B2B59D00F211E
:10489000547921400C00303409294DDCC4720C2BB2
:1048A0004FD091790D112C0030349F2900D9073455
:1048B00004730D2B45D00F21947921400C00303426
:1048C000092901DD37310C0044730E2B39D0D17921
:1048D0000D112C0030349F2900D9073484730F2B1D
:1048E0002FD0D1790F220A4011003731092A01DC7B
:1048F00030321100C173102B23D01030002303700D
:1049000030BD073451E737310C005AE7073463E70D
:1049100037310C006CE7073475E737310C007EE760
:10492000073487E737310C0090E7073498E73731D1
:104930000C00A0E70734A7E737310C00C4720C2B3A
:10494000AFD1C018DAE7C0466C0F002030B50025A3
:1049500089B004000922002101A80095FDF7A8FBF9
:104960000922002105A80495FDF7A2FB4B236A4606
:104970006846137004A90D2200F03EF815210822A4
:1049800020006944FDF79AFB09B030BD10B58307DC
:1049900027D00378002B26D00300032102E01A78E9
:1049A000002A1CD001330B42F9D119680F4A104C70
:1049B0008A188A4322420FD1043319680B4A8A1895
:1049C0008A43224208D104331968084A8A188A4364
:1049D0002242F1D000E001331A78002AFBD1181AE4
:1049E00010BD0300E1E70020FAE7C046FFFEFEFE2F
:1049F00080808080F8B5C04601B40248844601BC7E
:104A0000604700BF0103002001B40248844601BC96
:104A1000604700BF2D02002001B40248844601BC5B
:104A2000604700BFA903002001B40248844601BCCE
:104A3000604700BF2101002001B40248844601BC48
:104A4000604700BF7D01002001B40248844601BCDC
:084A5000604700BFC100002017
:104A580048656C6C6F20576F726C640A0000000028
:104A680054686973206973206120746573742062C7
:104A7800696E6172792E00004F6E2D626F617264EB
:104A8800204C45440000000009005250000000027C
:104A9800804A001006005250197CA0B6684A0010DF
:104AA8004E6F207370696E6C6F636B7320617265F3
:104AB80020617661696C61626C65000048617264AE
:104AC8007761726520616C61726D20256420616C6C
:104AD800726561647920636C61696D6564000000CA
:104AE8000A2A2A2A2050414E4943202A2A2A0A0003
:104AF8000A00000048617264206173736572740073
:104B080052656C6561736500626F6F74325F7732EE
:104B18003571303830000000312E322E3000000060
:104B28007069636F000000007073696F6E5F726573
:104B380063726561746500004E6F762033302032F1
:104B48003032310006005250BBFF3CB6284B0010F3
:104B580006005250E182887F104B00100600525028
:104B6800D3F07542084B00100D0A0000554152540D
:104B780020737464696E0000554152542073746444
:104B88006F7574005541525420737464696E202FF8
:104B9800207374646F7574000600525053B4F4A106
:104BA8008C4B00100800525092000000B9230010EE
:104BB800BD230010C9230010F5230010F1230010B5
:104BC8000000000055534220737464696E202F2042
:104BD8007374646F757400000600525053B4F4A1E6
:104BE800CC4B001052617370626572727920506903
:104BF800000000005069636F00000000426F61729E
:104C0800642043444300000052657365740000004B
:104C180009025400030100807D080B000202020013
:104C28000009040000010202000405240020010517
:104C3800240100010424020205240600010705815D
:104C48000308001009040100020A00000007050219
:104C5800024000000705820240000009040200002B
:104C6800FF00010512010002EF0201408A2E0A002E
:104C7800000101020301000000000000EC4B0010DD
:104C8800FC4B0010940F0020044C0010104C001036
:104C9800556E68616E646C656420495251203078A5
:104CA80025780A0049736F6368726F6E6F75732099
:104CB800774D61785061636B657453697A65202517
:104CC8006420746F6F206C617267650065702025C1
:104CD800642025732077617320616C726561647943
:104CE80020617661696C61626C65000043616E27C2
:104CF8007420636F6E74696E7565207866657220BE
:104D08006F6E20696E616374697665206570202511
:104D180064202573000000005472616E736665722A
:104D2800726564206D6F72652064617461207468B7
:104D3800616E20657870656374656400062F0010E5
:104D4800DE300010803000103830001022300010A3
:104D580014300010A82F0010562F00104A2F0010F2
:104D6800983300107E330010023000100C3400100D
:104D780002300010F4330010E0330010023000104D
:104D8800CC330010AC330010023000108434001013
:104D98007A3400106E340010023000100230001017
:104DA80050340010023000100230001002300010A1
:104DB80002300010023000100230001002300010E3
:104DC8000230001026340010ED3E0010693F00103C
:104DD800953F001081400010614100100000000064
:104DE800904A00109C4A0010B4020010A80200105B
:104DF8009C0200104C4B001090020010584B001001
:104E0800644B0010A04B0010AC4B0010E04B00109E
:104E180070B5D024002524060268EFF3108172B61D
:104E28001368002BFCD0BFF35F8F04230022C35606
:104E3800A2565E1C16D093420CD14379012B09D996
:104E4800013B43710368BFF35F8F00221A6081F34F
:104E5800108870BD0368BFF35F8F1D6081F31088F1
:104E680020BFD9E743790271002BEBD0E8E7C046B1
:104E7800030030B50068EFF3108472B60268002AA8
:104E8800FCD0BFF35F8FD0220020120610560422F8
:104E98009A56551C14D082420BD0002913D00020FA
:104EA8000A601B68BFF35F8F00221A6084F31088C2
:104EB80030BD58790128F0D9013858710120F0E740
:104EC80018710120EDE70020EBE7C046F0B5C646B3
:104ED80000B50C00804600F01BF9FA2206000F000E
:104EE800200000230021920000F00AF9801979417E
:104EF80004000D008F422DD82AD0D02700263F0667
:104F080043461B68EFF3108272B619680029FCD07B
:104F1800BFF35F8F434600211B7979565BB2581C5B
:104F28001CD0994203D143465B79012B22D84346D2
:104F38001B68BFF35F8F1E6082F310882000290072
:104F480000F0F6F80028DBD0002004BC9046F0BD45
:104F58008642D2D901246442E517CEE74346197147
:104F680043461B68BFF35F8F0021196082F31088E6
:104F78000120EAE74146013B4B71F1E70268EFF394
:104F8800108172B61368002BFCD0BFF35F8F437992
:104F9800002B0CD00133DBB24371FF2B11D0036817
:104FA800BFF35F8F00221A6081F310887047FF22D9
:104FB80002710268BFF35F8F136081F3108840BFEE
:104FC800F4E703710368BFF35F8F00221A6081F36F
:104FD800108840BFEAE7C046084810B50378002BA0
:104FE8000AD180230649074A5B051C68CC50043364
:104FF8009342FAD10123037010BDC046A70F0020C9
:10500800B40900100001001010B5024B0133984795
:1050180010BDC046B4090020054B1A6880239B00C8
:105028005340C02292001340024A13607047C046A2
:105038000C8001400C900140034B1A68C0239B0070
:105048009343024A136070470C8001400C90014062
:10505800F8B5CE464746814680B524480E00140070
:1050680000F05EF80700224800F05AF805002148D1
:1050780000F056F88046FFF7AFFFB847A847FFF79C
:10508800CBFF002C1BD0C021220008270220490595
:105098003D008B6A1D4018420BD0002C09D0131B11
:1050A8000D2B1ED84B461B78013C0B6601239C46F2
:1050B800E1442300002D0BD11343002BE8D1FFF767
:1050C800BBFFC047FFF7A0FF0CBC90469946F8BD50
:1050D800002AF2D00B6E013A3370130001362343D5
:1050E800EBE7002DD4D0002AD2D0F3E749460000E0
:1050F80045580000464300007047C04600000000C5
:1051080001B40248844601BC604700BFDD1F00109F
:1051180001B40248844601BC604700BF290F001053
:1051280001B40248844601BC604700BF5D1E001000
:1051380001B40248844601BC604700BF850D0010D9
:10514800100000000C0400200000000008050020EA
:10515800E00A00200000000000000000F00A002023
:105168000000000000000000100000000000000027
:105178000000010000000000000000000000020024
:105188000000000000000000000003000000000014
:10519800000000000000FF000000000000B54868A3
:1051A80001318E460047704609380149884700BDDD
:1051B800A91B001000000000000000000000000013
:1051C800503300004C3300005433000052330000C9
:1051D8004D5300004D430000533400004334000099
:1051E800ED2200100000000039230010000000002C
:1051F80000010000012500100000000099240010A3
:1052080000000000000100009C4B00107C4B0010C7
:10521800B411002010000C000000E0FF1F00000087
:105228000000000000000000000000000000000076
:10523800000000000000000000000000A120001095
:105248004D1E0010051F001011200010390300101A
:04525800814700107A
:04000005100001E9FD
:00000001FF
