:020000041000EA
:1000000000B5324B212058609868022188439860DF
:10001000D860186158612E4B002199600221596106
:100020000121F02299502B49196001219960352056
:1000300000F044F80222904214D00621196600F024
:1000400034F8196E01211966002018661A6600F04E
:100050002CF8196E196E196E052000F02FF8012189
:100060000842F9D1002199601B49196000215960AB
:100070001A491B48016001219960EB211966A021F2
:10008000196600F012F800219960164914480160C1
:100090000121996001BC002800D000471248134993
:1000A000086003C880F30888084703B5996A0420EC
:1000B0000142FBD001200142F8D103BD02B5186610
:1000C0001866FFF7F2FF186E186E02BD00000240BE
:1000D000000000180000070000035F00212200005C
:1000E000F4000018222000A00001001008ED00E03C
:1000F00000000000000000000000000074B24E7A12
:1001000000200420F7010010C3010010C5010010F9
:10011000C1010010C1010010C1010010C101001097
:10012000C1010010C1010010C1010010C701001081
:10013000C1010010C1010010C9010010CB01001065
:10014000CD010010CD010010CD010010CD01001037
:10015000CD010010CD010010CD010010CD01001027
:10016000CD010010CD010010CD010010CD01001017
:10017000CD010010CD010010CD010010CD01001007
:10018000CD010010CD010010CD010010CD010010F7
:10019000CD010010CD010010CD010010CD010010E7
:1001A000CD010010CD010010CD010010CD010010D7
:1001B000CD010010CD010010CD010010CD010010C7
:1001C00000BE00BE00BE00BE00BE00BE00F04BF888
:1001D000103800BEF2EB88710C5801103458011031
:1001E0003402001090A31AE700202149086006C8D5
:1001F00081F3088810471F48006800282FD10DA4FC
:100200000ECC002902D000F012F8F9E71A491B4A77
:10021000002000E001C19142FCD1194988471949E9
:1002200088471949884700BEFDE701C901C29A42C3
:10023000FBD3704734580110C0000020101B012070
:100240008472021000000420000004208472021056
:1002500000100420001004200000000070470B482C
:1002600008F0F0FC0047EFF30580C0B270470000D3
:1002700008ED00E0000000D0101B01207C6C022083
:10028000E570001091040010F9710010575600003D
:1002900006005250ABB36053484301100600525061
:1002A000861C030258430110060052505422A29D9E
:1002B0006843011005005250DE65F4688472021034
:1002C000F8B5C0460448054B10B5834203D0044B33
:1002D000002B00D0984710BD101B0120101B0120DF
:1002E0000000000006480749091A8B10C90FC918F9
:1002F00010B5491003D0044B002B00D0984710BD17
:10030000101B0120101B01200000000010B5074C3D
:100310002378002B09D1FFF7D5FF054B002B02D026
:10032000044800E000BF0123237010BD201C012001
:1003300000000000F02D0110054B10B5002B03D07C
:100340000449054800E000BFFFF7CCFF10BDC046E0
:1003500000000000241C0120F02D011010B500F059
:1003600013FF05F061F904F067FFF8E7012383400C
:10037000D02212069361936153610022002000E0B5
:100380000132072A0EDCD0231B0680214903996124
:1003900059614000C0B25B689B02F1D5012318434C
:1003A000C0B2EDE7704730B501258540D0231B066C
:1003B0009D6100230BE0D02000068024E4018461CD
:1003C0004900D02000068024E404446101339342B4
:1003D00010DAD02000068024E4048461501E0C0052
:1003E00004412000C007E6D5D02000068024E401A7
:1003F0004461E5E7D0231B065D6130BD10B582B0D6
:1004000001000F4B18880F4B98420DD0014389B261
:100410000B4C218010220F20FFF7C5FF2288094BCB
:100420009A4207D002B010BD00230093009B002B1E
:10043000FCD1EBE700230193019B002BFCD1F1E7FA
:10044000982601200920000010B582B00E4B98427A
:100450000DD00E4C21888143218010220F20FFF700
:10046000A2FF2288084B9A4207D002B010BD002399
:100470000093009B002BFCD1EBE700230193019B31
:10048000002BFCD1F1E7C04609200000982601208E
:1004900010B51B2005F0C6FBD024240680231B05C5
:1004A000636263610D2005F0BDFB0E2005F0BAFB11
:1004B0000F2005F0B7FB162005F0B4FB152005F062
:1004C000B1FB1A2005F0AEFB132005F0ABFB1420A6
:1004D00005F0A8FB122005F0A5FB002005F0A2FB0B
:1004E000012005F09FFB022005F09CFB032005F096
:1004F00099FB042005F096FB052005F093FB0620F0
:1005000005F090FB072005F08DFB01220021002063
:1005100005F06EFB01220021012005F069FB01229C
:100520000021022005F064FB01220021032005F0D8
:100530005FFB01220021042005F05AFB012200216B
:10054000052005F055FB01220021062005F050FB97
:1005500001220021072005F04BFB0A2005F062FB79
:100560000B2005F05FFB0C2005F05CFB112005F073
:1005700059FB102005F056FB00220121102005F048
:1005800037FB00220121112005F032FB8023DB0123
:10059000636280229201A262636280231B02636213
:1005A0008023DB03636280239B03A3628023DB043D
:1005B000636280231B03636280235B036362802288
:1005C000D20262628022D2006262802212016262E2
:1005D00080225201626263610120FFF70FFF0A204F
:1005E00006F080F900F064F800F02EF909F060FDE3
:1005F00003F060FF04F052F903480CF049FC05F0E9
:100600009DFA03F09FFFFCE75D03001082B003003A
:10061000019064205843002801D00138FBE702B064
:10062000704700B583B080236A461371793B03405D
:10063000502040421843507101AA0221782005F051
:100640001AF903B000BD10B582B001AA8021117063
:10065000030910242343537091700F231840D07066
:100660007C39782005F007F902B010BD10B5054BB4
:100670001A887F2111401980034B18680822FFF760
:1006800092FE10BD9A260120FC2D011010B5064BDC
:1006900019888022114389B21980044B18680822F6
:1006A000FFF781FE10BDC0469A260120FC2D0110E7
:1006B00010B5FFF7EBFFFA24E4002000FFF7A6FFD8
:1006C000FFF7D4FF2000FFF7A1FFFFF7DFFF2000B7
:1006D000FFF79CFF05F034F8782005F049F88020FA
:1006E00005F046F8AE2005F043F8802005F040F80C
:1006F000D52005F03DF8802005F03AF8A02005F05F
:1007000037F8802005F034F8A82005F031F8802073
:1007100005F02EF81F2005F02BF8802005F028F8B2
:10072000D32005F025F8802005F022F8002005F000
:100730001FF8802005F01CF8AD2005F019F8802086
:1007400005F016F88E2005F013F8802005F010F85B
:10075000D82005F00DF8802005F00AF8052005F0F6
:1007600007F8802005F004F8A12005F001F88020AA
:1007700004F0FEFFC82004F0FBFF802004F0F8FF27
:10078000DA2004F0F5FF802004F0F2FF122004F0DC
:10079000EFFF802004F0ECFF912004F0E9FF8020BF
:1007A00004F0E6FF3F2004F0E3FF802004F0E0FFC8
:1007B0003F2004F0DDFF802004F0DAFF3F2004F04A
:1007C000D7FF802004F0D4FF3F2004F0D1FF802029
:1007D00004F0CEFF812004F0CBFF802004F0C8FF9E
:1007E000184B187804F0C4FF802004F0C1FFD92012
:1007F00004F0BEFF802004F0BBFFD22004F0B8FF5D
:10080000802004F0B5FFDB2004F0B2FF802004F06C
:10081000AFFF342004F0ACFF802004F0A9FFA62035
:1008200004F0A6FF802004F0A3FFA42004F0A0FFA2
:10083000802004F09DFFAF2004F09AFF04F08AFFAF
:1008400010BDC046C804002070B5002503E004F0C8
:1008500081FF0135EDB2032D16D82800FFF7E1FE28
:100860000020FFF7F0FE04F06BFF782004F080FF1B
:10087000402004F07DFF0024832CE8D8002004F001
:1008800077FF0134E4B2F7E770BD020000210020D9
:1008900005E040000123134018435210013107299D
:1008A000F7DD704770B515008400041B64007F34C9
:1008B0000320401AC0B2FFF7B4FEE0B2FFF7C3FE58
:1008C00004F03EFF782004F053FF402004F050FF76
:1008D0000024042C0DDCAB005B190421091B5B1800
:1008E000074AD05CFFF7D1FFC0B204F041FF0134EA
:1008F000EFE7002004F03CFF04F02CFF70BDC04681
:10090000CC04002010B500F029FC10BD70B50E001D
:1009100014002278002A06D0451C01343100FFF76C
:10092000F1FF2800F5E770BD30B585B004000D007B
:10093000054901A808F05AF901AA29002000FFF78B
:10094000E5FF05B030BDC046082E01107047704766
:1009500070470000024BDA79598852185A80704764
:10096000142B0120054B588899790902DA790A433A
:100970005A80020A9A71D8717047C046142B012020
:10098000024A5388013B93807047C046142B0120D4
:10099000024A9388013353807047C046142B0120CC
:1009A0000F4A9379D371127A02218A43002B0CD11A
:1009B00004210A430A490A725BB2002B0ADB084A87
:1009C000137A08218B431372704704218A43044928
:1009D0000A72F1E7024A137A08210B431372F3E714
:1009E000142B01200F4AD3799371127A02218A4382
:1009F000002B0CD104210A430A490A725BB2002B76
:100A00000ADB084A137A08218B43137270470421CA
:100A10008A4304490A72F1E7024A137A08210B4318
:100A20001372F3E7142B0120054A137A3F218B43FD
:100A30001900062010563F2303400B4313727047E2
:100A4000142B0120014B1A7A9A717047142B012044
:100A5000024A137A01218B4313727047142B012031
:100A6000024A137A01210B4313727047142B0120A1
:100A7000024A137A10210B4313727047142B012082
:100A8000024A137A10218B4313727047142B0120F2
:100A9000092802D0342812D070470B4A5388013BF2
:100AA0009BB25380002B04D1137A04210B431372A1
:100AB000F2E7054A137A04218B431372ECE7024AEA
:100AC0009388013B9380E7E7142B0120082802D08C
:100AD000312812D070470B4A538801339BB25380A0
:100AE000002B04D1137A04210B431372F2E7054A59
:100AF000137A04218B431372ECE7024A9388013383
:100B00009380E7E7142B012053B2002B09DB12B2CC
:100B10002038C3B20F2B00D989E09800594B1B58DD
:100B20009F46013AFF3AF3E757490B889A1801327A
:100B30000A8080E0544B1B7A0521194200D076E0F0
:100B400051490B889A1801320A8074E04E4B1B7A87
:100B5000052119426BD04C490B889A1801320A8042
:100B600069E0494B1B7ADB0761D447490B889A1827
:100B700001320A805FE0444B1B7ADB0757D54249BC
:100B80000B889A1801320A8055E03F4B1B7A5B07AD
:100B90004DD43D490B889A1801320A804BE03A4BFC
:100BA0001B7A5B0743D538490B889A1801320A80B3
:100BB00041E0354B1B7A9B0739D433490B889A188F
:100BC00001320A8037E0304B1B7A9B072FD52E4924
:100BD0000B889A1801320A802DE02B4B1B7A1B07D9
:100BE00025D429490B889A1801320A8023E0264B24
:100BF0001B7A1B071BD524490B889A1801320A80DF
:100C000019E0214B197A0A230B400A2B01D0002B43
:100C10000DD11D490B889A1801320A800BE01A4B3E
:100C2000197A0A230B40022B06D0082B04D0164A4F
:100C3000138801331380704713490B889A180132C7
:100C40000A80F8E7104B1B7A5907F0D40A210B40B1
:100C50000A2B01D0002BEAD10B490B889A180132DC
:100C60000A80E8E7084B1B7A590705D40A210B4094
:100C7000082B01D0022BDAD103490B889A180132D4
:100C80000A80D8E7102E0110142B012010B5224B3A
:100C90009A790F201040197A8B0628D5931D0928C0
:100CA00000D90633C80700D560339F2B00DD6033C1
:100CB000992B03DD0120014317480172190618D54D
:100CC0001548017A082421430172002B17D11248DC
:100CD000017A0424214301725A40120615D50E49A7
:100CE0000A7A022002430A720B4A937110BD130064
:100CF000D5E70948017A0824A1430172E5E70648CF
:100D0000017A0424A1430172E6E703490A7A02202A
:100D100082430A72E8E7C046142B0120094A917900
:100D2000D3794B43190A9171D3711B0604D5137AF9
:100D300001210B4313727047024A137A01218B433E
:100D40001372F8E7142B012030B52C4BD9799A791E
:100D5000531ADBB252B2002A28DB002A02DB48B267
:100D600000282FDB254C207A0225A8432072002B77
:100D70002CD1224C207A0425284320725BB2002B10
:100D80002ADB1E4C207A0825A8432072002A02DBA9
:100D900048B200282BDB49B2002923DB002B24DBDF
:100DA000164A137A01218B43137225E048B20028BA
:100DB000D3DB58B20028D0DB104C207A0225284320
:100DC0002072D4E758B20028CCDAF5E70B4C207A31
:100DD0000425A8432072D1E7084C207A082528432F
:100DE0002072D3E7002BD9DA01E0002AD8DB034ACE
:100DF000137A01210B43137230BDC046142B01201E
:100E000030B52C48C1798279531ADBB2837152B262
:100E1000002A28DB002A02DB48B200282FDB254C01
:100E2000207A0225A8432072002B2CD1214C207A55
:100E30000425284320725BB2002B2ADB1D4C207A4C
:100E40000825A8432072002A02DB48B200282BDBC9
:100E500049B2002923DB002B24DB164A137A012137
:100E60008B43137225E048B20028D3DB58B2002828
:100E7000D0DB104C207A022528432072D4E758B2E8
:100E80000028CCDAF5E70B4C207A0425A843207221
:100E9000D1E7084C207A082528432072D3E7002B9D
:100EA000D9DA01E0002AD8DB024A137A01210B4388
:100EB000137230BD142B012010B51B4A93791B020D
:100EC000D2791343D2071DD517490A7A012002436C
:100ED0000A725808144A127AD10719D502210A4316
:100EE00011490A72002818D10F490A7A04242243B2
:100EF0000A720D4A117A0824A14311725B0A937198
:100F0000D07110BD08490A7A012082430A72E0E7D5
:100F100002218A4304490A72E4E703490A7A042455
:100F2000A2430A72E5E7C046142B012022498A79C0
:100F30001202CB7913431AB2002A22DB1E490A7A25
:100F4000012082430A725B009BB2002B1ED11A491A
:100F50000A7A042002430A721AB2002A1CDB1649DC
:100F60000A7A082082430A72134A127A0921114030
:100F7000082917D0012915D002218A430E490A7287
:100F800014E00A7A012002430A72DCE70A490A7A6D
:100F9000042082430A72DFE707490A7A08200243E5
:100FA0000A72E1E702210A4303490A72024A190A56
:100FB0009171D3717047C046142B01206E2807D061
:100FC0007E2804D112021A43013A054B1A80704759
:100FD000034B5988521892B2013A1A80F7E7C0467B
:100FE000142B0120E8239B0098420ED040339842F6
:100FF00013D0803B984200D07047104B8022D20122
:101000001A600F4B00221A60F6E70C4A1368802121
:10101000C9018C4663441360EEE7094B1B68002B43
:1010200004D1074B802212021A60E5E78022D20128
:1010300094466344024A1360DEE7C046740E002003
:101040003426012010B51E4A136801331360C023F3
:101050009B00984207D04033984215D0813BFF3B1C
:10106000984225D010BD174B00221A70164B1A88D3
:10107000802111407F22114389B21980134B1868D7
:101080000822FFF790F9EDE70E4A13780133DBB23F
:1010900013700D48028880210A407F215940C9B24F
:1010A00011430180094B18680822FFF77CF9D9E742
:1010B000074B1A6801239340D02212069361D1E7AF
:1010C00048260120AB2601209A260120FC2D011084
:1010D000042E0110094B1A6801321A601A68084B75
:1010E0009A420ADD054B00221A60064A13685942EB
:1010F0004B411360044B01221A60704734210120D8
:101100009F860100382101203C210120C0235B0083
:10111000984204D08223FF33984205D07047034B96
:101120001B687F201840F9E70020F7E7D42501204D
:1011300070B50022042A0DDC83001B189B18064D95
:10114000EE5C8B005B189B18802464423443EC54A3
:101150000132EFE770BDC046CC0400200B0049000F
:10116000C918CB00591A0918024B5B5C0249CA54D2
:101170007047C046E0090020902B0220014B195413
:101180007047C046282B0120F0B583B05249534820
:101190000CF034FE002804D1514B1B68002B00D109
:1011A00088E04F4B00221A6000255FE04D4B1B6822
:1011B000002B69D04C4B1B68002B10D04B4B1B688D
:1011C000002B03D0019780277F005DE00224FF34CD
:1011D00021003800FFF7ACFF0197270054E0434B94
:1011E0001B68002B08D00224FF3421003800FFF7D1
:1011F0009FFF0197270047E00224FF3421003800B9
:10120000FFF796FF019727003EE0394B1A5D21005A
:101210001420FFF747FB0134032CF6DD7B1EFF3B58
:10122000012B08D97B1C334A9918D35C682293435D
:1012300003D0FAB202E0019FF4E720222E4B5A5568
:101240000B786822934301D0FFB200E020271421DD
:10125000280007F023FD04001421280007F01EFDDC
:10126000162044432548001947540135244B1B6878
:10127000AB421BDB03F0E0FF224B5B5D164AD75C01
:10128000214A1268934291D0204B1E6831002800F9
:1012900007F004FD04003100280007F0FFFC0800FF
:1012A0003A002100FFF7FEFA0024B5E70A490B488F
:1012B0000CF0E8FD002306E0162159430F4A5218AE
:1012C000002151750133032BF6DD0D4B1B680A4AD3
:1012D0000021D15403B0F0BD902B0220B026012094
:1012E0003C210120E025012038210120DC250120BE
:1012F000282B0120784C0110B42701202C2B012031
:10130000D8090020E0090020D4250120DC090020B4
:10131000F0B5C64600B5C0235B00984206D08223D4
:10132000FF3398425BD004BC9046F0BD4BB2002B1B
:1013300014DB0B00403BDBB23F2B1AD9072923D823
:10134000042942D201293ED00029ECD00239C9B289
:101350000129E8D8514B00221A60E4E77F231940A5
:101360004E4B19604E4B01221A604E4B00221A6000
:10137000D9E73F231940494B1960494B00221A60B5
:10138000484B01321A60CEE70B00083BDBB2072B5B
:10139000C9D88A1001231A40434802604A101340FA
:1013A000424A136001231940414B1960BBE7414A8F
:1013B0002021D1540133404A12689A42F7DA374B60
:1013C00000221A60AFE70023F5E74A10012313401B
:1013D0003A4A136001231940394B1960A3E7394B8E
:1013E00001221A602E4B1B68002B10D02B4B1B6860
:1013F000304AD154314A1268002A18D001229B1871
:10140000264A1360FF2B02DD1300FF221A60254BD2
:101410001B68002B00D186E7204B1D68EB175B0F84
:10142000EA1807261640F31A9C46002403E001221E
:101430005242E4E70134042C1EDCEA170723134070
:101440005B19DB109A00D3181B190122904610007B
:101450006246904040B21C4FFA5C824352B2FA544A
:1014600004273F1B0E003E41370046463E42E1D076
:1014700002431548C254DDE7104B1B68002B09D00E
:101480000123ED18054B1D60502D00DC4BE7502269
:101490001A6048E701235B42F3E7C046D4250120E8
:1014A000EC250120E8250120AC210120E0250120C8
:1014B000DC250120902B0220D8090020D82501200E
:1014C000E42501203C210120CC04002003B2002BA4
:1014D0000DDB0F4B0122DA6018828023DB0198427A
:1014E00002D30C4B1B68C0180B4BC0187047C023AD
:1014F0001B02984205D9094B9C466044084BC01812
:10150000F4E7064B9C466044064B1B68C018F5E7A1
:10151000142B0120740E00208C2B01200080FFFF73
:10152000780E00203426012010B50023002000E0B2
:101530000133072B0EDC40089A000E495158D02287
:1015400012065268CA40D207F2D580225242104396
:10155000C0B2EDE7084B1B6896225200934208DAAE
:10156000064A5900E2248C54521850700133024A42
:10157000136010BD340E002070260120B828012011
:1015800010B5144B1B6896225200934208DA124A97
:10159000590012248C545218507001330D4A1360B4
:1015A000002309E09A000D49515801228A40D021B8
:1015B00009068A6140080133072B0ADCC207F1D50E
:1015C0009A000649515801228A40D02109064A61F1
:1015D000F0E710BD70260120B8280120340E00204D
:1015E00030B583B000230193019C002CFCD1204B2B
:1015F0001B6896225200934208DA1E4A5900D225EF
:101600008D54521850700133194A13600323184047
:1016100003281FD1184B1A6801239340D0221206C9
:1016200053617D30FEF710FF08E0A200134BD25843
:1016300001239340D022120653620134072CF4DDBB
:1016400014E0A2000D4BD25801239340D022120681
:1016500093620134072CF4DD074B1A680123934091
:10166000D022120693618020FEF7EEFE03B030BD5B
:1016700070260120B8280120002E0110340E002011
:10168000014B18787047C046AA26012070B50500A6
:10169000354B1870354B1B6896225200934208DA7E
:1016A000334A5900162088545218557001332F4A76
:1016B0001360002441E0EB0703D40820FEF79EFEF0
:1016C00039E00820FEF7C0FE35E0EB0704D58020A6
:1016D0000001FEF793FE2EE080200001FEF7B4FE2D
:1016E00029E0EB0704D580204001FEF787FE22E0C9
:1016F00080204001FEF7A8FE1DE0EB0704D5802006
:101700008001FEF77BFE16E080208001FEF79CFE44
:1017100011E0EB0703D51020FEF770FE0BE0102060
:10172000FEF792FE07E0EA0715D501229A40130062
:10173000D022120653616D080134072C12DCA3007D
:101740000C4A9B58632BEED9643B042BF3D89B00C7
:10175000094AD3589F4601229A401300D02212060C
:101760009361E8E770BDC046AA26012070260120DB
:10177000B8280120540E0020502E011030B583B03F
:10178000040000230193019B002BFCD1254A126821
:10179000962149008A4208DA23495000D62545544B
:1017A00009184C7001321F490A60002C13D14020E7
:1017B000FEF724FE80200001FEF720FE802040017D
:1017C000FEF71CFE80208001FEF718FE1020FEF7B9
:1017D00015FE18E00133072B0BDC9A001349525811
:1017E000632AF7D8012191400A00D02109064A62F4
:1017F000F0E74020FEF728FE0D4B1878FFF746FF74
:1018000003B030BD0134072CFADCA300074A9B5813
:10181000632BF7D801229A401300D022120693625C
:10182000F0E7C04670260120B8280120540E0020A1
:10183000AA26012010B50200172809D8032830D3A2
:10184000C31E99B214292CD88B004149CB589F460E
:10185000C0239B00984234D00FD9D8239B009842D4
:1018600007D02BD9E8239B00984202D040339842FE
:1018700017D1FFF7B7FB002029E07F3BFF3B9842E1
:101880000CD3E0235B0098420BD1324B1A68012342
:101890009340D02212069361002018E0023B984248
:1018A00024D203B2002B42DB8023DB01984202D317
:1018B000294B1A688218294B985C08E0203B984213
:1018C000EFD1FFF7BFFB002001E0254B187810BDDA
:1018D000244B1888000AFAE7224B1878F7E7224BC6
:1018E0001888000AF3E7204B1878F0E7FFF70EFCA2
:1018F000EDE71E4B1868FEF739FD7F235840C0B254
:101900000123984303007F20184014494875D023D1
:101910001B065A68520B01231340DB01184348751C
:10192000D5E7FFF701FED2E7FFF7AAFECFE7C02316
:101930001B02984205D90E4B9C4660440D4B185C27
:10194000C5E70B4B9C4660440B4B1B68C018F5E782
:10195000642E0110042E0110740E00208C2B012027
:10196000AC260120A2260120A0260120F82D01107E
:101970000080FFFF780E00203426012010B56D286E
:101980002FD01FD84D2837D05D2800D13149324A99
:10199000137A02208343013883431372D268002AEA
:1019A0002CD10A78002A4AD1042213432A4A1372FE
:1019B0000023CB56002B47DB274A137A08218B43A1
:1019C000137210BD7D28E2D11202D21890B2FFF737
:1019D0007DFD0100204A138801339BB2013313803F
:1019E000D5E71D4C6088801880B2FFF76FFD0100BD
:1019F000238801332380CAE71849C8E7164C208A98
:101A0000FFF718FF0023E36000280CD1124A137A75
:101A100004210B43137203060BD40F4A137A0821D7
:101A20008B431372CDE70C4A137A04218B43137254
:101A3000F1E7094A137A08210B431372C1E7042224
:101A40009343054A1372B3E7034A137A08210B4301
:101A50001372B6E71B2B0120142B01201A2B012037
:101A600010B50400172808D803B2002B2CD0172873
:101A70002AD88300364AD3589F46C0239B009842F9
:101A80002FD00ED9D8239B00984207D026D9E8231F
:101A90009B00984202D04033984215D1FFF7A2FA3A
:101AA00024E07F3BFF3B98420BD3E0235B0098424E
:101AB0000AD1284B1A6801239340D0221206936161
:101AC00014E0023B984230D28023DB01984202D3DB
:101AD000214B1C680419214B195507E0203B984203
:101AE000F2D1FFF7AFFA01E01D4B197010BD1D4A8E
:101AF0001088FF230340090219431180F6E7194BB0
:101B00001888FF22904301431980EFE7164A108896
:101B1000FF230340090219431180E7E7124B18889D
:101B2000FF22904301431980E0E7FFF7F1FBDDE777
:101B30000800FFF725FDD9E70800FFF751FDD5E7BD
:101B40000800FFF7A3FDD1E70800FFF717FECDE778
:101B5000B82E0110042E0110740E00208C2B0120D1
:101B6000AC260120A2260120A026012070B56A28FB
:101B70003AD02AD84A2842D05A2800D1304C23786B
:101B8000802B3ED02F4A137A02218B4313722D4BA8
:101B9000DB68002B3BD121780139C9B22170294B78
:101BA000DB68002B38D12378002B3CD1254A137AEF
:101BB00004210B4313720023E356002B39DB214A27
:101BC000137A08218B43137270BD7A28D7D1120281
:101BD000D21890B2FFF77AFC04001A4A1388013336
:101BE0009BB201331380CAE7164D6888801880B213
:101BF000FFF76CFC04002B8801332B80BFE7124CED
:101C0000BDE7104A137A02210B431372BFE70D4B55
:101C1000188AFFF70FFEBEE70A4D288AFFF720FF5C
:101C20000023EB60BFE7074A137A04218B4313724A
:101C3000C1E7044A137A08210B431372C4E7C04674
:101C40001B2B0120142B01201A2B012070B56C28AE
:101C50003AD02AD84C2842D05C2800D1304C314BA5
:101C6000DB68002B3DD121780131C9B221702D4BA9
:101C7000DB68002B3AD12378802B3ED0294A137A97
:101C800002218B4313722378002B3CD1254A137A0F
:101C900004210B4313720023E356002B39DB214A46
:101CA000137A08218B43137270BD7C28D7D112029E
:101CB000D21890B2FFF70AFC04001A4A13880133C5
:101CC0009BB201331380CAE7164D6888801880B232
:101CD000FFF7FCFB04002B8801332B80BFE7124C7D
:101CE000BDE7104B188AFFF7A5FDBCE70D4D288A0C
:101CF000FFF7B6FE0023EB60BDE70A4A137A022124
:101D00000B431372BFE7074A137A04218B43137204
:101D1000C1E7044A137A08210B431372C4E7C04693
:101D20001B2B0120142B01201A2B012010B56F282A
:101D300027D017D84F282FD05F2800D11B491C4B24
:101D4000DB68002B2AD100230B70194A137A022179
:101D50008B4301398B4304210B43DBB208218B43B6
:101D6000137210BD7F28EAD11202D21890B2FFF789
:101D7000ADFB01000E4A138801339BB2013313807F
:101D8000DDE70B4C6088801880B2FFF79FFB0100F5
:101D9000238801332380D2E70649D0E7044C208A08
:101DA0000021FFF75DFE0023E360CEE71B2B01203F
:101DB000142B01201A2B012070B5602842D032D894
:101DC00040284AD0502800D1374C384BDB68002BD4
:101DD00045D121784942C9B22170344BDB68002BD0
:101DE00042D12378802B46D0304A137A02218B438C
:101DF00013722378002B44D02C4A137A01210B4311
:101E000013722378002B42D1284A137A04210B4302
:101E100013720023E356002B3FDB244A137A082178
:101E20008B43137270BD7028CFD11202D21890B2BA
:101E3000FFF74CFB04001D4A138801339BB20133AA
:101E40001380C2E7194D6888801880B2FFF73EFB07
:101E500004002B8801332B80B7E7154CB5E7134BF3
:101E6000188AFFF7E7FCB4E7104D288AFFF7F8FD62
:101E70000023EB60B5E70D4A137A02210B4313727E
:101E8000B7E70A4A137A01218B431372B9E7074A6D
:101E9000137A04218B431372BBE7044A137A082197
:101EA0000B431372BEE7C0461B2B0120142B0120ED
:101EB0001A2B012070B5682847D037D848284FD052
:101EC000582800D1394C0023E356002B4ADB384A0E
:101ED000137A01218B431372354BDB68002B47D1FA
:101EE00021784900C9B22170314BDB68002B44D105
:101EF0002378002B48D12E4A137A04210B43137206
:101F00000023E356002B45DB294A137A08218B4333
:101F10001372274B1B7A09221A40082A40D0012A43
:101F20003ED002229343224A13723DE07828CAD160
:101F30001202D21890B2FFF7C9FA04001C4A1388A3
:101F400001339BB201331380BDE7194D68888018B7
:101F500080B2FFF7BBFA04002B8801332B80B2E775
:101F6000144CB0E7124A137A01210B431372B3E702
:101F70000F4B188AFFF75EFCB2E70D4D288AFFF77A
:101F80006FFD0023EB60B3E7094A137A04218B430A
:101F90001372B5E7064A137A08210B431372B8E7A8
:101FA00002221343024A137270BDC0461B2B01204C
:101FB000142B01201A2B012070B5632839D029D8A1
:101FC000432841D0532800D12C4C2D4BDB68002BEB
:101FD0003CD12178C943C9B22170294BDB68002B61
:101FE00039D1274A137A02218B4301210B43DBB2FB
:101FF00013722278002A35D104221343204A137227
:102000000023E356002B32DB1D4A137A08218B4351
:10201000137270BD7328D8D11202D21890B2FFF794
:1020200055FA0400164A138801339BB2013313801A
:10203000CBE7134D6888801880B2FFF747FA040099
:102040002B8801332B80C0E70E4CBEE70C4B188A5F
:10205000FFF7F0FBBDE70A4D288AFFF701FD0023DB
:10206000EB60BEE704229343054A1372C8E7044AB3
:10207000137A08210B431372CBE7C0461B2B0120B8
:10208000142B01201A2B012070B564283DD02DD8C7
:10209000442845D0542800D1314C2378DB0741D562
:1020A000304A137A01210B4313722E4BDB68002B4D
:1020B0003ED12178490821702A4BDB68002B3CD1A6
:1020C000284B1B7ADA073FD502221343254A1372A5
:1020D0002378002B3DD1234A137A04210B4313723A
:1020E000204A137A08218B43137270BD7428D4D10F
:1020F0001202D21890B2FFF7E9F90400194A1388C6
:1021000001339BB201331380C7E7164D68888018EE
:1021100080B2FFF7DBF904002B8801332B80BCE78A
:10212000114CBAE70F4A137A01218B431372BCE7B3
:102130000C4B188AFFF77EFBBBE70A4D288AFFF796
:102140008FFC0023EB60BBE702229343054A137226
:10215000BEE7044A137A04218B431372C0E7C046DA
:102160001B2B0120142B01201A2B012070B567288E
:1021700044D034D847284CD0572800D1354C237848
:10218000DB0748D5344A137A01210B431372324BD3
:10219000DB68002B45D123785B08237040221A426C
:1021A00002D0C03A134323702B4BDB68002B3DD188
:1021B0002378002B42D1284A137A04210B4313724F
:1021C000254B1B7A0822934301321A40082A3BD040
:1021D000012A39D0022293431F4A137238E077282C
:1021E000CDD11202D21890B2FFF770F904001A4A4A
:1021F000138801339BB201331380C0E7164D688802
:10220000801880B2FFF762F904002B8801332B801D
:10221000B5E7124CB3E7104A137A01218B431372CE
:10222000B5E70D4B188AFFF705FBB4E721780A4D97
:10223000288AFFF715FC0023EB60B9E7064A137AFA
:1022400004218B431372BBE702221343024A137229
:1022500070BDC0461B2B0120142B01201A2B01201E
:1022600070B569284FD03FD8492857D0592800D198
:102270003D4C3E4B1B7A01251D400022A256002AF0
:102280004EDB01229343394A1372384BDB68002B33
:102290004BD123785B00DBB22370002D02D00122EA
:1022A00013432370314BDB68002B43D12378002B81
:1022B00048D12E4A137A04210B4313720023E356AC
:1022C000002B45DB294A137A08218B431372274BD5
:1022D0001B7A09221A40082A40D0012A3ED0022245
:1022E0009343224A13723DE07928C2D11202D218D8
:1022F00090B2FFF7EBF804001C4A138801339BB23D
:1023000001331380B5E7194D6888801880B2FFF754
:10231000DDF804002B8801332B80AAE7144CA8E7D2
:1023200001221343114A1372AFE7104B188AFFF7CB
:1023300081FAAEE721780D4D288AFFF791FB002343
:10234000EB60B3E7094A137A04218B431372B5E7B4
:10235000064A137A08210B431372B8E7022213438B
:10236000024A137270BDC0461B2B0120142B0120A2
:102370001A2B012070B566284ED03ED8462856D07C
:10238000562800D13C4C3D4B1B7A012215001D40C4
:1023900021780A424DD01343384A1372374BDB6819
:1023A000002B4BD123785B082370002D03D08022B3
:1023B000524213432370314BDB68002B43D1237807
:1023C000002B48D12D4A137A04210B4313720023AA
:1023D000E356002B45DB294A137A08218B431372FD
:1023E000264B1B7A09221A40082A40D0012A3ED0E7
:1023F00002229343214A13723DE07628C3D1120290
:10240000D21890B2FFF762F804001C4A1388013317
:102410009BB201331380B6E7184D6888801880B2EC
:10242000FFF754F804002B8801332B80ABE7144CE2
:10243000A9E701229343114A1372AFE70F4B188AA1
:10244000FFF7F8F9AEE721780C4D288AFFF708FB73
:102450000023EB60B3E7094A137A04218B4313721C
:10246000B5E7064A137A08210B431372B8E7022234
:102470001343024A137270BD1B2B0120142B012041
:102480001A2B012010B50200C1235B00984211D223
:10249000023B984243D2152844D004D9172831D1A1
:1024A000FFF7EEF805E0032854D008282AD1334B73
:1024B000187810BDD0239B0098421CD00AD9E8237D
:1024C0009B00984202D04033984218D1FEF78AFD13
:1024D0000020EEE7813BFF3B984208D1284B1A6869
:1024E00001239340D022120693610020E1E741339B
:1024F000FF33984206D1FEF7A5FD0020D9E7803BC7
:102500009842E3D003B2002B27DB8023DB01984203
:1025100002D31C4B1A6882181B4B985CC9E7FEF764
:10252000F5FDC6E7194B1868FDF720FF7F235840DB
:10253000C0B20123984303007F2018401249487518
:10254000D0231B065A68520B01231340DB011843AA
:102550004875AEE7FEF7E8FFABE7C0231B029842E1
:1025600005D90B4B9C4660440A4B185CA1E7084B0D
:102570009C466044084B1B68C018F5E7AC26012058
:10258000042E0110740E00208C2B0120F82D011058
:102590000080FFFF780E00203426012010B51400C3
:1025A00000216B2819D07B2820D0194A13880133C9
:1025B0009BB201331380137A022293434AB2002A5A
:1025C0001ADB08229343124A1372002919D1104AC8
:1025D000137A04210B43137210BD0D4A5088C018A2
:1025E00080B2FFF74FFF21000140DEE798B2FFF70E
:1025F00049FF21000140D8E708221343044A13721F
:10260000E3E7034A137A04218B431372E4E7C046DD
:10261000142B012010B533280DD0382814D03228BF
:1026200000D010BD134CA088013080B2A080FFF70D
:1026300029FFA071F5E70F4CA088013080B2A0807F
:10264000FFF720FFE071ECE70A4CA088013080B270
:10265000A080FFF717FF80B200026080A0880130E1
:1026600080B2A080FFF70EFF80B26388C018608040
:10267000D7E7C046142B012070B50024C42800D130
:102680006AE020D8A4285BD00FD9B4283FD1120229
:102690009B1898B2FFF7F6FE84B23E490B880133CF
:1026A0009BB201330B80063131E0842829D0942875
:1026B0002DD190B2FFF7E6FE84B236490B88013384
:1026C0000B80063123E0E4284DD0F4280DD112020E
:1026D0009B1898B2FFF7D6FE84B22E490B880133BF
:1026E0009BB201330B80073111E0D4280FD190B297
:1026F000FFF7C8FE84B227490B8801330B800731EE
:1027000005E094B223490B8801330B800631087829
:10271000204008701F4A137A0220834313720A78FC
:10272000002A2CD1042213431A4A13720023CB56D9
:10273000002B29DB174A137A08218B43137270BDD3
:10274000144D6888101880B2FFF79CFE84B22B8865
:1027500001332B80A91DDAE794B20E490B880133AF
:102760000B800731D3E70B4D6888101880B2FFF754
:1027700089FE84B22B8801332B80E91DC7E7042230
:102780009343044A1372D1E7024A137A08210B4398
:102790001372D4E7142B012070B50024C82800D18F
:1027A0006AE020D8A8285BD00FD9B8283FD1120200
:1027B0009B1898B2FFF766FE84B23E490B8801333E
:1027C0009BB201330B80063131E0882829D098284C
:1027D0002DD190B2FFF756FE84B236490B880133F3
:1027E0000B80063123E0E8284DD0F8280DD11202E5
:1027F0009B1898B2FFF746FE84B22E490B8801332E
:102800009BB201330B80073111E0D8280FD190B271
:10281000FFF738FE84B227490B8801330B8007315C
:1028200005E094B223490B8801330B800631087808
:10283000604008701F4A137A0220834313720A789B
:10284000002A2CD1042213431A4A13720023CB56B8
:10285000002B29DB174A137A08218B43137270BDB2
:10286000144D6888101880B2FFF70CFE84B22B88D4
:1028700001332B80A91DDAE794B20E490B8801338E
:102880000B800731D3E70B4D6888101880B2FFF733
:10289000F9FD84B22B8801332B80E91DC7E70422A0
:1028A0009343044A1372D1E7024A137A08210B4377
:1028B0001372D4E7142B012070B50024CA2800D16C
:1028C0006AE020D8AA285BD00FD9BA283FD11202DB
:1028D0009B1898B2FFF7D6FD84B23E490B880133AE
:1028E0009BB201330B80063131E08A2829D09A2827
:1028F0002DD190B2FFF7C6FD84B236490B88013363
:102900000B80063123E0EA284DD0FA280DD11202BF
:102910009B1898B2FFF7B6FD84B22E490B8801339D
:102920009BB201330B80073111E0DA280FD190B24E
:10293000FFF7A8FD84B227490B8801330B800731CC
:1029400005E094B223490B8801330B8006310878E7
:10295000204308701F4A137A0220834313720A78B7
:10296000002A2CD1042213431A4A13720023CB5697
:10297000002B29DB174A137A08218B43137270BD91
:10298000144D6888101880B2FFF77CFD84B22B8844
:1029900001332B80A91DDAE794B20E490B8801336D
:1029A0000B800731D3E70B4D6888101880B2FFF712
:1029B00069FD84B22B8801332B80E91DC7E704220F
:1029C0009343044A1372D1E7024A137A08210B4356
:1029D0001372D4E7142B012010B50021C52800D1B3
:1029E00067E020D8A52858D00FD9B5283FD11002CC
:1029F000181880B2FFF746FD81B23D4C23880133A1
:102A00009BB201332380063431E0852829D09528F4
:102A10002DD190B2FFF736FD81B2354C23880133BA
:102A20002380063423E0E5284AD0F5280DD1100292
:102A3000181880B2FFF726FD81B22D4C2388013390
:102A40009BB201332380073411E0D5280FD190B217
:102A5000FFF718FD81B2264C238801332380073409
:102A600005E091B2224C23880133238006340020F4
:102A70002056084040B21E4B1B7A02229343002886
:102A80002AD1042213431A4A1372002829DB184A58
:102A9000137A08218B43137210BD154C60881018EF
:102AA00080B2FFF7EFFC81B2238801332380063424
:102AB000DDE791B20E4C2388013323800734D6E73B
:102AC0000B4C6088101880B2FFF7DCFC81B22388C1
:102AD000013323800734CAE704229343044A137264
:102AE000D3E7034A137A08210B431372D4E7C04695
:102AF000142B012070B50021E3286AD015D8C32813
:102B00002CD0D32833D194B22000FFF7BBFC0500B2
:102B1000601CFFF7B7FC2D02A9B280B2091889B278
:102B20004F4A13880133138021E0F3281FD112028A
:102B30009A1894B22000FFF7A5FC05000134A0B25A
:102B4000FFF7A0FC2D02A9B280B2091889B2444A4D
:102B5000138801339BB20133138008E012029A18E4
:102B600091B23F4A138801339BB2013313803C4A30
:102B700093791B02D07902001A43521892B2034390
:102B80008024240218002040234202D00BB2002BE4
:102B900034DB002805D10BB2002B02DB13B2002B73
:102BA0002FDB2F4C237A0225AB432372002802D05F
:102BB0000BB2002B2EDB09B2002928DB13B2002B4D
:102BC00001DB002826D126490B7A012083430B72B2
:102BD00025E0234E74881419A4B22000FFF752FC9C
:102BE00005000134A0B2FFF74DFC2D02A9B280B25E
:102BF000091889B2338801333380B8E713B2002B48
:102C0000C7DB174C237A02252B432372CEE713B27E
:102C1000002BD3DB12490B7A012003430B72002AED
:102C200011D10F490B7A042003430B7213B2002B0E
:102C30000FDB0B490B7A082083430B72084B110AF8
:102C40009971DA7170BD06490B7A042083430B72C7
:102C5000ECE703490B7A082003430B72EEE7C0460A
:102C6000142B012070B50021AC285AD015D88C281F
:102C70002CD09C2833D194B22000FFF703FC050030
:102C8000601CFFF7FFFB2D02A9B280B2091889B2C0
:102C90004A4A13880133138021E0BC281FD1120255
:102CA0009A1894B22000FFF7EDFB05000134A0B2A2
:102CB000FFF7E8FB2D02A9B280B2091889B23F4A9A
:102CC000138801339BB20133138008E012029A1873
:102CD00091B23A4A138801339BB201331380374BC8
:102CE0005A88531A9BB212B2002A2FDB002A02DB49
:102CF00008B2002836DB314C207A0225A843207226
:102D0000002A02DB08B2002836DB09B200292DDBDD
:102D100019B200292EDB29490A7A012082430A725E
:102D20002FE0264E74881419A4B22000FFF7AAFBE6
:102D300005000134A0B2FFF7A5FB2D02A9B280B2B5
:102D4000091889B2338801333380C8E708B20028F4
:102D5000CCDB18B20028C9DB184C207A02252843A6
:102D60002072CDE718B20028C5DAF5E719B20029BC
:102D7000CEDA01E0002ACEDB10490A7A01200243B4
:102D80000A72002B0DD10D490A7A042002430A72FF
:102D90001BB2002B0BDB094A137A08218B431372F9
:102DA00070BD06490A7A042082430A72F0E7034A9A
:102DB000137A08210B431372F2E7C046142B01204B
:102DC00070B50021A32853D015D883282CD0932880
:102DD00033D194B22000FFF755FB0500601CFFF7CC
:102DE00051FB2D02A9B280B2091889B2504A13884A
:102DF0000133138021E0B3281FD112029A1894B234
:102E00002000FFF73FFB05000134A0B2FFF73AFBBB
:102E10002D02A9B280B2091889B2454A138801333C
:102E20009BB20133138008E012029A1891B2404A13
:102E3000138801339BB2013313803D4A93791B02FF
:102E4000D07902001A43521A92B20343802424021A
:102E500018002040234220D00BB2002B1DDB13B200
:102E6000002B1ADB324C237A02252B4323721EE0FF
:102E70002F4E74881419A4B22000FFF703FB05003D
:102E80000134A0B2FFF7FEFA2D02A9B280B20918F0
:102E900089B2338801333380CFE7002802D10BB2E7
:102EA000002B28DB224C237A0225AB432372002817
:102EB00002D10BB2002B28DB09B200291FDB13B2B1
:102EC000002B20DB1A490B7A012083430B72002A66
:102ED00021D117490B7A042003430B7213B2002B44
:102EE0001FDB13490B7A082083430B72104B110A26
:102EF0009971DA7170BD13B2002BD3DAB2E713B255
:102F0000002BDCDA01E00028DCD109490B7A012032
:102F100003430B72DBE706490B7A042083430B72F1
:102F2000DCE703490B7A082003430B72DEE7C04657
:102F3000142B012010B51F4CA088013080B2A08056
:102F4000FFF7A0FA2072A088013080B2A080FFF7BE
:102F500099FAE071A088013080B2A080FFF792FA60
:102F6000A071A088013080B2A080FFF78BFA80B2F8
:102F700000026080A088013080B2A080FFF782FA52
:102F800080B2638818436080A088013080B2A0803E
:102F9000FFF778FA80B200022080A088013080B26A
:102FA000A080FFF76FFA80B2238818430138208091
:102FB00010BDC046142B012010B50B4CA088013069
:102FC00080B2A080FFF75EFA80B200022080A08865
:102FD000013080B2A080FFF755FA80B223881843F1
:102FE0000138208010BDC046142B012070B5EC289C
:102FF00046D011D8CC2824D0DC282AD195B228007C
:10300000FFF740FA2E4CA071681CFFF73BFAE07105
:103010002388013323801CE0FC281AD11202D21825
:1030200094B22000FFF72EFA254DA8710134A0B20A
:10303000FFF728FAE8712B8801339BB201332B800C
:1030400007E01F498A71CB710B8801339BB20133B2
:103050000B801B490A7A02239A438B791B02C97998
:103060000B4321D104210A4315490A72802212021E
:1030700013421ED0124A137A08210B43137270BDFB
:103080000F4D688894B2101880B2FFF7FBF9A87151
:103090006888201880B2013080B2FFF7F3F9E87138
:1030A0002B8801332B80D4E704218A4304490A7218
:1030B000DCE7034A137A08218B431372DFE7C0462B
:1030C000142B012070B5C92800D18AE022D8A92884
:1030D00000D17AE010D9B92840D1120290B2C018BC
:1030E00080B2FFF7CFF9020069490B8801339BB228
:1030F00001330B80063131E089282AD099282DD15F
:1031000090B2FFF7BFF9020061490B8801330B80D1
:10311000063123E0E9286AD0F9280ED1120290B2D4
:10312000C01880B2FFF7AEF9020059490B8801338D
:103130009BB201330B80073110E0D9280ED190B239
:10314000FFF7A0F9020052490B8801330B800731C9
:1031500004E04F490B8801330B80063108784C4B53
:103160001C7A012323409B18DBB21B18DBB20B70C7
:1031700044B2002C47DB002C01DB15064ED4444D35
:103180002B7A0226B3432B720B78002B4AD1404D89
:103190002B7A042633432B720023CB56002B47DBBC
:1031A0003B4D2B7A0826B3432B72002C46DB1306CB
:1031B00047D40023CB56002B01DB002C45DB344CDD
:1031C000237A0125AB43237244E0314C6088801898
:1031D00080B2FFF757F90200238801332380A11D35
:1031E000BCE72B490B8801330B800731B6E7284C2D
:1031F0006088801880B2FFF745F902002388013308
:103200002380E11DAAE71506B5D45DB2002DB2DB1F
:103210001F4D2B7A022633432B72B5E75BB2002B8E
:10322000ADDAF5E71A4D2B7A0426B3432B72B3E7D8
:10323000174D2B7A082633432B72B6E71306B6D503
:1032400003E00023CB56002BB3DB114C237A01257E
:103250002B43237208231C000440034201D01307B0
:1032600009D4130702D50B781B0704D50B781B076D
:1032700007D4002C05D0064A137A20210B43137281
:1032800070BD034A137A20218B431372F8E7C046BE
:10329000142B012070B5BB2800D17FE014D9EB2896
:1032A00000D190E02BD9FB283AD1120290B2C0187D
:1032B00080B2FFF7E7F8020069490B8801339BB23F
:1032C00001330B8007312BE09B285DD00DD9AB2853
:1032D00026D1634C6088801880B2FFF7D3F80200D3
:1032E000238801332380A11D1AE01B2815D08B28C9
:1032F00016D15B490B8801330B80063110E0CB28D7
:103300005BD0DB280CD190B2FFF7BCF80200544927
:103310000B8801330B80073102E05149CA7906312D
:1033200008781318DBB20B7044B2002C57DB002C6A
:1033300004DB150602D45BB2002B55DB484D2B7A1B
:103340000226B3432B720B78002B53D1444D2B7ABA
:10335000042633432B720023CB56002B50DB404D09
:103360002B7A0826B3432B72002C4FDB130650D464
:103370000023CB56002B01DB002C4EDB384C237A8C
:103380000125AB4323724DE090B2FFF77BF80200BA
:1033900033490B8801330B800631C1E7120290B22A
:1033A000C01880B2FFF76EF802002D490B88013378
:1033B0009BB201330B800631B2E729490B880133F8
:1033C0000B800731ACE7264C6088801880B2FFF78D
:1033D00059F80200238801332380E11DA0E7150678
:1033E000A5D55DB2002DA2DB1D4D2B7A02263343FD
:1033F0002B72A8E71A4D2B7A0426B3432B72AAE747
:10340000174D2B7A082633432B72ADE71306ADD543
:1034100003E00023CB56002BAADB114C237A0125B5
:103420002B43237208231C000440034201D01307DE
:1034300009D4130702D50B781B0704D50B781B079B
:1034400007D4002C05D0064A137A20210B431372AF
:1034500070BD034A137A20218B431372F8E7C046EC
:10346000142B012010B5C62800D169E021D8A62868
:103470005AD010D9B62840D1120290B2C01880B2EA
:10348000FFF700F802003D4C238801339BB2013363
:103490002380063431E086282AD096282DD190B298
:1034A000FEF7F0FF0200354C2388013323800634F9
:1034B00023E0E6284AD0F6280ED1120290B2C018B6
:1034C00080B2FEF7DFFF02002C4C238801339BB251
:1034D00001332380073410E0D6280ED190B2FEF7D6
:1034E000D1FF0200254C238801332380073404E0F8
:1034F000224C238801332380063420490B7A022092
:1035000083430B722270002A2CD10A000B7A04210B
:103510000B4313720023E356002B29DB174A137A5F
:1035200008218B43137210BD144C6088801880B240
:10353000FEF7A8FF02002388013323800634DCE76E
:103540000E4C2388013323800734D6E70B4C608868
:10355000801880B2FEF796FF020023880133238093
:103560000734CAE7054A137A04218B431372D1E763
:10357000024A137A08210B431372D4E7142B01205B
:1035800070B5C12800D17EE021D8A1286FD010D914
:10359000B12840D1120290B2C01880B2FEF772FF7B
:1035A000020055490B8801339BB201330B80063171
:1035B00031E081282AD091282DD190B2FEF762FF08
:1035C00002004D490B8801330B80063123E0E128CE
:1035D0005FD0F1280ED1120290B2C01880B2FEF76F
:1035E00051FF020044490B8801339BB201330B8029
:1035F000073110E0D1280ED190B2FEF743FF020050
:103600003D490B8801330B80073104E03A490B88B0
:1036100001330B8006310C78A31ADBB264B2002CA4
:1036200043DB002C01DB11064AD43348017A022522
:10363000A9430172002B47D12F48017A0425294361
:1036400001725BB2002B45DB2B49087A0825A843A1
:103650000872002C01DB110647D4120640D4002B5F
:1036600041DB254A137A01218B43137242E0224C3D
:103670006088801880B2FEF705FF020023880133BE
:103680002380A11DC7E71C490B8801330B8007313C
:10369000C1E7194C6088801880B2FEF7F3FE020083
:1036A000238801332380E11DB5E71106B9D459B24F
:1036B0000029B6DB1048017A022529430172B9E7D7
:1036C00059B20029B1DAF5E70B48017A0425A9437C
:1036D0000172B6E70848017A082529430172B8E764
:1036E000002BBCDA01E0002CBBDB034A137A01217A
:1036F0000B43137270BDC046142B012070B5C22855
:1037000000D18AE022D8A22800D17AE010D9B228CC
:1037100040D1120290B2C01880B2FEF7B3FE020090
:103720005B490B8801339BB201330B80063131E0DA
:1037300082282AD092282DD190B2FEF7A3FE020053
:1037400053490B8801330B80063123E0E2286AD00D
:10375000F2280ED1120290B2C01880B2FEF792FE8B
:1037600002004B490B8801339BB201330B800731B8
:1037700010E0D2280ED190B2FEF784FE0200444938
:103780000B8801330B80073104E041490B8801337A
:103790000B80063108783E4B1C7A012323409B188E
:1037A000DBB2C31ADBB20B7040B2002847DB002843
:1037B00001DB14064ED4364C237A0225AB43237228
:1037C0000B78002B4AD1324C237A04252B432372E9
:1037D0000023CB56002B47DB2D4C237A0825AB4327
:1037E0002372002801DB13064BD4130642D40023B6
:1037F000CB56002B43DB264A137A01218B431372ED
:1038000044E0234C6088801880B2FEF73BFE020043
:10381000238801332380A11DBCE71D490B88013398
:103820000B800731B6E71A4C6088801880B2FEF72B
:1038300029FE0200238801332380E11DAAE7140634
:10384000B5D45CB2002CB2DB114C237A02252B4399
:103850002372B5E75BB2002BADDAF5E70C4C237AA7
:103860000425AB432372B3E7094C237A08252B4385
:103870002372B6E70023CB56002BB8DA01E000280C
:10388000B9DB034A137A01210B43137270BDC046A2
:10389000142B012070B5C02800D183E021D8A028C6
:1038A00074D010D9B02840D1120290B2C01880B2A2
:1038B000FEF7E8FD020058490B8801339BB2013343
:1038C0000B80063131E080282AD090282DD190B28B
:1038D000FEF7D8FD020050490B8801330B800631FA
:1038E00023E0E02864D0F0280ED1120290B2C01874
:1038F00080B2FEF7C7FD020047490B8801339BB237
:1039000001330B80073110E0D0280ED190B2FEF7C2
:10391000B9FD020040490B8801330B80073104E0F8
:103920003D490B8801330B8006310B78981AC0B2E1
:1039300008705BB2002B47DB002B01DB14064ED472
:10394000354C207A0225A8432072087800284AD1F5
:10395000314C207A04252843207200200856002884
:1039600047DB2D4C207A0825A8432072002B01DB71
:1039700010064BD4120642D400228A56002A43DB9A
:10398000254A137A01218B43137244E0224C60884C
:10399000801880B2FEF776FD020023880133238071
:1039A000A11DC2E71C490B8801330B800731BCE71E
:1039B000194C6088801880B2FEF764FD02002388ED
:1039C00001332380E11DB0E71406B5D444B2002CC6
:1039D000B2DB114C207A022528432072B5E740B2B1
:1039E0000028ADDAF5E70C4C207A0425A8432072B4
:1039F000B3E7094C207A082528432072B6E7002255
:103A00008A56002AB8DA01E0002BB9DB024A137AA1
:103A100001210B43137270BD142B012003B2002B44
:103A200010DB8023DB0198422DD203001A4AD35CBD
:103A30001B021A4A90422AD80130174A105CC0185B
:103A400080B27047C0231B0298420FD9144BC31891
:103A5000144AD35C1B02144A90420DD9134A94466F
:103A60006044104A105CC01880B2EAE7104B1A6834
:103A70000B4BC3189B18EBE70C4A944660440C4A66
:103A800012688018EDE70B4B1B68C318CEE70130B6
:103A9000084A12688018D0E78C2B0120FE3F0000F6
:103AA0000080FFFF780E0020FFBF00000180FFFFB5
:103AB00034260120740E002070B50024CE2840D09A
:103AC00021D8AE2800D174E00FD9BE2843D110020E
:103AD000C01880B2FFF7A2FF040041490B880133F0
:103AE0009BB201330B80043135E08E2856D09E28DE
:103AF00031D190B2FFF792FF040039490B880133AE
:103B00000B80043127E0EE283CD0FE280DD11002B6
:103B1000C01880B2FFF782FF040031490B880133DF
:103B20009BB201330B80023115E0DE2813D190B235
:103B3000FFF774FF04002A490B8801330B80023120
:103B400009E012021A43140025490B8801339BB285
:103B500001330B8002310C80214A137A0220834307
:103B600013720A88002A30D1042213431C4A1372AC
:103B700000228B5E002B2DDB194A137A08218B4320
:103B8000137270BD164D6888801880B2FFF746FF2B
:103B900004002B8801332B80A91CDCE712021A4396
:103BA00014000F490B8801339BB201330B800431A1
:103BB000D1E70B4D6888801880B2FFF72FFF040013
:103BC0002B8801332B80291DC5E704229343044A27
:103BD0001372CDE7024A137A08210B431372D0E720
:103BE000142B012010B50200172808D803B2002BAF
:103BF00020D017281ED88300294CE3589F46C023A5
:103C00009B00984232D00ED9D8239B00984207D00F
:103C100029D9E8239B00984202D04033984209D129
:103C2000FDF7E0F912E07F3BFF3B98420FD2023BE9
:103C3000984221D203B2002B08DB8023DB0198429B
:103C400002D3184B1A688218174B995410BDE02301
:103C50005B009842EED1154B1A6801239340D022A5
:103C600012069361F2E7203B9842E3D1FDF7EAF9AF
:103C7000ECE70F4B1970DDE7FDF74AFBE6E70800BC
:103C8000FDF77EFCE2E70800FDF700FDDEE7080037
:103C9000FDF774FDDAE70800FDF7A2FCD6E7C046A1
:103CA000182F0110740E00208C2B0120042E0110FF
:103CB000AC260120F8B515000024622819D072281E
:103CC00027D01F4A138801339BB201331380137A24
:103CD0000222934362B2002A26DB08229343184A49
:103CE0001372002C25D1164A137A04210B43137248
:103CF000F8BD9EB2124F7888181880B2FEF7C2FB4A
:103D00000543ECB27888301880B22100FFF76AFFD3
:103D1000D7E79EB23000FEF7B5FB0543ECB22100B9
:103D20003000FFF75FFFCCE708221343044A137209
:103D3000D7E7034A137A04218B431372D8E7C046AE
:103D4000142B0120F8B515000026612819D0712820
:103D500027D01F4A138801339BB201331380137A93
:103D60000222934372B2002A26DB08229343184AA8
:103D70001372002E25D1164A137A04210B431372B5
:103D8000F8BD9CB2124F7888181880B2FEF77AFB03
:103D900005402E007888201880B22900FFF722FF06
:103DA000D7E79CB22000FEF76DFB05402E002900EE
:103DB0002000FFF717FFCCE708221343044A1372D1
:103DC000D7E7034A137A04218B431372D8E7C0461E
:103DD000142B0120F8B515000024652819D075288A
:103DE00027D01F4A138801339BB201331380137A03
:103DF0000222934362B2002A26DB08229343184A28
:103E00001372002C25D1164A137A04210B43137226
:103E1000F8BD9EB2124F7888181880B2FEF732FBB8
:103E20004540ECB27888301880B22100FFF7DAFE06
:103E3000D7E79EB23000FEF725FB4540ECB22100EB
:103E40003000FFF7CFFECCE708221343044A137279
:103E5000D7E7034A137A04218B431372D8E7C0468D
:103E6000142B012010B537280CD03C2812D036284E
:103E700000D010BD0F4B9888421E9A809979FFF7A9
:103E8000B1FEF6E70B4B9888421E9A80D979FFF76E
:103E9000A9FEEEE7074CA088431EA380A178FFF798
:103EA000A1FEA088431EA3806188090AFFF79AFE3D
:103EB000DFE7C046142B012010B5010000200024CC
:103EC000D72945D02CD8A72939D0B7290AD1120231
:103ED0001A4310002C4A9479138801339BB20133A2
:103EE000138007E0972905D190B2274B9C791A8857
:103EF00001321A802100FFF775FE234B1B7A022244
:103F00009343002C34D1042213431F4A137264B22A
:103F1000002C32DB1C4A137A08218B43137210BD2C
:103F2000E7291CD0F729E5D112021A431000164ADE
:103F3000D479138801339BB201331380DAE7124B33
:103F40005888101880B29C791A8801321A80D1E7FB
:103F500090B20D4BDC791A8801321A80CAE70A4BFD
:103F60005888101880B2DC791A8801321A80C1E7AB
:103F700004229343044A1372C9E7034A137A0821BF
:103F80000B431372CBE7C046142B012070B5244CB1
:103F9000A088431EA38021780131C9B2FFF722FE19
:103FA000A088431EA380218801310912C9B2FFF7FE
:103FB00019FEA088431EA380A178FFF713FEA088F6
:103FC000431EA3806188090AFFF70CFEA088431EE8
:103FD000A380A179FFF706FEA088431EA380E179A4
:103FE000FFF700FEA088431EA380217AFFF7FAFDA9
:103FF000237A1022134323720A48FEF743FA05007E
:104000000948FEF73FFAADB22D02ADB22D18ADB2A0
:10401000013D2580054A13680133136070BDC04619
:10402000142B0120FAFF0000FBFF00008C2B022064
:1040300070B5224CA088431EA38021780131C9B2FB
:10404000FFF7D0FDA088431EA3802188013109120B
:10405000C9B2FFF7C7FDA088431EA380A178FFF770
:10406000C1FDA088431EA3806188090AFFF7BAFD3D
:10407000A088431EA380A179FFF7B4FDA088431E4A
:10408000A380E179FFF7AEFDA088431EA380217ACB
:10409000FFF7A8FD237A1022134323720848FEF786
:1040A000F1F905000748FEF7EDF9ADB22D02ADB20A
:1040B0002D18ADB2013D258070BDC046142B0120E6
:1040C000EEFF0000EFFF000070B5AD283BD01CD81C
:1040D0008D2853D09D2850D190B2FFF79FFC013816
:1040E00085B2384C2188013189B22180A088431ED5
:1040F000A380C9B2FFF776FDA088431EA380218864
:10410000090AFFF76FFD258037E0BD2835D112027F
:104110001343013B9CB22B4D2988013189B20131F7
:1041200089B2013189B22980A888431EAB80C9B207
:10413000FFF758FDA888431EAB802988090AFFF7BE
:1041400051FD2C8019E01F4C6088121892B2013A80
:1041500095B22188013189B2013189B22180A088CC
:10416000431EA380C9B2FFF73DFDA088431EA38074
:104170002188090AFFF736FD258070BD114B19888B
:1041800053B2002B19DB92B28A1892B2013294B268
:10419000013189B2013189B20A4D2980A888431EB4
:1041A000AB80C9B2FFF71EFDA888431EAB802988EB
:1041B000090AFFF717FD2C80DFE7013AFF3A92B2B8
:1041C000E2E7C046142B012070B504000B00090A79
:1041D000DDB2FFF707FD0134A0B22900FFF702FDB1
:1041E00070BD000010B5010000200024EF292BD085
:1041F000FF291ED0DF2915D02100FFF7E5FF1C4B5A
:104200001B7A02229343002C26D104221343184A1E
:10421000137224B2002C24DB154A137A08218B4335
:10422000137210BD90B2124B5C881A8801321A804A
:10423000E2E712021A4310000D4A54881388013332
:104240009BB201331380D7E7094B5C88121990B2F7
:104250001A8801321A80CFE704229343044A13726A
:10426000D7E7034A137A08210B431372D9E7C046F4
:10427000142B012010B5010000200024AF292BD001
:10428000BF291ED09F2915D02100FFF79DFF1C4B91
:104290001B7A02229343002C27D104221343184A8D
:1042A000137224B2002C25DB154A137A08218B43A4
:1042B000137210BD90B2124B9C881A8801321A807A
:1042C000E2E712021A4310000D4A94881388013362
:1042D0009BB201331380D7E7094B5888101880B27E
:1042E0009C881A8801321A80CEE704229343044A3C
:1042F0001372D6E7024A137A08210B431372D8E7E8
:10430000142B012010B5010000200024ED2931D02C
:10431000FD2921D0DD2915D02100FFF755FF214BC4
:104320001B7A02229343002C30D1042213431D4AEE
:10433000137224B2002C2EDB1A4A137A08218B4305
:10434000137210BD90B2174B9C792402DA79144392
:104350001A8801321A80DFE712021A431000114A4C
:1043600094792402D3791C43138801339BB201331F
:104370001380D1E70B4B5888101880B29C79240227
:10438000DA7914431A8801321A80C5E7042293436C
:10439000044A1372CDE7034A137A08210B431372C0
:1043A000CFE7C046142B012070B50500204B1B7AC7
:1043B000DB0600D570BD1E4CA088431EA38021786B
:1043C000FFF710FCA088431EA3802188090AFFF78D
:1043D00009FCA088431EA380A178FFF703FCA088F6
:1043E000431EA3806188090AFFF7FCFBA088431ED7
:1043F000A380A179FFF7F6FBA088431EA380E17993
:10440000FFF7F0FBA088431EA380217AFFF7EAFBA9
:104410002800FEF737F806020135A8B2FEF732F899
:1044200000B230432080237A102213432372C1E765
:10443000142B012010B50B4A138801339BB2138053
:10444000094A1288934200D010BD084A13784021CF
:104450000B43DBB213701B07F6D50548FFF7A4FF2B
:10446000F2E7C046A2260120A0260120AC260120AA
:10447000F4FF000010B50C4A138801339BB213807F
:10448000002B08D1094A138801339BB21380802284
:10449000D200934200D010BD044B00221A80044881
:1044A000FFF782FFF7E7C0469C2601209E260120E9
:1044B000FCFF000010B50023FF2B04DC184A20216C
:1044C000D1540133F8E7164A0021D154154B1B682B
:1044D000002B17D0012B1CD01348FDF7D3FF04028B
:1044E0001248FDF7CFFF00B22043114B1880F12294
:1044F0001A72104A002313750F4B1B687C210B4363
:10450000537510BD0D4B10221A600D4B10321A60FE
:10451000E2E70A4B14221A60094B3C321A60DBE7CF
:10452000902B0220300A0020FEFF0000FFFF000059
:10453000142B01208C2B012008260120DC090020EF
:10454000D8090020F8B51F4C2088FDF79BFF050017
:104550002088013080B2FDF795FF060020880230E8
:1045600080B2FDF78FFF0300174A002111602188F8
:10457000164A1160A900164A8F58320021002800FF
:10458000B847238801332380FFF754FFFFF752FF1A
:10459000FFF750FFFFF74EFFFFF74CFFFFF74AFF13
:1045A000FFF748FFFFF746FFFFF744FFFFF742FF23
:1045B000FFF740FFFFF73EFFFFF75CFFFCF78AFDC8
:1045C000F8BDC046142B01208C2B0220942C022015
:1045D000340A002010B582B01D4A136801331360FD
:1045E0001C4B9B69DB0614D51B4A1368013313600F
:1045F0000FE0184B9B69DB06FBD4164B1B680B7056
:1046000001320131002AF4D06B4607331B78002BAE
:1046100009D1104B9B6910210A001A4019420DD193
:104620006B46D91DEEE70D4C22680D498B5420686E
:1046300001300C4904F032FB2160EAE7054B9B692D
:10464000DB0603D4084A13680133136002B010BDBF
:10465000C425012000800340C8250120CC2501206D
:10466000084C022088130000C0250120012070475B
:104670007047000010B50449044801F035F90028DE
:1046800000D0012010BDC046782F0110E460022048
:1046900010B50449044801F027F9002800D0012092
:1046A00010BDC046882F0110E4600220F0B56B4CAD
:1046B000A5446B4B1B68002B0FD1A127684B5E688C
:1046C000002315AA137006AA137002AB1022310042
:1046D000380001F0F7F9340020E0A327EEE72300CB
:1046E00006AA60490BA804F081FA0BA915A809F0E5
:1046F0005DFB06AB00221A7002AB103221003800BD
:1047000001F0E0F910E006A809F0C4FB06AB9C46F6
:1047100060440222544905F027FB013433007F3303
:10472000A3422CDB2307DAD0E3171B0FE2180F2577
:104730001540ED1A6A460823D218525D4B490BA862
:1047400004F054FA0BA915A809F030FB6A460823B7
:10475000D3185B5D464AD35C68229343D3D002AB47
:104760001B5D6A462C215218137000236A460131E2
:10477000521813700BA906A809F018FBCDE715A86D
:1047800009F088FB15AB9C4660440322394905F0CB
:10479000EBFA06A915A809F009FB374B1A68374B45
:1047A0001968374C15AB200004F020FA200009F0FE
:1047B00071FB0200334B1860334C3449200004F085
:1047C00015FA0023200016E06B46DC7100226B46D0
:1047D000D91D08E02E4B9B699B06FBD40C782C4B13
:1047E0001C6001320131002AF4D003780D3B5A429B
:1047F0005341DBB201300478002C2BD0002BE3D1E5
:10480000244B02229B5EA34205D06B46DC71002242
:104810006B46D91D17E06B460D22DA7100226B46FC
:10482000D91D04E00D781A4B1D6001320131002AB8
:10483000EBD1174B9B699B06FBD4F3E70C78144B29
:104840001C6001320131002ACFD1114B9B699B06BC
:10485000FBD4F3E7104B9D44F0BDC04614FBFFFFB3
:1048600088690220A02F0110B82F0110B02F01106D
:10487000794C0110BC2F0110402101205C0F012058
:10488000943402200C260120C0680220C02F0110A1
:1048900000800340B0690220EC04000070B522489B
:1048A000002101F0F3FF0221082001F089F9022123
:1048B000092001F085F9E1211C4D4902280001F091
:1048C0008FFA2A6BC0231B021A4080246401184B04
:1048D00023431A60EA6A10263240164B23431A60BB
:1048E0001549152002F04CFE0121152002F030FE82
:1048F000AE636A6B38231340104A14432360104898
:1049000005F09AFB05F088FB0220FBF79DFD642073
:1049100001F0E8FF0220FBF771FD0023094A137044
:10492000094A136070BDC04640420F00008003403A
:10493000308003402C800340D54500103480034074
:10494000D42F0110E4600220BC250120F0B5CE4632
:10495000474680B585B00500002301AA13703A4A86
:104960001370C31D394AD356002B0ADB364C200086
:1049700009F090FA20180222354905F0F5F90524CE
:104980002EE0314C200009F085FA2018022231492E
:1049900005F0EAF9F3E767192C4B9946DA5D12093D
:1049A0002D4B9846190001A804F020F9264E01A9C4
:1049B000300009F0FBF9300009F06CFA30180222DF
:1049C000264905F0D1F94B46DB5D0F221A404146DE
:1049D00001A804F00BF901A9300009F0E7F9013C46
:1049E000002C0DDB052CD6D06319184AD25C1C496B
:1049F00001A804F0FBF801A9134809F0D7F9EEE784
:104A0000114C200009F046FA20180322154905F040
:104A1000ABF906350D4B5A57002A0EDB104901A899
:104A200004F0E4F8084C01A9200009F0BFF92000C7
:104A300005B00CBC90469946F0BD52420A4901A807
:104A400004F0D4F8EEE7C0466C3402208C2B012031
:104A5000B42F0110EC2F0110F02F0110B82F01100E
:104A6000082E0110F82F0110FC2F011030B5CFB027
:104A700012AB00221A70002413E02200414908A85A
:104A800004F0B4F808A912A809F090F9E0003E4B30
:104A90009C466044FFF75AFF010012A809F086F90E
:104AA0000134092CE9DD394B1A68394B1968394C46
:104AB000394B0493394B03931800163802901800B1
:104AC0002C380190423B009312AB200004F08EF88A
:104AD000200009F0DFF90300314A1060314A126802
:104AE000314C3249200004F081F8002320002BE0F3
:104AF0001F236B44197000221F236B44002A1DD111
:104B00002B4989698906FBD41C7829490C6001323C
:104B10000133F3E71F236B440D221A7000221F2379
:104B20006B4404E01D78224C256001320133002AD9
:104B300014D11F4CA469A406FBD4F3E703780D3B02
:104B40005A425341DBB201300178002918D0002BC2
:104B5000CED1184B02229B5E8B42DBD01F236B44CD
:104B6000197000221F236B44002AE7D1104989697C
:104B70008906FBD41C780E490C6001320133F3E73F
:104B80004FB030BD04300110FF2000004021012053
:104B9000580F012094340220E46002206E2B012083
:104BA0000C26012030210120C068022010300110A5
:104BB00000800340B069022070B505000024062C77
:104BC0000ED8E300074A9958280000F08DFE00280F
:104BD00001D10134F3E7E400024B1C1963689847E4
:104BE00070BDC0460010012010B50248FFF7E4FF79
:104BF00010BDC046982C0220F0B5C64600B50A4D3F
:104C00000A4E81192B681C1A631C9846084F1A001B
:104C1000380005F0A9F842463900300005F0A4F844
:104C20002C6004BC9046F0BDBC250120E46002204D
:104C30003844022070B51A4B18601A4B19601A4B91
:104C400000221A60194B01321A60194B1D68144B6F
:104C50001A68002A12DD164B196800290EDD124869
:104C60000368144CE65C144CE654013303600139CC
:104C70000F4B1960013A0A4B1A60E8E70C4B1D60B4
:104C8000094B1868FFF7B8FF054B1B68002B05D1CF
:104C9000064B00221A60034B1B68984770BDC04644
:104CA000F8200120E0600220344402200421012089
:104CB000BC250120E4600220982C022010B5044B92
:104CC0001868FFF799FF034B01221A6010BDC04618
:104CD000FC2501200426012010B5064B1B68002B83
:104CE00000D110BD044B1868FFF786FF014B00226E
:104CF0001A60F6E704260120FC25012010B550219A
:104D00000220FCF73BFA0849084800F0EDFD0028B6
:104D100000D110BD064B1868FFF76EFF054B5868B1
:104D20000549FFF787FFF4E7782F0110E4600220C0
:104D3000FC25012088690220E94B001010B5040011
:104D40006E210120FCF71AFA240109480419616850
:104D5000084800F0C9FD002800D110BD064B1868B6
:104D6000FFF74AFF054B1A68054B1A60F5E7C04686
:104D7000780E0120E4600220FC25012088690220D1
:104D80003021012010B5040069210120FCF7F6F95B
:104D90002401074804196168064800F0A5FD0028B1
:104DA00000D110BD044B1868FFF726FFF9E7C04695
:104DB000780E0120E4600220FC25012010B563215B
:104DC0000120FCF7DBF90649064800F08DFD0028BC
:104DD00000D110BD044B1868FFF70EFFF9E7C0467D
:104DE00024300110E4600220FC25012010B563216D
:104DF0000120FCF7C3F90649064800F075FD0028BC
:104E000000D110BD044B1868FFF7F6FEF9E7C04665
:104E100034300110E4600220FC25012030B583B05D
:104E2000294809F037F80200284B1860284C294916
:104E3000200003F0DBFE0023200034E06B46073344
:104E40001A70002204E01C7823490C6001320133FF
:104E5000002A22D1204989698906FBD4F3E76B46F1
:104E600007330D211970002104E01D781A4C2560CC
:104E700001310133002920D1174CA469A406FBD4C9
:104E8000F3E71C7814490C6001320133002A04D185
:104E9000114989698906FBD4F3E703780D3B5A422F
:104EA0005341DBB201300278002A0BD0002BC5D170
:104EB0000A4B02215B5E9342D1D06B4607331A70D6
:104EC0000022E3E703B030BD943402200C26012019
:104ED000C0680220C02F011000800340B06902208A
:104EE00000B583B0094A53681068094A1354094A47
:104EF00012680949096801900093084B084803F0BB
:104F000075FEFFF78BFF03B000BDC0468869022025
:104F10008C2B012040210120600F01204030011026
:104F20009434022010B584B00F4B03AA9968117015
:104F30001B68002B16D1A1200B4C03AB012261682A
:104F400000F0D7FD094B1A68094B19686368019393
:104F5000A3680093074B084803F048FEFFF75EFF85
:104F600004B010BDA320E7E788690220402101209A
:104F7000600F0120483001109434022070B5594C64
:104F8000A5440600002311AA137002AA137004009E
:104F900018E0230002AA544907A803F027FE07A936
:104FA00011A808F003FF02AB00221A7010E002A85B
:104FB00008F070FF02AB9C46604402224B4904F0AB
:104FC000D3FE013433007F33A3421BDB2307E0D041
:104FD000474D2A5D474907A803F008FE07A911A815
:104FE00008F0E4FE2A5D444B9B5C68218B43DED0D5
:104FF0006B461A7700236A46537707A902A808F080
:10500000D5FEDEE711A808F045FF11AB9C466044D1
:1050100003223A4904F0A8FE02A911A808F0C6FE2E
:10502000374B1A68374B1968374C11AB200003F027
:10503000DDFD200008F02EFF0200344B1860344CD8
:105040003449200003F0D2FD0023200016E06B4617
:10505000DC7100226B46D91D08E02F4B9B699B0633
:10506000FBD40C782C4B1C6001320131002AF4D0A7
:1050700003780D3B5A425341DBB201300478002CD7
:105080002BD0002BE3D1254B02229B5EA34205D0FF
:105090006B46DC7100226B46D91D17E06B460D2272
:1050A000DA7100226B46D91D04E00D781A4B1D60A1
:1050B00001320131002AEBD1174B9B699B06FBD4CF
:1050C000F3E70C78144B1C6001320131002ACFD178
:1050D000114B9B699B06FBD4F3E79B23DB009D44AC
:1050E00070BDC04628FBFFFFA02F0110B82F011094
:1050F0008C2B0120B02F0110794C0110BC2F011016
:10510000402101205C0F0120943402200C26012054
:10511000C0680220C02F011000800340B069022047
:1051200010B580204001FFF729FF10BD10B5024BDC
:105130001868FFF723FF10BD8869022070B50500CD
:10514000002400E00134122C16D8E3000B4A9B5CCB
:10515000032BF7D1E200094B9B185868290008F08F
:105160004DFE0028EED1064B1C60064B01221A6052
:10517000054A13680133136070BDC046680F0120F3
:1051800090260120942601206C26012010B5074BA3
:1051900001221A6053210020FBF7F0FF0448FFF7BB
:1051A000CDFF044B1868FFF727FD10BD4C260120EA
:1051B00050300110FC25012010B5040043210120CE
:1051C000FBF7DCFF2401084804196168074800F078
:1051D0008BFB002800D110BD054B1868FFF70CFDB4
:1051E0000448FFF7ABFFF6E7780E0120E4600220E9
:1051F000FC2501205830011010B504007221012057
:10520000FBF7BCFF2401084804196168074800F057
:105210006BFB002800D110BD054B1868FFF7ECFCB4
:105220000448FFF78BFFF6E7780E0120E4600220C8
:10523000FC2501206030011070B582B0002301937D
:10524000B24B1A6801321A601868642103F026FD17
:1052500000290CD1AE4B1B68002B13D05731032013
:10526000FBF78CFFAA4A136859424B411360A94BC4
:105270009B69DB0613D4FFF7ADF9A74A1368013326
:1052800013600CE020210320FBF778FFEAE7694672
:10529000A24808F08BFDA24A136801331360A14BAA
:1052A0001A68A14B1B689A4213D020236A461380C8
:1052B0009C4D2B685A1C2A609C4AD45CE4B26B4615
:1052C0001C7028689A4903F0E9FC2960002CE6D09C
:1052D000DDE7984B1C68002C24D00EE08F4B1C7827
:1052E0000120FFF789FC944A1368591C1160934A06
:1052F000D454934A1368013B1360914B1B68002BF5
:1053000003DD874A1268002AE8DC002B05D1894BAF
:1053100000221A608B4B1B68984702B070BD0120B9
:10532000FFF76AFC7D4B1B78874AD35C1B07F6D4DA
:105330000FE02201854B9B185968784800F0D4FA99
:10534000002805D02201814B9B18DB68200098477C
:1053500001340D2C15D823017C4A9B5C012BE8D02D
:10536000022BF5D12201794B9B189B6820009847AE
:105370000028EDD02201754B9B18DB682000984770
:10538000E6E7734B1B68002BC7D0724B1B68002BE2
:1053900037D1714B1A68D100704BCB5C042B00D114
:1053A0000BE13ED8012B41D0022B1ED1D2006B4B1A
:1053B0009A1850686A4E01AA310008F057FC654BF4
:1053C00001221A6001F02AFB019A53019B1A9B00EB
:1053D0009B18DB001C00DD1700196941614B186048
:1053E00059603100604803F001FC5B4B1B68D90039
:1053F0005A4A8A5C042A00D18FE70133564A136067
:105400008BE701F00BFB574B1A685B688B4200D9A6
:1054100083E702D1824200D97FE74E4B00221A6017
:105420007BE7052BE1D10023504CB6E0D2004B4B7B
:105430009A1851684E4C200003F0D8FB002320003E
:1054400032E06B461C7000216A4608E0314B9B69D4
:105450009B06FBD414782F4B1C60013101320029CC
:10546000F4D01BE00D236A461370002108E0294B9D
:105470009B699B06FBD41578264B1D6001310132D8
:105480000029F4D01AE0234B9B699B06FBD41478C7
:10549000204B1C60013101320029F4D003780D3B10
:1054A0005A425341DBB201300478002C9DD0002BCE
:1054B000C7D1304B02229B5EA342D3D06B461C70F7
:1054C00000216A46E8E76B46187000216A4608E04A
:1054D000104B9B699B06FBD410780E4B1860013172
:1054E00001320029F4D052E00D236A4613700021E6
:1054F00008E0084B9B699B06FBD41578054B1D60A3
:10550000013101320029F4D052E0C046402101208F
:10551000640F012000800340FC200120E460022091
:10552000BC250120D0250120CC250120084C0220DB
:10553000881300000421012034440220982C02200A
:10554000F8200120E0600220794C0110780E012043
:10555000942601208C26012090260120680F01202E
:1055600068300110181C0120C86002209434022009
:10557000C0680220B0690220124B9B699B06FBD4D5
:105580001078104B1860013101320029F4D02378D3
:105590000D3B5A425341DBB201342078002800D140
:1055A00023E7002B8FD1084B02229B5E83429BD0C6
:1055B0006B46187000216A46E7E7044B00221A6028
:1055C00013E7C04600800340B06902209426012002
:1055D00010B582B001AA10700121DE2000F04BF955
:1055E0006B46DC1D22000121DF2000F01EF920782F
:1055F00002B010BD00B583B06B461871597101AA95
:105600000221DE2000F037F903B000BD10B5002004
:10561000FFF7DEFFC0B2802149420143C9B200203A
:10562000FFF7E8FF10BD000010B51A4B1B68002BF8
:105630000CD1194B1B68002B0ED1184B1B68002B8B
:1056400015D1174B1B68002B1AD110BDFFF7DEFFD9
:10565000104B00221A60ECE70020FFF7B9FF7F2310
:105660000340104A13600C4B00221A60E5E701204A
:10567000FFF7AEFF0C4B1860084B00221A60E0E702
:105680000220FFF7A5FF094B1860054B00221A60A6
:10569000DBE7C046442601202826012024260120DD
:1056A00020260120402601203C260120382601200A
:1056B00082B000230193019A044B9A4203DC019BC0
:1056C00001330193F7E702B07047C046DB050000E5
:1056D000044B1A6801239340D0221206536293614F
:1056E0007047C046F42D0110034B1A680123934004
:1056F000D022120693627047F42D0110044B1A68F1
:1057000001239340D0221206536293617047C04632
:10571000F02D0110034B1A6801239340D02212068A
:1057200093627047F02D0110044B1B68D0221206C3
:105730005068D8400300012018407047F42D011034
:1057400010B5FFF7C5FFFFF7B3FFFFF7D7FFFFF770
:10575000AFFF10BD10B5FFF7BBFFFFF7A9FFFFF7C5
:10576000D9FFFFF7A5FFFFF7BFFFFFF7A1FF10BDB0
:1057700070B5040000250EE0FFF7B6FFFFF798FFB5
:10578000FFF7C8FFFFF794FFFFF7B8FFFFF790FFA1
:105790006400E4B20135072D05DC63B2002BEBDBBE
:1057A000FFF796FFEAE7FFF79FFFFFF7B3FFFFF76B
:1057B0007FFF6424FFF7B8FF002803D0013C002CD2
:1057C000F8D100E00124FFF799FFFFF771FF2000F7
:1057D00070BDF8B506000F00FFF786FF0024002516
:1057E00010E0FFF765FFFFF795FFFFF761FF64002B
:1057F000FFF79AFF01230340E418FFF77FFFFFF74D
:1058000057FF0135072DECDD002F0BD0FFF760FFB0
:10581000FFF780FFFFF74CFFFFF770FFFFF748FF30
:105820003470F8BDFFF760FFF2E7F0B583B0040015
:105830000F001500FFF784FF2000FFF799FF041EFB
:1058400001D000240FE0FFF785FF11E0791E091B4E
:105850004B1E99416B46DE1D3000FFF7BAFF3378CF
:105860002B7001340135BC42F0DBFFF773FF0124DC
:10587000200003B0F0BDF8B505000F001400FFF7DD
:105880005FFF2800FFF774FF0025BD4206DA661CA3
:105890002078FFF76DFF01353400F6E7FFF75AFF78
:1058A000F8BD000010B50A4C23685A1C22609B000A
:1058B000084CE050092A01DC012010BD064B0748C6
:1058C0001860074B1960074B1A600020F5E7C046C7
:1058D000F825012088690220381001208834011041
:1058E0003C100120F4250120F0B5D6464F4680B586
:1058F00085B005000F0000236B4A13606B4A1360EC
:10590000092B05DC99006A4A002088500133F7E72B
:10591000002600241AE001362B5D664AD35C1B0783
:1059200014D50134614A136801331360F4E7711C24
:105930007B1899467B5C002B1FD0642B00D170E054
:10594000782B00D16FE0252B1ED00E000196BB5D99
:10595000002B00D18CE02A5D002A00D188E0202BAA
:10596000D9D0252BE3D001340136934200D093E007
:105970004E4A136801331360E8E74F4B4F4A1A60F1
:105980004F4B1F6000243FE00134252A00D07BE00C
:10599000464A1368013313600236D7E783001818AC
:1059A00043009A4603A807F085FA504401343F4A61
:1059B0001368013313602B5D002B1FD04B461B78FF
:1059C000642B32D0782B36D12A5D3A498A5C442147
:1059D000114230D003AB20221A802A5D1A704B4648
:1059E0001B78642BDAD0782BE0D103019A46102281
:1059F000002103A808F042FC5044D7E7019BFB18A4
:105A00009B78002B06D00024200005B00CBC9146EA
:105A10009A46F0BD3900FFF745FF041EF4D001247B
:105A2000F2E70020CAE70020C8E72A5D21498A5C26
:105A30005207CFD4C6E7002CE6D0642B10D0782BC9
:105A400024D12B19013B1B781A4AD35C44221A42F9
:105A50001ED03900FFF726FF00281BD0023675E75D
:105A60002A19013A127813498A5C5207F1D4E6E701
:105A7000002B13D0202B13D1019B9C4667447B78CD
:105A8000002B0FD10124BFE70024BDE70024BBE7B2
:105A90000024B9E70400B7E70024B5E70124B3E721
:105AA0000024B1E70024AFE7F8250120FC25012000
:105AB00088690220794C01103810012094340110BB
:105AC0003C10012070B582B015001E000124044373
:105AD0000B126A4613715171E4B201AA022120002F
