:020000041000EA
:1000000000B5324B212058609868022188439860DF
:10001000D860186158612E4B002199600221596106
:100020000121F02299502B49196001219960352056
:1000300000F044F80222904214D00621196600F024
:1000400034F8196E01211966002018661A6600F04E
:100050002CF8196E196E196E052000F02FF8012189
:100060000842F9D1002199601B49196000215960AB
:100070001A491B48016001219960EB211966A021F2
:10008000196600F012F800219960164914480160C1
:100090000121996001BC002800D000471248134993
:1000A000086003C880F30888084703B5996A0420EC
:1000B0000142FBD001200142F8D103BD02B5186610
:1000C0001866FFF7F2FF186E186E02BD00000240BE
:1000D000000000180000070000035F00212200005C
:1000E000F4000018222000A00001001008ED00E03C
:1000F00000000000000000000000000074B24E7A12
:1001000000200420F7010010C3010010C5010010F9
:10011000C1010010C1010010C1010010C101001097
:10012000C1010010C1010010C1010010C701001081
:10013000C1010010C1010010C9010010CB01001065
:10014000CD010010CD010010CD010010CD01001037
:10015000CD010010CD010010CD010010CD01001027
:10016000CD010010CD010010CD010010CD01001017
:10017000CD010010CD010010CD010010CD01001007
:10018000CD010010CD010010CD010010CD010010F7
:10019000CD010010CD010010CD010010CD010010E7
:1001A000CD010010CD010010CD010010CD010010D7
:1001B000CD010010CD010010CD010010CD010010C7
:1001C00000BE00BE00BE00BE00BE00BE00F04BF888
:1001D000103800BEF2EB88715C7001108470011061
:1001E0003402001090A31AE700202149086006C8D5
:1001F00081F3088810471F48006800282FD10DA4FC
:100200000ECC002902D000F012F8F9E71A491B4A77
:10021000002000E001C19142FCD1194988471949E9
:1002200088471949884700BEFDE701C901C29A42C3
:10023000FBD3704784700110C0000020F020012023
:10024000B49002100000042000000420B4900210BA
:1002500000100420001004200000000070470B482C
:1002600009F06EFC0047EFF30580C0B27047000054
:1002700008ED00E0000000D0F0200120D88302202B
:10028000E17F001095040010F58000105756000023
:1002900006005250ABB36053985B011006005250F9
:1002A000861C0302A85B0110060052505422A29D36
:1002B000B85B011005005250DE65F468B49002107E
:1002C000F8B5C0460448054B10B5834203D0044B33
:1002D000002B00D0984710BDF0200120F020012015
:1002E0000000000006480749091A8B10C90FC918F9
:1002F00010B5491003D0044B002B00D0984710BD17
:10030000F0200120F02001200000000010B5074C73
:100310002378002B09D1FFF7D5FF054B002B02D026
:10032000044800E000BF0123237010BD102201200B
:1003300000000000403D0110054B10B5002B03D01C
:100340000449054800E000BFFFF7CCFF10BDC046E0
:100350000000000014220120403D011010B500F003
:10036000B7FF05F0BDFE06F0CFF905F027FCF6E774
:1003700001238340D02212069361936153610022CE
:10038000002000E00132072A0EDCD0231B0680216A
:100390004903996159614000C0B25B689B02F1D585
:1003A00001231843C0B2EDE7704730B50125854001
:1003B000D0231B069D6100230BE0D0200006802483
:1003C000E40184614900D02000068024E4044461F3
:1003D0000133934210DAD02000068024E4048461C3
:1003E000501E0C0004412000C007E6D5D0200006B6
:1003F0008024E4014461E5E7D0231B065D6130BD44
:1004000010B582B001000F4B18880F4B98420DD0E9
:10041000014389B20B4C218010220F20FFF7C5FF4A
:100420002288094B9A4207D002B010BD00230093E6
:10043000009B002BFCD1EBE700230193019B002BD9
:10044000FCD1F1E74A2D01200920000010B582B04F
:100450000E4B98420DD00E4C2188814321801022F2
:100460000F20FFF7A2FF2288084B9A4207D002B064
:1004700010BD00230093009B002BFCD1EBE7002371
:100480000193019B002BFCD1F1E7C046092000003D
:100490004A2D012010B51B2006F042FBD024240673
:1004A00080231B05636263610D2006F039FB0E207B
:1004B00006F036FB0F2006F033FB162006F030FB6B
:1004C000152006F02DFB1A2006F02AFB132006F05B
:1004D00027FB142006F024FB122006F021FB00204D
:1004E00006F01EFB012006F01BFB022006F018FBA5
:1004F000032006F015FB042006F012FB052006F091
:100500000FFB062006F00CFB072006F009FB01227A
:100510000021002006F0EAFA01220021012006F065
:10052000E5FA01220021022006F0E0FA0122002172
:10053000032006F0DBFA01220021042006F0D6FA9F
:1005400001220021052006F0D1FA01220021062017
:1005500006F0CCFA01220021072006F0C7FA0A2093
:1005600006F0DEFA0B2006F0DBFA0C2006F0D8FAD3
:10057000112006F0D5FA102006F0D2FA002201214F
:10058000102006F0B3FA00220121112006F0AEFA85
:100590008023DB01636280229201A2626362802376
:1005A0001B0263628023DB03636280239B03A362DD
:1005B0008023DB04636280231B03636280235B036D
:1005C00063628022D20262628022D2006262802252
:1005D0001201626280225201626263610120FFF7B0
:1005E0000FFF0A2007F0FCF800F078F800F042F95D
:1005F0000AF0DCFC04F03AF904F054FB0B480DF06F
:10060000C5FB06F061F804F079F901E004F098F90F
:1006100007F082F9064A002309F028FB1343F5D1BD
:10062000044A7C330021D154F0E7C0465D0300103A
:10063000002D31014432012082B00300019064207A
:100640005843002801D00138FBE702B0704700B5DD
:1006500083B080236A461371793B034050204042A7
:100660001843507101AA0221782005F05CFE03B006
:1006700000BD10B582B001AA8021117003091024B9
:100680002343537091700F231840D0707C39782029
:1006900005F049FE02B010BD10B5054B1A887F2148
:1006A00011401980034B18680822FFF77EFE10BD29
:1006B0004C2D01204C3D011010B5064B19888022AD
:1006C000114389B21980044B18680822FFF76DFEA8
:1006D00010BDC0464C2D01204C3D011010B5FFF758
:1006E000EBFFFA24E4002000FFF7A6FFFFF7D4FF9A
:1006F0002000FFF7A1FFFFF7DFFF2000FFF79CFFBF
:1007000005F076FD782005F08BFD802005F088FD52
:10071000AE2005F085FD802005F082FDD52005F096
:100720007FFD802005F07CFDA02005F079FD802074
:1007300005F076FDA82005F073FD802005F070FD22
:100740001F2005F06DFD802005F06AFDD32005F027
:1007500067FD802005F064FD002005F061FD80202C
:1007600005F05EFDAD2005F05BFD802005F058FD35
:100770008E2005F055FD802005F052FDD82005F0B3
:100780004FFD802005F04CFD052005F049FD80203F
:1007900005F046FDA12005F043FD802005F040FD59
:1007A000C82005F03DFD802005F03AFDDA2005F077
:1007B00037FD802005F034FD122005F031FD80204A
:1007C00005F02EFD912005F02BFD802005F028FD81
:1007D0003F2005F025FD802005F022FD3F2005F09B
:1007E0001FFD802005F01CFD3F2005F019FD802035
:1007F00005F016FD3F2005F013FD802005F010FDEB
:10080000812005F00DFD802005F00AFD184B1878B9
:1008100005F006FD802005F003FDD92005F000FD60
:10082000802005F0FDFCD22005F0FAFC802005F0C8
:10083000F7FCDB2005F0F4FC802005F0F1FC34200F
:1008400005F0EEFC802005F0EBFCA62005F0E8FCAE
:10085000802005F0E5FCA42005F0E2FC802005F0F6
:10086000DFFCAF2005F0DCFC05F0CCFC10BDC04681
:10087000C804002070B5002503E005F0C3FC013575
:10088000EDB2032D16D82800FFF7E1FE0020FFF798
:10089000F0FE05F0ADFC782005F0C2FC402005F02C
:1008A000BFFC0024832CE8D8002005F0B9FC0134FB
:1008B000E4B2F7E770BD02000021002005E040002F
:1008C000012313401843521001310729F7DD704707
:1008D00070B515008400041B64007F340320401AA7
:1008E000C0B2FFF7B4FEE0B2FFF7C3FE05F080FC34
:1008F000782005F095FC402005F092FC0024042CA3
:100900000DDCAB005B190421091B5B18074AD05CA6
:10091000FFF7D1FFC0B205F083FC0134EFE7002000
:1009200005F07EFC05F06EFC70BDC046CC040020D6
:1009300010B500F0B7FC10BD70B50E0014002278A1
:10094000002A06D0451C01343100FFF7F1FF2800D2
:10095000F5E770BD70B5002508E0202221002800D1
:10096000FFF7E6FF0134032CF7DD0135142D01DC20
:100970000024F8E770BD704770477047024BDA7982
:10098000598852185A807047C8310120054B588841
:1009900099790902DA790A435A80020A9A71D87160
:1009A0007047C046C8310120024A5388013B9380FA
:1009B0007047C046C8310120024A938801335380F2
:1009C0007047C046C83101200F4A9379D371127A1B
:1009D00002218A43002B0CD104210A430A490A72DE
:1009E0005BB2002B0ADB084A137A08218B4313728F
:1009F000704704218A4304490A72F1E7024A137AD4
:100A000008210B431372F3E7C83101200F4AD37951
:100A10009371127A02218A43002B0CD104210A43DC
:100A20000A490A725BB2002B0ADB084A137A0821D2
:100A30008B431372704704218A4304490A72F1E719
:100A4000024A137A08210B431372F3E7C8310120DD
:100A5000054A137A3F218B431900062010563F2385
:100A600003400B4313727047C8310120014B1A7ABF
:100A70009A717047C8310120024A137A01218B43D1
:100A800013727047C8310120024A137A01210B43C7
:100A900013727047C8310120024A137A10210B43A8
:100AA00013727047C8310120024A137A10218B4318
:100AB00013727047C8310120092802D0342812D09F
:100AC00070470B4A5388013B9BB25380002B04D1E3
:100AD000137A04210B431372F2E7054A137A0421B7
:100AE0008B431372ECE7024A9388013B9380E7E75C
:100AF000C8310120082802D0312812D070470B4A93
:100B0000538801339BB25380002B04D1137A042104
:100B10000B431372F2E7054A137A04218B431372D5
:100B2000ECE7024A938801339380E7E7C83101205C
:100B300053B2002B09DB12B22038C3B20F2B00D9FD
:100B400089E09800594B1B589F46013AFF3AF3E75A
:100B500057490B889A1801320A8080E0544B1B7A5F
:100B60000521194200D076E051490B889A180132CC
:100B70000A8074E04E4B1B7A052119426BD04C4918
:100B80000B889A1801320A8069E0494B1B7ADB070F
:100B900061D447490B889A1801320A805FE0444BC0
:100BA0001B7ADB0757D542490B889A1801320A8015
:100BB00055E03F4B1B7A5B074DD43D490B889A1893
:100BC00001320A804BE03A4B1B7A5B0743D5384928
:100BD0000B889A1801320A8041E0354B1B7A9B073B
:100BE00039D433490B889A1801320A8037E0304BE8
:100BF0001B7A9B072FD52E490B889A1801320A8041
:100C00002DE02B4B1B7A1B0725D429490B889A18FA
:100C100001320A8023E0264B1B7A1B071BD524498F
:100C20000B889A1801320A8019E0214B197A0A239D
:100C30000B400A2B01D0002B0DD11D490B889A18AF
:100C400001320A800BE01A4B197A0A230B40022B5F
:100C500006D0082B04D0164A13880133138070473E
:100C600013490B889A1801320A80F8E7104B1B7A57
:100C70005907F0D40A210B400A2B01D0002BEAD1EE
:100C80000B490B889A1801320A80E8E7084B1B7A57
:100C9000590705D40A210B40082B01D0022BDAD1C9
:100CA00003490B889A1801320A80D8E7543D011095
:100CB000C831012010B5224B9A790F201040197AC3
:100CC0008B0628D5931D092800D90633C80700D5FF
:100CD00060339F2B00DD6033992B03DD012001433E
:100CE00017480172190618D51548017A08242143BE
:100CF0000172002B17D11248017A0424214301729A
:100D00005A40120615D50E490A7A022002430A7289
:100D10000B4A937110BD1300D5E70948017A0824E6
:100D2000A1430172E5E70648017A0424A143017258
:100D3000E6E703490A7A022082430A72E8E7C046DE
:100D4000C8310120094A9179D3794B43190A91712D
:100D5000D3711B0604D5137A01210B43137270471C
:100D6000024A137A01218B431372F8E7C83101203C
:100D700030B52C4BD9799A79531ADBB252B2002A8A
:100D800028DB002A02DB48B200282FDB254C207A22
:100D90000225A8432072002B2CD1224C207A042556
:100DA000284320725BB2002B2ADB1E4C207A0825D8
:100DB000A8432072002A02DB48B200282BDB49B28C
:100DC000002923DB002B24DB164A137A01218B43F5
:100DD000137225E048B20028D3DB58B20028D0DBDC
:100DE000104C207A022528432072D4E758B20028FC
:100DF000CCDAF5E70B4C207A0425A8432072D1E722
:100E0000084C207A082528432072D3E7002BD9DA32
:100E100001E0002AD8DB034A137A01210B43137245
:100E200030BDC046C831012030B52C48C179827927
:100E3000531ADBB2837152B2002A28DB002A02DB8C
:100E400048B200282FDB254C207A0225A8432072C7
:100E5000002B2CD1214C207A0425284320725BB230
:100E6000002B2ADB1D4C207A0825A8432072002A7B
:100E700002DB48B200282BDB49B2002923DB002B20
:100E800024DB164A137A01218B43137225E048B202
:100E90000028D3DB58B20028D0DB104C207A022582
:100EA00028432072D4E758B20028CCDAF5E70B4C7F
:100EB000207A0425A8432072D1E7084C207A08251F
:100EC00028432072D3E7002BD9DA01E0002AD8DBCF
:100ED000024A137A01210B43137230BDC83101203D
:100EE00010B51B4A93791B02D2791343D2071DD543
:100EF00017490A7A012002430A725808144A127AE2
:100F0000D10719D502210A4311490A72002818D1C4
:100F10000F490A7A042422430A720D4A117A0824DE
:100F2000A14311725B0A9371D07110BD08490A7A0E
:100F3000012082430A72E0E702218A4304490A72CF
:100F4000E4E703490A7A0424A2430A72E5E7C046AB
:100F5000C831012022498A791202CB7913431AB28F
:100F6000002A22DB1E490A7A012082430A725B00B2
:100F70009BB2002B1ED11A490A7A042002430A723E
:100F80001AB2002A1CDB16490A7A082082430A7228
:100F9000134A127A09211140082917D0012915D0C6
:100FA00002218A430E490A7214E00A7A01200243A0
:100FB0000A72DCE70A490A7A042082430A72DFE7F0
:100FC00007490A7A082002430A72E1E702210A432C
:100FD00003490A72024A190A9171D3717047C046D7
:100FE000C83101206E2807D07E2804D112021A438E
:100FF000013A054B1A807047034B5988521892B238
:10100000013A1A80F7E7C046C8310120FEE7000028
:10101000E0239B00984203D04033984204D07047AD
:10102000034B00221A60FAE7014B01221A60F6E72F
:10103000740A0020E8239B0098420CD04033984269
:1010400011D0803B984200D0704700230E4A1360B5
:101050000E4A1360F8E70C4A13688021C9018C46D8
:1010600063441360F0E7094B1B68002B04D1074B66
:10107000802212021A60E7E78022D201944663447C
:10108000024A1360E0E7C046B02C0120C82C0120C2
:1010900010B5274A136801331360C0239B009842A0
:1010A00007D04033984220D0813BFF3B98423BD051
:1010B00010BD204C002323801F4B1A888021114033
:1010C0007F22114389B219801C4B18680822FFF750
:1010D0006CF91B48437D022293431A002188C912F0
:1010E00002230B4013434375E2E7124C238801337C
:1010F0009BB22380104A1088802101407F2043400A
:10110000194389B211800D4B18680822FFF74DF979
:101110000B48437D022293431A002188C9120223FF
:101120000B4013434375C3E705F0DEFAFFF76EFF8C
:10113000E02C01204E2D01204C2D01204C3D0110B2
:1011400044320120094B1A6801321A601A68084BB0
:101150009A420ADD054B00221A60064A136859427A
:101160004B411360044B01221A6070473427012061
:101170009F860100382701203C270120C0235B0007
:10118000984204D08223FF33984205D07047034B26
:101190001B687F201840F9E70020F7E7F02B0120BB
:1011A000044A517C80235B420B435374024B01225F
:1011B0001A70704744320120B81200200E4B1B7881
:1011C000DAB2012B02D0022A0BD070471128FCD1D1
:1011D0000A4B5B7C5BB2002BF7DA074B02221A70DA
:1011E000F3E71228F1D1044B03221A70034A517C11
:1011F0007F230B405374E8E7B812002044320120EB
:1012000070B50C00132800D070BD0E4B1D68681C13
:10121000FA21890008F0C0FC0B4B1B6899420CD0E6
:101220000A4B00221A600A4B5C55064B1960094AAA
:10123000537C20210B435374E6E7044B01221A60D0
:10124000E2E7C046F8260120FC2601209C2C012064
:10125000243C02204432012010B5054B1B68002BB2
:1012600000D110BD034BD97C1320FFF7C9FFF8E76D
:101270009C2C01204432012070B50022042A0DDC90
:1012800083001B189B18064DEE5C8B005B189B18A7
:10129000802464423443EC540132EFE770BDC04611
:1012A000CC0400200B004900C918CB00591A0918BA
:1012B000024B1B685B5C0249CA547047E031012055
:1012C0004C330220014B19547047C046DC310120D9
:1012D000F0B583B0544B1A68544955480DF02EFCB4
:1012E000002804D1534B1B68002B00D189E0514BDF
:1012F00000221A6000255FE04F4B1B68002B6AD06C
:101300004E4B1B68002B10D04D4B1B68002B03D09D
:10131000019780277F005EE00224FF34210038001F
:10132000FFF7AAFF0197270055E0454B1B68002BEC
:1013300008D00224FF3421003800FFF79DFF0197F9
:10134000270048E00224FF3421003800FFF794FF13
:10135000019727003FE03B4B1A5D21001420FFF767
:10136000B7FA0134032CF6DD7B1EFF3B012B08D9B5
:101370007B1C354A9918D35C6822934303D0FAB298
:1013800002E0019FF4E72022304B5A550B78682287
:10139000934301D0FFB200E020271421280008F079
:1013A000FBFB04001421280008F0F6FB1620444340
:1013B00027480019475401351B4B1A68AA421CDB09
:1013C00004F0FCFB234B1B685B5D184AD75C224A88
:1013D0001268934290D0214B1E683100280008F01B
:1013E000DBFB04003100280008F0D6FB08003A00BF
:1013F0002100FFF76DFA0024B4E70C490C4809F00E
:1014000031FC002306E016215943114A52180021ED
:1014100051750133032BF6DD034B1B680B4A00218A
:10142000D15403B0F0BDC046180A00204C3302204E
:10143000642D01203C270120FC2B012038270120AE
:10144000F82B0120DC310120C8640110682E012036
:10145000E4310120E0310120F02B01201C0A0020A2
:10146000F0B5C64600B5C0235B00984206D0822383
:10147000FF3398425BD004BC9046F0BD4BB2002BCA
:1014800014DB0B00403BDBB23F2B1AD9072923D8D2
:10149000042942D201293ED00029ECD00239C9B238
:1014A0000129E8D8514B00221A60E4E77F23194054
:1014B0004E4B19604E4B01221A604E4B00221A60AF
:1014C000D9E73F231940494B1960494B00221A6064
:1014D000484B01321A60CEE70B00083BDBB2072B0A
:1014E000C9D88A1001231A40434802604A101340A9
:1014F000424A136001231940414B1960BBE7414A3E
:101500002021D1540133404A12689A42F7DA374B0E
:1015100000221A60AFE70023F5E74A1001231340C9
:101520003A4A136001231940394B1960A3E7394B3C
:1015300001221A602E4B1B68002B10D02B4B1B680E
:10154000304AD154314A1268002A18D001229B181F
:10155000264A1360FF2B02DD1300FF221A60254B81
:101560001B68002B00D186E7204B1D68EB175B0F33
:10157000EA1807261640F31A9C46002403E00122CD
:101580005242E4E70134042C1EDCEA17072313401F
:101590005B19DB109A00D3181B190122904610002A
:1015A0006246904040B21C4FFA5C824352B2FA54F9
:1015B00004273F1B0E003E41370046463E42E1D025
:1015C00002431548C254DDE7104B1B68002B09D0BD
:1015D0000123ED18054B1D60502D00DC4BE7502218
:1015E0001A6048E701235B42F3E7C046F02B012075
:1015F000082C0120042C0120AC270120FC2B012009
:10160000F82B01204C330220180A0020F42B012073
:10161000002C01203C270120CC04002003B2002B29
:101620000DDB0F4B0122DA6018828023DB01984228
:1016300002D30C4B1B68C0180B4BC0187047C0235B
:101640001B02984205D9094B9C466044084BC018C0
:10165000F4E7064B9C466044064B1B68C018F5E750
:10166000C8310120B02C0120443201200080FFFF4E
:10167000BC120020C82C012000238022520093427B
:1016800005DC034AD15C034AD1540133F5E77047C6
:101690004C33022044320220002380225200934225
:1016A00005DC034AD15C034AD1540133F5E77047A6
:1016B000443202204C33022010B50023002000E009
:1016C0000133072B0EDC40089A000E495158D022F6
:1016D00012065268CA40D207F2D580225242104305
:1016E000C0B2EDE7084B1B6896225200934208DA1D
:1016F000064A5900E2248C54521850700133024AB1
:10170000136010BD781200201C2D01206C2F0120C9
:1017100010B5144B1B6896225200934208DA124A05
:10172000590012248C545218507001330D4A136022
:10173000002309E09A000D49515801228A40D02126
:1017400009068A6140080133072B0ADCC207F1D57C
:101750009A000649515801228A40D02109064A615F
:10176000F0E710BD1C2D01206C2F01207812002005
:1017700030B583B000230193019C002CFCD1204B99
:101780001B6896225200934208DA1E4A5900D2255D
:101790008D54521850700133194A136003231840B6
:1017A00003281FD1184B1A6801239340D022120638
:1017B00053617D30FEF74AFE08E0A200134BD25879
:1017C00001239340D022120653620134072CF4DD2A
:1017D00014E0A2000D4BD25801239340D0221206F0
:1017E00093620134072CF4DD074B1A680123934000
:1017F000D022120693618020FEF728FE03B030BD90
:101800001C2D01206C2F0120503D0110781200206A
:10181000014B18787047C0465F2D012070B5050058
:10182000354B1870354B1B6896225200934208DAEC
:10183000334A5900162088545218557001332F4AE4
:101840001360002441E0EB0703D40820FEF7D8FD25
:1018500039E00820FEF7FAFD35E0EB0704D58020DB
:101860000001FEF7CDFD2EE080200001FEF7EEFD29
:1018700029E0EB0704D580204001FEF7C1FD22E0FE
:1018800080204001FEF7E2FD1DE0EB0704D580203B
:101890008001FEF7B5FD16E080208001FEF7D6FD41
:1018A00011E0EB0703D51020FEF7AAFD0BE0102096
:1018B000FEF7CCFD07E0EA0715D501229A40130098
:1018C000D022120653616D080134072C12DCA300EC
:1018D0000C4A9B58632BEED9643B042BF3D89B0036
:1018E000094AD3589F4601229A401300D02212067B
:1018F0009361E8E770BDC0465F2D01201C2D0120DB
:101900006C2F012098120020943D011030B583B057
:10191000040000230193019B002BFCD1254A12688F
:10192000962149008A4208DA23495000D6254554B9
:1019300009184C7001321F490A60002C13D1402055
:10194000FEF75EFD80200001FEF75AFD8020400179
:10195000FEF756FD80208001FEF752FD1020FEF7B5
:101960004FFD18E00133072B0BDC9A001349525846
:10197000632AF7D8012191400A00D02109064A6262
:10198000F0E74020FEF762FD0D4B1878FFF746FFA9
:1019900003B030BD0134072CFADCA300074A9B5882
:1019A000632BF7D801229A401300D02212069362CB
:1019B000F0E7C0461C2D01206C2F0120981200205A
:1019C0005F2D012070B504000500172809D80328F1
:1019D00058D3C31E9AB2142A54D89300524AD358EB
:1019E0009F46B0239B0098425DD00FD9E0239B0017
:1019F000984254D020D9F0239B0098424FD02033F6
:101A000098421FD0403B98421CD03BE0013BFF3B3B
:101A100098424CD007D9A0239B00984232D1042091
:101A2000FEF7EEFC2EE00300813BFF3B9BB2012B57
:101A300028D8FFF7A3FB31E0403B98420AD020337F
:101A4000984204D12000FFF7F5FA002026E0603B21
:101A5000984217D12000FFF71BFB00201EE0334BFC
:101A600018781BE0324B1888000A17E0304B1878C2
:101A700014E0304B1888000A10E02E4B18780DE067
:101A8000FFF79CFB23B2002B3DDB8023DB019C4254
:101A900002D3294B1D686519284B585D70BD200085
:101AA000FFF7B6FAEEE70420FEF7D0FCEAE704F011
:101AB0001BFEFFF7ABFA224B1868FEF759FC7F2399
:101AC0005840C0B2012290437F2303401B4C6375F2
:101AD000D02212065168490B01220A40D201134359
:101AE00002229343174A1188C91202220A40134363
:101AF000637504F093FF607DD0E7FFF7DDFDCDE770
:101B0000FFF786FECAE7C0231B029C4205D90E4B95
:101B10009C4664440D4B185DC0E70B4B9C466444E7
:101B20000B4B18682418F5E7A83D0110602D012023
:101B3000562D0120542D0120B02C012044320120CB
:101B4000483D01104E2D01200080FFFFBC120020F7
:101B5000C82C012010B56D282FD01FD84D2837D0A4
:101B60005D2800D13149324A137A0220834301387B
:101B700083431372D268002A2CD10A78002A4AD1F2
:101B8000042213432A4A13720023CB56002B47DB4F
:101B9000274A137A08218B43137210BD7D28E2D1A6
:101BA0001202D21890B2FFF739FD0100204A1388C3
:101BB00001339BB201331380D5E71D4C6088801838
:101BC00080B2FFF72BFD0100238801332380CAE791
:101BD0001849C8E7164C208AFFF7F4FE0023E3609B
:101BE00000280CD1124A137A04210B431372030606
:101BF0000BD40F4A137A08218B431372CDE70C4A9A
:101C0000137A04218B431372F1E7094A137A0821EE
:101C10000B431372C1E704229343054A1372B3E7DF
:101C2000034A137A08210B431372B6E7CF31012020
:101C3000C8310120CE31012010B50200172808D884
:101C400003B2002B19D0172817D88300424CE35851
:101C50009F46B0239B0098425FD018D9E0239B0099
:101C600098425ED029D9F0239B00984259D0203366
:101C7000984228D0403B984225D08023DB019842EF
:101C800002D3364B1A688218354B995426E0013B33
:101C9000FF3B98424BD007D9A0239B009842ECD140
:101CA0000420FEF7ADFB19E00300813BFF3B9BB234
:101CB000012BE2D8FFF7D4FB10E0403B984208D05C
:101CC0002033984202D1FFF7B5F907E0603B984214
:101CD000D3D1FFF7DDF901E0224B197010BD224A84
:101CE0001088FF230340090219431180F6E71E4BB9
:101CF0001888FF22904301431980EFE71B4A1088A0
:101D0000FF230340090219431180E7E7174B1888A6
:101D1000FF22904301431980E0E70420FEF796FB81
:101D2000DCE7FFF775F9D9E7FFF76AFAD6E704F0C1
:101D3000DBFCFFF76BF90800FFF7EAFCCEE70800D1
:101D4000FFF716FDCAE70800FFF768FDC6E70800C1
:101D5000FFF7DCFDC2E7C046FC3D0110B02C0120BE
:101D600044320120602D0120562D0120542D0120E8
:101D700070B56A283AD02AD84A2842D05A2800D1C9
:101D8000304C2378802B3ED02F4A137A02218B438C
:101D900013722D4BDB68002B3BD121780139C9B27E
:101DA0002170294BDB68002B38D12378002B3CD1E4
:101DB000254A137A04210B4313720023E356002BA8
:101DC00039DB214A137A08218B43137270BD7A28BC
:101DD000D7D11202D21890B2FFF720FC04001A4AA1
:101DE000138801339BB201331380CAE7164D68880C
:101DF000801880B2FFF712FC04002B8801332B807F
:101E0000BFE7124CBDE7104A137A02210B4313724D
:101E1000BFE70D4B188AFFF7D5FDBEE70A4D288AAC
:101E2000FFF70AFF0023EB60BFE7074A137A04219C
:101E30008B431372C1E7044A137A08210B431372D0
:101E4000C4E7C046CF310120C8310120CE31012086
:101E500070B56C283AD02AD84C2842D05C2800D1E2
:101E6000304C314BDB68002B3DD121780131C9B2B8
:101E700021702D4BDB68002B3AD12378802B3ED08C
:101E8000294A137A02218B4313722378002B3CD109
:101E9000254A137A04210B4313720023E356002BC7
:101EA00039DB214A137A08218B43137270BD7C28D9
:101EB000D7D11202D21890B2FFF7B0FB04001A4A31
:101EC000138801339BB201331380CAE7164D68882B
:101ED000801880B2FFF7A2FB04002B8801332B800F
:101EE000BFE7124CBDE7104B188AFFF76BFDBCE74C
:101EF0000D4D288AFFF7A0FE0023EB60BDE70A4ADC
:101F0000137A02210B431372BFE7074A137A0421A5
:101F10008B431372C1E7044A137A08210B431372EF
:101F2000C4E7C046CF310120C8310120CE310120A5
:101F300010B56F2827D017D84F282FD05F2800D191
:101F40001B491C4BDB68002B2AD100230B70194A5C
:101F5000137A02218B4301398B4304210B43DBB2FB
:101F600008218B43137210BD7F28EAD11202D218C8
:101F700090B2FFF753FB01000E4A138801339BB266
:101F800001331380DDE70B4C6088801880B2FFF7C7
:101F900045FB0100238801332380D2E70649D0E7BF
:101FA000044C208A0021FFF747FE0023E360CEE7C0
:101FB000CF310120C8310120CE31012070B5602819
:101FC00042D032D840284AD0502800D1374C384B24
:101FD000DB68002B45D121784942C9B22170344BCE
:101FE000DB68002B42D12378802B46D0304A137A0D
:101FF00002218B4313722378002B44D02C4A137A8E
:1020000001210B4313722378002B42D1284A137A03
:1020100004210B4313720023E356002B3FDB244AB9
:10202000137A08218B43137270BD7028CFD112022E
:10203000D21890B2FFF7F2FA04001D4A1388013358
:102040009BB201331380C2E7194D6888801880B2B3
:10205000FFF7E4FA04002B8801332B80B7E7154C17
:10206000B5E7134B188AFFF7ADFCB4E7104D288A8B
:10207000FFF7E2FD0023EB60B5E70D4A137A02217A
:102080000B431372B7E70A4A137A01218B43137289
:10209000B9E7074A137A04218B431372BBE7044A5A
:1020A000137A08210B431372BEE7C046CF310120DB
:1020B000C8310120CE31012070B5682847D037D80B
:1020C00048284FD0582800D1394C0023E356002B24
:1020D0004ADB384A137A01218B431372354BDB6894
:1020E000002B47D121784900C9B22170314BDB6800
:1020F000002B44D12378002B48D12E4A137A042197
:102100000B4313720023E356002B45DB294A137A55
:1021100008218B431372274B1B7A09221A40082A85
:1021200040D0012A3ED002229343224A13723DE05E
:102130007828CAD11202D21890B2FFF76FFA0400C1
:102140001C4A138801339BB201331380BDE7194D3C
:102150006888801880B2FFF761FA04002B88013389
:102160002B80B2E7144CB0E7124A137A01210B43DB
:102170001372B3E70F4B188AFFF724FCB2E70D4D3B
:10218000288AFFF759FD0023EB60B3E7094A137A69
:1021900004218B431372B5E7064A137A08210B43D7
:1021A0001372B8E702221343024A137270BDC0468D
:1021B000CF310120C8310120CE31012070B5632814
:1021C00039D029D8432841D0532800D12C4C2D4B4D
:1021D000DB68002B3CD12178C943C9B22170294B5F
:1021E000DB68002B39D1274A137A02218B43012166
:1021F0000B43DBB213722278002A35D10422134339
:10220000204A13720023E356002B32DB1D4A137A57
:1022100008218B43137270BD7328D8D11202D218D3
:1022200090B2FFF7FBF90400164A138801339BB202
:1022300001331380CBE7134D6888801880B2FFF715
:10224000EDF904002B8801332B80C0E70E4CBEE76C
:102250000C4B188AFFF7B6FBBDE70A4D288AFFF73B
:10226000EBFC0023EB60BEE704229343054A1372A4
:10227000C8E7044A137A08210B431372CBE7C04620
:10228000CF310120C8310120CE31012070B5642842
:102290003DD02DD8442845D0542800D1314C237846
:1022A000DB0741D5304A137A01210B4313722E4BC1
:1022B000DB68002B3ED12178490821702A4BDB686E
:1022C000002B3CD1284B1B7ADA073FD5022213435F
:1022D000254A13722378002B3DD1234A137A042117
:1022E0000B431372204A137A08218B43137270BD7B
:1022F0007428D4D11202D21890B2FFF78FF90400DB
:10230000194A138801339BB201331380C7E7164D76
:102310006888801880B2FFF781F904002B880133A8
:102320002B80BCE7114CBAE70F4A137A01218B438B
:102330001372BCE70C4B188AFFF744FBBBE70A4D4E
:10234000288AFFF779FC0023EB60BBE70222934366
:10235000054A1372BEE7044A137A04218B431372B1
:10236000C0E7C046CF310120C8310120CE31012065
:1023700070B5672844D034D847284CD0572800D1AE
:10238000354C2378DB0748D5344A137A01210B43B7
:102390001372324BDB68002B45D123785B08237026
:1023A00040221A4202D0C03A134323702B4BDB6801
:1023B000002B3DD12378002B42D1284A137A0421E7
:1023C0000B431372254B1B7A0822934301321A40A8
:1023D000082A3BD0012A39D0022293431F4A1372A4
:1023E00038E07728CDD11202D21890B2FFF716F953
:1023F00004001A4A138801339BB201331380C0E7EB
:10240000164D6888801880B2FFF708F904002B8801
:1024100001332B80B5E7124CB3E7104A137A012140
:102420008B431372B5E70D4B188AFFF7CBFAB4E76D
:1024300021780A4D288AFFF7FFFB0023EB60B9E7FC
:10244000064A137A04218B431372BBE7022213431B
:10245000024A137270BDC046CF310120C83101203D
:10246000CE31012070B569284FD03FD8492857D0C8
:10247000592800D13D4C3E4B1B7A01251D400022BE
:10248000A256002A4EDB01229343394A1372384B7D
:10249000DB68002B4BD123785B00DBB22370002D6F
:1024A00002D0012213432370314BDB68002B43D150
:1024B0002378002B48D12E4A137A04210B43137240
:1024C0000023E356002B45DB294A137A08218B436E
:1024D0001372274B1B7A09221A40082A40D0012A7E
:1024E0003ED002229343224A13723DE07928C2D1A2
:1024F0001202D21890B2FFF791F804001C4A138818
:1025000001339BB201331380B5E7194D68888018F9
:1025100080B2FFF783F804002B8801332B80AAE7F1
:10252000144CA8E701221343114A1372AFE7104B72
:10253000188AFFF747FAAEE721780D4D288AFFF792
:102540007BFB0023EB60B3E7094A137A04218B433A
:102550001372B5E7064A137A08210B431372B8E7E2
:1025600002221343024A137270BDC046CF310120CC
:10257000C8310120CE31012070B566284ED03ED83A
:10258000462856D0562800D13C4C3D4B1B7A0122A0
:1025900015001D4021780A424DD01343384A13726A
:1025A000374BDB68002B4BD123785B082370002D61
:1025B00003D08022524213432370314BDB68002B3F
:1025C00043D12378002B48D12D4A137A04210B43A1
:1025D00013720023E356002B45DB294A137A0821A6
:1025E0008B431372264B1B7A09221A40082A40D0CB
:1025F000012A3ED002229343214A13723DE07628FD
:10260000C3D11202D21890B2FFF708F804001C4A96
:10261000138801339BB201331380B6E7184D6888E5
:10262000801880B2FEF7FAFF04002B8801332B805C
:10263000ABE7144CA9E701229343114A1372AFE7A9
:102640000F4B188AFFF7BEF9AEE721780C4D288AA8
:10265000FFF7F2FA0023EB60B3E7094A137A04218B
:102660008B431372B5E7064A137A08210B431372A2
:10267000B8E702221343024A137270BDCF31012022
:10268000C8310120CE31012070B504000500C123FE
:102690005B0098420ED2023B984256D217282CD8A3
:1026A00003282AD3C31E9AB2142A26D89300494A73
:1026B000D3589F46C0239B0098422ED00FD9E023C9
:1026C0009B0098423DD025D9F0239B00984238D0FA
:1026D0002033984229D0403B984226D00DE0803BE1
:1026E00098422AD04033984203D10420FDF7AEFE31
:1026F00003E0013BFF3B98422DD023B2002B57DB78
:102700008023DB019C4202D3334B1D686519334B98
:10271000585D70BD403B984204D12000FEF7B8FCE4
:102720000020F6E720339842E7D12000FEF782FC34
:102730000020EEE72A4B1878EBE70420FDF760FE57
:10274000DBE72000FEF764FCD7E7FEF717FDE0E7C4
:10275000FEF734FDD1E703F0C7FFFEF757FC214B2E
:102760001868FDF705FE7F235840C0B20123984347
:1027700003007F201840194C6075D0231B065A684F
:10278000520B01231340DB01184302239843164BDD
:102790001A88D212022313401843607504F03EF9E0
:1027A000607DB6E7FEF788FFB3E7FFF731F8B0E7E3
:1027B000C0231B029C4205D90C4B9C4664440C4B25
:1027C000185DA6E7094B9C4664440A4B1868241818
:1027D000F5E7C0465C3E0110B02C012044320120D8
:1027E000602D0120483D01104E2D01200080FFFF8B
:1027F000BC120020C82C012010B5140000216B2849
:1028000019D07B2820D0194A138801339BB2013399
:102810001380137A022293434AB2002A1ADB082259
:102820009343124A1372002919D1104A137A0421D2
:102830000B43137210BD0D4A5088C01880B2FFF7C9
:1028400023FF21000140DEE798B2FFF71DFF2100C2
:102850000140D8E708221343044A1372E3E7034A0E
:10286000137A04218B431372E4E7C046C831012078
:1028700010B533280DD0382814D0322800D010BD20
:10288000134CA088013080B2A080FFF7FDFEA0713C
:10289000F5E70F4CA088013080B2A080FFF7F4FE6E
:1028A000E071ECE70A4CA088013080B2A080FFF70D
:1028B000EBFE80B200026080A088013080B2A08070
:1028C000FFF7E2FE80B26388C0186080D7E7C04699
:1028D000C831012070B50024C42800D16AE020D896
:1028E000A4285BD00FD9B4283FD112029B1898B20C
:1028F000FFF7CAFE84B23E490B8801339BB2013315
:102900000B80063131E0842829D094282DD190B253
:10291000FFF7BAFE84B236490B8801330B800631CB
:1029200023E0E4284DD0F4280DD112029B1898B270
:10293000FFF7AAFE84B22E490B8801339BB2013304
:102940000B80073111E0D4280FD190B2FFF79CFE25
:1029500084B227490B8801330B80073105E094B21C
:1029600023490B8801330B8006310878204008701A
:102970001F4A137A0220834313720A78002A2CD14B
:10298000042213431A4A13720023CB56002B29DB6F
:10299000174A137A08218B43137270BD144D68884F
:1029A000101880B2FFF770FE84B22B8801332B80A1
:1029B000A91DDAE794B20E490B8801330B80073169
:1029C000D3E70B4D6888101880B2FFF75DFE84B224
:1029D0002B8801332B80E91DC7E704229343044A67
:1029E0001372D1E7024A137A08210B431372D4E71A
:1029F000C831012070B50024C82800D16AE020D871
:102A0000A8285BD00FD9B8283FD112029B1898B2E2
:102A1000FFF73AFE84B23E490B8801339BB2013383
:102A20000B80063131E0882829D098282DD190B22A
:102A3000FFF72AFE84B236490B8801330B8006313A
:102A400023E0E8284DD0F8280DD112029B1898B247
:102A5000FFF71AFE84B22E490B8801339BB2013373
:102A60000B80073111E0D8280FD190B2FFF70CFE90
:102A700084B227490B8801330B80073105E094B2FB
:102A800023490B8801330B800631087860400870B9
:102A90001F4A137A0220834313720A78002A2CD12A
:102AA000042213431A4A13720023CB56002B29DB4E
:102AB000174A137A08218B43137270BD144D68882E
:102AC000101880B2FFF7E0FD84B22B8801332B8011
:102AD000A91DDAE794B20E490B8801330B80073148
:102AE000D3E70B4D6888101880B2FFF7CDFD84B294
:102AF0002B8801332B80E91DC7E704229343044A46
:102B00001372D1E7024A137A08210B431372D4E7F8
:102B1000C831012070B50024CA2800D16AE020D84D
:102B2000AA285BD00FD9BA283FD112029B1898B2BD
:102B3000FFF7AAFD84B23E490B8801339BB20133F3
:102B40000B80063131E08A2829D09A282DD190B205
:102B5000FFF79AFD84B236490B8801330B800631AA
:102B600023E0EA284DD0FA280DD112029B1898B222
:102B7000FFF78AFD84B22E490B8801339BB20133E3
:102B80000B80073111E0DA280FD190B2FFF77CFDFE
:102B900084B227490B8801330B80073105E094B2DA
:102BA00023490B8801330B800631087820430870D5
:102BB0001F4A137A0220834313720A78002A2CD109
:102BC000042213431A4A13720023CB56002B29DB2D
:102BD000174A137A08218B43137270BD144D68880D
:102BE000101880B2FFF750FD84B22B8801332B8080
:102BF000A91DDAE794B20E490B8801330B80073127
:102C0000D3E70B4D6888101880B2FFF73DFD84B202
:102C10002B8801332B80E91DC7E704229343044A24
:102C20001372D1E7024A137A08210B431372D4E7D7
:102C3000C831012010B50021C52800D167E020D897
:102C4000A52858D00FD9B5283FD11002181880B246
:102C5000FFF71AFD81B23D4C238801339BB201334B
:102C60002380063431E0852829D095282DD190B2D3
:102C7000FFF70AFD81B2354C2388013323800634E7
:102C800023E0E5284AD0F5280DD11002181880B2AB
:102C9000FFF7FAFC81B22D4C238801339BB201333C
:102CA0002380073411E0D5280FD190B2FFF7ECFC58
:102CB00081B2264C238801332380073405E091B28A
:102CC000224C2388013323800634002020560840FC
:102CD00040B21E4B1B7A0222934300282AD10422C1
:102CE00013431A4A1372002829DB184A137A082161
:102CF0008B43137210BD154C6088101880B2FFF71B
:102D0000C3FC81B22388013323800634DDE791B20E
:102D10000E4C2388013323800734D6E70B4C6088A0
:102D2000101880B2FFF7B0FC81B2238801332380F2
:102D30000734CAE704229343044A1372D3E7034AD1
:102D4000137A08210B431372D4E7C046C83101201F
:102D500070B50021E3286AD015D8C3282CD0D32819
:102D600033D194B22000FFF78FFC0500601CFFF701
:102D70008BFC2D02A9B280B2091889B24F4A138880
:102D80000133138021E0F3281FD112029A1894B264
:102D90002000FFF779FC05000134A0B2FFF774FCB6
:102DA0002D02A9B280B2091889B2444A13880133AE
:102DB0009BB20133138008E012029A1891B23F4A85
:102DC000138801339BB2013313803C4A93791B0271
:102DD000D07902001A43521892B20343802424028D
:102DE00018002040234202D00BB2002B34DB002815
:102DF00005D10BB2002B02DB13B2002B2FDB2F4CC3
:102E0000237A0225AB432372002802D00BB2002B99
:102E10002EDB09B2002928DB13B2002B01DB0028CE
:102E200026D126490B7A012083430B7225E0234EDD
:102E300074881419A4B22000FFF726FC05000134A1
:102E4000A0B2FFF721FC2D02A9B280B2091889B205
:102E5000338801333380B8E713B2002BC7DB174C3C
:102E6000237A02252B432372CEE713B2002BD3DB48
:102E700012490B7A012003430B72002A11D10F492A
:102E80000B7A042003430B7213B2002B0FDB0B49A8
:102E90000B7A082083430B72084B110A9971DA717F
:102EA00070BD06490B7A042083430B72ECE703499B
:102EB0000B7A082003430B72EEE7C046C8310120AD
:102EC00070B50021AC285AD015D88C282CD09C285D
:102ED00033D194B22000FFF7D7FB0500601CFFF749
:102EE000D3FB2D02A9B280B2091889B24A4A1388CD
:102EF0000133138021E0BC281FD112029A1894B22A
:102F00002000FFF7C1FB05000134A0B2FFF7BCFBB6
:102F10002D02A9B280B2091889B23F4A1388013341
:102F20009BB20133138008E012029A1891B23A4A18
:102F3000138801339BB201331380374B5A88531ADD
:102F40009BB212B2002A2FDB002A02DB08B2002853
:102F500036DB314C207A0225A8432072002A02DB9E
:102F600008B2002836DB09B200292DDB19B200298E
:102F70002EDB29490A7A012082430A722FE0264E6D
:102F800074881419A4B22000FFF77EFB05000134F9
:102F9000A0B2FFF779FB2D02A9B280B2091889B25D
:102FA000338801333380C8E708B20028CCDB18B27D
:102FB0000028C9DB184C207A022528432072CDE76F
:102FC00018B20028C5DAF5E719B20029CEDA01E017
:102FD000002ACEDB10490A7A012002430A72002B34
:102FE0000DD10D490A7A042002430A721BB2002B4C
:102FF0000BDB094A137A08218B43137270BD064913
:103000000A7A042082430A72F0E7034A137A0821FD
:103010000B431372F2E7C046C831012070B500219E
:10302000A32853D015D883282CD0932833D194B219
:103030002000FFF729FB0500601CFFF725FB2D0290
:10304000A9B280B2091889B2504A1388013313809B
:1030500021E0B3281FD112029A1894B22000FFF782
:1030600013FB05000134A0B2FFF70EFB2D02A9B23D
:1030700080B2091889B2454A138801339BB20133E3
:10308000138008E012029A1891B2404A1388013363
:103090009BB2013313803D4A93791B02D079020021
:1030A0001A43521A92B2034380242402180020408B
:1030B000234220D00BB2002B1DDB13B2002B1ADBF6
:1030C000324C237A02252B4323721EE02F4E748844
:1030D0001419A4B22000FFF7D7FA05000134A0B2FA
:1030E000FFF7D2FA2D02A9B280B2091889B233884B
:1030F00001333380CFE7002802D10BB2002B28DB4D
:10310000224C237A0225AB432372002802D10BB252
:10311000002B28DB09B200291FDB13B2002B20DBB8
:103120001A490B7A012083430B72002A21D11749D7
:103130000B7A042003430B7213B2002B1FDB1349DD
:103140000B7A082083430B72104B110A9971DA71C4
:1031500070BD13B2002BD3DAB2E713B2002BDCDA66
:1031600001E00028DCD109490B7A012003430B72EE
:10317000DBE706490B7A042083430B72DCE7034943
:103180000B7A082003430B72DEE7C046C8310120EA
:1031900010B51F4CA088013080B2A080FFF774FAF0
:1031A0002072A088013080B2A080FFF76DFAE07134
:1031B000A088013080B2A080FFF766FAA071A088D5
:1031C000013080B2A080FFF75FFA80B20002608019
:1031D000A088013080B2A080FFF756FA80B26388E1
:1031E00018436080A088013080B2A080FFF74CFABD
:1031F00080B200022080A088013080B2A080FFF75A
:1032000043FA80B2238818430138208010BDC0469D
:10321000C831012010B50B4CA088013080B2A080CD
:10322000FFF732FA80B200022080A088013080B21D
:10323000A080FFF729FA80B2238818430138208044
:1032400010BDC046C831012070B5EC2846D011D859
:10325000CC2824D0DC282AD195B22800FFF714FA14
:103260002E4CA071681CFFF70FFAE0712388013320
:1032700023801CE0FC281AD11202D21894B220003C
:10328000FFF702FA254DA8710134A0B2FFF7FCF94F
:10329000E8712B8801339BB201332B8007E01F4973
:1032A0008A71CB710B8801339BB201330B801B49B0
:1032B0000A7A02239A438B791B02C9790B4321D1E5
:1032C00004210A4315490A728022120213421ED0B9
:1032D000124A137A08210B43137270BD0F4D688890
:1032E00094B2101880B2FFF7CFF9A871688820183F
:1032F00080B2013080B2FFF7C7F9E8712B88013343
:103300002B80D4E704218A4304490A72DCE7034A8C
:10331000137A08218B431372DFE7C046C8310120BE
:1033200070B5C92800D18AE022D8A92800D17AE056
:1033300010D9B92840D1120290B2C01880B2FFF75C
:10334000A3F9020069490B8801339BB201330B805A
:10335000063131E089282AD099282DD190B2FFF783
:1033600093F9020061490B8801330B80063123E099
:10337000E9286AD0F9280ED1120290B2C01880B2A2
:10338000FFF782F9020059490B8801339BB20133E0
:103390000B80073110E0D9280ED190B2FFF774F9F5
:1033A000020052490B8801330B80073104E04F497A
:1033B0000B8801330B80063108784C4B1C7A0123B3
:1033C00023409B18DBB21B18DBB20B7044B2002CFD
:1033D00047DB002C01DB15064ED4444D2B7A022628
:1033E000B3432B720B78002B4AD1404D2B7A042625
:1033F00033432B720023CB56002B47DB3B4D2B7AFC
:103400000826B3432B72002C46DB130647D4002357
:10341000CB56002B01DB002C45DB344C237A0125F5
:10342000AB43237244E0314C6088801880B2FFF7D0
:103430002BF90200238801332380A11DBCE72B490F
:103440000B8801330B800731B6E7284C6088801861
:1034500080B2FFF719F90200238801332380E11DB0
:10346000AAE71506B5D45DB2002DB2DB1F4D2B7A4D
:10347000022633432B72B5E75BB2002BADDAF5E7DA
:103480001A4D2B7A0426B3432B72B3E7174D2B7AD0
:10349000082633432B72B6E71306B6D503E00023A4
:1034A000CB56002BB3DB114C237A01252B4323721F
:1034B00008231C000440034201D0130709D413075A
:1034C00002D50B781B0704D50B781B0707D4002CFB
:1034D00005D0064A137A20210B43137270BD034AAC
:1034E000137A20218B431372F8E7C046C8310120BC
:1034F00070B5BB2800D17FE014D9EB2800D190E053
:103500002BD9FB283AD1120290B2C01880B2FFF733
:10351000BBF8020069490B8801339BB201330B8071
:1035200007312BE09B285DD00DD9AB2826D1634C09
:103530006088801880B2FFF7A7F802002388013363
:103540002380A11D1AE01B2815D08B2816D15B49BA
:103550000B8801330B80063110E0CB285BD0DB28D1
:103560000CD190B2FFF790F8020054490B88013358
:103570000B80073102E05149CA79063108781318E7
:10358000DBB20B7044B2002C57DB002C04DB1506B9
:1035900002D45BB2002B55DB484D2B7A0226B34395
:1035A0002B720B78002B53D1444D2B7A04263343D6
:1035B0002B720023CB56002B50DB404D2B7A082674
:1035C000B3432B72002C4FDB130650D40023CB5691
:1035D000002B01DB002C4EDB384C237A0125AB435A
:1035E00023724DE090B2FFF74FF8020033490B8889
:1035F00001330B800631C1E7120290B2C01880B2CD
:10360000FFF742F802002D490B8801339BB20133CA
:103610000B800631B2E729490B8801330B80073153
:10362000ACE7264C6088801880B2FFF72DF80200C6
:10363000238801332380E11DA0E71506A5D55DB2DF
:10364000002DA2DB1D4D2B7A022633432B72A8E7F7
:103650001A4D2B7A0426B3432B72AAE7174D2B7A07
:10366000082633432B72ADE71306ADD503E00023E4
:10367000CB56002BAADB114C237A01252B43237256
:1036800008231C000440034201D0130709D4130788
:1036900002D50B781B0704D50B781B0707D4002C29
:1036A00005D0064A137A20210B43137270BD034ADA
:1036B000137A20218B431372F8E7C046C8310120EA
:1036C00010B5C62800D169E021D8A6285AD010D953
:1036D000B62840D1120290B2C01880B2FEF7D4FFD3
:1036E00002003D4C238801339BB201332380063412
:1036F00031E086282AD096282DD190B2FEF7C4FF5B
:103700000200354C238801332380063423E0E62869
:103710004AD0F6280ED1120290B2C01880B2FEF73D
:10372000B3FF02002C4C238801339BB2013323806A
:10373000073410E0D6280ED190B2FEF7A5FF0200A4
:10374000254C238801332380073404E0224C23884E
:1037500001332380063420490B7A022083430B7205
:103760002270002A2CD10A000B7A04210B43137219
:103770000023E356002B29DB174A137A08218B43D9
:10378000137210BD144C6088801880B2FEF77CFF65
:1037900002002388013323800634DCE70E4C2388A3
:1037A000013323800734D6E70B4C6088801880B241
:1037B000FEF76AFF02002388013323800734CAE73B
:1037C000054A137A04218B431372D1E7024A137A14
:1037D00008210B431372D4E7C831012070B5C1280A
:1037E00000D17EE021D8A1286FD010D9B12840D1D6
:1037F000120290B2C01880B2FEF746FF020055498F
:103800000B8801339BB201330B80063131E08128F4
:103810002AD091282DD190B2FEF736FF02004D49F3
:103820000B8801330B80063123E0E1285FD0F128BB
:103830000ED1120290B2C01880B2FEF725FF02002E
:1038400044490B8801339BB201330B80073110E0F0
:10385000D1280ED190B2FEF717FF02003D490B8828
:1038600001330B80073104E03A490B8801330B80A8
:1038700006310C78A31ADBB264B2002C43DB002CB7
:1038800001DB11064AD43348017A0225A9430172AB
:10389000002B47D12F48017A0425294301725BB2DE
:1038A000002B45DB2B49087A0825A8430872002C19
:1038B00001DB110647D4120640D4002B41DB254A18
:1038C000137A01218B43137242E0224C60888018E6
:1038D00080B2FEF7D9FE0200238801332380A11DA8
:1038E000C7E71C490B8801330B800731C1E7194C2E
:1038F0006088801880B2FEF7C7FE0200238801337B
:103900002380E11DB5E71106B9D459B20029B6DB11
:103910001048017A022529430172B9E759B20029FA
:10392000B1DAF5E70B48017A0425A9430172B6E73D
:103930000848017A082529430172B8E7002BBCDA50
:1039400001E0002CBBDB034A137A01210B43137205
:1039500070BDC046C831012070B5C22800D18AE0D0
:1039600022D8A22800D17AE010D9B22840D1120280
:1039700090B2C01880B2FEF787FE02005B490B8848
:1039800001339BB201330B80063131E082282AD00B
:1039900092282DD190B2FEF777FE020053490B8892
:1039A00001330B80063123E0E2286AD0F2280ED1E1
:1039B000120290B2C01880B2FEF766FE02004B49B8
:1039C0000B8801339BB201330B80073110E0D22802
:1039D0000ED190B2FEF758FE020044490B88013325
:1039E0000B80073104E041490B8801330B8006311D
:1039F00008783E4B1C7A012323409B18DBB2C31A84
:103A0000DBB20B7040B2002847DB002801DB140654
:103A10004ED4364C237A0225AB4323720B78002B0D
:103A20004AD1324C237A04252B4323720023CB56F0
:103A3000002B47DB2D4C237A0825AB43237200284B
:103A400001DB13064BD4130642D40023CB56002BC4
:103A500043DB264A137A01218B43137244E0234C43
:103A60006088801880B2FEF70FFE020023880133C1
:103A70002380A11DBCE71D490B8801330B80073152
:103A8000B6E71A4C6088801880B2FEF7FDFD020090
:103A9000238801332380E11DAAE71406B5D45CB264
:103AA000002CB2DB114C237A02252B432372B5E79D
:103AB0005BB2002BADDAF5E70C4C237A0425AB435F
:103AC0002372B3E7094C237A08252B432372B6E708
:103AD0000023CB56002BB8DA01E00028B9DB034AFB
:103AE000137A01210B43137270BDC046C831012007
:103AF00070B5C02800D183E021D8A02874D010D997
:103B0000B02840D1120290B2C01880B2FEF7BCFDBE
:103B1000020058490B8801339BB201330B800631F8
:103B200031E080282AD090282DD190B2FEF7ACFD4C
:103B3000020050490B8801330B80063123E0E02856
:103B400064D0F0280ED1120290B2C01880B2FEF7F5
:103B50009BFD020047490B8801339BB201330B8068
:103B6000073110E0D0280ED190B2FEF78DFD020093
:103B700040490B8801330B80073104E03D490B8835
:103B800001330B8006310B78981AC0B208705BB213
:103B9000002B47DB002B01DB14064ED4354C207A7A
:103BA0000225A8432072087800284AD1314C207A97
:103BB00004252843207200200856002847DB2D4C9E
:103BC000207A0825A8432072002B01DB10064BD475
:103BD000120642D400228A56002A43DB254A137A71
:103BE00001218B43137244E0224C6088801880B21C
:103BF000FEF74AFD0200238801332380A11DC2E79E
:103C00001C490B8801330B800731BCE7194C6088D5
:103C1000801880B2FEF738FD02002388013323802C
:103C2000E11DB0E71406B5D444B2002CB2DB114C50
:103C3000207A022528432072B5E740B20028ADDA89
:103C4000F5E70C4C207A0425A8432072B3E7094C11
:103C5000207A082528432072B6E700228A56002AD7
:103C6000B8DA01E0002BB9DB024A137A01210B43D9
:103C7000137270BDC831012003B2002B10DB80230A
:103C8000DB0198422DD203001A4AD35C1B021A4A68
:103C900090422AD80130174A105CC01880B2704791
:103CA000C0231B0298420FD9144BC318144AD35C8B
:103CB0001B02144A90420DD9134A94466044104A9C
:103CC000105CC01880B2EAE7104B1A680B4BC3189F
:103CD0009B18EBE70C4A944660440C4A1268801823
:103CE000EDE70B4B1B68C318CEE70130084A12689A
:103CF0008018D0E744320120FE3F00000080FFFF23
:103D0000BC120020FFBF00000180FFFFC82C012073
:103D1000B02C012070B50024CE2840D021D8AE2888
:103D200000D174E00FD9BE2843D11002C01880B270
:103D3000FFF7A2FF040041490B8801339BB2013316
:103D40000B80043135E08E2856D09E2831D190B2B8
:103D5000FFF792FF040039490B8801330B800431CF
:103D600027E0EE283CD0FE280DD11002C01880B20A
:103D7000FFF782FF040031490B8801339BB2013306
:103D80000B80023115E0DE2813D190B2FFF774FFEB
:103D900004002A490B8801330B80023109E012022A
:103DA0001A43140025490B8801339BB201330B8061
:103DB00002310C80214A137A0220834313720A884D
:103DC000002A30D1042213431C4A137200228B5E56
:103DD000002B2DDB194A137A08218B43137270BD17
:103DE000164D6888801880B2FFF746FF04002B88C4
:103DF00001332B80A91CDCE712021A4314000F497F
:103E00000B8801339BB201330B800431D1E70B4D9A
:103E10006888801880B2FFF72FFF04002B880133D9
:103E20002B80291DC5E704229343044A1372CDE772
:103E3000024A137A08210B431372D0E7C8310120DC
:103E400070B504000E000500C1235B0098420DD23E
:103E5000023B984253D217282BD803B2002B28D00C
:103E6000172826D88300334AD3589F46C0239B0087
:103E700098422ED00FD9E0239B0098423BD025D901
:103E8000F0239B00984236D02033984228D0403B04
:103E9000984225D00DE0803B984228D0403398428C
:103EA00003D10420FCF7D2FA03E0013BFF3B984228
:103EB0002BD023B2002B08DB8023DB019C4202D3F2
:103EC0001D4B1D6865191D4B5E5570BD403B9842EA
:103ED00003D12000FDF7DCF8F7E720339842E8D162
:103EE0002000FDF7A7F8F0E7154B1970E1E7042073
:103EF000FCF786FADDE72000FDF78AF8D9E7FDF741
:103F0000AFFAE2E7FDF77CF9D3E702F0EDFBFDF74E
:103F10007DF80800FDF7FCFBD7E70800FDF77EFC05
:103F2000D3E70800FDF7F2FCCFE70800FDF720FC1F
:103F3000CBE7C046B03E0110B02C01204432012036
:103F4000602D0120F8B515000024622819D07228D0
:103F500027D01F4A138801339BB201331380137A91
:103F60000222934362B2002A26DB08229343184AB6
:103F70001372002C25D1164A137A04210B431372B5
:103F8000F8BD9EB2124F7888181880B2FEF77CFBFD
:103F90000543ECB27888301880B22100FFF750FF5B
:103FA000D7E79EB23000FEF76FFB0543ECB221006D
:103FB0003000FFF745FFCCE708221343044A137291
:103FC000D7E7034A137A04218B431372D8E7C0461C
:103FD000C8310120F8B515000026612819D07128D4
:103FE00027D01F4A138801339BB201331380137A01
:103FF0000222934372B2002A26DB08229343184A16
:104000001372002E25D1164A137A04210B43137222
:10401000F8BD9CB2124F7888181880B2FEF734FBB6
:1040200005402E007888201880B22900FFF708FF8D
:10403000D7E79CB22000FEF727FB05402E002900A1
:104040002000FFF7FDFECCE708221343044A137259
:10405000D7E7034A137A04218B431372D8E7C0468B
:10406000C8310120F8B515000024652819D075283D
:1040700027D01F4A138801339BB201331380137A70
:104080000222934362B2002A26DB08229343184A95
:104090001372002C25D1164A137A04210B43137294
:1040A000F8BD9EB2124F7888181880B2FEF7ECFA6D
:1040B0004540ECB27888301880B22100FFF7C0FE8E
:1040C000D7E79EB23000FEF7DFFA4540ECB22100A0
:1040D0003000FFF7B5FECCE708221343044A137201
:1040E000D7E7034A137A04218B431372D8E7C046FB
:1040F000C831012010B537280CD03C2812D0362802
:1041000000D010BD0F4B9888421E9A809979FFF716
:1041100097FEF6E70B4B9888421E9A80D979FFF7F5
:104120008FFEEEE7074CA088431EA380A178FFF71F
:1041300087FEA088431EA3806188090AFFF780FEDE
:10414000DFE7C046C831012010B50100002000247F
:10415000D72945D02CD8A72939D0B7290AD112029E
:104160001A4310002C4A9479138801339BB201330F
:10417000138007E0972905D190B2274B9C791A88C4
:1041800001321A802100FFF75BFE234B1B7A0222CB
:104190009343002C34D1042213431F4A137264B298
:1041A000002C32DB1C4A137A08218B43137210BD9A
:1041B000E7291CD0F729E5D112021A431000164A4C
:1041C000D479138801339BB201331380DAE7124BA1
:1041D0005888101880B29C791A8801321A80D1E769
:1041E00090B20D4BDC791A8801321A80CAE70A4B6B
:1041F0005888101880B2DC791A8801321A80C1E719
:1042000004229343044A1372C9E7034A137A08212C
:104210000B431372CBE7C046C831012070B5244C64
:10422000A088431EA38021780131C9B2FFF708FEA0
:10423000A088431EA380218801310912C9B2FFF76B
:10424000FFFDA088431EA380A178FFF7F9FDA08899
:10425000431EA3806188090AFFF7F2FDA088431E70
:10426000A380A179FFF7ECFDA088431EA380E1792C
:10427000FFF7E6FDA088431EA380217AFFF7E0FD4B
:10428000237A1022134323720A48FEF7FDF9050032
:104290000948FEF7F9F9ADB22D02ADB22D18ADB255
:1042A000013D2580054A13680133136070BDC04687
:1042B000C8310120FAFF0000FBFF00004833022054
:1042C00070B5224CA088431EA38021780131C9B269
:1042D000FFF7B6FDA088431EA38021880131091293
:1042E000C9B2FFF7ADFDA088431EA380A178FFF7F8
:1042F000A7FDA088431EA3806188090AFFF7A0FDDF
:10430000A088431EA380A179FFF79AFDA088431ED1
:10431000A380E179FFF794FDA088431EA380217A52
:10432000FFF78EFD237A1022134323720848FEF70D
:10433000ABF905000748FEF7A7F9ADB22D02ADB203
:104340002D18ADB2013D258070BDC046C831012099
:10435000EEFF0000EFFF000070B5AD283BD01CD889
:104360008D2853D09D2850D190B2FFF785FC01389D
:1043700085B2384C2188013189B22180A088431E42
:10438000A380C9B2FFF75CFDA088431EA3802188EB
:10439000090AFFF755FD258037E0BD2835D1120207
:1043A0001343013B9CB22B4D2988013189B2013165
:1043B00089B2013189B22980A888431EAB80C9B275
:1043C000FFF73EFDA888431EAB802988090AFFF746
:1043D00037FD2C8019E01F4C6088121892B2013A08
:1043E00095B22188013189B2013189B22180A0883A
:1043F000431EA380C9B2FFF723FDA088431EA380FC
:104400002188090AFFF71CFD258070BD114B198812
:1044100053B2002B19DB92B28A1892B2013294B2D5
:10442000013189B2013189B20A4D2980A888431E21
:10443000AB80C9B2FFF704FDA888431EAB80298872
:10444000090AFFF7FDFC2C80DFE7013AFF3A92B240
:10445000E2E7C046C831012070B504000B00090A2C
:10446000DDB2FFF7EDFC0134A0B22900FFF7E8FC54
:1044700070BD000010B5010000200024EF292BD0F2
:10448000FF291ED0DF2915D02100FFF7E5FF1C4BC7
:104490001B7A02229343002C26D104221343184A8C
:1044A000137224B2002C24DB154A137A08218B43A3
:1044B000137210BD90B2124B5C881A8801321A80B8
:1044C000E2E712021A4310000D4A548813880133A0
:1044D0009BB201331380D7E7094B5C88121990B265
:1044E0001A8801321A80CFE704229343044A1372D8
:1044F000D7E7034A137A08210B431372D9E7C04662
:10450000C831012010B5010000200024AF292BD0B4
:10451000BF291ED09F2915D02100FFF79DFF1C4BFE
:104520001B7A02229343002C27D104221343184AFA
:10453000137224B2002C25DB154A137A08218B4311
:10454000137210BD90B2124B9C881A8801321A80E7
:10455000E2E712021A4310000D4A948813880133CF
:104560009BB201331380D7E7094B5888101880B2EB
:104570009C881A8801321A80CEE704229343044AA9
:104580001372D6E7024A137A08210B431372D8E755
:10459000C831012010B5010000200024ED2931D0E0
:1045A000FD2921D0DD2915D02100FFF755FF214B32
:1045B0001B7A02229343002C30D1042213431D4A5C
:1045C000137224B2002C2EDB1A4A137A08218B4373
:1045D000137210BD90B2174B9C792402DA79144300
:1045E0001A8801321A80DFE712021A431000114ABA
:1045F00094792402D3791C43138801339BB201338D
:104600001380D1E70B4B5888101880B29C79240294
:10461000DA7914431A8801321A80C5E704229343D9
:10462000044A1372CDE7034A137A08210B4313722D
:10463000CFE7C046C8310120002300E00133022B40
:1046400008D81A010449525A8242F7D11B01CB18EB
:1046500001225A607047C046E8090020F8B50027DB
:1046600006E03901314A52185268002A1BD101373D
:10467000022F5AD839012D4A52189268002A03D0C5
:104680002B4A127AD306F2D43901284A5218D2683A
:10469000002AE6D0274A1268002AE2D0234A52189C
:1046A00000215160E3E7214E0F00731800225A6089
:1046B0001F4CA088431EA3802178FFF7C1FBA08870
:1046C000431EA3802188090AFFF7BAFBA088431E76
:1046D000A380A178FFF7B4FBA088431EA380618864
:1046E000090AFFF7ADFBA088431EA380A179FFF75D
:1046F000A7FBA088431EA380E179FFF7A1FBA08858
:10470000431EA380217AFFF79BFBB85BFDF7BCFF3C
:104710000502B85B013080B2FDF7B6FF00B2284356
:104720002080237A102213432372F8BDE809002069
:10473000C8310120740A002010B50B4A13880133D8
:104740009BB21380094A1288934200D010BD084AD8
:10475000137840210B43DBB213701B07F6D50548D5
:10476000FFF76AFFF2E7C046562D0120542D0120C5
:10477000602D0120F4FF000010B50C4A13880133AE
:104780009BB21380002B08D1094A138801339BB2D6
:1047900013808022D200934200D010BD044B00222F
:1047A0001A800448FFF748FFF7E7C046502D012064
:1047B000522D0120FCFF0000F8B503F0ADF8040015
:1047C0000D00244B1B68002B07D0234B1A685B6835
:1047D000801A99410A1E27D123D0204B1A685B68A2
:1047E00020002900801A99410600002903D117D121
:1047F0001B498E4214D91A48002112184B411749FF
:104800000A604B60144B1A685B6820002900801A0C
:1048100099410A1E16D112D00E4A13680133136053
:10482000F8BD104B9842D8D90B4B1C605D600E4808
:10483000FFF702FF074A1368013B1360CDE7094BFE
:104840009842E9D9044B1C605D600748FFF7F4FE0D
:10485000E6E7C046982C0120F82101200022012023
:1048600040420F00400D0300FCFF000010B5002384
:10487000FF2B04DC174A2021D1540133F8E7154AF5
:104880000021D154144B1B68002B0FD0012B17D0E3
:104890001248FDF7F9FE04021148FDF7F5FE00B2DB
:1048A0002043104B1880F1221A7210BD0E4B1022BB
:1048B0001A600E4B10321A600D4B0E4A1A60E7E771
:1048C000094B14221A60094B3C321A60084B0A4A01
:1048D0001A60DDE74C330220700A0020FEFF000062
:1048E000FFFF0000C83101201C0A0020180A002028
:1048F000E0310120C0120120200A00200B4B1A8851
:104900000B4B1B889A420BD00A4B00221A75094A9E
:10491000537D02218B435375074B00221A80704749
:10492000064B1A68034B1A75F1E7C046482D012063
:10493000462D0120443201204E2D0120BC120120C1
:1049400070B5224C2088FDF79FFE214D28702088ED
:10495000013080B2FDF798FE06002088023080B258
:10496000FDF792FE03001B4A0021116021881A4ABC
:10497000116028788100194A8D5832002100A8471B
:10498000238801332380FFF7D7FEFFF7D5FEFFF71B
:10499000D3FEFFF7D1FEFFF7CFFEFFF7CDFEFFF707
:1049A000CBFEFFF7C9FEFFF7C7FEFFF7C5FEFFF717
:1049B000C3FEFFF7C1FEFFF7DFFEFCF7C3FBFFF707
:1049C0004DFEFCF749FCFFF7F7FE70BDC831012032
:1049D000453302204833022050340220780E002054
:1049E00010B582B01D4A1368013313601C4B9B69DC
:1049F000DB0614D51B4A1368013313600FE0184B14
:104A00009B69DB06FBD4164B1B680B70013201312E
:104A1000002AF4D06B4607331B78002B09D1104BCA
:104A20009B6910210A001A4019420DD16B46D91D0D
:104A3000EEE70D4C22680D498B54206801300C497B
:104A400005F0AAF82160EAE7054B9B69DB0603D471
:104A5000084A13680133136002B010BDD82B01203F
:104A600000800340DC2B0120E02B01206463022046
:104A700088130000D42B01200120704770470000EC
:104A8000014B00221A607047E82C0120704700009B
:104A900010B50449044801F07FFC002800D0012033
:104AA00010BDC046304101104078022010B50449C5
:104AB000044801F071FC002800D0012010BDC04660
:104AC0004041011040780220F0B5C64600B594B0D0
:104AD000654B1B68002B10D1A1339846624B5F6871
:104AE0000023624A137005AA137001AB102239002B
:104AF000404601F03FFD3D0021E0A3239846EDE74D
:104B000005AC2B0022005A490AA804F0EDFF0AA9BF
:104B100056480AF0F1F80023237001AB1022290057
:104B2000404601F027FD10E005A80AF059F905AB51
:104B30009C46604402224F4906F094F801353B0040
:104B40007F33AB4225DB2B07DAD0EB171B0FEA18BC
:104B50000F241440E41A01AE325D47490AA804F05C
:104B6000C3FF0AA941480AF0C7F8325D434B9B5C7A
:104B700068218B43D8D06B4640395B181A700023EC
:104B80006A460131521813700AA905A80AF0B4F850
:104B9000D4E7364C20000AF023F9201803223849C4
:104BA00006F060F805A920000AF0A6F8354B1A684F
:104BB000354B1968354D2300280004F095FF280077
:104BC0000AF00EF90200324B1860324C32492000D4
:104BD00004F08AFF0023200015E06B46DA1C1470F5
:104BE000002108E02D4B9B699B06FBD414782B4BCE
:104BF0001C60013101320029F4D003780D3B5A4288
:104C00005341DBB201300478002C29D0002BE4D1D1
:104C1000234B02229B5EA34204D06B46DA1C147025
:104C2000002116E06B46DA1C0D231370002104E00E
:104C300015781A4B1D60013101320029EDD1174B57
:104C40009B699B06FBD4F3E71478144B1C6001317D
:104C500001320029D1D1114B9B699B06FBD4F3E7AC
:104C600014B004BC9046F0BDE48002200C40022049
:104C7000584101107041011068410110C9640110D0
:104C8000A84C01104027012024130120F04B0220E2
:104C9000942C01201C8002207441011000800340EC
:104CA0000C81022070B52248002102F06DFD022126
:104CB000082001F003FF0221092001F0FFFEE1219D
:104CC0001C4D4902280002F009F82A6BC0231B0280
:104CD0001A4080246401184B23431A60EA6A1026A4
:104CE0003240164B23431A601549152003F0C6FBCA
:104CF0000121152003F0AAFBAE636A6B3823134031
:104D0000104A14432360104806F014F906F002F923
:104D10000220FBF79BFB642002F062FD0220FBF700
:104D20006FFB0023094A1370094A136070BDC04627
:104D300040420F0000800340308003402C8003403D
:104D4000E14900103480034088410110407802207E
:104D5000D02B0120F0B5CE46474680B585B0050082
:104D6000002301AA13703A4A1370C31D394AD3565F
:104D7000002B0ADB364C20000AF032F82018022201
:104D8000354905F06FFF05242EE0314C20000AF074
:104D900027F820180222314905F064FFF3E767196C
:104DA0002C4B9946DA5D12092D4B9846190001A843
:104DB00004F09AFE264E01A9300009F09DFF300054
:104DC0000AF00EF830180222264905F04BFF4B4638
:104DD000DB5D0F221A40414601A804F085FE01A9BF
:104DE000300009F089FF013C002C0DDB052CD6D0EA
:104DF0006319184AD25C1C4901A804F075FE01A988
:104E0000134809F079FFEEE7114C200009F0E8FFA4
:104E100020180322154905F025FF06350D4B5A577A
:104E2000002A0EDB104901A804F05EFE084C01A91F
:104E3000200009F061FF200005B00CBC90469946A7
:104E4000F0BD52420A4901A804F04EFEEEE7C0460A
:104E5000C84B0220443201206C410110A0410110D6
:104E6000A441011070410110AC410110B441011086
:104E7000B841011030B593B0424B00221A700024A3
:104E800014E02200404908A804F02EFE3D4D08A978
:104E9000280009F031FFE0003C4B9C466044FFF7DE
:104EA00059FF0100280009F027FF0134092CE8DD33
:104EB000374B1A68374B1968374C384B0493384BCB
:104EC000039318001638029018002C380190423BCA
:104ED00000932C4B200004F007FE200009F080FF17
:104EE0000300304A1060304A1268304C30492000CC
:104EF00004F0FAFD0023200027E01F236B44197003
:104F00000022002A1BD12B4989698906FBD41C7811
:104F100028490C6001320133F3E71F236B440D2253
:104F20001A70002204E01D78224C25600132013302
:104F3000002A14D11F4CA469A406FBD4F3E703781C
:104F40000D3B5A425341DBB201300178002916D0A3
:104F5000002BD2D1184B02229B5E8B42DDD01F2347
:104F60006B4419700022002AE9D112498969890627
:104F7000FBD41C780F490C6001320133F3E713B006
:104F800030BDC0460C400220C0410110FF2000008F
:104F90004027012020130120F04B022040780220FE
:104FA00026320120942C0120302701201C80022071
:104FB000CC410110008003400C81022070B5050037
:104FC0000024062C0ED8E300074A9958280001F067
:104FD000E3F9002801D10134F3E7E400024B1C1986
:104FE0006368984770BDC046B814012010B50248E8
:104FF000FFF7E4FF10BDC0465434022070B5050031
:10500000002400E00134072C0CD8E300064A99582C
:10501000280001F0C1F90028F4D0E400024B1C196B
:105020006368984770BDC046E0120120F8B50700DC
:105030000E000024B44211DA094B1D68681CFA21E5
:10504000890004F0A9FD074B1B68994206D03A5D20
:10505000054B5A55024B19600134EBE7F8BDC046C9
:10506000EC260120F0260120DC470220F0B5C646E0
:1050700000B50A4D0A4E81192B681C1A631C98460C
:10508000084F1A00380005F0EDFD424639003000A7
:1050900005F0E8FD2C6004BC9046F0BDD02B01204B
:1050A00040780220945B022070B51B4B18601B4BAC
:1050B00019601B4B00221A601A4B01321A601A4BFE
:1050C00018601A4B1D68144B1A68002A12DD174B22
:1050D000196800290EDD12480368154CE65C154C72
:1050E000E654013303600139104B1960013A0A4B51
:1050F0001A60E8E70D4B1D60094B1868FFF7B6FF13
:10510000054B1B68002B05D1064B00221A60034B90
:105110001B68984770BDC046F42601203C780220E9
:10512000905B0220042701202C2C0120D02B012091
:10513000407802205434022010B5044B1868FFF761
:1051400095FF034B01221A6010BDC046182C0120A8
:10515000282C012010B5084B1B68002B07D0074BEB
:105160001868FFF783FF044B00221A6010BD034B41
:105170001868FFF77BFFF9E7282C0120182C012085
:1051800010B550210220FCF79DF80849084801F0AD
:1051900003F9002800D110BD064B1868FFF766FF21
:1051A000054B58680549FFF77FFFF4E730410110D0
:1051B00040780220182C0120E4800220ED4F0010DE
:1051C00010B504006E210120FCF77CF82401094889
:1051D00004196168084801F0DFF8002800D110BD0B
:1051E000064B1868FFF742FF054B1A68054B1A601B
:1051F000F5E7C0463C4A011040780220182C0120F7
:10520000E48002203027012010B50400692101202C
:10521000FCF758F82401074804196168064801F0B2
:10522000BBF8002800D110BD044B1868FFF71EFF23
:10523000F9E7C0463C4A011040780220182C0120B2
:1052400010B563210120FCF73DF80649064801F03E
:10525000A3F8002800D110BD044B1868FFF706FF23
:10526000F9E7C046E041011040780220182C0120E7
:1052700010B563210120FCF725F80649064801F026
:105280008BF8002800D110BD044B1868FFF7EEFE24
:10529000F9E7C046F041011040780220182C0120A7
:1052A00010B550210220FCF70DF80849084801F01C
:1052B00073F8002800D110BD064B1868FFF7D6FE22
:1052C000054B18680549FFF7EFFEF4E7FC410110B4
:1052D00040780220182C0120E48002207D5A001022
:1052E00030B583B02B4809F07BFD02002A4B1860D3
:1052F0002A4C2B49200004F0F7FB0023200034E067
:105300006B4607331A70002204E01C7825490C60B4
:1053100001320133002A22D1224989698906FBD44E
:10532000F3E76B4607330D211970002104E01D7867
:105330001C4C256001310133002920D1194CA4698E
:10534000A406FBD4F3E71C7816490C600132013344
:10535000002A04D1134989698906FBD4F3E703784D
:105360000D3B5A425341DBB201300278002A0BD088
:10537000002BC5D10C4B02215B5E9342D1D06B4612
:1053800007331A700022E3E7084B01321A6003B0BA
:1053900030BDC046F04B0220942C01201C8002201E
:1053A0000C420110008003400C810220E82C0120F7
:1053B00010B51C220349044805F054FCFFF790FF88
:1053C00010BDC04620420110F04B022010B5064B24
:1053D0005A681B680549CA540549064804F084FB0D
:1053E000FFF77EFF10BDC046E4800220443201205A
:1053F0003C420110F04B0220F0B5C64600B594B017
:105400003E4B1B68002B11D1A13398463B4B5F6884
:1054100000233B4A137005AA137001AB1022390018
:10542000404601F0A7F83C00002523E0A32398465E
:10543000ECE705AD23002A0032490AA804F054FB2A
:105440000AA92F4809F058FC00232B7001AB102249
:105450002100404601F08EF8002511E005A809F072
:10546000BFFC05AB9C4660440222274905F0FAFBCD
:10547000013501343B007F33A3421FDB2307D8D023
:1054800001AE725D21490AA804F02EFB0AA91C484E
:1054900009F032FC725D1E4B9B5C68218B43DDD0B2
:1054A0006B4640395B181A7000236A460131521866
:1054B00013700AA905A809F01FFCD9E7104C2000B9
:1054C00009F08EFC20180322124905F0CBFB05A938
:1054D000200009F011FC200009F082FC20180322B2
:1054E0000D4905F0BFFB21000C4809F071FCFFF7E6
:1054F000F7FE14B004BC9046F0BDC046E480022024
:105500000C4002205042011070410110684101100E
:10551000C9640110A84C0110E4440110F04B0220B2
:1055200000B585B0094B1A00163A094902911900D5
:105530002C3101911900163100910649064804F0FA
:10554000D3FAFFF7CDFE05B000BDC046FA31012009
:10555000407802205C420110F04B022030B583B04D
:10556000294809F03DFC0200284B1860284C2949C5
:10557000200004F0B9FA0023200034E06B46073322
:105580001A70002204E01C7823490C6001320133B8
:10559000002A22D1204989698906FBD4F3E76B46AA
:1055A00007330D211970002104E01D781A4C256085
:1055B00001310133002920D1174CA469A406FBD482
:1055C000F3E71C7814490C6001320133002A04D13E
:1055D000114989698906FBD4F3E703780D3B5A42E8
:1055E0005341DBB201300278002A0BD0002BC5D129
:1055F0000A4B02215B5E9342D1D06B4607331A708F
:105600000022E3E703B030BDF04B0220942C0120D0
:105610001C80022074410110008003400C81022094
:1056200000B583B0094A53681068094A1354094AFF
:1056300012680949096801900093084B084804F072
:1056400053FAFFF78BFF03B000BDC046E480022091
:105650004432012040270120281301207842011004
:10566000F04B0220F0B593B006000F0000232D4A46
:10567000137003AA1370040019E003AD00943B00FB
:105680002A00294908A804F02FFA08A9254809F09A
:1056900033FB00232B7010E003A809F0A1FB03AB40
:1056A0009C4660440222214905F0DCFA01343300B3
:1056B0007F33A3421FDB2307DFD01D4D2A5D1D4929
:1056C00008A804F011FA08A9164809F015FB2A5D8C
:1056D000194B9B5C68218B43DED06B4648395B18C5
:1056E0001A7000236A4601315218137008A903A8E2
:1056F00009F002FBDAE70B4C200009F071FB2018DF
:1057000003220E4905F0AEFA03A9200009F0F4FACD
:10571000200009F065FB20180322094905F0A2FAD0
:1057200013B0F0BD0C400220804201107041011006
:105730004432012068410110C9640110A84C0110D5
:10574000E444011010B507490020FFF78BFF064B1A
:105750001A68064B1968064B064804F0C5F9FFF7AE
:10576000FDFE10BD8C4201104027012024130120B2
:105770000C400220F04B022010B5084B1868084975
:10578000FFF770FF074B1A68074B1968074B08486B
:1057900004F0AAF9FFF7E2FE10BDC046E480022043
:1057A0008C42011040270120241301200C400220CC
:1057B000F04B022010B5064B18680649FFF752FF60
:1057C0000549064804F090F9FFF78AFD10BDC04670
:1057D000E4800220E44401100C400220F04B02203F
:1057E00000B583B0084B01AA996811701B68002BA3
:1057F00008D1A120044B596801AB012200F0D3FE6F
:1058000003B000BDA320F5E7E480022000B583B01B
:10581000FFF7E6FF084B1A68084B1968084B5868F1
:1058200001909B680093074B074804F05DF9FFF770
:1058300095FE03B000BDC04640270120281301207B
:10584000E480022094420110F04B022010B5FFF7D3
:10585000C7FF054A136852680449054804F044F933
:10586000FFF73EFD10BDC046E48002203C4201101F
:10587000F04B02200E4B0F4A1168196091889980F5
:1058800092799A71002200E0013253000A495B5C70
:10589000FF2B0AD00949097A0B42F5D05100064B7B
:1058A0005B185978024B9954EEE701487047C0469F
:1058B0002C1301209C420110D8090020C83101207E
:1058C00070B53F4B1B78002B2ED13E4B1B789B00B5
:1058D0003D4A9A583D4C3E49200004F005F93D4DA3
:1058E0002100280009F074FA04223B49200005F049
:1058F000B9F92100280009F0FFF90024374B1B6893
:10590000A34213DD364B1868001980B2FCF7BCFEC9
:1059100002002E4D3349280004F0E6F829002D48F6
:1059200009F0EAF90134E9E7254AD3E72E4D2A8840
:10593000264C2E49200004F0D7F8264E21003000D6
:1059400009F0DAF9AA882A49200004F0CDF82100EC
:10595000300009F0D1F9AA792649200004F0C4F8F2
:105960002100300009F0C8F9EA792349200004F049
:10597000BBF82100300009F0BFF9AA79EB791F4983
:10598000200004F0B1F82100300009F0B5F96A8870
:105990001B49200004F0A8F82100300009F0ACF900
:1059A0002D7AFFF767FF03002A001649200004F054
:1059B0009BF82100300009F09FF9FFF791FC70BDC2
:1059C000302C012045330220780A00200C400220B0
:1059D000A4420110F04B0220A842011048330220DB
:1059E00050340220AC420110C8310120B4420110F1
:1059F000C0420110CC420110D8420110E442011013
:105A0000F44201100043011010B5094A7323D35C1E
:105A10005B18DC17240F1B190F211940091B054BBC
:105A20009C46614450547421535C0133535410BD5F
:105A300044320120B020000010B5034B186800214B
:105A4000FFF7E2FF10BDC046E480022070B50600FB
:105A50000D00002404E021000930FFF7D5FF0134D8
:105A6000AC420ADA305D0A28F9D00D28F7D00428B4
:105A7000F1D02100FFF7C8FFF1E770BD10B50C4B66
:105A80001B68012B08D0022B0CD0002B00D010BDBE
:105A90000848FFF7B3FAFAE7074B19680548FFF71C
:105AA000C5FAF4E7044B19680248FFF7CFFFEEE7A9
:105AB000E8250120543402202C2C012070B505006B
:105AC000002400E001341F2C19D863001B199B002F
:105AD0000B4A9B5C032BF5D163001B199B00D31869
