:020000041000EA
:1000000000B5324B212058609868022188439860DF
:10001000D860186158612E4B002199600221596106
:100020000121F02299502B49196001219960352056
:1000300000F044F80222904214D00621196600F024
:1000400034F8196E01211966002018661A6600F04E
:100050002CF8196E196E196E052000F02FF8012189
:100060000842F9D1002199601B49196000215960AB
:100070001A491B48016001219960EB211966A021F2
:10008000196600F012F800219960164914480160C1
:100090000121996001BC002800D000471248134993
:1000A000086003C880F30888084703B5996A0420EC
:1000B0000142FBD001200142F8D103BD02B5186610
:1000C0001866FFF7F2FF186E186E02BD00000240BE
:1000D000000000180000070000035F00212200005C
:1000E000F4000018222000A00001001008ED00E03C
:1000F00000000000000000000000000074B24E7A12
:1001000000200420F7010010C3010010C5010010F9
:10011000C1010010C1010010C1010010C101001097
:10012000C1010010C1010010C1010010C701001081
:10013000C1010010C1010010C9010010CB01001065
:10014000CD010010CD010010CD010010CD01001037
:10015000CD010010CD010010CD010010CD01001027
:10016000CD010010CD010010CD010010CD01001017
:10017000CD010010CD010010CD010010CD01001007
:10018000CD010010CD010010CD010010CD010010F7
:10019000CD010010CD010010CD010010CD010010E7
:1001A000CD010010CD010010CD010010CD010010D7
:1001B000CD010010CD010010CD010010CD010010C7
:1001C00000BE00BE00BE00BE00BE00BE00F04BF888
:1001D000103800BEF2EB887108CD001030CD001051
:1001E0003402001090A31AE700202149086006C8D5
:1001F00081F3088810471F48006800282FD10DA4FC
:100200000ECC002902D000F012F8F9E71A491B4A77
:10021000002000E001C19142FCD1194988471949E9
:1002200088471949884700BEFDE701C901C29A42C3
:10023000FBD3704730CD0010C0000020740A0120AD
:10024000E4D601100000042000000420E4D60110D0
:1002500000100420001004200000000070470B482C
:1002600006F0D8FF0047EFF30580C0B270470000EA
:1002700008ED00E0000000D0780A0120C01A02203A
:100280001D570010ED030010F957001057560000DD
:1002900006005250ABB3605380C4001006005250A9
:1002A000861C030290C40010060052505422A29DE6
:1002B000A0C4001005005250DE65F468E4D60110B9
:1002C000F8B5C0460448054B10B5834203D0044B33
:1002D000002B00D0984710BD740A0120740A012039
:1002E0000000000006480749091A8B10C90FC918F9
:1002F00010B5491003D0044B002B00D0984710BD17
:10030000740A0120740A01200000000010B5074C97
:100310002378002B09D1FFF7D5FF054B002B02D026
:10032000044800E000BF0123237010BD800B0120B2
:100330000000000010B20010054B10B5002B03D0D8
:100340000449054800E000BFFFF7CCFF10BDC046E0
:1003500000000000840B012010B200100123834034
:10036000D0221206936153610022002000E0013286
:10037000072A0EDCD0231B068021490399615961AD
:100380004000C0B25B689B02F1D501231843C0B2A4
:10039000EDE7704730B501258540D0231B069D61F0
:1003A00000230BE0D02000068024E4018461490092
:1003B000D02000068024E40444610133934210DA23
:1003C000D02000068024E4048461501E0C00044107
:1003D0002000C007E6D5D02000068024E401446157
:1003E000E5E7D0231B065D6130BD000010B51B2082
:1003F00003F058FFD024240680231B056362636149
:100400000E2003F04FFF0F2003F04CFF162003F0E7
:1004100049FF152003F046FF1A2003F043FF132085
:1004200003F040FF142003F03DFF0A2003F03AFFE1
:100430000B2003F037FF0C2003F034FF112003F0F2
:1004400031FF102003F02EFF8023DB016362802345
:100450001B0263628023DB03636280239B03A3622E
:100460008023DB04636280231B03636280235B03BE
:1004700063628022D2006262802212016262802264
:100480005201626263610A4B197810220F20FFF754
:1004900081FF0A2004F066FD00F0E0F800F0AAF900
:1004A00007F082FF03F05AFE03F094FEFCE7C0461B
:1004B0005D15012082B0030001906420584300289C
:1004C00001D00138FBE702B070470000044B1A6806
:1004D00001239340D0221206936153627047C046B5
:1004E00014B20010044B1A6801239340D022120664
:1004F000536153627047C04614B20010044B1A682F
:1005000001239340D0221206936153627047C04684
:1005100010B20010044B1A6801239340D022120637
:10052000536153627047C04610B2001010B5FFF718
:10053000D9FFFFF7EFFFFFF7C9FFFFF7DFFF10BDA0
:1005400010B5FFF7C3FFFFF7E5FFFFF7CBFF10BDC7
:1005500010B50B4B1A6801239340D0221206936208
:10056000FFF7D8FF0123012B07D0FFF7C7FF10BD0E
:1005700001320023002AFBDDF5E70022F9E7C0463F
:1005800014B2001070B50400002507E0FFF7AAFFC1
:10059000FFF7C0FF6400E4B20135EDB2072D07D8C4
:1005A000FFF7ACFF63B2002BF0DBFFF78FFFEFE745
:1005B000FFF7A4FFFFF7CCFF70BD10B50400FFF7F5
:1005C000B5FF7820FFF7DEFF8020FFF7DBFF072075
:1005D00004405738204340B2C0B2FFF7D3FFFFF7C3
:1005E000AFFF10BD10B50400FFF7A0FF7820FFF7A4
:1005F000C9FF8020FFF7C6FF230910201843C0B2AF
:10060000FFF7C0FF8020FFF7BDFF0F202040FFF75E
:10061000B9FFFFF795FF10BD10B5054B1A787F2184
:1006200011401970034B18680822FFF7B3FE10BD84
:100630005C1501201CB2001010B5064B1A78802101
:1006400049421143C9B21970034B18680822FFF7D9
:10065000A1FE10BD5C1501201CB2001010B5FFF703
:10066000EBFFFA24E4002000FFF724FFFFF7D4FF9C
:100670002000FFF71FFFFFF7DFFF2000FFF71AFF43
:10068000FFF754FF7820FFF77DFF8020FFF77AFF08
:10069000AE20FFF777FF8020FFF774FFD520FFF72C
:1006A00071FF8020FFF76EFFA020FFF76BFF802017
:1006B000FFF768FFA820FFF765FF8020FFF762FFC4
:1006C0001F20FFF75FFF8020FFF75CFFD320FFF7BD
:1006D00059FF8020FFF756FF0020FFF753FF8020CF
:1006E000FFF750FFAD20FFF74DFF8020FFF74AFFD7
:1006F0008E20FFF747FF8020FFF744FFD820FFF749
:1007000041FF8020FFF73EFF0520FFF73BFF8020E1
:10071000FFF738FFA120FFF735FF8020FFF732FFFA
:10072000C820FFF72FFF8020FFF72CFFDA20FFF70C
:1007300029FF8020FFF726FF1220FFF723FF8020EC
:10074000FFF720FF9120FFF71DFF8020FFF71AFF22
:100750003F20FFF717FF8020FFF714FF3F20FFF730
:1007600011FF8020FFF70EFF3F20FFF70BFF8020D7
:10077000FFF708FF3F20FFF705FF8020FFF702FF8C
:100780008120FFF7FFFE8020FFF7FCFE184B187852
:10079000FFF7F8FE8020FFF7F5FED920FFF7F2FE05
:1007A0008020FFF7EFFED220FFF7ECFE8020FFF75E
:1007B000E9FEDB20FFF7E6FE8020FFF7E3FE3420B2
:1007C000FFF7E0FE8020FFF7DDFEA620FFF7DAFE50
:1007D0008020FFF7D7FEA420FFF7D4FE8020FFF78C
:1007E000D1FEAF20FFF7CEFEFFF7AAFE10BDC04638
:1007F000C804002070B5002503E0FFF7A1FE013515
:10080000EDB2032D16D82800FFF7D7FE0020FFF722
:10081000E9FEFFF78BFE7820FFF7B4FE4020FFF7DC
:10082000B1FE0024832CE8D80020FFF7ABFE013492
:10083000E4B2F7E770BD02000021002005E04000AF
:10084000012313401843521001310729F7DD704787
:1008500070B515008400041B64007F340320401A27
:10086000C0B2FFF7AAFEE0B2FFF7BCFEFFF75EFEE4
:100870007820FFF787FE4020FFF784FE0024042C39
:100880000DDCAB005B190421091B5B18074AD05C27
:10089000FFF7D1FFC0B2FFF775FE0134EFE700208C
:1008A000FFF770FEFFF74CFE70BDC0462CB2001083
:1008B0007047704770470000024BDA795988521828
:1008C0005A80704768160120054B588899790902AB
:1008D000DA790A435A80020A9A71D8717047C04681
:1008E00068160120024A5388013B93807047C04636
:1008F00068160120024A9388013353807047C0462E
:10090000681601200F4A9379D371127A02218A4323
:10091000002B0CD104210A430A490A725BB2002B56
:100920000ADB084A137A08218B43137270470421AB
:100930008A4304490A72F1E7024A137A08210B43F9
:100940001372F3E7681601200F4AD3799371127A74
:1009500002218A43002B0CD104210A430A490A725E
:100960005BB2002B0ADB084A137A08218B4313720F
:10097000704704218A4304490A72F1E7024A137A54
:1009800008210B431372F3E768160120054A137A16
:100990003F218B431900062010563F2303400B4391
:1009A0001372704768160120014B1A7A9A717047CA
:1009B00068160120024A137A01218B431372704793
:1009C00068160120024A137A01210B431372704703
:1009D00068160120024A137A10210B4313727047E4
:1009E00068160120024A137A10218B431372704754
:1009F00068160120092802D0342812D070470B4A0B
:100A00005388013B9BB25380002B04D1137A0421FD
:100A10000B431372F2E7054A137A04218B431372D6
:100A2000ECE7024A9388013B9380E7E768160120D0
:100A3000082802D0312812D070470B4A538801335E
:100A40009BB25380002B04D1137A04210B43137201
:100A5000F2E7054A137A04218B431372ECE7024A4A
:100A6000938801339380E7E76816012053B2002B87
:100A700009DB12B22038C3B20F2B00D989E09800ED
:100A8000594B1B589F46013AFF3AF3E757490B88E9
:100A90009A1801320A8080E0544B1B7A05211942D2
:100AA00000D076E051490B889A1801320A8074E030
:100AB0004E4B1B7A052119426BD04C490B889A1872
:100AC00001320A8069E0494B1B7ADB0761D4474950
:100AD0000B889A1801320A805FE0444B1B7ADB07CF
:100AE00057D542490B889A1801320A8055E03F4B8E
:100AF0001B7A5B074DD43D490B889A1801320A8056
:100B00004BE03A4B1B7A5B0743D538490B889A1860
:100B100001320A8041E0354B1B7A9B0739D43349B7
:100B20000B889A1801320A8037E0304B1B7A9B07FA
:100B30002FD52E490B889A1801320A802DE02B4BB5
:100B40001B7A1B0725D429490B889A1801320A8081
:100B500023E0264B1B7A1B071BD524490B889A18C8
:100B600001320A8019E0214B197A0A230B400A2B23
:100B700001D0002B0DD11D490B889A1801320A8033
:100B80000BE01A4B197A0A230B40022B06D0082BD4
:100B900004D0164A138801331380704713490B8819
:100BA0009A1801320A80F8E7104B1B7A5907F0D4E3
:100BB0000A210B400A2B01D0002BEAD10B490B88EC
:100BC0009A1801320A80E8E7084B1B7A590705D4C6
:100BD0000A210B40082B01D0022BDAD103490B88E4
:100BE0009A1801320A80D8E7ACB4001068160120C8
:100BF00010B5224B9A790F201040197A8B0628D510
:100C0000931D092800D90633C80700D560339F2BF0
:100C100000DD6033992B03DD012001431748017289
:100C2000190618D51548017A082421430172002BB2
:100C300017D11248017A0424214301725A40120646
:100C400015D50E490A7A022002430A720B4A9371A3
:100C500010BD1300D5E70948017A0824A1430172A9
:100C6000E5E70648017A0424A1430172E6E7034957
:100C70000A7A022082430A72E8E7C0466816012019
:100C8000094A9179D3794B43190A9171D3711B06A3
:100C900004D5137A01210B4313727047024A137A69
:100CA00001218B431372F8E76816012030B52C4BF5
:100CB000D9799A79531ADBB252B2002A28DB002A7A
:100CC00002DB48B200282FDB254C207A0225A843FE
:100CD0002072002B2CD1224C207A0425284320722C
:100CE0005BB2002B2ADB1E4C207A0825A843207219
:100CF000002A02DB48B200282BDB49B2002923DBA3
:100D0000002B24DB164A137A01218B43137225E052
:100D100048B20028D3DB58B20028D0DB104C207A30
:100D2000022528432072D4E758B20028CCDAF5E730
:100D30000B4C207A0425A8432072D1E7084C207A76
:100D4000082528432072D3E7002BD9DA01E0002AD6
:100D5000D8DB034A137A01210B43137230BDC0461E
:100D60006816012030B52C48C1798279531ADBB25C
:100D7000837152B2002A28DB002A02DB48B2002825
:100D80002FDB254C207A0225A8432072002B2CD182
:100D9000214C207A0425284320725BB2002B2ADBE9
:100DA0001D4C207A0825A8432072002A02DB48B295
:100DB00000282BDB49B2002923DB002B24DB164A59
:100DC000137A01218B43137225E048B20028D3DB4C
:100DD00058B20028D0DB104C207A0225284320721C
:100DE000D4E758B20028CCDAF5E70B4C207A04257A
:100DF000A8432072D1E7084C207A082528432072A6
:100E0000D3E7002BD9DA01E0002AD8DB024A137AB3
:100E100001210B43137230BD6816012010B51B4A27
:100E200093791B02D2791343D2071DD517490A7A49
:100E3000012002430A725808144A127AD10719D5C0
:100E400002210A4311490A72002818D10F490A7A6F
:100E5000042422430A720D4A117A0824A143117214
:100E60005B0A9371D07110BD08490A7A0120824350
:100E70000A72E0E702218A4304490A72E4E703495F
:100E80000A7A0424A2430A72E5E7C04668160120E4
:100E900022498A791202CB7913431AB2002A22DB43
:100EA0001E490A7A012082430A725B009BB2002B22
:100EB0001ED11A490A7A042002430A721AB2002A81
:100EC0001CDB16490A7A082082430A72134A127AF6
:100ED00009211140082917D0012915D002218A4380
:100EE0000E490A7214E00A7A012002430A72DCE712
:100EF0000A490A7A042082430A72DFE707490A7A1C
:100F0000082002430A72E1E702210A4303490A72F8
:100F1000024A190A9171D3717047C04668160120C0
:100F20006E2807D07E2804D112021A43013A054BDD
:100F30001A807047034B5988521892B2013A1A80AE
:100F4000F7E7C04668160120E8239B0098420ED0C0
:100F50004033984213D0803B984200D07047104BEA
:100F60008022D2011A600F4B00221A60F6E70C4A69
:100F700013688021C9018C4663441360EEE7094B76
:100F80001B68002B04D1074B802212021A60E5E790
:100F90008022D20194466344024A1360DEE7C046D1
:100FA000680900201015012010B51D4A136801338F
:100FB0001360C0239B00984207D04033984214D05E
:100FC000813BFF3B984223D010BD164B00221A7084
:100FD000154B19787F3291431143C9B21970134BE5
:100FE00018680822FFF7D6F9EEE70E4A13780133A6
:100FF000DBB213700C4A11787F20814343401943C0
:10100000C9B21170094B18680822FFF7C3F9DBE772
:10101000074B1A6801239340D02212069361D3E74D
:10102000141501205E1501205C1501201CB2001072
:1010300028B20010094A136801331360084A93422A
:101040000ADD064B00221A60064A136859424B41DA
:101050001360054B01221A607047C04650100120F2
:101060009F8601005410012058100120C0235B000E
:10107000984204D08223FF33984205D07047034B37
:101080001B687F201840F9E70020F7E7D014012003
:10109000F8B51F491F4809F0FFFF002803D11E4B78
:1010A0001B68002B33D01C4B00221A60002410E078
:1010B0001A4B1E683100200006F0D8F805003100F8
:1010C000200006F0D3F808003A002900FFF7C0FB23
:1010D0000134134B1B68A34215DB124B1B5D0C4AFA
:1010E000D75C114A12689342E2D1104B1B68002B67
:1010F000DED00F4B1B68002BDAD00E4B1B68002B89
:10110000D6D00027D4E7024902480AF009F8F8BD12
:10111000881602206415012058100120D0040020F8
:10112000CC040020D4040020D0140120DC140120C1
:10113000D81401205410012010B5C0235B00984240
:1011400006D08223FF3398425BD0FFF7A1FF10BD8A
:101150004BB2002B14DB0B00403BDBB23F2B1AD908
:10116000072923D8042942D201293ED00029ECD0F6
:101170000239C9B20129E8D8304B00221A60E4E7ED
:101180007F2319402D4B19602D4B01221A602D4BE6
:1011900000221A60DBE73F231940284B1960284BD7
:1011A00000221A60274B01321A60D0E70B00083B7F
:1011B000DBB2072BC9D88A1001231A4022480260EB
:1011C0004A101340214A136001231940204B196033
:1011D000BBE7204A2021D15401331F4A12689A42AA
:1011E000F7DA164B00221A60AFE70023F5E74A1042
:1011F00001231340194A136001231940184B196049
:10120000A3E7184B01221A600D4B1B68002B9CD0E2
:101210000A4B1B680F4AD154104A1268002A0AD0A0
:1012200001229B18054A1360FF2B00DC8DE7130099
:10123000FF221A6089E701225242F2E7D01401200E
:10124000E8140120E4140120C4100120DC14012062
:10125000D814012088160220CC040020D4140120C8
:10126000E01401205810012003B2002B0DDB0F4BBE
:101270000122DA6018828023DB01984202D30C4BF2
:101280001B68C0180B4BC0187047C0231B02984244
:1012900005D9094B9C466044084BC018F4E7064B3F
:1012A0009C466044064B1B68C018F5E76816012091
:1012B00068090020841601200080FFFF6C090020CF
:1012C000101501200023002000E00133072B0EDC65
:1012D00040089A000B495158D02212065268CA4061
:1012E000D207F2D5802252421043C0B2EDE7064B3E
:1012F0001B68632B04DC591C034A1160034AD05459
:101300007047C04628090020341501208C170220A0
:10131000002309E09A000B49515801228A40D0214C
:1013200009068A6140080133072B0ADCC207F1D5A0
:101330009A000449515801228A40D02109064A6185
:10134000F0E770472809002010B503230340032B62
:1013500001D0002324E01B4B1A6801239340D022C4
:1013600012065361184B1978184B18681022FFF7B2
:1013700011F8002308E09900154A895801228A4093
:10138000D02109064A620133072BF4DD18E09900E9
:101390000F4A895801228A40D02109068A62013306
:1013A000072BF4DD074B1A6801239340D022120665
:1013B0009361054B1978054B18681022FEF7EAFF78
:1013C00010BDC04624B200105D15012020B20010EF
:1013D000280900200023002000E00133072B0EDC49
:1013E0004000C0B29A0006495158D02212065268F5
:1013F000CA40D207F1D501221043C0B2EDE77047D1
:101400004809002070B50500002452E0344B1978DB
:10141000344B18681022FEF7BDFF48E0304A1378BD
:1014200008218B431370EA0703D5082213432C4A83
:1014300013702B4B19782B4B18681022FEF7AAFF5C
:1014400035E0274A137810218B431370EA0703D540
:1014500010221343224A1370214B1978214B18682C
:101460001022FEF797FF22E01D4A137820218B43BC
:101470001370EA0703D520221343194A1370184B3F
:101480001978184B18681022FEF784FF0FE0144BF0
:101490001978144B18681022FEF77CFF07E0EA0762
:1014A00015D501229A401300D022120653616D080F
:1014B0000134072C12DCA3000B4A9B58632BEED996
:1014C000643B042BF3D89B00084AD3589F46012263
:1014D0009A401300D02212069361E8E770BDC0461F
:1014E0005D15012020B2001048090020ECB4001066
:1014F00010B50200172809D8032830D3C31E99B2AB
:1015000014292CD88B003B49CB589F46C0239B0005
:10151000984234D00FD9D8239B00984207D02BD9BA
:10152000E8239B00984202D04033984217D1FFF73E
:101530000BFD002029E07F3BFF3B98420CD3E023CA
:101540005B0098420BD12C4B1A6801239340D022A8
:1015500012069361002018E0023B984224D203B2A5
:10156000002B36DB8023DB01984202D3234B1A6821
:101570008218234B985C08E0203B9842EFD1FFF79C
:1015800013FD002001E01F4B187810BD1E4B18887A
:10159000000AFAE71C4B1878F7E71C4B1888000A7A
:1015A000F3E71A4B1878F0E7FFF760FDEDE7184B0B
:1015B0001868FEF7D3FE7F235840C0B2012398433A
:1015C0000F4B5875E1E7FFF77DFEDEE7FFF702FFFF
:1015D000DBE7C0231B02984205D90E4B9C466044B2
:1015E0000D4B185CD1E70B4B9C4660440B4B1B68C2
:1015F000C018F5E700B5001028B2001068090020F7
:10160000841601205F150120541501205215012078
:1016100018B200100080FFFF6C0900201015012097
:1016200010B56D282FD01FD84D2837D05D2800D198
:101630003149324A137A02208343013883431372BB
:10164000D268002A2CD10A78002A4AD104221343F6
:101650002A4A13720023CB56002B47DB274A137A02
:1016600008218B43137210BD7D28E2D11202D218DB
:1016700090B2FFF7F9FD0100204A138801339BB2B5
:1016800001331380D5E71D4C6088801880B2FFF7C6
:10169000EBFD0100238801332380CAE71849C8E71E
:1016A000164C208AFFF724FF0023E36000280CD1AA
:1016B000124A137A04210B43137203060BD40F4A08
:1016C000137A08218B431372CDE70C4A137A042155
:1016D0008B431372F1E7094A137A08210B43137203
:1016E000C1E704229343054A1372B3E7034A137A0E
:1016F00008210B431372B6E76F160120681601200C
:101700006E16012010B50200172808D803B2002B6E
:1017100020D017281ED88300344CE3589F46C0239E
:101720009B0098422FD00ED9D8239B00984207D017
:1017300026D9E8239B00984202D04033984209D131
:10174000FFF702FC24E07F3BFF3B98420CD2023BB8
:1017500098423CD28023DB01984202D3244B1A6882
:101760008218244B995413E0E0235B009842F1D196
:10177000214B1A6801239340D0221206936107E09F
:10178000203B9842E6D1FFF70FFC01E01B4B19709C
:1017900010BD1B4A1088FF23034009021943118022
:1017A000F6E7174B1888FF22904301431980EFE7B3
:1017B000144A1088FF230340090219431180E7E708
:1017C000104B1888FF22904301431980E0E7FFF790
:1017D000B3FCDDE70800FFF79BFDD9E70800FFF742
:1017E000B3FDD5E70800FFF70DFED1E754B50010B3
:1017F000680900208416012028B200105F1501201E
:10180000541501205215012070B56A283AD02AD803
:101810004A2842D05A2800D1304C2378802B3ED021
:101820002F4A137A02218B4313722D4BDB68002B56
:101830003BD121780139C9B22170294BDB68002BDB
:1018400038D12378002B3CD1254A137A04210B434D
:1018500013720023E356002B39DB214A137A082147
:101860008B43137270BD7A28D7D11202D21890B26E
:10187000FFF7FAFC04001A4A138801339BB20133C4
:101880001380CAE7164D6888801880B2FFF7ECFC19
:1018900004002B8801332B80BFE7124CBDE7104AB0
:1018A000137A02210B431372BFE70D4B188AFFF71F
:1018B0001FFEBEE70A4D288AFFF724FF0023EB60D6
:1018C000BFE7074A137A04218B431372C1E7044A26
:1018D000137A08210B431372C4E7C0466F16012028
:1018E000681601206E16012070B56C283AD02AD8EF
:1018F0004C2842D05C2800D1304C314BDB68002BA7
:101900003DD121780131C9B221702D4BDB68002B0C
:101910003AD12378802B3ED0294A137A02218B4377
:1019200013722378002B3CD1254A137A04210B43F0
:1019300013720023E356002B39DB214A137A082166
:101940008B43137270BD7C28D7D11202D21890B28B
:10195000FFF78AFC04001A4A138801339BB2013353
:101960001380CAE7164D6888801880B2FFF77CFCA8
:1019700004002B8801332B80BFE7124CBDE7104BCE
:10198000188AFFF7B5FDBCE70D4D288AFFF7BAFEB0
:101990000023EB60BDE70A4A137A02210B4313725E
:1019A000BFE7074A137A04218B431372C1E7044A45
:1019B000137A08210B431372C4E7C0466F16012047
:1019C000681601206E16012010B56F2827D017D891
:1019D0004F282FD05F2800D11B491C4BDB68002B00
:1019E0002AD100230B70194A137A02218B43013943
:1019F0008B4304210B43DBB208218B43137210BDD0
:101A00007F28EAD11202D21890B2FFF72DFC010014
:101A10000E4A138801339BB201331380DDE70B4C70
:101A20006088801880B2FFF71FFC01002388013313
:101A30002380D2E70649D0E7044C208A0021FFF733
:101A400061FE0023E360CEE76F16012068160120D7
:101A50006E16012070B5602842D032D840284AD096
:101A6000502800D1374C384BDB68002B45D121780A
:101A70004942C9B22170344BDB68002B42D1237834
:101A8000802B46D0304A137A02218B43137223787D
:101A9000002B44D02C4A137A01210B431372237874
:101AA000002B42D1284A137A04210B4313720023DE
:101AB000E356002B3FDB244A137A08218B43137231
:101AC00070BD7028CFD11202D21890B2FFF7CCFBB4
:101AD00004001D4A138801339BB201331380C2E70F
:101AE000194D6888801880B2FFF7BEFB04002B8870
:101AF00001332B80B7E7154CB5E7134B188AFFF776
:101B0000F7FCB4E7104D288AFFF7FCFD0023EB60DB
:101B1000B5E70D4A137A02210B431372B7E70A4A5D
:101B2000137A01218B431372B9E7074A137A042110
:101B30008B431372BBE7044A137A08210B431372D9
:101B4000BEE7C0466F160120681601206E16012000
:101B500070B5682847D037D848284FD0582800D1CA
:101B6000394C0023E356002B4ADB384A137A012113
:101B70008B431372354BDB68002B47D1217849002A
:101B8000C9B22170314BDB68002B44D12378002B84
:101B900048D12E4A137A04210B4313720023E356D3
:101BA000002B45DB294A137A08218B431372274BFC
:101BB0001B7A09221A40082A40D0012A3ED002226C
:101BC0009343224A13723DE07828CAD11202D218F8
:101BD00090B2FFF749FB04001C4A138801339BB203
:101BE00001331380BDE7194D6888801880B2FFF774
:101BF0003BFB04002B8801332B80B2E7144CB0E789
:101C0000124A137A01210B431372B3E70F4B188A60
:101C1000FFF76EFCB2E70D4D288AFFF773FD002336
:101C2000EB60B3E7094A137A04218B431372B5E7DB
:101C3000064A137A08210B431372B8E702221343B2
:101C4000024A137270BDC0466F160120681601204B
:101C50006E16012070B5632839D029D8432841D0A9
:101C6000532800D12C4C2D4BDB68002B3CD1217824
:101C7000C943C9B22170294BDB68002B39D1274AEF
:101C8000137A02218B4301210B43DBB213722278BA
:101C9000002A35D104221343204A13720023E3564D
:101CA000002B32DB1D4A137A08218B43137270BD5F
:101CB0007328D8D11202D21890B2FFF7D5FA0400D7
:101CC000164A138801339BB201331380CBE7134DBF
:101CD0006888801880B2FFF7C7FA04002B880133A8
:101CE0002B80C0E70E4CBEE70C4B188AFFF700FCB8
:101CF000BDE70A4D288AFFF705FD0023EB60BEE72C
:101D000004229343054A1372C8E7044A137A082150
:101D10000B431372CBE7C0466F16012068160120F3
:101D20006E16012070B564283DD02DD8442845D0CA
:101D3000542800D1314C2378DB0741D5304A137A3F
:101D400001210B4313722E4BDB68002B3ED121780F
:101D5000490821702A4BDB68002B3CD1284B1B7AA9
:101D6000DA073FD502221343254A13722378002B4A
:101D70003DD1234A137A04210B431372204A137A6C
:101D800008218B43137270BD7428D4D11202D2186B
:101D900090B2FFF769FA0400194A138801339BB225
:101DA00001331380C7E7164D6888801880B2FFF7AB
:101DB0005BFA04002B8801332B80BCE7114CBAE797
:101DC0000F4A137A01218B431372BCE70C4B188A1C
:101DD000FFF78EFBBBE70A4D288AFFF793FC002331
:101DE000EB60BBE702229343054A1372BEE7044A45
:101DF000137A04218B431372C0E7C0466F1601208B
:101E0000681601206E16012070B5672844D034D8BA
:101E100047284CD0572800D1354C2378DB0748D5CC
:101E2000344A137A01210B431372324BDB68002BC7
:101E300045D123785B08237040221A4202D0C03A71
:101E4000134323702B4BDB68002B3DD12378002BF1
:101E500042D1284A137A04210B431372254B1B7A73
:101E60000822934301321A40082A3BD0012A39D074
:101E7000022293431F4A137238E07728CDD1120211
:101E8000D21890B2FFF7F0F904001A4A1388013310
:101E90009BB201331380C0E7164D6888801880B26A
:101EA000FFF7E2F904002B8801332B80B5E7124CD1
:101EB000B3E7104A137A01218B431372B5E70D4B38
:101EC000188AFFF715FBB4E721780A4D288AFFF737
:101ED00019FC0023EB60B9E7064A137A04218B430F
:101EE0001372BBE702221343024A137270BDC0464D
:101EF0006F160120681601206E16012070B5692842
:101F00004FD03FD8492857D0592800D13D4C3E4B9F
:101F10001B7A01251D400022A256002A4EDB012219
:101F20009343394A1372384BDB68002B4BD123782B
:101F30005B00DBB22370002D02D00122134323701B
:101F4000314BDB68002B43D12378002B48D12E4A3C
:101F5000137A04210B4313720023E356002B45DB55
:101F6000294A137A08218B431372274B1B7A0922C3
:101F70001A40082A40D0012A3ED002229343224A26
:101F800013723DE07928C2D11202D21890B2FFF745
:101F90006BF904001C4A138801339BB20133138090
:101FA000B5E7194D6888801880B2FFF75DF9040025
:101FB0002B8801332B80AAE7144CA8E70122134396
:101FC000114A1372AFE7104B188AFFF791FAAEE788
:101FD00021780D4D288AFFF795FB0023EB60B3E7CE
:101FE000094A137A04218B431372B5E7064A137A20
:101FF00008210B431372B8E702221343024A1372FB
:1020000070BDC0466F160120681601206E160120B3
:1020100070B566284ED03ED8462856D0562800D1F6
:102020003C4C3D4B1B7A012215001D4021780A4291
:102030004DD01343384A1372374BDB68002B4BD11A
:1020400023785B082370002D03D080225242134373
:102050002370314BDB68002B43D12378002B48D110
:102060002D4A137A04210B4313720023E356002BED
:1020700045DB294A137A08218B431372264B1B7ABE
:1020800009221A40082A40D0012A3ED00222934356
:10209000214A13723DE07628C3D11202D21890B2C1
:1020A000FFF7E2F804001C4A138801339BB20133A6
:1020B0001380B6E7184D6888801880B2FFF7D4F80F
:1020C00004002B8801332B80ABE7144CA9E70122D5
:1020D0009343114A1372AFE70F4B188AFFF708FAC0
:1020E000AEE721780C4D288AFFF70CFB0023EB604C
:1020F000B3E7094A137A04218B431372B5E7064A02
:10210000137A08210B431372B8E702221343024AE1
:10211000137270BD6F160120681601206E16012023
:1021200010B50200C1235B00984211D2023B9842D5
:1021300043D2152844D004D9172831D1FFF74AF9E2
:1021400005E0032848D008282AD12D4B187810BD67
:10215000D0239B0098421CD00AD9E8239B009842C8
:1021600002D04033984218D1FEF7EEFE0020EEE791
:10217000813BFF3B984208D1224B1A6801239340D0
:10218000D022120693610020E1E74133FF339842E9
:1021900006D1FEF709FF0020D9E7803B9842E3D043
:1021A00003B2002B1BDB8023DB01984202D3164BCA
:1021B0001A688218154B985CC9E7FEF757FFC6E707
:1021C000134B1868FEF7CAF87F235840C0B20123AA
:1021D00098430E4B5875BAE7FFF774F8B7E7C0237A
:1021E0001B02984205D90B4B9C4660440A4B185C75
:1021F000ADE7084B9C466044084B1B68C018F5E7E8
:102200005F15012028B20010680900208416012003
:1022100018B200100080FFFF6C090020101501208B
:1022200010B5140000216B2819D07B2820D0194A42
:10223000138801339BB201331380137A0222934334
:102240004AB2002A1ADB08229343124A1372002969
:1022500019D1104A137A04210B43137210BD0D4A91
:102260005088C01880B2FFF75BFF21000140DEE715
:1022700098B2FFF755FF21000140D8E70822134329
:10228000044A1372E3E7034A137A04218B4313725F
:10229000E4E7C0466816012010B533280DD0382871
:1022A00014D0322800D010BD134CA088013080B269
:1022B000A080FFF735FFA071F5E70F4CA088013033
:1022C00080B2A080FFF72CFFE071ECE70A4CA088F9
:1022D000013080B2A080FFF723FF80B2000260804F
:1022E000A088013080B2A080FFF71AFF80B2638817
:1022F000C0186080D7E7C0466816012070B500247A
:10230000C42800D16AE020D8A4285BD00FD9B42813
:102310003FD112029B1898B2FFF702FF84B23E49E8
:102320000B8801339BB201330B80063131E08428E6
:1023300029D094282DD190B2FFF7F2FE84B236490D
:102340000B8801330B80063123E0E4284DD0F428BC
:102350000DD112029B1898B2FFF7E2FE84B22E490B
:102360000B8801339BB201330B80073111E0D42875
:102370000FD190B2FFF7D4FE84B227490B88013306
:102380000B80073105E094B223490B8801330B80A1
:1023900006310878204008701F4A137A02208343D0
:1023A00013720A78002A2CD1042213431A4A13729A
:1023B0000023CB56002B29DB174A137A08218B43C5
:1023C000137270BD144D6888101880B2FFF7A8FE14
:1023D00084B22B8801332B80A91DDAE794B20E4911
:1023E0000B8801330B800731D3E70B4D6888101839
:1023F00080B2FFF795FE84B22B8801332B80E91D54
:10240000C7E704229343044A1372D1E7024A137ABE
:1024100008210B431372D4E76816012070B500241D
:10242000C82800D16AE020D8A8285BD00FD9B828E6
:102430003FD112029B1898B2FFF772FE84B23E4958
:102440000B8801339BB201330B80063131E08828C1
:1024500029D098282DD190B2FFF762FE84B2364978
:102460000B8801330B80063123E0E8284DD0F82893
:102470000DD112029B1898B2FFF752FE84B22E497A
:102480000B8801339BB201330B80073111E0D82850
:102490000FD190B2FFF744FE84B227490B88013375
:1024A0000B80073105E094B223490B8801330B8080
:1024B00006310878604008701F4A137A022083436F
:1024C00013720A78002A2CD1042213431A4A137279
:1024D0000023CB56002B29DB174A137A08218B43A4
:1024E000137270BD144D6888101880B2FFF718FE83
:1024F00084B22B8801332B80A91DDAE794B20E49F0
:102500000B8801330B800731D3E70B4D6888101817
:1025100080B2FFF705FE84B22B8801332B80E91DC2
:10252000C7E704229343044A1372D1E7024A137A9D
:1025300008210B431372D4E76816012070B50024FC
:10254000CA2800D16AE020D8AA285BD00FD9BA28BF
:102550003FD112029B1898B2FFF7E2FD84B23E49C8
:102560000B8801339BB201330B80063131E08A289E
:1025700029D09A282DD190B2FFF7D2FD84B23649E6
:102580000B8801330B80063123E0EA284DD0FA286E
:102590000DD112029B1898B2FFF7C2FD84B22E49EA
:1025A0000B8801339BB201330B80073111E0DA282D
:1025B0000FD190B2FFF7B4FD84B227490B880133E5
:1025C0000B80073105E094B223490B8801330B805F
:1025D00006310878204308701F4A137A022083438B
:1025E00013720A78002A2CD1042213431A4A137258
:1025F0000023CB56002B29DB174A137A08218B4383
:10260000137270BD144D6888101880B2FFF788FDF2
:1026100084B22B8801332B80A91DDAE794B20E49CE
:102620000B8801330B800731D3E70B4D68881018F6
:1026300080B2FFF775FD84B22B8801332B80E91D32
:10264000C7E704229343044A1372D1E7024A137A7C
:1026500008210B431372D4E76816012010B500213E
:10266000C52800D167E020D8A52858D00FD9B528B3
:102670003FD11002181880B2FFF752FD81B23D4CD5
:10268000238801339BB201332380063431E085284F
:1026900029D095282DD190B2FFF742FD81B2354C5B
:1026A000238801332380063423E0E5284AD0F52827
:1026B0000DD11002181880B2FFF732FD81B22D4CF7
:1026C000238801339BB201332380073411E0D528DE
:1026D0000FD190B2FFF724FD81B2264C238801333D
:1026E0002380073405E091B2224C238801332380F4
:1026F000063400202056084040B21E4B1B7A0222AE
:10270000934300282AD1042213431A4A1372002843
:1027100029DB184A137A08218B43137210BD154C1C
:102720006088101880B2FFF7FBFC81B22388013368
:1027300023800634DDE791B20E4C238801332380D9
:102740000734D6E70B4C6088101880B2FFF7E8FC1E
:1027500081B22388013323800734CAE704229343DC
:10276000044A1372D3E7034A137A08210B43137206
:10277000D4E7C0466816012070B50021E3286AD06E
:1027800015D8C3282CD0D32833D194B22000FFF71A
:10279000C7FC0500601CFFF7C3FC2D02A9B280B284
:1027A000091889B24F4A13880133138021E0F328B6
:1027B0001FD112029A1894B22000FFF7B1FC050055
:1027C0000134A0B2FFF7ACFC2D02A9B280B2091807
:1027D00089B2444A138801339BB20133138008E065
:1027E00012029A1891B23F4A138801339BB2013307
:1027F00013803C4A93791B02D07902001A43521885
:1028000092B203438024240218002040234202D0C5
:102810000BB2002B34DB002805D10BB2002B02DBFE
:1028200013B2002B2FDB2F4C237A0225AB432372EC
:10283000002802D00BB2002B2EDB09B2002928DBC6
:1028400013B2002B01DB002826D126490B7A012088
:1028500083430B7225E0234E74881419A4B2200020
:10286000FFF75EFC05000134A0B2FFF759FC2D0212
:10287000A9B280B2091889B2338801333380B8E72E
:1028800013B2002BC7DB174C237A02252B4323728C
:10289000CEE713B2002BD3DB12490B7A012003439E
:1028A0000B72002A11D10F490B7A042003430B72DB
:1028B00013B2002B0FDB0B490B7A082083430B72FA
:1028C000084B110A9971DA7170BD06490B7A042020
:1028D00083430B72ECE703490B7A082003430B7226
:1028E000EEE7C0466816012070B50021AC285AD02A
:1028F00015D88C282CD09C2833D194B22000FFF717
:102900000FFC0500601CFFF70BFC2D02A9B280B282
:10291000091889B24A4A13880133138021E0BC2880
:102920001FD112029A1894B22000FFF7F9FB05009C
:102930000134A0B2FFF7F4FB2D02A9B280B209184E
:1029400089B23F4A138801339BB20133138008E0F8
:1029500012029A1891B23A4A138801339BB201339A
:102960001380374B5A88531A9BB212B2002A2FDBBE
:10297000002A02DB08B2002836DB314C207A02251F
:10298000A8432072002A02DB08B2002836DB09B215
:1029900000292DDB19B200292EDB29490A7A0120F2
:1029A00082430A722FE0264E74881419A4B22000C4
:1029B000FFF7B6FB05000134A0B2FFF7B1FB2D0213
:1029C000A9B280B2091889B2338801333380C8E7CD
:1029D00008B20028CCDB18B20028C9DB184C207ADA
:1029E000022528432072CDE718B20028C5DAF5E7A2
:1029F00019B20029CEDA01E0002ACEDB10490A7AAA
:102A0000012002430A72002B0DD10D490A7A0420DD
:102A100002430A721BB2002B0BDB094A137A08210E
:102A20008B43137270BD06490A7A042082430A72EE
:102A3000F0E7034A137A08210B431372F2E7C0460A
:102A40006816012070B50021A32853D015D883281B
:102A50002CD0932833D194B22000FFF761FB0500FE
:102A6000601CFFF75DFB2D02A9B280B2091889B284
:102A7000504A13880133138021E0B3281FD112027A
:102A80009A1894B22000FFF74BFB05000134A0B266
:102A9000FFF746FB2D02A9B280B2091889B2454A58
:102AA000138801339BB20133138008E012029A1895
:102AB00091B2404A138801339BB2013313803D4ADF
:102AC00093791B02D07902001A43521A92B203433F
:102AD0008024240218002040234220D00BB2002B77
:102AE0001DDB13B2002B1ADB324C237A02252B4359
:102AF00023721EE02F4E74881419A4B22000FFF731
:102B00000FFB05000134A0B2FFF70AFB2D02A9B2AA
:102B100080B2091889B2338801333380CFE70028A7
:102B200002D10BB2002B28DB224C237A0225AB43C7
:102B30002372002802D10BB2002B28DB09B2002936
:102B40001FDB13B2002B20DB1A490B7A01208343D1
:102B50000B72002A21D117490B7A042003430B7210
:102B600013B2002B1FDB13490B7A082083430B722F
:102B7000104B110A9971DA7170BD13B2002BD3DAC0
:102B8000B2E713B2002BDCDA01E00028DCD10949FE
:102B90000B7A012003430B72DBE706490B7A042012
:102BA00083430B72DCE703490B7A082003430B7263
:102BB000DEE7C0466816012010B51F4CA088013022
:102BC00080B2A080FFF7ACFA2072A088013080B2FA
:102BD000A080FFF7A5FAE071A088013080B2A08044
:102BE000FFF79EFAA071A088013080B2A080FFF7A5
:102BF00097FA80B200026080A088013080B2A08085
:102C0000FFF78EFA80B2638818436080A088013095
:102C100080B2A080FFF784FA80B200022080A088F2
:102C2000013080B2A080FFF77BFA80B2238818437E
:102C30000138208010BDC0466816012010B50B4C2D
:102C4000A088013080B2A080FFF76AFA80B200024B
:102C50002080A088013080B2A080FFF761FA80B2A6
:102C6000238818430138208010BDC0466816012013
:102C700070B5EC2846D011D8CC2824D0DC282AD135
:102C800095B22800FFF74CFA2E4CA071681CFFF794
:102C900047FAE0712388013323801CE0FC281AD115
:102CA0001202D21894B22000FFF73AFA254DA8710B
:102CB0000134A0B2FFF734FAE8712B8801339BB2DC
:102CC00001332B8007E01F498A71CB710B880133D8
:102CD0009BB201330B801B490A7A02239A438B79FA
:102CE0001B02C9790B4321D104210A4315490A72F9
:102CF0008022120213421ED0124A137A08210B437B
:102D0000137270BD0F4D688894B2101880B2FFF72F
:102D100007FAA8716888201880B2013080B2FFF7E6
:102D2000FFF9E8712B8801332B80D4E704218A4313
:102D300004490A72DCE7034A137A08218B431372B1
:102D4000DFE7C0466816012070B5C92800D18AE0C7
:102D500022D8A92800D17AE010D9B92840D112028E
:102D600090B2C01880B2FFF7DBF9020069490B8806
:102D700001339BB201330B80063131E089282AD020
:102D800099282DD190B2FFF7CBF9020061490B8849
:102D900001330B80063123E0E9286AD0F9280ED1EF
:102DA000120290B2C01880B2FFF7BAF90200594976
:102DB0000B8801339BB201330B80073110E0D92817
:102DC0000ED190B2FFF7ACF9020052490B880133E3
:102DD0000B80073104E04F490B8801330B8006312B
:102DE00008784C4B1C7A012323409B18DBB21B183C
:102DF000DBB20B7044B2002C47DB002C01DB150664
:102E00004ED4444D2B7A0226B3432B720B78002B01
:102E10004AD1404D2B7A042633432B720023CB56E4
:102E2000002B47DB3B4D2B7A0826B3432B72002C3B
:102E300046DB130647D40023CB56002B01DB002CC6
:102E400045DB344C237A0125AB43237244E0314CFB
:102E50006088801880B2FFF763F90200238801338D
:102E60002380A11DBCE72B490B8801330B80073160
:102E7000B6E7284C6088801880B2FFF751F902004D
:102E8000238801332380E11DAAE71506B5D45DB27E
:102E9000002DB2DB1F4D2B7A022633432B72B5E790
:102EA0005BB2002BADDAF5E71A4D2B7A0426B3435B
:102EB0002B72B3E7174D2B7A082633432B72B6E7F4
:102EC0001306B6D503E00023CB56002BB3DB114C21
:102ED000237A01252B43237208231C00044003425C
:102EE00001D0130709D4130702D50B781B0704D5AB
:102EF0000B781B0707D4002C05D0064A137A202133
:102F00000B43137270BD034A137A20218B43137253
:102F1000F8E7C0466816012070B5BB2800D17FE0F5
:102F200014D9EB2800D190E02BD9FB283AD112021A
:102F300090B2C01880B2FFF7F3F8020069490B881D
:102F400001339BB201330B8007312BE09B285DD00E
:102F50000DD9AB2826D1634C6088801880B2FFF76A
:102F6000DFF80200238801332380A11D1AE01B280B
:102F700015D08B2816D15B490B8801330B800631A5
:102F800010E0CB285BD0DB280CD190B2FFF7C8F85B
:102F9000020054490B8801330B80073102E051498C
:102FA000CA79063108781318DBB20B7044B2002CD2
:102FB00057DB002C04DB150602D45BB2002B55DB7B
:102FC000484D2B7A0226B3432B720B78002B53D13A
:102FD000444D2B7A042633432B720023CB56002B0F
:102FE00050DB404D2B7A0826B3432B72002C4FDB6D
:102FF000130650D40023CB56002B01DB002C4EDBF4
:10300000384C237A0125AB4323724DE090B2FFF791
:1030100087F8020033490B8801330B800631C1E782
:10302000120290B2C01880B2FFF77AF802002D4960
:103030000B8801339BB201330B800631B2E729497B
:103040000B8801330B800731ACE7264C6088801871
:1030500080B2FFF765F80200238801332380E11D69
:10306000A0E71506A5D55DB2002DA2DB1D4D2B7A7C
:10307000022633432B72A8E71A4D2B7A0426B3435A
:103080002B72AAE7174D2B7A082633432B72ADE734
:103090001306ADD503E00023CB56002BAADB114C61
:1030A000237A01252B43237208231C00044003428A
:1030B00001D0130709D4130702D50B781B0704D5D9
:1030C0000B781B0707D4002C05D0064A137A202161
:1030D0000B43137270BD034A137A20218B43137282
:1030E000F8E7C0466816012010B5C62800D169E08F
:1030F00021D8A6285AD010D9B62840D1120290B2B1
:10310000C01880B2FFF70CF802003D4C2388013351
:103110009BB201332380063431E086282AD09628DA
:103120002DD190B2FEF7FCFF0200354C238801330D
:103130002380063423E0E6284AD0F6280ED1120276
:1031400090B2C01880B2FEF7EBFF02002C4C23882F
:1031500001339BB201332380073410E0D6280ED10F
:1031600090B2FEF7DDFF0200254C23880133238057
:10317000073404E0224C238801332380063420499D
:103180000B7A022083430B722270002A2CD10A0092
:103190000B7A04210B4313720023E356002B29DB27
:1031A000174A137A08218B43137210BD144C6088A0
:1031B000801880B2FEF7B4FF020023880133238019
:1031C0000634DCE70E4C2388013323800734D6E72E
:1031D0000B4C6088801880B2FEF7A2FF02002388A3
:1031E000013323800734CAE7054A137A04218B434D
:1031F0001372D1E7024A137A08210B431372D4E702
:103200006816012070B5C12800D17EE021D8A12820
:103210006FD010D9B12840D1120290B2C01880B23C
:10322000FEF77EFF020055490B8801339BB2013344
:103230000B80063131E081282AD091282DD190B21F
:10324000FEF76EFF02004D490B8801330B800631FB
:1032500023E0E1285FD0F1280ED1120290B2C0180D
:1032600080B2FEF75DFF020044490B8801339BB238
:1032700001330B80073110E0D1280ED190B2FEF758
:103280004FFF02003D490B8801330B80073104E0FA
:103290003A490B8801330B8006310C78A31ADBB254
:1032A00064B2002C43DB002C01DB11064AD4334806
:1032B000017A0225A9430172002B47D12F48017AD8
:1032C0000425294301725BB2002B45DB2B49087AA8
:1032D0000825A8430872002C01DB110647D412060A
:1032E00040D4002B41DB254A137A01218B43137212
:1032F00042E0224C6088801880B2FEF711FF020085
:10330000238801332380A11DC7E71C490B880133A3
:103310000B800731C1E7194C6088801880B2FEF736
:10332000FFFE0200238801332380E11DB5E711066B
:10333000B9D459B20029B6DB1048017A02252943D5
:103340000172B9E759B20029B1DAF5E70B48017A01
:103350000425A9430172B6E70848017A08252943E4
:103360000172B8E7002BBCDA01E0002CBBDB034A9A
:10337000137A01210B43137270BDC04668160120F9
:1033800070B5C22800D18AE022D8A22800D17AE004
:1033900010D9B22840D1120290B2C01880B2FEF704
:1033A000BFFE02005B490B8801339BB201330B80E7
:1033B000063131E082282AD092282DD190B2FEF732
:1033C000AFFE020053490B8801330B80063123E026
:1033D000E2286AD0F2280ED1120290B2C01880B250
:1033E000FEF79EFE02004B490B8801339BB201336E
:1033F0000B80073110E0D2280ED190B2FEF790FE7C
:10340000020044490B8801330B80073104E0414935
:103410000B8801330B80063108783E4B1C7A012360
:1034200023409B18DBB2C31ADBB20B7040B20028FA
:1034300047DB002801DB14064ED4364C237A0225E4
:10344000AB4323720B78002B4AD1324C237A0425EC
:103450002B4323720023CB56002B47DB2D4C237AC2
:103460000825AB432372002801DB13064BD4130657
:1034700042D40023CB56002B43DB264A137A01218A
:103480008B43137244E0234C6088801880B2FEF7AF
:1034900047FE0200238801332380A11DBCE71D499C
:1034A0000B8801330B800731B6E71A4C608880180F
:1034B00080B2FEF735FE0200238801332380E11D30
:1034C000AAE71406B5D45CB2002CB2DB114C237A07
:1034D00002252B432372B5E75BB2002BADDAF5E78B
:1034E0000C4C237A0425AB432372B3E7094C237AAF
:1034F00008252B432372B6E70023CB56002BB8DAFE
:1035000001E00028B9DB034A137A01210B4313724F
:1035100070BDC0466816012070B5C02800D183E098
:1035200021D8A02874D010D9B02840D1120290B26E
:10353000C01880B2FEF7F4FD020058490B88013331
:103540009BB201330B80063131E080282AD09028CD
:103550002DD190B2FEF7E4FD020050490B880133F3
:103560000B80063123E0E02864D0F0280ED112024F
:1035700090B2C01880B2FEF7D3FD020047490B8815
:1035800001339BB201330B80073110E0D0280ED1FC
:1035900090B2FEF7C5FD020040490B8801330B8055
:1035A000073104E03D490B8801330B8006310B786D
:1035B000981AC0B208705BB2002B47DB002B01DB0E
:1035C00014064ED4354C207A0225A8432072087880
:1035D00000284AD1314C207A04252843207200204B
:1035E0000856002847DB2D4C207A0825A843207276
:1035F000002B01DB10064BD4120642D400228A565F
:10360000002A43DB254A137A01218B43137244E0DD
:10361000224C6088801880B2FEF782FD0200238869
:1036200001332380A11DC2E71C490B8801330B80A5
:103630000731BCE7194C6088801880B2FEF770FD36
:103640000200238801332380E11DB0E71406B5D4BE
:1036500044B2002CB2DB114C207A022528432072A0
:10366000B5E740B20028ADDAF5E70C4C207A042526
:10367000A8432072B3E7094C207A0825284320721A
:10368000B6E700228A56002AB8DA01E0002BB9DB3F
:10369000024A137A01210B43137270BD6816012090
:1036A00003B2002B10DB8023DB0198422DD20300F4
:1036B0001A4AD35C1B021A4A90422AD80130174A90
:1036C000105CC01880B27047C0231B0298420FD90B
:1036D000144BC318144AD35C1B02144A90420DD9F0
:1036E000134A94466044104A105CC01880B2EAE75E
:1036F000104B1A680B4BC3189B18EBE70C4A944607
:1037000060440C4A12688018EDE70B4B1B68C31825
:10371000CEE70130084A12688018D0E784160120ED
:10372000FE3F00000080FFFF6C090020FFBF00008B
:103730000180FFFF101501206809002070B50024EA
:10374000CE2840D021D8AE2800D174E00FD9BE28B1
:1037500043D11002C01880B2FFF7A2FF0400414914
:103760000B8801339BB201330B80043135E08E2886
:1037700056D09E2831D190B2FFF792FF040039490C
:103780000B8801330B80043127E0EE283CD0FE2863
:103790000DD11002C01880B2FFF782FF040031493A
:1037A0000B8801339BB201330B80023115E0DE2818
:1037B00013D190B2FFF774FF04002A490B8801333C
:1037C0000B80023109E012021A43140025490B88CC
:1037D00001339BB201330B8002310C80214A137AF2
:1037E0000220834313720A88002A30D10422134333
:1037F0001C4A137200228B5E002B2DDB194A137AB0
:1038000008218B43137270BD164D6888801880B2F2
:10381000FFF746FF04002B8801332B80A91CDCE74F
:1038200012021A4314000F490B8801339BB2013373
:103830000B800431D1E70B4D6888801880B2FFF708
:103840002FFF04002B8801332B80291DC5E704229C
:103850009343044A1372CDE7024A137A08210B43BB
:103860001372D0E76816012010B50200172808D897
:1038700003B2002B20D017281ED88300304CE35809
:103880009F46C0239B00984232D00ED9D8239B007C
:10389000984207D029D9E8239B00984202D04033B0
:1038A000984209D1FDF750FB12E07F3BFF3B984265
:1038B0000FD2023B984221D203B2002B08DB8023B7
:1038C000DB01984202D31F4B1A6882181E4B995491
:1038D00010BDE0235B009842EED11C4B1A68012317
:1038E0009340D02212069361F2E7203B9842E3D145
:1038F000FDF75AFBECE7164B1970DDE7FDF71CFCF2
:10390000E6E70800FDF704FDE2E70800FDF77AFDB1
:10391000DEE7002907D00F4B19780F4B18681022EB
:10392000FCF738FDD4E70B4B19780B4B18681022C5
:10393000FCF730FDCCE70800FDF706FDC8E7C04600
:10394000B4B50010680900208416012028B20010C8
:103950005F1501205D15012020B20010F8B515009B
:103960000024622819D0722827D01F4A13880133F7
:103970009BB201331380137A0222934362B2002A6E
:1039800026DB08229343184A1372002C25D1164ACD
:10399000137A04210B431372F8BD9EB2124F78883C
:1039A000181880B2FEF7BCFB0543ECB278883018DB
:1039B00080B22100FFF758FFD7E79EB23000FEF734
:1039C000AFFB0543ECB221003000FFF74DFFCCE721
:1039D00008221343044A1372D7E7034A137A0421D7
:1039E0008B431372D8E7C04668160120F8B515005E
:1039F0000026612819D0712827D01F4A1388013367
:103A00009BB201331380137A0222934372B2002ACD
:103A100026DB08229343184A1372002E25D1164A3A
:103A2000137A04210B431372F8BD9CB2124F7888AD
:103A3000181880B2FEF774FB05402E007888201815
:103A400080B22900FFF710FFD7E79CB22000FEF7F5
:103A500067FB05402E0029002000FFF705FFCCE79B
:103A600008221343044A1372D7E7034A137A042146
:103A70008B431372D8E7C04668160120F8B51500CD
:103A80000024652819D0752827D01F4A13880133D0
:103A90009BB201331380137A0222934362B2002A4D
:103AA00026DB08229343184A1372002C25D1164AAC
:103AB000137A04210B431372F8BD9EB2124F78881B
:103AC000181880B2FEF72CFB4540ECB2788830180D
:103AD00080B22100FFF7C8FED7E79EB23000FEF7A4
:103AE0001FFB4540ECB221003000FFF7BDFECCE7E4
:103AF00008221343044A1372D7E7034A137A0421B6
:103B00008B431372D8E7C0466816012010B53728DA
:103B10000CD03C2812D0362800D010BD0F4B98880E
:103B2000421E9A809979FFF79FFEF6E70B4B988823
:103B3000421E9A80D979FFF797FEEEE7074CA088DE
:103B4000431EA380A178FFF78FFEA088431EA380A9
:103B50006188090AFFF788FEDFE7C0466816012082
:103B600010B5010000200024D72945D02CD8A72962
:103B700039D0B7290AD112021A4310002C4A94797D
:103B8000138801339BB20133138007E0972905D1D5
:103B900090B2274B9C791A8801321A802100FFF7D6
:103BA00063FE234B1B7A02229343002C34D1042260
:103BB00013431F4A137264B2002C32DB1C4A137A7F
:103BC00008218B43137210BDE7291CD0F729E5D1DA
:103BD00012021A431000164AD479138801339BB29B
:103BE00001331380DAE7124B5888101880B29C79A1
:103BF0001A8801321A80D1E790B20D4BDC791A880D
:103C000001321A80CAE70A4B5888101880B2DC7952
:103C10001A8801321A80C1E704229343044A1372BE
:103C2000C9E7034A137A08210B431372CBE7C04656
:103C30006816012070B5244CA088431EA38021780B
:103C40000131C9B2FFF710FEA088431EA38021886E
:103C500001310912C9B2FFF707FEA088431EA380F5
:103C6000A178FFF701FEA088431EA3806188090A9E
:103C7000FFF7FAFDA088431EA380A179FFF7F4FDAA
:103C8000A088431EA380E179FFF7EEFDA088431EC4
:103C9000A380217AFFF7E8FD237A102213432372D1
:103CA0000A48FEF73DFA05000948FEF739FAADB2B9
:103CB0002D02ADB22D18ADB2013D2580054A136825
:103CC0000133136070BDC04668160120FAFF000082
:103CD000FBFF00008416022070B5224CA088431E12
:103CE000A38021780131C9B2FFF7BEFDA088431E31
:103CF000A380218801310912C9B2FFF7B5FDA08860
:103D0000431EA380A178FFF7AFFDA088431EA380C8
:103D10006188090AFFF7A8FDA088431EA380A17946
:103D2000FFF7A2FDA088431EA380E179FFF79CFD69
:103D3000A088431EA380217AFFF796FD237A1022E4
:103D4000134323720848FEF7EBF905000748FEF716
:103D5000E7F9ADB22D02ADB22D18ADB2013D25800F
:103D600070BDC04668160120EEFF0000EFFF0000A6
:103D700070B5AD283BD01CD88D2853D09D2850D18C
:103D800090B2FFF78DFC013885B2384C21880131A3
:103D900089B22180A088431EA380C9B2FFF764FDC9
:103DA000A088431EA3802188090AFFF75DFD2580B6
:103DB00037E0BD2835D112021343013B9CB22B4D95
:103DC0002988013189B2013189B2013189B2298052
:103DD000A888431EAB80C9B2FFF746FDA888431EE2
:103DE000AB802988090AFFF73FFD2C8019E01F4CA2
:103DF0006088121892B2013A95B22188013189B2D5
:103E0000013189B22180A088431EA380C9B2FFF787
:103E10002BFDA088431EA3802188090AFFF724FDFB
:103E2000258070BD114B198853B2002B19DB92B25B
:103E30008A1892B2013294B2013189B2013189B249
:103E40000A4D2980A888431EAB80C9B2FFF70CFD3C
:103E5000A888431EAB802988090AFFF705FD2C803E
:103E6000DFE7013AFF3A92B2E2E7C0466816012066
:103E700070B504000B00090ADDB2FFF7F5FC013450
:103E8000A0B22900FFF7F0FC70BD000010B50100E2
:103E900000200024EF292BD0FF291ED0DF2915D0C8
:103EA0002100FFF7E5FF1C4B1B7A02229343002CF5
:103EB00026D104221343184A137224B2002C24DBA7
:103EC000154A137A08218B43137210BD90B2124B1E
:103ED0005C881A8801321A80E2E712021A43100045
:103EE0000D4A5488138801339BB201331380D7E7FE
:103EF000094B5C88121990B21A8801321A80CFE7F8
:103F000004229343044A1372D7E7034A137A082121
:103F10000B431372D9E7C0466816012010B50100A3
:103F200000200024AF292BD0BF291ED09F2915D0F7
:103F30002100FFF79DFF1C4B1B7A02229343002CAC
:103F400027D104221343184A137224B2002C25DB14
:103F5000154A137A08218B43137210BD90B2124B8D
:103F60009C881A8801321A80E2E712021A43100074
:103F70000D4A9488138801339BB201331380D7E72D
:103F8000094B5888101880B29C881A8801321A8010
:103F9000CEE704229343044A1372D6E7024A137A07
:103FA00008210B431372D8E76816012010B50100F1
:103FB00000200024ED2931D0FD2921D0DD2915D0A4
:103FC0002100FFF755FF214B1B7A02229343002C5F
:103FD00030D1042213431D4A137224B2002C2EDB6D
:103FE0001A4A137A08218B43137210BD90B2174BF3
:103FF0009C792402DA7914431A8801321A80DFE7A7
:1040000012021A431000114A94792402D3791C43F6
:10401000138801339BB201331380D1E70B4B5888CF
:10402000101880B29C792402DA7914431A8801327C
:104030001A80C5E704229343044A1372CDE7034A6A
:10404000137A08210B431372CFE7C046681601208C
:1040500070B50500204B1B7ADB0600D570BD1E4CE9
:10406000A088431EA3802178FFF7FEFBA088431E93
:10407000A3802188090AFFF7F7FBA088431EA380CD
:10408000A178FFF7F1FBA088431EA3806188090A8D
:10409000FFF7EAFBA088431EA380A179FFF7E4FBAA
:1040A000A088431EA380E179FFF7DEFBA088431EB2
:1040B000A380217AFFF7D8FB2800FEF731F806022B
:1040C0000135A8B2FEF72CF800B230432080237AE5
:1040D000102213432372C1E76816012010B50B4A62
:1040E000138801339BB21380094A1288934200D08F
:1040F00010BD084A137840210B43DBB213701B0735
:10410000F6D50548FFF7A4FFF2E7C0465415012095
:10411000521501205F150120F4FF000010B50C4A74
:10412000138801339BB21380002B08D1094A1388EE
:1041300001339BB213808022D200934200D010BD85
:10414000044B00221A800448FFF782FFF7E7C046BD
:104150004E15012050150120FCFF000010B5154B35
:104160001B68002B17D0012B1CD01348FDF7D8FF7C
:1041700004021248FDF7D4FF00B22043104B188010
:10418000F1221A720F4A002313750F4B1B687C2112
:104190000B43537510BD0D4B10221A600C4B10329F
:1041A0001A60E2E7094B14221A60094B3C321A608C
:1041B000DBE7C04624050020FEFF0000FFFF0000F3
:1041C0006816012084160120F4140120D004002078
:1041D000CC040020F8B5224C2088FDF7A1FF050093
:1041E0002088013080B2FDF79BFF06002088023056
:1041F00080B2FDF795FF03001A4A00211160218863
:10420000194A1160A900194A8F583200210028006C
:10421000B847238801332380FFF760FFFFF75EFF75
:10422000FFF75CFFFFF75AFFFFF758FFFFF756FF56
:10423000FFF754FFFFF752FFFFF750FFFFF74EFF66
:10424000FFF74CFFFFF74AFFFFF768FFFCF7F2FEAE
:10425000074B1B68002B00D1F8BDFCF719FFFBE7EB
:104260006816012084160220F41702202805002079
:104270005810012010B58300084A944663441C6816
:1042800040226240C02414408022520113431C602B
:10429000C000034B9C466044416010BD04C0014017
:1042A0000040014010B501238340D02212069362E2
:1042B00093610521FFF7DEFF10BD0000EFF31080D2
:1042C00072B6034B1B68002BFBD0BFF35F8F7047A8
:1042D0002C0100D0BFF35F8F024B00221A6080F3E5
:1042E000108870472C0100D0F8B506000C001500AE
:1042F000FFF7E4FFE308F718F15C072222400123EF
:1043000093400B4205D1DBB20B433B70FFF7E2FF5A
:10431000F8BD2100280001F091FAF0B583B0060045
:10432000019114001F00FFF7C9FFBC420ED8E3083B
:10433000F518F35C0721214001228A401A4201D07E
:104340000134F2E7D2B21A432A7001E00124644238
:10435000FFF7C0FF002C02DB200003B0F0BD019B83
:10436000002BF9D0089801F069FA0000034B1B6894
:1043700002201840431E9841C0B2704700C006405A
:1043800000231F2B08D8054A9A189200BFF35F8FAD
:10439000002111600133F4E77047C046400000344B
:1043A000054A1078431CDBB21370172B02D9130097
:1043B00010221A707047C0466C09012000B583B006
:1043C0000100044B00931F2318220348FFF7A5FFA9
:1043D00003B000BD14B600102410012070B5040015
:1043E0000D00062001F044FBC000290002F066FF2A
:1043F000C60908D00E4B9E4217D87F2318400130C3
:104400003500460800E001256562A6622C34802054
:104410008001044300232360062001F029FB800073
:10442000A901891902F04AFF70BD0026014DEBE792
:10443000FEFF0000FFFF0000002909D00A22064B02
:104440009C466044434258414000044BC25270476E
:1044500080225200F3E7C0460080FCBFF81702201C
:1044600070B505000C00062001F002FB002829D0E1
:10447000164B9D4227D08022D203154B1A60154B54
:104480001A60154B9B6811009943FAD1002128004E
:10449000FFF7D2FF21002800FFF7A0FF2C002C34EB
:1044A000E96A60224A406E21114080225201224373
:1044B00011600A4B2B6380239B01234310221A6057
:1044C0000323AB6470BD80221204D6E70080034052
:1044D00000E0004000F0004000C000400103000088
:1044E00070B505000C00080000F0CCFD200000F0C5
:1044F000AFFE0849200000F0EFFDFFF751FF064B2B
:104500009C466044800068602C75A400034BE55015
:1045100070BDC0462548001040000034F81401204A
:104520000A4B1A68EFF3108172B61368002BFCD0A7
:10453000BFF35F8F054B1B68BFF35F8F00221A60CC
:1045400081F3108840BF002000217047181501201A
:1045500010B5002922D003681B7B99421ED8174B47
:104560009C466144090183689C4661440C68496823
:10457000002A19D003681B7B9A4215D883680F481C
:104580008446624412019A181068536802000120A0
:104590008B4201D80ED00020C0B210BD084B094A92
:1045A0003B21094801F02CF9054B064A3B210648FE
:1045B00001F026F9A242EFD8EDE7C046FFFFFF0F5A
:1045C00088B6001068B9001044B6001010B5002974
:1045D0001ED0037B99421BD84B005B18033B046839
:1045E000A4466344002919D0002A1DD0914221D04D
:1045F000002A25D0047BA24222D8046850008018EB
:10460000033820188170197800291FD11A7010BD45
:10461000104B114A6921114801F0F2F8104B114A70
:1046200070310E4801F0ECF80F4B0E4A71210B4827
:1046300001F0E6F80D4B0B4A7221084801F0E0F852
:10464000044B054A6921054801F0DAF841701A70F7
:10465000DDE7C046BCB6001028B90010D8B600107F
:104660002CB7001034B9001038B7001044B7001050
:1046700070B506000D001400002914D0002A14D0D3
:10468000806873689847002806D02200290030000F
:10469000FFF79CFF280007E02A0021003000FFF709
:1046A00095FF200000E0100070BD0800FCE700004E
:1046B000F0B583B00500009201930AAB1C780BABF8
:1046C0001F78002C26D003685A7B944207D101231F
:1046D000002B19D1002C3BD1200003B0F0BD002CE1
:1046E0000CD01A7B944209D81A6863001B19033B4B
:1046F000D3189B78002BEBD00123E9E73E4B3F4AD0
:1047000069213F4801F07CF83E4B3F4A65213F4814
:1047100001F076F803689C7B002CDBD012D01A7B6A
:1047200094420FD862001219033A19688C46624409
:1047300051789973002900D1D97300239370537075
:104740001370C7E72C4B2D4A69212D4801F058F80A
:10475000002C3AD02B681B7B9C4236D82C4BE3189C
:104760001B01AA6894466344009A1A60019A5A6031
:10477000089A9A60099ADA602E68002C2BD030D003
:10478000337B9C422DD863001B19033B326894464F
:10479000634400229A705A701A70717B22003000B4
:1047A000FFF766FF7073844200D095E7287D009A7A
:1047B000019B00F0D9FC061E01D0002F17D00C9BE6
:1047C000002B00D188E71E7086E7124B124A3B216E
:1047D0000E4801F015F8114B114AA621084801F0C6
:1047E0000FF8054B054A6921054801F009F82868CA
:1047F000210000F017FFE2E7BCB6001028B9001056
:10480000D8B600105CB70010A0B9001044B6001074
:10481000FFFFFF0F88B6001068B9001040B6001007
:1048200048B90010F0B5DE4657464E464546E0B55D
:104830008BB00990002308938200B34BD658370001
:1048400052E0B24BB24A3D21B24800F0D9FFB24B20
:10485000B24A3B21B24800F0D3FF002901D1002821
:1048600069D10021404600F0D3FEA04219D12A6848
:104870006B6806920793AB689846EB689A46434686
:10488000002B14D0002C18D03B681B7B9C4214D802
:10489000631EFA68D35C08931B021843386100203A
:1048A00015E0A04BA04A8C219D4800F0A9FF9F4B2A
:1048B0009D4A90219A4800F0A3FF974B9C4A4021C3
:1048C000974800F09DFF00239A46984600207B6899
:1048D000BFF35F8F00221A6086F310884346002BD7
:1048E00032D1002800D107E100F0D8FB02000B1EF6
:1048F000A7DB00200021069007917868EFF310866F
:1049000072B601680029FCD0BFF35F8F3968884612
:104910004C7B002CD7D09AD0097B8C4297D8854904
:1049200065182D01B9688C46654428686968801A45
:104930009941002991DD2A686B68099800F014FC00
:1049400000239A469846C2E7089B1B0223439946D8
:1049500051461800C04705000E007A68EFF3108B2F
:1049600072B6136859424B41D9B2002BF9D1BFF34B
:104970005F8F002E26DB002E52DD3B69002B53D0CB
:104980004B4572D100F08AFB02000B1E73DB010065
:10499000180052197341984202D804D1914202D9A9
:1049A00001225242D317002B6BDB0021049101310D
:1049B0000391029451460191414600913800FFF75E
:1049C00077FE49E03B69002BD5D04B451CD1069AB8
:1049D000079B10001900521BB341994202D804D121
:1049E000904202D901225242D317002B12DB002140
:1049F0000491013103910294514601914146009185
:104A00003800FFF755FE27E04B4B474A9F214448AB
:104A100000F0F6FE3D4B3E4A3D213E4800F0F0FEE0
:104A2000002E01D1002DA8D13A68002C45D0537B2F
:104A30009C422CD1012100293FD1D37B002B42D1B4
:104A4000D473002C52D03B681B7B9C424ED8FA6832
:104A5000013C135D0133135500233B617A68BFF3BA
:104A60005F8F13608BF310883EE7334B2E4AA221F1
:104A70002B4800F0C5FE254B254A3D21254800F076
:104A8000BFFE224B224A3D21224800F0B9FE002CF5
:104A90000DD0137B9C420AD863001B19033B10689E
:104AA000844663449B78002BC5D00121C3E7234B88
:104AB000234A6921234800F0A3FE234B234AF72110
:104AC000204800F09DFE002B0AD0117B8B4207D8B6
:104AD0005900CB18033B11688C4663445C70AFE708
:104AE000164B174A6921174800F08AFE0A4B104AF4
:104AF00040210B4800F084FE0BB03CBC9046994628
:104B0000A246AB46F0BDC046F814012084B70010A1
:104B100010B90010A0B7001088B6001068B90010D6
:104B200044B60010F0B70010B8B9001008B8001073
:104B300074B90010FFFFFF0F14B80010BCB60010CE
:104B400028B90010D8B6001050B8001058B900109D
:104B500010B50A4B5B68002B04D00A21084800F00E
:104B600097FB10BD054C2300064A1021206800F079
:104B70006FFC03212000FFF7B3FCEEE77009012072
:104B8000181501205145001010B5064B5B68002B2D
:104B900001D0044810BD044B044A5C21044800F0D5
:104BA0002FFEC0467009012074B8001088B90010AB
:104BB00044B60010F0B5DE4657464E464546E0B5D1
:104BC0008BB0804616001F00149B9A46159B994691
:104BD00016AB1B789B461F2302AA9446634400220F
:104BE0001A7032E0002809D042461268127B9042C7
:104BF00004D8421E4146C9688A5C48E0434B444A97
:104C00004021444800F0FCFD0798002B75D05B461E
:104C1000002B72D04946D04704000D0003000B431F
:104C200000D171E0002946DB00F038FA06000F1EC3
:104C300055DB36196F41B94202D804D1B04202D9CE
:104C400001267642F717002F4FDB43465A68EFF3F1
:104C5000108472B6136859424B41D9B20791002BA8
:104C6000F8D1BFF35F8F1F3302AA944663440493C5
:104C70000023039302934B46019353460093320063
:104C80003B004046FFF714FD031EABD10200414636
:104C90004968BFF35F8F00250D6084F31088002BF7
:104CA00029D01F2302A98C4663441B78002BABD16B
:104CB00012021043A9E732003B00361BAF41BB4252
:104CC00002D804D1B24202D901267642F717002F4A
:104CD000BBDA114B114A3D21114800F091FD0E4BFA
:104CE0000E4A3D210E4800F08BFD0B4B0B4A3D2137
:104CF0000B4800F085FD012040420BB03CBC9046C3
:104D00009946A246AB46F0BD0798F6E788B6001074
:104D100074B9001044B6001084B7001010B9001028
:104D2000A0B70010F8B504004268EFF3108572B622
:104D3000136858424341D8B2002BF9D1BFF35F8FBB
:104D4000CBB22268567BB3421BD10120002847D04A
:104D5000206988422BD0090AC9B2002B2DD02068C7
:104D6000007B834229D8581EE668305C88422AD0EE
:104D700000206368BFF35F8F00221A6085F31088FC
:104D8000F8BD002B0DD0167BB3420AD85E00F61892
:104D9000033E1768BC466644B678002ED6D0012084
:104DA000D4E7124B124A6921124800F029FD124B38
:104DB000124AFE21124800F023FD124B124A4021F4
:104DC0000F4800F01DFD1900100000F02BFC00281A
:104DD000CFD106210D4B094AFF31094800F010FDE3
:104DE00023698B42C5D100232361C2E7BCB6001002
:104DF00028B90010D8B6001098B80010D4B9001027
:104E000044B6001088B6001074B90010BCB8001089
:104E1000F0B587B006000F00FBF725FA00281FD178
:104E200006246442E517A4197D41BD4202D803D18E
:104E3000B44201D900240025002D14DB049405950B
:104E400000F02CF902000B1E13DBA41A9D41002D6B
:104E500017DC14D03000390000F02CF907B0F0BD99
:104E6000234800F0EBFC234B234A3D21234800F06C
:104E7000C7FC204B204A3D21204800F0C1FC002CFB
:104E8000E8D0FFF781FE0023029301931C4B0093AF
:104E9000049A059BFFF78EFE002818DADAE7002354
:104EA00000E00023002BD5D1164B1A68EFF31081D8
:104EB00072B61368002BFCD0BFF35F8F114B1B68D9
:104EC000BFF35F8F00221A6081F3108820BF04991E
:104ED000059A0D4B5B6A9A42E3D80B48806A884278
:104EE00003D29A42DBD00123DCE70123DAE7C04694
:104EF000C0B8001084B7001010B90010A0B700109F
:104F0000214500101815012000400540F8B50400A7
:104F10000D0000F0C3F802000B1E10DB200029007A
:104F2000801859418B4202D804D1824202D9012013
:104F30004042C117002908DBFFF76AFFF8BD064BA6
:104F4000064A3D21064800F05BFC034B034A3D2125
:104F5000034800F055FCC04684B7001010B900109B
:104F6000A0B7001010B5FA2292000023002103F030
:104F700019F8FFF7CBFF10BD70B584B005000C0029
:104F8000FFF702FE002302930193194B00932A00BE
:104F90002300FFF70FFE061E12DC164B5B6A9C42D5
:104FA00009D8144A926AAA4208D29C4201D0012030
:104FB00002E0002000E0002004B070BD0120FBE70B
:104FC00020BFFFF7E1FD3100FFF7ACFE094B5B6A44
:104FD0009C4209D8074A926AAA4207D29C4201D051
:104FE0000120E9E70020E7E70020E5E70120E3E70B
:104FF000214500100040054070B5EFF305833F20C8
:1050000018401038EFF3108472B6194B1B68002B50
:10501000FBD0BFF35F8F012319008140154A516314
:10502000154A12781500C5402B4214D0114B5D6A09
:105030008300124E9B599D4206D38300104D5B594D
:105040008A430D490A7007E00A4A031D9B009958DC
:105050009950002300E00023BFF35F8F044A002132
:10506000116084F31088002B00D0984770BDC046B3
:10507000280100D0004005406015012024150120C2
:10508000140F012010B50100024A0348FFF72CF964
:1050900010BDC046ECB9001059150120044B5B6AE5
:1050A000034A906A1900536A9942F9D17047C04681
:1050B00000400540074B5B6A8B4204D2054B5B6A9C
:1050C000FAE7044B5B6A8B4203D1024B9B6A834233
:1050D000F7D370470040054070B504000D00EFF3B2
:1050E000108672B61B4B1B68002BFBD0BFF35F8F83
:1050F000002D1CD0200000F03BFD174B83420BD04D
:105100001900200000F03CFD0121200000F020FDEE
:105110000123A340114A1360A400114BE550BFF3D3
:105120005F8F0C4B00221A6086F3108870BDA200BE
:105130000B4B0021D1500122A2400A490B78934326
:105140000B700549200000F045FD0021200000F013
:10515000FFFCE4E7280100D0F94F0010386005405B
:10516000140F012060150120F0B5DE4600B584B0B3
:105170000400150001921E000293FFF78FFF0395B4
:105180008E4202D84ED185424CD9EFF3108B72B6C5
:10519000274B1B68002BFBD0BFF35F8F254A177886
:1051A0000125A540EBB23B431370234B5D63221DE9
:1051B00092000199D150A2002049029850501B6AD8
:1051C0002B4212D11C4B1B6C2B4208D00020BFF38A
:1051D0005F8F174B00221A608BF3108823E0184B67
:1051E000184AC121184800F00BFBFFF757FF8E4209
:1051F00014D802D1039B834210D80E4B1B78BB42BC
:105200000ED00D4B1D625D631F2004400123A3409F
:105210000E4A1360074B1F701E38D8E70020D6E7F0
:105220000120D4E7012004B004BC9346F0BDC04681
:10523000280100D060150120004005402415012000
:1052400010BA001080BA001034BA001080E200E0FA
:1052500010B5EFF3108472B60A4B1B68002BFBD01D
:10526000BFF35F8F01238340074A136207490A781F
:105270009A430A70BFF35F8F024B00221A6084F3D7
:10528000108810BD280100D00040054060150120A5
:10529000024B9C4661448900016070474000003425
:1052A00070B504000D00FFF77BF801002000FFF748
:1052B000EFFFFF2323716571BFF35F8F70BD10B5E2
:1052C0000021FFF7EDFF10BD10B5FF21FFF7E8FF4C
:1052D00010BD0000034B9C46614489000160BFF390
:1052E0005F8F70474000003410B504000120FFF7C5
:1052F00065F801002000FFF7EDFF10BD10B5002993
:105300001ED0037B99421BD84B005B18033B0468FB
:10531000A4466344002919D0002A1DD0914221D00F
:10532000002A25D0047BA24222D8046850008018AD
:10533000033820188170197800291FD11A7010BD08
:10534000104B114A6921114800F05AFA104B114ACA
:1053500070310E4800F054FA0F4B0E4A71210B4881
:1053600000F04EFA0D4B0B4A7221084800F048FA43
:10537000044B054A6921054800F042FA41701A7051
:10538000DDE7C046BCB6001070BC0010D8B60010F7
:105390002CB700107CBC001038B7001044B70010C8
:1053A00070B506000D001400002914D0002A14D096
:1053B000806873689847002806D0220029003000D2
:1053C000FFF79CFF280007E02A0021003000FFF7CC
:1053D00095FF200000E0100070BD0800FCE7000011
:1053E00010B50023437301338373037BC37301231D
:1053F000027B9A4214D9002B0CD0027B934209D82D
:105400005A00D218033A01688C4662440133DBB279
:105410005370EDE70B4B0C4A69210C4800F0F0F992
:10542000002A09D0924207D8016853009A18033A1B
:105430008A180023537010BD024B034A69210348A8
:1054400000F0DEF9BCB6001070BC0010D8B6001039
:1054500010B5017342608360FFF7C2FF10BD00000A
:1054600070B50400081E00D170BD002934D0237B24
:10547000994231D84B005B18033B22689446634441
:105480005A78002AF0D02DD0237B9A422AD8530094
:105490009B18033B21688C4663445D78002159705A
:1054A000002825D0237B984222D843001B18033BB9
:1054B00021688C4663440021597001002000FFF7E9
:1054C0006FFF060029002000FFF7CAFF020031002D
:1054D0002000FFF765FFC7E7084B094A6921094823
:1054E00000F08EF9054B064A6921064800F088F95C
:1054F000024B034A6921034800F082F9BCB6001050
:1055000070BC0010D8B6001070B505000C00160075
:10551000002928D02DD0037B99422AD84B005B1854
:10552000033B0268944663445A78002A27D19A784C
:10553000002A2AD11978FFF793FF0300002E03D029
:10554000EA7B002A27D1EC73002B37D1002C49D0FD
:105550002B7B9C4246D82B6861000C19033C1C191C
:105560000023637070BD224B224A3821224800F08C
:1055700047F9224B224A6921224800F041F9224B87
:105580001C4A3A211C4800F03BF9204B194A3B21A8
:10559000194800F035F9002A0AD0297B8A4207D839
:1055A00051008A18033A29688C4662445470CAE74D
:1055B000124B134A6921134800F022F9002B0BD03B
:1055C0002A7B934208D843001B18033B2A68944661
:1055D000634400229A70B9E7084B094A69210948D7
:1055E00000F00EF9054B064A6921064800F008F95B
:1055F000B0BB001090BC0010B8BB0010BCB60010CF
:1056000070BC0010D8B60010FCBB001024BC001009
:1056100070B504000A00457B2900FFF775FF607331
:10562000280070BD70B50400002966D0437B8B4212
:105630000ED0002911D0037B99420ED84B005B1885
:10564000033B0268D0188378002B0CD1002055E072
:105650000121FFF7DDFF012050E0294B294A692194
:10566000294800F0CDF8002B1FD0227B93421CD894
:1056700025685A00D318033BEA18EB5C8B421AD01A
:10568000002B1BD0227B934218D85A00D318033B1F
:105690002268D21853788B4216D0002BF0D11B4BC6
:1056A0001B4A67211B4800F0ABF8154B154A6921CE
:1056B000154800F0A5F84378137007E0104B114A25
:1056C0006921114800F09CF84378537000238370DF
:1056D000437001222000FFF717FF0200617B814227
:1056E00005D02000FFF75CFE6073012006E00A4B46
:1056F000074A6D21074800F083F8002070BDC046BE
:10570000BCB6001070BC0010D8B6001048BC001029
:10571000A4BC0010B8BB001050BC001070B5264BE4
:10572000264A1A60264B274A1A60274B9A68254B4F
:105730009343FAD1254C264B9C4202D208CC984781
:10574000F9E700F015F91E4B224A1A601E4B9B68C0
:10575000DB43DB01FAD1204B40229A675A671A6774
:10576000DA661E4C03E02000FFF7A9FD08341C4B4D
:105770009C4206D26379002BF5D02000FFF7A4FDF0
:10578000F4E7184CA168184DC022280002F0CAFCAA
:10579000A560FAF768FD002800D000BEFEF7F0FD16
:1057A00000F07AFBFFF7D4F9104C01E008CC9847E1
:1057B0000F4B9C42FAD370BD00E00040BFCDFBFE12
:1057C00000F00040FE7F3C0000C000405C0A012069
:1057D0006C0A0120FFFFFF0100F00140540A012084
:1057E0005C0A012000ED00E0000000206C0A0120AE
:1057F000740A012000BEFDE710B5FFF7FBFF0000B3
:1058000010B582B00C001900002A0CD0084B002AF9
:105810000BD00192009323000200064802F0B8FD6D
:105820000120FFF7E7FF044BF1E7034AF1E7C04629
:10583000BCBC0010CCBC0010C8BC00100FB400B53C
:1058400083B0084802F074FD049B002B07D005A923
:105850000191180002F07AFD034802F069FD012071
:10586000FFF7C8FFFCBC00100CBD0010F8B5DE4609
:1058700057464E464546E0B505000F0092461E00CD
:105880000A9B9E424ED3330E994636020A9A002353
:105890003000494601F054FD80466C006419A400B4
:1058A0002E4B9C4664446368834200D260602B1F89
:1058B000DBB29B46012B3BD9C0239B0123438022B3
:1058C00012011A60AB00264A9958002905D0506988
:1058D00001F0F4FC01300138FDD153465A01236830
:1058E0005A40E0231A4080235B0123431A605A4642
:1058F000012A28D980239B012343802212011A60A8
:1059000043466360424600233000494601F018FDDB
:10591000AD00134B585101203CBC90469946A2461D
:10592000AB46F8BD0F4B104A2D211048FFF768FF1A
:10593000012FC1D1C0239B01234303221A60A36816
:10594000DB07FCD5C9E72168794003220A401A60C9
:10595000A3680122BA401A42FAD0CBE70080004087
:105960002810012010BD001074BD001024BD0010CF
:1059700030B583B00C2000F027FBFEF7F7FC0028C1
:105980000DD00023092B05D899002D4A2D488850A9
:105990000133F7E72A4B2C4A5A6203B030BD2B4B38
:1059A00000229A6700F07EFB294B01221A60274BE8
:1059B0005B6C012BFBD1274B03221A60234B9B6BA3
:1059C000012BFBD1022400940533234A01212348F3
:1059D00000F06EFA00940523214A0121214800F0CD
:1059E00067FA214B0093002202210420FFF73EFFBB
:1059F0001E4D00952B00002201210520FFF736FFE8
:105A0000104C00942300002200210720FFF72EFFF6
:105A100000942300002200210820FFF727FF0A4BF3
:105A200000932300002200210920FFF71FFF0095AB
:105A30002B00002200210620FFF718FFADE7C0462B
:105A400028100120006CDC021BB700000080004021
:105A50003CB0004030B00040002F68590080024048
:105A600000389C1C00C00240001BB700405973075F
:105A70008000014BC058704728100120074B9B68DD
:105A8000103080001950BFF35F8FBFF35F8F044B5E
:105A90000021196082F310887047C04600ED00E0D5
:105AA000240100D010B5091A04394808090B05D1A2
:105AB0004005400D044B184380B210BD034B044A0F
:105AC0008C210448FFF79CFE00E0FFFF84BD00101E
:105AD0006CBF001094BD001010B5091A04394C08B1
