:020000041000EA
:1000000000B5324B212058609868022188439860DF
:10001000D860186158612E4B002199600221596106
:100020000121F02299502B49196001219960352056
:1000300000F044F80222904214D00621196600F024
:1000400034F8196E01211966002018661A6600F04E
:100050002CF8196E196E196E052000F02FF8012189
:100060000842F9D1002199601B49196000215960AB
:100070001A491B48016001219960EB211966A021F2
:10008000196600F012F800219960164914480160C1
:100090000121996001BC002800D000471248134993
:1000A000086003C880F30888084703B5996A0420EC
:1000B0000142FBD001200142F8D103BD02B5186610
:1000C0001866FFF7F2FF186E186E02BD00000240BE
:1000D000000000180000070000035F00212200005C
:1000E000F4000018222000A00001001008ED00E03C
:1000F00000000000000000000000000074B24E7A12
:1001000000200420F7010010C3010010C5010010F9
:10011000C1010010C1010010C1010010C101001097
:10012000C1010010C1010010C1010010C701001081
:10013000C1010010C1010010C9010010CB01001065
:10014000CD010010CD010010CD010010CD01001037
:10015000CD010010CD010010CD010010CD01001027
:10016000CD010010CD010010CD010010CD01001017
:10017000CD010010CD010010CD010010CD01001007
:10018000CD010010CD010010CD010010CD010010F7
:10019000CD010010CD010010CD010010CD010010E7
:1001A000CD010010CD010010CD010010CD010010D7
:1001B000CD010010CD010010CD010010CD010010C7
:1001C00000BE00BE00BE00BE00BE00BE00F04BF888
:1001D000103800BEF2EB8871046701102C67011023
:1001E0003402001090A31AE700202149086006C8D5
:1001F00081F3088810471F48006800282FD10DA4FC
:100200000ECC002902D000F012F8F9E71A491B4A77
:10021000002000E001C19142FCD1194988471949E9
:1002200088471949884700BEFDE701C901C29A42C3
:10023000FBD370472C670110C0000020001F012075
:100240006C85021000000420000004206C85021060
:1002500000100420001004200000000070470B482C
:1002600009F066F80047EFF30580C0B27047000060
:1002700008ED00E0000000D0001F01209C79022062
:10028000D1770010F5040010E578001057560000F3
:1002900006005250ABB3605340520110060052505A
:1002A000861C030250520110060052505422A29D97
:1002B0006052011005005250DE65F4686C85021032
:1002C000F8B5C0460448054B10B5834203D0044B33
:1002D000002B00D0984710BD001F0120001F0120F7
:1002E0000000000006480749091A8B10C90FC918F9
:1002F00010B5491003D0044B002B00D0984710BD17
:10030000001F0120001F01200000000010B5074C55
:100310002378002B09D1FFF7D5FF054B002B02D026
:10032000044800E000BF0123237010BD20200120FD
:1003300000000000E0340110054B10B5002B03D085
:100340000449054800E000BFFFF7CCFF10BDC046E0
:100350000000000024200120E0340110012383402C
:10036000D02212069361936153610022002000E0C5
:100370000132072A0EDCD0231B0680214903996134
:1003800059614000C0B25B689B02F1D5012318435C
:10039000C0B2EDE7704730B501258540D0231B067C
:1003A0009D6100230BE0D02000068024E4018461DD
:1003B0004900D02000068024E404446101339342C4
:1003C00010DAD02000068024E4048461501E0C0062
:1003D00004412000C007E6D5D02000068024E401B7
:1003E0004461E5E7D0231B065D6130BD10B582B0E6
:1003F00001000F4B18880F4B98420DD0014389B272
:100400000B4C218010220F20FFF7C5FF2288094BDB
:100410009A4207D002B010BD00230093009B002B2E
:10042000FCD1EBE700230193019B002BFCD1F1E70A
:10043000182B01200920000010B582B00E4B984205
:100440000DD00E4C21888143218010220F20FFF710
:10045000A2FF2288084B9A4207D002B010BD0023A9
:100460000093009B002BFCD1EBE700230193019B41
:10047000002BFCD1F1E7C04609200000182B012019
:1004800010B5114B1B68002B04D1104B1B68002BBF
:1004900009D110BD0C4B00221A6005F0DFFE0C4B99
:1004A00001221A60F1E70B4A0121032000F06EFAE5
:1004B000064B00221A60084B01321A60074A0121DC
:1004C000032000F063FAE4E7B8250120BC250120F1
:1004D000C0250120E0340110C4250120F0340110B2
:1004E00010B500F0A7FE05F00BFCFFF7C9FF05F003
:1004F000E3F9F6E710B51B2005F00AFFD024240627
:1005000080231B05636263610D2005F001FF0E204F
:1005100005F0FEFE0F2005F0FBFE162005F0F8FEAC
:10052000152005F0F5FE1A2005F0F2FE132005F067
:10053000EFFE142005F0ECFE122005F0E9FE00208D
:1005400005F0E6FE012005F0E3FE022005F0E0FEE6
:10055000032005F0DDFE042005F0DAFE052005F09D
:10056000D7FE062005F0D4FE072005F0D1FE0122BB
:100570000021002005F0B2FE01220021012005F03B
:10058000ADFE01220021022005F0A8FE012200217B
:10059000032005F0A3FE01220021042005F09EFEA9
:1005A00001220021052005F099FE012200210620EC
:1005B00005F094FE01220021072005F08FFE0A209D
:1005C00005F0A6FE0B2005F0A3FE0C2005F0A0FE12
:1005D000112005F09DFE102005F09AFE0022012159
:1005E000102005F07BFE00220121112005F076FE8F
:1005F0008023DB01636280229201A2626362802316
:100600001B0263628023DB03636280239B03A3627C
:100610008023DB04636280231B03636280235B030C
:1006200063628022D20262628022D20062628022F1
:100630001201626280225201626263610120FFF74F
:10064000D5FE0A2006F0C4FC00F072F800F03CF978
:100650000AF0A4F804F03AF804F030FA08480CF074
:100660008DFF084B00221A60074B01321A60054BC0
:100670001B68002BFBD004F071F804F079F8FCE75C
:10068000E1040010C4250120BC25012082B0030034
:10069000019064205843002801D00138FBE702B0E4
:1006A000704700B583B080236A461371793B0340DD
:1006B000502040421843507101AA0221782005F0D1
:1006C00042FC03B000BD10B582B001AA80211170B8
:1006D000030910242343537091700F231840D070E6
:1006E0007C39782005F02FFC02B010BD10B5054B09
:1006F0001A887F2111401980034B18680822FFF7E0
:100700004AFE10BD1A2B01200C35011010B5064B06
:1007100019888022114389B21980044B1868082275
:10072000FFF739FE10BDC0461A2B01200C35011011
:1007300010B5FFF7EBFFFA24E4002000FFF7A6FF57
:10074000FFF7D4FF2000FFF7A1FFFFF7DFFF200036
:10075000FFF79CFF05F05CFB782005F071FB802023
:1007600005F06EFBAE2005F06BFB802005F068FB0A
:10077000D52005F065FB802005F062FBA02005F088
:100780005FFB802005F05CFBA82005F059FB802072
:1007900005F056FB1F2005F053FB802005F050FBB1
:1007A000D32005F04DFB802005F04AFB002005F02A
:1007B00047FB802005F044FBAD2005F041FB802085
:1007C00005F03EFB8E2005F03BFB802005F038FB5A
:1007D000D82005F035FB802005F032FB052005F020
:1007E0002FFB802005F02CFBA12005F029FB8020A9
:1007F00005F026FBC82005F023FB802005F020FB38
:10080000DA2005F01DFB802005F01AFB122005F010
:1008100017FB802005F014FB912005F011FB8020D0
:1008200005F00EFB3F2005F00BFB802005F008FBD8
:100830003F2005F005FB802005F002FB3F2005F07E
:10084000FFFA802005F0FCFA3F2005F0F9FA80203D
:1008500005F0F6FA812005F0F3FA802005F0F0FAB1
:10086000184B187805F0ECFA802005F0E9FAD92049
:1008700005F0E6FA802005F0E3FAD22005F0E0FA70
:10088000802005F0DDFADB2005F0DAFA802005F0A3
:10089000D7FA342005F0D4FA802005F0D1FAA6204A
:1008A00005F0CEFA802005F0CBFAA42005F0C8FAB6
:1008B000802005F0C5FAAF2005F0C2FA05F0B2FAC3
:1008C00010BDC046C804002070B5002503E005F047
:1008D000A9FA0135EDB2032D16D82800FFF7E1FE85
:1008E0000020FFF7F0FE05F093FA782005F0A8FA53
:1008F000402005F0A5FA0024832CE8D8002005F05C
:100900009FFA0134E4B2F7E770BD02000021002035
:1009100005E040000123134018435210013107291C
:10092000F7DD704770B515008400041B64007F3448
:100930000320401AC0B2FFF7B4FEE0B2FFF7C3FED7
:1009400005F066FA782005F07BFA402005F078FA89
:100950000024042C0DDCAB005B190421091B5B187F
:10096000074AD05CFFF7D1FFC0B205F069FA013445
:10097000EFE7002005F064FA05F054FA70BDC046B8
:10098000CC04002010B500F03FFC10BD70B50E0087
:1009900014002278002A06D0451C01343100FFF7EC
:1009A000F1FF2800F5E770BD704770477047000001
:1009B000024BDA79598852185A807047942F0120D7
:1009C000054B588899790902DA790A435A80020A54
:1009D0009A71D8717047C046942F0120024A5388FB
:1009E000013B93807047C046942F0120024A9388B0
:1009F000013353807047C046942F01200F4A9379EA
:100A0000D371127A02218A43002B0CD104210A43AC
:100A10000A490A725BB2002B0ADB084A137A0821E2
:100A20008B431372704704218A4304490A72F1E729
:100A3000024A137A08210B431372F3E7942F012023
:100A40000F4AD3799371127A02218A43002B0CD179
:100A500004210A430A490A725BB2002B0ADB084AE6
:100A6000137A08218B431372704704218A43044987
:100A70000A72F1E7024A137A08210B431372F3E773
:100A8000942F0120054A137A3F218B431900062039
:100A900010563F2303400B4313727047942F0120DD
:100AA000014B1A7A9A717047942F0120024A137AE7
:100AB00001218B4313727047942F0120024A137A4D
:100AC00001210B4313727047942F0120024A137ABD
:100AD00010210B4313727047942F0120024A137A9E
:100AE00010218B4313727047942F0120092802D0E4
:100AF000342812D070470B4A5388013B9BB2538075
:100B0000002B04D1137A04210B431372F2E7054A38
:100B1000137A04218B431372ECE7024A9388013B5A
:100B20009380E7E7942F0120082802D0312812D0C3
:100B300070470B4A538801339BB25380002B04D17A
:100B4000137A04210B431372F2E7054A137A042146
:100B50008B431372ECE7024A938801339380E7E7F3
:100B6000942F012053B2002B09DB12B22038C3B2FC
:100B70000F2B00D989E09800594B1B589F46013A2A
:100B8000FF3AF3E757490B889A1801320A8080E050
:100B9000544B1B7A0521194200D076E051490B884D
:100BA0009A1801320A8074E04E4B1B7A05211942D3
:100BB0006BD04C490B889A1801320A8069E0494B86
:100BC0001B7ADB0761D447490B889A1801320A80E7
:100BD0005FE0444B1B7ADB0757D542490B889A18D4
:100BE00001320A8055E03F4B1B7A5B074DD43D49EB
:100BF0000B889A1801320A804BE03A4B1B7A5B074C
:100C000043D538490B889A1801320A8041E0354BA8
:100C10001B7A9B0739D433490B889A1801320A8012
:100C200037E0304B1B7A9B072FD52E490B889A183B
:100C300001320A802DE02B4B1B7A1B0725D4294952
:100C40000B889A1801320A8023E0264B1B7A1B0777
:100C50001BD524490B889A1801320A8019E0214BD0
:100C6000197A0A230B400A2B01D0002B0DD11D4904
:100C70000B889A1801320A800BE01A4B197A0A2362
:100C80000B40022B06D0082B04D0164A13880133E0
:100C90001380704713490B889A1801320A80F8E7CD
:100CA000104B1B7A5907F0D40A210B400A2B01D0B4
:100CB000002BEAD10B490B889A1801320A80E8E729
:100CC000084B1B7A590705D40A210B40082B01D089
:100CD000022BDAD103490B889A1801320A80D8E72F
:100CE00014350110942F012010B5224B9A790F2052
:100CF0001040197A8B0628D5931D092800D9063390
:100D0000C80700D560339F2B00DD6033992B03DDCE
:100D10000120014317480172190618D51548017AB8
:100D2000082421430172002B17D11248017A0424B0
:100D3000214301725A40120615D50E490A7A022043
:100D400002430A720B4A937110BD1300D5E709489C
:100D5000017A0824A1430172E5E70648017A0424D8
:100D6000A1430172E6E703490A7A022082430A722C
:100D7000E8E7C046942F0120094A9179D3794B4383
:100D8000190A9171D3711B0604D5137A01210B4303
:100D900013727047024A137A01218B431372F8E7EA
:100DA000942F012030B52C4BD9799A79531ADBB2A4
:100DB00052B2002A28DB002A02DB48B200282FDBCF
:100DC000254C207A0225A8432072002B2CD1224CDE
:100DD000207A0425284320725BB2002B2ADB1E4CAC
:100DE000207A0825A8432072002A02DB48B2002896
:100DF0002BDB49B2002923DB002B24DB164A137AB4
:100E000001218B43137225E048B20028D3DB58B28E
:100E10000028D0DB104C207A022528432072D4E72A
:100E200058B20028CCDAF5E70B4C207A0425A84309
:100E30002072D1E7084C207A082528432072D3E796
:100E4000002BD9DA01E0002AD8DB034A137A01210A
:100E50000B43137230BDC046942F012030B52C488F
:100E6000C1798279531ADBB2837152B2002A28DB2E
:100E7000002A02DB48B200282FDB254C207A02250D
:100E8000A8432072002B2CD1214C207A0425284322
:100E900020725BB2002B2ADB1D4C207A0825A84368
:100EA0002072002A02DB48B200282BDB49B200295D
:100EB00023DB002B24DB164A137A01218B431372A8
:100EC00025E048B20028D3DB58B20028D0DB104C14
:100ED000207A022528432072D4E758B20028CCDAC1
:100EE000F5E70B4C207A0425A8432072D1E7084C83
:100EF000207A082528432072D3E7002BD9DA01E0B5
:100F0000002AD8DB024A137A01210B43137230BD49
:100F1000942F012010B51B4A93791B02D2791343F9
:100F2000D2071DD517490A7A012002430A725808D0
:100F3000144A127AD10719D502210A4311490A72BB
:100F4000002818D10F490A7A042422430A720D4A54
:100F5000117A0824A14311725B0A9371D07110BDFC
:100F600008490A7A012082430A72E0E702218A4393
:100F700004490A72E4E703490A7A0424A2430A7284
:100F8000E5E7C046942F012022498A791202CB79E5
:100F900013431AB2002A22DB1E490A7A0120824337
:100FA0000A725B009BB2002B1ED11A490A7A0420F8
:100FB00002430A721AB2002A1CDB16490A7A082078
:100FC00082430A72134A127A09211140082917D064
:100FD000012915D002218A430E490A7214E00A7AC7
:100FE000012002430A72DCE70A490A7A042082439C
:100FF0000A72DFE707490A7A082002430A72E1E72A
:1010000002210A4303490A72024A190A9171D371F3
:101010007047C046942F01206E2807D07E2804D147
:1010200012021A43013A054B1A807047034B598844
:10103000521892B2013A1A80F7E7C046942F012065
:10104000E8239B0098420CD04033984211D0803B5B
:10105000984200D0704700230E4A13600E4A136076
:10106000F8E70C4A13688021C9018C466344136079
:10107000F0E7094B1B68002B04D1074B80221202BA
:101080001A60E7E78022D20194466344024A136063
:10109000E0E7C046982A0120B02A012010B51C4A7A
:1010A000136801331360C0239B00984207D040337C
:1010B000984215D0813BFF3B984225D010BD154B7F
:1010C00000221A70144B1A88802111407F2211438C
:1010D00089B21980114B18680822FFF75CF9EDE717
:1010E0000C4A13780133DBB213700B48028880215D
:1010F0000A407F215940C9B211430180074B18684B
:101100000822FFF748F9D9E705F0C0F8D6E7C0464E
:10111000C42A01202B2B01201A2B01200C35011091
:10112000094B1A6801321A601A68084B9A420ADDA4
:10113000054B00221A60064A136859424B4113605E
:10114000044B01221A607047382501209F86010058
:101150003C25012040250120C0235B00984204D09B
:101160008223FF33984205D07047034B1B687F20D2
:101170001840F9E70020F7E7E8290120044A517CEC
:1011800080235B420B435374024B01221A70704759
:10119000103001209C1200200E4B1B78DAB2012B7C
:1011A00002D0022A0BD070471128FCD10A4B5B7C7D
:1011B0005BB2002BF7DA074B02221A70F3E7122812
:1011C000F1D1044B03221A70034A517C7F230B4058
:1011D0005374E8E79C1200201030012070B5002203
:1011E000042A0DDC83001B189B18064DEE5C8B0057
:1011F0005B189B18802464423443EC540132EFE7BF
:1012000070BDC046CC0400200B004900C918CB00BB
:10121000591A0918024B1B685B5C0249CA54704793
:10122000AC2F012018300220014B19547047C046E2
:10123000A82F0120F0B583B0534954480DF054F95C
:10124000002804D1524B1B68002B00D189E0504B81
:1012500000221A6000255FE04E4B1B68002B6AD00D
:101260004D4B1B68002B10D04C4B1B68002B03D040
:10127000019780277F005EE00224FF3421003800C0
:10128000FFF7ACFF0197270055E0444B1B68002B8C
:1012900008D00224FF3421003800FFF79FFF019798
:1012A000270048E00224FF3421003800FFF796FFB2
:1012B000019727003FE03A4B1A5D21001420FFF709
:1012C00031FB0134032CF6DD7B1EFF3B012B08D9DB
:1012D0007B1C344A9918D35C6822934303D0FAB23A
:1012E00002E0019FF4E720222F4B5A550B78682229
:1012F000934301D0FFB200E020271421280008F01A
:1013000043F804001421280008F03EF81620444356
:101310002648001947540135254B1B68AB421CDB9E
:1013200004F0CAFA234B1B685B5D174AD75C224A5C
:101330001268934290D0214B1E683100280008F0BB
:1013400023F804003100280008F01EF808003A00D5
:101350002100FFF7E7FA0024B4E70B490B480DF032
:1013600007F9002306E016215943104A52180021BC
:1013700051750133032BF6DD0D4B1B680A4A002122
:10138000D15403B0F0BDC04618300220302B0120EC
:1013900040250120F42901203C250120F0290120CD
:1013A000A82F0120705B0110342C0120B02F0120E8
:1013B000000A0020AC2F0120E8290120040A0020A7
:1013C000F0B5C64600B5C0235B00984206D0822324
:1013D000FF3398425BD004BC9046F0BD4BB2002B6B
:1013E00014DB0B00403BDBB23F2B1AD9072923D873
:1013F000042942D201293ED00029ECD00239C9B2D9
:101400000129E8D8514B00221A60E4E77F231940F4
:101410004E4B19604E4B01221A604E4B00221A604F
:10142000D9E73F231940494B1960494B00221A6004
:10143000484B01321A60CEE70B00083BDBB2072BAA
:10144000C9D88A1001231A40434802604A10134049
:10145000424A136001231940414B1960BBE7414ADE
:101460002021D1540133404A12689A42F7DA374BAF
:1014700000221A60AFE70023F5E74A10012313406A
:101480003A4A136001231940394B1960A3E7394BDD
:1014900001221A602E4B1B68002B10D02B4B1B68AF
:1014A000304AD154314A1268002A18D001229B18C0
:1014B000264A1360FF2B02DD1300FF221A60254B22
:1014C0001B68002B00D186E7204B1D68EB175B0FD4
:1014D000EA1807261640F31A9C46002403E001226E
:1014E0005242E4E70134042C1EDCEA1707231340C0
:1014F0005B19DB109A00D3181B19012290461000CB
:101500006246904040B21C4FFA5C824352B2FA5499
:1015100004273F1B0E003E41370046463E42E1D0C5
:1015200002431548C254DDE7104B1B68002B09D05D
:101530000123ED18054B1D60502D00DC4BE75022B8
:101540001A6048E701235B42F3E7C046E82901201F
:10155000002A0120FC290120B0250120F4290120C6
:10156000F029012018300220000A0020EC29012077
:10157000F829012040250120CC04002003B2002BD3
:101580000DDB0F4B0122DA6018828023DB019842C9
:1015900002D30C4B1B68C0180B4BC0187047C023FC
:1015A0001B02984205D9094B9C466044084BC01861
:1015B000F4E7064B9C466044064B1B68C018F5E7F1
:1015C000942F0120982A0120103001200080FFFF75
:1015D000A0120020B02A012010B50023002000E056
:1015E0000133072B0EDC40089A000E495158D022D7
:1015F00012065268CA40D207F2D5802252421043E6
:10160000C0B2EDE7084B1B6896225200934208DAFD
:10161000064A5900E2248C54521850700133024A91
:10162000136010BD5C120020EC2A0120382D01202F
:1016300010B5144B1B6896225200934208DA124AE6
:10164000590012248C545218507001330D4A136003
:10165000002309E09A000D49515801228A40D02107
:1016600009068A6140080133072B0ADCC207F1D55D
:101670009A000649515801228A40D02109064A6140
:10168000F0E710BDEC2A0120382D01205C1200206B
:1016900030B583B000230193019C002CFCD1204B7A
:1016A0001B6896225200934208DA1E4A5900D2253E
:1016B0008D54521850700133194A13600323184097
:1016C00003281FD1184B1A6801239340D022120619
:1016D00053617D30FEF7B0FE08E0A200134BD258F4
:1016E00001239340D022120653620134072CF4DD0B
:1016F00014E0A2000D4BD25801239340D0221206D1
:1017000093620134072CF4DD074B1A6801239340E0
:10171000D022120693618020FEF78EFE03B030BD0A
:10172000EC2A0120382D0120103501105C12002018
:10173000014B18787047C0462A2B012070B5050070
:10174000354B1870354B1B6896225200934208DACD
:10175000334A5900162088545218557001332F4AC5
:101760001360002441E0EB0703D40820FEF73EFE9F
:1017700039E00820FEF760FE35E0EB0704D5802055
:101780000001FEF733FE2EE080200001FEF754FE3C
:1017900029E0EB0704D580204001FEF727FE22E078
:1017A00080204001FEF748FE1DE0EB0704D58020B5
:1017B0008001FEF71BFE16E080208001FEF73CFE54
:1017C00011E0EB0703D51020FEF710FE0BE0102010
:1017D000FEF732FE07E0EA0715D501229A40130012
:1017E000D022120653616D080134072C12DCA300CD
:1017F0000C4A9B58632BEED9643B042BF3D89B0017
:10180000094AD3589F4601229A401300D02212065B
:101810009361E8E770BDC0462A2B0120EC2A012025
:10182000382D01207C1200205435011030B583B0D2
:10183000040000230193019B002BFCD1254A126870
:10184000962149008A4208DA23495000D62545549A
:1018500009184C7001321F490A60002C13D1402036
:10186000FEF7C4FD80200001FEF7C0FD802040018E
:10187000FEF7BCFD80208001FEF7B8FD1020FEF7CA
:10188000B5FD18E00133072B0BDC9A0013495258C1
:10189000632AF7D8012191400A00D02109064A6243
:1018A000F0E74020FEF7C8FD0D4B1878FFF746FF24
:1018B00003B030BD0134072CFADCA300074A9B5863
:1018C000632BF7D801229A401300D02212069362AC
:1018D000F0E7C046EC2A0120382D01207C120020C0
:1018E0002A2B012070B504000500172809D8032809
:1018F00051D3C31E9AB2142A4DD89300484AD358E4
:101900009F46B0239B00984252D010D9D8239B0009
:10191000984207D021D9E8239B00984202D0403357
:10192000984238D12000FFF78BFB00203FE0013BBD
:10193000FF3B984240D007D9A0239B0098422AD170
:101940000420FEF753FD26E00300813BFF3B9BB2E2
:10195000012B20D8FFF700FC29E0603B984202D021
:101960004033984217D12000FFF798FB00201EE07B
:101970002C4B18781BE02C4B1888000A17E02A4BD8
:10198000187814E0294B1888000A10E0274B1878C3
:101990000DE0FFF701FC23B2002B2FDB8023DB01DE
:1019A0009C4202D3224B1D686519224B585D70BDC5
:1019B0000420FEF741FDEEE704F068FC0020F6E7A6
:1019C0001D4B1868FEF7CAFC7F235840C0B20123A4
:1019D000984303007F20184016494875D0231B0602
:1019E0005A68520B01231340DB0118434875DEE7A8
:1019F000FFF7F2FDDBE7FFF79BFED8E7C0231B02F2
:101A00009C4205D90D4B9C4664440D4B185DCEE7B6
:101A10000A4B9C4664440B4B18682418F5E7C046F3
:101A2000683501102C2B0120222B0120202B0120B6
:101A3000982A012010300120083501100080FFFF96
:101A4000A0120020B02A012010B56D282FD01FD879
:101A50004D2837D05D2800D13149324A137A02200F
:101A60008343013883431372D268002A2CD10A7849
:101A7000002A4AD1042213432A4A13720023CB5668
:101A8000002B47DB274A137A08218B43137210BDC2
:101A90007D28E2D11202D21890B2FFF76FFD01004B
:101AA000204A138801339BB201331380D5E71D4CC4
:101AB0006088801880B2FFF761FD01002388013340
:101AC0002380CAE71849C8E7164C208AFFF70AFFA7
:101AD0000023E36000280CD1124A137A04210B433F
:101AE000137203060BD40F4A137A08218B43137227
:101AF000CDE70C4A137A04218B431372F1E7094AAC
:101B0000137A08210B431372C1E704229343054A59
:101B10001372B3E7034A137A08210B431372B6E733
:101B20009B2F0120942F01209A2F012010B5020035
:101B300017280AD803B2002B00D171E0172800D96A
:101B40006EE083003B4CE3589F46B0239B009842D5
:101B50004FD00ED9D8239B00984207D01FD9E82335
:101B60009B00984202D04033984259D1FFF768FA5F
:101B700020E0013BFF3B98423FD007D9A0239B00C8
:101B800098424DD10420FEF731FC13E00300813B65
:101B9000FF3B9BB2012B43D8FFF712FC0AE0603BEE
:101BA000984202D0403398423AD1FFF777FA01E0E9
:101BB000214B197010BD214A1088FF2303400902F0
:101BC00019431180F6E71D4B1888FF22904301430B
:101BD0001980EFE71A4A1088FF23034009021943CE
:101BE0001180E7E7164B1888FF22904301431980C4
:101BF000E0E70420FEF720FCDCE704F047FBD9E730
:101C00000800FFF715FDD5E70800FFF741FDD1E714
:101C10000800FFF793FDCDE70800FFF707FEC9E7CF
:101C20008023DB01984202D3064B1A688218064BC8
:101C30009954BFE7BC3501102C2B0120222B012029
:101C4000202B0120982A01201030012070B56A282D
:101C50003AD02AD84A2842D05A2800D1304C23788A
:101C6000802B3ED02F4A137A02218B4313722D4BC7
:101C7000DB68002B3BD121780139C9B22170294B97
:101C8000DB68002B38D12378002B3CD1254A137A0E
:101C900004210B4313720023E356002B39DB214A46
:101CA000137A08218B43137270BD7A28D7D11202A0
:101CB000D21890B2FFF762FC04001A4A138801336D
:101CC0009BB201331380CAE7164D6888801880B232
:101CD000FFF754FC04002B8801332B80BFE7124C24
:101CE000BDE7104A137A02210B431372BFE70D4B75
:101CF000188AFFF7F7FDBEE70A4D288AFFF716FF9F
:101D00000023EB60BFE7074A137A04218B43137269
:101D1000C1E7044A137A08210B431372C4E7C04693
:101D20009B2F0120942F01209A2F012070B56C2841
:101D30003AD02AD84C2842D05C2800D1304C314BC4
:101D4000DB68002B3DD121780131C9B221702D4BC8
:101D5000DB68002B3AD12378802B3ED0294A137AB6
:101D600002218B4313722378002B3CD1254A137A2E
:101D700004210B4313720023E356002B39DB214A65
:101D8000137A08218B43137270BD7C28D7D11202BD
:101D9000D21890B2FFF7F2FB04001A4A13880133FD
:101DA0009BB201331380CAE7164D6888801880B251
:101DB000FFF7E4FB04002B8801332B80BFE7124CB4
:101DC000BDE7104B188AFFF78DFDBCE70D4D288A43
:101DD000FFF7ACFE0023EB60BDE70A4A137A02214D
:101DE0000B431372BFE7074A137A04218B43137224
:101DF000C1E7044A137A08210B431372C4E7C046B3
:101E00009B2F0120942F01209A2F012010B56F28BD
:101E100027D017D84F282FD05F2800D11B491C4B43
:101E2000DB68002B2AD100230B70194A137A022198
:101E30008B4301398B4304210B43DBB208218B43D5
:101E4000137210BD7F28EAD11202D21890B2FFF7A8
:101E500095FB01000E4A138801339BB201331380B6
:101E6000DDE70B4C6088801880B2FFF787FB01002C
:101E7000238801332380D2E70649D0E7044C208A27
:101E80000021FFF753FE0023E360CEE79B2F0120E4
:101E9000942F01209A2F012070B5602842D032D8AB
:101EA00040284AD0502800D1374C384BDB68002BF3
:101EB00045D121784942C9B22170344BDB68002BEF
:101EC00042D12378802B46D0304A137A02218B43AB
:101ED00013722378002B44D02C4A137A01210B4330
:101EE00013722378002B42D1284A137A04210B4322
:101EF00013720023E356002B3FDB244A137A082198
:101F00008B43137270BD7028CFD11202D21890B2D9
:101F1000FFF734FB04001D4A138801339BB20133E1
:101F20001380C2E7194D6888801880B2FFF726FB3E
:101F300004002B8801332B80B7E7154CB5E7134B12
:101F4000188AFFF7CFFCB4E7104D288AFFF7EEFDA3
:101F50000023EB60B5E70D4A137A02210B4313729D
:101F6000B7E70A4A137A01218B431372B9E7074A8C
:101F7000137A04218B431372BBE7044A137A0821B6
:101F80000B431372BEE7C0469B2F0120942F012004
:101F90009A2F012070B5682847D037D848284FD0ED
:101FA000582800D1394C0023E356002B4ADB384A2D
:101FB000137A01218B431372354BDB68002B47D119
:101FC00021784900C9B22170314BDB68002B44D124
:101FD0002378002B48D12E4A137A04210B43137225
:101FE0000023E356002B45DB294A137A08218B4353
:101FF0001372274B1B7A09221A40082A40D0012A63
:102000003ED002229343224A13723DE07828CAD17F
:102010001202D21890B2FFF7B1FA04001C4A1388DA
:1020200001339BB201331380BDE7194D68888018D6
:1020300080B2FFF7A3FA04002B8801332B80B2E7AC
:10204000144CB0E7124A137A01210B431372B3E721
:102050000F4B188AFFF746FCB2E70D4D288AFFF7B1
:1020600065FD0023EB60B3E7094A137A04218B4333
:102070001372B5E7064A137A08210B431372B8E7C7
:1020800002221343024A137270BDC0469B2F0120E7
:10209000942F01209A2F012070B5632839D029D8B8
:1020A000432841D0532800D12C4C2D4BDB68002B0A
:1020B0003CD12178C943C9B22170294BDB68002B80
:1020C00039D1274A137A02218B4301210B43DBB21A
:1020D00013722278002A35D104221343204A137246
:1020E0000023E356002B32DB1D4A137A08218B4371
:1020F000137270BD7328D8D11202D21890B2FFF7B4
:102100003DFA0400164A138801339BB20133138051
:10211000CBE7134D6888801880B2FFF72FFA0400D0
:102120002B8801332B80C0E70E4CBEE70C4B188A7E
:10213000FFF7D8FBBDE70A4D288AFFF7F7FC00231D
:10214000EB60BEE704229343054A1372C8E7044AD2
:10215000137A08210B431372CBE7C0469B2F012053
:10216000942F01209A2F012070B564283DD02DD8DE
:10217000442845D0542800D1314C2378DB0741D581
:10218000304A137A01210B4313722E4BDB68002B6C
:102190003ED12178490821702A4BDB68002B3CD1C5
:1021A000284B1B7ADA073FD502221343254A1372C4
:1021B0002378002B3DD1234A137A04210B43137259
:1021C000204A137A08218B43137270BD7428D4D12E
:1021D0001202D21890B2FFF7D1F90400194A1388FD
:1021E00001339BB201331380C7E7164D688880180E
:1021F00080B2FFF7C3F904002B8801332B80BCE7C2
:10220000114CBAE70F4A137A01218B431372BCE7D2
:102210000C4B188AFFF766FBBBE70A4D288AFFF7CD
:1022200085FC0023EB60BBE702229343054A13724F
:10223000BEE7044A137A04218B431372C0E7C046F9
:102240009B2F0120942F01209A2F012070B5672821
:1022500044D034D847284CD0572800D1354C237867
:10226000DB0748D5344A137A01210B431372324BF2
:10227000DB68002B45D123785B08237040221A428B
:1022800002D0C03A134323702B4BDB68002B3DD1A7
:102290002378002B42D1284A137A04210B4313726E
:1022A000254B1B7A0822934301321A40082A3BD05F
:1022B000012A39D0022293431F4A137238E077284B
:1022C000CDD11202D21890B2FFF758F904001A4A81
:1022D000138801339BB201331380C0E7164D688821
:1022E000801880B2FFF74AF904002B8801332B8055
:1022F000B5E7124CB3E7104A137A01218B431372EE
:10230000B5E70D4B188AFFF7EDFAB4E721780A4DCF
:10231000288AFFF70BFC0023EB60B9E7064A137A23
:1023200004218B431372BBE702221343024A137248
:1023300070BDC0469B2F0120942F01209A2F0120B1
:1023400070B569284FD03FD8492857D0592800D1B7
:102350003D4C3E4B1B7A01251D400022A256002A0F
:102360004EDB01229343394A1372384BDB68002B52
:102370004BD123785B00DBB22370002D02D0012209
:1023800013432370314BDB68002B43D12378002BA0
:1023900048D12E4A137A04210B4313720023E356CB
:1023A000002B45DB294A137A08218B431372274BF4
:1023B0001B7A09221A40082A40D0012A3ED0022264
:1023C0009343224A13723DE07928C2D11202D218F7
:1023D00090B2FFF7D3F804001C4A138801339BB274
:1023E00001331380B5E7194D6888801880B2FFF774
:1023F000C5F804002B8801332B80AAE7144CA8E70A
:1024000001221343114A1372AFE7104B188AFFF7EA
:1024100069FAAEE721780D4D288AFFF787FB002384
:10242000EB60B3E7094A137A04218B431372B5E7D3
:10243000064A137A08210B431372B8E702221343AA
:10244000024A137270BDC0469B2F0120942F0120B9
:102450009A2F012070B566284ED03ED8462856D017
:10246000562800D13C4C3D4B1B7A012215001D40E3
:1024700021780A424DD01343384A1372374BDB6838
:10248000002B4BD123785B082370002D03D08022D2
:10249000524213432370314BDB68002B43D1237826
:1024A000002B48D12D4A137A04210B4313720023C9
:1024B000E356002B45DB294A137A08218B4313721C
:1024C000264B1B7A09221A40082A40D0012A3ED006
:1024D00002229343214A13723DE07628C3D11202AF
:1024E000D21890B2FFF74AF804001C4A138801334F
:1024F0009BB201331380B6E7184D6888801880B20C
:10250000FFF73CF804002B8801332B80ABE7144C19
:10251000A9E701229343114A1372AFE70F4B188AC0
:10252000FFF7E0F9AEE721780C4D288AFFF7FEFAB5
:102530000023EB60B3E7094A137A04218B4313723B
:10254000B5E7064A137A08210B431372B8E7022253
:102550001343024A137270BD9B2F0120942F012058
:102560009A2F012070B504000500C1235B0098423A
:102570000ED2023B98424BD2172829D8032827D3E2
:10258000C31E9AB2142A23D893003E4AD3589F46BA
:10259000B0239B00984237D010D9D0239B0098429B
:1025A00026D022D9E8239B00984202D0403398429B
:1025B00023D12000FEF744FD002015E0013BFF3B46
:1025C00098422BD0C033984202D10420FDF70EFF71
:1025D00023B2002B44DB8023DB019C4202D32A4B35
:1025E0001D686519294B585D70BD403B9842EFD17D
:1025F0002000FEF753FD0020F6E7803B9842D8D03C
:10260000E6E7234B1878EFE70420FDF715FFDFE737
:10261000FEF7A2FDE8E7FEF7BFFDD9E703F036FEBF
:102620000020E1E71B4B1868FDF798FE7F23584018
:10263000C0B20123984303007F2018401349487516
:10264000D0231B065A68520B01231340DB011843A9
:102650004875C9E7FEF7C0FFC6E7FFF769F8C3E7AB
:10266000C0231B029C4205D90B4B9C4664440B4B78
:10267000185DB9E7084B9C466444094B1868241858
:10268000F5E7C0461C360110982A012010300120C1
:102690002C2B0120083501100080FFFFA012002024
:1026A000B02A012010B5140000216B2819D07B2816
:1026B00020D0194A138801339BB201331380137A57
:1026C000022293434AB2002A1ADB08229343124A99
:1026D0001372002919D1104A137A04210B43137283
:1026E00010BD0D4A5088C01880B2FFF73BFF210093
:1026F0000140DEE798B2FFF735FF21000140D8E73F
:1027000008221343044A1372E3E7034A137A0421AD
:102710008B431372E4E7C046942F012010B5332891
:102720000DD0382814D0322800D010BD134CA0880A
:10273000013080B2A080FFF715FFA071F5E70F4CC4
:10274000A088013080B2A080FFF70CFFE071ECE7B9
:102750000A4CA088013080B2A080FFF703FF80B24E
:1027600000026080A088013080B2A080FFF7FAFEEE
:1027700080B26388C0186080D7E7C046942F0120DC
:1027800070B50024C42800D16AE020D8A4285BD00A
:102790000FD9B4283FD112029B1898B2FFF7E2FE7E
:1027A00084B23E490B8801339BB201330B80063162
:1027B00031E0842829D094282DD190B2FFF7D2FEA1
:1027C00084B236490B8801330B80063123E0E428BC
:1027D0004DD0F4280DD112029B1898B2FFF7C2FE1B
:1027E00084B22E490B8801339BB201330B80073131
:1027F00011E0D4280FD190B2FFF7B4FE84B227497C
:102800000B8801330B80073105E094B223490B8814
:1028100001330B8006310878204008701F4A137A74
:102820000220834313720A78002A2CD10422134316
:102830001A4A13720023CB56002B29DB174A137A4E
:1028400008218B43137270BD144D6888101880B234
:10285000FFF788FE84B22B8801332B80A91DDAE7AD
:1028600094B20E490B8801330B800731D3E70B4D2F
:102870006888101880B2FFF775FE84B22B88013388
:102880002B80E91DC7E704229343044A1372D1E762
:10289000024A137A08210B431372D4E7942F0120C4
:1028A00070B50024C82800D16AE020D8A8285BD0E1
:1028B0000FD9B8283FD112029B1898B2FFF752FEE9
:1028C00084B23E490B8801339BB201330B80063141
:1028D00031E0882829D098282DD190B2FFF742FE08
:1028E00084B236490B8801330B80063123E0E82897
:1028F0004DD0F8280DD112029B1898B2FFF732FE86
:1029000084B22E490B8801339BB201330B8007310F
:1029100011E0D8280FD190B2FFF724FE84B22749E6
:102920000B8801330B80073105E094B223490B88F3
:1029300001330B8006310878604008701F4A137A13
:102940000220834313720A78002A2CD104221343F5
:102950001A4A13720023CB56002B29DB174A137A2D
:1029600008218B43137270BD144D6888101880B213
:10297000FFF7F8FD84B22B8801332B80A91DDAE71D
:1029800094B20E490B8801330B800731D3E70B4D0E
:102990006888101880B2FFF7E5FD84B22B880133F8
:1029A0002B80E91DC7E704229343044A1372D1E741
:1029B000024A137A08210B431372D4E7942F0120A3
:1029C00070B50024CA2800D16AE020D8AA285BD0BC
:1029D0000FD9BA283FD112029B1898B2FFF7C2FD57
:1029E00084B23E490B8801339BB201330B80063120
:1029F00031E08A2829D09A282DD190B2FFF7B2FD74
:102A000084B236490B8801330B80063123E0EA2873
:102A10004DD0FA280DD112029B1898B2FFF7A2FDF3
:102A200084B22E490B8801339BB201330B800731EE
:102A300011E0DA280FD190B2FFF794FD84B2274954
:102A40000B8801330B80073105E094B223490B88D2
:102A500001330B8006310878204308701F4A137A2F
:102A60000220834313720A78002A2CD104221343D4
:102A70001A4A13720023CB56002B29DB174A137A0C
:102A800008218B43137270BD144D6888101880B2F2
:102A9000FFF768FD84B22B8801332B80A91DDAE78C
:102AA00094B20E490B8801330B800731D3E70B4DED
:102AB0006888101880B2FFF755FD84B22B88013367
:102AC0002B80E91DC7E704229343044A1372D1E720
:102AD000024A137A08210B431372D4E7942F012082
:102AE00010B50021C52800D167E020D8A52858D00E
:102AF0000FD9B5283FD11002181880B2FFF732FD68
:102B000081B23D4C238801339BB2013323800634CC
:102B100031E0852829D095282DD190B2FFF722FDEC
:102B200081B2354C238801332380063423E0E52825
:102B30004AD0F5280DD11002181880B2FFF712FD07
:102B400081B22D4C238801339BB20133238007349B
:102B500011E0D5280FD190B2FFF704FD81B2264CC9
:102B6000238801332380073405E091B2224C238867
:102B700001332380063400202056084040B21E4B0B
:102B80001B7A0222934300282AD1042213431A4AB3
:102B90001372002829DB184A137A08218B43137219
:102BA00010BD154C6088101880B2FFF7DBFC81B2B5
:102BB0002388013323800634DDE791B20E4C23884D
:102BC000013323800734D6E70B4C6088101880B29D
:102BD000FFF7C8FC81B22388013323800734CAE79A
:102BE00004229343044A1372D3E7034A137A082159
:102BF0000B431372D4E7C046942F012070B5002117
:102C0000E3286AD015D8C3282CD0D32833D194B266
:102C10002000FFF7A7FC0500601CFFF7A3FC2D02B6
:102C2000A9B280B2091889B24F4A138801331380C0
:102C300021E0F3281FD112029A1894B22000FFF766
:102C400091FC05000134A0B2FFF78CFC2D02A9B263
:102C500080B2091889B2444A138801339BB2013308
:102C6000138008E012029A1891B23F4A1388013388
:102C70009BB2013313803C4A93791B02D079020046
:102C80001A43521892B203438024240218002040B1
:102C9000234202D00BB2002B34DB002805D10BB24B
:102CA000002B02DB13B2002B2FDB2F4C237A0225E3
:102CB000AB432372002802D00BB2002B2EDB09B2EB
:102CC000002928DB13B2002B01DB002826D126497E
:102CD0000B7A012083430B7225E0234E748814196C
:102CE000A4B22000FFF73EFC05000134A0B2FFF7BC
:102CF00039FC2D02A9B280B2091889B23388013398
:102D00003380B8E713B2002BC7DB174C237A0225B8
:102D10002B432372CEE713B2002BD3DB12490B7A7D
:102D2000012003430B72002A11D10F490B7A0420B2
:102D300003430B7213B2002B0FDB0B490B7A0820F5
:102D400083430B72084B110A9971DA7170BD064901
:102D50000B7A042083430B72ECE703490B7A0820BB
:102D600003430B72EEE7C046942F012070B500219B
:102D7000AC285AD015D88C282CD09C2833D194B2AA
:102D80002000FFF7EFFB0500601CFFF7EBFB2D02B7
:102D9000A9B280B2091889B24A4A13880133138054
:102DA00021E0BC281FD112029A1894B22000FFF72C
:102DB000D9FB05000134A0B2FFF7D4FB2D02A9B264
:102DC00080B2091889B23F4A138801339BB201339C
:102DD000138008E012029A1891B23A4A138801331C
:102DE0009BB201331380374B5A88531A9BB212B2ED
:102DF000002A2FDB002A02DB08B2002836DB314C28
:102E0000207A0225A8432072002A02DB08B200289B
:102E100036DB09B200292DDB19B200292EDB294946
:102E20000A7A012082430A722FE0264E7488141910
:102E3000A4B22000FFF796FB05000134A0B2FFF713
:102E400091FB2D02A9B280B2091889B233880133EF
:102E50003380C8E708B20028CCDB18B20028C9DBF1
:102E6000184C207A022528432072CDE718B200289A
:102E7000C5DAF5E719B20029CEDA01E0002ACEDB87
:102E800010490A7A012002430A72002B0DD10D4924
:102E90000A7A042002430A721BB2002B0BDB094A98
:102EA000137A08218B43137270BD06490A7A0420F5
:102EB00082430A72F0E7034A137A08210B43137224
:102EC000F2E7C046942F012070B50021A32853D00B
:102ED00015D883282CD0932833D194B22000FFF743
:102EE00041FB0500601CFFF73DFB2D02A9B280B23B
:102EF000091889B2504A13880133138021E0B3289E
:102F00001FD112029A1894B22000FFF72BFB050084
:102F10000134A0B2FFF726FB2D02A9B280B2091836
:102F200089B2454A138801339BB20133138008E00C
:102F300012029A1891B2404A138801339BB20133AE
:102F400013803D4A93791B02D07902001A43521A2A
:102F500092B203438024240218002040234220D050
:102F60000BB2002B1DDB13B2002B1ADB324C237A81
:102F700002252B4323721EE02F4E74881419A4B22D
:102F80002000FFF7EFFA05000134A0B2FFF7EAFADC
:102F90002D02A9B280B2091889B233880133338077
:102FA000CFE7002802D10BB2002B28DB224C237A7A
:102FB0000225AB432372002802D10BB2002B28DB81
:102FC00009B200291FDB13B2002B20DB1A490B7A50
:102FD000012083430B72002A21D117490B7A042068
:102FE00003430B7213B2002B1FDB13490B7A08202B
:102FF00083430B72104B110A9971DA7170BD13B2D1
:10300000002BD3DAB2E713B2002BDCDA01E00028A0
:10301000DCD109490B7A012003430B72DBE7064937
:103020000B7A042083430B72DCE703490B7A0820F8
:1030300003430B72DEE7C046942F012010B51F4CEE
:10304000A088013080B2A080FFF78CFA2072A0889F
:10305000013080B2A080FFF785FAE071A0880130CE
:1030600080B2A080FFF77EFAA071A088013080B204
:10307000A080FFF777FA80B200026080A08801305C
:1030800080B2A080FFF76EFA80B263881843608038
:10309000A088013080B2A080FFF764FA80B20002FD
:1030A0002080A088013080B2A080FFF75BFA80B258
:1030B000238818430138208010BDC046942F01207A
:1030C00010B50B4CA088013080B2A080FFF74AFAFF
:1030D00080B200022080A088013080B2A080FFF77B
:1030E00041FA80B2238818430138208010BDC046C1
:1030F000942F012070B5EC2846D011D8CC2824D0CC
:10310000DC282AD195B22800FFF72CFA2E4CA071AA
:10311000681CFFF727FAE0712388013323801CE045
:10312000FC281AD11202D21894B22000FFF71AFA22
:10313000254DA8710134A0B2FFF714FAE8712B886D
:1031400001339BB201332B8007E01F498A71CB7199
:103150000B8801339BB201330B801B490A7A02238F
:103160009A438B791B02C9790B4321D104210A436D
:1031700015490A728022120213421ED0124A137A93
:1031800008210B43137270BD0F4D688894B210185C
:1031900080B2FFF7E7F9A8716888201880B2013083
:1031A00080B2FFF7DFF9E8712B8801332B80D4E779
:1031B00004218A4304490A72DCE7034A137A08218E
:1031C0008B431372DFE7C046942F012070B5C928E6
:1031D00000D18AE022D8A92800D17AE010D9B928F4
:1031E00040D1120290B2C01880B2FFF7BBF90200C2
:1031F00069490B8801339BB201330B80063131E002
:1032000089282AD099282DD190B2FFF7ABF9020076
:1032100061490B8801330B80063123E0E9286AD02D
:10322000F9280ED1120290B2C01880B2FFF79AF9B5
:10323000020059490B8801339BB201330B800731DF
:1032400010E0D9280ED190B2FFF78CF90200524954
:103250000B8801330B80073104E04F490B880133A1
:103260000B80063108784C4B1C7A012323409B18B5
:10327000DBB21B18DBB20B7044B2002C47DB002C16
:1032800001DB15064ED4444D2B7A0226B3432B7234
:103290000B78002B4AD1404D2B7A042633432B72F6
:1032A0000023CB56002B47DB3B4D2B7A0826B3433C
:1032B0002B72002C46DB130647D40023CB56002B81
:1032C00001DB002C45DB344C237A0125AB43237210
:1032D00044E0314C6088801880B2FFF743F9020067
:1032E000238801332380A11DBCE72B490B880133C0
:1032F0000B800731B6E7284C6088801880B2FFF752
:1033000031F90200238801332380E11DAAE7150665
:10331000B5D45DB2002DB2DB1F4D2B7A02263343AC
:103320002B72B5E75BB2002BADDAF5E71A4D2B7ABD
:103330000426B3432B72B3E7174D2B7A0826334389
:103340002B72B6E71306B6D503E00023CB56002B4D
:10335000B3DB114C237A01252B43237208231C0075
:103360000440034201D0130709D4130702D50B7898
:103370001B0704D50B781B0707D4002C05D0064A81
:10338000137A20210B43137270BD034A137A202154
:103390008B431372F8E7C046942F012070B5BB2809
:1033A00000D17FE014D9EB2800D190E02BD9FB2885
:1033B0003AD1120290B2C01880B2FFF7D3F80200DF
:1033C00069490B8801339BB201330B8007312BE035
:1033D0009B285DD00DD9AB2826D1634C608880181E
:1033E00080B2FFF7BFF80200238801332380A11DBC
:1033F0001AE01B2815D08B2816D15B490B880133A6
:103400000B80063110E0CB285BD0DB280CD190B2CA
:10341000FFF7A8F8020054490B8801330B800731ED
:1034200002E05149CA79063108781318DBB20B70F3
:1034300044B2002C57DB002C04DB150602D45BB22F
:10344000002B55DB484D2B7A0226B3432B720B78A9
:10345000002B53D1444D2B7A042633432B72002387
:10346000CB56002B50DB404D2B7A0826B3432B72F2
:10347000002C4FDB130650D40023CB56002B01DB6E
:10348000002C4EDB384C237A0125AB4323724DE0F0
:1034900090B2FFF767F8020033490B8801330B80C5
:1034A0000631C1E7120290B2C01880B2FFF75AF895
:1034B00002002D490B8801339BB201330B8006318A
:1034C000B2E729490B8801330B800731ACE7264C62
:1034D0006088801880B2FFF745F802002388013326
:1034E0002380E11DA0E71506A5D55DB2002DA2DB66
:1034F0001D4D2B7A022633432B72A8E71A4D2B7AE7
:103500000426B3432B72AAE7174D2B7A08263343C0
:103510002B72ADE71306ADD503E00023CB56002B8D
:10352000AADB114C237A01252B43237208231C00AC
:103530000440034201D0130709D4130702D50B78C6
:103540001B0704D50B781B0707D4002C05D0064AAF
:10355000137A20210B43137270BD034A137A202182
:103560008B431372F8E7C046942F012010B5C6288C
:1035700000D169E021D8A6285AD010D9B62840D168
:10358000120290B2C01880B2FEF7ECFF02003D4C70
:10359000238801339BB201332380063431E086282F
:1035A0002AD096282DD190B2FEF7DCFF0200354CD0
:1035B000238801332380063423E0E6284AD0F62806
:1035C0000ED1120290B2C01880B2FEF7CBFF0200FB
:1035D0002C4C238801339BB201332380073410E045
:1035E000D6280ED190B2FEF7BDFF0200254C2388ED
:1035F00001332380073404E0224C238801332380E5
:10360000063420490B7A022083430B722270002A71
:103610002CD10A000B7A04210B4313720023E356CA
:10362000002B29DB174A137A08218B43137210BD34
:10363000144C6088801880B2FEF794FF0200238843
:10364000013323800634DCE70E4C238801332380CA
:103650000734D6E70B4C6088801880B2FEF782FFF3
:1036600002002388013323800734CAE7054A137A0E
:1036700004218B431372D1E7024A137A08210B43CA
:103680001372D4E7942F012070B5C12800D17EE0D9
:1036900021D8A1286FD010D9B12840D1120290B200
:1036A000C01880B2FEF75EFF020055490B88013357
:1036B0009BB201330B80063131E081282AD091285A
:1036C0002DD190B2FEF74EFF02004D490B88013319
:1036D0000B80063123E0E1285FD0F1280ED11202E1
:1036E00090B2C01880B2FEF73DFF020044490B883B
:1036F00001339BB201330B80073110E0D1280ED18A
:1037000090B2FEF72FFF02003D490B8801330B807A
:10371000073104E03A490B8801330B8006310C78FD
:10372000A31ADBB264B2002C43DB002C01DB1106D0
:103730004AD43348017A0225A9430172002B47D1AC
:103740002F48017A0425294301725BB2002B45DB27
:103750002B49087A0825A8430872002C01DB1106C2
:1037600047D4120640D4002B41DB254A137A0121AD
:103770008B43137242E0224C6088801880B2FEF7BF
:10378000F1FE0200238801332380A11DC7E71C49F5
:103790000B8801330B800731C1E7194C6088801812
:1037A00080B2FEF7DFFE0200238801332380E11D93
:1037B000B5E71106B9D459B20029B6DB1048017A31
:1037C000022529430172B9E759B20029B1DAF5E7B8
:1037D0000B48017A0425A9430172B6E70848017A2B
:1037E000082529430172B8E7002BBCDA01E0002C60
:1037F000BBDB034A137A01210B43137270BDC04631
:10380000942F012070B5C22800D18AE022D8A228C6
:1038100000D17AE010D9B22840D1120290B2C0187B
:1038200080B2FEF79FFE02005B490B8801339BB21A
:1038300001330B80063131E082282AD092282DD125
:1038400090B2FEF78FFE020053490B8801330B80C4
:10385000063123E0E2286AD0F2280ED1120290B29B
:10386000C01880B2FEF77EFE02004B490B88013380
:103870009BB201330B80073110E0D2280ED190B2F9
:10388000FEF770FE020044490B8801330B800731BC
:1038900004E041490B8801330B80063108783E4B28
:1038A0001C7A012323409B18DBB2C31ADBB20B70D6
:1038B00040B2002847DB002801DB14064ED4364C0A
:1038C000237A0225AB4323720B78002B4AD1324C6A
:1038D000237A04252B4323720023CB56002B47DB8E
:1038E0002D4C237A0825AB432372002801DB1306F5
:1038F0004BD4130642D40023CB56002B43DB264A7D
:10390000137A01218B43137244E0234C60888018A2
:1039100080B2FEF727FE0200238801332380A11D19
:10392000BCE71D490B8801330B800731B6E71A4C01
:103930006088801880B2FEF715FE020023880133EC
:103940002380E11DAAE71406B5D45CB2002CB2DBDB
:10395000114C237A02252B432372B5E75BB2002B6F
:10396000ADDAF5E70C4C237A0425AB432372B3E7B9
:10397000094C237A08252B432372B6E70023CB5644
:10398000002BB8DA01E00028B9DB034A137A0121E1
:103990000B43137270BDC046942F012070B5C02830
:1039A00000D183E021D8A02874D010D9B02840D10C
:1039B000120290B2C01880B2FEF7D4FD020058493E
:1039C0000B8801339BB201330B80063131E0802834
:1039D0002AD090282DD190B2FEF7C4FD02005049A4
:1039E0000B8801330B80063123E0E02864D0F028F7
:1039F0000ED1120290B2C01880B2FEF7B3FD0200E1
:103A000047490B8801339BB201330B80073110E02B
:103A1000D0280ED190B2FEF7A5FD020040490B88D8
:103A200001330B80073104E03D490B8801330B80E3
:103A300006310B78981AC0B208705BB2002B47DBD6
:103A4000002B01DB14064ED4354C207A0225A84306
:103A50002072087800284AD1314C207A0425284366
:103A6000207200200856002847DB2D4C207A0825BC
:103A7000A8432072002B01DB10064BD4120642D45F
:103A800000228A56002A43DB254A137A01218B4300
:103A9000137244E0224C6088801880B2FEF762FD09
:103AA0000200238801332380A11DC2E71C490B8833
:103AB00001330B800731BCE7194C6088801880B255
:103AC000FEF750FD0200238801332380E11DB0E79B
:103AD0001406B5D444B2002CB2DB114C207A022576
:103AE00028432072B5E740B20028ADDAF5E70C4C68
:103AF000207A0425A8432072B3E7094C207A0825D0
:103B000028432072B6E700228A56002AB8DA01E07C
:103B1000002BB9DB024A137A01210B43137270BDEB
:103B2000942F012003B2002B10DB8023DB0198428D
:103B30002DD203001A4AD35C1B021A4A90422AD89B
:103B40000130174A105CC01880B27047C0231B02B6
:103B500098420FD9144BC318144AD35C1B02144A61
:103B600090420DD9134A94466044104A105CC01824
:103B700080B2EAE7104B1A680B4BC3189B18EBE7AF
:103B80000C4A944660440C4A12688018EDE70B4BCF
:103B90001B68C318CEE70130084A12688018D0E7C6
:103BA00010300120FE3F00000080FFFFA012002027
:103BB000FFBF00000180FFFFB02A0120982A0120EA
:103BC00070B50024CE2840D021D8AE2800D174E0B2
:103BD0000FD9BE2843D11002C01880B2FFF7A2FF50
:103BE000040041490B8801339BB201330B8004313F
:103BF00035E08E2856D09E2831D190B2FFF792FF43
:103C0000040039490B8801330B80043127E0EE288A
:103C10003CD0FE280DD11002C01880B2FFF782FF01
:103C2000040031490B8801339BB201330B80023110
:103C300015E0DE2813D190B2FFF774FF04002A4983
:103C40000B8801330B80023109E012021A43140081
:103C500025490B8801339BB201330B8002310C8064
:103C6000214A137A0220834313720A88002A30D132
:103C7000042213431C4A137200228B5E002B2DDB9F
:103C8000194A137A08218B43137270BD164D688848
:103C9000801880B2FFF746FF04002B8801332B8089
:103CA000A91CDCE712021A4314000F490B880133E8
:103CB0009BB201330B800431D1E70B4D688880182B
:103CC00080B2FFF72FFF04002B8801332B80291DC2
:103CD000C5E704229343044A1372CDE7024A137ADC
:103CE00008210B431372D0E7942F012070B5040014
:103CF0000D000600C1235B0098420DD2023B9842A2
:103D000048D2172835D803B2002B32D0172830D824
:103D100083002B4AD3589F46B0239B00984235D04E
:103D20000FD9D0239B00984219D015D9E8239B00C6
:103D3000984202D04033984215D12000FDF780F917
:103D400023E0013BFF3B984227D0C033984210D17B
:103D50000420FCF74BFB0CE0403B984209D12000CB
:103D6000FDF79CF911E0803B9842E6D001E0154B4D
:103D7000197023B2002B08DB8023DB019C4202D3A5
:103D8000114B1E68A619114B9D5570BD0420FCF700
:103D900053FBEEE7FDF714FBF7E702F077FAF4E7E1
:103DA0000800FDF745FCF0E70800FDF7C7FCECE76D
:103DB0000800FDF73BFDE8E70800FDF769FCE4E7D4
:103DC000703601102C2B0120982A01201030012080
:103DD000F8B515000024622819D0722827D01F4A90
:103DE000138801339BB201331380137A0222934369
:103DF00062B2002A26DB08229343184A1372002C71
:103E000025D1164A137A04210B431372F8BD9EB2D2
:103E1000124F7888181880B2FEF7A4FB0543ECB265
:103E20007888301880B22100FFF760FFD7E79EB294
:103E30003000FEF797FB0543ECB221003000FFF79E
:103E400055FFCCE708221343044A1372D7E7034A0D
:103E5000137A04218B431372D8E7C046942F0120B4
:103E6000F8B515000026612819D0712827D01F4AFF
:103E7000138801339BB201331380137A02229343D8
:103E800072B2002A26DB08229343184A1372002ECE
:103E900025D1164A137A04210B431372F8BD9CB244
:103EA000124F7888181880B2FEF75CFB05402E0090
:103EB0007888201880B22900FFF718FFD7E79CB256
:103EC0002000FEF74FFB05402E0029002000FFF7E1
:103ED0000DFFCCE708221343044A1372D7E7034AC5
:103EE000137A04218B431372D8E7C046942F012024
:103EF000F8B515000024652819D0752827D01F4A69
:103F0000138801339BB201331380137A0222934347
:103F100062B2002A26DB08229343184A1372002C4F
:103F200025D1164A137A04210B431372F8BD9EB2B1
:103F3000124F7888181880B2FEF714FB4540ECB297
:103F40007888301880B22100FFF7D0FED7E79EB204
:103F50003000FEF707FB4540ECB221003000FFF7D0
:103F6000C5FECCE708221343044A1372D7E7034A7D
:103F7000137A04218B431372D8E7C046942F012093
:103F800010B537280CD03C2812D0362800D010BDF0
:103F90000F4B9888421E9A809979FFF7A7FEF6E7A3
:103FA0000B4B9888421E9A80D979FFF79FFEEEE767
:103FB000074CA088431EA380A178FFF797FEA08836
:103FC000431EA3806188090AFFF790FEDFE7C04621
:103FD000942F012010B5010000200024D72945D0DE
:103FE0002CD8A72939D0B7290AD112021A431000B8
:103FF0002C4A9479138801339BB20133138007E074
:10400000972905D190B2274B9C791A8801321A80E2
:104010002100FFF76BFE234B1B7A02229343002CF7
:1040200034D1042213431F4A137264B2002C32DBD2
:104030001C4A137A08218B43137210BDE7291CD048
:10404000F729E5D112021A431000164AD4791388D1
:1040500001339BB201331380DAE7124B58881018F2
:1040600080B29C791A8801321A80D1E790B20D4B48
:10407000DC791A8801321A80CAE70A4B588810186E
:1040800080B2DC791A8801321A80C1E70422934396
:10409000044A1372C9E7034A137A08210B431372C7
:1040A000CBE7C046942F012070B5244CA088431E56
:1040B000A38021780131C9B2FFF718FEA088431E02
:1040C000A380218801310912C9B2FFF70FFEA08831
:1040D000431EA380A178FFF709FEA088431EA3809A
:1040E0006188090AFFF702FEA088431EA380A17918
:1040F000FFF7FCFDA088431EA380E179FFF7F6FDE2
:10410000A088431EA380217AFFF7F0FD237A1022B6
:10411000134323720A48FEF725FA05000948FEF703
:1041200021FAADB22D02ADB22D18ADB2013D258000
:10413000054A13680133136070BDC046942F0120F7
:10414000FAFF0000FBFF00001430022070B5224C83
:10415000A088431EA38021780131C9B2FFF7C6FDB4
:10416000A088431EA380218801310912C9B2FFF73C
:10417000BDFDA088431EA380A178FFF7B7FDA088EE
:10418000431EA3806188090AFFF7B0FDA088431E83
:10419000A380A179FFF7AAFDA088431EA380E1793F
:1041A000FFF7A4FDA088431EA380217AFFF79EFDA0
:1041B000237A1022134323720848FEF7D3F905002F
:1041C0000748FEF7CFF9ADB22D02ADB22D18ADB252
:1041D000013D258070BDC046942F0120EEFF0000F8
:1041E000EFFF000070B5AD283BD01CD88D2853D010
:1041F0009D2850D190B2FFF795FC013885B2384C1C
:104200002188013189B22180A088431EA380C9B2D0
:10421000FFF76CFDA088431EA3802188090AFFF7E1
:1042200065FD258037E0BD2835D112021343013BDF
:104230009CB22B4D2988013189B2013189B20131FB
:1042400089B22980A888431EAB80C9B2FFF74EFD12
:10425000A888431EAB802988090AFFF747FD2C80F8
:1042600019E01F4C6088121892B2013A95B2218869
:10427000013189B2013189B22180A088431EA38017
:10428000C9B2FFF733FDA088431EA3802188090A25
:10429000FFF72CFD258070BD114B198853B2002B00
:1042A00019DB92B28A1892B2013294B2013189B20A
:1042B000013189B20A4D2980A888431EAB80C9B25A
:1042C000FFF714FDA888431EAB802988090AFFF771
:1042D0000DFD2C80DFE7013AFF3A92B2E2E7C046DB
:1042E000942F012070B504000B00090ADDB2FFF71E
:1042F000FDFC0134A0B22900FFF7F8FC70BD0000FE
:1043000010B5010000200024EF292BD0FF291ED07A
:10431000DF2915D02100FFF7E5FF1C4B1B7A022295
:104320009343002C26D104221343184A137224B25B
:10433000002C24DB154A137A08218B43137210BD1D
:1043400090B2124B5C881A8801321A80E2E712029E
:104350001A4310000D4A5488138801339BB201336D
:104360001380D7E7094B5C88121990B21A88013282
:104370001A80CFE704229343044A1372D7E7034A13
:10438000137A08210B431372D9E7C046942F0120FA
:1043900010B5010000200024AF292BD0BF291ED06A
:1043A0009F2915D02100FFF79DFF1C4B1B7A02228D
:1043B0009343002C27D104221343184A137224B2CA
:1043C000002C25DB154A137A08218B43137210BD8C
:1043D00090B2124B9C881A8801321A80E2E71202CE
:1043E0001A4310000D4A9488138801339BB201339D
:1043F0001380D7E7094B5888101880B29C881A8818
:1044000001321A80CEE704229343044A1372D6E79E
:10441000024A137A08210B431372D8E7942F012024
:1044200010B5010000200024ED2931D0FD2921D054
:10443000DD2915D02100FFF755FF214B1B7A022201
:104440009343002C30D1042213431D4A137224B22B
:10445000002C2EDB1A4A137A08218B43137210BDED
:1044600090B2174B9C792402DA7914431A880132EE
:104470001A80DFE712021A431000114A94792402CD
:10448000D3791C43138801339BB201331380D1E7E6
:104490000B4B5888101880B29C792402DA791443A7
:1044A0001A8801321A80C5E704229343044A137222
:1044B000CDE7034A137A08210B431372CFE7C046B6
:1044C000942F0120002300E00133022B08D8DA00EA
:1044D0000449525A8242F7D1DB00CB1801225A60BC
:1044E0007047C046E8090020F8B5294B1B7ADB0667
:1044F0004CD40024022C49D8E100264A52185268B4
:10450000002A01D10134F5E7224F0C007B1800226C
:104510005A601F4DA888431EAB802978FFF7E6FB41
:10452000A888431EAB802988090AFFF7DFFBA8880B
:10453000431EAB80A978FFF7D9FBA888431EAB8048
:104540006988090AFFF7D2FBA888431EAB80A979C6
:10455000FFF7CCFBA888431EAB80E979FFF7C6FBC9
:10456000A888431EAB80297AFFF7C0FBE05BFDF70C
:10457000F9FF0602E05B013080B2FDF7F3FF00B205
:10458000304328802B7A102213432B72F8BDC0468B
:10459000942F0120E809002010B50B4A138801333D
:1045A0009BB21380094A1288934200D010BD084A7A
:1045B000137840210B43DBB213701B07F6D5054877
:1045C000FFF780FFF2E7C046222B0120202B0120BD
:1045D0002C2B0120F4FF000010B50C4A1388013386
:1045E0009BB21380002B08D1094A138801339BB278
:1045F00013808022D200934200D010BD044B0022D1
:104600001A800448FFF75EFFF7E7C0461C2B012025
:104610001E2B0120FCFF0000F8B502F075FD040020
:104620000D00244B1B68002B07D0234B1A685B68D6
:10463000801A99410A1E27D123D0204B1A685B6843
:1046400020002900801A99410600002903D117D1C2
:104650001B498E4214D91A48002112184B411749A0
:104660000A604B60144B1A685B6820002900801AAE
:1046700099410A1E16D112D00E4A136801331360F5
:10468000F8BD104B9842D8D90B4B1C605D600E48AA
:10469000FFF718FF074A1368013B1360CDE7094B8A
:1046A0009842E9D9044B1C605D600748FFF70AFF98
:1046B000E6E7C046842A01200820012010200120BE
:1046C00040420F00400D0300FCFF000010B5002326
:1046D000FF2B04DC174A2021D1540133F8E7154A97
:1046E0000021D154144B1B68002B0FD0012B17D085
:1046F0001248FDF737FF04021148FDF733FF00B2FF
:104700002043104B1880F1221A7210BD0E4B10225C
:104710001A600E4B10321A600D4B0E4A1A60E7E712
:10472000094B14221A60094B3C321A60084B0A4AA2
:104730001A60DDE718300220580A0020FEFF000052
:10474000FFFF0000942F0120040A0020000A00202F
:10475000AC2F0120A0120120080A0020024B1A6889
:10476000024B1A757047C046142B012010300120EF
:10477000F8B5214C2088FDF7F5FE050020880130B2
:1047800080B2FDF7EFFE06002088023080B2FDF710
:10479000E9FE0300194A002111602188184A1160BE
:1047A000A900184A8F58320021002800B8472388F2
:1047B00001332380FFF7F0FEFFF7EEFEFFF7ECFE7C
:1047C000FFF7EAFEFFF7E8FEFFF7E6FEFFF7E4FE7D
:1047D000FFF7E2FEFFF7E0FEFFF7DEFEFFF7DCFE8D
:1047E000FFF7DAFEFFF7F8FEFCF79AFCFFF77CFE16
:1047F000FFF712FFF8BDC046942F012014300220AD
:104800001C3102205C0E002010B582B01D4A1368D6
:10481000013313601C4B9B69DB0614D51B4A1368DC
:10482000013313600FE0184B9B69DB06FBD4164B7A
:104830001B680B7001320131002AF4D06B4607333C
:104840001B78002B09D1104B9B6910210A001A40DC
:1048500019420DD16B46D91DEEE70D4C22680D496A
:104860008B54206801300C4904F08EFD2160EAE78A
:10487000054B9B69DB0603D4084A136801331360B8
:1048800002B010BDD829012000800340DC2901209E
:10489000E02901202859022088130000D429012092
:1048A000012070477047000010B50449044801F02A
:1048B00083FB002800D0012010BDC046F038011055
:1048C000046E022010B50449044801F075FB00286D
:1048D00000D0012010BDC04600390110046E022036
:1048E000F0B5C64600B594B0654B1B68002B10D1DF
:1048F000A1339846624B5F680023624A137005AA91
:10490000137001AB10223900404601F043FC3D001A
:1049100021E0A3239846EDE705AC2B0022005A497D
:104920000AA804F0D9FC0AA9564809F0B5FD0023ED
:10493000237001AB10222900404601F02BFC10E04F
:1049400005A809F01DFE05AB9C46604402224F49B4
:1049500005F080FD01353B007F33AB4225DB2B07A3
:10496000DAD0EB171B0FEA180F241440E41A01AE3B
:10497000325D47490AA804F0AFFC0AA9414809F092
:104980008BFD325D434B9B5C68218B43D8D06B46DB
:1049900040395B181A7000236A46013152181370AF
:1049A0000AA905A809F078FDD4E7364C200009F0E3
:1049B000E7FD20180322384905F04CFD05A9200029
:1049C00009F06AFD354B1A68354B1968354D2300DF
:1049D000280004F081FC280009F0D2FD0200324BCF
:1049E0001860324C3249200004F076FC002320008D
:1049F00015E06B46DA1C1470002108E02D4B9B6912
:104A00009B06FBD414782B4B1C600131013200292A
:104A1000F4D003780D3B5A425341DBB201300478A5
:104A2000002C29D0002BE4D1234B02229B5EA34211
:104A300004D06B46DA1C1470002116E06B46DA1CB9
:104A40000D231370002104E015781A4B1D6001310D
:104A500001320029EDD1174B9B699B06FBD4F3E78C
:104A60001478144B1C60013101320029D1D1114B53
:104A70009B699B06FBD4F3E714B004BC9046F0BDE1
:104A8000A8760220F03802201839011030390110C0
:104A900028390110715B0110703C01104425012080
:104AA000F0120120B4410220802A0120E07502208A
:104AB0003439011000800340D076022070B52248BE
:104AC000002102F059FA0221082001F0EFFB022137
:104AD000092001F0EBFBE1211C4D4902280001F007
:104AE000F5FC2A6BC0231B021A4080246401184B7A
:104AF00023431A60EA6A10263240164B23431A6099
:104B00001549152003F0B2F80121152003F096F89D
:104B1000AE636A6B38231340104A14432360104875
:104B200005F000FE05F0EEFD0220FBF785FC642099
:104B300002F04EFA0220FBF759FC0023094A1370D9
:104B4000094A136070BDC04640420F000080034018
:104B5000308003402C80034009480010348003401B
:104B600048390110046E0220D0290120F0B5CE464C
:104B7000474680B585B00500002301AA13703A4A64
:104B80001370C31D394AD356002B0ADB364C200064
:104B900009F0F6FC20180222354905F05BFC0524DB
:104BA0002EE0314C200009F0EBFC201802223149A4
:104BB00005F050FCF3E767192C4B9946DA5D1209B2
:104BC0002D4B9846190001A804F086FB264E01A93A
:104BD000300009F061FC300009F0D2FC30180222EC
:104BE000264905F037FC4B46DB5D0F221A40414653
:104BF00001A804F071FB01A9300009F04DFC013C53
:104C0000002C0DDB052CD6D06319184AD25C1C4948
:104C100001A804F061FB01A9134809F03DFCEEE78F
:104C2000114C200009F0ACFC20180322154905F0B6
:104C300011FC06350D4B5A57002A0EDB104901A80E
:104C400004F04AFB084C01A9200009F025FC2000D3
:104C500005B00CBC90469946F0BD52420A4901A8E5
:104C600004F03AFBEEE7C0468C41022010300120F0
:104C70002C390110603901106439011030390110EC
:104C80006C390110743901107839011030B593B0C6
:104C9000424B00221A70002414E02200404908A868
:104CA00004F01AFB3D4D08A9280009F0F5FBE000CF
:104CB0003C4B9C466044FFF759FF0100280009F077
:104CC000EBFB0134092CE8DD374B1A68374B1968C8
:104CD000374C384B0493384B039318001638029026
:104CE00018002C380190423B00932C4B200004F01C
:104CF000F3FA200009F044FC0300304A1060304A07
:104D00001268304C3049200004F0E6FA00232000FD
:104D100027E01F236B4419700022002A1BD12B4966
:104D200089698906FBD41C7828490C60013201335B
:104D3000F3E71F236B440D221A70002204E01D7854
:104D4000224C256001320133002A14D11F4CA46982
:104D5000A406FBD4F3E703780D3B5A425341DBB280
:104D600001300178002916D0002BD2D1184B022235
:104D70009B5E8B42DDD01F236B4419700022002AFA
:104D8000E9D1124989698906FBD41C780F490C6066
:104D900001320133F3E713B030BDC046F0380220D2
:104DA00080390110FF20000044250120EC12012071
:104DB000B4410220046E0220F22F0120802A01203B
:104DC00034250120E07502208C3901100080034059
:104DD000D076022070B505000024062C0ED8E30022
:104DE000074A9958280001F0E7F8002801D101345A
:104DF000F3E7E400024B1C196368984770BDC04696
:104E0000FC13012010B50248FFF7E4FF10BDC046B7
:104E10002031022070B505000024042C0ED8E300D8
:104E2000074A9958280001F0C7F8002801D1013439
:104E3000F3E7E400024B1C196368984770BDC04655
:104E4000C4120120F8B5070009F09AFB06000024FF
:104E5000B44210DA084B1D68681CC82104F094FAAB
:104E6000064B1B68994206D03A5D054B5A55024BDA
:104E700019600134ECE7F8BDF8240120FC2401207E
:104E8000C040022010B5064B1B68002B03D005481C
:104E9000FFF7C0FF10BD0348FFF7D4FFFAE7C04695
:104EA000C012012020310220F0B5C64600B50A4DDF
:104EB0000A4E81192B681C1A631C9846084F1A0069
:104EC000380005F0C7FA42463900300005F0C2FA52
:104ED0002C6004BC9046F0BDD0290120046E022055
:104EE0005851022070B51A4B18601A4B19601A4BB2
:104EF00000221A60194B01321A60194B1D68144BBD
:104F00001A68002A12DD164B196800290EDD1248B6
:104F10000368144CE65C144CE65401330360013919
:104F20000F4B1960013A0A4B1A60E8E70C4B1D6001
:104F3000094B1868FFF7B8FF054B1B68002B05D11C
:104F4000064B00221A60034B1B68984770BDC04691
:104F500000250120006E0220545102200825012066
:104F6000D0290120046E02202031022010B5044B0C
:104F70001868FFF799FF034B01221A6010BDC04665
:104F8000102A0120182A012010B5084B1B68002B9D
:104F900007D0074B1868FFF787FF044B00221A6001
:104FA00010BD034B1868FFF77FFFF9E7182A0120AF
:104FB000102A012010B550210220FCF735F90849CC
:104FC000084800F0F9FF002800D110BD064B186812
:104FD000FFF76AFF054B58680549FFF783FFF4E7C1
:104FE000F0380110046E0220102A0120A876022059
:104FF000054E001010B504006E210120FCF714F9D5
:105000002401094804196168084800F0D5FF002808
:1050100000D110BD064B1868FFF746FF054B1A6814
:10502000054B1A60F5E7C0466C410110046E022082
:10503000102A0120A87602203425012010B5040092
:1050400069210120FCF7F0F8240107480419616880
:10505000064800F0B1FF002800D110BD044B1868CD
:10506000FFF722FFF9E7C0466C410110046E0220F1
:10507000102A012010B563210120FCF7D5F806495C
:10508000064800F099FF002800D110BD044B1868B5
:10509000FFF70AFFF9E7C046A0390110046E0220AD
:1050A000102A012010B563210120FCF7BDF8064944
:1050B000064800F081FF002800D110BD044B18689D
:1050C000FFF7F2FEF9E7C046B0390110046E022086
:1050D000102A012010B550210220FCF7A5F808493C
:1050E000084800F069FF002800D110BD064B186881
:1050F000FFF7DAFE054B18680549FFF7F3FEF4E702
:10510000BC390110046E0220102A0120A87602206A
:10511000854E001030B583B0294809F031FA0200FD
:10512000284B1860284C2949200004F0D5F80023AA
:10513000200034E06B4607331A70002204E01C782C
:1051400023490C6001320133002A22D120498969A8
:105150008906FBD4F3E76B4607330D211970002154
:1051600004E01D781A4C256001310133002920D15B
:10517000174CA469A406FBD4F3E71C7814490C600F
:1051800001320133002A04D1114989698906FBD40F
:10519000F3E703780D3B5A425341DBB2013002780A
:1051A000002A0BD0002BC5D10A4B02215B5E934233
:1051B000D1D06B4607331A700022E3E703B030BD4D
:1051C000B4410220802A0120E0750220CC39011070
:1051D00000800340D076022010B51C220349044809
:1051E00005F038F9FFF796FF10BDC046E039011011
:1051F000B441022010B5064A5368126805498B5421
:105200000549064804F068F8FFF784FF10BDC04662
:10521000A876022010300120FC390110B441022090
:10522000F0B5C64600B594B03F4B1B68002B10D1BB
:10523000A13398463C4B5F6800233C4A137005AA93
:10524000137001AB10223900404600F0A3FF3D006F
:1052500021E0A3239846EDE705AC2B00220034495A
:105260000AA804F039F80AA9304809F015F9002312
:10527000237001AB10222900404600F08BFF10E0A4
:1052800005A809F07DF905AB9C4660440222294936
:1052900005F0E0F801353B007F33AB4225DB2B07FF
:1052A000DAD0EB171B0FEA180F241440E41A01AEF2
:1052B000325D21490AA804F00FF80AA91B4809F039
:1052C000EBF8325D1D4B9B5C68218B43D8D06B465D
:1052D00040395B181A7000236A4601315218137066
:1052E0000AA905A809F0D8F8D4E7104C200009F065
:1052F00047F920180322124905F0ACF805A920004F
:1053000009F0CAF8200009F03BF9201803220D49E2
:1053100005F0A0F821000C4809F02AF9FFF7FAFE81
:1053200014B004BC9046F0BDA8760220F0380220EC
:10533000103A01103039011028390110715B011049
:10534000703C0110343C0110B441022030B583B0F0
:10535000294809F015F90200284B1860284C294902
:10536000200003F0B9FF0023200034E06B46073330
:105370001A70002204E01C7823490C6001320133CA
:10538000002A22D1204989698906FBD4F3E76B46BC
:1053900007330D211970002104E01D781A4C256097
:1053A00001310133002920D1174CA469A406FBD494
:1053B000F3E71C7814490C6001320133002A04D150
:1053C000114989698906FBD4F3E703780D3B5A42FA
:1053D0005341DBB201300278002A0BD0002BC5D13B
:1053E0000A4B02215B5E9342D1D06B4607331A70A1
:1053F0000022E3E703B030BDB4410220802A01203F
:10540000E07502203439011000800340D07602207C
:1054100000B583B0094A53681068094A1354094A11
:1054200012680949096801900093084B084803F085
:1054300053FFFFF78BFF03B000BDC046A8760220E4
:105440001030012044250120F41201201C3A0110E3
:10545000B441022010B584B00F4B03AA99681170B3
:105460001B68002B16D1A1200B4C03AB01226168F5
:1054700000F0A9FE094B1A68094B1968636801938B
:10548000A3680093074B084803F026FFFFF75EFF71
:1054900004B010BDA320E7E7A87602204425012030
:1054A000F4120120243A0110B4410220F0B593B067
:1054B00006000F0000232D4A137003AA1370040086
:1054C00019E003AD00943B002A00294908A803F025
:1054D00003FF08A9254808F0DFFF00232B7010E028
:1054E00003A809F04DF803AB9C4660440222214911
:1054F00004F0B0FF013433007F33A3421FDB2307E6
:10550000DFD01D4D2A5D1D4908A803F0E5FE08A95E
:10551000164808F0C1FF2A5D194B9B5C68218B433C
:10552000DED06B4648395B181A7000236A46013199
:105530005218137008A903A808F0AEFFDAE70B4C65
:10554000200009F01DF8201803220E4904F082FF04
:1055500003A9200008F0A0FF200009F011F820188E
:105560000322094904F076FF13B0F0BDF0380220A1
:105570002C3A011030390110103001202839011067
:10558000715B0110703C0110343C011010B50749EB
:105590000020FFF78BFF064B1A68064B1968064B75
:1055A000064803F099FEFFF7D1FE10BD383A01100E
:1055B00044250120F0120120F0380220B4410220DD
:1055C00010B5084B18680849FFF770FF074B1A68B9
:1055D000074B1968074B084803F07EFEFFF7B6FE3D
:1055E00010BDC046A8760220383A0110442501209B
:1055F000F0120120F0380220B441022010B5064B11
:1056000018680649FFF752FF0549064803F064FE93
:10561000FFF780FD10BDC046A8760220343C011083
:10562000F0380220B44102200E4B0F4A1168196075
:105630009188998092799A71002200E0013253009A
:105640000A495B5CFF2B0AD00949097A0B42F5D065
:105650005100064B5B185978024B9954EEE701480C
:105660007047C046F8120120403A0110D8090020C6
:10567000942F012070B53F4B1B78002B2ED13E4B51
:105680001B789B003D4A9A583D4C3E49200003F050
:1056900023FE3D4D2100280008F06AFF04223B490B
:1056A000200004F0D7FE2100280008F0F5FE0024B9
:1056B000374B1B68A34213DD364B1868001980B2C4
:1056C000FCF750FF02002E4D3349280003F004FE82
:1056D00029002D4808F0E0FE0134E9E7254AD3E728
:1056E0002E4D2A88264C2E49200003F0F5FD264E2B
:1056F0002100300008F0D0FEAA882A49200003F0DB
:10570000EBFD2100300008F0C7FEAA7926492000F1
:1057100003F0E2FD2100300008F0BEFEEA792349E3
:10572000200003F0D9FD2100300008F0B5FEAA7971
:10573000EB791F49200003F0CFFD2100300008F075
:10574000ABFE6A881B49200003F0C6FD2100300033
:1057500008F0A2FE2D7AFFF767FF03002A00164922
:10576000200003F0B9FD2100300008F095FEFFF79E
:10577000D1FC70BD1C2A0120103002205C0A0020E0
:10578000F0380220483A0110B44102204C3A01108E
:10579000143002201C310220503A0110942F0120B5
:1057A000583A0110643A0110703A01107C3A011025
:1057B000883A0110983A0110A43A011070B505001A
:1057C000002400E001341E2C16D8E3000B4A9B5C39
:1057D000032BF7D1E200094B9B185868290008F009
:1057E00083FE0028EED1064B1C60064B01221A6096
:1057F000054A13680133136070BDC04604130120CD
:105800000C2B0120102B0120E82A012010B5074B9A
:1058100001221A6053210020FBF706FD0448FFF720
:10582000CDFF044B1868FFF73FFB10BDC82A0120CD
:10583000B83A0110102A012010B5040043210120BC
:10584000FBF7F2FC2401084804196168074800F0DE
:10585000B3FB002800D110BD054B1868FFF724FBEF
:105860000448FFF7ABFFF6E76C410110046E02201D
:10587000102A0120C03A011010B504007221012045
:10588000FBF7D2FC2401084804196168074800F0BE
:1058900093FB002800D110BD054B1868FFF704FBEF
:1058A0000448FFF78BFFF6E76C410110046E0220FD
:1058B000102A0120C83A011070B582B0002301936C
:1058C000BC4B1B68BC4A106883420BD0BB4B5A7C54
:1058D0005B7C5BB2002B05DBB94B1B7ADB0601D48A
:1058E000D30617D4B74B1A6801321A6018686421BE
:1058F00003F04AFD002931D1B34B1B68002B19D0AE
:1059000057310320FBF790FCAF4A136859424B41D3
:10591000136023E0AD4B1A5CA84B9A740130C82188
:1059200003F032FDA44B1960FBF728FCA848FEF7F2
:10593000C9FDD7E720210320FBF776FCE4E7A54A61
:10594000136859424B41136002B070BD6946A248CA
:1059500008F0A2FDA14A136801331360A04B1A6836
:10596000A04B1B689A4215D020236A4613809C4D99
:105970002B685A1C2A609C4AD45CE4B26B461C70AB
:1059800028689A4903F000FD2960142CD7D0002C18
:10599000E4D0DBE7964B1C68002C23D00EE08E4B46
:1059A0001C780120FFF780FA924A1368591C116095
:1059B000914AD454914A1368013B13608F4B1B6882
:1059C000002B03DD854A1268002AE8DC002BBBD1DE
:1059D000874B00221A608A4B1B689847B4E7012066
:1059E000FFF762FA7C4B1B78864AD35C1B07F6D420
:1059F0000FE02201844B9B185968774800F0DCFACD
:105A0000002805D02201804B9B18DB6820009847B6
:105A10000134212C15D823017B4A9B5C012BE8D053
:105A2000022BF5D12201784B9B189B6820009847E8
:105A30000028EDD02201744B9B18DB6820009847AA
:105A4000E6E7724B1B68002B00D17DE7704B1B68AB
:105A5000002B37D16F4B1A68D1006F4BCB5C042BF6
:105A600000D116E13ED8012B41D0022B1ED1D2002D
:105A7000694B9A185068694E01AA310008F06CFC15
:105A8000634B01221A6001F03FFB019A53019B1AFC
:105A90009B009B18DB001C00DD1700196941604B5F
:105AA0001860596031005F4803F016FC594B1B68C1
:105AB000D900594A8A5C042A00D145E70133554A86
:105AC000136041E701F020FB554B1A685B688B427D
:105AD00000D939E702D1824200D935E74C4B002288
