:020000041000EA
:1000000000B5324B212058609868022188439860DF
:10001000D860186158612E4B002199600221596106
:100020000121F02299502B49196001219960352056
:1000300000F044F80222904214D00621196600F024
:1000400034F8196E01211966002018661A6600F04E
:100050002CF8196E196E196E052000F02FF8012189
:100060000842F9D1002199601B49196000215960AB
:100070001A491B48016001219960EB211966A021F2
:10008000196600F012F800219960164914480160C1
:100090000121996001BC002800D000471248134993
:1000A000086003C880F30888084703B5996A0420EC
:1000B0000142FBD001200142F8D103BD02B5186610
:1000C0001866FFF7F2FF186E186E02BD00000240BE
:1000D000000000180000070000035F00212200005C
:1000E000F4000018222000A00001001008ED00E03C
:1000F00000000000000000000000000074B24E7A12
:1001000000200420F7010010C3010010C5010010F9
:10011000C1010010C1010010C1010010C101001097
:10012000C1010010C1010010C1010010C701001081
:10013000C1010010C1010010C9010010CB01001065
:10014000CD010010CD010010CD010010CD01001037
:10015000CD010010CD010010CD010010CD01001027
:10016000CD010010CD010010CD010010CD01001017
:10017000CD010010CD010010CD010010CD01001007
:10018000CD010010CD010010CD010010CD010010F7
:10019000CD010010CD010010CD010010CD010010E7
:1001A000CD010010CD010010CD010010CD010010D7
:1001B000CD010010CD010010CD010010CD010010C7
:1001C00000BE00BE00BE00BE00BE00BE00F04BF888
:1001D000103800BEF2EB88713C52011064520110DD
:1001E0003402001090A31AE700202149086006C8D5
:1001F00081F3088810471F48006800282FD10DA4FC
:100200000ECC002902D000F012F8F9E71A491B4A77
:10021000002000E001C19142FCD1194988471949E9
:1002200088471949884700BEFDE701C901C29A42C3
:10023000FBD3704764520110C0000020F01A012067
:10024000946C02100000042000000420946C021042
:1002500000100420001004200000000070470B482C
:1002600008F090FA0047EFF30580C0B27047000035
:1002700008ED00E0000000D0F01A01205C6C0220C4
:10028000256C001091040010396D001057560000C5
:1002900006005250ABB36053783D01100600525037
:1002A000861C0302883D0110060052505422A29D74
:1002B000983D011005005250DE65F468946C021000
:1002C000F8B5C0460448054B10B5834203D0044B33
:1002D000002B00D0984710BDF01A0120F01A012021
:1002E0000000000006480749091A8B10C90FC918F9
:1002F00010B5491003D0044B002B00D0984710BD17
:10030000F01A0120F01A01200000000010B5074C7F
:100310002378002B09D1FFF7D5FF054B002B02D026
:10032000044800E000BF0123237010BD001C012021
:100330000000000030290110054B10B5002B03D040
:100340000449054800E000BFFFF7CCFF10BDC046E0
:1003500000000000041C01203029011010B500F03D
:10036000DDFE04F083FF04F089FDF8E701238340FC
:10037000D02212069361936153610022002000E0B5
:100380000132072A0EDCD0231B0680214903996124
:1003900059614000C0B25B689B02F1D5012318434C
:1003A000C0B2EDE7704730B501258540D0231B066C
:1003B0009D6100230BE0D02000068024E4018461CD
:1003C0004900D02000068024E404446101339342B4
:1003D00010DAD02000068024E4048461501E0C0052
:1003E00004412000C007E6D5D02000068024E401A7
:1003F0004461E5E7D0231B065D6130BD10B582B0D6
:1004000001000F4B18880F4B98420DD0014389B261
:100410000B4C218010220F20FFF7C5FF2288094BCB
:100420009A4207D002B010BD00230093009B002B1E
:10043000FCD1EBE700230193019B002BFCD1F1E7FA
:10044000782601200920000010B582B00E4B98429A
:100450000DD00E4C21888143218010220F20FFF700
:10046000A2FF2288084B9A4207D002B010BD002399
:100470000093009B002BFCD1EBE700230193019B31
:10048000002BFCD1F1E7C0460920000078260120AE
:1004900010B51B2005F066F9D024240680231B0527
:1004A000636263610D2005F05DF90E2005F05AF9D5
:1004B0000F2005F057F9162005F054F9152005F026
:1004C00051F91A2005F04EF9132005F04BF91420CC
:1004D00005F048F9122005F045F9002005F042F931
:1004E000012005F03FF9022005F03CF9032005F05A
:1004F00039F9042005F036F9052005F033F9062016
:1005000005F030F9072005F02DF901220021002027
:1005100005F00EF901220021012005F009F9012260
:100520000021022005F004F901220021032005F03A
:10053000FFF801220021042005F0FAF80122002131
:10054000052005F0F5F801220021062005F0F0F85D
:1005500001220021072005F0EBF80A2005F002F93E
:100560000B2005F0FFF80C2005F0FCF8112005F039
:10057000F9F8102005F0F6F800220121102005F00E
:10058000D7F800220121112005F0D2F88023DB01E9
:10059000636280229201A262636280231B02636213
:1005A0008023DB03636280239B03A3628023DB043D
:1005B000636280231B03636280235B036362802288
:1005C000D20262628022D2006262802212016262E2
:1005D00080225201626263610120FFF70FFF0A204F
:1005E00005F020FF00F062F800F02CF909F000FBA4
:1005F00003F02AFF04F024F802480CF0E9F903F0B4
:100600006BFFFCE75D03001082B0030001906420E3
:100610005843002801D00138FBE702B0704700B50D
:1006200083B080236A461371793B034050204042D7
:100630001843507101AA0221782004F03AFF03B058
:1006400000BD10B582B001AA8021117003091024E9
:100650002343537091700F231840D0707C39782059
:1006600004F027FF02B010BD10B5054B1A887F219A
:1006700011401980034B18680822FFF794FE10BD43
:100680007A2601203C29011010B5064B19888022DA
:10069000114389B21980044B18680822FFF783FEC2
:1006A00010BDC0467A2601203C29011010B5FFF785
:1006B000EBFFFA24E4002000FFF7A6FFFFF7D4FFCA
:1006C0002000FFF7A1FFFFF7DFFF2000FFF79CFFEF
:1006D00004F054FE782004F069FE802004F066FEE9
:1006E000AE2004F063FE802004F060FED52004F00C
:1006F0005DFE802004F05AFEA02004F057FE80200A
:1007000004F054FEA82004F051FE802004F04EFEB8
:100710001F2004F04BFE802004F048FED32004F09C
:1007200045FE802004F042FE002004F03FFE8020C1
:1007300004F03CFEAD2004F039FE802004F036FECB
:100740008E2004F033FE802004F030FED82004F028
:100750002DFE802004F02AFE052004F027FE8020D4
:1007600004F024FEA12004F021FE802004F01EFEEF
:10077000C82004F01BFE802004F018FEDA2004F0EC
:1007800015FE802004F012FE122004F00FFE8020DF
:1007900004F00CFE912004F009FE802004F006FE17
:1007A0003F2004F003FE802004F000FE3F2004F010
:1007B000FDFD802004F0FAFD3F2004F0F7FD8020CD
:1007C00004F0F4FD3F2004F0F1FD802004F0EEFD84
:1007D000812004F0EBFD802004F0E8FD184B187830
:1007E00004F0E4FD802004F0E1FDD92004F0DEFDFA
:1007F000802004F0DBFDD22004F0D8FD802004F03E
:10080000D5FDDB2004F0D2FD802004F0CFFD3420A4
:1008100004F0CCFD802004F0C9FDA62004F0C6FD44
:10082000802004F0C3FDA42004F0C0FD802004F06B
:10083000BDFDAF2004F0BAFD04F0AAFD10BDC04616
:10084000C804002070B5002503E004F0A1FD0135C7
:10085000EDB2032D16D82800FFF7E1FE0020FFF7C8
:10086000F0FE04F08BFD782004F0A0FD402004F0A1
:100870009DFD0024832CE8D8002004F097FD01346E
:10088000E4B2F7E770BD02000021002005E040005F
:10089000012313401843521001310729F7DD704737
:1008A00070B515008400041B64007F340320401AD7
:1008B000C0B2FFF7B4FEE0B2FFF7C3FE04F05EFD86
:1008C000782004F073FD402004F070FD0024042C17
:1008D0000DDCAB005B190421091B5B18074AD05CD7
:1008E000FFF7D1FFC0B204F061FD0134EFE7002053
:1008F00004F05CFD04F04CFD70BDC046CC0400204B
:100900007047704770470000024BDA7959885218D7
:100910005A807047F42A0120054B588899790902BA
:10092000DA790A435A80020A9A71D8717047C04630
:10093000F42A0120024A5388013B93807047C04645
:10094000F42A0120024A9388013353807047C0463D
:10095000F42A01200F4A9379D371127A02218A4333
:10096000002B0CD104210A430A490A725BB2002B06
:100970000ADB084A137A08218B431372704704215B
:100980008A4304490A72F1E7024A137A08210B43A9
:100990001372F3E7F42A01200F4AD3799371127A84
:1009A00002218A43002B0CD104210A430A490A720E
:1009B0005BB2002B0ADB084A137A08218B431372BF
:1009C000704704218A4304490A72F1E7024A137A04
:1009D00008210B431372F3E7F42A0120054A137A26
:1009E0003F218B431900062010563F2303400B4341
:1009F00013727047F42A0120014B1A7A9A717047DA
:100A0000F42A0120024A137A01218B4313727047A2
:100A1000F42A0120024A137A01210B431372704712
:100A2000F42A0120024A137A10210B4313727047F3
:100A3000F42A0120024A137A10218B431372704763
:100A4000F42A0120092802D0342812D070470B4A1A
:100A50005388013B9BB25380002B04D1137A0421AD
:100A60000B431372F2E7054A137A04218B43137286
:100A7000ECE7024A9388013B9380E7E7F42A0120E0
:100A8000082802D0312812D070470B4A538801330E
:100A90009BB25380002B04D1137A04210B431372B1
:100AA000F2E7054A137A04218B431372ECE7024AFA
:100AB000938801339380E7E7F42A012053B2002B97
:100AC00009DB12B22038C3B20F2B00D989E098009D
:100AD000594B1B589F46013AFF3AF3E757490B8899
:100AE0009A1801320A8080E0544B1B7A0521194282
:100AF00000D076E051490B889A1801320A8074E0E0
:100B00004E4B1B7A052119426BD04C490B889A1821
:100B100001320A8069E0494B1B7ADB0761D44749FF
:100B20000B889A1801320A805FE0444B1B7ADB077E
:100B300057D542490B889A1801320A8055E03F4B3D
:100B40001B7A5B074DD43D490B889A1801320A8005
:100B50004BE03A4B1B7A5B0743D538490B889A1810
:100B600001320A8041E0354B1B7A9B0739D4334967
:100B70000B889A1801320A8037E0304B1B7A9B07AA
:100B80002FD52E490B889A1801320A802DE02B4B65
:100B90001B7A1B0725D429490B889A1801320A8031
:100BA00023E0264B1B7A1B071BD524490B889A1878
:100BB00001320A8019E0214B197A0A230B400A2BD3
:100BC00001D0002B0DD11D490B889A1801320A80E3
:100BD0000BE01A4B197A0A230B40022B06D0082B84
:100BE00004D0164A138801331380704713490B88C9
:100BF0009A1801320A80F8E7104B1B7A5907F0D493
:100C00000A210B400A2B01D0002BEAD10B490B889B
:100C10009A1801320A80E8E7084B1B7A590705D475
:100C20000A210B40082B01D0022BDAD103490B8893
:100C30009A1801320A80D8E748290110F42A0120C5
:100C400010B5224B9A790F201040197A8B0628D5BF
:100C5000931D092800D90633C80700D560339F2BA0
:100C600000DD6033992B03DD012001431748017239
:100C7000190618D51548017A082421430172002B62
:100C800017D11248017A0424214301725A401206F6
:100C900015D50E490A7A022002430A720B4A937153
:100CA00010BD1300D5E70948017A0824A143017259
:100CB000E5E70648017A0424A1430172E6E7034907
:100CC0000A7A022082430A72E8E7C046F42A012029
:100CD000094A9179D3794B43190A9171D3711B0653
:100CE00004D5137A01210B4313727047024A137A19
:100CF00001218B431372F8E7F42A012030B52C4B05
:100D0000D9799A79531ADBB252B2002A28DB002A29
:100D100002DB48B200282FDB254C207A0225A843AD
:100D20002072002B2CD1224C207A042528432072DB
:100D30005BB2002B2ADB1E4C207A0825A8432072C8
:100D4000002A02DB48B200282BDB49B2002923DB52
:100D5000002B24DB164A137A01218B43137225E002
:100D600048B20028D3DB58B20028D0DB104C207AE0
:100D7000022528432072D4E758B20028CCDAF5E7E0
:100D80000B4C207A0425A8432072D1E7084C207A26
:100D9000082528432072D3E7002BD9DA01E0002A86
:100DA000D8DB034A137A01210B43137230BDC046CE
:100DB000F42A012030B52C48C1798279531ADBB26C
:100DC000837152B2002A28DB002A02DB48B20028D5
:100DD0002FDB254C207A0225A8432072002B2CD132
:100DE000214C207A0425284320725BB2002B2ADB99
:100DF0001D4C207A0825A8432072002A02DB48B245
:100E000000282BDB49B2002923DB002B24DB164A08
:100E1000137A01218B43137225E048B20028D3DBFB
:100E200058B20028D0DB104C207A022528432072CB
:100E3000D4E758B20028CCDAF5E70B4C207A042529
:100E4000A8432072D1E7084C207A08252843207255
:100E5000D3E7002BD9DA01E0002AD8DB024A137A63
:100E600001210B43137230BDF42A012010B51B4A37
:100E700093791B02D2791343D2071DD517490A7AF9
:100E8000012002430A725808144A127AD10719D570
:100E900002210A4311490A72002818D10F490A7A1F
:100EA000042422430A720D4A117A0824A1431172C4
:100EB0005B0A9371D07110BD08490A7A0120824300
:100EC0000A72E0E702218A4304490A72E4E703490F
:100ED0000A7A0424A2430A72E5E7C046F42A0120F4
:100EE00022498A791202CB7913431AB2002A22DBF3
:100EF0001E490A7A012082430A725B009BB2002BD2
:100F00001ED11A490A7A042002430A721AB2002A30
:100F10001CDB16490A7A082082430A72134A127AA5
:100F200009211140082917D0012915D002218A432F
:100F30000E490A7214E00A7A012002430A72DCE7C1
:100F40000A490A7A042082430A72DFE707490A7ACB
:100F5000082002430A72E1E702210A4303490A72A8
:100F6000024A190A9171D3717047C046F42A0120D0
:100F70006E2807D07E2804D112021A43013A054B8D
:100F80001A807047034B5988521892B2013A1A805E
:100F9000F7E7C046F42A0120E8239B0098420ED0D0
:100FA0004033984213D0803B984200D07047104B9A
:100FB0008022D2011A600F4B00221A60F6E70C4A19
:100FC00013688021C9018C4663441360EEE7094B26
:100FD0001B68002B04D1074B802212021A60E5E740
:100FE0008022D20194466344024A1360DEE7C04681
:100FF000740E00201426012010B51E4A1368013318
:101000001360C0239B00984207D04033984215D00C
:10101000813BFF3B984225D010BD174B00221A7030
:10102000164B1A88802111407F22114389B2198002
:10103000134B18680822FFF7B6F9EDE70E4A13784C
:101040000133DBB213700D48028880210A407F21F2
:101050005940C9B211430180094B18680822FFF7B3
:10106000A2F9D9E7074B1A6801239340D022120650
:101070009361D1E7282601208B2601207A260120C2
:101080003C29011044290110094B1A6801321A60E9
:101090001A68084B9A420ADD054B00221A60064A7C
:1010A000136859424B411360044B01221A60704788
:1010B000142101209F860100182101201C210120FC
:1010C000C0235B00984204D08223FF33984205D0AE
:1010D0007047034B1B687F201840F9E70020F7E7B3
:1010E000B425012070B50022042A0DDC83001B18F2
:1010F0009B18064DEE5C8B005B189B1880246442A5
:101100003443EC540132EFE770BDC046CC040020FC
:10111000014B19547047C046082B0120F0B583B02D
:10112000524953480CF00AFC002804D1514B1B686B
:10113000002B00D188E04F4B00221A6000255FE0B1
:101140004D4B1B68002B69D04C4B1B68002B10D0FB
:101150004B4B1B68002B03D0019780277F005DE07D
:101160000224FF3421003800FFF7BCFF019727005D
:1011700054E0434B1B68002B08D00224FF342100AD
:101180003800FFF7AFFF0197270047E00224FF3444
:1011900021003800FFF7A6FF019727003EE0394BFA
:1011A0001A5D21001420FFF77BFB0134032CF6DDD0
:1011B0007B1EFF3B012B08D97B1C334A9918D35C5B
:1011C0006822934303D0FAB202E0019FF4E72022A1
:1011D0002E4B5A550B786822934301D0FFB200E0A2
:1011E00020271421280007F0F9FA04001421280010
:1011F00007F0F4FA162044432548001947540135F6
:10120000244B1B68AB421BDB03F038FE224B5B5DBB
:10121000164AD75C214A1268934291D0204B1E682F
:101220003100280007F0DAFA04003100280007F046
:10123000D5FA08003A002100FFF732FB0024B5E799
:101240000A490B480CF0BEFB002306E01621594367
:101250000F4A5218002151750133032BF6DD0D4B57
:101260001B680A4A0021D15403B0F0BD702B022044
:10127000902601201C210120C025012018210120D9
:10128000BC250120082B0120A8460110942701202D
:101290000C2B0120D8090020E0090020B4250120F2
:1012A000DC090020F0B5C64600B5C0235B009842BB
:1012B00006D08223FF3398425BD004BC9046F0BD39
:1012C0004BB2002B14DB0B00403BDBB23F2B1AD997
:1012D000072923D8042942D201293ED00029ECD085
:1012E0000239C9B20129E8D8514B00221A60E4E75B
:1012F0007F2319404E4B19604E4B01221A604E4B12
:1013000000221A60D9E73F231940494B1960494B25
:1013100000221A60484B01321A60CEE70B00083BEE
:10132000DBB2072BC9D88A1001231A404348026058
:101330004A101340424A136001231940414B19607F
:10134000BBE7414A2021D1540133404A12689A42F6
:10135000F7DA374B00221A60AFE70023F5E74A10AF
:10136000012313403A4A136001231940394B196095
:10137000A3E7394B01221A602E4B1B68002B10D0BB
:101380002B4B1B68304AD154314A1268002A18D0BE
:1013900001229B18264A1360FF2B02DD1300FF2257
:1013A0001A60254B1B68002B00D186E7204B1D6877
:1013B000EB175B0FEA1807261640F31A9C46002429
:1013C00003E001225242E4E70134042C1EDCEA1758
:1013D000072313405B19DB109A00D3181B19012255
:1013E000904610006246904040B21C4FFA5C824327
:1013F00052B2FA5404273F1B0E003E4137004646C6
:101400003E42E1D002431548C254DDE7104B1B6851
:10141000002B09D00123ED18054B1D60502D00DC79
:101420004BE750221A6048E701235B42F3E7C046CE
:10143000B4250120CC250120C82501208C210120C4
:10144000C0250120BC250120702B0220D8090020D6
:10145000B8250120C42501201C210120CC04002036
:1014600003B2002B0DDB0F4B0122DA6018828023C0
:10147000DB01984202D30C4B1B68C0180B4BC01801
:101480007047C0231B02984205D9094B9C46604413
:10149000084BC018F4E7064B9C466044064B1B689B
:1014A000C018F5E7F42A0120740E00206C2B0120EF
:1014B0000080FFFF780E00201426012010B50023C5
:1014C000002000E00133072B0EDC40089A000E4993
:1014D0005158D02212065268CA40D207F2D5802253
:1014E00052421043C0B2EDE7084B1B6896225200EF
:1014F000934208DA064A5900E2248C54521850707C
:101500000133024A136010BD340E00205026012022
:101510009828012010B5144B1B6896225200934264
:1015200008DA124A590012248C54521850700133B0
:101530000D4A1360002309E09A000D495158012219
:101540008A40D02109068A6140080133072B0ADC52
:10155000C207F1D59A000649515801228A40D0218C
:1015600009064A61F0E710BD5026012098280120A5
:10157000340E002030B583B000230193019C002C71
:10158000FCD1204B1B6896225200934208DA1E4A77
:101590005900D2258D54521850700133194A1360E6
:1015A0000323184003281FD1184B1A6801239340C6
:1015B000D022120653617D30FEF746FF08E0A200FC
:1015C000134BD25801239340D022120653620134A8
:1015D000072CF4DD14E0A2000D4BD25801239340F8
:1015E000D022120693620134072CF4DD074B1A68EF
:1015F00001239340D022120693618020FEF724FF3E
:1016000003B030BD50260120982801204029011048
:10161000340E0020014B18787047C0468A260120FE
:1016200070B50500354B1870354B1B68962252007B
:10163000934208DA334A59001620885452185570DC
:1016400001332F4A1360002441E0EB0703D4082044
:10165000FEF7D4FE39E00820FEF7F6FE35E0EB0792
:1016600004D580200001FEF7C9FE2EE08020000195
:10167000FEF7EAFE29E0EB0704D580204001FEF7E3
:10168000BDFE22E080204001FEF7DEFE1DE0EB07FC
:1016900004D580208001FEF7B1FE16E08020800195
:1016A000FEF7D2FE11E0EB0703D51020FEF7A6FEF1
:1016B0000BE01020FEF7C8FE07E0EA0715D501226F
:1016C0009A401300D022120653616D080134072C92
:1016D00012DCA3000C4A9B58632BEED9643B042B0D
:1016E000F3D89B00094AD3589F4601229A40130021
:1016F000D02212069361E8E770BDC0468A26012019
:101700005026012098280120540E0020882901101D
:1017100030B583B0040000230193019B002BFCD162
:10172000254A1268962149008A4208DA2349500066
:10173000D625455409184C7001321F490A60002C07
:1017400013D14020FEF75AFE80200001FEF756FE1E
:1017500080204001FEF752FE80208001FEF74EFE01
:101760001020FEF74BFE18E00133072B0BDC9A002C
:1017700013495258632AF7D8012191400A00D02119
:1017800009064A62F0E74020FEF75EFE0D4B18782E
:10179000FFF746FF03B030BD0134072CFADCA3008D
:1017A000074A9B58632BF7D801229A401300D02296
:1017B00012069362F0E7C0465026012098280120C7
:1017C000540E00208A26012010B50200172809D8DF
:1017D000032830D3C31E99B214292CD88B00414959
:1017E000CB589F46C0239B00984234D00FD9D823B2
:1017F0009B00984207D02BD9E8239B00984202D047
:101800004033984217D1FFF7C7FB002029E07F3B08
:10181000FF3B98420CD3E0235B0098420BD1324B44
:101820001A6801239340D02212069361002018E029
:10183000023B984224D203B2002B42DB8023DB011F
:10184000984202D3294B1A688218294B985C08E009
:10185000203B9842EFD1FFF7CFFB002001E0254B62
:10186000187810BD244B1888000AFAE7224B187824
:10187000F7E7224B1888000AF3E7204B1878F0E7C7
:10188000FFF71EFCEDE71E4B1868FEF76FFD7F2388
:101890005840C0B20123984303007F2018401449E8
:1018A0004875D0231B065A68520B01231340DB01F5
:1018B00018434875D5E7FFF701FED2E7FFF7AAFE08
:1018C000CFE7C0231B02984205D90E4B9C466044CB
:1018D0000D4B185CC5E70B4B9C4660440B4B1B68DB
:1018E000C018F5E79C29011044290110740E00204E
:1018F0006C2B01208C2601208226012080260120CD
:10190000382901100080FFFF780E002014260120E6
:1019100010B56D282FD01FD84D2837D05D2800D1A5
:101920003149324A137A02208343013883431372C8
:10193000D268002A2CD10A78002A4AD10422134303
:101940002A4A13720023CB56002B47DB274A137A0F
:1019500008218B43137210BD7D28E2D11202D218E8
:1019600090B2FFF77DFD0100204A138801339BB23E
:1019700001331380D5E71D4C6088801880B2FFF7D3
:101980006FFD0100238801332380CAE71849C8E7A7
:10199000164C208AFFF718FF0023E36000280CD1C3
:1019A000124A137A04210B43137203060BD40F4A15
:1019B000137A08218B431372CDE70C4A137A042162
:1019C0008B431372F1E7094A137A08210B43137210
:1019D000C1E704229343054A1372B3E7034A137A1B
:1019E00008210B431372B6E7FB2A0120F42A0120D9
:1019F000FA2A012010B50400172808D803B2002BDA
:101A00002CD017282AD88300364AD3589F46C023A3
:101A10009B0098422FD00ED9D8239B00984207D024
:101A200026D9E8239B00984202D04033984215D132
:101A3000FFF7B2FA24E07F3BFF3B98420BD3E02351
:101A40005B0098420AD1284B1A6801239340D022A8
:101A50001206936114E0023B984230D28023DB01EE
:101A6000984202D3214B1C680419214B195507E0F9
:101A7000203B9842F2D1FFF7BFFA01E01D4B1970ED
:101A800010BD1D4A1088FF2303400902194311802D
:101A9000F6E7194B1888FF22904301431980EFE7BE
:101AA000164A1088FF230340090219431180E7E713
:101AB000124B1888FF22904301431980E0E7FFF79B
:101AC000F1FBDDE70800FFF725FDD9E70800FFF788
:101AD00051FDD5E70800FFF7A3FDD1E70800FFF7A8
:101AE00017FECDE7F029011044290110740E0020E3
:101AF0006C2B01208C2601208226012080260120CB
:101B000070B56A283AD02AD84A2842D05A2800D13B
:101B1000304C2378802B3ED02F4A137A02218B43FE
:101B200013722D4BDB68002B3BD121780139C9B2F0
:101B30002170294BDB68002B38D12378002B3CD156
:101B4000254A137A04210B4313720023E356002B1A
:101B500039DB214A137A08218B43137270BD7A282E
:101B6000D7D11202D21890B2FFF77AFC04001A4AB9
:101B7000138801339BB201331380CAE7164D68887E
:101B8000801880B2FFF76CFC04002B8801332B8097
:101B9000BFE7124CBDE7104A137A02210B431372C0
:101BA000BFE70D4B188AFFF70FFEBEE70A4D288AE4
:101BB000FFF720FF0023EB60BFE7074A137A0421F9
:101BC0008B431372C1E7044A137A08210B43137243
:101BD000C4E7C046FB2A0120F42A0120FA2A01208A
:101BE00070B56C283AD02AD84C2842D05C2800D155
:101BF000304C314BDB68002B3DD121780131C9B22B
:101C000021702D4BDB68002B3AD12378802B3ED0FE
:101C1000294A137A02218B4313722378002B3CD17B
:101C2000254A137A04210B4313720023E356002B39
:101C300039DB214A137A08218B43137270BD7C284B
:101C4000D7D11202D21890B2FFF70AFC04001A4A48
:101C5000138801339BB201331380CAE7164D68889D
:101C6000801880B2FFF7FCFB04002B8801332B8027
:101C7000BFE7124CBDE7104B188AFFF7A5FDBCE784
:101C80000D4D288AFFF7B6FE0023EB60BDE70A4A38
:101C9000137A02210B431372BFE7074A137A042118
:101CA0008B431372C1E7044A137A08210B43137262
:101CB000C4E7C046FB2A0120F42A0120FA2A0120A9
:101CC00010B56F2827D017D84F282FD05F2800D104
:101CD0001B491C4BDB68002B2AD100230B70194ACF
:101CE000137A02218B4301398B4304210B43DBB26E
:101CF00008218B43137210BD7F28EAD11202D2183B
:101D000090B2FFF7ADFB01000E4A138801339BB27E
:101D100001331380DDE70B4C6088801880B2FFF739
:101D20009FFB0100238801332380D2E70649D0E7D7
:101D3000044C208A0021FFF75DFE0023E360CEE71C
:101D4000FB2A0120F42A0120FA2A012070B560281C
:101D500042D032D840284AD0502800D1374C384B96
:101D6000DB68002B45D121784942C9B22170344B40
:101D7000DB68002B42D12378802B46D0304A137A7F
:101D800002218B4313722378002B44D02C4A137A00
:101D900001210B4313722378002B42D1284A137A76
:101DA00004210B4313720023E356002B3FDB244A2C
:101DB000137A08218B43137270BD7028CFD11202A1
:101DC000D21890B2FFF74CFB04001D4A1388013370
:101DD0009BB201331380C2E7194D6888801880B226
:101DE000FFF73EFB04002B8801332B80B7E7154C2F
:101DF000B5E7134B188AFFF7E7FCB4E7104D288AC4
:101E0000FFF7F8FD0023EB60B5E70D4A137A0221D6
:101E10000B431372B7E70A4A137A01218B431372FB
:101E2000B9E7074A137A04218B431372BBE7044ACC
:101E3000137A08210B431372BEE7C046FB2A012028
:101E4000F42A0120FA2A012070B5682847D037D833
:101E500048284FD0582800D1394C0023E356002B96
:101E60004ADB384A137A01218B431372354BDB6806
:101E7000002B47D121784900C9B22170314BDB6872
:101E8000002B44D12378002B48D12E4A137A042109
:101E90000B4313720023E356002B45DB294A137AC8
:101EA00008218B431372274B1B7A09221A40082AF8
:101EB00040D0012A3ED002229343224A13723DE0D1
:101EC0007828CAD11202D21890B2FFF7C9FA0400DA
:101ED0001C4A138801339BB201331380BDE7194DAF
:101EE0006888801880B2FFF7BBFA04002B880133A2
:101EF0002B80B2E7144CB0E7124A137A01210B434E
:101F00001372B3E70F4B188AFFF75EFCB2E70D4D73
:101F1000288AFFF76FFD0023EB60B3E7094A137AC5
:101F200004218B431372B5E7064A137A08210B4349
:101F30001372B8E702221343024A137270BDC046FF
:101F4000FB2A0120F42A0120FA2A012070B5632817
:101F500039D029D8432841D0532800D12C4C2D4BBF
:101F6000DB68002B3CD12178C943C9B22170294BD1
:101F7000DB68002B39D1274A137A02218B430121D8
:101F80000B43DBB213722278002A35D104221343AB
:101F9000204A13720023E356002B32DB1D4A137ACA
:101FA00008218B43137270BD7328D8D11202D21846
:101FB00090B2FFF755FA0400164A138801339BB21A
:101FC00001331380CBE7134D6888801880B2FFF788
:101FD00047FA04002B8801332B80C0E70E4CBEE784
:101FE0000C4B188AFFF7F0FBBDE70A4D288AFFF774
:101FF00001FD0023EB60BEE704229343054A137200
:10200000C8E7044A137A08210B431372CBE7C04692
:10201000FB2A0120F42A0120FA2A012070B5642845
:102020003DD02DD8442845D0542800D1314C2378B8
:10203000DB0741D5304A137A01210B4313722E4B33
:10204000DB68002B3ED12178490821702A4BDB68E0
:10205000002B3CD1284B1B7ADA073FD502221343D1
:10206000254A13722378002B3DD1234A137A042189
:102070000B431372204A137A08218B43137270BDED
:102080007428D4D11202D21890B2FFF7E9F90400F3
:10209000194A138801339BB201331380C7E7164DE9
:1020A0006888801880B2FFF7DBF904002B880133C1
:1020B0002B80BCE7114CBAE70F4A137A01218B43FE
:1020C0001372BCE70C4B188AFFF77EFBBBE70A4D87
:1020D000288AFFF78FFC0023EB60BBE702229343C3
:1020E000054A1372BEE7044A137A04218B43137224
:1020F000C0E7C046FB2A0120F42A0120FA2A012069
:1021000070B5672844D034D847284CD0572800D120
:10211000354C2378DB0748D5344A137A01210B4329
:102120001372324BDB68002B45D123785B08237098
:1021300040221A4202D0C03A134323702B4BDB6873
:10214000002B3DD12378002B42D1284A137A042159
:102150000B431372254B1B7A0822934301321A401A
:10216000082A3BD0012A39D0022293431F4A137216
:1021700038E07728CDD11202D21890B2FFF770F96B
:1021800004001A4A138801339BB201331380C0E75D
:10219000164D6888801880B2FFF762F904002B881A
:1021A00001332B80B5E7124CB3E7104A137A0121B3
:1021B0008B431372B5E70D4B188AFFF705FBB4E7A5
:1021C00021780A4D288AFFF715FC0023EB60B9E758
:1021D000064A137A04218B431372BBE7022213438E
:1021E000024A137270BDC046FB2A0120F42A012066
:1021F000FA2A012070B569284FD03FD8492857D016
:10220000592800D13D4C3E4B1B7A01251D40002230
:10221000A256002A4EDB01229343394A1372384BEF
:10222000DB68002B4BD123785B00DBB22370002DE1
:1022300002D0012213432370314BDB68002B43D1C2
:102240002378002B48D12E4A137A04210B431372B2
:102250000023E356002B45DB294A137A08218B43E0
:102260001372274B1B7A09221A40082A40D0012AF0
:102270003ED002229343224A13723DE07928C2D114
:102280001202D21890B2FFF7EBF804001C4A138830
:1022900001339BB201331380B5E7194D688880186C
:1022A00080B2FFF7DDF804002B8801332B80AAE70A
:1022B000144CA8E701221343114A1372AFE7104BE5
:1022C000188AFFF781FAAEE721780D4D288AFFF7CB
:1022D00091FB0023EB60B3E7094A137A04218B4397
:1022E0001372B5E7064A137A08210B431372B8E755
:1022F00002221343024A137270BDC046FB2A01201A
:10230000F42A0120FA2A012070B566284ED03ED862
:10231000462856D0562800D13C4C3D4B1B7A012212
:1023200015001D4021780A424DD01343384A1372DC
:10233000374BDB68002B4BD123785B082370002DD3
:1023400003D08022524213432370314BDB68002BB1
:1023500043D12378002B48D12D4A137A04210B4313
:1023600013720023E356002B45DB294A137A082118
:102370008B431372264B1B7A09221A40082A40D03D
:10238000012A3ED002229343214A13723DE076286F
:10239000C3D11202D21890B2FFF762F804001C4AAF
:1023A000138801339BB201331380B6E7184D688858
:1023B000801880B2FFF754F804002B8801332B807B
:1023C000ABE7144CA9E701229343114A1372AFE71C
:1023D0000F4B188AFFF7F8F9AEE721780C4D288AE1
:1023E000FFF708FB0023EB60B3E7094A137A0421E7
:1023F0008B431372B5E7064A137A08210B43137215
:10240000B8E702221343024A137270BDFB2A01206F
:10241000F42A0120FA2A012010B50200C1235B0032
:10242000984211D2023B984243D2152844D004D995
:10243000172831D1FFF7EEF805E0032854D008281B
:102440002AD1334B187810BDD0239B0098421CD062
:102450000AD9E8239B00984202D04033984218D111
:10246000FEF79AFD0020EEE7813BFF3B984208D142
:10247000284B1A6801239340D02212069361002052
:10248000E1E74133FF33984206D1FEF7B5FD002066
:10249000D9E7803B9842E3D003B2002B27DB8023AF
:1024A000DB01984202D31C4B1A6882181B4B985CC4
:1024B000C9E7FEF705FEC6E7194B1868FDF756FF9A
:1024C0007F235840C0B20123984303007F20184067
:1024D00012494875D0231B065A68520B012313403A
:1024E000DB0118434875AEE7FEF7E8FFABE7C02312
:1024F0001B02984205D90B4B9C4660440A4B185C62
:10250000A1E7084B9C466044084B1B68C018F5E7E0
:102510008C26012044290110740E00206C2B012010
:10252000382901100080FFFF780E002014260120BA
:1025300010B5140000216B2819D07B2820D0194A2F
:10254000138801339BB201331380137A0222934321
:102550004AB2002A1ADB08229343124A1372002956
:1025600019D1104A137A04210B43137210BD0D4A7E
:102570005088C01880B2FFF74FFF21000140DEE70E
:1025800098B2FFF749FF21000140D8E70822134322
:10259000044A1372E3E7034A137A04218B4313724C
:1025A000E4E7C046F42A012010B533280DD03828BE
:1025B00014D0322800D010BD134CA088013080B256
:1025C000A080FFF729FFA071F5E70F4CA08801302C
:1025D00080B2A080FFF720FFE071ECE70A4CA088F2
:1025E000013080B2A080FFF717FF80B20002608048
:1025F000A088013080B2A080FFF70EFF80B2638810
:10260000C0186080D7E7C046F42A012070B50024C6
:10261000C42800D16AE020D8A4285BD00FD9B42800
:102620003FD112029B1898B2FFF7F6FE84B23E49E2
:102630000B8801339BB201330B80063131E08428D3
:1026400029D094282DD190B2FFF7E6FE84B2364906
:102650000B8801330B80063123E0E4284DD0F428A9
:102660000DD112029B1898B2FFF7D6FE84B22E4904
:102670000B8801339BB201330B80073111E0D42862
:102680000FD190B2FFF7C8FE84B227490B880133FF
:102690000B80073105E094B223490B8801330B808E
:1026A00006310878204008701F4A137A02208343BD
:1026B00013720A78002A2CD1042213431A4A137287
:1026C0000023CB56002B29DB174A137A08218B43B2
:1026D000137270BD144D6888101880B2FFF79CFE0D
:1026E00084B22B8801332B80A91DDAE794B20E49FE
:1026F0000B8801330B800731D3E70B4D6888101826
:1027000080B2FFF789FE84B22B8801332B80E91D4C
:10271000C7E704229343044A1372D1E7024A137AAB
:1027200008210B431372D4E7F42A012070B500246A
:10273000C82800D16AE020D8A8285BD00FD9B828D3
:102740003FD112029B1898B2FFF766FE84B23E4951
:102750000B8801339BB201330B80063131E08828AE
:1027600029D098282DD190B2FFF756FE84B2364971
:102770000B8801330B80063123E0E8284DD0F82880
:102780000DD112029B1898B2FFF746FE84B22E4973
:102790000B8801339BB201330B80073111E0D8283D
:1027A0000FD190B2FFF738FE84B227490B8801336E
:1027B0000B80073105E094B223490B8801330B806D
:1027C00006310878604008701F4A137A022083435C
:1027D00013720A78002A2CD1042213431A4A137266
:1027E0000023CB56002B29DB174A137A08218B4391
:1027F000137270BD144D6888101880B2FFF70CFE7C
:1028000084B22B8801332B80A91DDAE794B20E49DC
:102810000B8801330B800731D3E70B4D6888101804
:1028200080B2FFF7F9FD84B22B8801332B80E91DBC
:10283000C7E704229343044A1372D1E7024A137A8A
:1028400008210B431372D4E7F42A012070B5002449
:10285000CA2800D16AE020D8AA285BD00FD9BA28AC
:102860003FD112029B1898B2FFF7D6FD84B23E49C1
:102870000B8801339BB201330B80063131E08A288B
:1028800029D09A282DD190B2FFF7C6FD84B23649DF
:102890000B8801330B80063123E0EA284DD0FA285B
:1028A0000DD112029B1898B2FFF7B6FD84B22E49E3
:1028B0000B8801339BB201330B80073111E0DA281A
:1028C0000FD190B2FFF7A8FD84B227490B880133DE
:1028D0000B80073105E094B223490B8801330B804C
:1028E00006310878204308701F4A137A0220834378
:1028F00013720A78002A2CD1042213431A4A137245
:102900000023CB56002B29DB174A137A08218B436F
:10291000137270BD144D6888101880B2FFF77CFDEB
:1029200084B22B8801332B80A91DDAE794B20E49BB
:102930000B8801330B800731D3E70B4D68881018E3
:1029400080B2FFF769FD84B22B8801332B80E91D2B
:10295000C7E704229343044A1372D1E7024A137A69
:1029600008210B431372D4E7F42A012010B500218B
:10297000C52800D167E020D8A52858D00FD9B528A0
:102980003FD11002181880B2FFF746FD81B23D4CCE
:10299000238801339BB201332380063431E085283C
:1029A00029D095282DD190B2FFF736FD81B2354C54
:1029B000238801332380063423E0E5284AD0F52814
:1029C0000DD11002181880B2FFF726FD81B22D4CF0
:1029D000238801339BB201332380073411E0D528CB
:1029E0000FD190B2FFF718FD81B2264C2388013336
:1029F0002380073405E091B2224C238801332380E1
:102A0000063400202056084040B21E4B1B7A02229A
:102A1000934300282AD1042213431A4A1372002830
:102A200029DB184A137A08218B43137210BD154C09
:102A30006088101880B2FFF7EFFC81B22388013361
:102A400023800634DDE791B20E4C238801332380C6
:102A50000734D6E70B4C6088101880B2FFF7DCFC17
:102A600081B22388013323800734CAE704229343C9
:102A7000044A1372D3E7034A137A08210B431372F3
:102A8000D4E7C046F42A012070B50021E3286AD0BB
:102A900015D8C3282CD0D32833D194B22000FFF707
:102AA000BBFC0500601CFFF7B7FC2D02A9B280B289
:102AB000091889B24F4A13880133138021E0F328A3
:102AC0001FD112029A1894B22000FFF7A5FC05004E
:102AD0000134A0B2FFF7A0FC2D02A9B280B2091800
:102AE00089B2444A138801339BB20133138008E052
:102AF00012029A1891B23F4A138801339BB20133F4
:102B000013803C4A93791B02D07902001A43521871
:102B100092B203438024240218002040234202D0B2
:102B20000BB2002B34DB002805D10BB2002B02DBEB
:102B300013B2002B2FDB2F4C237A0225AB432372D9
:102B4000002802D00BB2002B2EDB09B2002928DBB3
:102B500013B2002B01DB002826D126490B7A012075
:102B600083430B7225E0234E74881419A4B220000D
:102B7000FFF752FC05000134A0B2FFF74DFC2D0217
:102B8000A9B280B2091889B2338801333380B8E71B
:102B900013B2002BC7DB174C237A02252B43237279
:102BA000CEE713B2002BD3DB12490B7A012003438B
:102BB0000B72002A11D10F490B7A042003430B72C8
:102BC00013B2002B0FDB0B490B7A082083430B72E7
:102BD000084B110A9971DA7170BD06490B7A04200D
:102BE00083430B72ECE703490B7A082003430B7213
:102BF000EEE7C046F42A012070B50021AC285AD077
:102C000015D88C282CD09C2833D194B22000FFF703
:102C100003FC0500601CFFF7FFFB2D02A9B280B288
:102C2000091889B24A4A13880133138021E0BC286D
:102C30001FD112029A1894B22000FFF7EDFB050095
:102C40000134A0B2FFF7E8FB2D02A9B280B2091847
:102C500089B23F4A138801339BB20133138008E0E5
:102C600012029A1891B23A4A138801339BB2013387
:102C70001380374B5A88531A9BB212B2002A2FDBAB
:102C8000002A02DB08B2002836DB314C207A02250C
:102C9000A8432072002A02DB08B2002836DB09B202
:102CA00000292DDB19B200292EDB29490A7A0120DF
:102CB00082430A722FE0264E74881419A4B22000B1
:102CC000FFF7AAFB05000134A0B2FFF7A5FB2D0218
:102CD000A9B280B2091889B2338801333380C8E7BA
:102CE00008B20028CCDB18B20028C9DB184C207AC7
:102CF000022528432072CDE718B20028C5DAF5E78F
:102D000019B20029CEDA01E0002ACEDB10490A7A96
:102D1000012002430A72002B0DD10D490A7A0420CA
:102D200002430A721BB2002B0BDB094A137A0821FB
:102D30008B43137270BD06490A7A042082430A72DB
:102D4000F0E7034A137A08210B431372F2E7C046F7
:102D5000F42A012070B50021A32853D015D8832868
:102D60002CD0932833D194B22000FFF755FB0500F7
:102D7000601CFFF751FB2D02A9B280B2091889B27D
:102D8000504A13880133138021E0B3281FD1120267
:102D90009A1894B22000FFF73FFB05000134A0B25F
:102DA000FFF73AFB2D02A9B280B2091889B2454A51
:102DB000138801339BB20133138008E012029A1882
:102DC00091B2404A138801339BB2013313803D4ACC
:102DD00093791B02D07902001A43521A92B203432C
:102DE0008024240218002040234220D00BB2002B64
:102DF0001DDB13B2002B1ADB324C237A02252B4346
:102E000023721EE02F4E74881419A4B22000FFF71D
:102E100003FB05000134A0B2FFF7FEFA2D02A9B2B0
:102E200080B2091889B2338801333380CFE7002894
:102E300002D10BB2002B28DB224C237A0225AB43B4
:102E40002372002802D10BB2002B28DB09B2002923
:102E50001FDB13B2002B20DB1A490B7A01208343BE
:102E60000B72002A21D117490B7A042003430B72FD
:102E700013B2002B1FDB13490B7A082083430B721C
:102E8000104B110A9971DA7170BD13B2002BD3DAAD
:102E9000B2E713B2002BDCDA01E00028DCD10949EB
:102EA0000B7A012003430B72DBE706490B7A0420FF
:102EB00083430B72DCE703490B7A082003430B7250
:102EC000DEE7C046F42A012010B51F4CA08801306F
:102ED00080B2A080FFF7A0FA2072A088013080B2F3
:102EE000A080FFF799FAE071A088013080B2A0803D
:102EF000FFF792FAA071A088013080B2A080FFF79E
:102F00008BFA80B200026080A088013080B2A0807D
:102F1000FFF782FA80B2638818436080A08801308E
:102F200080B2A080FFF778FA80B200022080A088EB
:102F3000013080B2A080FFF76FFA80B22388184377
:102F40000138208010BDC046F42A012010B50B4C7A
:102F5000A088013080B2A080FFF75EFA80B2000244
:102F60002080A088013080B2A080FFF755FA80B29F
:102F7000238818430138208010BDC046F42A012060
:102F800070B5EC2846D011D8CC2824D0DC282AD122
:102F900095B22800FFF740FA2E4CA071681CFFF78D
:102FA0003BFAE0712388013323801CE0FC281AD10E
:102FB0001202D21894B22000FFF72EFA254DA87104
:102FC0000134A0B2FFF728FAE8712B8801339BB2D5
:102FD00001332B8007E01F498A71CB710B880133C5
:102FE0009BB201330B801B490A7A02239A438B79E7
:102FF0001B02C9790B4321D104210A4315490A72E6
:103000008022120213421ED0124A137A08210B4367
:10301000137270BD0F4D688894B2101880B2FFF71C
:10302000FBF9A8716888201880B2013080B2FFF7E0
:10303000F3F9E8712B8801332B80D4E704218A430C
:1030400004490A72DCE7034A137A08218B4313729E
:10305000DFE7C046F42A012070B5C92800D18AE014
:1030600022D8A92800D17AE010D9B92840D112027B
:1030700090B2C01880B2FFF7CFF9020069490B88FF
:1030800001339BB201330B80063131E089282AD00D
:1030900099282DD190B2FFF7BFF9020061490B8842
:1030A00001330B80063123E0E9286AD0F9280ED1DC
:1030B000120290B2C01880B2FFF7AEF9020059496F
:1030C0000B8801339BB201330B80073110E0D92804
:1030D0000ED190B2FFF7A0F9020052490B880133DC
:1030E0000B80073104E04F490B8801330B80063118
:1030F00008784C4B1C7A012323409B18DBB21B1829
:10310000DBB20B7044B2002C47DB002C01DB150650
:103110004ED4444D2B7A0226B3432B720B78002BEE
:103120004AD1404D2B7A042633432B720023CB56D1
:10313000002B47DB3B4D2B7A0826B3432B72002C28
:1031400046DB130647D40023CB56002B01DB002CB3
:1031500045DB344C237A0125AB43237244E0314CE8
:103160006088801880B2FFF757F902002388013386
:103170002380A11DBCE72B490B8801330B8007314D
:10318000B6E7284C6088801880B2FFF745F9020046
:10319000238801332380E11DAAE71506B5D45DB26B
:1031A000002DB2DB1F4D2B7A022633432B72B5E77D
:1031B0005BB2002BADDAF5E71A4D2B7A0426B34348
:1031C0002B72B3E7174D2B7A082633432B72B6E7E1
:1031D0001306B6D503E00023CB56002BB3DB114C0E
:1031E000237A01252B43237208231C000440034249
:1031F00001D0130709D4130702D50B781B0704D598
:103200000B781B0707D4002C05D0064A137A20211F
:103210000B43137270BD034A137A20218B43137240
:10322000F8E7C046F42A012070B5BB2800D17FE042
:1032300014D9EB2800D190E02BD9FB283AD1120207
:1032400090B2C01880B2FFF7E7F8020069490B8816
:1032500001339BB201330B8007312BE09B285DD0FB
:103260000DD9AB2826D1634C6088801880B2FFF757
:10327000D3F80200238801332380A11D1AE01B2804
:1032800015D08B2816D15B490B8801330B80063192
:1032900010E0CB285BD0DB280CD190B2FFF7BCF854
:1032A000020054490B8801330B80073102E0514979
:1032B000CA79063108781318DBB20B7044B2002CBF
:1032C00057DB002C04DB150602D45BB2002B55DB68
:1032D000484D2B7A0226B3432B720B78002B53D127
:1032E000444D2B7A042633432B720023CB56002BFC
:1032F00050DB404D2B7A0826B3432B72002C4FDB5A
:10330000130650D40023CB56002B01DB002C4EDBE0
:10331000384C237A0125AB4323724DE090B2FFF77E
:103320007BF8020033490B8801330B800631C1E77B
:10333000120290B2C01880B2FFF76EF802002D4959
:103340000B8801339BB201330B800631B2E7294968
:103350000B8801330B800731ACE7264C608880185E
:1033600080B2FFF759F80200238801332380E11D62
:10337000A0E71506A5D55DB2002DA2DB1D4D2B7A69
:10338000022633432B72A8E71A4D2B7A0426B34347
:103390002B72AAE7174D2B7A082633432B72ADE721
:1033A0001306ADD503E00023CB56002BAADB114C4E
:1033B000237A01252B43237208231C000440034277
:1033C00001D0130709D4130702D50B781B0704D5C6
:1033D0000B781B0707D4002C05D0064A137A20214E
:1033E0000B43137270BD034A137A20218B4313726F
:1033F000F8E7C046F42A012010B5C62800D169E0DC
:1034000021D8A6285AD010D9B62840D1120290B29D
:10341000C01880B2FFF700F802003D4C238801334A
:103420009BB201332380063431E086282AD09628C7
:103430002DD190B2FEF7F0FF0200354C2388013306
:103440002380063423E0E6284AD0F6280ED1120263
:1034500090B2C01880B2FEF7DFFF02002C4C238828
:1034600001339BB201332380073410E0D6280ED1FC
:1034700090B2FEF7D1FF0200254C23880133238050
:10348000073404E0224C238801332380063420498A
:103490000B7A022083430B722270002A2CD10A007F
:1034A0000B7A04210B4313720023E356002B29DB14
:1034B000174A137A08218B43137210BD144C60888D
:1034C000801880B2FEF7A8FF020023880133238012
:1034D0000634DCE70E4C2388013323800734D6E71B
:1034E0000B4C6088801880B2FEF796FF020023889C
:1034F000013323800734CAE7054A137A04218B433A
:103500001372D1E7024A137A08210B431372D4E7EE
:10351000F42A012070B5C12800D17EE021D8A1286D
:103520006FD010D9B12840D1120290B2C01880B229
:10353000FEF772FF020055490B8801339BB201333D
:103540000B80063131E081282AD091282DD190B20C
:10355000FEF762FF02004D490B8801330B800631F4
:1035600023E0E1285FD0F1280ED1120290B2C018FA
:1035700080B2FEF751FF020044490B8801339BB231
:1035800001330B80073110E0D1280ED190B2FEF745
:1035900043FF02003D490B8801330B80073104E0F3
:1035A0003A490B8801330B8006310C78A31ADBB241
:1035B00064B2002C43DB002C01DB11064AD43348F3
:1035C000017A0225A9430172002B47D12F48017AC5
:1035D0000425294301725BB2002B45DB2B49087A95
:1035E0000825A8430872002C01DB110647D41206F7
:1035F00040D4002B41DB254A137A01218B431372FF
:1036000042E0224C6088801880B2FEF705FF02007D
:10361000238801332380A11DC7E71C490B88013390
:103620000B800731C1E7194C6088801880B2FEF723
:10363000F3FE0200238801332380E11DB5E7110664
:10364000B9D459B20029B6DB1048017A02252943C2
:103650000172B9E759B20029B1DAF5E70B48017AEE
:103660000425A9430172B6E70848017A08252943D1
:103670000172B8E7002BBCDA01E0002CBBDB034A87
:10368000137A01210B43137270BDC046F42A012046
:1036900070B5C22800D18AE022D8A22800D17AE0F1
:1036A00010D9B22840D1120290B2C01880B2FEF7F1
:1036B000B3FE02005B490B8801339BB201330B80E0
:1036C000063131E082282AD092282DD190B2FEF71F
:1036D000A3FE020053490B8801330B80063123E01F
:1036E000E2286AD0F2280ED1120290B2C01880B23D
:1036F000FEF792FE02004B490B8801339BB2013367
:103700000B80073110E0D2280ED190B2FEF784FE74
:10371000020044490B8801330B80073104E0414922
:103720000B8801330B80063108783E4B1C7A01234D
:1037300023409B18DBB2C31ADBB20B7040B20028E7
:1037400047DB002801DB14064ED4364C237A0225D1
:10375000AB4323720B78002B4AD1324C237A0425D9
:103760002B4323720023CB56002B47DB2D4C237AAF
:103770000825AB432372002801DB13064BD4130644
:1037800042D40023CB56002B43DB264A137A012177
:103790008B43137244E0234C6088801880B2FEF79C
:1037A0003BFE0200238801332380A11DBCE71D4995
:1037B0000B8801330B800731B6E71A4C60888018FC
:1037C00080B2FEF729FE0200238801332380E11D29
:1037D000AAE71406B5D45CB2002CB2DB114C237AF4
:1037E00002252B432372B5E75BB2002BADDAF5E778
:1037F0000C4C237A0425AB432372B3E7094C237A9C
:1038000008252B432372B6E70023CB56002BB8DAEA
:1038100001E00028B9DB034A137A01210B4313723C
:1038200070BDC046F42A012070B5C02800D183E0E5
:1038300021D8A02874D010D9B02840D1120290B25B
:10384000C01880B2FEF7E8FD020058490B8801332A
:103850009BB201330B80063131E080282AD09028BA
:103860002DD190B2FEF7D8FD020050490B880133EC
:103870000B80063123E0E02864D0F0280ED112023C
:1038800090B2C01880B2FEF7C7FD020047490B880E
:1038900001339BB201330B80073110E0D0280ED1E9
:1038A00090B2FEF7B9FD020040490B8801330B804E
:1038B000073104E03D490B8801330B8006310B785A
:1038C000981AC0B208705BB2002B47DB002B01DBFB
:1038D00014064ED4354C207A0225A843207208786D
:1038E00000284AD1314C207A042528432072002038
:1038F0000856002847DB2D4C207A0825A843207263
:10390000002B01DB10064BD4120642D400228A564B
:10391000002A43DB254A137A01218B43137244E0CA
:10392000224C6088801880B2FEF776FD0200238862
:1039300001332380A11DC2E71C490B8801330B8092
:103940000731BCE7194C6088801880B2FEF764FD2F
:103950000200238801332380E11DB0E71406B5D4AB
:1039600044B2002CB2DB114C207A0225284320728D
:10397000B5E740B20028ADDAF5E70C4C207A042513
:10398000A8432072B3E7094C207A08252843207207
:10399000B6E700228A56002AB8DA01E0002BB9DB2C
:1039A000024A137A01210B43137270BDF42A0120DD
:1039B00003B2002B10DB8023DB0198422DD20300E1
:1039C0001A4AD35C1B021A4A90422AD80130174A7D
:1039D000105CC01880B27047C0231B0298420FD9F8
:1039E000144BC318144AD35C1B02144A90420DD9DD
:1039F000134A94466044104A105CC01880B2EAE74B
:103A0000104B1A680B4BC3189B18EBE70C4A9446F3
:103A100060440C4A12688018EDE70B4B1B68C31812
:103A2000CEE70130084A12688018D0E76C2B0120DD
:103A3000FE3F00000080FFFF780E0020FFBF000067
:103A40000180FFFF14260120740E002070B50024B1
:103A5000CE2840D021D8AE2800D174E00FD9BE289E
:103A600043D11002C01880B2FFF7A2FF0400414901
:103A70000B8801339BB201330B80043135E08E2873
:103A800056D09E2831D190B2FFF792FF04003949F9
:103A90000B8801330B80043127E0EE283CD0FE2850
:103AA0000DD11002C01880B2FFF782FF0400314927
:103AB0000B8801339BB201330B80023115E0DE2805
:103AC00013D190B2FFF774FF04002A490B88013329
:103AD0000B80023109E012021A43140025490B88B9
:103AE00001339BB201330B8002310C80214A137ADF
:103AF0000220834313720A88002A30D10422134320
:103B00001C4A137200228B5E002B2DDB194A137A9C
:103B100008218B43137270BD164D6888801880B2DF
:103B2000FFF746FF04002B8801332B80A91CDCE73C
:103B300012021A4314000F490B8801339BB2013360
:103B40000B800431D1E70B4D6888801880B2FFF7F5
:103B50002FFF04002B8801332B80291DC5E7042289
:103B60009343044A1372CDE7024A137A08210B43A8
:103B70001372D0E7F42A012010B50200172808D8E4
:103B800003B2002B20D017281ED88300294CE358FD
:103B90009F46C0239B00984232D00ED9D8239B0069
:103BA000984207D029D9E8239B00984202D040339D
:103BB000984209D1FDF7F0F912E07F3BFF3B9842B4
:103BC0000FD2023B984221D203B2002B08DB8023A4
:103BD000DB01984202D3184B1A688218174B99548C
:103BE00010BDE0235B009842EED1154B1A6801230B
:103BF0009340D02212069361F2E7203B9842E3D132
:103C0000FDF7FAF9ECE70F4B1970DDE7FDF74AFB1A
:103C1000E6E70800FDF77EFCE2E70800FDF700FD9F
:103C2000DEE70800FDF774FDDAE70800FDF7A2FC07
:103C3000D6E7C046502A0110740E00206C2B0120DC
:103C4000442901108C260120F8B5150000246228B3
:103C500019D0722827D01F4A138801339BB2013331
:103C60001380137A0222934362B2002A26DB0822D1
:103C70009343184A1372002C25D1164A137A042153
:103C80000B431372F8BD9EB2124F7888181880B299
:103C9000FEF7C2FB0543ECB27888301880B22100F1
:103CA000FFF76AFFD7E79EB23000FEF7B5FB05438A
:103CB000ECB221003000FFF75FFFCCE7082213438E
:103CC000044A1372D7E7034A137A04218B43137211
:103CD000D8E7C046F42A0120F8B51500002661286F
:103CE00019D0712827D01F4A138801339BB20133A2
:103CF0001380137A0222934372B2002A26DB082231
:103D00009343184A1372002E25D1164A137A0421C0
:103D10000B431372F8BD9CB2124F7888181880B20A
:103D2000FEF77AFB05402E007888201880B2290023
:103D3000FFF722FFD7E79CB22000FEF76DFB05409E
:103D40002E0029002000FFF717FFCCE708221343BD
:103D5000044A1372D7E7034A137A04218B43137280
:103D6000D8E7C046F42A0120F8B5150000246528DC
:103D700019D0752827D01F4A138801339BB201330D
:103D80001380137A0222934362B2002A26DB0822B0
:103D90009343184A1372002C25D1164A137A042132
:103DA0000B431372F8BD9EB2124F7888181880B278
:103DB000FEF732FB4540ECB27888301880B2210023
:103DC000FFF7DAFED7E79EB23000FEF725FB45404D
:103DD000ECB221003000FFF7CFFECCE708221343FE
:103DE000044A1372D7E7034A137A04218B431372F0
:103DF000D8E7C046F42A012010B537280CD03C285B
:103E000012D0362800D010BD0F4B9888421E9A80E1
:103E10009979FFF7B1FEF6E70B4B9888421E9A801E
:103E2000D979FFF7A9FEEEE7074CA088431EA380CF
:103E3000A178FFF7A1FEA088431EA3806188090A2C
:103E4000FFF79AFEDFE7C046F42A012010B5010013
:103E500000200024D72945D02CD8A72939D0B7294C
:103E60000AD112021A4310002C4A947913880133A4
:103E70009BB20133138007E0972905D190B2274BFD
:103E80009C791A8801321A802100FFF775FE234BB6
:103E90001B7A02229343002C34D1042213431F4A7D
:103EA000137264B2002C32DB1C4A137A08218B4354
:103EB000137210BDE7291CD0F729E5D112021A436D
:103EC0001000164AD479138801339BB20133138052
:103ED000DAE7124B5888101880B29C791A880132A0
:103EE0001A80D1E790B20D4BDC791A8801321A8022
:103EF000CAE70A4B5888101880B2DC791A88013258
:103F00001A80C1E704229343044A1372C9E7034AA3
:103F1000137A08210B431372CBE7C046F42A012021
:103F200070B5244CA088431EA38021780131C9B20A
:103F3000FFF722FEA088431EA380218801310912C9
:103F4000C9B2FFF719FEA088431EA380A178FFF72E
:103F500013FEA088431EA3806188090AFFF70CFEA8
:103F6000A088431EA380A179FFF706FEA088431E08
:103F7000A380E179FFF700FEA088431EA380217A89
:103F8000FFF7FAFD237A1022134323720A48FEF743
:103F900043FA05000948FEF73FFAADB22D02ADB273
:103FA0002D18ADB2013D2580054A13680133136019
:103FB00070BDC046F42A0120FAFF0000FBFF00009C
:103FC0006C2B022070B5224CA088431EA380217860
:103FD0000131C9B2FFF7D0FDA088431EA38021881C
:103FE00001310912C9B2FFF7C7FDA088431EA380A3
:103FF000A178FFF7C1FDA088431EA3806188090A4C
:10400000FFF7BAFDA088431EA380A179FFF7B4FD96
:10401000A088431EA380E179FFF7AEFDA088431E70
:10402000A380217AFFF7A8FD237A1022134323727D
:104030000848FEF7F1F905000748FEF7EDF9ADB2C3
:104040002D02ADB22D18ADB2013D258070BDC04628
:10405000F42A0120EEFF0000EFFF000070B5AD284C
:104060003BD01CD88D2853D09D2850D190B2FFF75B
:104070009FFC013885B2384C2188013189B22180FA
:10408000A088431EA380C9B2FFF776FDA088431E17
:10409000A3802188090AFFF76FFD258037E0BD283E
:1040A00035D112021343013B9CB22B4D29880131BB
:1040B00089B2013189B2013189B22980A888431EB1
:1040C000AB80C9B2FFF758FDA888431EAB80298892
:1040D000090AFFF751FD2C8019E01F4C6088121867
:1040E00092B2013A95B22188013189B2013189B287
:1040F0002180A088431EA380C9B2FFF73DFDA088A0
:10410000431EA3802188090AFFF736FD258070BD74
:10411000114B198853B2002B19DB92B28A1892B254
:10412000013294B2013189B2013189B20A4D29803C
:10413000A888431EAB80C9B2FFF71EFDA888431EA6
:10414000AB802988090AFFF717FD2C80DFE7013AC9
:10415000FF3A92B2E2E7C046F42A012070B50400AB
:104160000B00090ADDB2FFF707FD0134A0B22900F8
:10417000FFF702FD70BD000010B501000020002413
:10418000EF292BD0FF291ED0DF2915D02100FFF702
:10419000E5FF1C4B1B7A02229343002C26D10422FC
:1041A0001343184A137224B2002C24DB154A137AE5
:1041B00008218B43137210BD90B2124B5C881A8891
:1041C00001321A80E2E712021A4310000D4A5488A5
:1041D000138801339BB201331380D7E7094B5C8806
:1041E000121990B21A8801321A80CFE70422934341
:1041F000044A1372D7E7034A137A08210B43137258
:10420000D9E7C046F42A012010B50100002000249F
:10421000AF292BD0BF291ED09F2915D02100FFF731
:104220009DFF1C4B1B7A02229343002C27D10422B2
:104230001343184A137224B2002C25DB154A137A53
:1042400008218B43137210BD90B2124B9C881A88C0
:1042500001321A80E2E712021A4310000D4A9488D4
:10426000138801339BB201331380D7E7094B588879
:10427000101880B29C881A8801321A80CEE7042276
:104280009343044A1372D6E7024A137A08210B4378
:104290001372D8E7F42A012010B501000020002491
:1042A000ED2931D0FD2921D0DD2915D02100FFF7DE
:1042B00055FF214B1B7A02229343002C30D104225C
:1042C00013431D4A137224B2002C2EDB1A4A137AB0
:1042D00008218B43137210BD90B2174B9C792402B6
:1042E000DA7914431A8801321A80DFE712021A437E
:1042F0001000114A94792402D3791C4313880133A6
:104300009BB201331380D1E70B4B5888101880B251
:104310009C792402DA7914431A8801321A80C5E79D
:1043200004229343044A1372CDE7034A137A082107
:104330000B431372CFE7C046F42A012070B5050085
:10434000204B1B7ADB0600D570BD1E4CA088431E97
:10435000A3802178FFF710FCA088431EA38021884A
:10436000090AFFF709FCA088431EA380A178FFF784
:1043700003FCA088431EA3806188090AFFF7FCFBA9
:10438000A088431EA380A179FFF7F6FBA088431EF7
:10439000A380E179FFF7F0FBA088431EA380217A78
:1043A000FFF7EAFB2800FEF737F806020135A8B24E
:1043B000FEF732F800B230432080237A10221343F4
:1043C0002372C1E7F42A012010B50B4A1388013388
:1043D0009BB21380094A1288934200D010BD084A4C
:1043E000137840210B43DBB213701B07F6D5054849
:1043F000FFF7A4FFF2E7C0468226012080260120B5
:104400008C260120F4FF000010B50C4A13880133FC
:104410009BB21380002B08D1094A138801339BB249
:1044200013808022D200934200D010BD044B0022A2
:104430001A800448FFF782FFF7E7C0467C26012078
:104440007E260120FCFF000010B50023FF2B04DCBA
:10445000184A2021D1540133F8E7164A0021D154DB
:10446000154B1B68002B17D0012B1CD01348FDF7F0
:10447000D3FF04021248FDF7CFFF00B22043114BD7
:104480001880F1221A72104A002313750F4B1B6813
:104490007C210B43537510BD0D4B10221A600D4B40
:1044A00010321A60E2E70A4B14221A60094B3C32C0
:1044B0001A60DBE7702B0220300A0020FEFF0000AC
:1044C000FFFF0000F42A01206C2B0120E8250120C9
:1044D000DC090020D8090020F8B51F4C2088FDF722
:1044E0009BFF05002088013080B2FDF795FF060094
:1044F0002088023080B2FDF78FFF0300174A0021A9
:1045000011602188164A1160A900164A8F5832009E
:1045100021002800B847238801332380FFF754FF88
:10452000FFF752FFFFF750FFFFF74EFFFFF74CFF7B
:10453000FFF74AFFFFF748FFFFF746FFFFF744FF8B
:10454000FFF742FFFFF740FFFFF73EFFFFF75CFF7B
:10455000FCF79AFDF8BDC046F42A01206C2B02201E
:10456000742C0220340A002010B582B01D4A136852
:10457000013313601C4B9B69DB0614D51B4A13687F
:10458000013313600FE0184B9B69DB06FBD4164B1D
:104590001B680B7001320131002AF4D06B460733DF
:1045A0001B78002B09D1104B9B6910210A001A407F
:1045B00019420DD16B46D91DEEE70D4C22680D490D
:1045C0008B54206801300C4904F008F92160EAE7B7
:1045D000054B9B69DB0603D4084A1368013313605B
:1045E00002B010BDA425012000800340A8250120B1
:1045F000AC250120E84B022088130000A0250120F3
:10460000012070477047000010B50449044800F0CD
:1046100089FF002800D0012010BDC046B02A01103B
:10462000C460022010B50449044800F07BFF002854
:1046300000D0012010BDC046C02A0110C460022075
:1046400070B52248002101F0C1FE0221082001F0CE
:1046500057F80221092001F053F8E1211C4D4902CD
:10466000280001F05DF92A6BC0231B021A40802448
:104670006401184B23431A60EA6A10263240164B35
:1046800023431A601549152002F01AFD0121152057
:1046900002F0FEFCAE636A6B38231340104A1443E9
:1046A0002360104805F068FA05F056FA0220FBF77F
:1046B000CBFE642001F0B6FE0220FBF79FFE002334
:1046C000094A1370094A136070BDC04640420F008A
:1046D00000800340308003402C8003406945001077
:1046E00034800340D82A0110C46002209C25012098
:1046F000F0B5CE46474680B585B00500002301AA37
:1047000013703A4A1370C31D394AD356002B0ADB83
:10471000364C200009F05EF920180222354905F0D8
:10472000C3F805242EE0314C200009F053F920187D
:104730000222314905F0B8F8F3E767192C4B994686
:10474000DA5D12092D4B9846190001A803F0EEFF1F
:10475000264E01A9300009F0C9F8300009F03AF9F5
:1047600030180222264905F09FF84B46DB5D0F22E8
:104770001A40414601A803F0D9FF01A9300009F011
:10478000B5F8013C002C0DDB052CD6D06319184A76
:10479000D25C1C4901A803F0C9FF01A9134809F024
:1047A000A5F8EEE7114C200009F014F920180322B7
:1047B000154905F079F806350D4B5A57002A0EDBDE
:1047C000104901A803F0B2FF084C01A9200009F02C
:1047D0008DF8200005B00CBC90469946F0BD5242C1
:1047E0000A4901A803F0A2FFEEE7C0464C340220BC
:1047F0006C2B0120642B0110F02A0110F42A011007
:10480000FC2A0110002B0110082B01100C2B0110A9
:1048100030B5CFB012AB00221A70002413E0220092
:10482000414908A803F082FF08A912A809F05EF820
:10483000E0003E4B9C466044FFF75AFF010012A87F
:1048400009F054F80134092CE9DD394B1A68394B69
:104850001968394C394B0493394B039318001638B7
:10486000029018002C380190423B009312AB2000BC
:1048700003F05CFF200009F0ADF80300314A10603E
:10488000314A1268314C3249200003F04FFF0023B7
:1048900020002BE01F236B44197000221F236B4460
:1048A000002A1DD12B4989698906FBD41C78294926
:1048B0000C6001320133F3E71F236B440D221A70A1
:1048C00000221F236B4404E01D78224C2560013236
:1048D0000133002A14D11F4CA469A406FBD4F3E7CA
:1048E00003780D3B5A425341DBB201300178002975
:1048F00018D0002BCED1184B02229B5E8B42DBD00E
:104900001F236B44197000221F236B44002AE7D138
:10491000104989698906FBD41C780E490C60013264
:104920000133F3E74FB030BD142B0110FF2000001E
:1049300020210120580F012074340220C46002207D
:104940004E2B0120EC25012010210120A06802201F
:10495000202B0110008003409069022070B50500F3
:104960000024032C0ED8E300074A9958280000F0D1
:10497000D9FD002801D10134F3E7E400024B1C19F2
:104980006368984770BDC046FC0F012010B502480F
:10499000FFF7E4FF10BDC046782C0220F0B5C646F4
:1049A00000B50A4D0A4E81192B681C1A631C9846E3
:1049B000084F1A00380004F077FF424639003000F3
:1049C00004F072FF2C6004BC9046F0BD9C250120D1
:1049D000C46002201844022070B51A4B18601A4BAC
:1049E00019601A4B00221A60194B01321A60194BD8
:1049F0001D68144B1A68002A12DD164B196800292D
:104A00000EDD12480368144CE65C144CE654013386
:104A1000036001390F4B1960013A0A4B1A60E8E74D
:104A20000C4B1D60094B1868FFF7B8FF054B1B685E
:104A3000002B05D1064B00221A60034B1B689847D8
:104A400070BDC046D8200120C0600220144402205E
:104A5000E42001209C250120C4600220782C022043
:104A600010B5044B1868FFF799FF034B01221A6039
:104A700010BDC046DC250120E425012010B5064B01
:104A80001B68002B00D110BD044B1868FFF786FF90
:104A9000014B00221A60F6E7E4250120DC25012005
:104AA00010B550210220FCF733FB0849084800F0FC
:104AB00039FD002800D110BD064B1868FFF76EFFC6
:104AC000054B58680549FFF787FFF4E7B02A011046
:104AD000C4600220DC250120686902208D49001095
:104AE00010B504006E210120FCF712FB24010948D7
:104AF00004196168084800F015FD002800D110BDB8
:104B0000064B1868FFF74AFF054B1A68054B1A60F9
:104B1000F5E7C046780E0120C4600220DC250120A4
:104B2000686902201021012010B5040069210120CC
:104B3000FCF7EEFA2401074804196168064800F002
:104B4000F1FC002800D110BD044B1868FFF726FFC8
:104B5000F9E7C046780E0120C4600220DC25012060
:104B600010B563210120FCF7D3FA0649064800F08E
:104B7000D9FC002800D110BD044B1868FFF70EFFC8
:104B8000F9E7C046342B0110C4600220DC25012067
:104B900010B563210120FCF7BBFA0649064800F076
:104BA000C1FC002800D110BD044B1868FFF7F6FEC9
:104BB000F9E7C046442B0110C4600220DC25012027
:104BC00070B5594CA5440600002311AA137002AA1F
:104BD0001370040018E0230002AA544907A803F048
:104BE000A5FD07A911A808F081FE02AB00221A70EA
:104BF00010E002A808F0EEFE02AB9C4660440222E0
:104C00004B4904F051FE013433007F33A3421BDBD8
:104C10002307E0D0474D2A5D474907A803F086FDEA
:104C200007A911A808F062FE2A5D444B9B5C68212D
:104C30008B43DED06B461A7700236A46537707A969
:104C400002A808F053FEDEE711A808F0C3FE11AB7E
:104C50009C46604403223A4904F026FE02A911A8AA
:104C600008F044FE374B1A68374B1968374C11ABC4
:104C7000200003F05BFD200008F0ACFE0200344B86
:104C80001860344C3449200003F050FD002320000C
:104C900016E06B46DC7100226B46D91D08E02F4BF5
:104CA0009B699B06FBD40C782C4B1C6001320131B4
:104CB000002AF4D003780D3B5A425341DBB2013055
:104CC0000478002C2BD0002BE3D1254B02229B5ED5
:104CD000A34205D06B46DC7100226B46D91D17E05C
:104CE0006B460D22DA7100226B46D91D04E00D7867
:104CF0001A4B1D6001320131002AEBD1174B9B6921
:104D00009B06FBD4F3E70C78144B1C600132013195
:104D1000002ACFD1114B9B699B06FBD4F3E79B2361
:104D2000DB009D4470BDC04628FBFFFF502B0110E7
:104D3000FC2A01106C2B0120602B0110A9460110E8
:104D4000682B0110202101205C0F01207434022007
:104D5000EC250120A06802206C2B0110008003408C
:104D60009069022010B580204001FFF729FF10BD97
:104D700010B5024B1868FFF723FF10BD68690220C9
:104D800070B50500002400E00134122C16D8E300B1
:104D90000B4A9B5C032BF7D1E200094B9B18586828
:104DA000290008F0CBFD0028EED1064B1C60064B15
:104DB00001221A60054A13680133136070BDC046B2
:104DC000640F012070260120742601204C2601204A
:104DD00010B5074B01221A6053210020FCF798F907
:104DE0000448FFF7CDFF044B1868FFF7D7FD10BD4F
:104DF0002C260120802B0110DC25012010B5040099
:104E000043210120FCF784F9240108480419616852
:104E1000074800F087FB002800D110BD054B18683B
:104E2000FFF7BCFD0448FFF7ABFFF6E7780E012063
:104E3000C4600220DC250120882B011010B504007D
:104E400072210120FCF764F9240108480419616803
:104E5000074800F067FB002800D110BD054B18681B
:104E6000FFF79CFD0448FFF78BFFF6E7780E012063
:104E7000C4600220DC250120902B011070B582B0A7
:104E800000230193B24B1A6801321A60186864213A
:104E900003F0A4FC00290CD1AE4B1B68002B13D0EF
:104EA00057310320FCF734F9AA4A136859424B41A1
:104EB0001360A94B9B69DB0613D4FFF755FBA74A88
:104EC0001368013313600CE020210320FCF720F964
:104ED000EAE76946A24808F009FDA24A13680133CF
:104EE0001360A14B1A68A14B1B689A4213D0202370
:104EF0006A4613809C4D2B685A1C2A609C4AD45CDD
:104F0000E4B26B461C7028689A4903F067FC29607C
:104F1000002CE6D0DDE7984B1C68002C24D00EE076
:104F20008F4B1C780120FFF739FD944A1368591CF8
:104F30001160934AD454934A1368013B1360914B18
:104F40001B68002B03DD874A1268002AE8DC002B6F
:104F500005D1894B00221A608B4B1B68984702B021
:104F600070BD0120FFF71AFD7D4B1B78874AD35C8B
:104F70001B07F6D40FE02201854B9B18596878482F
:104F800000F0D0FA002805D02201814B9B18DB6885
:104F90002000984701340D2C15D823017C4A9B5CD6
:104FA000012BE8D0022BF5D12201794B9B189B688D
:104FB000200098470028EDD02201754B9B18DB6834
:104FC00020009847E6E7734B1B68002BC7D0724B55
:104FD0001B68002B37D1714B1A68D100704BCB5C2A
:104FE000042B00D10BE13ED8012B41D0022B1ED166
:104FF000D2006B4B9A1850686A4E01AA310008F033
:10500000D5FB654B01221A6001F0A8FA019A530101
:105010009B1A9B009B18DB001C00DD1700196941DF
:10502000614B186059603100604803F07FFB5B4BB7
:105030001B68D9005A4A8A5C042A00D18FE70133E1
:10504000564A13608BE701F089FA574B1A685B6880
:105050008B4200D983E702D1824200D97FE74E4BD1
:1050600000221A607BE7052BE1D10023504CB6E00B
:10507000D2004B4B9A1851684E4C200003F056FB5F
:105080000023200032E06B461C7000216A4608E0D5
:10509000314B9B699B06FBD414782F4B1C6001316C
:1050A00001320029F4D01BE00D236A461370002161
:1050B00008E0294B9B699B06FBD41578264B1D60A5
:1050C000013101320029F4D01AE0234B9B699B0681
:1050D000FBD41478204B1C60013101320029F4D03C
:1050E00003780D3B5A425341DBB201300478002C67
:1050F0009DD0002BC7D1304B02229B5EA342D3D060
:105100006B461C7000216A46E8E76B461870002168
:105110006A4608E0104B9B699B06FBD410780E4B47
:105120001860013101320029F4D052E00D236A46A3
:105130001370002108E0084B9B699B06FBD415788F
:10514000054B1D60013101320029F4D052E0C04608
:1051500020210120600F012000800340DC2001207D
:10516000C46002209C250120B0250120AC2501202F
:10517000E84B022088130000E420012014440220A0
:10518000782C0220D8200120C0600220A9460110FE
:10519000780E0120742601206C2601207026012043
:1051A000640F0120982B0110F81B0120A860022039
:1051B00074340220A068022090690220124B9B697F
:1051C0009B06FBD41078104B186001310132002986
:1051D000F4D023780D3B5A425341DBB2013420789E
:1051E000002800D123E7002B8FD1084B02229B5EC1
:1051F00083429BD06B46187000216A46E7E7044B58
:1052000000221A6013E7C046008003409069022024
:105210007426012010B582B001AA10700121DE2091
:1052200000F047F96B46DC1D22000121DF2000F071
:105230001AF9207802B010BD00B583B06B46187122
:10524000597101AA0221DE2000F033F903B000BD3C
:1052500010B50020FFF7DEFFC0B2802149420143B4
:10526000C9B20020FFF7E8FF10BD000010B51A4BCF
:105270001B68002B0CD1194B1B68002B0ED1184B4F
:105280001B68002B15D1174B1B68002B1AD110BDC2
:10529000FFF7DEFF104B00221A60ECE70020FFF75B
:1052A000B9FF7F230340104A13600C4B00221A60A1
:1052B000E5E70120FFF7AEFF0C4B1860084B00221A
:1052C0001A60E0E70220FFF7A5FF094B1860054BC5
:1052D00000221A60DBE7C0462426012008260120B0
:1052E0000426012000260120202601201C26012062
:1052F0001826012082B000230193019B0E2B03DCB2
:10530000019B01330193F8E702B07047044B1A6820
:1053100001239340D0221206536293617047C04626
:1053200034290110034B1A6801239340D02212063E
:105330009362704734290110044B1A68012393408B
:10534000D0221206536293617047C0463029011083
:10535000034B1A6801239340D022120693627047D0
:1053600030290110044B1B68D02212065068D84027
:1053700003000120184070473429011010B5FFF7D1
:10538000C5FFFFF7B7FFFFF7D7FFFFF7B3FF10BD6C
:1053900010B5FFF7BBFFFFF7ADFFFFF7D9FFFFF732
:1053A000A9FFFFF7BFFFFFF7A5FF10BD70B5040011
:1053B00000250EE0FFF7B6FFFFF79CFFFFF7C8FFE1
:1053C000FFF798FFFFF7B8FFFFF794FF6400E4B220
:1053D0000135072D05DC63B2002BEBDBFFF796FFF1
:1053E000EAE7FFF79FFFFFF7B3FFFFF783FF6424B0
:1053F000FFF7B8FF002803D0013C002CF8D100E0F3
:105400000124FFF799FFFFF775FF200070BDF8B585
:1054100006000F00FFF786FF0024002510E0FFF7CD
:1054200069FFFFF795FFFFF765FF6400FFF79AFF3D
:1054300001230340E418FFF77FFFFFF75BFF01350F
:10544000072DECDD002F0BD0FFF760FFFFF780FF8B
:10545000FFF750FFFFF770FFFFF74CFF3470F8BD08
:10546000FFF760FFF2E7F0B583B004000F0015000E
:10547000FFF784FF2000FFF799FF041E01D00024EE
:105480000FE0FFF785FF11E0791E091B4B1E9941C4
:105490006B46DE1D3000FFF7BAFF33782B70013406
:1054A0000135BC42F0DBFFF773FF0124200003B09D
:1054B000F0BDF8B505000F001400FFF75FFF2800EE
:1054C000FFF774FF0025BD4206DA661C2078FFF75F
:1054D0006DFF01353400F6E7FFF75AFFF8BD000015
:1054E00010B50A4C23685A1C22609B00084CE050FF
:1054F000092A01DC012010BD064B07481860074B44
:105500001960074B1A600020F5E7C046D825012036
:10551000686902201C100120C82E011020100120F3
:10552000D4250120F0B5D6464F4680B585B005009C
:105530000F0000236B4A13606B4A1360092B05DCD4
:1055400099006A4A002088500133F7E700260024BA
:105550001AE001362B5D664AD35C1B0714D5013473
:10556000614A136801331360F4E7711C7B18994694
:105570007B5C002B1FD0642B00D170E0782B00D116
:105580006FE0252B1ED00E000196BB5D002B00D1D5
:105590008CE02A5D002A00D188E0202BD9D0252B71
:1055A000E3D001340136934200D093E04E4A1368B1
:1055B00001331360E8E74F4B4F4A1A604F4B1F60AF
:1055C00000243FE00134252A00D07BE0464A1368DE
:1055D000013313600236D7E78300181843009A4658
:1055E00003A807F007FA504401343F4A1368013317
:1055F00013602B5D002B1FD04B461B78642B32D0E1
:10560000782B36D12A5D3A498A5C4421114230D048
:1056100003AB20221A802A5D1A704B461B78642B3C
:10562000DAD0782BE0D103019A461022002103A89A
:1056300008F0C4FB5044D7E7019BFB189B78002B74
:1056400006D00024200005B00CBC91469A46F0BD5F
:105650003900FFF745FF041EF4D00124F2E70020D3
:10566000CAE70020C8E72A5D21498A5C5207CFD4E7
:10567000C6E7002CE6D0642B10D0782B24D12B1950
:10568000013B1B781A4AD35C44221A421ED03900CF
:10569000FFF726FF00281BD0023675E72A19013ACA
:1056A000127813498A5C5207F1D4E6E7002B13D035
:1056B000202B13D1019B9C4667447B78002B0FD194
:1056C0000124BFE70024BDE70024BBE70024B9E7BD
:1056D0000400B7E70024B5E70124B3E70024B1E7ED
:1056E0000024AFE7D8250120DC25012068690220CD
:1056F000A94601101C100120D42E011020100120F9
:1057000010B58300084A944663441C6840226240F6
:10571000C02414408022520113431C60C000034B7C
:105720009C466044416010BD04C0014000400140FF
:1057300080000B4B9C46604400290DD00823002AB2
:105740000CD004221343026853400C2213408022E1
:1057500052011043036070470023F0E70022F1E795
:1057600004C0014010B501238340D0221206936289
:1057700093610521FFF7C4FF10BD0000EFF3108017
:1057800072B6034B1B68002BFBD0BFF35F8F7047D3
:105790002C0100D0BFF35F8F024B00221A6080F310
:1057A000108870472C0100D0F8B506000C001500D9
:1057B000FFF7E4FFE308F718F15C0722224001231A
:1057C00093400B4205D1DBB20B433B70FFF7E2FF86
:1057D000F8BD2100280001F0D1FAF0B583B0060031
:1057E000019114001F00FFF7C9FFBC420ED8E30867
:1057F000F518F35C0721214001228A401A4201D0AA
:105800000134F2E7D2B21A432A7001E00124644263
:10581000FFF7C0FF002C02DB200003B0F0BD019BAE
:10582000002BF9D0089801F0A9FA0000034B1B687F
:1058300002201840431E9841C0B2704700C0064085
:1058400000231F2B08D8054A9A189200BFF35F8FD8
:10585000002111600133F4E77047C0464000003476
:10586000054A1078431CDBB21370172B02D91300C2
:1058700010221A707047C0462410012000B583B072
:105880000100044B00931F2318220348FFF7A5FFD4
:1058900003B000BDF02E0110E020012070B504001F
:1058A0000D00062001F084FBC000290002F0BEFFBD
:1058B000C60908D00E4B9E4217D87F2318400130EE
:1058C0003500460800E001256562A6622C34802080
:1058D0008001044300232360062001F069FB80005F
:1058E000A901891902F0A2FF70BD0026014DEBE766
:1058F000FEFF0000FFFF0000002909D00A22064B2E
:105900009C466044434258414000044BC252704799
:1059100080225200F3E7C0460080FCBF906902205D
:1059200070B505000C00062001F042FB002829D0CC
:10593000164B9D4227D08022D203154B1A60154B7F
:105940001A60154B9B6811009943FAD10021280079
:10595000FFF7D2FF21002800FFF7A0FF2C002C3416
:10596000E96A60224A406E2111408022520122439E
:1059700011600A4B2B6380239B01234310221A6082
:105980000323AB6470BD80221204D6E7008003407D
:1059900000E0004000F0004000C0004001030000B3
:1059A00070B505000C00080000F0CCFD200000F0F0
:1059B000D3FE0849200000F013FEFFF751FF064B0D
:1059C0009C466044800068602C75A400034BE55041
:1059D00070BDC046E55C001040000034F025012099
:1059E0000A4B1A68EFF3108172B61368002BFCD0D3
:1059F000BFF35F8F054B1B68BFF35F8F00221A60F8
:105A000081F3108840BF002000217047302601201C
:105A100010B5002922D003681B7B99421ED8174B72
:105A20009C466144090183689C4661440C6849684E
:105A3000002A19D003681B7B9A4215D883680F4847
:105A40008446624412019A181068536802000120CB
:105A50008B4201D80ED00020C0B210BD084B094ABD
:105A60003B21094801F06CF9054B064A3B210648E9
:105A700001F066F9A242EFD8EDE7C046FFFFFF0F45
:105A8000642F011044320110202F011010B500299D
:105A90001ED0037B99421BD84B005B18033B046864
:105AA000A4466344002919D0002A1DD0914221D078
:105AB000002A25D0047BA24222D804685000801816
:105AC000033820188170197800291FD11A7010BD71
:105AD000104B114A6921114801F032F9104B114A5B
