:020000041000EA
:1000000000B5324B212058609868022188439860DF
:10001000D860186158612E4B002199600221596106
:100020000121F02299502B49196001219960352056
:1000300000F044F80222904214D00621196600F024
:1000400034F8196E01211966002018661A6600F04E
:100050002CF8196E196E196E052000F02FF8012189
:100060000842F9D1002199601B49196000215960AB
:100070001A491B48016001219960EB211966A021F2
:10008000196600F012F800219960164914480160C1
:100090000121996001BC002800D000471248134993
:1000A000086003C880F30888084703B5996A0420EC
:1000B0000142FBD001200142F8D103BD02B5186610
:1000C0001866FFF7F2FF186E186E02BD00000240BE
:1000D000000000180000070000035F00212200005C
:1000E000F4000018222000A00001001008ED00E03C
:1000F00000000000000000000000000074B24E7A12
:1001000000200420F7010010C3010010C5010010F9
:10011000C1010010C1010010C1010010C101001097
:10012000C1010010C1010010C1010010C701001081
:10013000C1010010C1010010C9010010CB01001065
:10014000CD010010CD010010CD010010CD01001037
:10015000CD010010CD010010CD010010CD01001027
:10016000CD010010CD010010CD010010CD01001017
:10017000CD010010CD010010CD010010CD01001007
:10018000CD010010CD010010CD010010CD010010F7
:10019000CD010010CD010010CD010010CD010010E7
:1001A000CD010010CD010010CD010010CD010010D7
:1001B000CD010010CD010010CD010010CD010010C7
:1001C00000BE00BE00BE00BE00BE00BE00F04BF888
:1001D000103800BEF2EB887164EF01108CEF011053
:1001E0003402001090A31AE700202149086006C8D5
:1001F00081F3088810471F48006800282FD10DA4FC
:100200000ECC002902D000F012F8F9E71A491B4A77
:10021000002000E001C19142FCD1194988471949E9
:1002200088471949884700BEFDE701C901C29A42C3
:10023000FBD370478CEF0110C0000020701E01201E
:100240003C0D031000000420000004203C0D0310AE
:1002500000100420001004200000000070470B482C
:100260000FF082FF0047EFF30580C0B27047000037
:1002700008ED00E0000000D0701E0120BC870220C5
:1002800009E600101D0500101DE70010575600007C
:1002900006005250ABB36053A0DA01100600525072
:1002A000861C0302B0DA0110060052505422A29DAF
:1002B000C0DA011005005250DE65F4683C0D0310F1
:1002C000F8B5C0460448054B10B5834203D0044B33
:1002D000002B00D0984710BD701E0120701E012019
:1002E0000000000006480749091A8B10C90FC918F9
:1002F00010B5491003D0044B002B00D0984710BD17
:10030000701E0120701E01200000000010B5074C77
:100310002378002B09D1FFF7D5FF054B002B02D026
:10032000044800E000BF0123237010BD901F01208E
:100330000000000018A30110054B10B5002B03D0DE
:100340000449054800E000BFFFF7CCFF10BDC046E0
:1003500000000000941F012018A301100123834016
:10036000D02212069361936153610022002000E0C5
:100370000132072A0EDCD0231B0680214903996134
:1003800059614000C0B25B689B02F1D5012318435C
:10039000C0B2EDE7704730B501258540D0231B067C
:1003A0009D6100230BE0D02000068024E4018461DD
:1003B0004900D02000068024E404446101339342C4
:1003C00010DAD02000068024E4048461501E0C0062
:1003D00004412000C007E6D5D02000068024E401B7
:1003E0004461E5E7D0231B065D6130BD10B582B0E6
:1003F00001000F4B18880F4B98420DD0014389B272
:100400000B4C218010220F20FFF7C5FF2288094BDB
:100410009A4207D002B010BD00230093009B002B2E
:10042000FCD1EBE700230193019B002BFCD1F1E70A
:10043000F62A01200920000010B582B00E4B984228
:100440000DD00E4C21888143218010220F20FFF710
:10045000A2FF2288084B9A4207D002B010BD0023A9
:100460000093009B002BFCD1EBE700230193019B41
:10047000002BFCD1F1E7C04609200000F62A01203C
:1004800010B5174B1B78042B21D010D8012B18D096
:10049000032B1BD10CF0B6FD124B1B68002B15D0A3
:1004A000104B00221A600E4B04321A700EE0052B1E
:1004B0000CD10D4B1B68002B08D0094B01221A7080
:1004C00004E00CF087FD064B03221A7010BD0CF0FF
:1004D0009FFD054B00221A60014B05321A70F5E7AB
:1004E000C8040020BC290120B824012010B500F068
:1004F00063FC0BF0CFFE0CF075FBFFF7C1FF0BF0B8
:1005000023FCF4E710B50CF021FC00F055FC0BF0D7
:10051000C1FE0CF067FB0BF017FC10BD10B51B20E3
:100520000CF012FED024240680231B056362636155
:100530000D200CF009FE0E200CF006FE0F200CF032
:1005400003FE16200CF000FE15200CF0FDFD1A2015
:100550000CF0FAFD13200CF0F7FD14200CF0F4FD64
:1005600012200CF0F1FD00200CF0EEFD01200CF04B
:10057000EBFD02200CF0E8FD03200CF0E5FD04206B
:100580000CF0E2FD05200CF0DFFD06200CF0DCFD98
:1005900007200CF0D9FD0122002100200CF0BAFD4B
:1005A0000122002101200CF0B5FD012200210220D2
:1005B0000CF0B0FD0122002103200CF0ABFD012264
:1005C000002104200CF0A6FD0122002105200CF0E2
:1005D000A1FD0122002106200CF09CFD012200213A
:1005E00007200CF097FD0A200CF0AEFD0B200CF05C
:1005F000ABFD0C200CF0A8FD11200CF0A5FD102087
:100600000CF0A2FD0022012110200CF083FD00223D
:10061000012111200CF07EFD8023DB01636280222A
:100620009201A262636280231B0263628023DB0368
:10063000636280239B03A3628023DB0463628023C5
:100640001B03636280235B0363628022D2026262C7
:100650008022D200626280221201626280225201F4
:10066000626263610120FFF7C1FE0A200DF0CCFB3E
:1006700000F07CF800F046F910F0ACFF01F0C0FA91
:100680000AF01AFB0D4813F095FE0CF08BFA01F0FE
:10069000FBFA002402E00CF059FB01349F2CFADD38
:1006A000074B1B68002B06D0064B01221A60054B36
:1006B0001B68002BFBD101F00DFBFCE7ED040010E3
:1006C0005C250120B824012082B003000190642041
:1006D0005843002801D00138FBE702B0704700B54D
:1006E00083B080236A461371793B03405020404217
:1006F0001843507101AA022178200BF03CFF03B08F
:1007000000BD10B582B001AA802111700309102428
:100710002343537091700F231840D0707C39782098
:100720000BF029FF02B010BD10B5054B1A887F21D0
:1007300011401980034B18680822FFF72CFE10BDEA
:10074000F82A012024A3011010B5064B1988802235
:10075000114389B21980044B18680822FFF71BFE69
:1007600010BDC046F82A012024A3011010B5FFF7E0
:10077000EBFFFA24E4002000FFF7A6FFFFF7D4FF09
:100780002000FFF7A1FFFFF7DFFF2000FFF79CFF2E
:100790000BF056FE78200BF06BFE80200BF068FE0D
:1007A000AE200BF065FE80200BF062FED5200BF032
:1007B0005FFE80200BF05CFEA0200BF059FE802035
:1007C0000BF056FEA8200BF053FE80200BF050FEDD
:1007D0001F200BF04DFE80200BF04AFED3200BF0C3
:1007E00047FE80200BF044FE00200BF041FE8020ED
:1007F0000BF03EFEAD200BF03BFE80200BF038FEF0
:100800008E200BF035FE80200BF032FED8200BF04E
:100810002FFE80200BF02CFE05200BF029FE8020FF
:100820000BF026FEA1200BF023FE80200BF020FE13
:10083000C8200BF01DFE80200BF01AFEDA200BF012
:1008400017FE80200BF014FE12200BF011FE80200A
:100850000BF00EFE91200BF00BFE80200BF008FE3B
:100860003F200BF005FE80200BF002FE3F200BF036
:10087000FFFD80200BF0FCFD3F200BF0F9FD8020F8
:100880000BF0F6FD3F200BF0F3FD80200BF0F0FDA8
:1008900081200BF0EDFD80200BF0EAFD184B18785D
:1008A0000BF0E6FD80200BF0E3FDD9200BF0E0FD1E
:1008B00080200BF0DDFDD2200BF0DAFD80200BF064
:1008C000D7FDDB200BF0D4FD80200BF0D1FD3420D0
:1008D0000BF0CEFD80200BF0CBFDA6200BF0C8FD69
:1008E00080200BF0C5FDA4200BF0C2FD80200BF092
:1008F000BFFDAF200BF0BCFD0BF0ACFD10BDC04642
:10090000C904002070B5002503E00BF0A3FD0135FC
:10091000EDB2032D16D82800FFF7E1FE0020FFF707
:10092000F0FE0BF08DFD78200BF0A2FD40200BF0C7
:100930009FFD0024832CE8D800200BF099FD0134A2
:10094000E4B2F7E770BD02000021002005E040009E
:10095000012313401843521001310729F7DD704776
:1009600070B515008400041B64007F340320401A16
:10097000C0B2FFF7B4FEE0B2FFF7C3FE0BF060FDBC
:1009800078200BF075FD40200BF072FD0024042C44
:100990000DDCAB005B190421091B5B18074AD05C16
:1009A000FFF7D1FFC0B20BF063FD0134EFE7002089
:1009B0000BF05EFD0BF04EFD70BDC046CC04002078
:1009C00010B500F0D9F910BD70B50E0014002278F2
:1009D000002A06D0451C01343100FFF7F1FF280042
:1009E000F5E770BD30B585B004000D00054901A8DC
:1009F0000FF08EFB01AA29002000FFF7E5FF05B0EC
:100A000030BDC04630A301100023024A1360024AE1
:100A100013607047C8240120CC24012070B5002544
:100A200008E0202221002800FFF7CAFF0134032C30
:100A3000F7DD0135142D01DC0024F8E7FFF7E4FFB2
:100A400070BD0000064B00221A60064A136801338D
:100A50001360032B02DD130000221A607047C046AA
:100A6000C8240120CC24012070B50400094B19686A
:100A7000094D02002868FFF7A7FF200014F09CFC36
:100A80002B689C4660442860142800DC70BDFFF78A
:100A9000D9FFFBE7CC240120C824012010B5012494
:100AA000064B1C60FA2040000DF0AEF9044B1B68A9
:100AB0009C40D0231B069C6110BDC046782A0120B3
:100AC0002CA30110E0239B00984203D040339842AE
:100AD00004D07047034B00221A60FAE7014B012251
:100AE0001A60F6E7740A0020E8239B0098420CD0B5
:100AF0004033984211D0803B984200D07047002389
:100B00000E4A13600E4A1360F8E70C4A13688021FE
:100B1000C9018C4663441360F0E7094B1B68002B46
:100B200004D1074B802212021A60E7E78022D2012B
:100B300094466344024A1360E0E7C046502A01200D
:100B4000682A012010B5284A136801331360C023B6
:100B50009B00984207D04033984220D0813BFF3B16
:100B600098423BD010BD214C00232380204B1A8893
:100B7000802111407F22114389B219801D4B1868D2
:100B80000822FFF708FC1C48437D022293431A0009
:100B90002188C91202230B4013434375E2E7134C2B
:100BA000238801339BB22380114A108880210140A1
:100BB0007F204340194389B211800E4B18680822E8
:100BC000FFF7E9FB0C48437D022293431A0021887A
:100BD000C91202230B4013434375C3E70BF0F2FF26
:100BE000FFF75CFFBEE7C046882A0120FA2A0120F1
:100BF000F82A012024A30110F02F0120094B1A68C4
:100C000001321A601A68084B9A420ADD054B00222D
:100C10001A60064A136859424B411360044B012283
:100C20001A607047BC2401209F860100C024012067
:100C3000C4240120C0235B00984204D08223FF33E8
:100C4000984205D07047034B1B687F201840F9E796
:100C50000020F7E788290120044A517C80235B4269
:100C60000B435374024B01221A707047F02F01207E
:100C7000B80E00200E4B1B78DAB2012B02D0022AEC
:100C80000BD070471128FCD10A4B5B7C5BB2002B68
:100C9000F7DA074B02221A70F3E71228F1D1044B5E
:100CA00003221A70034A517C7F230B405374E8E7F8
:100CB000B80E0020F02F012070B50C00132800D0D2
:100CC00070BD0E4B1D68681CFA2189000FF078FA80
:100CD0000B4B1B6899420CD00A4B00221A600A4B3E
:100CE0005C55064B1960094A537C20210B43537411
:100CF000E6E7044B01221A60E2E7C0467C240120AB
:100D0000802401203C2A0120D0390220F02F01202C
:100D100010B5054B1B68002B00D110BD034BD97CCF
:100D20001320FFF7C9FFF8E73C2A0120F02F01202C
:100D300010B504000023002000E001338B4204DAE8
:100D4000E25C8242F9DD1000F7E710BD70B50022C9
:100D5000042A0DDC83001B189B18064DEE5C8B00EB
:100D60005B189B18802464423443EC540132EFE753
:100D700070BDC046CC0400200B004900C918CB0050
:100D8000591A0918044B1B685B5C0449CA54044B8C
:100D900001221A607047C0468C2F0120F8300220D3
:100DA0003C250120024B1954024B01221A60704766
:100DB000882F01203C250120F0B583B005200BF0E1
:100DC000F1FA534B1B68002B04D1524B1B68002BCC
:100DD00000D181E000234E4A13604E4A1360002484
:100DE00025E00226FF3631002800FFF7AFFF01950E
:100DF00035000BE0484B1B68002B35D00226FF3630
:100E000031002800FFF7A2FF01953500434B1F6812
:100E1000390020000FF0D4F90600390020000FF04F
:100E2000CFF908002A003100FFF79AFD01343C4B4E
:100E30001B68A34221DB3B4B1B681B5D3A4AD55C18
:100E40003A4A12689342E1D1394B1B68002BDDD03E
:100E5000384B1B68002BCDD02F4B1B68002BC0D00C
:100E6000019580256D00D1E70226FF36310028006C
:100E7000FFF76CFF01953500C8E7002606E02E4B12
:100E80009A5D31001420FFF76BFD0136032EF6DD6D
:100E90006B1EFF3B012B00D901950198431C274A8B
:100EA0009918D35C682293431FD0C2B2244B1A55C1
:100EB0000B78682293431AD06B461D7914212000C9
:100EC0000FF07EF90600142120000FF079F91620AA
:100ED00046431C4880194554114B1C682200124996
:100EE000194810F0D3F900230AE02022DEE720257C
:100EF000E4E716215943134A521800215175013372
:100F0000032BF6DD0E4B00221A5503B0F0BDC04690
:100F10003C250120C4240120902901201C0A002026
:100F2000180A00208C2F0120F83002208829012087
:100F300094290120C0240120882F0120D0E3011032
:100F4000142C0120902F0120102B0120F0B5C64653
:100F500000B5C0235B00984206D08223FF3398423D
:100F600053D004BC9046F0BD4BB2002B14DB0B00F9
:100F7000403BDBB23F2B1AD9072923D804293AD2A8
:100F8000012932D00029ECD00239C9B20129E8D8B0
:100F90004E4B00221A60E4E77F2319404B4B196047
:100FA0004B4B01221A604B4B00221A60D9E73F23BA
:100FB0001940464B1960464B00221A60454B0132DE
:100FC0001A60CEE70B00083BDBB2072BC9D88A10AA
:100FD00001231A40404802604A1013403F4A136000
:100FE000012319403E4B1960BBE7FFF717FD374B54
:100FF00000221A60B5E74A1001231340394A1360F2
:1010000001231940384B1960ABE7384B01221A60B5
:101010002F4B1B68002B13D02C4B1B68344AD15428
:10102000344A012010602F4A1268002A18D0012289
:101030009B18264A1360FF2B02DD1300FF221A6063
:10104000244B1B68002B00D18BE7204B1D68EB174E
:101050005B0FEA1807261640F31A9C46002403E0AB
:1010600001225242E4E70134042C1EDCEA17072374
:1010700013405B19DB109A00D3181B19012290460C
:1010800010006246904040B21B4FFA5C824352B25D
:10109000FA5404273F1B0E003E41370046463E42AD
:1010A000E1D002431448C254DDE70E4B1B68002B0D
:1010B00009D00123ED18054B1D60502D00DC50E7D1
:1010C00050221A604DE701235B42F3E78829012093
:1010D000A02901209C2901204025012094290120DC
:1010E000902901208C29012098290120C424012065
:1010F000F83002203C250120CC040020002380226F
:101100005200934205DC034AD15C034AD1540133B7
:10111000F5E77047F8300220F02F022000238022EC
:101120005200934205DC054AD15C054AD154013393
:10113000F5E7044BFF3A1A607047C046F02F0220D3
:10114000F83002203C25012010B50023002000E0EB
:101150000133072B0EDC40089A000E495158D0226B
:1011600012065268CA40D207F2D58022524210437A
:10117000C0B2EDE7084B1B6896225200934208DA92
:10118000064A5900E2248C54521850700133024A26
:10119000136010BD780E0020C82A0120182D0120F0
:1011A00010B5144B1B6896225200934208DA124A7B
:1011B000590012248C545218507001330D4A136098
:1011C000002309E09A000D49515801228A40D0219C
:1011D00009068A6140080133072B0ADCC207F1D5F2
:1011E0009A000649515801228A40D02109064A61D5
:1011F000F0E710BDC82A0120182D0120780E00202C
:1012000030B583B000230193019C002CFCD1204B0E
:101210001B6896225200934208DA1E4A5900D225D2
:101220008D54521850700133194A1360032318402B
:1012300003281FD1184B1A6801239340D0221206AD
:1012400053617D30FFF7F8F808E0A200134BD25845
:1012500001239340D022120653620134072CF4DD9F
:1012600014E0A2000D4BD25801239340D022120665
:1012700093620134072CF4DD074B1A680123934075
:10128000D022120693618020FFF7D6F803B030BD5C
:10129000C82A0120182D012028A30110780E002053
:1012A000014B18787047C0460B2B012070B5050024
:1012B000354B1870354B1B6896225200934208DA62
:1012C000334A5900162088545218557001332F4A5A
:1012D0001360002441E0EB0703D40820FFF786F8F1
:1012E00039E00820FFF7A8F835E0EB0704D58020A7
:1012F0000001FFF77BF82EE080200001FFF79CF84B
:1013000029E0EB0704D580204001FFF76FF822E0C9
:1013100080204001FFF790F81DE0EB0704D5802006
:101320008001FFF763F816E080208001FFF784F862
:1013300011E0EB0703D51020FFF758F80BE0102061
:10134000FFF77AF807E0EA0715D501229A40130063
:10135000D022120653616D080134072C12DCA30061
:101360000C4A9B58632BEED9643B042BF3D89B00AB
:10137000094AD3589F4601229A401300D0221206F0
:101380009361E8E770BDC0460B2B0120C82A0120FD
:10139000182D0120980E002038A3011030B583B01D
:1013A00000230193019B002BFCD1224A1268962155
:1013B00049008A4208DA20495400D62565540919A3
:1013C000487001321B490A6000281CD14020FFF7F9
:1013D00033F880252D012800FFF708F880246401E8
:1013E0002000FFF703F880208001FEF7FFFF1020A8
:1013F000FEF7FCFFD0231B069D618022D2009A617C
:101400009C6115E00133072B0BDC9A000B49525805
:10141000632AF7D8012191400A00D02109064A62C7
:10142000F0E74020FFF708F8054B1878FFF73EFF7C
:1014300003B030BDC82A0120182D0120980E0020CD
:101440000B2B012070B504000500E0235B009842DF
:101450005DD014D8172809D8032837D3C31E9AB2F1
:10146000142A33D893004A4AD3589F460300813B3D
:10147000FF3B9BB2012B29D8FFF7DCFB32E0D023E6
:101480009B00984217D010D9E8239B00984207D0C0
:1014900029D9F0239B0098422BD02033984215D1B4
:1014A0002000FFF721FB00201CE0803B984227D062
:1014B0004033984204D12000FFF744FB002011E0A4
:1014C000803B984202D10420FEF790FF23B2002B0C
:1014D0004CDB8023DB019C4202D32E4B1D68651937
:1014E0002D4B585D70BD403B9842D9D02033984277
:1014F000ECD12000FFF7E6FAE8E7284B1878F1E78F
:101500000420FEF799FFE1E7FFF7B4FBDEE70BF0FD
:1015100059FBFFF7C3FA0020E4E7214B1868FEF7F8
:101520001DFF7F235840C0B20123984303007F2052
:101530001840194C6075D0231B065A68520B0123C2
:101540001340DB01184302239843164B1A88D2122A
:1015500002231340184360750BF06EFD607DC1E7F8
:10156000FFF7F2FDBEE7FFF79BFEBBE7C0231B02C0
:101570009C4205D90C4B9C4664440C4B185DB1E76A
:10158000094B9C4664440A4B18682418F5E7C0468A
:101590004CA30110502A0120F02F01200C2B012018
:1015A00020A30110FA2A01200080FFFFBC0E0020BA
:1015B000682A012003B2002B10DB8023DB01984254
:1015C0002DD203001A4AD35C1B021A4A90422AD831
:1015D0000130174A105CC01880B27047C0231B024C
:1015E00098420FD9144BC318144AD35C1B02144AF7
:1015F00090420DD9134A94466044104A105CC018BA
:1016000080B2EAE7104B1A680B4BC3189B18EBE744
:101610000C4A944660440C4A12688018EDE70B4B64
:101620001B68C318CEE70130084A12688018D0E75B
:10163000F02F0120FE3F00000080FFFFBC0E0020C5
:10164000FFBF00000180FFFF682A0120502A01200F
:1016500070B504000D000600C1235B0098420DD256
:10166000023B984257D2172840D803B2002B3DD0F6
:1016700017283BD88300334AD3589F46C0239B008A
:10168000984226D00FD9E0239B0098423FD01DD925
:10169000F0239B0098423AD02033984220D0403B20
:1016A00098421DD022E0803B98422CD04033984293
:1016B00003D10420FEF7C0FE18E0013BFF3B984237
:1016C00014D10BF07FFAFFF7E9F91BE0403B984299
:1016D00003D12000FFF736FA14E02033984205D1F9
:1016E0002000FFF701FA0DE0174B197023B2002B11
:1016F00008DB8023DB019C4202D3144B1E68A61931
:10170000134B9D5570BD0420FEF770FEEEE72000E0
:10171000FFF7D8F9EAE7FFF719FCF3E7FFF7CCFA90
:10172000E4E70800FFF73CFDECE70800FFF7BEFD2B
:10173000E8E70800FFF732FEE4E70800FFF760FD86
:10174000E0E7C046A0A301100C2B0120502A012085
:10175000F02F0120002300E00133022B0BD81A01E7
:101760000549525A8242F7D10121044A11601B01F6
:10177000014AD31859607047E80900206829012000
:10178000F8B5B14B1B68002B00D0CEE1F8BD2A01A3
:10179000AE4B9B185B68002B1BD10135022DF5D891
:1017A0002A01AA4B9B189B68002B03D0A84B1B7ADD
:1017B000DB06F2D42A01A54B9B18DB68002BE6D090
:1017C000A44B1B68002BE2D0A04B9B1800225A6050
:1017D000E3E700239C4A13609C4E2F01F2195360EB
:1017E0009B4CA088431EA3802178FFF731FFA0887F
:1017F000431EA3802188090AFFF72AFFA088431E01
:10180000A380A178FFF724FFA088431EA3806188EE
:10181000090AFFF71DFFA088431EA380A179FFF7E7
:1018200017FFA088431EA380E179FFF711FFA0886E
:10183000431EA380217AFFF70BFFBE5B3400E02339
:101840005B009E427AD015D8172E09D8032E38D3C4
:10185000F31E9AB2142A34D893007F4AD3589F4675
:101860003300813BFF3B9BB2012B2AD83000FFF7AE
:10187000E1F932E0D0239B009E4217D010D9E82333
:101880009B009E4207D044D9F0239B009E4246D045
:1018900020339E4215D13000FFF726F900201CE0CE
:1018A000803B9E4242D040339E4204D13000FFF73D
:1018B00049F9002011E0803B9E4202D10420FEF74E
:1018C00095FD33B2002B68DB8023DB019E4202D3FF
:1018D000624B1C683419624B185D000206B22D0180
:1018E0005A4BED5A0135ADB22C00E0235B009D420E
:1018F00000D1DAE06CD8172D60D8032D00D28EE02D
:10190000EB1E9AB2142A00D989E09300554AD358A5
:101910009F46403B9E42BED020339E42D1D13000F4
:10192000FFF7D0F8CDE7504B1878D6E70420FEF744
:1019300083FDC6E73000FFF79DF9C2E70BF042F9DF
:10194000FFF7ACF80020C8E7484B1868FEF706FD23
:101950007F234340DBB2012293431A007F231340CD
:101960003F4C6375D02212065168490B01220A4090
:10197000D2011343022293433D4A1188C912022225
:101980000A40134363750BF057FB607DA5E7FFF733
:10199000DBFBA2E7FFF784FC9FE7C0231B029E420C
:1019A00005D9344B9C466644334B985D95E7314BE3
:1019B0009C466644314B1B68F618F5E72B00813BCB
:1019C000FF3B9BB2012B2AD82800FFF733F932E006
:1019D000D0239B009D4217D010D9E8239B009D4245
:1019E00007D04DD9F0239B009D424FD020339D421C
:1019F00015D12800FFF778F800201CE0803B9D42BD
:101A00004BD040339D4204D12800FFF79BF80020C3
:101A100011E0803B9D4202D10420FEF7E7FC2BB28F
:101A2000002B71DB8023DB019D4202D30B4B1C6832
:101A30002C190B4B185D00B20643054A1680137A29
:101A400010210B431372A1E668290120E809002048
:101A5000742F0120740A002000A40110502A0120D4
:101A6000F02F012054A401100C2B012020A3011001
:101A7000FA2A01200080FFFFBC0E0020682A012006
:101A8000403B9D42B5D020339D42C8D12800FFF78E
:101A900019F8C4E7264B1878CDE70420FEF7CCFCF4
:101AA000BDE72800FFF7E6F8B9E70BF08BF8FEF783
:101AB000F5FF0020BFE71F4B1868FEF74FFC7F23A0
:101AC0004340DBB2012293431A007F2313401A4C98
:101AD0006375D02212065168490B01220A40D201D7
:101AE000134302229343154A1188C91202220A4065
:101AF000134363750BF0A0FA607D9CE7FFF724FBAE
:101B000099E7FFF7CDFB96E7C0231B029D4205D95D
:101B10000B4B9C4665440B4B585D8CE7084B9C4631
:101B20006544094B1B68ED18F5E7002536E6C0460D
:101B30000C2B012020A30110F02F0120FA2A0120F4
:101B40000080FFFFBC0E0020682A0120F8B50CF0D1
:101B5000F7F904000D00244B1B68002B07D0234B22
:101B60001A685B68801A99410A1E27D123D0204B3E
:101B70001A685B6820002900801A99410600002934
:101B800003D117D11B498E4214D91A4800211218CB
:101B90004B4117490A604B60144B1A685B68200080
:101BA0002900801A99410A1E16D112D00E4A1368D4
:101BB00001331360F8BD104B9842D8D90B4B1C6011
:101BC0005D600E48FFF7C6FD074A1368013B1360CE
:101BD000CDE7094B9842E9D9044B1C605D6007488A
:101BE000FFF7B8FDE6E7C046382A0120781F01203C
:101BF000801F012040420F00400D0300FCFF000049
:101C000010B5174B1B68002B0FD0012B1AD0FEF715
:101C100005FF1449144BCA5C1202144BCB5C1343EE
:101C2000134A1380F123137210BD124B10221A6055
:101C3000114C20212000FFF77BF8104B1860104B4F
:101C40001C60E4E70B4B14221A600E4C502120005C
:101C5000FFF76EF8094B1860094B1C60D7E7C046C8
:101C6000700A0020BC0E0020FE7F0000FF7F0000F5
:101C7000742F01201C0A0020C00E0120180A002029
:101C80008C2F0120200A00200C4B1A880C4B1B883B
:101C90009A420ED00B4B00221A750A4A537D02213C
:101CA0008B435375084B00221A80084B01321A608F
:101CB0007047074B1A68034B1A75EEE7F42A0120A8
:101CC000F22A0120F02F0120FA2A0120802A012087
:101CD000BC0E0120F0B5DE4657464E464546E0B5FF
:101CE000ADB000230B930993039311932493259391
:101CF0000E930A9312932693279328931393299371
:101D00000F93209314932193169322931793239365
:101D1000189310930493199355E0C0231B029F421C
:101D200006D9B94BFB18B94AD25CB94B1A7059E0C5
:101D3000B84B1A68B44BFB189B18F4E7B64B1B68FA
:101D4000FB184BE0B54BDA79598852185A80B34AE0
:101D5000138801331380B24A13880C339BB213806B
:101D600019000C39AF4A128891420BDA934209D319
:101D7000AD4A137840210B43DBB213701B0701D52A
:101D800008F013FEA94A138801339BB21380002B7D
:101D90000AD1A74A138801339BB213808022D20054
:101DA000934201D108F006FEFEF728FFFFF7E8FC9A
:101DB000FEF7AEFF9F4A1368591C11609E4A93427A
:101DC00001DD08F0FFFD954B1F8800229B5E002B74
:101DD000A3DB8023DB019F42B0D23B00974AD25C59
:101DE0008B4B1A70964B00221A60964B1F60884BE3
:101DF0001B789A0094498A589746C92B00D1C4E0B1
:101E000033D8A92B00D1ADE01CD9B92B69D101374A
:101E1000B8B2FFF717FB87B23F02BFB27F4D2888E9
:101E2000023080B2FFF70EFB80B2381880B2FFF7A5
:101E300009FB0B902B8801339BB201332B80AB1D28
:101E400005934EE0892B41D0992B4AD10137B8B286
:101E5000FFF7F8FA80B2FFF7F5FA0B906F4B1A888C
:101E600001321A80063305933BE0E92B00D198E05C
:101E7000F92B1AD10137B8B2FFF7E4FA87B23F0263
:101E8000BFB2664D2888023080B2FFF7DBFA80B21D
:101E9000381880B2FFF7D6FA0B902B8801339BB22B
:101EA00001332B80EB1D05931BE0D92B19D1013792
:101EB000B8B2FFF7C7FA80B2FFF7C4FA0B90574BDE
:101EC0001A8801321A80073305930AE00137B8B245
:101ED000FFF7B8FA0B90514B1A8801321A8006337B
:101EE0000593059802784D4B197A01230B400B9905
:101EF0008C466344DBB29B18DBB2037050B20028FF
:101F000062DB002802DB0B99090668D443490B7A8F
:101F10000225AB430B72059B1B78002B63D13F4915
:101F20000B7A04252B430B72059B1B785BB2002BAD
:101F30005FDB3A490B7A0825AB430B7200285EDB66
:101F40000B9B1B0600D581E0059B1B785BB2002B29
:101F500002DB002800DA7FE030490B7A012083435E
:101F60000B727EE02D4D6B8899460137B8B2FFF7B2
:101F700069FA80B2484480B2FFF764FA0B902B886C
:101F800001332B80AB1D0593ABE70137B8B2FFF7E8
:101F900059FA0B90214B1A8801321A8007330593A6
:101FA0009FE71E4D6B8899460137B8B2FFF74AFA92
:101FB00080B2484480B2FFF745FA0B902B8801337A
:101FC0002B80EB1D05938CE709069AD459B20029A2
:101FD00097DB12490B7A02252B430B729BE75BB20E
:101FE000002B93DAF5E70D490B7A0425AB430B720E
:101FF0009AE70A490B7A08252B430B729EE70B9B45
:102000001B069DD528E0C0460080FFFFBC0E0020C7
:10201000F1300220682A0120502A0120742F01206B
:10202000022B0120002B01200C2B0120FC2A012077
:10203000FE2A0120C42A012010270000F02F0120D1
:10204000F4300220FC310220A8A40110059B1B786B
:102050005BB2002B00DA77E7BC490B7A012003431F
:102060000B72082319001140134202D00B9B1B076F
:102070000CD40B9B1B0703D5059B1B781B0705D5B1
:10208000059B1B781B0707D4002905D0AF4A137A9C
:1020900020210B4313725AE6AC4A137A20218B435A
:1020A000137254E6BB2B00D1ACE020D9EB2B00D14E
:1020B000CFE044D9FB2B5AD10137B8B2FFF7C2F9B0
:1020C00087B23F02BFB2A14D2888023080B2FFF72D
:1020D000B9F980B2381880B2FFF7B4F909902B88AB
:1020E00001339BB201332B80EB1D02933FE09B2B0E
:1020F00079D014D9AB2B3AD1944D6B8899460137DE
:10210000B8B2FFF79FF980B2484480B2FFF79AF95E
:1021100009902B8801332B80AB1D029327E01B2BEA
:1021200020D08B2B23D10137B8B2FFF78BF9099060
:10213000864B1A8801321A800633029317E0CB2BA4
:102140007BD0DB2B13D10137B8B2FFF77BF980B21C
:10215000FFF778F909907D4B1A8801321A8007330E
:10216000029304E0794BDA790992063302930299DB
:102170000A78099DAB18DBB20B7050B2002800DA68
:102180007AE0002805DB0999090602D45BB2002B2E
:1021900079DB6E490B7A0225AB430B72029B1B78ED
:1021A000002B76D169490B7A04252B430B72029BD5
:1021B0001B785BB2002B72DB64490B7A0825AB43BA
:1021C0000B72002871DB099B1B0672D4029B1B78E3
:1021D0005BB2002B01DB002870DB5C490B7A01202D
:1021E00083430B726FE00137B8B2FFF72BF980B26F
:1021F000FFF728F90990554B1A8801321A800633E7
:102200000293B4E70137B8B2FFF71CF987B23F0277
:10221000BFB24E4D2888023080B2FFF713F980B26A
:10222000381880B2FFF70EF909902B8801339BB262
:1022300001332B80AB1D029399E70137B8B2FFF74A
:1022400001F90990414B1A8801321A800733029331
:102250008DE73E4D6B8899460137B8B2FFF7F2F82B
:1022600080B2484480B2FFF7EDF809902B88013323
:102270002B80EB1D02937AE7290600D481E759B23F
:10228000002900DA7DE731490B7A02252B430B72D6
:1022900084E72E490B7A0425AB430B7287E72B4961
:1022A0000B7A08252B430B728BE7099B1B068AD5FB
:1022B00004E0029B1B785BB2002B87DB23490B7A7F
:1022C000012003430B72082319001140134202D06E
:1022D000099B1B070CD4099B1B0703D5029B1B788A
:1022E0001B0705D5029B1B781B0707D4002905D0C7
:1022F000164A137A20210B43137228E5134A137AE6
:1023000020218B43137222E5E32B00D190E01FD8EC
:10231000C32B77D0D32B16D10137B8B2FFF792F881
:1023200087B23800FFF78EF805000137B8B2FFF723
:1023300089F82D02A9B280B2091889B2034A13881C
:10234000013313802BE0039929E0C046742F01204C
:10235000F32B23D10137B8B2FFF774F885B22D0201
:10236000ADB2BB4F3888023080B2FFF76BF880B255
:102370002D18ADB22800FFF765F881460135A8B2E7
:10238000FFF760F84B46190289B280B2091889B28A
:102390003B8801339BB201333B8000E00399AC4A98
:1023A00093791B02D07902001A43521895B2039513
:1023B00003438022120218001040134201D00B0484
:1023C00053D4002806D10B0404D46B460C229B5E28
:1023D000002B4DDB9E4A137A0225AB431372002873
:1023E00001D00B044FD40B0448D46B460C229B5EE7
:1023F000002B01DB002846D1954A137A01218B433B
:10240000137245E00137B8B2FFF71CF887B23F02FC
:10241000BFB28F4D2888023080B2FFF713F881B227
:10242000791889B22B8801339BB201332B80B6E730
:10243000874B99465D880137B8B2FFF703F880B241
:102440002D18ADB22800FEF7FDFF07000135A8B238
:10245000FEF7F8FF3F02B9B280B2091889B24B46C5
:102460001B8801334A46138099E72BB2002BA8DB67
:10247000774A137A02252B431372B0E76B460C227E
:102480009B5E002BB1DB724A137A01210B4313725E
:10249000039B002B14D16E4A137A04210B43137251
:1024A0006B460C229B5E002B10DB694A137A0821D5
:1024B0008B431372664B03990A0A9A71D97146E4E9
:1024C000634A137A04218B431372E9E7604A137A53
:1024D00008210B431372EDE7612B24D0712B00D13F
:1024E00056E25B4A138801339BB201331380137A9F
:1024F000022293436A4644215218127852B2002AAB
:1025000001DA00F00AFD08229343514A1372119B2D
:10251000002B01D000F007FD4D4A137A04210B4334
:102520001372FFF714FC0237B8B2FEF78BFF87B2C5
:10253000474B58883F18BFB23D00E0235B009F42E5
:1025400000D17DE016D8172F09D8032F3BD3FB1EEF
:102550009AB2142A37D893003E4AD3589F463B007C
:10256000813BFF3B9BB2012B2DD83800FEF762FB6D
:10257000814635E0D0239B009F4218D011D9E82333
:102580009B009F4207D045D9F0239B009F4247D034
:1025900020339F4217D13800FEF7A6FA0023994650
:1025A0001EE0803B9F4243D040339F4205D138001C
:1025B000FEF7C8FA0023994612E0803B9F4202D101
:1025C0000420FDF713FF3BB2002B76DB8023DB01F9
:1025D0009F4202D3204B1D687D19204B5B5D9946BD
:1025E0001B4B1F880137BFB23D00E0235B009F42B9
:1025F00000D1E3E000D97CE0172F70D8032F00D280
:102600009EE0FB1E9AB2142A00D999E09300144A66
:10261000D3589F46403B9F42BDD020339F42D2D1EA
:102620003800FEF74FFACEE70E4B1B789946D7E7F6
:102630000420FDF701FFC6E73800FEF71BFBC2E7E9
:102640000AF0C0FAFEF72AFA00239946C8E7C04606
:10265000742F0120A8A80110502A0120F02F01207A
:10266000FCA801100C2B0120BF4B1868FDF776FE6B
:102670007F2203005340DBB201218B431340BB4D4B
:102680006B75D02212065268520B0A40D2011343D6
:1026900001318B43B64A1288D2120A4013436B753C
:1026A0000AF0CAFC6B7D99469AE7FEF74DFD81461C
:1026B00096E7FEF7F5FD814692E7C0231B029F4295
:1026C00006D9AC4B9C466744AB4BDB5D994687E72C
:1026D000A84B9C466744A94B1B68FF18F4E73B00D6
:1026E000813BFF3B9BB2012B2AD83800FEF7A2FAB0
:1026F00032E0D0239B009F4217D010D9E8239B00E3
:102700009F4207D045D9F0239B009F4247D02033FA
:102710009F4215D13800FEF7E7F900201CE0803B0E
:102720009F4243D040339F4204D13800FEF70AFA5B
:10273000002011E0803B9F4202D10420FDF756FEAD
:102740003BB2002B66DB8023DB019F4202D38C4B24
:102750001D687D19854B585D4B460340DBB21193D4
:10276000884B1F880237BFB23D00E0235B009F42C9
:1027700000D1BBE069D8172F5DD8032F00D28BE0C2
:10278000FB1E9AB2142A00D986E093007E4AD358E1
:102790009F46403B9F42BDD020339F42D0D138005E
:1027A000FEF790F9CCE7794B1878D5E70420FDF7D0
:1027B00043FEC5E73800FEF75DFAC1E70AF002FA0A
:1027C000FEF76CF90020C7E7674B1868FDF7C6FDF8
:1027D0007F2203005340DBB201218B431340634D42
:1027E0006B75D02212065268520B0A40D201134375
:1027F00001318B435E4A1288D2120A4013436B7533
:102800000AF01AFC687DA7E7FEF79EFCA4E7FEF736
:1028100047FDA1E7C0231B029F4205D9554B9C46AB
:102820006744554BD85D97E7524B9C466744534BE2
:102830001B68FF18F5E73B00813BFF3B9BB2012B78
:102840002AD83800FEF7F6F932E0D0239B009F42E9
:1028500017D010D9E8239B009F4207D031D9F0232D
:102860009B009F4233D020339F4215D13800FEF7A2
:102870003BF900201CE0803B9F422FD040339F4219
:1028800004D13800FEF75EF9002011E0803B9F4242
:1028900002D10420FDF7AAFD3BB2002B52DB8023BE
:1028A000DB019F4202D3364B1D687D192F4B585DCB
:1028B00080B2344B5B88C01880B21199FEF7C8FE15
:1028C0000FE6403B9F42D1D020339F42E4D13800F5
:1028D000FEF7F8F8E0E72D4B1878E9E70420FDF75C
:1028E000ABFDD9E73800FEF7C5F9D5E70AF06AF97C
:1028F000FEF7D4F80020DBE71B4B1868FDF72EFD30
:102900007F2203005340DBB201218B431340174D5C
:102910006B75D02212065268520B0A40D201134343
:1029200001318B43124A1288D2120A4013436B754D
:102930000AF082FB687DBBE7FEF706FCB8E7FEF70E
:10294000AFFCB5E7C0231B029F4205D9094B9C464B
:102950006744094BD85DABE7064B9C466744074B81
:102960001B68FF18F5E7C04620A30110F02F0120D7
:10297000FA2A01200080FFFFBC0E0020682A0120F7
:10298000502A0120742F012050A901100C2B012086
:102990000237BFB23D00E0235B009F4274D015D8E0
:1029A000172F09D8032F38D3FB1E9AB2142A34D814
:1029B0009300BD4AD3589F463B00813BFF3B9BB2EF
:1029C000012B2AD83800FEF735F932E0D0239B00DE
:1029D0009F4217D010D9E8239B009F4207D03ED9D1
:1029E000F0239B009F4240D020339F4215D13800F6
:1029F000FEF77AF800201CE0803B9F423CD0403339
:102A00009F4204D13800FEF79DF8002011E0803B82
:102A10009F4202D10420FDF7E9FC3BB2002B5FDBB3
:102A20008023DB019F4202D3A04B1D687D19A04B80
:102A3000585D87B23D00E0235B009F4200D1D0E0AB
:102A40006AD8172F5DD8032F00D28EE0FB1E9AB2F2
:102A5000142A00D989E09300964AD3589F46403BF8
:102A60009F42C4D020339F42D7D13800FEF72AF8C6
:102A7000D3E7914B1878DCE70420FDF7DDFCCCE7C9
:102A80003800FEF7F7F8C8E70AF09CF8FEF706F8FA
:102A90000020CEE7894B1868FDF760FC7F22030019
:102AA0005340DBB201218B431340814D6B75D02223
:102AB00012065268520B0A40D201134301318B4374
:102AC0007F4A1288D2120A4013436B750AF0B4FA97
:102AD000687DAEE7FEF738FBABE7FEF7E1FBA8E762
:102AE000C0231B029F4205D9764B9C466744764B18
:102AF000D85D9EE7734B9C466744744B1B68FF1878
:102B0000F5E73B00813BFF3B9BB2012B2DD8380002
:102B1000FEF790F8814635E0D0239B009F4218D005
:102B200011D9E8239B009F4207D044D9F0239B0092
:102B30009F4246D020339F4217D13800FDF7D4FF83
:102B4000002399461EE0803B9F4242D040339F4283
:102B500005D13800FDF7F6FF0023994612E0803BCF
:102B60009F4202D10420FDF741FC3BB2002B68DB01
:102B70008023DB019F4202D34C4B1D687D194C4BD7
:102B80005B5D9946524B1F880137BFB23D00E02381
:102B90005B009F4200D1EEE06FD8172F63D8032F60
:102BA00000D2AAE0FB1E9AB2142A00D9A5E0930035
:102BB000484AD3589F46403B9F42BED020339F4255
:102BC000D3D13800FDF77EFFCFE73B4B1B7899460A
:102BD000D8E70420FDF730FCC7E73800FEF74AF8D5
:102BE000C3E709F0EFFFFDF759FF00239946C9E756
:102BF000324B1868FDF7B2FB7F2203005340DBB273
:102C000001218B4313402A4D6B75D0221206526866
:102C1000520B0A40D201134301318B43284A1288D8
:102C2000D2120A4013436B750AF006FA6B7D99467F
:102C3000A8E7FEF789FA8146A4E7FEF731FB814653
:102C4000A0E7C0231B029F4206D91E4B9C46674447
:102C50001D4BDB5D994695E71A4B9C4667441B4B21
:102C60001B68FF18F4E73B00813BFF3B9BB2012B45
:102C700043D83800FDF7DEFF4BE0D0239B009F4296
:102C800030D029D9E8239B009F4207D05ED9F0239A
:102C90009B009F4260D020339F422ED13800FDF729
:102CA00023FF002035E0C046A4A90110502A0120CE
:102CB000F02F0120F8A901100C2B012020A30110F6
:102CC000FA2A01200080FFFFBC0E0020682A0120A4
:102CD000742F01204CAA0110803B9F4243D0403307
:102CE0009F4204D13800FDF72DFF002011E0803B0A
:102CF0009F4202D10420FDF779FB3BB2002B66DB3B
:102D00008023DB019F4202D3C14B1D687D19C14B5B
:102D1000585D4B460340DBB21193BF4B1F8802370F
:102D2000BFB23D00E0235B009F4200D1B8E069D80C
:102D3000172F5DD8032F00D28BE0FB1E9AB2142A06
:102D400000D986E09300B54AD3589F46403B9F4246
:102D5000A4D020339F42D0D13800FDF7B3FECCE79A
:102D6000AF4B1878D5E70420FDF766FBC5E73800C0
:102D7000FDF780FFC1E709F025FFFDF78FFE00207A
:102D8000C7E7A84B1868FDF7E9FA7F220300534014
:102D9000DBB201218B4313409E4D6B75D02212068E
:102DA0005268520B0A40D201134301318B439E4AB1
:102DB0001288D2120A4013436B750AF03DF9687D00
:102DC000A7E7FEF7C1F9A4E7FEF76AFAA1E7C02377
:102DD0001B029F4205D9954B9C466744944BD85D96
:102DE00097E7924B9C466744924B1B68FF18F5E7A8
:102DF0003B00813BFF3B9BB2012B2AD83800FDF7FB
:102E000019FF32E0D0239B009F4217D010D9E8234E
:102E10009B009F4207D02ED9F0239B009F4230D0C9
:102E200020339F4215D13800FDF75EFE00201CE0E4
:102E3000803B9F422CD040339F4204D13800FDF7A5
:102E400081FE002011E0803B9F4202D10420FDF76B
:102E5000CDFA3BB2002B4FDB8023DB019F4202D334
:102E60006B4B1D687D196B4B585D80B21199FEF755
:102E7000EFFBFFF736FB403B9F42D4D020339F420D
:102E8000E7D13800FDF71EFEE3E7654B1878ECE765
:102E90000420FDF7D1FADCE73800FDF7EBFED8E7B8
:102EA00009F090FEFDF7FAFD0020DEE75D4B1868A3
:102EB000FDF754FA7F2203005340DBB201218B431C
:102EC0001340544D6B75D02212065268520B0A40C3
:102ED000D201134301318B43534A1288D2120A4064
:102EE00013436B750AF0A8F8687DBEE7FEF72CF96E
:102EF000BBE7FEF7D5F9B8E7C0231B029F4205D90F
:102F00004A4B9C4667444A4BD85DAEE7474B9C46CC
:102F10006744484B1B68FF18F5E7082213433E4AF5
:102F20001372FFF7F4FA3C4A137A04218B431372AD
:102F3000FEF70DFFC42B00D1BBE036D8A42B00D187
:102F4000A3E01ED9B42B00D082E00137B8B2FEF75F
:102F500079FA87B23F02BFB22F4D2888023080B283
:102F6000FEF770FA80B2381880B2FEF76BFA83B2BF
:102F700024932B8801339BB201332B80AB1D1A9312
:102F800066E0842B58D0942B62D10137B8B2FEF79B
:102F900059FA80B2FEF756FA83B224931E4B1A8870
:102FA00001321A8006331A9352E0E42B00D18DE0EF
:102FB000F42B1BD10137B8B2FEF744FA87B23F02B7
:102FC000BFB2154D2888023080B2FEF73BFA80B2BE
:102FD000381880B2FEF736FA83B224932B88013377
:102FE0009BB201332B80EB1D1A9331E0D42B2FD1F0
:102FF0000137B8B2FEF726FA80B2FEF723FA83B2A1
:103000002493054B1A8801321A8007331A931FE064
:10301000502A0120F02F0120742F0120A0AA0110B6
:103020000C2B012020A30110FA2A01200080FFFFB1
:10303000BC0E0020682A01200137B8B2FEF702FA60
:1030400083B22493CA4B1A8801321A8006331A932A
:103050001A980378249A13400370C54A137A022100
:103060008B4313720278002A44D104221343C04ACE
:1030700013721A9B1B785BB2002B40DBBC4A137A9D
:1030800008218B431372FEF762FEB94D6B88994697
:103090000137B8B2FEF7D6F980B2484480B2FEF7E5
:1030A000D1F983B224932B8801332B80AB1D1A9363
:1030B000CEE70137B8B2FEF7C5F983B22493AC4B23
:1030C0001A8801321A8007331A93C1E7A84D6B881A
:1030D00099460137B8B2FEF7B5F980B2484480B2DC
:1030E000FEF7B0F983B224932B8801332B80EB1DBC
:1030F0001A93ADE7042293439D4A1372B9E79C4AA1
:10310000137A08210B431372FEF721FE682B00D1BE
:1031100081E045D8482B00D1ADE0582B01D1954B2B
:103120000193019B1B785BB2002B00DAA6E0904A6A
:10313000137A01218B4313728D4BDB68002B00D077
:10314000A2E0019B19784900C9B21970884BDB686D
:10315000002B00D022E1019B1B78002B00D0ADE1B9
:10316000834A137A04210B431372019B1B785BB2D1
:10317000002B00DAA8E17E4A137A08218B431372F0
:103180007B4B1B7A09221A40082A00D1A2E1012AAE
:1031900000D19FE102229343754A1372FEF7D7FDD7
:1031A000782BBED10137B8B2FEF74CF983B21B02BF
:1031B0009DB26F4B1888023080B2FEF743F982B29D
:1031C000AA1893B2120414D4694A0121D16013825F
:1031D0008022D201934202D3674A12689B18674A41
:1031E0009B180193624A138801339BB20133138009
:1031F00097E7C0221202934206D9614A944663447B
:10320000604A9B180193EDE75D4A944663445E4A29
:1032100012689B18F4E7564B5D880137B8B2FEF789
:1032200011F982B2AA1893B2120412D4504A0121A1
:10323000D16013828022D201934202D34E4A126897
:103240009B184E4A9B180193494A138801331380F7
:1032500067E7C0221202934206D9494A9446634462
:10326000484A9B180193EFE7454A94466344464A0F
:1032700012689B18F4E7454B019352E73C4A137AD6
:1032800001210B43137257E7394B188A17280BD8C3
:10329000032800D255E7C31E9AB2142A00D950E77A
:1032A00093003B4AD3589F46B0239B00984234D0AA
:1032B0000FD9E0239B0098422CD018D9F0239B0013
:1032C000984227D02033984217D0403B984214D0E0
:1032D00037E7013BFF3B984223D000D831E7C033AA
:1032E000984200D02DE70420FDF780F829E7403B05
:1032F000984209D02033984202D1FDF7F5FB20E730
:10330000603B984200D01CE7FDF71CFC19E7FDF775
:10331000B1FC16E7FDF7D6FB13E70420FDF78CF8A8
:103320000FE709F04FFCFDF7B9FB0AE7194B1868E6
:10333000FDF714F87F2203005340DBB201208343E2
:1033400013400E494B75D02212065268520B0240B0
:10335000D2011343013083430F4A1288D212024034
:1033600013434B7509F068FEEBE6FDF7EDFEE8E66A
:10337000742F01207B2F0120502A0120F02F0120E3
:103380000080FFFFBC0E0020682A01207A2F012058
:10339000F4AA011020A30110FA2A0120C24B188AB6
:1033A0000200172808D803B2002B19D0172817D805
:1033B0008300BE4DEB589F46B0239B0098425ED0E1
:1033C00018D9E0239B0098425DD029D9F0239B00B7
:1033D000984258D02033984228D0403B984225D07C
:1033E0008023DB01984202D3B14B1A688218B14B9B
:1033F000995426E0013BFF3B98424AD007D9A023CD
:103400009B009842ECD10420FCF7F0FF19E0030088
:10341000813BFF3B9BB2012BE2D8FDF797FD10E00B
:10342000403B984208D02033984202D1FDF75CFB24
:1034300007E0603B9842D3D1FDF784FB01E09E4B4F
:103440001970994B0022DA6085E69C4B1A780902C4
:1034500011431980F5E7994A1388FF2083431943E4
:103460001180EEE7964B1A78090211431980E8E7BC
:10347000934A1388FF20834319431180E1E7042016
:10348000FCF7DAFFDDE7FDF71DFBDAE7FDF714FCDB
:10349000D7E709F097FBFDF701FBD2E70800FDF73E
:1034A0007FFECEE70800FDF7ABFECAE70800FDF798
:1034B000FDFEC6E70800FDF771FFC2E77A4A137AFE
:1034C00004218B43137250E6774A137A08210B4389
:1034D000137255E602221343734A1372FEF737FC48
:1034E00071498A791202CB7913431AB2002A22DB7E
:1034F0006D490A7A012082430A725B009BB2002B5D
:103500001ED169490A7A042002430A721AB2002ABB
:103510001CDB65490A7A082082430A72624A127AE1
:1035200009211140082917D0012915D002218A4309
:103530005D490A7214E00A7A012002430A72DCE74C
:1035400059490A7A042082430A72DFE756490A7A07
:10355000082002430A72E1E702210A4352490A7233
:10356000514A190A9171D371FEF7F1FB672B7CD098
:1035700040D8472B00D1BFE0572B01D1514B0693C8
:10358000069B1B78DB0700D4B9E0474A137A012178
:103590000B431372444BDB68002B00D0B5E0069957
:1035A0000B785B080B7040221A4202D0C03A1343DA
:1035B0000B703D4BDB68002B00D01AE1069B1B789B
:1035C000002B00D0A7E1384A137A04210B43137271
:1035D000354B1B7A0822934301321A40082A00D146
:1035E0009FE1012A00D19CE1022293432E4A1372EB
:1035F000FEF7ADFB772BC3D10137B8B2FDF722FF41
:1036000083B21B029DB2284B1888023080B2FDF7AE
:1036100019FF82B2AA1893B2120414D4224A0121CB
:10362000D16013828022D201934202D3204A1268D1
:103630009B18204A9B1806931B4A138801339BB2A0
:10364000013313809CE7C0221202934206D91E4A1E
:10365000944663441D4A9B180693EDE71A4A944624
:1036600063441B4A12689B18F4E70F4B5D880137CF
:10367000B8B2FDF7E7FE82B2AA1893B2120429D4B9
:10368000094A0121D16013828022D201934202D3E0
:10369000074A12689B18074A9B180693024A138828
:1036A000013313806CE7C046742F012048AB011032
:1036B000502A0120F02F01200C2B0120022B012089
:1036C000002B01207B2F01200080FFFFBC0E00207B
:1036D000682A0120C0221202934206D9B14A9446B8
:1036E0006344B14A9B180693D8E7AE4A94466344B4
:1036F000AE4A12689B18F4E7AD4B069340E7AD4A1B
:10370000137A01218B43137244E7AA4B188A1728B6
:103710000BD8032800D242E7C31E9AB2142A00D95C
:103720003DE79300A44AD3589F46B0239B0098429C
:1037300034D00FD9E0239B0098422CD018D9F02325
:103740009B00984227D02033984217D0403B9842A4
:1037500014D024E7013BFF3B984223D000D81EE75A
:10376000C033984200D01AE70420FCF73FFE16E76A
:10377000403B984209D02033984202D1FDF7B4F97A
:103780000DE7603B984200D009E7FDF7DBF906E75B
:10379000FDF770FA03E7FDF795F900E70420FCF761
:1037A0004BFEFCE609F00EFAFDF778F9F7E6834BDD
:1037B0001868FCF7D3FD7F2203005340DBB20120E1
:1037C000834313407E494B75D02212065268520B38
:1037D0000240D2011343013083437A4A1288D21245
:1037E000024013434B7509F027FCD8E6FDF7ACFC0B
:1037F000D5E6704B188A069B19780200172808D85E
:1038000003B2002B19D0172817D883006E4DEB5840
:103810009F46B0239B0098425ED018D9E0239B00BE
:1038200098425DD029D9F0239B00984258D020338C
:10383000984228D0403B984225D08023DB01984213
:1038400002D3624B1A6882185D4B995426E0013B03
:10385000FF3B98424AD007D9A0239B009842ECD165
:103860000420FCF7C3FD19E00300813BFF3B9BB242
:10387000012BE2D8FDF76AFB10E0403B984208D0EC
:103880002033984202D1FDF72FF907E0603B9842C0
:10389000D3D1FDF757F901E04D4B1970454B00228C
:1038A000DA608BE64B4B1A78090211431980F5E771
:1038B000484A1388FF20834319431180EEE7464BA3
:1038C0001A78090211431980E8E7434A1388FF2058
:1038D000834319431180E1E70420FCF7ADFDDDE7E8
:1038E000FDF7F0F8DAE7FDF7E7F9D7E709F06AF94D
:1038F000FDF7D4F8D2E70800FDF752FCCEE7080048
:10390000FDF77EFCCAE70800FDF7D0FCC6E708001B
:10391000FDF744FDC2E7274A137A04218B43137253
:1039200056E602221343234A1372FEF710FAC52B00
:1039300000D1BEE052D8A52B00D1A6E01ED9B52BF0
:1039400000D089E00137B8B2FDF77CFD87B23F02B5
:10395000BFB2184D2888023080B2FDF773FD80B2E7
:10396000381880B2FDF76EFD83B225932B880133A2
:103970009BB201332B80AB1D2A936DE0852B5FD06A
:10398000952B69D10137B8B2FDF75CFD80B2FDF728
:1039900059FD83B22593074B1A8801321A800633EA
:1039A0002A9359E00080FFFFBC0E0020682A012006
:1039B0007A2F0120742F0120A8AB011020A3011041
:1039C000F02F0120FA2A0120FCAB0110502A01201F
:1039D0000C2B0120022B0120002B0120E52B75D0A0
:1039E000F52B1BD10137B8B2FDF72CFD87B23F0292
:1039F000BFB2BD4D2888023080B2FDF723FD80B2F2
:103A0000381880B2FDF71EFD83B225932B88013351
:103A10009BB201332B80EB1D2A931DE0D52B1BD1CC
:103A20000137B8B2FDF70EFD80B2FDF70BFD83B292
:103A30002593AD4B1A8801321A8007332A930BE085
:103A40000137B8B2FDF7FEFC83B22593A64B1A8866
:103A500001321A8006332A932A9B1B785BB2259A7F
:103A600013405AB2A04B1B7A02218B43002A41D14A
:103A700004210B439C490B72002A40DB9A4A137ABB
:103A800008218B431372FEF762F9974D6B889946B4
:103A90000137B8B2FDF7D6FC80B2484480B2FDF7DA
:103AA000D1FC83B225932B8801332B80AB1D2A9345
:103AB000D2E70137B8B2FDF7C5FC83B225938A4B34
:103AC0001A8801321A8007332A93C5E7864D6B881E
:103AD00099460137B8B2FDF7B5FC80B2484480B2D0
:103AE000FDF7B0FC83B225932B8801332B80EB1DAF
:103AF0002A93B1E704218B437B490B72BCE77A4AD6
:103B0000137A08210B431372FEF721F90137BFB274
:103B10003D00E0235B009F427AD015D8172F09D8CB
:103B2000032F38D3FB1E9AB2142A34D893006F4A5D
:103B3000D3589F463B00813BFF3B9BB2012B2AD8C9
:103B40003800FDF777F832E0D0239B009F4217D072
:103B500010D9E8239B009F4207D044D9F0239B0053
:103B60009F4246D020339F4215D13800FCF7BCFF5E
:103B700000201CE0803B9F4242D040339F4204D152
:103B80003800FCF7DFFF002011E0803B9F4202D1AC
:103B90000420FCF72BFC3BB2002B68DB8023DB010D
:103BA0009F4202D3524B1D687D19524B585D03064C
:103BB00000D51FE14C4B1F880137BFB23D00E02309
:103BC0005B009F4200D1D8E06CD8172F60D8032F3C
:103BD00000D2A5E0FB1E9AB2142A00D9A0E09300FF
:103BE000454AD3589F46403B9F42BED020339F4218
:103BF000D1D13800FCF766FFCDE7404B1878D6E707
:103C00000420FCF719FCC6E73800FDF733F8C2E7DB
:103C100008F0D8FFFCF742FF0020C8E7384B1868CF
:103C2000FCF79CFB7F234340DBB2012293431A0045
:103C30007F2313402F4D6B75D02212065168490B1C
:103C400001220A40D2011343022293432D4A1188D4
:103C5000C91202220A4013436B7509F0EDF9687D21
:103C6000A5E7FDF771FAA2E7FDF71AFB9FE7C0236E
:103C70001B029F4205D9244B9C466744234BD85DC9
:103C800095E7214B9C466744214B1B68FF18F5E7DD
:103C90003B00813BFF3B9BB2012B41D83800FCF736
:103CA000C9FF49E0D0239B009F4217D010D9E823D9
:103CB0009B009F4207D04BD9F0239B009F424DD0E1
:103CC00020339F422CD13800FCF70EFF002033E058
:103CD000803B9F4249D040339F421BD13800FCF7C4
:103CE00031FF002028E0C046742F01205CAC011099
:103CF000502A0120F02F0120B0AC01100C2B012024
:103D000020A30110FA2A01200080FFFFBC0E002032
:103D1000682A0120803B9F4202D10420FCF766FB09
:103D20003BB2002B55DB8023DB019F4202D3C44B07
:103D30001D687D19C34B585D02B2C34B1B78203BF5
:103D4000D9B20F2900D9AAE18B00C049CB589F46B0
:103D5000403B9F42B7D020339F42E1D13800FCF76F
:103D6000B1FEDDE7BA4B1878E6E70420FCF764FB08
:103D7000D6E73800FCF77EFFD2E708F023FFFCF718
:103D80008DFE0020D8E7B34B1868FCF7E7FA7F22D6
:103D900003005340DBB201218B431340A94D6B75E7
:103DA000D02212065268520B0A40D201134301314D
:103DB0008B43A94A1288D2120A4013436B7509F04B
:103DC0003BF9687DB8E7FDF7BFF9B5E7FDF768FA9D
:103DD000B2E7C0231B029F4205D9A04B9C46674413
:103DE0009F4BD85DA8E79D4B9C4667449D4B1B6845
:103DF000FF18F5E79C4B1F880137BFB23D00E02359
:103E00005B009F4263D015D8172F09D8032F38D3F2
:103E1000FB1E9AB2142A34D89300944AD3589F4672
:103E20003B00813BFF3B9BB2012B2AD83800FCF7BB
:103E300001FF32E0D0239B009F4217D010D9E82326
:103E40009B009F4207D02DD9F0239B009F422FD08B
:103E500020339F4215D13800FCF746FE00201CE0BD
:103E6000803B9F422BD040339F4204D13800FCF767
:103E700069FE002011E0803B9F4202D10420FCF744
:103E8000B5FA3BB2002B4EDB8023DB019F4202D30D
:103E90006B4B1D687D196B4B585D82B2013AFF3A3E
:103EA00012B24AE7403B9F42D5D020339F42E8D12F
:103EB0003800FCF707FEE4E7654B1878EDE70420CF
:103EC000FCF7BAFADDE73800FCF7D4FED9E708F0D2
:103ED00079FEFCF7E3FD0020DFE75E4B1868FCF796
:103EE0003DFA7F2203005340DBB201218B43134094
:103EF000544D6B75D02212065268520B0A40D20103
:103F0000134301318B43544A1288D2120A4013439F
:103F10006B7509F091F8687DBFE7FDF715F9BCE70F
:103F2000FDF7BEF9B9E7C0231B029F4205D94B4BF1
:103F30009C4667444A4BD85DAFE7484B9C46674474
:103F4000484B1B68FF18F5E747490B889A18013260
:103F50000A80FDF7FCFE444B197A0523194200D074
:103F60009DE041490B889A1801320A80FDF7EFFE67
:103F70003D4B197A0523194200D190E03A490B884C
:103F80009A1801320A80FDF7E2FE374B1B7ADB07F5
:103F900000D584E034490B889A1801320A80FDF775
:103FA000D6FE314B1B7ADB0700D478E02E490B8814
:103FB0009A1801320A80FDF7CAFE2B4B1B7A5B0769
:103FC0006DD429490B889A1801320A80FDF7BFFE8B
:103FD000254B1B7A5B0762D523490B889A1801325F
:103FE0000A80FDF7B4FE204B1B7A9B0757D41E496D
:103FF0000B889A1801320A80FDF7A9FE1A4B1B7A2A
:104000009B074CD518490B889A1801320A80FDF796
:104010009EFE154B1B7A1B0741D413490B889A1837
:1040200001320A80FDF793FE0F4B1B7A1B0736D532
:104030000D490B889A1801320A80FDF788FEC046A8
:10404000502A0120F02F0120F130022004AD011090
:104050000C2B012020A30110FA2A01200080FFFF71
:10406000BC0E0020682A0120742F012044AD0110ED
:10407000BA4B1B7A0A210B408B4201D0002B0ED188
:10408000B6490B889A1801320A80FDF760FEB34BDF
:104090001B7A0A210B40022B07D0082B05D0AF4A10
:1040A000138801331380FDF752FEAC490B889A1830
:1040B00001320A80FDF74BFEA84B1B7A5907EED45C
:1040C0000A210B408B4201D0002BE8D1A3490B8879
:1040D0009A1801320A80FDF73AFEA04B1B7A590765
:1040E00005D40A210B40082B01D0022BD7D19B49C4
:1040F0000B889A1801320A80FDF729FE974AD37976
:104100009079C21AD2B240B2002829DB002802DB23
:1041100059B2002930DB914D297A0227B94329721F
:10412000002A2DD18D4D297A04273943297252B2A4
:10413000002A2BDB894D297A0827B94329720028E8
:1041400002DB59B200292CDB5BB2002B24DB002AF6
:1041500025DB824A137A01218B431372FDF7F7FDA9
:1041600059B20029D2DB51B20029CFDB7B4D297A2D
:10417000022739432972D3E751B20029CBDAF5E798
:10418000764D297A0427B9432972D0E7734D297AED
:10419000082739432972D2E7002AD8DA01E000283B
:1041A000D7DB6E4A137A01210B431372FDF7CFFD63
:1041B0006A4A137A01218B431372FDF7C8FD674ADF
:1041C000137A10218B431372FDF7C1FD6F2B58D06A
:1041D0001CD84F2B00D184E05F2B01D1604B1F9383
:1041E0005E4BDB68002B00D07EE000231F9A13702B
:1041F0005A4A137A02218B4301398B4304210B4322
:10420000DBB208218B431372FDF7A1FD7F2BE7D1B1
:104210000137B8B2FDF716F983B21B029DB24F4BBE
:104220001888023080B2FDF70DF982B2AA1893B255
:10423000120414D4494A0121D16013828022D20190
:10424000934202D3474A12689B18474A9B181F9310
:10425000424A138801339BB201331380C0E7C02266
:104260001202934206D9414A94466344404A9B183D
:104270001F93EDE73D4A944663443E4A12689B18FB
:10428000F4E7364B5D880137B8B2FDF7DBF882B250
:10429000AA1893B2120412D4304A0121D1601382B9
:1042A0008022D201934202D32E4A12689B182E4AD2
:1042B0009B181F93294A13880133138090E7C0226B
:1042C0001202934206D9294A94466344284A9B180D
:1042D0001F93EFE7254A94466344264A12689B18C9
:1042E000F4E7254B1F937BE71C4B188A0200172825
:1042F00008D803B2002B19D0172817D883001F49FC
:10430000CB589F46B0239B0098426DD019D9E0232B
:104310009B0098426CD03DD9F0239B00984267D017
:10432000203398423CD0403B984239D08023DB0177
:10433000984202D30B4B1A6882180B4B00219954F8
:104340003AE0013BFF3B984259D019D9A0239B008A
:104350009842EBD10420FCF749F82DE0742F01209E
:104360007B2F0120502A0120F02F01200080FFFF29
:10437000BC0E0020682A01207A2F012098AD011080
:104380000300813BFF3B9BB2012BCFD80021FCF700
:10439000DDFD11E0403B984208D02033984202D125
:1043A000FCF7A2FB08E0603B9842BFD1FCF7CAFBD8
:1043B00002E0B94B00221A70B84B0022DA6017E70E
:1043C000B74B1A781A80F7E7B54A1388FF218B4359
:1043D0001380F1E7B34B1A781A80EDE7B14A1388DE
:1043E000FF218B431380E7E70420FCF725F8E3E780
:1043F000FCF768FBE0E70021FCF75EFCDCE708F077
:10440000E1FBFCF74BFBD7E70020FCF7C9FED3E745
:104410000020FCF7F5FECFE70020FCF747FFCBE7D5
:104420000020FCF7BBFFC7E7C12B00D1B5E033D8B4
:10443000A12B00D19EE01CD9B12B69D10137B8B2B4
:10444000FDF700F887B23F02BFB2944D28880230D2
:1044500080B2FCF7F7FF80B2381880B2FCF7F2FFA9
:104460000E902B8801339BB201332B80AB1D2B9315
:104470004EE0812B41D0912B4AD10137B8B2FCF7E5
:10448000E1FF80B2FCF7DEFF0E90844B1A88013208
:104490001A8006332B933BE0E12B00D189E0F12B0E
:1044A0001AD10137B8B2FCF7CDFF87B23F02BFB2D5
:1044B0007A4D2888023080B2FCF7C4FF80B23818E9
:1044C00080B2FCF7BFFF0E902B8801339BB2013303
:1044D0002B80EB1D2B931BE0D12B19D10137B8B2E8
:1044E000FCF7B0FF80B2FCF7ADFF0E906B4B1A8863
:1044F00001321A8007332B930AE00137B8B2FCF778
:10450000A1FF0E90654B1A8801321A8006332B9357
:104510002B9B19780E9A8B1ADBB249B200295BDB10
:10452000002902DB0E9A120661D45C48027A022549
:10453000AA430272002B5ED15848027A04252A430E
:1045400002725BB2002B5CDB5448027A0825AA4356
:104550000272002902DB0E9A12065DD40E9A120630
:1045600055D4002B56DB4D4A137A01218B4313722D
:10457000FDF7EDFB494D6B8899460137B8B2FCF762
:1045800061FF80B2484480B2FCF75CFF0E902B883C
:1045900001332B80AB1D2B93BAE70137B8B2FCF780
:1045A00051FF0E903D4B1A8801321A8007332B932E
:1045B000AEE73A4D6B8899460137B8B2FCF742FF37
:1045C00080B2484480B2FCF73DFF0E902B88013347
:1045D0002B80EB1D2B939BE71206A1D45AB2002A25
:1045E0009EDB2E48027A02252A430272A2E75AB2C3
:1045F000002A9ADAF5E72948027A0425AA430272CA
:104600009FE72648027A08252A430272A1E7002B79
:10461000A7DA01E00029A6DB204A137A01210B4327
:104620001372FDF794FB632B00D17AE03ED8432B45
:1046300000D1A6E0532B01D11B4B0793174BDB682E
:10464000002B00D0A0E0079B1978C943C9B21970AC
:10465000124BDB68002B00D00AE1104A137A0221CA
:104660008B4301210B43DBB21372079A1278002AA5
:1046700000D08DE104221343084A1372079B1B7874
:104680005BB2002B00DA88E1044A137A08218B43DD
:104690001372FDF75CFBC0460C2B0120742F012028
:1046A000022B0120002B01207B2F0120732BC5D171
:1046B0000137B8B2FCF7C6FE83B21B029DB2BA4BFB
:1046C0001888023080B2FCF7BDFE82B2AA1893B2FD
:1046D000120414D4B44A0121D16013828022D20181
:1046E000934202D3B14A12689B18B14A9B180793B0
:1046F000AD4A138801339BB2013313809EE7C02279
:104700001202934206D9AB4A94466344AA4A9B18C4
:104710000793EDE7A74A94466344A84A12689B189A
:10472000F4E7A14B5D880137B8B2FCF78BFE82B28B
:10473000AA1893B2120412D49B4A0121D1601382A9
:104740008022D201934202D3984A12689B18984A59
:104750009B180793944A1388013313806EE7C02295
:104760001202934206D9934A94466344924A9B1894
:104770000793EFE78F4A94466344904A12689B1868
:10478000F4E78F4B079359E7874B188A17280BD804
:10479000032800D257E7C31E9AB2142A00D952E761
:1047A0009300884AD3589F46B0239B00984234D048
:1047B0000FD9E0239B0098422CD018D9F0239B00FE
:1047C000984227D02033984217D0403B984214D0CB
:1047D00039E7013BFF3B984223D000D833E7C03391
:1047E000984200D02FE70420FBF700FE2BE7403B68
:1047F000984209D02033984202D1FCF775F922E79C
:10480000603B984200D01EE7FCF79CF91BE7FCF7E1
:1048100031FA18E7FCF756F915E70420FBF70CFE10
:1048200011E708F0CFF9FCF739F90CE7664B186887
:10483000FBF794FD7F2203005340DBB2012083434A
:1048400013405B494B75D02212065268520B02404E
:10485000D2011343013083435C4A1288D2120240D2
:1048600013434B7508F0E8FBEDE6FCF76DFCEAE658
:104870004D4B188A0200172808D803B2002B19D014
:10488000172817D88300524DEB589F46B0239B0042
:1048900098425ED018D9E0239B0098425DD029D978
:1048A000F0239B00984258D02033984228D0403BB8
:1048B000984225D08023DB01984202D33B4B1A68F3
:1048C00082183B4B995426E0013BFF3B98424AD06B
:1048D00007D9A0239B009842ECD10420FBF786FD6A
:1048E00019E00300813BFF3B9BB2012BE2D8FCF7B0
:1048F0002DFB10E0403B984208D02033984202D173
:10490000FCF7F2F807E0603B9842D3D1FCF71AF9C4
:1049100001E0304B1970244B0022DA609DE62E4BEB
:104920001A78090211431980F5E72B4A1388FF20F2
:10493000834319431180EEE7284B1A78090211438B
:104940001980E8E7254A1388FF2083431943118023
:10495000E1E70420FBF770FDDDE7FCF7B3F8DAE7E9
:10496000FCF7AAF9D7E708F02DF9FCF797F8D2E79A
:104970000800FCF715FCCEE70800FCF741FCCAE78D
:104980000800FCF793FCC6E70800FCF707FDC2E748
:1049900004229343044A137270E6034A137A0821EF
:1049A0000B431372FDF7D3F9742F0120502A012015
:1049B000F02F01200080FFFFBC0E0020682A01209C
:1049C0007A2F0120F8AD011020A30110FA2A01204E
:1049D0004CAE01100C2B0120022B0120002B0120DA
:1049E000AC2B00D17CE01CD88C2B63D09C2B16D137
:1049F0000137B8B2FCF726FD85B22800FCF722FD8E
:104A000007000135A8B2FCF71DFD3F02BBB280B222
:104A10001B189BB2CA490A8801320A8028E00A9B07
:104A200026E0BC2B23D10137B8B2FCF70BFD85B2D1
:104A30002D02ADB2C24F3888023080B2FCF702FDC1
:104A400080B22D18ADB22800FCF7FCFC8146013580
:104A5000A8B2FCF7F7FC4B461B029BB280B21B18B6
:104A60009BB23A88013292B201323A8000E00A9B4E
:104A7000B34A5288D11A89B20A9112B2002A4CDB89
:104A8000002A01DB190453D4AD48017A0225A94359
:104A90000172002A01DB190458D41B044ED46B4662
:104AA00028215B5E002B4FDBA54A137A01218B4343
:104AB000137250E00137B8B2FCF7C4FC87B23F0272
:104AC000BFB29F4D2888023080B2FCF7BBFC83B296
:104AD000FB189BB22A88013292B201322A80C7E7C2
:104AE000974B99465D880137B8B2FCF7ABFC80B2B2
:104AF0002D18ADB22800FCF7A5FC07000135A8B2BF
:104B0000FCF7A0FC3F02BBB280B21B189BB24A4626
:104B10001288013249460A80AAE71804B0D409B2C3
:104B20000029ADDB8648017A022529430172B0E7EE
:104B300069462820095E0029A6DAF3E76B4628219A
:104B40005B5E002BABDA01E0002AADDB7C4A137A16
:104B500001210B4313720A9B002B10D1784A137A60
:104B600004210B4313726B4628229B5E002B0CDB47
:104B7000734A137A08218B431372FDF7E8F8704AE1
:104B8000137A04218B431372EDE76D4A137A0821DF
:104B90000B431372FDF7DBF8694A93790F21194033
:104BA000127A900601D5981D00E01800092900D955
:104BB0000630D10700D560309F2800DD603099288D
:104BC00003DD01210A435E490A72020617D55C49DA
:104BD0000A7A08252A430A72002816D158490A7A07
:104BE00004252A430A7243401B0614D5544A137AFB
:104BF00002210B431372524B9871FDF7A8F85049EC
:104C00000A7A0825AA430A72E6E74D490A7A04257A
:104C1000AA430A72E7E74A4A137A02218B431372C6
:104C2000E9E7092B09D0342B01D0FDF790F8444A6D
:104C30009388013B9380FDF78AF8414A5388013BF2
:104C40009BB25380002B05D1137A04210B431372BE
:104C5000FDF77DF83A4A137A04218B431372FDF76E
:104C600076F86A2B00D17EE036D84A2B00D1AAE034
:104C70005A2B01D1334B9B465B461B78802B00D1CE
:104C8000A4E02F4A137A02218B4313722C4BDB686A
:104C9000002B00D0A0E05B4619780139C9B2197029
:104CA000274BDB68002B00D00AE15B461B78002B0A
:104CB00000D095E1224A137A04210B4313725B461C
:104CC0001B785BB2002B00DA90E11D4A137A0821B1
:104CD0008B431372FDF73BF87A2BCDD10137B8B275
:104CE000FCF7B0FB83B21B029DB2154B1888023053
:104CF00080B2FCF7A7FB82B2AA1893B2120414D4B4
:104D00000F4A0121D16013828022D201934202D343
:104D10000D4A12689B180D4A9B469344084A138813
:104D200001339BB201331380A6E7C02212029342E3
:104D300012D9074A94466344064A9B469344EDE7DA
:104D4000742F01207B2F0120502A0120F02F0120F9
:104D50000080FFFFBC0E0020BB4A94466344BB4A60
:104D600012689B18E8E7BA4B5D880137B8B2FCF7C8
:104D700069FB82B2AA1893B2120412D4B44A012178
:104D8000D16013828022D201934202D3B14A1268C9
:104D90009B18B14A9B469344AD4A13880133138054
:104DA0006AE7C0221202934206D9A74A9446634496
:104DB000AA4A9B469344EFE7A34A94466344A34A16
:104DC00012689B18F4E7A64B9B4655E7A04A137A56
:104DD00002210B43137259E79D4B188A17280BD8F1
:104DE000032800D257E7C31E9AB2142A00D952E70B
:104DF00093009C4AD3589F46B0239B00984234D0DE
:104E00000FD9E0239B0098422CD018D9F0239B00A7
:104E1000984227D02033984217D0403B984214D074
:104E200039E7013BFF3B984223D000D833E7C0333A
:104E3000984200D02FE70420FBF7D8FA2BE7403B3D
:104E4000984209D02033984202D1FBF74DFE22E769
:104E5000603B984200D01EE7FBF774FE1BE7FBF7B0
:104E600009FF18E7FBF72EFE15E70420FBF7E4FA2D
:104E700011E707F0A7FEFBF711FE0CE77A4B186865
:104E8000FBF76CFA7F2203005340DBB2012083431F
:104E9000134071494B75D02212065268520B0240E2
:104EA000D201134301308343704A1288D212024068
:104EB00013434B7508F0C0F8EDE6FCF745F9EAE658
:104EC000634B188A0200172808D803B2002B19D0A8
:104ED000172817D88300664DEB589F46B0239B00D8
:104EE00098425ED018D9E0239B0098425DD029D922
:104EF000F0239B00984258D02033984228D0403B62
:104F0000984225D08023DB01984202D3514B1A6886
:104F10008218514B995426E0013BFF3B98424AD0FE
:104F200007D9A0239B009842ECD10420FBF75EFA3E
:104F300019E00300813BFF3B9BB2012BE2D8FCF759
:104F400005F810E0403B984208D02033984202D147
:104F5000FBF7CAFD07E0603B9842D3D1FBF7F2FDB7
:104F600001E0444B19703A4B0022DA609DE6424B57
:104F70001A78090211431980F5E73F4A1388FF2088
:104F8000834319431180EEE73C4B1A780902114321
:104F90001980E8E7394A1388FF20834319431180B9
:104FA000E1E70420FBF748FADDE7FBF78BFDDAE7E2
:104FB000FBF782FED7E707F005FEFBF76FFDD2E7B0
:104FC0000800FCF7EDF8CEE70800FCF719F9CAE78E
:104FD0000800FCF76BF9C6E70800FCF7DFF9C2E749
:104FE0001B4A137A04218B43137268E6184A137A1A
:104FF00008210B431372FCF7AAFE652B40D0752BDA
:1050000000D109E3124A138801339BB201331380A4
:10501000137A022293436A4648215218127852B2F8
:10502000002A01DA00F0D8FD08229343084A1372DF
:10503000129B002B01D000F0D5FD054A137A042104
:105040000B431372FCF783FE0080FFFF682A0120E8
:10505000742F0120502A0120F02F0120BC0E0020C7
:105060007A2F0120ACAE011020A30110FA2A0120F2
:1050700000AF01100C2B0120022B0120002B01207E
:105080000237BFB23D00E0235B009F4278D015D8C5
:10509000172F09D8032F38D3FB1E9AB2142A34D8FD
:1050A0009300B44AD3589F463B00813BFF3B9BB2E1
:1050B000012B2AD83800FBF7BDFD32E0D0239B003E
:1050C0009F4217D010D9E8239B009F4207D042D9B6
:1050D000F0239B009F4244D020339F4215D13800DB
:1050E000FBF702FD00201CE0803B9F4240D0403394
:1050F0009F4204D13800FBF725FD002011E0803BE2
:105100009F4202D10420FBF771F93BB2002B63DB15
:105110008023DB019F4202D3974B1D687D19974B7B
:10512000585D80B2964B5F88C719BFB23D00E0233F
:105130005B009F4200D1D1E06AD8172F5DD8032FC2
:1051400000D28EE0FB1E9AB2142A00D989E09300A7
:105150008C4AD3589F46403B9F42C0D020339F4249
:10516000D3D13800FBF7AEFCCFE7874B1878D8E7F0
:105170000420FBF761F9C8E73800FBF77BFDC4E7C3
:1051800007F020FDFBF78AFC0020CAE77F4B186878
:10519000FBF7E4F87F2203005340DBB201218B438D
:1051A0001340764D6B75D02212065268520B0A409E
:1051B000D201134301318B43754A1288D2120A403F
:1051C00013436B7507F038FF687DAAE7FBF7BCFF58
:1051D000A7E7FCF765F8A4E7C0231B029F4205D9A7
:1051E0006C4B9C4667446C4BD85D9AE7694B9C4678
:1051F00067446A4B1B68FF18F5E73B00813BFF3BA8
:105200009BB2012B2DD83800FBF714FD814635E009
:10521000D0239B009F4218D011D9E8239B009F42C6
:1052200007D045D9F0239B009F4247D020339F42AF
:1052300017D13800FBF758FC002399461EE0803B4D
:105240009F4243D040339F4205D13800FBF77AFCA0
:105250000023994612E0803B9F4202D10420FBF7D5
:10526000C5F83BB2002B69DB8023DB019F4202D3F0
:10527000414B1D687D19414B5B5D9946404B1F8832
:105280000137BFB23D00E0235B009F4200D1EEE05A
:1052900000D987E0172F63D8032F00D2A9E0FB1EA7
:1052A0009AB2142A00D9A4E093003D4AD3589F46ED
:1052B000403B9F42BDD020339F42D2D13800FBF704
:1052C00001FCCEE7304B1B789946D7E70420FBF76B
:1052D000B3F8C6E73800FBF7CDFCC2E707F072FC75
:1052E000FBF7DCFB00239946C8E7284B1868FBF75F
:1052F00035F87F2203005340DBB201218B4313407A
:105300001E4D6B75D02212065268520B0A40D20114
:10531000134301318B431E4A1288D2120A401343B1
:105320006B7507F089FE6B7D9946A7E7FBF70CFFCD
:105330008146A3E7FBF7B4FF81469FE7C0231B022A
:105340009F4206D9134B9C466744134BDB5D99463D
:1053500094E7104B9C466744104B1B68FF18F4E71A
:105360003B00813BFF3B9BB2012B42D83800FBF74F
:1053700061FC4AE060AF0110502A0120F02F0120AB
:10538000742F0120B4AF01100C2B012020A30110B9
:10539000FA2A01200080FFFFBC0E0020682A0120AD
:1053A00008B00110D0239B009F4217D010D9E823EA
:1053B0009B009F4207D045D9F0239B009F4247D0D6
:1053C00020339F4215D13800FBF78EFB00201CE0F4
:1053D000803B9F4243D040339F4204D13800FBF7CB
:1053E000B1FB002011E0803B9F4202D10420FAF77C
:1053F000FDFF3BB2002B66DB8023DB019F4202D323
:10540000BF4B1D687D19BF4B585D4B465840C3B21A
:105410001293BD4B1F880237BFB23D00E0235B00F3
:105420009F4200D1BBE069D8172F5DD8032F00D26F
:105430008BE0FB1E9AB2142A00D986E09300B34A8F
:10544000D3589F46403B9F42BDD020339F42D0D18E
:105450003800FBF737FBCCE7AD4B1878D5E70420D5
:10546000FAF7EAFFC5E73800FBF704FCC1E707F0ED
:10547000A9FBFBF713FB0020C7E7A64B1868FAF758
:105480006DFF7F2203005340DBB201218B431340A9
:105490009C4D6B75D02212065268520B0A40D20105
:1054A000134301318B439C4A1288D2120A401343A2
:1054B0006B7507F0C1FD687DA7E7FBF745FEA4E724
:1054C000FBF7EEFEA1E7C0231B029F4205D9934BD9
:1054D0009C466744924BD85D97E7904B9C46674447
:1054E000904B1B68FF18F5E73B00813BFF3B9BB2ED
:1054F000012B2AD83800FBF79DFB32E0D0239B001C
:105500009F4217D010D9E8239B009F4207D031D982
:10551000F0239B009F4233D020339F4215D13800A7
:10552000FBF7E2FA00201CE0803B9F422FD0403383
:105530009F4204D13800FBF705FB002011E0803BBF
:105540009F4202D10420FAF751FF3BB2002B52DBFD
:105550008023DB019F4202D3694B1D687D19694B93
:10556000585D80B2684B5B88C01880B21299FCF716
:105570006FF847E5403B9F42D1D020339F42E4D1B2
:105580003800FBF79FFAE0E7614B1878E9E7042061
:10559000FAF752FFD9E73800FBF76CFBD5E707F0C5
:1055A00011FBFBF77BFA0020DBE75A4B1868FAF790
:1055B000D5FE7F2203005340DBB201218B43134011
:1055C000504D6B75D02212065268520B0A40D20120
:1055D000134301318B43504A1288D2120A401343BD
:1055E0006B7507F029FD687DBBE7FBF7ADFDB8E7FC
:1055F000FBF756FEB5E7C0231B029F4205D9474B78
:105600009C466744464BD85DABE7444B9C46674499
:10561000444B1B68FF18F5E70237BFB23D00E0239B
:105620005B009F4200D18EE015D8172F09D8032FB9
:1056300038D3FB1E9AB2142A34D893003A4AD3586E
:105640009F463B00813BFF3B9BB2012B2AD8380091
:10565000FBF7F0FA32E0D0239B009F4217D010D91D
:10566000E8239B009F4207D03FD9F0239B009F4235
:1056700041D020339F4215D13800FBF735FA002086
:105680001CE0803B9F4256D040339F4204D13800FB
:10569000FBF758FA002011E0803B9F4202D1042022
:1056A000FAF7A4FE3BB2002B79DB8023DB019F429B
:1056B00002D3134B1D687D19124B585D87B23D0014
:1056C000E0235B009F4200D1EAE000D983E0172F7E
:1056D00076D8032F00D2A7E0FB1E9AB2142A00D975
:1056E000A2E09300114AD3589F46403B9F42C3D04B
:1056F00020339F42D6D13800FBF7E4F9D2E7C04609
:10570000502A0120F02F0120742F01205CB00110DD
:105710000C2B012020A30110FA2A01200080FFFF9A
:10572000BC0E0020682A0120B0B0011004B10110A5
:10573000B84B1878C2E70420FAF77EFEB2E73800CB
:10574000FBF798FAAEE707F03DFAFBF7A7F9002060
:10575000B4E7B14B1868FAF701FE7F22030053400B
:10576000DBB201218B431340AC4D6B75D022120686
:105770005268520B0A40D201134301318B43A84AAD
:105780001288D2120A4013436B7507F055FC687DEE
:1057900094E7FBF7D9FC91E7FBF782FD8EE7C02386
:1057A0001B029F4205D99F4B9C4667449E4BD85D88
:1057B00084E79C4B9C4667449C4B1B68FF18F5E7AD
:1057C0003B00813BFF3B9BB2012B2DD83800FBF700
:1057D00031FA814635E0D0239B009F4218D011D981
:1057E000E8239B009F4207D044D9F0239B009F42AF
:1057F00046D020339F4217D13800FBF775F90023BC
:1058000099461EE0803B9F4242D040339F4205D1E3
:105810003800FBF797F90023994612E0803B9F423E
:1058200002D10420FAF7E2FD3BB2002B68DB8023B3
:10583000DB019F4202D37E4B1D687D19774B5B5D78
:1058400099467C4B1F880137BFB23D00E0235B00C7
:105850009F4200D1D7E06FD8172F63D8032F00D213
:1058600091E0FB1E9AB2142A00D98CE09300724A90
:10587000D3589F46403B9F42BED020339F42D3D156
:105880003800FBF71FF9CFE7624B1B789946D8E742
:105890000420FAF7D1FDC7E73800FBF7EBF9C3E7BF
:1058A00007F090F9FBF7FAF800239946C9E75A4B3D
:1058B0001868FAF753FD7F2203005340DBB2012141
:1058C0008B431340554D6B75D02212065268520B14
:1058D0000A40D201134301318B43514A1288D2123C
:1058E0000A4013436B7507F0A7FB6B7D9946A8E749
:1058F000FBF72AFC8146A4E7FBF7D2FC8146A0E730
:10590000C0231B029F4206D9464B9C466744464B28
:10591000DB5D994695E7434B9C466744434B1B68C8
:10592000FF18F4E73B00813BFF3B9BB2012B2AD8D9
:105930003800FBF77FF933E0D0239B009F4217D05C
:1059400010D9E8239B009F4207D047D9F0239B0042
:105950009F4249D020339F4215D13800FBF7C4F84D
:1059600000201DE0803B9F4245D040339F4204D140
:105970003800FBF7E7F8002012E0803B9F4202D19D
:105980000420FAF733FD3BB2002B00DA7EE08023DF
:10599000DB019F4202D3264B1D687D191F4B585DCA
:1059A0004B465840C3B21293224B1F880237BFB2F6
:1059B0003D00E0235B009F4200D1D0E000D980E0B1
:1059C000172F74D8032F00D2A2E0FB1E9AB2142A1C
:1059D00000D99DE09300194AD3589F46403B9F420F
:1059E000BBD020339F42CED13800FBF76BF8CAE71B
:1059F000084B1878D4E70420FAF71EFDC3E73800F7
:105A0000FBF738F9BFE707F0DDF8FBF747F80020B0
:105A1000C6E7C0460C2B012020A30110F02F012067
:105A2000FA2A01200080FFFFBC0E0020682A012016
:105A3000502A0120742F012058B10110ACB101107F
:105A4000C74B1868FAF78AFC7F2203005340DBB289
:105A500001218B431340C34D6B75D022120652684F
:105A6000520B0A40D201134301318B43BE4A1288C4
:105A7000D2120A4013436B7507F0DEFA687D8FE798
:105A8000FBF762FB8CE7FBF70BFC89E7C0231B02EB
:105A90009F4205D9B54B9C466744B54BD85D7FE71F
:105AA000B24B9C466744B34B1B68FF18F5E73B00BD
:105AB000813BFF3B9BB2012B2AD83800FBF7BAF899
:105AC00032E0D0239B009F4217D010D9E8239B00DF
:105AD0009F4207D02ED9F0239B009F4230D0203325
