:020000041000EA
:1000000000B5324B212058609868022188439860DF
:10001000D860186158612E4B002199600221596106
:100020000121F02299502B49196001219960352056
:1000300000F044F80222904214D00621196600F024
:1000400034F8196E01211966002018661A6600F04E
:100050002CF8196E196E196E052000F02FF8012189
:100060000842F9D1002199601B49196000215960AB
:100070001A491B48016001219960EB211966A021F2
:10008000196600F012F800219960164914480160C1
:100090000121996001BC002800D000471248134993
:1000A000086003C880F30888084703B5996A0420EC
:1000B0000142FBD001200142F8D103BD02B5186610
:1000C0001866FFF7F2FF186E186E02BD00000240BE
:1000D000000000180000070000035F00212200005C
:1000E000F4000018222000A00001001008ED00E03C
:1000F00000000000000000000000000074B24E7A12
:1001000000200420F7010010C3010010C5010010F9
:10011000C1010010C1010010C1010010C101001097
:10012000C1010010C1010010C1010010C701001081
:10013000C1010010C1010010C9010010CB01001065
:10014000CD010010CD010010CD010010CD01001037
:10015000CD010010CD010010CD010010CD01001027
:10016000CD010010CD010010CD010010CD01001017
:10017000CD010010CD010010CD010010CD01001007
:10018000CD010010CD010010CD010010CD010010F7
:10019000CD010010CD010010CD010010CD010010E7
:1001A000CD010010CD010010CD010010CD010010D7
:1001B000CD010010CD010010CD010010CD010010C7
:1001C00000BE00BE00BE00BE00BE00BE00F04BF888
:1001D000103800BEF2EB8871F4C700101CC8001084
:1001E0003402001090A31AE700202149086006C8D5
:1001F00081F3088810471F48006800282FD10DA4FC
:100200000ECC002902D000F012F8F9E71A491B4A77
:10021000002000E001C19142FCD1194988471949E9
:1002200088471949884700BEFDE701C901C29A42C3
:10023000FBD370471CC80010C0000020D4890020E8
:100240003051011000000420000004203051011042
:1002500000100420001004200000000070470B482C
:1002600006F038FD0047EFF30580C0B2704700008C
:1002700008ED00E0000000D0D8890020A41901207A
:10028000AD510010F10300108952001057560000C4
:1002900006005250ABB3605368BE001006005250C7
:1002A000861C030278BE0010060052505422A29D04
:1002B00088BE001005005250DE65F4683051011010
:1002C000F8B5C0460448054B10B5834203D0044B33
:1002D000002B00D0984710BDD4890020D48900207D
:1002E0000000000006480749091A8B10C90FC918F9
:1002F00010B5491003D0044B002B00D0984710BD17
:10030000D4890020D48900200000000010B5074CDB
:100310002378002B09D1FFF7D5FF054B002B02D026
:10032000044800E000BF0123237010BDE08A0020D4
:1003300000000000D0AC0010054B10B5002B03D01E
:100340000449054800E000BFFFF7CCFF10BDC046E0
:1003500000000000E48A0020D0AC001010B501239A
:100360008340D0221206936153610022002400E0F2
:100370000132072A0EDCD0231B0680214903996134
:1003800059616400E4B25B689B02F1D501231C4310
:10039000E4B2EDE722000321002000F07DFA200006
:1003A00010BD10B501248440D0231B069C6100239E
:1003B0000BE0D02212068020C00190614900D022BB
:1003C00012068020C00450610133072B0CDCD022C0
:1003D00012068020C00490610A06EAD5D0221206D7
:1003E0008020C0015061E9E7D0231B065C6110BD8D
:1003F00010B51B2003F09EFCD024240680231B058F
:10040000636263610E2003F095FC0F2003F092FC01
:10041000162003F08FFC152003F08CFC1A2003F04B
:1004200089FC132003F086FC142003F083FC1120C8
:1004300003F080FC102003F07DFC8023DB0163626D
:1004400080231B0263628023DB03636280239B03A0
:10045000A3628023DB04636280231B036362802327
:100460005B0363626361642004F0C4FA00F0DCF8AB
:1004700000F0A6F907F0F8FC03F0DAFB03F0FAFB52
:10048000FCE782B00300019064205843002801D0AB
:100490000138FBE702B07047044B1A680123934010
:1004A000D0221206936153627047C046D4AC00104C
:1004B000044B1A6801239340D02212065361536201
:1004C0007047C046D4AC0010044B1A680123934017
:1004D000D0221206936153627047C046D0AC001020
:1004E000044B1A6801239340D022120653615362D1
:1004F0007047C046D0AC001010B5FFF7D9FFFFF72A
:10050000EFFFFFF7C9FFFFF7DFFF10BD10B5FFF7E3
:10051000C3FFFFF7E5FFFFF7CBFF10BD10B50B4B97
:100520001A6801239340D02212069362FFF7D8FF86
:100530000123012B07D0FFF7C7FF10BD01320023B5
:10054000002AFBDDF5E70022F9E7C046D4AC001035
:1005500070B50400002507E0FFF7AAFFFFF7C0FF12
:100560006400E4B20135EDB2072D07D8FFF7ACFF08
:1005700063B2002BF0DBFFF78FFFEFE7FFF7A4FF7D
:10058000FFF7CCFF70BD10B50400FFF7B5FF782072
:10059000FFF7DEFF8020FFF7DBFF0720044057381E
:1005A000204340B2C0B2FFF7D3FFFFF7AFFF10BD4B
:1005B00010B50400FFF7A0FF7820FFF7C9FF8020E7
:1005C000FFF7C6FF230910201843C0B2FFF7C0FF92
:1005D0008020FFF7BDFF0F202040FFF7B9FFFFF796
:1005E00095FF10BD10B5054B1A787F211140197089
:1005F000034B1868FFF7D5FE10BDC046AC94002031
:10060000DCAC001010B5064B1A788021494211432A
:10061000C9B21970034B1868FFF7C3FE10BDC0467E
:10062000AC940020DCAC001010B5FFF7EBFFFA240F
:10063000E4002000FFF725FFFFF7D4FF2000FFF7BD
:1006400020FFFFF7DFFF2000FFF71BFFFFF754FF3E
:100650007820FFF77DFF8020FFF77AFFAE20FFF7BD
:1006600077FF8020FFF774FFD520FFF771FF802010
:10067000FFF76EFFA020FFF76BFF8020FFF768FFFA
:10068000A820FFF765FF8020FFF762FF1F20FFF71C
:100690005FFF8020FFF75CFFD320FFF759FF80202A
:1006A000FFF756FF0020FFF753FF8020FFF750FFB2
:1006B000AD20FFF74DFF8020FFF74AFF8E20FFF7A8
:1006C00047FF8020FFF744FFD820FFF741FF80203D
:1006D000FFF73EFF0520FFF73BFF8020FFF738FFC5
:1006E000A120FFF735FF8020FFF732FFC820FFF77A
:1006F0002FFF8020FFF72CFFDA20FFF729FF802053
:10070000FFF726FF1220FFF723FF8020FFF720FFCF
:100710009120FFF71DFF8020FFF71AFF3F20FFF712
:1007200017FF8020FFF714FF3F20FFF711FF802005
:10073000FFF70EFF3F20FFF70BFF8020FFF708FFBA
:100740003F20FFF705FF8020FFF702FF8120FFF722
:10075000FFFE8020FFF7FCFE184B1878FFF7F8FE2D
:100760008020FFF7F5FED920FFF7F2FE8020FFF78B
:10077000EFFED220FFF7ECFE8020FFF7E9FEDB2042
:10078000FFF7E6FE8020FFF7E3FE3420FFF7E0FEF0
:100790008020FFF7DDFEA620FFF7DAFE8020FFF7BE
:1007A000D7FEA420FFF7D4FE8020FFF7D1FEAF20B4
:1007B000FFF7CEFEFFF7AAFE10BDC046C80400201A
:1007C00070B5002503E0FFF7A1FE0135EDB2032D62
:1007D00016D82800FFF7D7FE0020FFF7E9FEFFF745
:1007E0008BFE7820FFF7B4FE4020FFF7B1FE002417
:1007F000832CE8D80020FFF7ABFE0134E4B2F7E722
:1008000070BD02000021002005E0400001231340DC
:100810001843521001310729F7DD704770B51500F4
:100820008400041B64007F340320401AC0B2FFF729
:10083000AAFEE0B2FFF7BCFEFFF75EFE7820FFF7EE
:1008400087FE4020FFF784FE0024042C0DDCAB0063
:100850005B190421091B5B18074AD05CFFF7D1FF25
:10086000C0B2FFF775FE0134EFE70020FFF770FE1E
:10087000FFF74CFE70BDC046E8AC001070B50E002E
:1008800014002278002A06D0451C01343100FFF7FD
:10089000C5FF2800F5E770BD30B585B004000D0038
:1008A000054901A806F0EAF901AA29002000FFF78E
:1008B000E5FF05B030BDC046E0AC001070477047A2
:1008C00070470000024BDA79598852185A807047F5
:1008D000B4950020054B588899790902DA790A43C2
:1008E0005A80020A9A71D8717047C046B4950020A8
:1008F000024A5388013B93807047C046B49500205C
:10090000024A9388013353807047C046B495002053
:100910000F4A9379D371127A02218A43002B0CD1AA
:1009200004210A430A490A725BB2002B0ADB084A17
:10093000137A08218B431372704704218A430449B8
:100940000A72F1E7024A137A08210B431372F3E7A4
:10095000B49500200F4AD3799371127A02218A4309
:10096000002B0CD104210A430A490A725BB2002B06
:100970000ADB084A137A08218B431372704704215B
:100980008A4304490A72F1E7024A137A08210B43A9
:100990001372F3E7B4950020054A137A3F218B4385
:1009A0001900062010563F2303400B431372704773
:1009B000B4950020014B1A7A9A717047B4950020C3
:1009C000024A137A01218B4313727047B4950020B9
:1009D000024A137A01210B4313727047B495002029
:1009E000024A137A10210B4313727047B49500200A
:1009F000024A137A10218B4313727047B49500207A
:100A0000092802D0342812D070470B4A5388013B82
:100A10009BB25380002B04D1137A04210B43137231
:100A2000F2E7054A137A04218B431372ECE7024A7A
:100A30009388013B9380E7E7B4950020082802D013
:100A4000312812D070470B4A538801339BB2538030
:100A5000002B04D1137A04210B431372F2E7054AE9
:100A6000137A04218B431372ECE7024A9388013313
:100A70009380E7E7B495002053B2002B09DB12B254
:100A80002038C3B20F2B00D989E09800594B1B586E
:100A90009F46013AFF3AF3E757490B889A1801320B
:100AA0000A8080E0544B1B7A0521194200D076E081
:100AB00051490B889A1801320A8074E04E4B1B7A18
:100AC000052119426BD04C490B889A1801320A80D3
:100AD00069E0494B1B7ADB0761D447490B889A18B8
:100AE00001320A805FE0444B1B7ADB0757D542494D
:100AF0000B889A1801320A8055E03F4B1B7A5B073E
:100B00004DD43D490B889A1801320A804BE03A4B8C
:100B10001B7A5B0743D538490B889A1801320A8043
:100B200041E0354B1B7A9B0739D433490B889A181F
:100B300001320A8037E0304B1B7A9B072FD52E49B4
:100B40000B889A1801320A802DE02B4B1B7A1B0769
:100B500025D429490B889A1801320A8023E0264BB4
:100B60001B7A1B071BD524490B889A1801320A806F
:100B700019E0214B197A0A230B400A2B01D0002BD4
:100B80000DD11D490B889A1801320A800BE01A4BCF
:100B9000197A0A230B40022B06D0082B04D0164AE0
:100BA000138801331380704713490B889A18013258
:100BB0000A80F8E7104B1B7A5907F0D40A210B4042
:100BC0000A2B01D0002BEAD10B490B889A1801326D
:100BD0000A80E8E7084B1B7A590705D40A210B4025
:100BE000082B01D0022BDAD103490B889A18013265
:100BF0000A80D8E768AF0010B495002010B5224BEA
:100C00009A790F201040197A8B0628D5931D092850
:100C100000D90633C80700D560339F2B00DD603351
:100C2000992B03DD0120014317480172190618D5DD
:100C30001548017A082421430172002B17D112486C
:100C4000017A0424214301725A40120615D50E4937
:100C50000A7A022002430A720B4A937110BD1300F4
:100C6000D5E70948017A0824A1430172E5E706485F
:100C7000017A0424A1430172E6E703490A7A0220BB
:100C800082430A72E8E7C046B4950020094A917988
:100C9000D3794B43190A9171D3711B0604D5137A8A
:100CA00001210B4313727047024A137A01218B43CF
:100CB0001372F8E7B495002030B52C4BD9799A79A6
:100CC000531ADBB252B2002A28DB002A02DB48B2F8
:100CD00000282FDB254C207A0225A8432072002B08
:100CE0002CD1224C207A0425284320725BB2002BA1
:100CF0002ADB1E4C207A0825A8432072002A02DB3A
:100D000048B200282BDB49B2002923DB002B24DB6F
:100D1000164A137A01218B43137225E048B200284A
:100D2000D3DB58B20028D0DB104C207A02252843B0
:100D30002072D4E758B20028CCDAF5E70B4C207AC1
:100D40000425A8432072D1E7084C207A08252843BF
:100D50002072D3E7002BD9DA01E0002AD8DB034A5E
:100D6000137A01210B43137230BDC046B4950020A5
:100D700030B52C48C1798279531ADBB2837152B2F3
:100D8000002A28DB002A02DB48B200282FDB254C92
:100D9000207A0225A8432072002B2CD1214C207AE6
:100DA0000425284320725BB2002B2ADB1D4C207ADD
:100DB0000825A8432072002A02DB48B200282BDB5A
:100DC00049B2002923DB002B24DB164A137A0121C8
:100DD0008B43137225E048B20028D3DB58B20028B9
:100DE000D0DB104C207A022528432072D4E758B279
:100DF0000028CCDAF5E70B4C207A0425A8432072B2
:100E0000D1E7084C207A082528432072D3E7002B2D
:100E1000D9DA01E0002AD8DB024A137A01210B4318
:100E2000137230BDB495002010B51B4A93791B0294
:100E3000D2791343D2071DD517490A7A01200243FC
:100E40000A725808144A127AD10719D502210A43A6
:100E500011490A72002818D10F490A7A0424224342
:100E60000A720D4A117A0824A14311725B0A937128
:100E7000D07110BD08490A7A012082430A72E0E766
:100E800002218A4304490A72E4E703490A7A0424E6
:100E9000A2430A72E5E7C046B495002022498A7948
:100EA0001202CB7913431AB2002A22DB1E490A7AB6
:100EB000012082430A725B009BB2002B1ED11A49AB
:100EC0000A7A042002430A721AB2002A1CDB16496D
:100ED0000A7A082082430A72134A127A09211140C1
:100EE000082917D0012915D002218A430E490A7218
:100EF00014E00A7A012002430A72DCE70A490A7AFE
:100F0000042082430A72DFE707490A7A0820024375
:100F10000A72E1E702210A4303490A72024A190AE6
:100F20009171D3717047C046B49500206E2807D0E8
:100F30007E2804D112021A43013A054B1A807047E9
:100F4000034B5988521892B2013A1A80F7E7C0460B
:100F5000B495002010B51B4A136801331360C023F9
:100F60009B00984203D04033984214D010BD164CD9
:100F700000232370154B19787F2291431143C9B286
:100F80001970134B1868FFF70CFA2278022103201E
:100F9000FFF782FCEAE70C4C23780133DBB22370C5
:100FA0000A4A11787F20814343401943C9B2117026
:100FB000074B1868FFF7F5F9227802210320FFF7A5
:100FC0006BFCD3E768940020AD940020AC94002023
:100FD000DCAC0010094A136801331360084A9342DD
:100FE0000ADD064B00221A60064A136859424B413B
:100FF0001360054B01221A607047C046B08F002075
:101000009F860100B48F0020B88F0020C0235B00B2
:10101000984204D08223FF33984205D07047034B97
:101020001B687F201840F9E70020F7E73C94002078
:1010300010B52949294809F08FFD002803D1284B14
:101040001B68002B46D0264B00221A60002404E0C7
:1010500000212000FFF7E2FB01341F2C13DC1E4BA4
:101060001A5D204B1B68A342F2D11F4B1B68002B5B
:10107000EED01E4B1B68002BEAD01D4B1B68002BCB
:10108000E6D00022E4E7402405E0012120004038BA
:10109000FFF7C4FB01345F2C18DC0F4B1A5D154BB6
:1010A0009B5C68218B43F5D00E4B1B68A342ECD1AF
:1010B0000D4B1B68002BE8D00C4B1B68002BE4D0B9
:1010C0000B4B1B68002BE0D00022DEE702490348EF
:1010D00009F086FD10BDC046D4150120B094002053
:1010E000B88F00203C9400203894002034940020D5
:1010F000B48F0020F1C6001010B5C0235B009842E9
:1011000006D08223FF33984245D0FFF791FF10BDF0
:101110002B4B01221A606F2904D97F231940294BD8
:101120001960F2E707290DD804292AD201291CD019
:101130000029EAD00239C9B20129E6D8214B0022A0
:101140001A60E2E70B00083BDBB2072BDDD88A1000
:1011500001231A401C4802604A1013401B4A1360C6
:10116000012319401A4B1960CFE70023FF2B04DC41
:10117000184A2021D1540133F8E7124B00221A609B
:10118000C3E74A1001231340134A13600123194097
:10119000124B1960B9E70B4B1B680E4AD1540E4A2B
:1011A0001268002A09D001229B18064A1360FF2BFF
:1011B000ABDD1300FF221A60A7E701225242F3E7DA
:1011C000B88F00203C940020249000203894002008
:1011D00034940020D4150120309400204094002045
:1011E00003B2002B06DB064B0122DA601882054BA6
:1011F000C0187047044B9C466044044BC018F8E785
:10120000B4950020D09500200080FFFFCC0800207E
:1012100010B515280AD8082840D30300083B9AB215
:101220000D2A3BD89300234AD3589F46C0239B00E6
:10123000984204D007D9D0239B0098422ED1FFF7C3
:1012400089FE00200AE00300813BFF3B9BB2012B9B
:1012500024D8FFF7DBFE01E0174B187810BD174BC1
:101260001888000AFAE7154B1878F7E7144B188826
:10127000000AF3E7124B1878F0E7124B1868FFF7F3
:101280006DF87F224240D2B201239A430E4C627520
:1012900002210020FFF700FB607DDFE703B2002B97
:1012A00002DB094B185CD9E7084B9C466044084BAD
:1012B000185CD3E7A8AF0010AE940020A4940020DF
:1012C000A2940020D8AC0010D09500200080FFFF31
:1012D000CC08002010B56D282FD01FD84D2837D04E
:1012E0005D2800D13149324A137A02208343013804
:1012F00083431372D268002A2CD10A78002A4AD17B
:10130000042213432A4A13720023CB56002B47DBD7
:10131000274A137A08218B43137210BD7D28E2D12E
:101320001202D21890B2FFF75BFF0100204A138827
:1013300001339BB201331380D5E71D4C60888018C0
:1013400080B2FFF74DFF0100238801332380CAE7F5
:101350001849C8E7164C208AFFF75AFF0023E360BC
:1013600000280CD1124A137A04210B43137203068E
:101370000BD40F4A137A08218B431372CDE70C4A22
:10138000137A04218B431372F1E7094A137A082177
:101390000B431372C1E704229343054A1372B3E768
:1013A000034A137A08210B431372B6E7BB9500205A
:1013B000B4950020BA95002010B50E280AD8082848
:1013C0003ED30300083B9AB2062A39D893001E4A3E
:1013D000D3589F46C0239B00984204D006D9D023FF
:1013E0009B0098422CD1FFF7B5FD0AE00300813B3A
:1013F000FF3B9BB2012B23D8FFF77EFE01E0134B8E
:10140000197010BD124A1088FF23034009021943C6
:101410001180F6E70E4A1388FF2083431943118099
:10142000EFE70C4A1088FF2303400902194311809B
:10143000E7E7084A1388FF20834319431180E0E758
:10144000054B1954DDE7C046E0AF0010AE94002014
:10145000A4940020A2940020D095002070B56A28A2
:101460003AD02AD84A2842D05A2800D1304C237882
:10147000802B3ED02F4A137A02218B4313722D4BBF
:10148000DB68002B3BD121780139C9B22170294B8F
:10149000DB68002B38D12378002B3CD1254A137A06
:1014A00004210B4313720023E356002B39DB214A3E
:1014B000137A08218B43137270BD7A28D7D1120298
:1014C000D21890B2FFF78CFE04001A4A1388013339
:1014D0009BB201331380CAE7164D6888801880B22A
:1014E000FFF77EFE04002B8801332B80BFE7124CF0
:1014F000BDE7104A137A02210B431372BFE70D4B6D
:10150000188AFFF785FEBEE70A4D288AFFF754FFC9
:101510000023EB60BFE7074A137A04218B43137261
:10152000C1E7044A137A08210B431372C4E7C0468B
:10153000BB950020B4950020BA95002070B56C28AA
:101540003AD02AD84C2842D05C2800D1304C314BBC
:10155000DB68002B3DD121780131C9B221702D4BC0
:10156000DB68002B3AD12378802B3ED0294A137AAE
:1015700002218B4313722378002B3CD1254A137A26
:1015800004210B4313720023E356002B39DB214A5D
:10159000137A08218B43137270BD7C28D7D11202B5
:1015A000D21890B2FFF71CFE04001A4A13880133C8
:1015B0009BB201331380CAE7164D6888801880B249
:1015C000FFF70EFE04002B8801332B80BFE7124C7F
:1015D000BDE7104B188AFFF71BFEBCE70D4D288AAC
:1015E000FFF7EAFE0023EB60BDE70A4A137A022107
:1015F0000B431372BFE7074A137A04218B4313721C
:10160000C1E7044A137A08210B431372C4E7C046AA
:10161000BB950020B4950020BA95002010B56F2826
:1016200027D017D84F282FD05F2800D11B491C4B3B
:10163000DB68002B2AD100230B70194A137A022190
:101640008B4301398B4304210B43DBB208218B43CD
:10165000137210BD7F28EAD11202D21890B2FFF7A0
:10166000BFFD01000E4A138801339BB20133138082
:10167000DDE70B4C6088801880B2FFF7B1FD0100F8
:10168000238801332380D2E70649D0E7044C208A1F
:101690000021FFF791FE0023E360CEE7BB95002019
:1016A000B4950020BA95002070B5602842D032D899
:1016B00040284AD0502800D1374C384BDB68002BEB
:1016C00045D121784942C9B22170344BDB68002BE7
:1016D00042D12378802B46D0304A137A02218B43A3
:1016E00013722378002B44D02C4A137A01210B4328
:1016F00013722378002B42D1284A137A04210B431A
:1017000013720023E356002B3FDB244A137A08218F
:101710008B43137270BD7028CFD11202D21890B2D1
:10172000FFF75EFD04001D4A138801339BB20133AD
:101730001380C2E7194D6888801880B2FFF750FD0A
:1017400004002B8801332B80B7E7154CB5E7134B0A
:10175000188AFFF75DFDB4E7104D288AFFF72CFECD
:101760000023EB60B5E70D4A137A02210B43137295
:10177000B7E70A4A137A01218B431372B9E7074A84
:10178000137A04218B431372BBE7044A137A0821AE
:101790000B431372BEE7C046BB950020B4950020F2
:1017A000BA95002070B5682847D037D848284FD060
:1017B000582800D1394C0023E356002B4ADB384A25
:1017C000137A01218B431372354BDB68002B47D111
:1017D00021784900C9B22170314BDB68002B44D11C
:1017E0002378002B48D12E4A137A04210B4313721D
:1017F0000023E356002B45DB294A137A08218B434B
:101800001372274B1B7A09221A40082A40D0012A5A
:101810003ED002229343224A13723DE07828CAD177
:101820001202D21890B2FFF7DBFC04001C4A1388A6
:1018300001339BB201331380BDE7194D68888018CE
:1018400080B2FFF7CDFC04002B8801332B80B2E778
:10185000144CB0E7124A137A01210B431372B3E719
:101860000F4B188AFFF7D4FCB2E70D4D288AFFF71B
:10187000A3FD0023EB60B3E7094A137A04218B43ED
:101880001372B5E7064A137A08210B431372B8E7BF
:1018900002221343024A137270BDC046BB9500205A
:1018A000B4950020BA95002070B5632839D029D8A6
:1018B000432841D0532800D12C4C2D4BDB68002B02
:1018C0003CD12178C943C9B22170294BDB68002B78
:1018D00039D1274A137A02218B4301210B43DBB212
:1018E00013722278002A35D104221343204A13723E
:1018F0000023E356002B32DB1D4A137A08218B4369
:10190000137270BD7328D8D11202D21890B2FFF7AB
:1019100067FC0400164A138801339BB2013313801D
:10192000CBE7134D6888801880B2FFF759FC04009C
:101930002B8801332B80C0E70E4CBEE70C4B188A76
:10194000FFF766FCBDE70A4D288AFFF735FD002347
:10195000EB60BEE704229343054A1372C8E7044ACA
:10196000137A08210B431372CBE7C046BB950020C6
:10197000B4950020BA95002070B564283DD02DD8CC
:10198000442845D0542800D1314C2378DB0741D579
:10199000304A137A01210B4313722E4BDB68002B64
:1019A0003ED12178490821702A4BDB68002B3CD1BD
:1019B000284B1B7ADA073FD502221343254A1372BC
:1019C0002378002B3DD1234A137A04210B43137251
:1019D000204A137A08218B43137270BD7428D4D126
:1019E0001202D21890B2FFF7FBFB0400194A1388C9
:1019F00001339BB201331380C7E7164D6888801806
:101A000080B2FFF7EDFB04002B8801332B80BCE78D
:101A1000114CBAE70F4A137A01218B431372BCE7CA
:101A20000C4B188AFFF7F4FBBBE70A4D288AFFF737
:101A3000C3FC0023EB60BBE702229343054A137209
:101A4000BEE7044A137A04218B431372C0E7C046F1
:101A5000BB950020B4950020BA95002070B567288A
:101A600044D034D847284CD0572800D1354C23785F
:101A7000DB0748D5344A137A01210B431372324BEA
:101A8000DB68002B45D123785B08237040221A4283
:101A900002D0C03A134323702B4BDB68002B3DD19F
:101AA0002378002B42D1284A137A04210B43137266
:101AB000254B1B7A0822934301321A40082A3BD057
:101AC000012A39D0022293431F4A137238E0772843
:101AD000CDD11202D21890B2FFF782FB04001A4A4D
:101AE000138801339BB201331380C0E7164D688819
:101AF000801880B2FFF774FB04002B8801332B8021
:101B0000B5E7124CB3E7104A137A01218B431372E5
:101B1000B5E70D4B188AFFF77BFBB4E721780A4D38
:101B2000288AFFF749FC0023EB60B9E7064A137ADD
:101B300004218B431372BBE702221343024A137240
:101B400070BDC046BB950020B4950020BA9500201A
:101B500070B569284FD03FD8492857D0592800D1AF
:101B60003D4C3E4B1B7A01251D400022A256002A07
:101B70004EDB01229343394A1372384BDB68002B4A
:101B80004BD123785B00DBB22370002D02D0012201
:101B900013432370314BDB68002B43D12378002B98
:101BA00048D12E4A137A04210B4313720023E356C3
:101BB000002B45DB294A137A08218B431372274BEC
:101BC0001B7A09221A40082A40D0012A3ED002225C
:101BD0009343224A13723DE07928C2D11202D218EF
:101BE00090B2FFF7FDFA04001C4A138801339BB240
:101BF00001331380B5E7194D6888801880B2FFF76C
:101C0000EFFA04002B8801332B80AAE7144CA8E7D5
:101C100001221343114A1372AFE7104B188AFFF7E2
:101C2000F7FAAEE721780D4D288AFFF7C5FB0023B0
:101C3000EB60B3E7094A137A04218B431372B5E7CB
:101C4000064A137A08210B431372B8E702221343A2
:101C5000024A137270BDC046BB950020B4950020A7
:101C6000BA95002070B566284ED03ED8462856D08A
:101C7000562800D13C4C3D4B1B7A012215001D40DB
:101C800021780A424DD01343384A1372374BDB6830
:101C9000002B4BD123785B082370002D03D08022CA
:101CA000524213432370314BDB68002B43D123781E
:101CB000002B48D12D4A137A04210B4313720023C1
:101CC000E356002B45DB294A137A08218B43137214
:101CD000264B1B7A09221A40082A40D0012A3ED0FE
:101CE00002229343214A13723DE07628C3D11202A7
:101CF000D21890B2FFF774FA04001C4A138801331B
:101D00009BB201331380B6E7184D6888801880B203
:101D1000FFF766FA04002B8801332B80ABE7144CE5
:101D2000A9E701229343114A1372AFE70F4B188AB8
:101D3000FFF76EFAAEE721780C4D288AFFF73CFBDF
:101D40000023EB60B3E7094A137A04218B43137233
:101D5000B5E7064A137A08210B431372B8E702224B
:101D60001343024A137270BDBB950020B495002046
:101D7000BA95002010B5C1235B00984217D2023BF0
:101D8000984222D208281DD0152821D1164B186858
:101D9000FEF7E4FA7F224240D2B201239A43134C69
:101DA000627502210020FEF777FD607D0CE0C02304
:101DB0009B00984202D04033984209D1FFF7CAF8FD
:101DC000002001E00A4B187810BDFFF71FF9FBE770
:101DD00003B2002B02DB054B185CF5E7054B9C4674
:101DE0006044054B185CEFE7D8AC0010D09500209C
:101DF000AE9400200080FFFFCC08002010B5140036
:101E000000216B2819D07B2820D0194A1388013370
:101E10009BB201331380137A022293434AB2002A01
:101E20001ADB08229343124A1372002919D1104A6F
:101E3000137A04210B43137210BD0D4A5088C01849
:101E400080B2FFF797FF21000140DEE798B2FFF76D
:101E500091FF21000140D8E708221343044A13727E
:101E6000E3E7034A137A04218B431372E4E7C04685
:101E7000B495002010B533280DD0382814D032285E
:101E800000D010BD134CA088013080B2A080FFF7B5
:101E900071FFA071F5E70F4CA088013080B2A080DF
:101EA000FFF768FFE071ECE70A4CA088013080B2D0
:101EB000A080FFF75FFF80B200026080A088013041
:101EC00080B2A080FFF756FF80B26388C0186080A0
:101ED000D7E7C046B495002070B50024C42800D1CF
:101EE0006AE020D8A4285BD00FD9B4283FD11202D1
:101EF0009B1898B2FFF73EFF84B23E490B8801332E
:101F00009BB201330B80063131E0842829D094281C
:101F10002DD190B2FFF72EFF84B236490B880133E2
:101F20000B80063123E0E4284DD0F4280DD11202B5
:101F30009B1898B2FFF71EFF84B22E490B8801331D
:101F40009BB201330B80073111E0D4280FD190B23E
:101F5000FFF710FF84B227490B8801330B8007314C
:101F600005E094B223490B8801330B8006310878D1
:101F7000204008701F4A137A0220834313720A78A4
:101F8000002A2CD1042213431A4A13720023CB5681
:101F9000002B29DB174A137A08218B43137270BD7B
:101FA000144D6888101880B2FFF7E4FE84B22B88C5
:101FB00001332B80A91DDAE794B20E490B88013357
:101FC0000B800731D3E70B4D6888101880B2FFF7FC
:101FD000D1FE84B22B8801332B80E91DC7E7042290
:101FE0009343044A1372D1E7024A137A08210B4340
:101FF0001372D4E7B495002070B50024C82800D12E
:102000006AE020D8A8285BD00FD9B8283FD11202A7
:102010009B1898B2FFF7AEFE84B23E490B8801339D
:102020009BB201330B80063131E0882829D09828F3
:102030002DD190B2FFF79EFE84B236490B88013352
:102040000B80063123E0E8284DD0F8280DD112028C
:102050009B1898B2FFF78EFE84B22E490B8801338D
:102060009BB201330B80073111E0D8280FD190B219
:10207000FFF780FE84B227490B8801330B800731BC
:1020800005E094B223490B8801330B8006310878B0
:10209000604008701F4A137A0220834313720A7843
:1020A000002A2CD1042213431A4A13720023CB5660
:1020B000002B29DB174A137A08218B43137270BD5A
:1020C000144D6888101880B2FFF754FE84B22B8834
:1020D00001332B80A91DDAE794B20E490B88013336
:1020E0000B800731D3E70B4D6888101880B2FFF7DB
:1020F00041FE84B22B8801332B80E91DC7E70422FF
:102100009343044A1372D1E7024A137A08210B431E
:102110001372D4E7B495002070B50024CA2800D10A
:102120006AE020D8AA285BD00FD9BA283FD1120282
:102130009B1898B2FFF71EFE84B23E490B8801330C
:102140009BB201330B80063131E08A2829D09A28CE
:102150002DD190B2FFF70EFE84B236490B880133C1
:102160000B80063123E0EA284DD0FA280DD1120267
:102170009B1898B2FFF7FEFD84B22E490B880133FD
:102180009BB201330B80073111E0DA280FD190B2F6
:10219000FFF7F0FD84B227490B8801330B8007312C
:1021A00005E094B223490B8801330B80063108788F
:1021B000204308701F4A137A0220834313720A785F
:1021C000002A2CD1042213431A4A13720023CB563F
:1021D000002B29DB174A137A08218B43137270BD39
:1021E000144D6888101880B2FFF7C4FD84B22B88A4
:1021F00001332B80A91DDAE794B20E490B88013315
:102200000B800731D3E70B4D6888101880B2FFF7B9
:10221000B1FD84B22B8801332B80E91DC7E704226E
:102220009343044A1372D1E7024A137A08210B43FD
:102230001372D4E7B495002010B50021C52800D151
:1022400067E020D8A52858D00FD9B5283FD1100273
:10225000181880B2FFF78EFD81B23D4C2388013300
:102260009BB201332380063431E0852829D095289C
:102270002DD190B2FFF77EFD81B2354C238801331A
:102280002380063423E0E5284AD0F5280DD110023A
:10229000181880B2FFF76EFD81B22D4C23880133F0
:1022A0009BB201332380073411E0D5280FD190B2BF
:1022B000FFF760FD81B2264C238801332380073469
:1022C00005E091B2224C238801332380063400209C
:1022D0002056084040B21E4B1B7A0222934300282E
:1022E0002AD1042213431A4A1372002829DB184A00
:1022F000137A08218B43137210BD154C6088101897
:1023000080B2FFF737FD81B2238801332380063482
:10231000DDE791B20E4C2388013323800734D6E7E2
:102320000B4C6088101880B2FFF724FD81B223881F
:10233000013323800734CAE704229343044A13720B
:10234000D3E7034A137A08210B431372D4E7C0463C
:10235000B495002070B50021E3286AD015D8C328B1
:102360002CD0D32833D194B22000FFF703FD050011
:10237000601CFFF7FFFC2D02A9B280B2091889B2D8
:102380004F4A13880133138021E0F3281FD1120232
:102390009A1894B22000FFF7EDFC05000134A0B2BA
:1023A000FFF7E8FC2D02A9B280B2091889B2444AAD
:1023B000138801339BB20133138008E012029A188C
:1023C00091B23F4A138801339BB2013313803C4AD8
:1023D00093791B02D07902001A43521892B2034338
:1023E0008024240218002040234202D00BB2002B8C
:1023F00034DB002805D10BB2002B02DB13B2002B1B
:102400002FDB2F4C237A0225AB432372002802D006
:102410000BB2002B2EDB09B2002928DB13B2002BF4
:1024200001DB002826D126490B7A012083430B7259
:1024300025E0234E74881419A4B22000FFF79AFCFB
:1024400005000134A0B2FFF795FC2D02A9B280B2BD
:10245000091889B2338801333380B8E713B2002BEF
:10246000C7DB174C237A02252B432372CEE713B226
:10247000002BD3DB12490B7A012003430B72002A95
:1024800011D10F490B7A042003430B7213B2002BB6
:102490000FDB0B490B7A082083430B72084B110AA0
:1024A0009971DA7170BD06490B7A042083430B726F
:1024B000ECE703490B7A082003430B72EEE7C046B2
:1024C000B495002070B50021AC285AD015D88C28BE
:1024D0002CD09C2833D194B22000FFF74BFC050090
:1024E000601CFFF747FC2D02A9B280B2091889B21F
:1024F0004A4A13880133138021E0BC281FD11202FD
:102500009A1894B22000FFF735FC05000134A0B200
:10251000FFF730FC2D02A9B280B2091889B23F4AF8
:10252000138801339BB20133138008E012029A181A
:1025300091B23A4A138801339BB201331380374B6F
:102540005A88531A9BB212B2002A2FDB002A02DBF0
:1025500008B2002836DB314C207A0225A8432072CD
:10256000002A02DB08B2002836DB09B200292DDB85
:1025700019B200292EDB29490A7A012082430A7206
:102580002FE0264E74881419A4B22000FFF7F2FB46
:1025900005000134A0B2FFF7EDFB2D02A9B280B215
:1025A000091889B2338801333380C8E708B200289C
:1025B000CCDB18B20028C9DB184C207A022528434E
:1025C0002072CDE718B20028C5DAF5E719B2002964
:1025D000CEDA01E0002ACEDB10490A7A012002435C
:1025E0000A72002B0DD10D490A7A042002430A72A7
:1025F0001BB2002B0BDB094A137A08218B431372A1
:1026000070BD06490A7A042082430A72F0E7034A41
:10261000137A08210B431372F2E7C046B4950020E9
:1026200070B50021A32853D015D883282CD0932827
:1026300033D194B22000FFF79DFB0500601CFFF72B
:1026400099FB2D02A9B280B2091889B2504A1388A9
:102650000133138021E0B3281FD112029A1894B2DB
:102660002000FFF787FB05000134A0B2FFF782FBD3
:102670002D02A9B280B2091889B2454A13880133E4
:102680009BB20133138008E012029A1891B2404ABB
:10269000138801339BB2013313803D4A93791B02A7
:1026A000D07902001A43521A92B2034380242402C2
:1026B00018002040234220D00BB2002B1DDB13B2A8
:1026C000002B1ADB324C237A02252B4323721EE0A7
:1026D0002F4E74881419A4B22000FFF74BFB05009D
:1026E0000134A0B2FFF746FB2D02A9B280B209184F
:1026F00089B2338801333380CFE7002802D10BB28F
:10270000002B28DB224C237A0225AB4323720028BE
:1027100002D10BB2002B28DB09B200291FDB13B258
:10272000002B20DB1A490B7A012083430B72002A0D
:1027300021D117490B7A042003430B7213B2002BEB
:102740001FDB13490B7A082083430B72104B110ACD
:102750009971DA7170BD13B2002BD3DAB2E713B2FC
:10276000002BDCDA01E00028DCD109490B7A0120DA
:1027700003430B72DBE706490B7A042083430B7299
:10278000DCE703490B7A082003430B72DEE7C046FF
:10279000B495002010B51F4CA088013080B2A080F5
:1027A000FFF7E8FA2072A088013080B2A080FFF71E
:1027B000E1FAE071A088013080B2A080FFF7DAFA78
:1027C000A071A088013080B2A080FFF7D3FA80B258
:1027D00000026080A088013080B2A080FFF7CAFAB2
:1027E00080B2638818436080A088013080B2A080E6
:1027F000FFF7C0FA80B200022080A088013080B2CA
:10280000A080FFF7B7FA80B22388184301382080F0
:1028100010BDC046B495002010B50B4CA088013007
:1028200080B2A080FFF7A6FA80B200022080A088C4
:10283000013080B2A080FFF79DFA80B22388184350
:102840000138208010BDC046B495002070B5EC283A
:1028500046D011D8CC2824D0DC282AD195B2280023
:10286000FFF788FA2E4CA071681CFFF783FAE0711D
:102870002388013323801CE0FC281AD11202D218CD
:1028800094B22000FFF776FA254DA8710134A0B26A
:10289000FFF770FAE8712B8801339BB201332B806C
:1028A00007E01F498A71CB710B8801339BB201335A
:1028B0000B801B490A7A02239A438B791B02C97940
:1028C0000B4321D104210A4315490A7280221202C6
:1028D00013421ED0124A137A08210B43137270BDA3
:1028E0000F4D688894B2101880B2FFF743FAA871B0
:1028F0006888201880B2013080B2FFF73BFAE87197
:102900002B8801332B80D4E704218A4304490A72BF
:10291000DCE7034A137A08218B431372DFE7C046D2
:10292000B495002070B5C92800D18AE022D8A92822
:1029300000D17AE010D9B92840D1120290B2C01863
:1029400080B2FFF717FA020069490B8801339BB286
:1029500001330B80063131E089282AD099282DD106
:1029600090B2FFF707FA020061490B8801330B8030
:10297000063123E0E9286AD0F9280ED1120290B27C
:10298000C01880B2FFF7F6F9020059490B880133ED
:102990009BB201330B80073110E0D9280ED190B2E1
:1029A000FFF7E8F9020052490B8801330B80073129
:1029B00004E04F490B8801330B80063108784C4BFB
:1029C0001C7A012323409B18DBB21B18DBB20B706F
:1029D00044B2002C47DB002C01DB15064ED4444DDD
:1029E0002B7A0226B3432B720B78002B4AD1404D31
:1029F0002B7A042633432B720023CB56002B47DB64
:102A00003B4D2B7A0826B3432B72002C46DB130672
:102A100047D40023CB56002B01DB002C45DB344C84
:102A2000237A0125AB43237244E0314C608880183F
:102A300080B2FFF79FF90200238801332380A11D94
:102A4000BCE72B490B8801330B800731B6E7284CD4
:102A50006088801880B2FFF78DF902002388013367
:102A60002380E11DAAE71506B5D45DB2002DB2DBC7
:102A70001F4D2B7A022633432B72B5E75BB2002B36
:102A8000ADDAF5E71A4D2B7A0426B3432B72B3E780
:102A9000174D2B7A082633432B72B6E71306B6D5AB
:102AA00003E00023CB56002BB3DB114C237A012526
:102AB0002B43237208231C000440034201D0130758
:102AC00009D4130702D50B781B0704D50B781B0715
:102AD00007D4002C05D0064A137A20210B43137229
:102AE00070BD034A137A20218B431372F8E7C04666
:102AF000B495002070B5BB2800D17FE014D9EB2835
:102B000000D190E02BD9FB283AD1120290B2C01824
:102B100080B2FFF72FF9020069490B8801339BB29D
:102B200001330B8007312BE09B285DD00DD9AB28FA
:102B300026D1634C6088801880B2FFF71BF9020031
:102B4000238801332380A11D1AE01B2815D08B2870
:102B500016D15B490B8801330B80063110E0CB287E
:102B60005BD0DB280CD190B2FFF704F90200544986
:102B70000B8801330B80073102E05149CA790631D5
:102B800008781318DBB20B7044B2002C57DB002C12
:102B900004DB150602D45BB2002B55DB484D2B7AC3
:102BA0000226B3432B720B78002B53D1444D2B7A62
:102BB000042633432B720023CB56002B50DB404DB1
:102BC0002B7A0826B3432B72002C4FDB130650D40C
:102BD0000023CB56002B01DB002C4EDB384C237A34
:102BE0000125AB4323724DE090B2FFF7C3F802001A
:102BF00033490B8801330B800631C1E7120290B2D2
:102C0000C01880B2FFF7B6F802002D490B880133D7
:102C10009BB201330B800631B2E729490B8801339F
:102C20000B800731ACE7264C6088801880B2FFF734
:102C3000A1F80200238801332380E11DA0E71506D7
:102C4000A5D55DB2002DA2DB1D4D2B7A02263343A4
:102C50002B72A8E71A4D2B7A0426B3432B72AAE7EE
:102C6000174D2B7A082633432B72ADE71306ADD5EB
:102C700003E00023CB56002BAADB114C237A01255D
:102C80002B43237208231C000440034201D0130786
:102C900009D4130702D50B781B0704D50B781B0743
:102CA00007D4002C05D0064A137A20210B43137257
:102CB00070BD034A137A20218B431372F8E7C04694
:102CC000B495002010B5C62800D169E021D8A62807
:102CD0005AD010D9B62840D1120290B2C01880B292
:102CE000FFF748F802003D4C238801339BB20133C3
:102CF0002380063431E086282AD096282DD190B240
:102D0000FFF738F80200354C23880133238006345E
:102D100023E0E6284AD0F6280ED1120290B2C0185D
:102D200080B2FFF727F802002C4C238801339BB2B6
:102D300001332380073410E0D6280ED190B2FFF77C
:102D400019F80200254C238801332380073404E05E
:102D5000224C238801332380063420490B7A022039
:102D600083430B722270002A2CD10A000B7A0421B3
:102D70000B4313720023E356002B29DB174A137A07
:102D800008218B43137210BD144C6088801880B2E8
:102D9000FEF7F0FF02002388013323800634DCE7CE
:102DA0000E4C2388013323800734D6E70B4C608810
:102DB000801880B2FEF7DEFF0200238801332380F3
:102DC0000734CAE7054A137A04218B431372D1E70B
:102DD000024A137A08210B431372D4E7B4950020FA
:102DE00070B5C12800D17EE021D8A1286FD010D9BC
:102DF000B12840D1120290B2C01880B2FEF7BAFFDB
:102E0000020055490B8801339BB201330B80063118
:102E100031E081282AD091282DD190B2FEF7AAFF67
:102E200002004D490B8801330B80063123E0E12875
:102E30005FD0F1280ED1120290B2C01880B2FEF716
:102E400099FF020044490B8801339BB201330B8088
:102E5000073110E0D1280ED190B2FEF78BFF0200AF
:102E60003D490B8801330B80073104E03A490B8858
:102E700001330B8006310C78A31ADBB264B2002C4C
:102E800043DB002C01DB11064AD43348017A0225CA
:102E9000A9430172002B47D12F48017A0425294309
:102EA00001725BB2002B45DB2B49087A0825A84349
:102EB0000872002C01DB110647D4120640D4002B07
:102EC00041DB254A137A01218B43137242E0224CE5
:102ED0006088801880B2FEF74DFF0200238801331E
:102EE0002380A11DC7E71C490B8801330B800731E4
:102EF000C1E7194C6088801880B2FEF73BFF0200E2
:102F0000238801332380E11DB5E71106B9D459B2F6
:102F10000029B6DB1048017A022529430172B9E77E
:102F200059B20029B1DAF5E70B48017A0425A94323
:102F30000172B6E70848017A082529430172B8E70B
:102F4000002BBCDA01E0002CBBDB034A137A012121
:102F50000B43137270BDC046B495002070B5C228F3
:102F600000D18AE022D8A22800D17AE010D9B22874
:102F700040D1120290B2C01880B2FEF7FBFE0200F0
:102F80005B490B8801339BB201330B80063131E082
:102F900082282AD092282DD190B2FEF7EBFE0200B3
:102FA00053490B8801330B80063123E0E2286AD0B5
:102FB000F2280ED1120290B2C01880B2FEF7DAFEEB
:102FC00002004B490B8801339BB201330B80073160
:102FD00010E0D2280ED190B2FEF7CCFE0200444998
:102FE0000B8801330B80073104E041490B88013322
:102FF0000B80063108783E4B1C7A012323409B1836
:10300000DBB2C31ADBB20B7040B2002847DB0028EA
:1030100001DB14064ED4364C237A0225AB432372CF
:103020000B78002B4AD1324C237A04252B43237290
:103030000023CB56002B47DB2D4C237A0825AB43CE
:103040002372002801DB13064BD4130642D400235D
:10305000CB56002B43DB264A137A01218B43137294
:1030600044E0234C6088801880B2FEF783FE0200A3
:10307000238801332380A11DBCE71D490B88013340
:103080000B800731B6E71A4C6088801880B2FEF7D3
:1030900071FE0200238801332380E11DAAE7140694
:1030A000B5D45CB2002CB2DB114C237A02252B4341
:1030B0002372B5E75BB2002BADDAF5E70C4C237A4F
:1030C0000425AB432372B3E7094C237A08252B432D
:1030D0002372B6E70023CB56002BB8DA01E00028B4
:1030E000B9DB034A137A01210B43137270BDC0464A
:1030F000B495002070B5C02800D183E021D8A02865
:1031000074D010D9B02840D1120290B2C01880B249
:10311000FEF730FE020058490B8801339BB20133A1
:103120000B80063131E080282AD090282DD190B232
:10313000FEF720FE020050490B8801330B80063158
:1031400023E0E02864D0F0280ED1120290B2C0181B
:1031500080B2FEF70FFE020047490B8801339BB295
:1031600001330B80073110E0D0280ED190B2FEF76A
:1031700001FE020040490B8801330B80073104E057
:103180003D490B8801330B8006310B78981AC0B289
:1031900008705BB2002B47DB002B01DB14064ED41A
:1031A000354C207A0225A8432072087800284AD19D
:1031B000314C207A0425284320720020085600282C
:1031C00047DB2D4C207A0825A8432072002B01DB19
:1031D00010064BD4120642D400228A56002A43DB42
:1031E000254A137A01218B43137244E0224C6088F4
:1031F000801880B2FEF7BEFD0200238801332380D1
:10320000A11DC2E71C490B8801330B800731BCE7C5
:10321000194C6088801880B2FEF7ACFD020023884C
:1032200001332380E11DB0E71406B5D444B2002C6D
:10323000B2DB114C207A022528432072B5E740B258
:103240000028ADDAF5E70C4C207A0425A84320725B
:10325000B3E7094C207A082528432072B6E70022FC
:103260008A56002AB8DA01E0002BB9DB024A137A49
:1032700001210B43137270BDB495002003B2002BE3
:1032800007DB0A4A135C1B020130105CC01880B2D5
:103290007047074BC318074AD35C1B0206498C468C
:1032A0006044105CC01880B2F2E7C046D0950020A0
:1032B0000080FFFFCC0800200180FFFF70B50024D4
:1032C000CE2840D021D8AE2800D174E00FD9BE2836
:1032D00043D11002C01880B2FFF7D0FF040041496B
:1032E0000B8801339BB201330B80043135E08E280B
:1032F00056D09E2831D190B2FFF7C0FF0400394963
:103300000B8801330B80043127E0EE283CD0FE28E7
:103310000DD11002C01880B2FFF7B0FF0400314990
:103320000B8801339BB201330B80023115E0DE289C
:1033300013D190B2FFF7A2FF04002A490B88013392
:103340000B80023109E012021A43140025490B8850
:1033500001339BB201330B8002310C80214A137A76
:103360000220834313720A88002A30D104221343B7
:103370001C4A137200228B5E002B2DDB194A137A34
:1033800008218B43137270BD164D6888801880B277
:10339000FFF774FF04002B8801332B80A91CDCE7A6
:1033A00012021A4314000F490B8801339BB20133F8
:1033B0000B800431D1E70B4D6888801880B2FFF78D
:1033C0005DFF04002B8801332B80291DC5E70422F3
:1033D0009343044A1372CDE7024A137A08210B4340
:1033E0001372D0E7B495002010B5C1235B0098425A
:1033F0000CD2023B984213D2082801D10A4B197013
:1034000003B2002B01DB094B195410BDC0239B00F4
:10341000984202D040339842F2D1FDF79BFDF4E789
:10342000FDF76AFEF1E7C046AE940020D09500207B
:10343000F8B515000024622819D0722827D01F4A39
:10344000138801339BB201331380137A0222934312
:1034500062B2002A26DB08229343184A1372002C1A
:1034600025D1164A137A04210B431372F8BD9EB27C
:10347000124F7888181880B2FEF77CFC0543ECB236
:103480007888301880B22100FFF7AEFFD7E79EB2F0
:103490003000FEF76FFC0543ECB221003000FFF76F
:1034A000A3FFCCE708221343044A1372D7E7034A69
:1034B000137A04218B431372D8E7C046B4950020D9
:1034C000F8B515000026612819D0712827D01F4AA9
:1034D000138801339BB201331380137A0222934382
:1034E00072B2002A26DB08229343184A1372002E78
:1034F00025D1164A137A04210B431372F8BD9CB2EE
:10350000124F7888181880B2FEF734FC05402E0060
:103510007888201880B22900FFF766FFD7E79CB2B1
:103520002000FEF727FC05402E0029002000FFF7B1
:103530005BFFCCE708221343044A1372D7E7034A20
:10354000137A04218B431372D8E7C046B495002048
:10355000F8B515000024652819D0752827D01F4A12
:10356000138801339BB201331380137A02229343F1
:1035700062B2002A26DB08229343184A1372002CF9
:1035800025D1164A137A04210B431372F8BD9EB25B
:10359000124F7888181880B2FEF7ECFB4540ECB269
:1035A0007888301880B22100FFF71EFFD7E79EB25F
:1035B0003000FEF7DFFB4540ECB221003000FFF7A2
:1035C00013FFCCE708221343044A1372D7E7034AD8
:1035D000137A04218B431372D8E7C046B4950020B8
:1035E00010B537280CD03C2812D0362800D010BD9A
:1035F0000F4B9888421E9A809979FFF7F5FEF6E7FF
:103600000B4B9888421E9A80D979FFF7EDFEEEE7C2
:10361000074CA088431EA380A178FFF7E5FEA08891
:10362000431EA3806188090AFFF7DEFEDFE7C0467C
:10363000B495002010B5010000200024D72945D002
:103640002CD8A72939D0B7290AD112021A43100061
:103650002C4A9479138801339BB20133138007E01D
:10366000972905D190B2274B9C791A8801321A808C
:103670002100FFF7B9FE234B1B7A02229343002C53
:1036800034D1042213431F4A137264B2002C32DB7C
:103690001C4A137A08218B43137210BDE7291CD0F2
:1036A000F729E5D112021A431000164AD47913887B
:1036B00001339BB201331380DAE7124B588810189C
:1036C00080B29C791A8801321A80D1E790B20D4BF2
:1036D000DC791A8801321A80CAE70A4B5888101818
:1036E00080B2DC791A8801321A80C1E70422934340
:1036F000044A1372C9E7034A137A08210B43137271
:10370000CBE7C046B495002070B5244CA088431E7A
:10371000A38021780131C9B2FFF766FEA088431E5D
:10372000A380218801310912C9B2FFF75DFEA0888C
:10373000431EA380A178FFF757FEA088431EA380F5
:103740006188090AFFF750FEA088431EA380A17973
:10375000FFF74AFEA088431EA380E179FFF744FEED
:10376000A088431EA380217AFFF73EFE237A102211
:10377000134323720A48FEF7FDFA05000948FEF7D5
:10378000F9FAADB22D02ADB22D18ADB2013D2580D2
:10379000054A13680133136070BDC046B49500201C
:1037A000FAFF0000FBFF0000D015012070B5224C8D
:1037B000A088431EA38021780131C9B2FFF714FE0F
:1037C000A088431EA380218801310912C9B2FFF7E6
:1037D0000BFEA088431EA380A178FFF705FEA088FA
:1037E000431EA3806188090AFFF7FEFDA088431EDF
:1037F000A380A179FFF7F8FDA088431EA380E1799B
:10380000FFF7F2FDA088431EA380217AFFF7ECFDAD
:10381000237A1022134323720848FEF7ABFA0500FF
:103820000748FEF7A7FAADB22D02ADB22D18ADB222
:10383000013D258070BDC046B4950020EEFF00001C
:10384000EFFF000070B5AD283BD01CD88D2853D0B9
:103850009D2850D190B2FFF711FD013885B2384C48
:103860002188013189B22180A088431EA380C9B27A
:10387000FFF7BAFDA088431EA3802188090AFFF73D
:10388000B3FD258037E0BD2835D112021343013B3B
:103890009CB22B4D2988013189B2013189B20131A5
:1038A00089B22980A888431EAB80C9B2FFF79CFD6E
:1038B000A888431EAB802988090AFFF795FD2C8054
:1038C00019E01F4C6088121892B2013A95B2218813
:1038D000013189B2013189B22180A088431EA380C1
:1038E000C9B2FFF781FDA088431EA3802188090A81
:1038F000FFF77AFD258070BD114B198853B2002B5C
:1039000019DB92B28A1892B2013294B2013189B2B3
:10391000013189B20A4D2980A888431EAB80C9B203
:10392000FFF762FDA888431EAB802988090AFFF7CC
:103930005BFD2C80DFE7013AFF3A92B2E2E7C04636
:10394000B495002070B504000B00090ADDB2FFF742
:103950004BFD0134A0B22900FFF746FD70BD000009
:1039600010B5010000200024EF292BD0FF291ED024
:10397000DF2915D02100FFF7E5FF1C4B1B7A02223F
:103980009343002C26D104221343184A137224B205
:10399000002C24DB154A137A08218B43137210BDC7
:1039A00090B2124B5C881A8801321A80E2E7120248
:1039B0001A4310000D4A5488138801339BB2013317
:1039C0001380D7E7094B5C88121990B21A8801322C
:1039D0001A80CFE704229343044A1372D7E7034ABD
:1039E000137A08210B431372D9E7C046B49500201F
:1039F00010B5010000200024AF292BD0BF291ED014
:103A00009F2915D02100FFF79DFF1C4B1B7A022236
:103A10009343002C27D104221343184A137224B273
:103A2000002C25DB154A137A08218B43137210BD35
:103A300090B2124B9C881A8801321A80E2E7120277
:103A40001A4310000D4A9488138801339BB2013346
:103A50001380D7E7094B5888101880B29C881A88C1
:103A600001321A80CEE704229343044A1372D6E748
:103A7000024A137A08210B431372D8E7B495002049
:103A800010B5010000200024ED2931D0FD2921D0FE
:103A9000DD2915D02100FFF755FF214B1B7A0222AB
:103AA0009343002C30D1042213431D4A137224B2D5
:103AB000002C2EDB1A4A137A08218B43137210BD97
:103AC00090B2174B9C792402DA7914431A88013298
:103AD0001A80DFE712021A431000114A9479240277
:103AE000D3791C43138801339BB201331380D1E790
:103AF0000B4B5888101880B29C792402DA79144351
:103B00001A8801321A80C5E704229343044A1372CB
:103B1000CDE7034A137A08210B431372CFE7C0465F
:103B2000B495002070B50500204B1B7ADB0600D54C
:103B300070BD1E4CA088431EA3802178FFF754FC63
:103B4000A088431EA3802188090AFFF74DFCA088A6
:103B5000431EA380A178FFF747FCA088431EA380E3
:103B60006188090AFFF740FCA088431EA380A17961
:103B7000FFF73AFCA088431EA380E179FFF734FCED
:103B8000A088431EA380217AFFF72EFC2800FEF7B1
:103B9000F1F806020135A8B2FEF7ECF800B23043A6
:103BA0002080237A102213432372C1E7B4950020AA
:103BB00010B50B4A138801339BB21380094A12884F
:103BC000934200D010BD084A137840210B43DBB26A
:103BD00013701B07F6D50548FFF7A4FFF2E7C046B0
:103BE000A4940020A2940020AE940020F4FF0000D2
:103BF00010B50C4A138801339BB21380002B08D1F7
:103C0000094A138801339BB213808022D200934269
:103C100000D010BD044B00221A800448FFF782FF39
:103C2000F7E7C0469E940020A0940020FCFF00000F
:103C300010B50B48FEF79EF804020A48FEF79AF802
:103C400000B22043084B1880F1221A72074A002361
:103C50001375074B1B687C210B43537510BDC04681
:103C6000FEFF0000FFFF0000B4950020D09500206B
:103C70004C940020F8B51F4C2088FEF77BF8050017
:103C80002088013080B2FEF775F8060020880230E7
:103C900080B2FEF76FF80300174A002111602188F7
:103CA000164A1160A900164A8F58320021002800D8
:103CB000B847238801332380FFF77AFFFFF778FFA7
:103CC000FFF776FFFFF774FFFFF772FFFFF770FF54
:103CD000FFF76EFFFFF76CFFFFF76AFFFFF768FF64
:103CE000FFF766FFFFF764FFFFF782FFFDF772F94A
:103CF000F8BDC046B4950020D0150120D81601208B
:103D0000CC04002010B58300084A944663441C6824
:103D100040226240C02414408022520113431C60A0
:103D2000C000034B9C466044416010BD04C001408C
:103D30000040014010B501238340D0221206936257
:103D400093610521FFF7DEFF10BD0000EFF3108047
:103D500072B6034B1B68002BFBD0BFF35F8F70471D
:103D60002C0100D0BFF35F8F024B00221A6080F35A
:103D7000108870472C0100D0F8B506000C00150023
:103D8000FFF7E4FFE308F718F15C07222240012364
:103D900093400B4205D1DBB20B433B70FFF7E2FFD0
:103DA000F8BD2100280001F091FAF0B583B00600BB
:103DB000019114001F00FFF7C9FFBC420ED8E308B1
:103DC000F518F35C0721214001228A401A4201D0F4
:103DD0000134F2E7D2B21A432A7001E001246442AE
:103DE000FFF7C0FF002C02DB200003B0F0BD019BF9
:103DF000002BF9D0089801F069FA0000034B1B680A
:103E000002201840431E9841C0B2704700C00640CF
:103E100000231F2B08D8054A9A189200BFF35F8F22
:103E2000002111600133F4E77047C04640000034C0
:103E3000054A1078431CDBB21370172B02D913000C
:103E400010221A707047C046CC88002000B583B09D
:103E50000100044B00931F2318220348FFF7A5FF1E
:103E600003B000BDFCAF0010848F002070B50400CB
:103E70000D00062001F044FBC000290002F07EFF87
:103E8000C60908D00E4B9E4217D87F231840013038
:103E90003500460800E001256562A6622C348020CA
:103EA0008001044300232360062001F029FB8000E9
:103EB000A901891902F062FF70BD0026014DEBE7F0
:103EC000FEFF0000FFFF0000002909D00A22064B78
:103ED0009C466044434258414000044BC2527047E4
:103EE00080225200F3E7C0460080FCBFDC160120B0
:103EF00070B505000C00062001F002FB002829D057
:103F0000164B9D4227D08022D203154B1A60154BC9
:103F10001A60154B9B6811009943FAD100212800C3
:103F2000FFF7D2FF21002800FFF7A0FF2C002C3460
:103F3000E96A60224A406E211140802252012243E8
:103F400011600A4B2B6380239B01234310221A60CC
:103F50000323AB6470BD80221204D6E700800340C7
:103F600000E0004000F0004000C0004001030000FD
:103F700070B505000C00080000F0CCFD200000F03A
:103F8000AFFE0849200000F0EFFDFFF751FF064BA0
:103F90009C466044800068602C75A400034BE5508B
:103FA00070BDC046B542001040000034509400205F
:103FB0000A4B1A68EFF3108172B61368002BFCD01D
:103FC000BFF35F8F054B1B68BFF35F8F00221A6042
:103FD00081F3108840BF0020002170476C940020BE
:103FE00010B5002922D003681B7B99421ED8174BBD
:103FF0009C466144090183689C4661440C68496899
:10400000002A19D003681B7B9A4215D883680F4891
:104010008446624412019A18106853680200012015
:104020008B4201D80ED00020C0B210BD084B094A07
:104030003B21094801F02CF9054B064A3B21064873
:1040400001F026F9A242EFD8EDE7C046FFFFFF0FCF
:1040500070B0001050B300102CB0001010B5002943
:104060001ED0037B99421BD84B005B18033B0468AE
:10407000A4466344002919D0002A1DD0914221D0C2
:10408000002A25D0047BA24222D804685000801860
:10409000033820188170197800291FD11A7010BDBB
:1040A000104B114A6921114801F0F2F8104B114AE6
:1040B00070310E4801F0ECF80F4B0E4A71210B489D
:1040C00001F0E6F80D4B0B4A7221084801F0E0F8C8
:1040D000044B054A6921054801F0DAF841701A706D
:1040E000DDE7C046A4B0001010B30010C0B000104F
:1040F00014B100101CB3001020B100102CB100103E
:1041000070B506000D001400002914D0002A14D048
:10411000806873689847002806D022002900300084
:10412000FFF79CFF280007E02A0021003000FFF77E
:1041300095FF200000E0100070BD0800FCE70000C3
:10414000F0B583B00500009201930AAB1C780BAB6D
:104150001F78002C26D003685A7B944207D1012394
:10416000002B19D1002C3BD1200003B0F0BD002C56
:104170000CD01A7B944209D81A6863001B19033BC0
:10418000D3189B78002BEBD00123E9E73E4B3F4A45
:1041900069213F4801F07CF83E4B3F4A65213F488A
:1041A00001F076F803689C7B002CDBD012D01A7BE0
:1041B00094420FD862001219033A19688C4662447F
:1041C00051789973002900D1D973002393705370EB
:1041D0001370C7E72C4B2D4A69212D4801F058F880
:1041E000002C3AD02B681B7B9C4236D82C4BE31812
:1041F0001B01AA6894466344009A1A60019A5A60A7
:10420000089A9A60099ADA602E68002C2BD030D078
:10421000337B9C422DD863001B19033B32689446C4
:10422000634400229A705A701A70717B2200300029
:10423000FFF766FF7073844200D095E7287D009AEF
:10424000019B00F0D9FC061E01D0002F17D00C9B5B
:10425000002B00D188E71E7086E7124B124A3B21E3
:104260000E4801F015F8114B114AA621084801F03B
:104270000FF8054B054A6921054801F009F828683F
:10428000210000F017FFE2E7A4B0001010B3001007
:10429000C0B0001044B1001088B300102CB0001062
:1042A000FFFFFF0F70B0001050B3001028B00010D7
:1042B00030B30010F0B5DE4657464E464546E0B5F1
:1042C0008BB00990002308938200B34BD658370077
:1042D00052E0B24BB24A3D21B24800F0D9FFB24B96
:1042E000B24A3B21B24800F0D3FF002901D1002897
:1042F00069D10021404600F0D3FEA04219D12A68BE
:104300006B6806920793AB689846EB689A464346FB
:10431000002B14D0002C18D03B681B7B9C4214D877
:10432000631EFA68D35C08931B02184338610020AF
:1043300015E0A04BA04A8C219D4800F0A9FF9F4B9F
:104340009D4A90219A4800F0A3FF974B9C4A402138
:10435000974800F09DFF00239A46984600207B680E
:10436000BFF35F8F00221A6086F310884346002B4C
:1043700032D1002800D107E100F0D8FB02000B1E6B
:10438000A7DB00200021069007917868EFF31086E4
:1043900072B601680029FCD0BFF35F8F3968884688
:1043A0004C7B002CD7D09AD0097B8C4297D885497A
:1043B00065182D01B9688C46654428686968801ABB
:1043C0009941002991DD2A686B68099800F014FC76
:1043D00000239A469846C2E7089B1B02234399464E
:1043E00051461800C04705000E007A68EFF3108BA5
:1043F00072B6136859424B41D9B2002BF9D1BFF3C1
:104400005F8F002E26DB002E52DD3B69002B53D040
:104410004B4572D100F08AFB02000B1E73DB0100DA
:10442000180052197341984202D804D1914202D91E
:1044300001225242D317002B6BDB00210491013182
:104440000391029451460191414600913800FFF7D3
:1044500077FE49E03B69002BD5D04B451CD1069A2D
:10446000079B10001900521BB341994202D804D196
:10447000904202D901225242D317002B12DB0021B5
:1044800004910131039102945146019141460091FA
:104490003800FFF755FE27E04B4B474A9F21444821
:1044A00000F0F6FE3D4B3E4A3D213E4800F0F0FE56
:1044B000002E01D1002DA8D13A68002C45D0537BA5
:1044C0009C422CD1012100293FD1D37B002B42D12A
:1044D000D473002C52D03B681B7B9C424ED8FA68A8
:1044E000013C135D0133135500233B617A68BFF330
:1044F0005F8F13608BF310883EE7334B2E4AA22167
:104500002B4800F0C5FE254B254A3D21254800F0EB
:10451000BFFE224B224A3D21224800F0B9FE002C6A
:104520000DD0137B9C420AD863001B19033B106813
:10453000844663449B78002BC5D00121C3E7234BFD
:10454000234A6921234800F0A3FE234B234AF72185
:10455000204800F09DFE002B0AD0117B8B4207D82B
:104560005900CB18033B11688C4663445C70AFE77D
:10457000164B174A6921174800F08AFE0A4B104A69
:1045800040210B4800F084FE0BB03CBC904699469D
:10459000A246AB46F0BDC046509400206CB100105E
:1045A000F8B2001088B1001070B0001050B30010C5
:1045B0002CB00010D8B10010A0B30010F0B1001062
:1045C0005CB30010FFFFFF0FFCB10010A4B000109F
:1045D00010B30010C0B0001038B2001040B300108B
:1045E00010B50A4B5B68002B04D00A21084800F084
:1045F00097FB10BD054C2300064A1021206800F0EF
:104600006FFC03212000FFF7B3FCEEE7D088002009
:104610006C940020E13F001010B5064B5B68002B46
:1046200001D0044810BD044B044A5C21044800F04A
:104630002FFEC046D08800205CB2001070B300107E
:104640002CB00010F0B5DE4657464E464546E0B564
:104650008BB0804616001F00149B9A46159B994606
:1046600016AB1B789B461F2302AA94466344002284
:104670001A7032E0002809D042461268127B90423C
:1046800004D8421E4146C9688A5C48E0434B444A0C
:104690004021444800F0FCFD0798002B75D05B4694
:1046A000002B72D04946D04704000D0003000B4395
:1046B00000D171E0002946DB00F038FA06000F1E39
:1046C00055DB36196F41B94202D804D1B04202D944
:1046D00001267642F717002F4FDB43465A68EFF367
:1046E000108472B6136859424B41D9B20791002B1E
:1046F000F8D1BFF35F8F1F3302AA9446634404933B
:104700000023039302934B460193534600933200D8
:104710003B004046FFF714FD031EABD102004146AB
:104720004968BFF35F8F00250D6084F31088002B6C
:1047300029D01F2302A98C4663441B78002BABD1E0
:1047400012021043A9E732003B00361BAF41BB42C7
:1047500002D804D1B24202D901267642F717002FBF
:10476000BBDA114B114A3D21114800F091FD0E4B6F
:104770000E4A3D210E4800F08BFD0B4B0B4A3D21AC
:104780000B4800F085FD012040420BB03CBC904638
:104790009946A246AB46F0BD0798F6E770B0001008
:1047A0005CB300102CB000106CB10010F8B2001017
:1047B00088B10010F8B504004268EFF3108572B6B6
:1047C000136858424341D8B2002BF9D1BFF35F8F31
:1047D000CBB22268567BB3421BD10120002847D0C0
:1047E000206988422BD0090AC9B2002B2DD020683D
:1047F000007B834229D8581EE668305C88422AD064
:1048000000206368BFF35F8F00221A6085F3108871
:10481000F8BD002B0DD0167BB3420AD85E00F61807
:10482000033E1768BC466644B678002ED6D00120F9
:10483000D4E7124B124A6921124800F029FD124BAD
:10484000124AFE21124800F023FD124B124A402169
:104850000F4800F01DFD1900100000F02BFC00288F
:10486000CFD106210D4B094AFF31094800F010FD58
:1048700023698B42C5D100232361C2E7A4B0001095
:1048800010B30010C0B0001080B20010BCB3001014
:104890002CB0001070B000105CB30010A4B2001077
:1048A000F0B587B006000F00FBF7DDFC00281FD134
:1048B00006246442E517A4197D41BD4202D803D104
:1048C000B44201D900240025002D14DB0494059581
:1048D00000F02CF902000B1E13DBA41A9D41002DE1
:1048E00017DC14D03000390000F02CF907B0F0BD0F
:1048F000234800F0EBFC234B234A3D21234800F0E2
:10490000C7FC204B204A3D21204800F0C1FC002C70
:10491000E8D0FFF781FE0023029301931C4B009324
:10492000049A059BFFF78EFE002818DADAE70023C9
:1049300000E00023002BD5D1164B1A68EFF310814D
:1049400072B61368002BFCD0BFF35F8F114B1B684E
:10495000BFF35F8F00221A6081F3108820BF049993
:10496000059A0D4B5B6A9A42E3D80B48806A8842ED
:1049700003D29A42DBD00123DCE70123DAE7C04609
:10498000A8B200106CB10010F8B2001088B100108D
:10499000B13F00106C94002000400540F8B50400C1
:1049A0000D0000F0C3F802000B1E10DB20002900F0
:1049B000801859418B4202D804D1824202D9012089
:1049C0004042C117002908DBFFF76AFFF8BD064B1C
:1049D000064A3D21064800F05BFC034B034A3D219B
:1049E000034800F055FCC0466CB10010F8B200104E
:1049F00088B1001010B5FA2292000023002103F0C4
:104A000031F8FFF7CBFF10BD70B584B005000C0086
:104A1000FFF702FE002302930193194B00932A0033
:104A20002300FFF70FFE061E12DC164B5B6A9C424A
:104A300009D8144A926AAA4208D29C4201D00120A5
:104A400002E0002000E0002004B070BD0120FBE780
:104A500020BFFFF7E1FD3100FFF7ACFE094B5B6AB9
:104A60009C4209D8074A926AAA4207D29C4201D0C6
:104A70000120E9E70020E7E70020E5E70120E3E780
:104A8000B13F00100040054070B5EFF305833F20B3
:104A900018401038EFF3108472B6194B1B68002BC6
:104AA000FBD0BFF35F8F012319008140154A51638A
:104AB000154A12781500C5402B4214D0114B5D6A7F
:104AC0008300124E9B599D4206D38300104D5B59C3
:104AD0008A430D490A7007E00A4A031D9B00995852
:104AE0009950002300E00023BFF35F8F044A0021A8
:104AF000116084F31088002B00D0984770BDC04629
:104B0000280100D000400540AF9400207894002098
:104B1000748E002010B50100024A0348FFF72CF9FB
:104B200010BDC046D4B30010A9940020044B5B6AAA
:104B3000034A906A1900536A9942F9D17047C046F6
:104B400000400540074B5B6A8B4204D2054B5B6A11
:104B5000FAE7044B5B6A8B4203D1024B9B6A8342A8
:104B6000F7D370470040054070B504000D00EFF327
:104B7000108672B61B4B1B68002BFBD0BFF35F8FF8
:104B8000002D1CD0200000F03BFD174B83420BD0C2
:104B90001900200000F03CFD0121200000F020FD64
:104BA0000123A340114A1360A400114BE550BFF349
:104BB0005F8F0C4B00221A6086F3108870BDA20034
:104BC0000B4B0021D1500122A2400A490B7893439C
:104BD0000B700549200000F045FD0021200000F089
:104BE000FFFCE4E7280100D0894A00103860054046
:104BF000748E0020AF940020F0B5DE4600B584B07E
:104C00000400150001921E000293FFF78FFF039529
:104C10008E4202D84ED185424CD9EFF3108B72B63A
:104C2000274B1B68002BFBD0BFF35F8F254A1778FB
:104C30000125A540EBB23B431370234B5D63221D5E
:104C400092000199D150A2002049029850501B6A4D
:104C50002B4212D11C4B1B6C2B4208D00020BFF3FF
:104C60005F8F174B00221A608BF3108823E0184BDC
:104C7000184AC121184800F00BFBFFF757FF8E427E
:104C800014D802D1039B834210D80E4B1B78BB4231
:104C90000ED00D4B1D625D631F2004400123A34015
:104CA0000E4A1360074B1F701E38D8E70020D6E766
:104CB0000120D4E7012004B004BC9346F0BDC046F7
:104CC000280100D0AF9400200040054078940020D7
:104CD000F8B3001068B400101CB4001080E200E0CB
:104CE00010B5EFF3108472B60A4B1B68002BFBD093
:104CF000BFF35F8F01238340074A136207490A7895
:104D00009A430A70BFF35F8F024B00221A6084F34C
:104D1000108810BD280100D000400540AF9400204D
:104D2000024B9C466144890001607047400000349A
:104D300070B504000D00FFF77BF801002000FFF7BD
:104D4000EFFFFF2323716571BFF35F8F70BD10B557
:104D50000021FFF7EDFF10BD10B5FF21FFF7E8FFC1
:104D600010BD0000034B9C46614489000160BFF305
:104D70005F8F70474000003410B504000120FFF73A
:104D800065F801002000FFF7EDFF10BD10B5002908
:104D90001ED0037B99421BD84B005B18033B046871
:104DA000A4466344002919D0002A1DD0914221D085
:104DB000002A25D0047BA24222D804685000801823
:104DC000033820188170197800291FD11A7010BD7E
:104DD000104B114A6921114800F05AFA104B114A40
:104DE00070310E4800F054FA0F4B0E4A71210B48F7
:104DF00000F04EFA0D4B0B4A7221084800F048FAB9
:104E0000044B054A6921054800F042FA41701A70C6
:104E1000DDE7C046A4B0001058B60010C0B00010C6
:104E200014B1001064B6001020B100102CB10010B5
:104E300070B506000D001400002914D0002A14D00B
:104E4000806873689847002806D022002900300047
:104E5000FFF79CFF280007E02A0021003000FFF741
:104E600095FF200000E0100070BD0800FCE7000086
:104E700010B50023437301338373037BC373012392
:104E8000027B9A4214D9002B0CD0027B934209D8A2
:104E90005A00D218033A01688C4662440133DBB2EF
:104EA0005370EDE70B4B0C4A69210C4800F0F0F908
:104EB000002A09D0924207D8016853009A18033A91
:104EC0008A180023537010BD024B034A692103481E
:104ED00000F0DEF9A4B0001058B60010C0B0001009
:104EE00010B5017342608360FFF7C2FF10BD000080
:104EF00070B50400081E00D170BD002934D0237B9A
:104F0000994231D84B005B18033B226894466344B6
:104F10005A78002AF0D02DD0237B9A422AD8530009
:104F20009B18033B21688C4663445D7800215970CF
:104F3000002825D0237B984222D843001B18033B2E
:104F400021688C4663440021597001002000FFF75E
:104F50006FFF060029002000FFF7CAFF02003100A2
:104F60002000FFF765FFC7E7084B094A6921094898
:104F700000F08EF9054B064A6921064800F088F9D1
:104F8000024B034A6921034800F082F9A4B00010E3
:104F900058B60010C0B0001070B505000C00160027
:104FA000002928D02DD0037B99422AD84B005B18CA
:104FB000033B0268944663445A78002A27D19A78C2
:104FC000002A2AD11978FFF793FF0300002E03D09F
:104FD000EA7B002A27D1EC73002B37D1002C49D073
:104FE0002B7B9C4246D82B6861000C19033C1C1992
:104FF0000023637070BD224B224A3821224800F002
:1050000047F9224B224A6921224800F041F9224BFC
:105010001C4A3A211C4800F03BF9204B194A3B211D
:10502000194800F035F9002A0AD0297B8A4207D8AE
:1050300051008A18033A29688C4662445470CAE7C2
:10504000124B134A6921134800F022F9002B0BD0B0
:105050002A7B934208D843001B18033B2A689446D6
:10506000634400229A70B9E7084B094A692109484C
:1050700000F00EF9054B064A6921064800F008F9D0
:1050800098B5001078B60010A0B50010A4B00010BC
:1050900058B60010C0B00010E4B500100CB60010F7
:1050A00070B504000A00457B2900FFF775FF6073A7
:1050B000280070BD70B50400002966D0437B8B4288
:1050C0000ED0002911D0037B99420ED84B005B18FB
:1050D000033B0268D0188378002B0CD1002055E0E8
:1050E0000121FFF7DDFF012050E0294B294A69210A
:1050F000294800F0CDF8002B1FD0227B93421CD80A
:1051000025685A00D318033BEA18EB5C8B421AD08F
:10511000002B1BD0227B934218D85A00D318033B94
:105120002268D21853788B4216D0002BF0D11B4B3B
:105130001B4A67211B4800F0ABF8154B154A692143
:10514000154800F0A5F84378137007E0104B114A9A
:105150006921114800F09CF8437853700023837054
:10516000437001222000FFF717FF0200617B81429C
:1051700005D02000FFF75CFE6073012006E00A4BBB
:10518000074A6D21074800F083F8002070BDC04633
:10519000A4B0001058B60010C0B0001030B6001017
:1051A0008CB60010A0B5001038B6001070B5264BB4
:1051B000264A1A60264B274A1A60274B9A68254BC5
:1051C0009343FAD1254C264B9C4202D208CC9847F7
:1051D000F9E700F015F91E4B224A1A601E4B9B6836
:1051E000DB43DB01FAD1204B40229A675A671A67EA
:1051F000DA661E4C03E02000FFF7A9FD08341C4BC3
:105200009C4206D26379002BF5D02000FFF7A4FD65
:10521000F4E7184CA168184DC022280002F0E2FC07
:10522000A560FBF720F8002800D000BEFEF7F0FDD7
:1052300000F07AFBFFF7D4F9104C01E008CC984756
:105240000F4B9C42FAD370BD00E00040BFCDFBFE87
:1052500000F00040FE7F3C0000C00040BC89002000
:10526000CC890020FFFFFF0100F00140B48900203D
:10527000BC89002000ED00E000000020CC89002067
:10528000D489002000BEFDE710B5FFF7FBFF00004A
:1052900010B582B00C001900002A0CD0084B002A6F
:1052A0000BD00192009323000200064802F0D0FDCB
:1052B0000120FFF7E7FF044BF1E7034AF1E7C0469F
:1052C000A4B60010B4B60010B0B600100FB400B50C
:1052D00083B0084802F08CFD049B002B07D005A981
:1052E0000191180002F092FD034802F081FD0120B7
:1052F000FFF7C8FFE4B60010F4B60010F8B5DE46BC
:1053000057464E464546E0B505000F0092461E0042
:105310000A9B9E424ED3330E994636020A9A0023C8
:105320003000494601F06CFD80466C006419A40011
:105330002E4B9C4664446368834200D260602B1FFE
:10534000DBB29B46012B3BD9C0239B012343802228
:1053500012011A60AB00264A9958002905D05069FD
:1053600001F00CFD01300138FDD153465A0123688C
:105370005A40E0231A4080235B0123431A605A46B7
:10538000012A28D980239B012343802212011A601D
:1053900043466360424600233000494601F030FD39
:1053A000AD00134B585101203CBC90469946A24693
:1053B000AB46F8BD0F4B104A2D211048FFF768FF90
:1053C000012FC1D1C0239B01234303221A60A3688C
:1053D000DB07FCD5C9E72168794003220A401A603F
:1053E000A3680122BA401A42FAD0CBE700800040FD
:1053F000888F0020F8B600105CB700100CB70010C2
:1054000030B583B00C2000F027FBFEF7F7FC002836
:105410000DD00023092B05D899002D4A2D4888501E
:105420000133F7E72A4B2C4A5A6203B030BD2B4BAD
:1054300000229A6700F07EFB294B01221A60274B5D
:105440005B6C012BFBD1274B03221A60234B9B6B18
:10545000012BFBD1022400940533234A0121234868
:1054600000F06EFA00940523214A0121214800F042
:1054700067FA214B0093002202210420FFF73EFF30
:105480001E4D00952B00002201210520FFF736FF5D
:10549000104C00942300002200210720FFF72EFF6C
:1054A00000942300002200210820FFF727FF0A4B69
:1054B00000932300002200210920FFF71FFF009521
:1054C0002B00002200210620FFF718FFADE7C046A1
:1054D000888F0020006CDC021BB7000000800040B9
:1054E0003CB0004030B00040002F685900800240BE
:1054F00000389C1C00C00240001BB70040597307D5
:105500008000014BC0587047888F0020074B9B6874
:10551000103080001950BFF35F8FBFF35F8F044BD3
:105520000021196082F310887047C04600ED00E04A
:10553000240100D010B5091A04394808090B05D117
:105540004005400D044B184380B210BD034B044A84
:105550008C210448FFF79CFE00E0FFFF6CB70010B1
:1055600054B900107CB7001010B5091A04394C0862
:10557000090B08D14905490D064A11430180064B24
:105580002343438010BD054B054A94210548FFF78E
:105590007FFEC04600F0FFFF00F8FFFF6CB7001071
:1055A00060B900107CB7001001238340034A1068E3
:1055B0001840431E9841C0B27047C04600E100E069
:1055C000002904D0034B1860034B18607047034B4D
:1055D0001860FBE780E200E000E100E080E100E02D
:1055E00010B5012383401800FFF7EAFF10BD00004B
:1055F00001238340014A13607047C04600E200E087
:10560000024B9B6810308000C058704700ED00E0EE
:1056100070B504000D00EFF3108672B60C4B1B68DA
:10562000002BFBD0BFF35F8F2000FFF7E9FF094B92
:10563000984201D0A84205D1320029002000FFF78E
:1056400065FF70BD044B054A70210548FFF720FE39
:10565000240100D0CD010010C4B7001038B90010EB
:105660007CB70010F0B5CE46474680B583B0060043
:105670000D00EFF3108872B6574B1B68002BFBD060
:10568000BFF35F8F554B9A6834001034A300D7588E
:10569000534B9F4207D0AF4200D19BE00197514B43
:1056A000FB1A2F2B09D9424639003000FFF72EFF95
:1056B00003B00CBC90469946F0BD3000FFF774FF74
:1056C000814600213000FFF78BFFBFF35F8FFAF7B1
:1056D000CAFD002801D0844219D10123019C9C43BA
:1056E000230040495B1A5B4148495943090D49B2BF
:1056F0000022A368AB4212D00622A256002A0DDB7C
:1057000053009B189B002200364CE418F1E720213F
:10571000354B364AFF313648FFF7BAFD2200AB421F
:1057200051D106256557002D39DB6B005B199A00B6
:105730002C4B9B189A68A260DA79E27106229A567D
:10574000A2719B795BB2002B10DABD200002A08011
:105750006B005B199B00234AD318264A1178997174
:10576000157049463000FFF73BFF9CE7201D6B009A
:105770005B199B001B4A9B181A1D9B88D90A1C2980
:1057800007D159054915023149005118FFF7D2FEDA
:10579000DDE7194B194A9A211548FFF779FD0028D2
:1057A0000CD1002A08D0FF239371154B9380114B25
:1057B0001A78A2711970D4E7094FF8E7201D114932
:1057C000FFF7D2FECDE7AA210F4B084A490008484F
:1057D000FFF75EFD024F66E7240100D000ED00E018
:1057E000CD010010F8880020D8B8001088B900104A
:1057F0007CB70010AA940020C0B8001078B900103F
:1058000000BDFFFF32890020FCB80010AAAA0000EA
:1058100010B5032304009C43064A9446644422685E
:105820001840C000FC3383409A43130081400B436F
:10583000236010BD00E400E0F8B504000126064333
:105840002D4BF31A2F2B28D8FAF70DFD00282BD05B
:10585000EFF3108772B6294B1B68002BFBD0BFF308
:105860005F8F2300244D5B1B5B412E4D5D432D0D4F
:105870006DB2234B9B6880001B58B3421BD00022A3
:10588000032A32D853009B189B001B49CB189B79E5
:105890005BB2AB421FD00132F2E77221194B1A4AB8
:1058A000FF311A48FFF7F4FCBA21194B164A490098
:1058B0001648FFF7EDFC124B9B68164A1A50164B20
:1058C0001A78A2711D70BFF35F8F0C4B00221A6013
:1058D00087F31088F8BD0800530099188900411813
:1058E000FF268E710D4A8A80E9E786210C4B064A15
:1058F000FF310648FFF7CCFCF8880020240100D0D7
:1059000000ED00E004B900109CB900107CB7001055
:105910002CB90010CD010010AA94002000BDFFFF9B
:1059200030B60010AAAA000010B500241F2C05D81C
:1059300080212000FFF76CFF0134F7E710BD000065
:10594000F0B5CE4600B504000E0091461F000C20B5
:1059500001F014FA050043011B1A9901C91AC90084
:1059600009188901484601F009FA0200103A982303
:105970005B009A4233D87B1E062B36D8069B013B30
:10598000062B32D8069B9F4235D34B461A09AA42B2
:1059900037D33F04069B1D032F432368002B36DBC0
:1059A000234B9C4241D080256D01224B1D60224B30
:1059B0001D60224A92682B009343FAD12660A060B2
:1059C000221DC0239B01134321221A602268002A52
:1059D000FCDAE76008221A6004BC9146F0BD184B5F
:1059E000184A16211848FFF753FC184B154A19217D
:1059F0001548FFF74DFC164B124A1F211248FFF7BE
:105A000047FC144B0F4A22210F48FFF741FC226844
:105A10003F231340B342C3D1A3681B051B0D834230
:105A2000BED1E368002FBBD1D6E78025AD01BCE72E
:105A300000C0024000E0004000F0004000C0004014
:105A4000B8B900109CBA0010D4B900101CBA0010EC
:105A500068BA001080BA001080239B000343014AFB
:105A6000D362704700800540024B1A68024B5A60AF
:105A70007047C046449400200080054010B50200E5
:105A8000144B8020C0051860134B1448186000297F
:105A90001BD0134BE021C9041960002A00D1323217
:105AA0005001801A8000801800010E4B186080237E
:105AB0005B04984202D30B4B0B4A1A60FFF7D4FFEA
:105AC000074B8022D2051A6010BD024BE021C904A9
:105AD0001960E2E700B0054008200140FCFF01002A
