:020000041000EA
:1000000000B5324B212058609868022188439860DF
:10001000D860186158612E4B002199600221596106
:100020000121F02299502B49196001219960352056
:1000300000F044F80222904214D00621196600F024
:1000400034F8196E01211966002018661A6600F04E
:100050002CF8196E196E196E052000F02FF8012189
:100060000842F9D1002199601B49196000215960AB
:100070001A491B48016001219960EB211966A021F2
:10008000196600F012F800219960164914480160C1
:100090000121996001BC002800D000471248134993
:1000A000086003C880F30888084703B5996A0420EC
:1000B0000142FBD001200142F8D103BD02B5186610
:1000C0001866FFF7F2FF186E186E02BD00000240BE
:1000D000000000180000070000035F00212200005C
:1000E000F4000018222000A00001001008ED00E03C
:1000F00000000000000000000000000074B24E7A12
:1001000000200420F7010010C3010010C5010010F9
:10011000C1010010C1010010C1010010C101001097
:10012000C1010010C1010010C1010010C701001081
:10013000C1010010C1010010C9010010CB01001065
:10014000CD010010CD010010CD010010CD01001037
:10015000CD010010CD010010CD010010CD01001027
:10016000CD010010CD010010CD010010CD01001017
:10017000CD010010CD010010CD010010CD01001007
:10018000CD010010CD010010CD010010CD010010F7
:10019000CD010010CD010010CD010010CD010010E7
:1001A000CD010010CD010010CD010010CD010010D7
:1001B000CD010010CD010010CD010010CD010010C7
:1001C00000BE00BE00BE00BE00BE00BE00F04BF888
:1001D000103800BEF2EB8871D4C50010FCC50010C9
:1001E0003402001090A31AE700202149086006C8D5
:1001F00081F3088810471F48006800282FD10DA4FC
:100200000ECC002902D000F012F8F9E71A491B4A77
:10021000002000E001C19142FCD1194988471949E9
:1002200088471949884700BEFDE701C901C29A42C3
:10023000FBD37047FCC50010C0000020D48900200B
:10024000104F01100000042000000420104F011086
:1002500000100420001004200000000070470B482C
:1002600006F07CFC0047EFF30580C0B27047000049
:1002700008ED00E0000000D0D88900209819012086
:1002800035500010E30300101151001057560000C4
:1002900006005250ABB3605348BC001006005250E9
:1002A000861C030258BC0010060052505422A29D26
:1002B00068BC001005005250DE65F468104F011054
:1002C000F8B5C0460448054B10B5834203D0044B33
:1002D000002B00D0984710BDD4890020D48900207D
:1002E0000000000006480749091A8B10C90FC918F9
:1002F00010B5491003D0044B002B00D0984710BD17
:10030000D4890020D48900200000000010B5074CDB
:100310002378002B09D1FFF7D5FF054B002B02D026
:10032000044800E000BF0123237010BDE08A0020D4
:100330000000000058AB0010054B10B5002B03D097
:100340000449054800E000BFFFF7CCFF10BDC046E0
:1003500000000000E48A002058AB00100123834015
:10036000D0221206936153610022002000E0013286
:10037000072A0EDCD0231B068021490399615961AD
:100380004000C0B25B689B02F1D501231843C0B2A4
:10039000EDE7704710B501248440D0231B069C6113
:1003A00000230BE0D02212068020C001906149009A
:1003B000D02212068020C00450610133072B0CDCD0
:1003C000D02212068020C00490610A06EAD5D0220D
:1003D00012068020C0015061E9E7D0231B065C6152
:1003E00010BD10B51B2003F0E9FBD02424068023A8
:1003F0001B05636263610E2003F0E0FB0F2003F036
:10040000DDFB162003F0DAFB152003F0D7FB1A20E2
:1004100003F0D4FB132003F0D1FB142003F0CEFB38
:10042000112003F0CBFB102003F0C8FB8023DB017D
:10043000636280231B0263628023DB03636280228A
:100440009203A2628023DB04636280231B03636246
:1004500080235B03636262616361642004F00EFACF
:1004600000F00CF900F0D6F907F042FC03F032FB83
:1004700003F052FBFCE782B0030001906420584374
:10048000002801D00138FBE702B07047044B1A681E
:1004900001239340D0221206936153627047C046F5
:1004A0005CAB0010044B1A6801239340D022120663
:1004B000536153627047C0465CAB0010044B1A682E
:1004C00001239340D0221206936153627047C046C5
:1004D00058AB0010044B1A6801239340D022120637
:1004E000536153627047C04658AB001082B000237E
:1004F00001930193019B002B03DC019B01330193CA
:10050000F8E702B0704710B5FFF7F0FFFFF7CAFF3A
:10051000FFF7ECFFFFF7DEFFFFF7E8FFFFF7B6FF9F
:10052000FFF7E4FFFFF7CAFFFFF7E0FF10BD10B5CC
:10053000FFF7DCFFFFF7AAFFFFF7D8FFFFF7CAFFBF
:10054000FFF7D4FFFFF7AEFFFFF7D0FF10BD0000AD
:1005500010B50E4B1A6801239340D0221206936205
:10056000FFF7B8FFFFF7C2FF0123012B0BD0FFF706
:10057000BDFFFFF7A3FF10BDFFF7B8FF0134002355
:10058000002CF9DDF1E70024F9E7C0465CAB001070
:1005900070B5040000250BE0FFF784FFFFF7A6FF0E
:1005A000FFF798FFFFF7A2FF6400E4B20135EDB258
:1005B000072D09D8FFF782FFFFF798FF63B2002BE2
:1005C000EADBFFF763FFE9E7FFF778FFFFF78EFF4E
:1005D000FFF7BEFF70BD10B50400FFF794FF782051
:1005E000FFF7D6FF8020FFF7D3FF072004405738DE
:1005F000204340B2C0B2FFF7CBFFFFF777FFFFF712
:1006000096FF10BD10B50400FFF77DFF7820FFF7BF
:10061000BFFF8020FFF7BCFF230910201843C0B2A2
:10062000FFF7B6FF8020FFF7B3FF0F202040FFF752
:10063000AFFFFFF77CFF10BD10B5054B1A787F2187
:1006400011401970034B1868FFF7A4FE10BDC04697
:10065000A094002064AB001010B5064B1A788021DE
:1006600049421143C9B21970034B1868FFF792FE53
:1006700010BDC046A094002064AB001010B5FFF779
:10068000EBFFFA24E4002000FFF7F5FEFFF7D4FFAC
:100690002000FFF7F0FEFFF7DFFF2000FFF7EBFE83
:1006A000FFF731FF7820FFF773FF8020FFF770FF1F
:1006B000AE20FFF76DFF8020FFF76AFFD520FFF720
:1006C00067FF8020FFF764FFA020FFF761FF802015
:1006D000FFF75EFFA820FFF75BFF8020FFF758FFC2
:1006E0001F20FFF755FF8020FFF752FFD320FFF7B1
:1006F0004FFF8020FFF74CFF0020FFF749FF8020CD
:10070000FFF746FFAD20FFF743FF8020FFF740FFD4
:100710008E20FFF73DFF8020FFF73AFFD820FFF73C
:1007200037FF8020FFF734FF0520FFF731FF8020DF
:10073000FFF72EFFA120FFF72BFF8020FFF728FFF8
:10074000C820FFF725FF8020FFF722FFDA20FFF700
:100750001FFF8020FFF71CFF1220FFF719FF8020EA
:10076000FFF716FF9120FFF713FF8020FFF710FF20
:100770003F20FFF70DFF8020FFF70AFF3F20FFF724
:1007800007FF8020FFF704FF3F20FFF701FF8020D5
:10079000FFF7FEFE3F20FFF7FBFE8020FFF7F8FE8D
:1007A0008120FFF7F5FE8020FFF7F2FE184B187846
:1007B000FFF7EEFE8020FFF7EBFED920FFF7E8FE03
:1007C0008020FFF7E5FED220FFF7E2FE8020FFF752
:1007D000DFFEDB20FFF7DCFE8020FFF7D9FE3420B0
:1007E000FFF7D6FE8020FFF7D3FEA620FFF7D0FE4E
:1007F0008020FFF7CDFEA420FFF7CAFE8020FFF780
:10080000C7FEAF20FFF7C4FEFFF791FE10BDC04644
:10081000C804002070B5002503E0FFF788FE01350D
:10082000EDB2032D16D82800FFF7D5FE0020FFF704
:10083000E9FEFFF768FE7820FFF7AAFE4020FFF7E9
:10084000A7FE0024832CE8D80020FFF7A1FE013486
:10085000E4B2F7E770BD02000021002005E040008F
:10086000012313401843521001310729F7DD704767
:1008700070B5203AD5B28400041B64007F34032095
:10088000401AC0B2FFF7A7FEE0B2FFF7BBFEFFF7CA
:100890003AFE7820FFF77CFE4020FFF779FE002427
:1008A000042C0DDCAB005B190422121B9B18074AB9
:1008B000D05CFFF7D0FFC0B2FFF76AFE0134EFE76C
:1008C0000020FFF765FEFFF732FE70BD70AB001031
:1008D00070B50E0014002278002A06D0451C0134A1
:1008E0003100FFF7C5FF2800F5E770BD30B585B0D2
:1008F00004000D00054901A806F004F901AA290029
:100900002000FFF7E5FF05B030BDC04668AB001022
:100910007047704770470000024BDA7959885218C7
:100920005A807047A8950020054B5888997909028C
:10093000DA790A435A80020A9A71D8717047C04620
:10094000A8950020024A5388013B93807047C04617
:10095000A8950020024A9388013353807047C0460F
:10096000A89500200F4A9379D371127A02218A4305
:10097000002B0CD104210A430A490A725BB2002BF6
:100980000ADB084A137A08218B431372704704214B
:100990008A4304490A72F1E7024A137A08210B4399
:1009A0001372F3E7A89500200F4AD3799371127A56
:1009B00002218A43002B0CD104210A430A490A72FE
:1009C0005BB2002B0ADB084A137A08218B431372AF
:1009D000704704218A4304490A72F1E7024A137AF4
:1009E00008210B431372F3E7A8950020014B9A7975
:1009F0001A727047A8950020014B1A7A9A717047B5
:100A0000A8950020024A137A01218B431372704784
:100A1000A8950020024A137A01210B4313727047F4
:100A2000A8950020024A137A10210B4313727047D5
:100A3000A8950020024A137A10218B431372704745
:100A4000A8950020092802D0342812D070470B4AFC
:100A50005388013B9BB25380002B04D1137A0421AD
:100A60000B431372F2E7054A137A04218B43137286
:100A7000ECE7024A9388013B9380E7E7A8950020C2
:100A8000082802D0312812D070470B4A538801330E
:100A90009BB25380002B04D1137A04210B431372B1
:100AA000F2E7054A137A04218B431372ECE7024AFA
:100AB000938801339380E7E7A895002053B2002B79
:100AC00009DB12B22038C3B20F2B00D989E098009D
:100AD000594B1B589F46013AFF3AF3E757490B8899
:100AE0009A1801320A8080E0544B1B7A0521194282
:100AF00000D076E051490B889A1801320A8074E0E0
:100B00004E4B1B7A052119426BD04C490B889A1821
:100B100001320A8069E0494B1B7ADB0761D44749FF
:100B20000B889A1801320A805FE0444B1B7ADB077E
:100B300057D542490B889A1801320A8055E03F4B3D
:100B40001B7A5B074DD43D490B889A1801320A8005
:100B50004BE03A4B1B7A5B0743D538490B889A1810
:100B600001320A8041E0354B1B7A9B0739D4334967
:100B70000B889A1801320A8037E0304B1B7A9B07AA
:100B80002FD52E490B889A1801320A802DE02B4B65
:100B90001B7A1B0725D429490B889A1801320A8031
:100BA00023E0264B1B7A1B071BD524490B889A1878
:100BB00001320A8019E0214B197A0A230B400A2BD3
:100BC00001D0002B0DD11D490B889A1801320A80E3
:100BD0000BE01A4B197A0A230B40022B06D0082B84
:100BE00004D0164A138801331380704713490B88C9
:100BF0009A1801320A80F8E7104B1B7A590705D47E
:100C00000A210B400A2B01D0002BEAD10B490B889B
:100C10009A1801320A80E8E7084B1B7A5907E0D49A
:100C20000A210B400A2BDCD0002BDAD003490B88B9
:100C30009A1801320A80D8E750AD0010A89500201C
:100C4000204B99790F220A401B7A980602D506316B
:100C50001C488171092A03D91A498A7906328A7196
:100C6000DA0703D517498A7960328A71154A927971
:100C70009F2A02D9603213498A71124A9279992ABD
:100C800003D901210B430F490B7253B2002B0CDB2C
:100C90000C490B7A082083430B72002A0BD1094AB6
:100CA000137A04210B431372704706490B7A08200C
:100CB00003430B72F1E7034A137A04218B43137247
:100CC000F2E7C046A8950020094A9179D3794B43B1
:100CD000190A9171D3711B0604D5137A01210B43B4
:100CE00013727047024A137A01218B431372F8E79B
:100CF000A895002030B52C4BD9799A79531ADBB2DC
:100D000052B2002A28DB002A02DB48B200282FDB7F
:100D1000254C207A0225A8432072002B2CD1224C8E
:100D2000207A0425284320725BB2002B2ADB1E4C5C
:100D3000207A0825A8432072002A02DB48B2002846
:100D40002BDB49B2002923DB002B24DB164A137A64
:100D500001218B43137225E048B20028D3DB58B23F
:100D60000028D0DB104C207A022528432072D4E7DB
:100D700058B20028CCDAF5E70B4C207A0425A843BA
:100D80002072D1E7084C207A082528432072D3E747
:100D9000002BD9DA01E0002AD8DB034A137A0121BB
:100DA0000B43137230BDC046A895002030B52C48C7
:100DB000C1798279531ADBB2837152B2002A28DBDF
:100DC000002A02DB48B200282FDB254C207A0225BE
:100DD000A8432072002B2CD1214C207A04252843D3
:100DE00020725BB2002B2ADB1D4C207A0825A84319
:100DF0002072002A02DB48B200282BDB49B200290E
:100E000023DB002B24DB164A137A01218B43137258
:100E100025E048B20028D3DB58B20028D0DB104CC4
:100E2000207A022528432072D4E758B20028CCDA71
:100E3000F5E70B4C207A0425A8432072D1E7084C33
:100E4000207A082528432072D3E7002BD9DA01E065
:100E5000002AD8DB024A137A01210B43137230BDFA
:100E6000A8950020194BDB79DA071DD517490A7AB6
:100E7000012002430A725B08144A127AD10719D57D
:100E800002210A4311490A72002B18D10F490A7A2C
:100E9000042002430A720D4A117A0820814311721C
:100EA00019129171D371704708490A7A012082435F
:100EB0000A72E0E702218A4304490A72E4E703491F
:100EC0000A7A042082430A72E5E7C046A89500200A
:100ED0001C4B07229A56DB79002A1EDB19490A7A35
:100EE000012082430A725B00DBB2002B1BD1154943
:100EF0000A7A042002430A7212490A7A08208243BD
:100F00000A720A7A09211140082912D0012910D049
:100F100002218A430B490A720FE00A490A7A01202A
:100F200002430A72DFE707490A7A042082430A7201
:100F3000E2E702210A4303490A721912014A917138
:100F4000D3717047A89500206E2807D07E2804D161
:100F500012021A43013A054B1A807047034B598815
:100F6000521892B2013A1A80F7E7C046A8950020BD
:100F700010B51B4A136801331360C0239B009842CD
:100F800003D04033984214D010BD164C0023237078
:100F9000154B19787F2291431143C9B21970134B35
:100FA0001868FFF7F7F9227802210320FFF79EFC6B
:100FB000EAE70C4C23780133DBB223700A4A11783C
:100FC0007F20814343401943C9B21170074B186811
:100FD000FFF7E0F9227802210320FFF787FCD3E72F
:100FE0005C940020A1940020A094002064AB001029
:100FF000C0235B00984204D08223FF33984205D07F
:101000007047034B1B687F201840F9E70020F7E783
:101010003094002010B51749174809F0E1FC00286A
:101020000FD110BD00212000FFF722FC01341F2C3E
:1010300009DC104B1A5D114B9B5C68218B43F5D08A
:10104000F0E70024F3E7402405E06739200040384A
:10105000FFF70EFC01345F2C07DC064B1A5D074BD3
:101060009B5C68218B43F5D0EFE70249024809F009
:10107000FBFCD6E7C8150120A4940020D1C40010C1
:1010800010B5C0235B00984206D08223FF339842FC
:1010900042D0FFF7BFFF10BD6F2904D97F2319404D
:1010A000284B1960F5E707290DD804292AD2012910
:1010B0001CD00029EDD00239C9B20129E9D8214B51
:1010C00000221A60E5E70B00083BDBB2072BE0D8F3
:1010D0008A1001231A401C4802604A1013401B4A20
:1010E0001360012319401A4B1960D2E70023FF2B2C
:1010F00004DC184A2021D1540133F8E7114B0022B7
:101100001A60C6E74A1001231340134A13600123F3
:101110001940124B1960BCE70A4B1B680D4AD154A9
:101120000D4A1268002A09D001229B18054A136053
:10113000FF2BAEDD1300FF221A60AAE70122524204
:10114000F3E7C04630940020189000202C94002033
:1011500028940020C81501202494002034940020F5
:1011600003B2002B06DB064B0122DA601882054B26
:10117000C0187047044B9C466044044BC018F8E705
:10118000A8950020C49500200080FFFFCC08002017
:1011900010B5152809D808281FD3083883B20D2B9D
:1011A0001BD898001B4B1B589F46C0239B0098429E
:1011B00004D007D9D0239B0098420ED1FFF7D8FE68
:1011C00000200AE00300813BFF3B9BB2012B04D8C7
:1011D000FFF70EFF01E0104B187810BD0F4B188879
:1011E000000AFAE70D4B1878F7E70D4B1888000A4C
:1011F000F3E70B4B1878F0E70A4B1868FFF7AEF8E7
:101200007E228243084C627502210020FFF76EFBAC
:10121000607DE2E790AD0010A29400209894002039
:101220009694002060AB0010C495002070B56D2826
:1012300030D020D84D2838D05D2800D1254C264A02
:10124000137A02218B4301398B431372D368002B2D
:101250002DD12378002B31D11F4A137A04210B435F
:1012600013720023E356002B2EDB1B4A137A08214E
:101270008B43137270BD7D28E1D11202D21890B257
:10128000FFF76EFF0400144A138801339BB2013349
:101290001380D4E7104D6888801880B2FFF760FF94
:1012A00004002B8801332B80C9E70C4CC7E71500DD
:1012B000108AFFF76DFF0023EB60CAE7064A137A36
:1012C00004218B431372CCE7034A137A08210B43A2
:1012D0001372CFE7AF950020A8950020AE950020AF
:1012E00010B50C2809D808281ED3083883B2042B5F
:1012F0001AD898001C4B1B589F46C0239B0098424D
:1013000004D006D9D0239B0098420DD1FFF730FEC0
:101310000AE00300813BFF3B9BB2012B04D8FFF79F
:10132000AFFE01E0114B197010BD114A1088FF2368
:101330000340090219431180F6E70D4A1388FF2084
:10134000834319431180EFE70A4A1088FF230340C3
:10135000090219431180E7E7064A1388FF208343F7
:1013600019431180E0E7C046C8AD0010A2940020E8
:10137000989400209694002070B56A283AD02AD814
:101380004A2842D05A2800D1304C2378802B3ED0B6
:101390002F4A137A02218B4313722D4BDB68002BEB
:1013A0003BD121780139C9B22170294BDB68002B70
:1013B00038D12378002B3CD1254A137A04210B43E2
:1013C00013720023E356002B39DB214A137A0821DC
:1013D0008B43137270BD7A28D7D11202D21890B203
:1013E000FFF7BEFE04001A4A138801339BB2013393
:1013F0001380CAE7164D6888801880B2FFF7B0FEE8
:1014000004002B8801332B80BFE7124CBDE7104A44
:10141000137A02210B431372BFE70D4B188AFFF7B3
:10142000B7FEBEE70A4D288AFFF75AFF0023EB609C
:10143000BFE7074A137A04218B431372C1E7044ABA
:10144000137A08210B431372C4E7C046AF950020FE
:10145000A8950020AE95002070B56C283AD02AD807
:101460004C2842D05C2800D1304C2378802B3ED0D1
:101470002F4A137A02218B4313722D4BDB68002B0A
:101480003BD121780131C9B22170294BDB68002B97
:1014900038D12378002B3CD1254A137A04210B4301
:1014A00013720023E356002B39DB214A137A0821FB
:1014B0008B43137270BD7C28D7D11202D21890B220
:1014C000FFF74EFE04001A4A138801339BB2013322
:1014D0001380CAE7164D6888801880B2FFF740FE77
:1014E00004002B8801332B80BFE7124CBDE7104A64
:1014F000137A02210B431372BFE70D4B188AFFF7D3
:1015000047FEBEE70A4D288AFFF7EAFE0023EB609C
:10151000BFE7074A137A04218B431372C1E7044AD9
:10152000137A08210B431372C4E7C046AF9500201D
:10153000A8950020AE95002070B56F282BD01BD841
:101540004F2833D05F2800D1204C214BDB68002B83
:101550002ED1002323701E4BDB68002B2DD11C4A9B
:10156000137A02218B4301398B4304210B43DBB2F5
:1015700008218B43137270BD7F28E6D11202D21866
:1015800090B2FFF7EDFD0400114A138801339BB2BE
:1015900001331380D9E70E4D6888801880B2FFF7B9
:1015A000DFFD04002B8801332B80CEE7094CCCE70C
:1015B000074B188AFFF7ECFDCBE7054C208A00218A
:1015C000FFF78EFE0023E360C9E7C046AF95002019
:1015D000A8950020AE95002070B560282DD01DD8AC
:1015E000402835D0502800D1204C214BDB68002BFF
:1015F00030D121784942C9B221701D4BDB68002BE4
:101600002DD11B4A137A02218B4301398B430421CC
:101610000B43DBB208218B43137270BD7028E4D1F9
:101620001202D21890B2FFF79BFD0400104A1388F3
:1016300001339BB201331380D7E70D4D68888018C2
:1016400080B2FFF78DFD04002B8801332B80CCE79F
:10165000084CCAE7064B188AFFF79AFDC9E7044C05
:10166000208AFFF73DFE0023E360CAE7AF95002024
:10167000A8950020AE95002070B5682847D037D8CF
:1016800048284FD0582800D1394C0023E356002B6E
:101690004ADB384A137A01218B431372354BDB68DE
:1016A000002B47D121784900C9B22170314BDB684A
:1016B000002B44D12378002B48D12E4A137A0421E1
:1016C0000B4313720023E356002B45DB294A137AA0
:1016D00008218B431372274B1B7A09221A40082AD0
:1016E00040D0012A3ED002229343224A13723DE0A9
:1016F0007828CAD11202D21890B2FFF731FD040047
:101700001C4A138801339BB201331380BDE7194D86
:101710006888801880B2FFF723FD04002B8801330E
:101720002B80B2E7144CB0E7124A137A01210B4325
:101730001372B3E70F4B188AFFF72AFDB2E70D4D7E
:10174000288AFFF7CDFD0023EB60B3E7094A137A3F
:1017500004218B431372B5E7064A137A08210B4321
:101760001372B8E702221343024A137270BDC046D7
:10177000AF950020A8950020AE95002070B5632895
:1017800039D029D8432841D0532800D12C4C2D4B97
:10179000DB68002B3CD12178C943C9B22170294BA9
:1017A000DB68002B39D1274A137A02218B430121B0
:1017B0000B43DBB213722278002A35D10422134383
:1017C000204A13720023E356002B32DB1D4A137AA2
:1017D00008218B43137270BD7328D8D11202D2181E
:1017E00090B2FFF7BDFC0400164A138801339BB288
:1017F00001331380CBE7134D6888801880B2FFF760
:10180000AFFC04002B8801332B80C0E70E4CBEE7F1
:101810000C4B188AFFF7BCFCBDE70A4D288AFFF77E
:101820005FFD0023EB60BEE704229343054A137279
:10183000C8E7044A137A08210B431372CBE7C0466A
:10184000AF950020A8950020AE95002070B56428C3
:101850003DD02DD8442845D0542800D1314C237890
:10186000DB0741D5304A137A01210B4313722E4B0B
:10187000DB68002B3ED12178490821702A4BDB68B8
:10188000002B3CD1284B1B7ADA073FD502221343A9
:10189000254A13722378002B3DD1234A137A042161
:1018A0000B431372204A137A08218B43137270BDC5
:1018B0007428D4D11202D21890B2FFF751FC040060
:1018C000194A138801339BB201331380C7E7164DC1
:1018D0006888801880B2FFF743FC04002B8801332E
:1018E0002B80BCE7114CBAE70F4A137A01218B43D6
:1018F0001372BCE70C4B188AFFF74AFCBBE70A4D92
:10190000288AFFF7EDFC0023EB60BBE7022293433C
:10191000054A1372BEE7044A137A04218B431372FB
:10192000C0E7C046AF950020A8950020AE950020E6
:1019300070B5672844D034D847284CD0572800D1F8
:10194000354C2378DB0748D5344A137A01210B4301
:101950001372324BDB68002B45D123785B08237070
:1019600040221A4202D0C03A134323702B4BDB684B
:10197000002B3DD12378002B42D1284A137A042131
:101980000B431372254B1B7A0822934301321A40F2
:10199000082A3BD0012A39D0022293431F4A1372EE
:1019A00038E07728CDD11202D21890B2FFF7D8FBD9
:1019B00004001A4A138801339BB201331380C0E735
:1019C000164D6888801880B2FFF7CAFB04002B8888
:1019D00001332B80B5E7124CB3E7104A137A01218B
:1019E0008B431372B5E70D4B188AFFF7D1FBB4E7B1
:1019F00021780A4D288AFFF773FC0023EB60B9E7D2
:101A0000064A137A04218B431372BBE70222134365
:101A1000024A137270BDC046AF950020A895002001
:101A2000AE95002070B569284FD03FD8492857D0CF
:101A3000592800D13D4C3E4B1B7A01251D40002208
:101A4000A256002A4EDB01229343394A1372384BC7
:101A5000DB68002B4BD123785B00DBB22370002DB9
:101A600002D0012213432370314BDB68002B43D19A
:101A70002378002B48D12E4A137A04210B4313728A
:101A80000023E356002B45DB294A137A08218B43B8
:101A90001372274B1B7A09221A40082A40D0012AC8
:101AA0003ED002229343224A13723DE07928C2D1EC
:101AB0001202D21890B2FFF753FB04001C4A13889D
:101AC00001339BB201331380B5E7194D6888801844
:101AD00080B2FFF745FB04002B8801332B80AAE777
:101AE000144CA8E701221343114A1372AFE7104BBD
:101AF000188AFFF74DFBAEE721780D4D288AFFF7D6
:101B0000EFFB0023EB60B3E7094A137A04218B4310
:101B10001372B5E7064A137A08210B431372B8E72C
:101B200002221343024A137270BDC046AF950020D3
:101B3000A8950020AE95002070B566284ED03ED8FE
:101B4000462856D0562800D13C4C3D4B1B7A0122EA
:101B500015001D4021780A424DD01343384A1372B4
:101B6000374BDB68002B4BD123785B082370002DAB
:101B700003D08022524213432370314BDB68002B89
:101B800043D12378002B48D12D4A137A04210B43EB
:101B900013720023E356002B45DB294A137A0821F0
:101BA0008B431372264B1B7A09221A40082A40D015
:101BB000012A3ED002229343214A13723DE0762847
:101BC000C3D11202D21890B2FFF7CAFA04001C4A1D
:101BD000138801339BB201331380B6E7184D688830
:101BE000801880B2FFF7BCFA04002B8801332B80E9
:101BF000ABE7144CA9E701229343114A1372AFE7F4
:101C00000F4B188AFFF7C4FAAEE721780C4D288AEB
:101C1000FFF766FB0023EB60B3E7094A137A042160
:101C20008B431372B5E7064A137A08210B431372EC
:101C3000B8E702221343024A137270BDAF95002029
:101C4000A8950020AE95002010B5C1235B009842F6
:101C500014D2023B98421FD208281AD015281ED150
:101C6000154B1868FEF77AFB7E228243134C62758F
:101C700002210020FEF73AFE607D0CE0C0239B00AD
:101C8000984202D04033984209D1FFF771F9002001
:101C900001E00B4B187810BDFFF7AAF9FBE703B280
:101CA000002B02DB054B185CF5E7064B9C466044B5
:101CB000054B185CEFE7C04660AB0010C4950020F0
:101CC000A29400200080FFFFCC08002010B5140073
:101CD00000216B2819D07B2820D0194A13880133A2
:101CE0009BB201331380137A022293434AB2002A33
:101CF0001ADB08229343124A1372002919D1104AA1
:101D0000137A04210B43137210BD0D4A5088C0187A
:101D100080B2FFF799FF21000140DEE798B2FFF79C
:101D200093FF21000140D8E708221343044A1372AD
:101D3000E3E7034A137A04218B431372E4E7C046B6
:101D4000A895002010B533280DD0382814D032289B
:101D500000D010BD134CA088013080B2A080FFF7E6
:101D600073FFA071F5E70F4CA088013080B2A0800E
:101D7000FFF76AFFE071ECE70A4CA088013080B2FF
:101D8000A080FFF761FF80B200026080A088013070
:101D900080B2A080FFF758FF80B26388C0186080CF
:101DA000D7E7C046A895002010B5C42800D165E04B
:101DB0001ED8A42856D00DD9B4283AD198B2FFF72E
:101DC00043FF02003C490B8801339BB201330B8077
:101DD00006312EE0842827D094282AD190B2FFF72C
:101DE00033FF020034490B8801330B80063120E0B9
:101DF000E42849D0F4280BD198B2FFF725FF020060
:101E00002D490B8801339BB201330B80073110E061
:101E1000D4280ED190B2FFF717FF020026490B8895
:101E200001330B80073104E023490B8801330B8019
:101E300006310878104008701F4A137A0220834345
:101E400013720A78002A2BD1042213431A4A137200
:101E50000023CB56002B28DB174A137A08218B432B
:101E6000137210BD144CA0788018C0B2FFF7ECFEBE
:101E70000200238801332380A11DDAE70E490B8875
:101E800001330B800731D4E70B4CA0788018C0B227
:101E9000FFF7DAFE0200238801332380E11DC8E743
:101EA00004229343044A1372D2E7034A137A0821A7
:101EB0000B431372D5E7C046A895002010B5C8287B
:101EC00000D165E01ED8A82856D00DD9B8283AD13F
:101ED00098B2FFF7B9FE02003C490B8801339BB270
:101EE00001330B8006312EE0882827D098282AD18C
:101EF00090B2FFF7A9FE020034490B8801330B8032
:101F0000063120E0E82849D0F8280BD198B2FFF735
:101F10009BFE02002D490B8801339BB201330B80DD
:101F2000073110E0D8280ED190B2FFF78DFE0200E5
:101F300026490B8801330B80073104E023490B88C5
:101F400001330B8006310878504008701F4A137A1D
:101F50000220834313720A78002A2BD104221343F0
:101F60001A4A13720023CB56002B28DB174A137A28
:101F700008218B43137210BD144CA0788018C0B296
:101F8000FFF762FE0200238801332380A11DDAE7F8
:101F90000E490B8801330B800731D4E70B4CA07836
:101FA0008018C0B2FFF750FE02002388013323805F
:101FB000E11DC8E704229343044A1372D2E7034A9F
:101FC000137A08210B431372D5E7C046A895002069
:101FD00010B5CA2800D165E01ED8AA2856D00DD960
:101FE000BA283AD198B2FFF72FFE02003C490B887D
:101FF00001339BB201330B8006312EE08A2827D0B3
:102000009A282AD190B2FFF71FFE020034490B88AC
:1020100001330B80063120E0EA2849D0FA280BD1A1
:1020200098B2FFF711FE02002D490B8801339BB2D5
:1020300001330B80073110E0DA280ED190B2FFF7A0
:1020400003FE020026490B8801330B80073104E0B0
:1020500023490B8801330B80063108781043087040
:102060001F4A137A0220834313720A78002A2BD165
:10207000042213431A4A13720023CB56002B28DB89
:10208000174A137A08218B43137210BD144CA078A1
:102090008018C0B2FFF7D8FD0200238801332380E7
:1020A000A11DDAE70E490B8801330B800731D4E715
:1020B0000B4CA0788018C0B2FFF7C6FD0200238841
:1020C00001332380E11DC8E704229343044A1372BD
:1020D000D2E7034A137A08210B431372D5E7C046AF
:1020E000A895002010B5C52862D01ED8A52853D0C9
:1020F0000DD9B5283AD198B2FFF7A6FD02003B49A9
:102100000B8801339BB201330B8006312EE085280A
:1021100027D095282AD190B2FFF796FD02003349C7
:102120000B8801330B80063120E0E52846D0F528E6
:102130000BD198B2FFF788FD02002C490B880133C0
:102140009BB201330B80073110E0D5280ED190B23D
:10215000FFF77AFD020025490B8801330B80073118
:1021600004E022490B8801330B8006310878110006
:1021700001401E4B1B7A0224A34302422AD10422AF
:1021800013431A4A137249B2002928DB174A137AFB
:1021900008218B43137210BD144CA0788018C0B274
:1021A000FFF752FD0200238801332380A11DDDE7E4
:1021B0000E490B8801330B800731D7E70B4CA07811
:1021C0008018C0B2FFF740FD02002388013323804E
:1021D000E11DCBE704229343044A1372D3E7034A79
:1021E000137A08210B431372D5E7C046A895002047
:1021F00070B50021E3286AD015D8C3282CD0D32885
:1022000033D194B22000FFF71FFD0500601CFFF7DB
:102210001BFD2D02A9B280B2091889B24F4A13885A
:102220000133138021E0F3281FD112029A1894B2CF
:102230002000FFF709FD05000134A0B2FFF704FDFF
:102240002D02A9B280B2091889B2444A1388013319
:102250009BB20133138008E012029A1891B23F4AF0
:10226000138801339BB2013313803C4A93791B02DC
:10227000D07902001A43521892B2034380242402F8
:1022800018002040234202D00BB2002B34DB002880
:1022900005D10BB2002B02DB13B2002B2FDB2F4C2E
:1022A000237A0225AB432372002802D00BB2002B05
:1022B0002EDB09B2002928DB13B2002B01DB00283A
:1022C00026D126490B7A012083430B7225E0234E49
:1022D00074881419A4B22000FFF7B6FC050001347D
:1022E000A0B2FFF7B1FC2D02A9B280B2091889B2E1
:1022F000338801333380B8E713B2002BC7DB174CA8
:10230000237A02252B432372CEE713B2002BD3DBB3
:1023100012490B7A012003430B72002A11D10F4995
:102320000B7A042003430B7213B2002B0FDB0B4913
:102330000B7A082083430B72084B110A9971DA71EA
:1023400070BD06490B7A042083430B72ECE7034906
:102350000B7A082003430B72EEE7C046A8950020D5
:1023600070B50021AC285AD015D88C282CD09C28C8
:1023700033D194B22000FFF767FC0500601CFFF723
:1023800063FC2D02A9B280B2091889B24A4A1388A7
:102390000133138021E0BC281FD112029A1894B295
:1023A0002000FFF751FC05000134A0B2FFF74CFC00
:1023B0002D02A9B280B2091889B23F4A13880133AD
:1023C0009BB20133138008E012029A1891B23A4A84
:1023D000138801339BB201331380374B5A88531A49
:1023E0009BB212B2002A2FDB002A02DB08B20028BF
:1023F00036DB314C207A0225A8432072002A02DB0A
:1024000008B2002836DB09B200292DDB19B20029F9
:102410002EDB29490A7A012082430A722FE0264ED8
:1024200074881419A4B22000FFF70EFC05000134D3
:10243000A0B2FFF709FC2D02A9B280B2091889B237
:10244000338801333380C8E708B20028CCDB18B2E8
:102450000028C9DB184C207A022528432072CDE7DA
:1024600018B20028C5DAF5E719B20029CEDA01E082
:10247000002ACEDB10490A7A012002430A72002B9F
:102480000DD10D490A7A042002430A721BB2002BB7
:102490000BDB094A137A08218B43137270BD06497E
:1024A0000A7A042082430A72F0E7034A137A082169
:1024B0000B431372F2E7C046A895002070B50021C7
:1024C000A32853D015D883282CD0932833D194B285
:1024D0002000FFF7B9FB0500601CFFF7B5FB2D02DC
:1024E000A9B280B2091889B2504A13880133138007
:1024F00021E0B3281FD112029A1894B22000FFF7EE
:10250000A3FB05000134A0B2FFF79EFB2D02A9B288
:1025100080B2091889B2454A138801339BB201334E
:10252000138008E012029A1891B2404A13880133CE
:102530009BB2013313803D4A93791B02D07902008C
:102540001A43521A92B203438024240218002040F6
:10255000234220D00BB2002B1DDB13B2002B1ADB61
:10256000324C237A02252B4323721EE02F4E7488AF
:102570001419A4B22000FFF767FB05000134A0B2D4
:10258000FFF762FB2D02A9B280B2091889B2338825
:1025900001333380CFE7002802D10BB2002B28DBB8
:1025A000224C237A0225AB432372002802D10BB2BE
:1025B000002B28DB09B200291FDB13B2002B20DB24
:1025C0001A490B7A012083430B72002A21D1174943
:1025D0000B7A042003430B7213B2002B1FDB134949
:1025E0000B7A082083430B72104B110A9971DA7130
:1025F00070BD13B2002BD3DAB2E713B2002BDCDAD2
:1026000001E00028DCD109490B7A012003430B7259
:10261000DBE706490B7A042083430B72DCE70349AE
:102620000B7A082003430B72DEE7C046A895002012
:1026300010B51F4CA088013080B2A080FFF704FBCA
:102640002072A088013080B2A080FFF7FDFAE0710F
:10265000A088013080B2A080FFF7F6FAA071A088B0
:10266000013080B2A080FFF7EFFA80B200026080F4
:10267000A088013080B2A080FFF7E6FA80B26388BC
:1026800018436080A088013080B2A080FFF7DCFA98
:1026900080B200022080A088013080B2A080FFF7C5
:1026A000D3FA80B2238818430138208010BDC04679
:1026B000A895002010B50B4CA088013080B2A080F6
:1026C000FFF7C2FA80B200022080A088013080B2F9
:1026D000A080FFF7B9FA80B2238818430138208020
:1026E00010BDC046A895002070B5EC2846D011D882
:1026F000CC2824D0DC282AD195B22800FFF7A4FAF0
:102700002E4CA071681CFFF79FFAE07123880133FB
:1027100023801CE0FC281AD11202D21894B22000A7
:10272000FFF792FA254DA8710134A0B2FFF78CFA99
:10273000E8712B8801339BB201332B8007E01F49DE
:102740008A71CB710B8801339BB201330B801B491B
:102750000A7A02239A438B791B02C9790B4321D150
:1027600004210A4315490A728022120213421ED024
:10277000124A137A08210B43137270BD0F4D6888FB
:1027800094B2101880B2FFF75FFAA8716888201819
:1027900080B2013080B2FFF757FAE8712B8801331D
:1027A0002B80D4E704218A4304490A72DCE7034AF8
:1027B000137A08218B431372DFE7C046A8950020E7
:1027C00070B5C92800D18AE022D8A92800D17AE0C2
:1027D00010D9B92840D1120290B2C01880B2FFF7C8
:1027E00033FA020069490B8801339BB201330B8035
:1027F000063131E089282AD099282DD190B2FFF7EF
:1028000023FA020061490B8801330B80063123E073
:10281000E9286AD0F9280ED1120290B2C01880B20D
:10282000FFF712FA020059490B8801339BB20133BA
:102830000B80073110E0D9280ED190B2FFF704FACF
:10284000020052490B8801330B80073104E04F49E5
:102850000B8801330B80063108784C4B1C7A01231E
:1028600023409B18DBB21B18DBB20B7044B2002C68
:1028700047DB002C01DB15064ED4444D2B7A022693
:10288000B3432B720B78002B4AD1404D2B7A042690
:1028900033432B720023CB56002B47DB3B4D2B7A67
:1028A0000826B3432B72002C01DB13064BD413060E
:1028B00042D40023CB56002B43DB344C237A012532
:1028C000AB43237244E0314C6088801880B2FFF73C
:1028D000BBF90200238801332380A11DBCE72B49EB
:1028E0000B8801330B800731B6E7284C60888018CD
:1028F00080B2FFF7A9F90200238801332380E11D8C
:10290000AAE71506B5D45DB2002DB2DB1F4D2B7AB8
:10291000022633432B72B5E75BB2002BADDAF5E745
:102920001A4D2B7A0426B3432B72B3E7174D2B7A3B
:10293000082633432B72B6E70023CB56002BB8DAB8
:1029400001E0002CB9DB114C237A01252B432372C3
:1029500008231C000440034201D0130709D41307C5
:1029600002D50B781B0704D50B781B0707D4002C66
:1029700005D0064A137A20210B43137270BD034A17
:10298000137A20218B431372F8E7C046A8950020E4
:1029900070B5BB2800D17FE014D9EB2800D190E0BE
:1029A0002BD9FB283AD1120290B2C01880B2FFF79F
:1029B0004BF9020069490B8801339BB201330B804C
:1029C00007312BE09B285DD00DD9AB2826D1634C75
:1029D0006088801880B2FFF737F90200238801333E
:1029E0002380A11D1AE01B2815D08B2816D15B4926
:1029F0000B8801330B80063110E0CB285BD0DB283D
:102A00000CD190B2FFF720F9020054490B88013332
:102A10000B80073102E05149CA7906310878131852
:102A2000DBB20B7044B2002C57DB002C04DB150624
:102A300002D45BB2002B55DB484D2B7A0226B34300
:102A40002B720B78002B53D1444D2B7A0426334341
:102A50002B720023CB56002B50DB404D2B7A0826DF
:102A6000B3432B72002C4FDB130650D40023CB56FC
:102A7000002B01DB002C4EDB384C237A0125AB43C5
:102A800023724DE090B2FFF7DFF8020033490B8864
:102A900001330B800631C1E7120290B2C01880B238
:102AA000FFF7D2F802002D490B8801339BB20133A6
:102AB0000B800631B2E729490B8801330B800731BF
:102AC000ACE7264C6088801880B2FFF7BDF80200A2
:102AD000238801332380E11DA0E71506A5D55DB24B
:102AE000002DA2DB1D4D2B7A022633432B72A8E763
:102AF0001A4D2B7A0426B3432B72AAE7174D2B7A73
:102B0000082633432B72ADE71306ADD503E000234F
:102B1000CB56002BAADB114C237A01252B432372C1
:102B200008231C000440034201D0130709D41307F3
:102B300002D50B781B0704D50B781B0707D4002C94
:102B400005D0064A137A20210B43137270BD034A45
:102B5000137A20218B431372F8E7C046A895002012
:102B600010B5C62800D169E021D8A6285AD010D9BE
:102B7000B62840D1120290B2C01880B2FFF764F8B4
:102B800002003D4C238801339BB20133238006347D
:102B900031E086282AD096282DD190B2FFF754F83C
:102BA0000200354C238801332380063423E0E628D5
:102BB0004AD0F6280ED1120290B2C01880B2FFF7A8
:102BC00043F802002C4C238801339BB2013323804D
:102BD000073410E0D6280ED190B2FFF735F8020086
:102BE000254C238801332380073404E0224C2388BA
:102BF00001332380063420490B7A022083430B7271
:102C00002270002A2CD10A000B7A04210B43137284
:102C10000023E356002B29DB174A137A08218B4344
:102C2000137210BD144C6088801880B2FFF70CF846
:102C300002002388013323800634DCE70E4C23880E
:102C4000013323800734D6E70B4C6088801880B2AC
:102C5000FEF7FAFF02002388013323800734CAE716
:102C6000054A137A04218B431372D1E7024A137A7F
:102C700008210B431372D4E7A895002070B5C12832
:102C800000D17EE021D8A1286FD010D9B12840D141
:102C9000120290B2C01880B2FEF7D6FF020055496A
:102CA0000B8801339BB201330B80063131E0812860
:102CB0002AD091282DD190B2FEF7C6FF02004D49CF
:102CC0000B8801330B80063123E0E1285FD0F12827
:102CD0000ED1120290B2C01880B2FEF7B5FF02000A
:102CE00044490B8801339BB201330B80073110E05C
:102CF000D1280ED190B2FEF7A7FF02003D490B8804
:102D000001330B80073104E03A490B8801330B8013
:102D100006310C78A31ADBB264B2002C43DB002C22
:102D200001DB11064AD43348017A0225A943017216
:102D3000002B47D12F48017A0425294301725BB249
:102D4000002B45DB2B49087A0825A8430872002C84
:102D500001DB110647D4120640D4002B41DB254A83
:102D6000137A01218B43137242E0224C6088801851
:102D700080B2FEF769FF0200238801332380A11D82
:102D8000C7E71C490B8801330B800731C1E7194C99
:102D90006088801880B2FEF757FF02002388013355
:102DA0002380E11DB5E71106B9D459B20029B6DB7D
:102DB0001048017A022529430172B9E759B2002966
:102DC000B1DAF5E70B48017A0425A9430172B6E7A9
:102DD0000848017A082529430172B8E7002BBCDABC
:102DE00001E0002CBBDB034A137A01210B43137271
:102DF00070BDC046A895002070B5C22800D18AE0F9
:102E000022D8A22800D17AE010D9B22840D11202EB
:102E100090B2C01880B2FEF717FF02005B490B8822
:102E200001339BB201330B80063131E082282AD076
:102E300092282DD190B2FEF707FF020053490B886C
:102E400001330B80063123E0E2286AD0F2280ED14C
:102E5000120290B2C01880B2FEF7F6FE02004B4993
:102E60000B8801339BB201330B80073110E0D2286D
:102E70000ED190B2FEF7E8FE020044490B88013300
:102E80000B80073104E041490B8801330B80063188
:102E900008783E4B1C7A012323409B18DBB2C31AEF
:102EA000DBB20B7040B2002847DB002801DB1406C0
:102EB0004ED4364C237A0225AB4323720B78002B79
:102EC0004AD1324C237A04252B4323720023CB565C
:102ED000002B47DB2D4C237A0825AB4323720028B7
:102EE00001DB13064BD4130642D40023CB56002B30
:102EF00043DB264A137A01218B43137244E0234CAF
:102F00006088801880B2FEF79FFE0200238801339C
:102F10002380A11DBCE71D490B8801330B800731BD
:102F2000B6E71A4C6088801880B2FEF78DFE02006A
:102F3000238801332380E11DAAE71406B5D45CB2CF
:102F4000002CB2DB114C237A02252B432372B5E708
:102F50005BB2002BADDAF5E70C4C237A0425AB43CA
:102F60002372B3E7094C237A08252B432372B6E773
:102F70000023CB56002BB8DA01E00028B9DB034A66
:102F8000137A01210B43137270BDC046A89500202F
:102F900070B5C02800D183E021D8A02874D010D902
:102FA000B02840D1120290B2C01880B2FEF74CFE99
:102FB000020058490B8801339BB201330B80063164
:102FC00031E080282AD090282DD190B2FEF73CFE27
:102FD000020050490B8801330B80063123E0E028C2
:102FE00064D0F0280ED1120290B2C01880B2FEF761
:102FF0002BFE020047490B8801339BB201330B8043
:10300000073110E0D0280ED190B2FEF71DFE02006D
:1030100040490B8801330B80073104E03D490B88A0
:1030200001330B8006310B78981AC0B208705BB27E
:10303000002B47DB002B01DB14064ED4354C207AE5
:103040000225A8432072087800284AD1314C207A02
:1030500004252843207200200856002847DB2D4C09
:10306000207A0825A8432072002B01DB10064BD4E0
:10307000120642D400228A56002A43DB254A137ADC
:1030800001218B43137244E0224C6088801880B287
:10309000FEF7DAFD0200238801332380A11DC2E779
:1030A0001C490B8801330B800731BCE7194C608841
:1030B000801880B2FEF7C8FD020023880133238008
:1030C000E11DB0E71406B5D444B2002CB2DB114CBC
:1030D000207A022528432072B5E740B20028ADDAF5
:1030E000F5E70C4C207A0425A8432072B3E7094C7D
:1030F000207A082528432072B6E700228A56002A43
:10310000B8DA01E0002BB9DB024A137A01210B4344
:10311000137270BDA895002003B2002B07DB0A4A8A
:10312000135C1B020130105CC01880B27047074B63
:10313000C318074AD35C1B0206498C466044105CE6
:10314000C01880B2F2E7C046C49500200080FFFF9F
:10315000CC0800200180FFFF70B50024CE2840D0AD
:1031600021D8AE2800D174E00FD9BE2843D1100277
:10317000C01880B2FFF7D0FF040041490B8801332B
:103180009BB201330B80043135E08E2856D09E2847
:1031900031D190B2FFF7C0FF040039490B880133E9
:1031A0000B80043127E0EE283CD0FE280DD1100220
:1031B000C01880B2FFF7B0FF040031490B8801331B
:1031C0009BB201330B80023115E0DE2813D190B29F
:1031D000FFF7A2FF04002A490B8801330B8002315C
:1031E00009E012021A43140025490B8801339BB2EF
:1031F00001330B8002310C80214A137A0220834371
:1032000013720A88002A30D1042213431C4A137215
:1032100000228B5E002B2DDB194A137A08218B4389
:10322000137270BD164D6888801880B2FFF774FF66
:1032300004002B8801332B80A91CDCE712021A43FF
:1032400014000F490B8801339BB201330B8004310A
:10325000D1E70B4D6888801880B2FFF75DFF04004E
:103260002B8801332B80291DC5E704229343044A90
:103270001372CDE7024A137A08210B431372D0E789
:10328000A895002010B5C1235B0098420CD2023BE8
:10329000984213D2082801D10D4B197003B2002BAC
:1032A0000FDB0C4B195410BDC0239B00984202D079
:1032B00040339842F2D1FDF75BFEF4E7FDF7E0FE04
:1032C000F1E7054B9C466044044B1954EBE7C046BC
:1032D000A2940020C49500200080FFFFCC080020AD
:1032E00070B515000024622819D0722825D01E4A16
:1032F000138801339BB201331380137A0222934364
:1033000062B2002A24DB08229343174A1372002C6E
:1033100023D1154A137A04210B43137270BD9EB258
:10332000114A5088181880B2FEF78EFC0543ECB2A3
:1033300021003000FFF7A6FFD9E79EB23000FEF76C
:1033400083FC0543ECB221003000FFF79BFFCEE782
:1033500008221343044A1372D9E7034A137A04215B
:103360008B431372DAE7C046A895002070B51500AC
:103370000026612819D0712825D01E4A13880133F0
:103380009BB201331380137A0222934372B2002A54
:1033900024DB08229343174A1372002E23D1154AC7
:1033A000137A04210B43137270BD9CB2114A5088EA
:1033B000181880B2FEF748FC05402E0029002000B6
:1033C000FFF760FFD9E79CB22000FEF73DFC054007
:1033D0002E0029002000FFF755FFCEE708221343F7
:1033E000044A1372D9E7034A137A04218B431372F8
:1033F000DAE7C046A895002070B5150000246528BE
:1034000019D0752825D01E4A138801339BB2013389
:103410001380137A0222934362B2002A24DB08222B
:103420009343174A1372002C23D1154A137A0421AF
:103430000B43137270BD9EB2114A5088181880B2A7
:10344000FEF702FC4540ECB221003000FFF71AFF06
:10345000D9E79EB23000FEF7F7FB4540ECB2210001
:103460003000FFF70FFFCEE708221343044A137220
:10347000D9E7034A137A04218B431372DAE7C04673
:10348000A895002010B537280CD03C2812D036283B
:1034900000D010BD0F4B9888421E9A809979FFF793
:1034A000F1FEF6E70B4B9888421E9A80D979FFF718
:1034B000E9FEEEE7074CA088431EA380A178FFF742
:1034C000E1FEA088431EA3806188090AFFF7DAFEA7
:1034D000DFE7C046A895002010B5010000200024B9
:1034E000D72945D02CD8A72939D0B7290AD112021B
:1034F0001A4310002C4A9479138801339BB201338C
:10350000138007E0972905D190B2274B9C791A8840
:1035100001321A802100FFF7B5FE234B1B7A0222ED
:103520009343002C34D1042213431F4A137264B214
:10353000002C32DB1C4A137A08218B43137210BD16
:10354000E7291CD0F729E5D112021A431000164AC8
:10355000D479138801339BB201331380DAE7124B1D
:103560005888101880B29C791A8801321A80D1E7E5
:1035700090B20D4BDC791A8801321A80CAE70A4BE7
:103580005888101880B2DC791A8801321A80C1E795
:1035900004229343044A1372C9E7034A137A0821A9
:1035A0000B431372CBE7C046A895002070B5244C9E
:1035B000A088431EA38021780131C9B2FFF762FEC3
:1035C000A088431EA380218801310912C9B2FFF7E8
:1035D00059FEA088431EA380A178FFF753FEA08860
:1035E000431EA3806188090AFFF74CFEA088431E92
:1035F000A380A179FFF746FEA088431EA380E1794E
:10360000FFF740FEA088431EA380217AFFF73AFE11
:10361000237A1022134323720A48FEF715FB050094
:103620000948FEF711FBADB22D02ADB22D18ADB2B7
:10363000013D2580054A13680133136070BDC04603
:10364000A8950020FAFF0000FBFF0000C415012030
:1036500070B5224CA088431EA38021780131C9B2E5
:10366000FFF710FEA088431EA380218801310912B4
:10367000C9B2FFF707FEA088431EA380A178FFF719
:1036800001FEA088431EA3806188090AFFF7FAFDA6
:10369000A088431EA380A179FFF7F4FDA088431EF4
:1036A000A380E179FFF7EEFDA088431EA380217A75
:1036B000FFF7E8FD237A1022134323720848FEF730
:1036C000C3FA05000748FEF7BFFAADB22D02ADB24E
:1036D0002D18ADB2013D258070BDC046A8950020D3
:1036E000EEFF0000EFFF000070B5AD283BD01CD806
:1036F0008D2853D09D2850D190B2FFF70DFD013891
:1037000085B2384C2188013189B22180A088431EBE
:10371000A380C9B2FFF7B6FDA088431EA38021880D
:10372000090AFFF7AFFD258037E0BD2835D1120229
:103730001343013B9CB22B4D2988013189B20131E1
:1037400089B2013189B22980A888431EAB80C9B2F1
:10375000FFF798FDA888431EAB802988090AFFF768
:1037600091FD2C8019E01F4C6088121892B2013A2A
:1037700095B22188013189B2013189B22180A088B6
:10378000431EA380C9B2FFF77DFDA088431EA3801E
:103790002188090AFFF776FD258070BD114B198835
:1037A00053B2002B19DB92B28A1892B2013294B252
:1037B000013189B2013189B20A4D2980A888431E9E
:1037C000AB80C9B2FFF75EFDA888431EAB80298895
:1037D000090AFFF757FD2C80DFE7013AFF3A92B262
:1037E000E2E7C046A895002070B504000B00090A66
:1037F000DDB2FFF747FD0134A0B22900FFF742FD1B
:1038000070BD000010B5010000200024EF292BD06E
:10381000FF291ED0DF2915D02100FFF7E5FF1C4B43
:103820001B7A02229343002C26D104221343184A08
:10383000137224B2002C24DB154A137A08218B431F
:10384000137210BD90B2124B5C881A8801321A8034
:10385000E2E712021A4310000D4A5488138801331C
:103860009BB201331380D7E7094B5C88121990B2E1
:103870001A8801321A80CFE704229343044A137254
:10388000D7E7034A137A08210B431372D9E7C046DE
:10389000A895002010B5010000200024AF292BD0EE
:1038A000BF291ED09F2915D02100FFF79DFF1C4B7B
:1038B0001B7A02229343002C27D104221343184A77
:1038C000137224B2002C25DB154A137A08218B438E
:1038D000137210BD90B2124B9C881A8801321A8064
:1038E000E2E712021A4310000D4A9488138801334C
:1038F0009BB201331380D7E7094B5888101880B268
:103900009C881A8801321A80CEE704229343044A25
:103910001372D6E7024A137A08210B431372D8E7D1
:10392000A895002010B5010000200024ED2931D019
:10393000FD2921D0DD2915D02100FFF755FF214BAE
:103940001B7A02229343002C30D1042213431D4AD8
:10395000137224B2002C2EDB1A4A137A08218B43EF
:10396000137210BD90B2174B9C792402DA7914437C
:103970001A8801321A80DFE712021A431000114A36
:1039800094792402D3791C43138801339BB2013309
:103990001380D1E70B4B5888101880B29C79240211
:1039A000DA7914431A8801321A80C5E70422934356
:1039B000044A1372CDE7034A137A08210B431372AA
:1039C000CFE7C046A895002070B50500204B1B7AB4
:1039D000DB0600D570BD1E4CA088431EA380217855
:1039E000FFF750FCA088431EA3802188090AFFF737
:1039F00049FCA088431EA380A178FFF743FCA08860
:103A0000431EA3806188090AFFF73CFCA088431E7F
:103A1000A380A179FFF736FCA088431EA380E1793B
:103A2000FFF730FCA088431EA380217AFFF72AFC11
:103A30002800FEF709F906020135A8B2FEF704F9DD
:103A400000B230432080237A102213432372C1E74F
:103A5000A895002010B50B4A138801339BB2138040
:103A6000094A1288934200D010BD084A13784021B9
:103A70000B43DBB213701B07F6D50548FFF7A4FF15
:103A8000F2E7C0469894002096940020A29400206B
:103A9000F4FF000010B50C4A138801339BB2138069
:103AA000002B08D1094A138801339BB2138080226E
:103AB000D200934200D010BD044B00221A8004486B
:103AC000FFF782FFF7E7C04692940020949400200D
:103AD000FCFF000010B50B48FEF7B6F804020A48D8
:103AE000FEF7B2F800B22043084B1880F1221A7298
:103AF000074A00231375074B1B687C210B43537542
:103B000010BDC046FEFF0000FFFF0000A89500208A
:103B1000C495002040940020F8B5184C2088FEF78A
:103B200093F805002088013080B2FEF78DF806007A
:103B30002088023080B2FEF787F80300104A002187
:103B4000116021880F4A1160A9000F4A8F58320076
:103B500021002800B847238801332380FFF77AFF2C
:103B6000FFF778FFFFF776FFFFF774FFFFF772FFAD
:103B7000FFF770FFFFF78EFFF8BDC046A895002045
:103B8000C4150120CC160120CC04002010B5830000
:103B9000084A944663441C6840226240C024144092
:103BA0008022520113431C60C000034B9C466044BA
:103BB000416010BD04C001400040014010B5012328
:103BC0008340D0221206936293610521FFF7DEFF46
:103BD00010BD0000EFF3108072B6034B1B68002B82
:103BE000FBD0BFF35F8F70472C0100D0BFF35F8F16
:103BF000024B00221A6080F3108870472C0100D01D
:103C0000F8B506000C001500FFF7E4FFE308F7180D
:103C1000F15C07222240012393400B4205D1DBB225
:103C20000B433B70FFF7E2FFF8BD2100280001F0D5
:103C300091FAF0B583B00600019114001F00FFF760
:103C4000C9FFBC420ED8E308F518F35C07212140F8
:103C500001228A401A4201D00134F2E7D2B21A435B
:103C60002A7001E001246442FFF7C0FF002C02DB50
:103C7000200003B0F0BD019B002BF9D0089801F0A3
:103C800069FA0000034B1B6802201840431E98414C
:103C9000C0B2704700C0064000231F2B08D8054A59
:103CA0009A189200BFF35F8F002111600133F4E78F
:103CB0007047C04640000034054A1078431CDBB210
:103CC0001370172B02D9130010221A707047C046C8
:103CD000CC88002000B583B00100044B00931F2363
:103CE00018220348FFF7A5FF03B000BDDCAD0010AC
:103CF000848F002070B504000D00062001F044FB05
:103D0000C000290002F07EFFC60908D00E4B9E427B
:103D100017D87F23184001303500460800E0012500
:103D20006562A6622C348020800104430023236056
:103D3000062001F029FB8000A901891902F062FF29
:103D400070BD0026014DEBE7FEFF0000FFFF000005
:103D5000002909D00A22064B9C4660444342584140
:103D60004000044BC252704780225200F3E7C04625
:103D70000080FCBFD016012070B505000C000620A5
:103D800001F002FB002829D0164B9D4227D080224B
:103D9000D203154B1A60154B1A60154B9B68110026
:103DA0009943FAD100212800FFF7D2FF2100280013
:103DB000FFF7A0FF2C002C34E96A60224A406E21F4
:103DC000114080225201224311600A4B2B63802351
:103DD0009B01234310221A600323AB6470BD802231
:103DE0001204D6E70080034000E0004000F00040ED
:103DF00000C000400103000070B505000C00080081
:103E000000F0CCFD200000F0AFFE0849200000F0DB
:103E1000EFFDFFF751FF064B9C4660448000686051
:103E20002C75A400034BE55070BDC0463D41001009
:103E300040000034449400200A4B1A68EFF31081CC
:103E400072B61368002BFCD0BFF35F8F054B1B6865
:103E5000BFF35F8F00221A6081F3108840BF0020FB
:103E6000002170476094002010B5002922D003681B
:103E70001B7B99421ED8174B9C46614409018368FD
:103E80009C4661440C684968002A19D003681B7B72
:103E90009A4215D883680F488446624412019A18E2
:103EA00010685368020001208B4201D80ED0002018
:103EB000C0B210BD084B094A3B21094801F02CF95A
:103EC000054B064A3B21064801F026F9A242EFD8ED
:103ED000EDE7C046FFFFFF0F50AE001030B10010FD
:103EE0000CAE001010B500291ED0037B99421BD8E0
:103EF0004B005B18033B0468A4466344002919D0B7
:103F0000002A1DD0914221D0002A25D0047BA24254
:103F100022D804685000801803382018817019785E
:103F200000291FD11A7010BD104B114A6921114888
:103F300001F0F2F8104B114A70310E4801F0ECF824
:103F40000F4B0E4A71210B4801F0E6F80D4B0B4A5E
:103F50007221084801F0E0F8044B054A6921054840
:103F600001F0DAF841701A70DDE7C04684AE001047
:103F7000F0B00010A0AE0010F4AE0010FCB00010C5
:103F800000AF00100CAF001070B506000D0014005B
:103F9000002914D0002A14D080687368984700283C
:103FA00006D0220029003000FFF79CFF280007E020
:103FB0002A0021003000FFF795FF200000E01000EC
:103FC00070BD0800FCE70000F0B583B0050000926A
:103FD00001930AAB1C780BAB1F78002C26D003682A
:103FE0005A7B944207D10123002B19D1002C3BD1DD
:103FF000200003B0F0BD002C0CD01A7B944209D8ED
:104000001A6863001B19033BD3189B78002BEBD075
:104010000123E9E73E4B3F4A69213F4801F07CF824
:104020003E4B3F4A65213F4801F076F803689C7B90
:10403000002CDBD012D01A7B94420FD862001219E8
:10404000033A19688C46624451789973002900D16B
:10405000D9730023937053701370C7E72C4B2D4A0C
:1040600069212D4801F058F8002C3AD02B681B7BB1
:104070009C4236D82C4BE3181B01AA689446634433
:10408000009A1A60019A5A60089A9A60099ADA604E
:104090002E68002C2BD030D0337B9C422DD863006F
:1040A0001B19033B32689446634400229A705A708D
:1040B0001A70717B22003000FFF766FF7073844234
:1040C00000D095E7287D009A019B00F0D9FC061EE0
:1040D00001D0002F17D00C9B002B00D188E71E7059
:1040E00086E7124B124A3B210E4801F015F8114B9E
:1040F000114AA621084801F00FF8054B054A69212D
:10410000054801F009F82868210000F017FFE2E7F0
:1041100084AE0010F0B00010A0AE001024AF00106C
:1041200068B100100CAE0010FFFFFF0F50AE001082
:1041300030B1001008AE001010B10010F0B5DE462E
:1041400057464E464546E0B58BB00990002308938C
:104150008200B34BD658370052E0B24BB24A3D21F1
:10416000B24800F0D9FFB24BB24A3B21B24800F04E
:10417000D3FF002901D1002869D10021404600F079
:10418000D3FEA04219D12A686B6806920793AB68E8
:104190009846EB689A464346002B14D0002C18D062
:1041A0003B681B7B9C4214D8631EFA68D35C08935F
:1041B0001B0218433861002015E0A04BA04A8C2157
:1041C0009D4800F0A9FF9F4B9D4A90219A4800F01E
:1041D000A3FF974B9C4A4021974800F09DFF002386
:1041E0009A46984600207B68BFF35F8F00221A60D2
:1041F00086F310884346002B32D1002800D107E116
:1042000000F0D8FB02000B1EA7DB00200021069067
:1042100007917868EFF3108672B601680029FCD028
:10422000BFF35F8F396888464C7B002CD7D09AD07B
:10423000097B8C4297D8854965182D01B9688C4651
:10424000654428686968801A9941002991DD2A68C7
:104250006B68099800F014FC00239A469846C2E760
:10426000089B1B022343994651461800C04705008E
:104270000E007A68EFF3108B72B6136859424B4107
:10428000D9B2002BF9D1BFF35F8F002E26DB002EB1
:1042900052DD3B69002B53D04B4572D100F08AFBB5
:1042A00002000B1E73DB0100180052197341984283
:1042B00002D804D1914202D901225242D317002BD5
:1042C0006BDB00210491013103910294514601916D
:1042D000414600913800FFF777FE49E03B69002B2B
:1042E000D5D04B451CD1069A079B10001900521BD4
:1042F000B341994202D804D1904202D901225242DC
:10430000D317002B12DB0021049101310391029499
:1043100051460191414600913800FFF755FE27E0D4
:104320004B4B474A9F21444800F0F6FE3D4B3E4A26
:104330003D213E4800F0F0FE002E01D1002DA8D115
:104340003A68002C45D0537B9C422CD10121002996
:104350003FD1D37B002B42D1D473002C52D03B6889
:104360001B7B9C424ED8FA68013C135D0133135508
:1043700000233B617A68BFF35F8F13608BF3108873
:104380003EE7334B2E4AA2212B4800F0C5FE254BB9
:10439000254A3D21254800F0BFFE224B224A3D21FF
:1043A000224800F0B9FE002C0DD0137B9C420AD8A5
:1043B00063001B19033B1068844663449B78002B01
:1043C000C5D00121C3E7234B234A6921234800F0CC
:1043D000A3FE234B234AF721204800F09DFE002B2B
:1043E0000AD0117B8B4207D85900CB18033B1168C8
:1043F0008C4663445C70AFE7164B174A6921174837
:1044000000F08AFE0A4B104A40210B4800F084FE5F
:104410000BB03CBC90469946A246AB46F0BDC046A8
:10442000449400204CAF0010D8B0001068AF0010CA
:1044300050AE001030B100100CAE0010B8AF00103C
:1044400080B10010D0AF00103CB10010FFFFFF0F93
:10445000DCAF001084AE0010F0B00010A0AE001071
:1044600018B0001020B1001010B50A4B5B68002B8B
:1044700004D00A21084800F097FB10BD054C23002A
:10448000064A1021206800F06FFC03212000FFF78E
:10449000B3FCEEE7D088002060940020693E001055
:1044A00010B5064B5B68002B01D0044810BD044BCF
:1044B000044A5C21044800F02FFEC046D08800204A
:1044C0003CB0001050B100100CAE0010F0B5DE464C
:1044D00057464E464546E0B58BB0804616001F0055
:1044E000149B9A46159B994616AB1B789B461F2337
:1044F00002AA9446634400221A7032E0002809D0D0
:1045000042461268127B904204D8421E4146C96856
:104510008A5C48E0434B444A4021444800F0FCFD9B
:104520000798002B75D05B46002B72D04946D047C8
:1045300004000D0003000B4300D171E0002946DBAD
:1045400000F038FA06000F1E55DB36196F41B942EC
:1045500002D804D1B04202D901267642F717002FC3
:104560004FDB43465A68EFF3108472B61368594222
:104570004B41D9B20791002BF8D1BFF35F8F1F33A6
:1045800002AA9446634404930023039302934B4688
:1045900001935346009332003B004046FFF714FD61
:1045A000031EABD1020041464968BFF35F8F00256F
:1045B0000D6084F31088002B29D01F2302A98C469C
:1045C00063441B78002BABD112021043A9E73200E1
:1045D0003B00361BAF41BB4202D804D1B24202D9E4
:1045E00001267642F717002FBBDA114B114A3D2105
:1045F000114800F091FD0E4B0E4A3D210E4800F08F
:104600008BFD0B4B0B4A3D210B4800F085FD012033
:1046100040420BB03CBC90469946A246AB46F0BD2A
:104620000798F6E750AE00103CB100100CAE001039
:104630004CAF0010D8B0001068AF0010F8B50400FF
:104640004268EFF3108572B6136858424341D8B2FE
:10465000002BF9D1BFF35F8FCBB22268567BB342F8
:104660001BD10120002847D0206988422BD0090A9D
:10467000C9B2002B2DD02068007B834229D8581E58
:10468000E668305C88422AD000206368BFF35F8F01
:1046900000221A6085F31088F8BD002B0DD0167B20
:1046A000B3420AD85E00F618033E1768BC4666445B
:1046B000B678002ED6D00120D4E7124B124A6921D9
:1046C000124800F029FD124B124AFE21124800F058
:1046D00023FD124B124A40210F4800F01DFD190026
:1046E000100000F02BFC0028CFD106210D4B094A09
:1046F000FF31094800F010FD23698B42C5D100232A
:104700002361C2E784AE0010F0B00010A0AE00102C
:1047100060B000109CB100100CAE001050AE001044
:104720003CB1001084B00010F0B587B006000F0057
:10473000FBF799FD00281FD106246442E517A41950
:104740007D41BD4202D803D1B44201D900240025E5
:10475000002D14DB0494059500F02CF902000B1ECB
:1047600013DBA41A9D41002D17DC14D03000390052
:1047700000F02CF907B0F0BD234800F0EBFC234B10
:10478000234A3D21234800F0C7FC204B204A3D210D
:10479000204800F0C1FC002CE8D0FFF781FE002388
:1047A000029301931C4B0093049A059BFFF78EFE26
:1047B000002818DADAE7002300E00023002BD5D127
:1047C000164B1A68EFF3108172B61368002BFCD0F9
:1047D000BFF35F8F114B1B68BFF35F8F00221A601E
:1047E00081F3108820BF0499059A0D4B5B6A9A42A9
:1047F000E3D80B48806A884203D29A42DBD0012377
:10480000DCE70123DAE7C04688B000104CAF0010A7
:10481000D8B0001068AF0010393E0010609400203E
:1048200000400540F8B504000D0000F0C3F8020098
:104830000B1E10DB20002900801859418B4202D842
:1048400004D1824202D901204042C117002908DB6D
:10485000FFF76AFFF8BD064B064A3D21064800F007
:104860005BFC034B034A3D21034800F055FCC04666
:104870004CAF0010D8B0001068AF001010B5FA228D
:1048800092000023002103F031F8FFF7CBFF10BDA9
:1048900070B584B005000C00FFF702FE0023029300
:1048A0000193194B00932A002300FFF70FFE061E09
:1048B00012DC164B5B6A9C4209D8144A926AAA42DF
:1048C00008D29C4201D0012002E0002000E000203C
:1048D00004B070BD0120FBE720BFFFF7E1FD310010
:1048E000FFF7ACFE094B5B6A9C4209D8074A926A03
:1048F000AA4207D29C4201D00120E9E70020E7E765
:104900000020E5E70120E3E7393E001000400540C4
:1049100070B5EFF305833F2018401038EFF3108493
:1049200072B6194B1B68002BFBD0BFF35F8F0123BE
:1049300019008140154A5163154A12781500C54087
:104940002B4214D0114B5D6A8300124E9B599D423D
:1049500006D38300104D5B598A430D490A7007E066
:104960000A4A031D9B0099589950002300E0002338
:10497000BFF35F8F044A0021116084F31088002B7D
:1049800000D0984770BDC046280100D000400540C7
:10499000A39400206C940020748E002010B50100B8
:1049A000024A0348FFF72CF910BDC046B4B100100D
:1049B0009D940020044B5B6A034A906A1900536A75
:1049C0009942F9D17047C04600400540074B5B6AE9
:1049D0008B4204D2054B5B6AFAE7044B5B6A8B425D
:1049E00003D1024B9B6A8342F7D3704700400540D6
:1049F00070B504000D00EFF3108672B61B4B1B68F8
:104A0000002BFBD0BFF35F8F002D1CD0200000F0E7
:104A10003BFD174B83420BD01900200000F03CFDFA
:104A20000121200000F020FD0123A340114A136062
:104A3000A400114BE550BFF35F8F0C4B00221A60AE
:104A400086F3108870BDA2000B4B0021D1500122CB
:104A5000A2400A490B7893430B700549200000F0EF
:104A600045FD0021200000F0FFFCE4E7280100D014
:104A70001149001038600540748E0020A394002076
:104A8000F0B5DE4600B584B00400150001921E00AA
:104A90000293FFF78FFF03958E4202D84ED18542D5
:104AA0004CD9EFF3108B72B6274B1B68002BFBD051
:104AB000BFF35F8F254A17780125A540EBB23B4332
:104AC0001370234B5D63221D92000199D150A20007
:104AD0002049029850501B6A2B4212D11C4B1B6C70
:104AE0002B4208D00020BFF35F8F174B00221A60C3
:104AF0008BF3108823E0184B184AC121184800F0A6
:104B00000BFBFFF757FF8E4214D802D1039B834261
:104B100010D80E4B1B78BB420ED00D4B1D625D634F
:104B20001F2004400123A3400E4A1360074B1F704F
:104B30001E38D8E70020D6E70120D4E7012004B0D2
:104B400004BC9346F0BDC046280100D0A3940020C9
:104B5000004005406C940020D8B1001048B200100D
:104B6000FCB1001080E200E010B5EFF3108472B6E3
:104B70000A4B1B68002BFBD0BFF35F8F01238340E0
:104B8000074A136207490A789A430A70BFF35F8F96
:104B9000024B00221A6084F3108810BD280100D057
:104BA00000400540A3940020024B9C4661448900CC
:104BB000016070474000003470B504000D00FFF73D
:104BC0007BF801002000FFF7EFFFFF2323716571E1
:104BD000BFF35F8F70BD10B50021FFF7EDFF10BD73
:104BE00010B5FF21FFF7E8FF10BD0000034B9C4606
:104BF000614489000160BFF35F8F7047400000345B
:104C000010B504000120FFF765F801002000FFF750
:104C1000EDFF10BD10B500291ED0037B99421BD8B3
:104C20004B005B18033B0468A4466344002919D079
:104C3000002A1DD0914221D0002A25D0047BA24217
:104C400022D8046850008018033820188170197821
:104C500000291FD11A7010BD104B114A692111484B
:104C600000F05AFA104B114A70310E4800F054FA15
:104C70000F4B0E4A71210B4800F04EFA0D4B0B4AB8
:104C80007221084800F048FA044B054A692105489A
:104C900000F042FA41701A70DDE7C04684AE0010A1
:104CA00038B40010A0AE0010F4AE001044B40010F0
:104CB00000AF00100CAF001070B506000D0014001E
:104CC000002914D0002A14D08068736898470028FF
:104CD00006D0220029003000FFF79CFF280007E0E3
:104CE0002A0021003000FFF795FF200000E01000AF
:104CF00070BD0800FCE7000010B5002343730133CA
:104D00008373037BC3730123027B9A4214D9002B64
:104D10000CD0027B934209D85A00D218033A01689A
:104D20008C4662440133DBB25370EDE70B4B0C4A07
:104D300069210C4800F0F0F9002A09D0924207D806
:104D4000016853009A18033A8A180023537010BD63
:104D5000024B034A6921034800F0DEF984AE0010DB
:104D600038B40010A0AE001010B50173426083602B
:104D7000FFF7C2FF10BD000070B50400081E00D18F
:104D800070BD002934D0237B994231D84B005B1889
:104D9000033B2268944663445A78002AF0D02DD011
:104DA000237B9A422AD853009B18033B21688C46E8
:104DB00063445D7800215970002825D0237B9842F8
:104DC00022D843001B18033B21688C466344002112
:104DD000597001002000FFF76FFF06002900200036
:104DE000FFF7CAFF020031002000FFF765FFC7E7A9
:104DF000084B094A6921094800F08EF9054B064A1B
:104E00006921064800F088F9024B034A69210348EA
:104E100000F082F984AE001038B40010A0AE00108B
:104E200070B505000C001600002928D02DD0037B9A
:104E300099422AD84B005B18033B026894466344AE
:104E40005A78002A27D19A78002A2AD11978FFF7B0
:104E500093FF0300002E03D0EA7B002A27D1EC73D6
:104E6000002B37D1002C49D02B7B9C4246D82B6895
:104E700061000C19033C1C190023637070BD224BA8
:104E8000224A3821224800F047F9224B224A692160
:104E9000224800F041F9224B1C4A3A211C4800F0FC
:104EA0003BF9204B194A3B21194800F035F9002AFB
:104EB0000AD0297B8A4207D851008A18033A296808
:104EC0008C4662445470CAE7124B134A6921134856
:104ED00000F022F9002B0BD02A7B934208D8430024
:104EE0001B18033B2A689446634400229A70B9E772
:104EF000084B094A6921094800F00EF9054B064A9A
:104F00006921064800F008F978B3001058B4001081
:104F100080B3001084AE001038B40010A0AE0010B2
:104F2000C4B30010ECB3001070B504000A00457B58
:104F30002900FFF775FF6073280070BD70B504008D
:104F4000002966D0437B8B420ED0002911D0037B11
:104F500099420ED84B005B18033B0268D018837847
:104F6000002B0CD1002055E00121FFF7DDFF0120CF
:104F700050E0294B294A6921294800F0CDF8002B3F
:104F80001FD0227B93421CD825685A00D318033BBC
:104F9000EA18EB5C8B421AD0002B1BD0227B934289
:104FA00018D85A00D318033B2268D21853788B4282
:104FB00016D0002BF0D11B4B1B4A67211B4800F079
:104FC000ABF8154B154A6921154800F0A5F8437850
:104FD000137007E0104B114A6921114800F09CF84A
:104FE0004378537000238370437001222000FFF741
:104FF00017FF0200617B814205D02000FFF75CFEB5
:105000006073012006E00A4B074A6D21074800F053
:1050100083F8002070BDC04684AE001038B4001084
:10502000A0AE001010B400106CB4001080B30010DB
:1050300018B4001070B5264B264A1A60264B274A32
:105040001A60274B9A68254B9343FAD1254C264B7F
:105050009C4202D208CC9847F9E700F015F91E4BA4
:10506000224A1A601E4B9B68DB43DB01FAD1204BBE
:1050700040229A675A671A67DA661E4C03E02000DE
:10508000FFF7A9FD08341C4B9C4206D26379002B24
:10509000F5D02000FFF7A4FDF4E7184CA168184DE7
:1050A000C022280002F0E2FCA560FBF7DCF8002833
:1050B00000D000BEFEF7F0FD00F07AFBFFF7D4F958
:1050C000104C01E008CC98470F4B9C42FAD370BDBE
:1050D00000E00040BFCDFBFE00F00040FE7F3C0042
:1050E00000C00040BC890020CC890020FFFFFF01E8
:1050F00000F00140B4890020BC89002000ED00E0F0
:1051000000000020CC890020D489002000BEFDE7EB
:1051100010B5FFF7FBFF000010B582B00C001900BE
:10512000002A0CD0084B002A0BD0019200932300D8
:105130000200064802F0D0FD0120FFF7E7FF044B14
:10514000F1E7034AF1E7C04684B4001094B40010BC
:1051500090B400100FB400B583B0084802F08CFD85
:10516000049B002B07D005A90191180002F092FDC5
:10517000034802F081FD0120FFF7C8FFC4B400100E
:10518000D4B40010F8B5DE4657464E464546E0B565
:1051900005000F0092461E000A9B9E424ED3330E1E
:1051A000994636020A9A00233000494601F06CFD08
:1051B00080466C006419A4002E4B9C4664446368CE
:1051C000834200D260602B1FDBB29B46012B3BD990
:1051D000C0239B012343802212011A60AB00264AA0
:1051E0009958002905D0506901F00CFD01300138B3
:1051F000FDD153465A0123685A40E0231A408023C8
:105200005B0123431A605A46012A28D980239B0157
:105210002343802212011A60434663604246002302
:105220003000494601F030FDAD00134B58510120CC
:105230003CBC90469946A246AB46F8BD0F4B104A7F
:105240002D211048FFF768FF012FC1D1C0239B011A
:10525000234303221A60A368DB07FCD5C9E7216852
:10526000794003220A401A60A3680122BA401A4218
:10527000FAD0CBE700800040888F0020D8B400101F
:105280003CB50010ECB4001030B583B00C2000F039
:1052900027FBFEF7F7FC00280DD00023092B05D8CB
:1052A00099002D4A2D4888500133F7E72A4B2C4AA4
:1052B0005A6203B030BD2B4B00229A6700F07EFB90
:1052C000294B01221A60274B5B6C012BFBD1274B2A
:1052D00003221A60234B9B6B012BFBD10224009409
:1052E0000533234A0121234800F06EFA0094052378
:1052F000214A0121214800F067FA214B0093002246
:1053000002210420FFF73EFF1E4D00952B000022D6
:1053100001210520FFF736FF104C009423000022E6
:1053200000210720FFF72EFF009423000022002118
:105330000820FFF727FF0A4B0093230000220021DB
:105340000920FFF71FFF00952B00002200210620F7
:10535000FFF718FFADE7C046888F0020006CDC0225
:105360001BB70000008000403CB0004030B000405F
:10537000002F68590080024000389C1C00C0024089
:10538000001BB700405973078000014BC05870479D
:10539000888F0020074B9B68103080001950BFF3A6
:1053A0005F8FBFF35F8F044B0021196082F3108879
:1053B0007047C04600ED00E0240100D010B5091A86
:1053C00004394808090B05D14005400D044B18432A
:1053D00080B210BD034B044A8C210448FFF79CFEA9
:1053E00000E0FFFF4CB5001034B700105CB50010B2
:1053F00010B5091A04394C08090B08D14905490DA3
:10540000064A11430180064B2343438010BD054BE0
:10541000054A94210548FFF77FFEC04600F0FFFFD4
:1054200000F8FFFF4CB5001040B700105CB500104D
:1054300001238340034A10681840431E9841C0B2BC
:105440007047C04600E100E0002904D0034B18601B
:10545000034B18607047034B1860FBE780E200E0E5
:1054600000E100E080E100E010B501238340180076
:10547000FFF7EAFF10BD000001238340014A1360DB
:105480007047C04600E200E0024B9B68103080008D
:10549000C058704700ED00E070B504000D00EFF358
:1054A000108672B60C4B1B68002BFBD0BFF35F8FCE
:1054B0002000FFF7E9FF094B984201D0A84205D12F
:1054C000320029002000FFF765FF70BD044B054A3C
:1054D00070210548FFF720FE240100D0CD01001007
:1054E000A4B5001018B700105CB50010F0B5CE469A
:1054F000474680B583B006000D00EFF3108872B602
:10550000574B1B68002BFBD0BFF35F8F554B9A683E
:1055100034001034A300D758534B9F4207D0AF42FA
:1055200000D19BE00197514BFB1A2F2B09D9424622
:1055300039003000FFF72EFF03B00CBC90469946AF
:10554000F0BD3000FFF774FF814600213000FFF707
:105550008BFFBFF35F8FFAF786FE002801D08442ED
:1055600019D10123019C9C43230040495B1A5B41F4
:1055700048495943090D49B20022A368AB4212D0F1
:105580000622A256002A0DDB53009B189B00220026
:10559000364CE418F1E72021354B364AFF313648C6
:1055A000FFF7BAFD2200AB4251D106256557002D09
:1055B00039DB6B005B199A002C4B9B189A68A26030
:1055C000DA79E27106229A56A2719B795BB2002BBE
:1055D00010DABD200002A0806B005B199B00234AFB
:1055E000D318264A11789971157049463000FFF793
:1055F0003BFF9CE7201D6B005B199B001B4A9B181F
:105600001A1D9B88D90A1C2907D159054915023151
:1056100049005118FFF7D2FEDDE7194B194A9A21CC
:105620001548FFF779FD00280CD1002A08D0FF2388
:105630009371154B9380114B1A78A2711970D4E7AE
:10564000094FF8E7201D1149FFF7D2FECDE7AA2147
:105650000F4B084A49000848FFF75EFD024F66E716
:10566000240100D000ED00E0CD010010F8880020FA
:10567000B8B6001068B700105CB500109E9400200A
:10568000A0B6001058B7001000BDFFFF32890020FF
:10569000DCB60010AAAA000010B5032304009C4346
:1056A000064A9446644422681840C000FC33834094
:1056B0009A43130081400B43236010BD00E400E0D7
:1056C000F8B50400012606432D4BF31A2F2B28D8DA
:1056D000FAF7C9FD00282BD0EFF3108772B6294BDB
:1056E0001B68002BFBD0BFF35F8F2300244D5B1B97
:1056F0005B412E4D5D432D0D6DB2234B9B688000A9
:105700001B58B3421BD00022032A32D853009B18E7
:105710009B001B49CB189B795BB2AB421FD0013277
:10572000F2E77221194B1A4AFF311A48FFF7F4FCCD
:10573000BA21194B164A49001648FFF7EDFC124BE7
:105740009B68164A1A50164B1A78A2711D70BFF347
:105750005F8F0C4B00221A6087F31088F8BD080099
:105760005300991889004118FF268E710D4A8A80CE
:10577000E9E786210C4B064AFF310648FFF7CCFCCF
:10578000F8880020240100D000ED00E0E4B600100D
:105790007CB700105CB500100CB70010CD010010F4
:1057A0009E94002000BDFFFF10B40010AAAA0000C4
:1057B00010B500241F2C05D880212000FFF76CFFB6
:1057C0000134F7E710BD0000F0B5CE4600B5040087
:1057D0000E0091461F000C2001F014FA0500430151
:1057E0001B1A9901C91AC90009188901484601F014
:1057F00009FA0200103A98235B009A4233D87B1EC4
:10580000062B36D8069B013B062B32D8069B9F42BF
:1058100035D34B461A09AA4237D33F04069B1D03D2
:105820002F432368002B36DB234B9C4241D080253D
:105830006D01224B1D60224B1D60224A92682B0095
:105840009343FAD12660A060221DC0239B0113431D
:1058500021221A602268002AFCDAE76008221A6016
:1058600004BC9146F0BD184B184A16211848FFF7A2
:1058700053FC184B154A19211548FFF74DFC164BE0
:10588000124A1F211248FFF747FC144B0F4A2221EE
:105890000F48FFF741FC22683F231340B342C3D1B6
:1058A000A3681B051B0D8342BED1E368002FBBD14B
:1058B000D6E78025AD01BCE700C0024000E0004013
:1058C00000F0004000C0004098B700107CB8001005
:1058D000B4B70010FCB7001048B8001060B8001052
:1058E00080239B000343014AD36270470080054038
:1058F000024B1A68024B5A607047C0463894002029
:105900000080054010B50200144B8020C0051860CF
:10591000134B1448186000291BD0134BE021C90415
:105920001960002A00D132325001801A800080189C
:1059300000010E4B186080235B04984202D30B4B8E
:105940000B4A1A60FFF7D4FF074B8022D2051A607A
:1059500010BD024BE021C9041960E2E700B0054028
:1059600008200140FCFF010000A005403894002001
:10597000FFFFFF0010B5030010000C4A8024E4056F
:105980001460002B0DD001221343094A094CD46145
:10599000094C5C401462516293620021FFF7B2FF30
:1059A00010BD034B0022DA61F7E7C04600B00540A6
:1059B00000800540D3C007B02D3FF84F064BAA2208
:1059C00012011A602F22DA60044B054A1A60024B5A
:1059D0005B68002BFBDA7047004002400060024029
:1059E00000B0FA009A4200D288547047704710B550
:1059F000002802D00B684968984710BD01000020BC
:105A00000A681378303BDBB2092B08D883001B18D7
:105A10005B00501C08601078C0183038F0E7704701
:105A2000F0B5DE4657464E464546E0B583B0934650
:105A30001F000C9B9A460D9C0E9B99460F9B9B0743
:105A400003D0B8460F00060022E00192A346884624
:105A50004E46B9460700B44207D2551C4B46414654
:105A60002020B84701342A00F5E73D004F465C4648
:105A7000019B9B46B1464646B84637002E0007E0DC
:105A8000013C551C5346185D43463900B0472A0077
:105A9000002CF5D135003E0047460F9B9B0707D4ED
:105AA000100003B03CBC90469946A246AB46F0BD00
:105AB000B0464E46B9462F005D46531BB342EFD267
:105AC000541C4B4641462020B8472200F5E7F0B56C
:105AD000CE46474680B585B0944698460C9D0D9CB1
