:020000041000EA
:1000000000B5324B212058609868022188439860DF
:10001000D860186158612E4B002199600221596106
:100020000121F02299502B49196001219960352056
:1000300000F044F80222904214D00621196600F024
:1000400034F8196E01211966002018661A6600F04E
:100050002CF8196E196E196E052000F02FF8012189
:100060000842F9D1002199601B49196000215960AB
:100070001A491B48016001219960EB211966A021F2
:10008000196600F012F800219960164914480160C1
:100090000121996001BC002800D000471248134993
:1000A000086003C880F30888084703B5996A0420EC
:1000B0000142FBD001200142F8D103BD02B5186610
:1000C0001866FFF7F2FF186E186E02BD00000240BE
:1000D000000000180000070000035F00212200005C
:1000E000F4000018222000A00001001008ED00E03C
:1000F00000000000000000000000000074B24E7A12
:1001000000200420F7010010C3010010C5010010F9
:10011000C1010010C1010010C1010010C101001097
:10012000C1010010C1010010C1010010C701001081
:10013000C1010010C1010010C9010010CB01001065
:10014000CD010010CD010010CD010010CD01001037
:10015000CD010010CD010010CD010010CD01001027
:10016000CD010010CD010010CD010010CD01001017
:10017000CD010010CD010010CD010010CD01001007
:10018000CD010010CD010010CD010010CD010010F7
:10019000CD010010CD010010CD010010CD010010E7
:1001A000CD010010CD010010CD010010CD010010D7
:1001B000CD010010CD010010CD010010CD010010C7
:1001C00000BE00BE00BE00BE00BE00BE00F04BF888
:1001D000103800BEF2EB8871F46F01101C70011032
:1001E0003402001090A31AE700202149086006C8D5
:1001F00081F3088810471F48006800282FD10DA4FC
:100200000ECC002902D000F012F8F9E71A491B4A77
:10021000002000E001C19142FCD1194988471949E9
:1002200088471949884700BEFDE701C901C29A42C3
:10023000FBD370471C700110C0000020F02001208B
:100240004C90021000000420000004204C9002108A
:1002500000100420001004200000000070470B482C
:1002600009F040FC0047EFF30580C0B27047000082
:1002700008ED00E0000000D0F0200120D48302202F
:10028000857F0010990400109980001057560000D7
:1002900006005250ABB36053305B01100600525061
:1002A000861C0302405B0110060052505422A29D9E
:1002B000505B011005005250DE65F4684C9002104E
:1002C000F8B5C0460448054B10B5834203D0044B33
:1002D000002B00D0984710BDF0200120F020012015
:1002E0000000000006480749091A8B10C90FC918F9
:1002F00010B5491003D0044B002B00D0984710BD17
:10030000F0200120F02001200000000010B5074C73
:100310002378002B09D1FFF7D5FF054B002B02D026
:10032000044800E000BF0123237010BD102201200B
:1003300000000000E03C0110054B10B5002B03D07D
:100340000449054800E000BFFFF7CCFF10BDC046E0
:100350000000000014220120E03C011010B500F064
:10036000C3FF05F09DFE06F0A1F900F0F7FE05F0D1
:1003700005FCF4E701238340D022120693619361C8
:1003800053610022002000E00132072A0EDCD02356
:100390001B0680214903996159614000C0B25B6826
:1003A0009B02F1D501231843C0B2EDE7704730B589
:1003B00001258540D0231B069D6100230BE0D02042
:1003C00000068024E40184614900D02000068024D6
:1003D000E40444610133934210DAD0200006802403
:1003E000E4048461501E0C0004412000C007E6D5DF
:1003F000D02000068024E4014461E5E7D0231B06F9
:100400005D6130BD10B582B001000F4B18880F4BF5
:1004100098420DD0014389B20B4C218010220F204D
:10042000FFF7C5FF2288094B9A4207D002B010BDE2
:1004300000230093009B002BFCD1EBE700230193EA
:10044000019B002BFCD1F1E7482D01200920000081
:1004500010B582B00E4B98420DD00E4C21888143CE
:10046000218010220F20FFF7A2FF2288084B9A421A
:1004700007D002B010BD00230093009B002BFCD1DD
:10048000EBE700230193019B002BFCD1F1E7C04671
:1004900009200000482D012010B51B2006F012FB9A
:1004A000D024240680231B05636263610D2006F0BF
:1004B00009FB0E2006F006FB0F2006F003FB1620BA
:1004C00006F000FB152006F0FDFA1A2006F0FAFAF5
:1004D000132006F0F7FA142006F0F4FA122006F0C2
:1004E000F1FA002006F0EEFA012006F0EBFA022005
:1004F00006F0E8FA032006F0E5FA042006F0E2FA36
:10050000052006F0DFFA062006F0DCFA072006F0E8
:10051000D9FA01220021002006F0BAFA01220021B6
:10052000012006F0B5FA01220021022006F0B0FAFF
:1005300001220021032006F0ABFA01220021042051
:1005400006F0A6FA01220021052006F0A1FA0122F8
:100550000021062006F09CFA01220021072006F067
:1005600097FA0A2006F0AEFA0B2006F0ABFA0C2040
:1005700006F0A8FA112006F0A5FA102006F0A2FA5B
:1005800000220121102006F083FA0022012111200F
:1005900006F07EFA8023DB01636280229201A26270
:1005A000636280231B0263628023DB036362802318
:1005B0009B03A3628023DB04636280231B036362CB
:1005C00080235B0363628022D20262628022D200B7
:1005D0006262802212016262802252016262636161
:1005E0000120FFF70FFF0A2007F0CCF800F078F8A1
:1005F00000F042F90AF0ACFC04F046F904F04EFBBE
:100600000B480DF095FB06F031F804F085F901E098
:1006100004F094F907F052F9064A002309F0F8FAB9
:100620001343F5D1044A7C330021D154F0E7C0468E
:100630005D030010002D31014032012082B0030023
:10064000019064205843002801D00138FBE702B034
:10065000704700B583B080236A461371793B03402D
:10066000502040421843507101AA0221782005F021
:100670003AFE03B000BD10B582B001AA802111700E
:10068000030910242343537091700F231840D07036
:100690007C39782005F027FE02B010BD10B5054B5F
:1006A0001A887F2111401980034B18680822FFF730
:1006B0007EFE10BD4A2D0120EC3C011010B5064B0A
:1006C00019888022114389B21980044B18680822C6
:1006D000FFF76DFE10BDC0464A2D0120EC3C011015
:1006E00010B5FFF7EBFFFA24E4002000FFF7A6FFA8
:1006F000FFF7D4FF2000FFF7A1FFFFF7DFFF200087
:10070000FFF79CFF05F054FD782005F069FD80207F
:1007100005F066FDAE2005F063FD802005F060FD6C
:10072000D52005F05DFD802005F05AFDA02005F0E4
:1007300057FD802005F054FDA82005F051FD8020D4
:1007400005F04EFD1F2005F04BFD802005F048FD13
:10075000D32005F045FD802005F042FD002005F086
:100760003FFD802005F03CFDAD2005F039FD8020E7
:1007700005F036FD8E2005F033FD802005F030FDBC
:10078000D82005F02DFD802005F02AFD052005F07C
:1007900027FD802005F024FDA12005F021FD80200B
:1007A00005F01EFDC82005F01BFD802005F018FD9A
:1007B000DA2005F015FD802005F012FD122005F06D
:1007C0000FFD802005F00CFD912005F009FD802033
:1007D00005F006FD3F2005F003FD802005F000FD3B
:1007E0003F2005F0FDFC802005F0FAFC3F2005F0DD
:1007F000F7FC802005F0F4FC3F2005F0F1FC8020A0
:1008000005F0EEFC812005F0EBFC802005F0E8FC13
:10081000184B187805F0E4FC802005F0E1FCD920A5
:1008200005F0DEFC802005F0DBFCD22005F0D8FCD2
:10083000802005F0D5FCDB2005F0D2FC802005F0FF
:10084000CFFC342005F0CCFC802005F0C9FCA620AC
:1008500005F0C6FC802005F0C3FCA42005F0C0FC18
:10086000802005F0BDFCAF2005F0BAFC05F0AAFC25
:1008700010BDC046C804002070B5002503E005F097
:10088000A1FC0135EDB2032D16D82800FFF7E1FEDB
:100890000020FFF7F0FE05F08BFC782005F0A0FCAF
:1008A000402005F09DFC0024832CE8D8002005F0B2
:1008B00097FC0134E4B2F7E770BD0200002100208C
:1008C00005E040000123134018435210013107296D
:1008D000F7DD704770B515008400041B64007F3499
:1008E0000320401AC0B2FFF7B4FEE0B2FFF7C3FE28
:1008F00005F05EFC782005F073FC402005F070FCEC
:100900000024042C0DDCAB005B190421091B5B18CF
:10091000074AD05CFFF7D1FFC0B205F061FC01349B
:10092000EFE7002005F05CFC05F04CFC70BDC04614
:10093000CC04002010B500F0C1FC10BD70B50E0055
:1009400014002278002A06D0451C01343100FFF73C
:10095000F1FF2800F5E770BD70B5002508E0202202
:1009600021002800FFF7E6FF0134032CF7DD0135F5
:10097000142D01DC0024F8E770BD70477047704704
:10098000024BDA79598852185A807047C4310120D5
:10099000054B588899790902DA790A435A80020A84
:1009A0009A71D8717047C046C4310120024A5388F9
:1009B000013B93807047C046C4310120024A9388AE
:1009C000013353807047C046C43101200F4A9379E8
:1009D000D371127A02218A43002B0CD104210A43DD
:1009E0000A490A725BB2002B0ADB084A137A082113
:1009F0008B431372704704218A4304490A72F1E75A
:100A0000024A137A08210B431372F3E7C431012021
:100A10000F4AD3799371127A02218A43002B0CD1A9
:100A200004210A430A490A725BB2002B0ADB084A16
:100A3000137A08218B431372704704218A430449B7
:100A40000A72F1E7024A137A08210B431372F3E7A3
:100A5000C4310120054A137A3F218B431900062037
:100A600010563F2303400B4313727047C4310120DB
:100A7000014B1A7A9A717047C4310120024A137AE5
:100A800001218B4313727047C4310120024A137A4B
:100A900001210B4313727047C4310120024A137ABB
:100AA00010210B4313727047C4310120024A137A9C
:100AB00010218B4313727047C4310120092802D0E2
:100AC000342812D070470B4A5388013B9BB25380A5
:100AD000002B04D1137A04210B431372F2E7054A69
:100AE000137A04218B431372ECE7024A9388013B8B
:100AF0009380E7E7C4310120082802D0312812D0C2
:100B000070470B4A538801339BB25380002B04D1AA
:100B1000137A04210B431372F2E7054A137A042176
:100B20008B431372ECE7024A938801339380E7E723
:100B3000C431012053B2002B09DB12B22038C3B2FA
:100B40000F2B00D989E09800594B1B589F46013A5A
:100B5000FF3AF3E757490B889A1801320A8080E080
:100B6000544B1B7A0521194200D076E051490B887D
:100B70009A1801320A8074E04E4B1B7A0521194203
:100B80006BD04C490B889A1801320A8069E0494BB6
:100B90001B7ADB0761D447490B889A1801320A8017
:100BA0005FE0444B1B7ADB0757D542490B889A1804
:100BB00001320A8055E03F4B1B7A5B074DD43D491B
:100BC0000B889A1801320A804BE03A4B1B7A5B077C
:100BD00043D538490B889A1801320A8041E0354BD9
:100BE0001B7A9B0739D433490B889A1801320A8043
:100BF00037E0304B1B7A9B072FD52E490B889A186C
:100C000001320A802DE02B4B1B7A1B0725D4294982
:100C10000B889A1801320A8023E0264B1B7A1B07A7
:100C20001BD524490B889A1801320A8019E0214B00
:100C3000197A0A230B400A2B01D0002B0DD11D4934
:100C40000B889A1801320A800BE01A4B197A0A2392
:100C50000B40022B06D0082B04D0164A1388013310
:100C60001380704713490B889A1801320A80F8E7FD
:100C7000104B1B7A5907F0D40A210B400A2B01D0E4
:100C8000002BEAD10B490B889A1801320A80E8E759
:100C9000084B1B7A590705D40A210B40082B01D0B9
:100CA000022BDAD103490B889A1801320A80D8E75F
:100CB000F83C0110C431012010B5224B9A790F2065
:100CC0001040197A8B0628D5931D092800D90633C0
:100CD000C80700D560339F2B00DD6033992B03DDFF
:100CE0000120014317480172190618D51548017AE9
:100CF000082421430172002B17D11248017A0424E1
:100D0000214301725A40120615D50E490A7A022073
:100D100002430A720B4A937110BD1300D5E70948CC
:100D2000017A0824A1430172E5E70648017A042408
:100D3000A1430172E6E703490A7A022082430A725C
:100D4000E8E7C046C4310120094A9179D3794B4381
:100D5000190A9171D3711B0604D5137A01210B4333
:100D600013727047024A137A01218B431372F8E71A
:100D7000C431012030B52C4BD9799A79531ADBB2A2
:100D800052B2002A28DB002A02DB48B200282FDBFF
:100D9000254C207A0225A8432072002B2CD1224C0E
:100DA000207A0425284320725BB2002B2ADB1E4CDC
:100DB000207A0825A8432072002A02DB48B20028C6
:100DC0002BDB49B2002923DB002B24DB164A137AE4
:100DD00001218B43137225E048B20028D3DB58B2BF
:100DE0000028D0DB104C207A022528432072D4E75B
:100DF00058B20028CCDAF5E70B4C207A0425A8433A
:100E00002072D1E7084C207A082528432072D3E7C6
:100E1000002BD9DA01E0002AD8DB034A137A01213A
:100E20000B43137230BDC046C431012030B52C488D
:100E3000C1798279531ADBB2837152B2002A28DB5E
:100E4000002A02DB48B200282FDB254C207A02253D
:100E5000A8432072002B2CD1214C207A0425284352
:100E600020725BB2002B2ADB1D4C207A0825A84398
:100E70002072002A02DB48B200282BDB49B200298D
:100E800023DB002B24DB164A137A01218B431372D8
:100E900025E048B20028D3DB58B20028D0DB104C44
:100EA000207A022528432072D4E758B20028CCDAF1
:100EB000F5E70B4C207A0425A8432072D1E7084CB3
:100EC000207A082528432072D3E7002BD9DA01E0E5
:100ED000002AD8DB024A137A01210B43137230BD7A
:100EE000C431012010B51B4A93791B02D2791343F8
:100EF000D2071DD517490A7A012002430A72580801
:100F0000144A127AD10719D502210A4311490A72EB
:100F1000002818D10F490A7A042422430A720D4A84
:100F2000117A0824A14311725B0A9371D07110BD2C
:100F300008490A7A012082430A72E0E702218A43C3
:100F400004490A72E4E703490A7A0424A2430A72B4
:100F5000E5E7C046C431012022498A791202CB79E3
:100F600013431AB2002A22DB1E490A7A0120824367
:100F70000A725B009BB2002B1ED11A490A7A042028
:100F800002430A721AB2002A1CDB16490A7A0820A8
:100F900082430A72134A127A09211140082917D094
:100FA000012915D002218A430E490A7214E00A7AF7
:100FB000012002430A72DCE70A490A7A04208243CC
:100FC0000A72DFE707490A7A082002430A72E1E75A
:100FD00002210A4303490A72024A190A9171D37124
:100FE0007047C046C43101206E2807D07E2804D146
:100FF00012021A43013A054B1A807047034B598875
:10100000521892B2013A1A80F7E7C046C431012063
:10101000034B1A6801239340D02212069361704754
:10102000F43C0110E0239B00984203D040339842E7
:1010300004D07047034B00221A60FAE7014B0122EB
:101040001A60F6E7740A0020E8239B0098420CD04F
:101050004033984211D0803B984200D07047002323
:101060000E4A13600E4A1360F8E70C4A1368802199
:10107000C9018C4663441360F0E7094B1B68002BE1
:1010800004D1074B802212021A60E7E78022D201C6
:1010900094466344024A1360E0E7C046B02C012046
:1010A000C82C012010B5284A136801331360C023EF
:1010B0009B00984207D04033984220D0813BFF3BB1
:1010C00098423BD010BD214C00232380204B1A882E
:1010D000802111407F22114389B219801D4B18686D
:1010E0000822FFF764F91C48437D022293431A004B
:1010F0002188C91202230B4013434375E2E7134CC6
:10110000238801339BB22380114A1088802101403B
:101110007F204340194389B211800E4B1868082282
:10112000FFF745F90C48437D022293431A002188BA
:10113000C91202230B4013434375C3E705F0A6FA17
:10114000FFF766FFBEE7C046E02C01204C2D0120D2
:101150004A2D0120EC3C011040320120094B1A6855
:1011600001321A601A68084B9A420ADD054B0022C8
:101170001A60064A136859424B411360044B01221E
:101180001A607047342701209F860100382701200C
:101190003C270120C0235B00984204D08223FF3308
:1011A000984205D07047034B1B687F201840F9E731
:1011B0000020F7E7F02B0120044A517C80235B429A
:1011C0000B435374024B01221A70704740320120C6
:1011D000B81200200E4B1B78DAB2012B02D0022A83
:1011E0000BD070471128FCD10A4B5B7C5BB2002B03
:1011F000F7DA074B02221A70F3E71228F1D1044BF9
:1012000003221A70034A517C7F230B405374E8E792
:10121000B81200204032012070B50C00132800D015
:1012200070BD0E4B1D68681CFA21890008F086FC11
:101230000B4B1B6899420CD00A4B00221A600A4BD8
:101240005C55064B1960094A537C20210B435374AB
:10125000E6E7044B01221A60E2E7C046F8260120C7
:10126000FC2601209C2C0120203C02204032012041
:1012700010B5054B1B68002B00D110BD034BD97C6A
:101280001320FFF7C9FFF8E79C2C01204032012012
:1012900070B50022042A0DDC83001B189B18064D34
:1012A000EE5C8B005B189B18802464423443EC5442
:1012B0000132EFE770BDC046CC0400200B004900AE
:1012C000C918CB00591A0918024B1B685B5C02490C
:1012D000CA547047DC31012048330220014B1954B5
:1012E0007047C046D8310120F0B583B0544B1A681E
:1012F000544955480DF0F4FB002804D1534B1B68AA
:10130000002B00D189E0514B00221A6000255FE0DC
:101310004F4B1B68002B6AD04E4B1B68002B10D024
:101320004D4B1B68002B03D0019780277F005EE0A8
:101330000224FF3421003800FFF7AAFF019727009D
:1013400055E0454B1B68002B08D00224FF342100D8
:101350003800FFF79DFF0197270048E00224FF3483
:1013600021003800FFF794FF019727003FE03B4B37
:101370001A5D21001420FFF7ADFA0134032CF6DDCD
:101380007B1EFF3B012B08D97B1C354A9918D35C87
:101390006822934303D0FAB202E0019FF4E72022CF
:1013A000304B5A550B786822934301D0FFB200E0CE
:1013B00020271421280008F0C1FB04001421280074
:1013C00008F0BCFB16204443274800194754013558
:1013D0001B4B1A68AA421CDB04F0D0FB234B1B6892
:1013E0005B5D184AD75C224A1268934290D0214B29
:1013F0001E683100280008F0A1FB0400310028001D
:1014000008F09CFB08003A002100FFF763FA002473
:10141000B4E70C490C4809F0F7FB002306E016215D
:101420005943114A5218002151750133032BF6DD3F
:10143000034B1B680B4A0021D15403B0F0BDC046DA
:10144000180A002048330220602D01203C2701208B
:10145000FC2B012038270120F82B0120D831012056
:1014600060640110642E0120E0310120DC31012094
:10147000F02B01201C0A0020F0B5C64600B5C023A1
:101480005B00984206D08223FF3398425BD004BCB5
:101490009046F0BD4BB2002B14DB0B00403BDBB29F
:1014A0003F2B1AD9072923D8042942D201293ED03B
:1014B0000029ECD00239C9B20129E8D8514B0022E9
:1014C0001A60E4E77F2319404E4B19604E4B01220E
:1014D0001A604E4B00221A60D9E73F231940494B4E
:1014E0001960494B00221A60484B01321A60CEE75E
:1014F0000B00083BDBB2072BC9D88A1001231A4026
:10150000434802604A101340424A136001231940C5
:10151000414B1960BBE7414A2021D1540133404A75
:1015200012689A42F7DA374B00221A60AFE70023BD
:10153000F5E74A10012313403A4A1360012319408A
:10154000394B1960A3E7394B01221A602E4B1B68F7
:10155000002B10D02B4B1B68304AD154314A1268F3
:10156000002A18D001229B18264A1360FF2B02DDA7
:101570001300FF221A60254B1B68002B00D186E761
:10158000204B1D68EB175B0FEA1807261640F31A6D
:101590009C46002403E001225242E4E70134042C7B
:1015A0001EDCEA17072313405B19DB109A00D318DF
:1015B0001B190122904610006246904040B21C4F19
:1015C000FA5C824352B2FA5404273F1B0E003E419C
:1015D000370046463E42E1D002431548C254DDE79B
:1015E000104B1B68002B09D00123ED18054B1D6023
:1015F000502D00DC4BE750221A6048E701235B4284
:10160000F3E7C046F02B0120082C0120042C012018
:10161000AC270120FC2B0120F82B012048330220AD
:10162000180A0020F42B0120002C01203C27012067
:10163000CC04002003B2002B0DDB0F4B0122DA603B
:1016400018828023DB01984202D30C4B1B68C01820
:101650000B4BC0187047C0231B02984205D9094B99
:101660009C466044084BC018F4E7064B9C46604417
:10167000064B1B68C018F5E7C4310120B02C0120CF
:10168000403201200080FFFFBC120020C82C012046
:10169000002380225200934205DC034AD15C034AB6
:1016A000D1540133F5E7704748330220403202201D
:1016B000002380225200934205DC034AD15C034A96
:1016C000D1540133F5E770474032022048330220FD
:1016D00010B50023002000E00133072B0EDC40088A
:1016E0009A000E495158D02212065268CA40D207B9
:1016F000F2D5802252421043C0B2EDE7084B1B687E
:1017000096225200934208DA064A5900E2248C5489
:10171000521850700133024A136010BD7812002035
:101720001C2D0120682F012010B5144B1B68962238
:101730005200934208DA124A590012248C5452186B
:10174000507001330D4A1360002309E09A000D49DF
:10175000515801228A40D02109068A61400801338C
:10176000072B0ADCC207F1D59A000649515801221D
:101770008A40D02109064A61F0E710BD1C2D0120E6
:10178000682F01207812002030B583B00023019328
:10179000019C002CFCD1204B1B68962252009342E6
:1017A00008DA1E4A5900D2258D5452185070013360
:1017B000194A13600323184003281FD1184B1A68D5
:1017C00001239340D022120653617D30FEF740FE84
:1017D00008E0A200134BD25801239340D0221206F6
:1017E00053620134072CF4DD14E0A2000D4BD258F3
:1017F00001239340D022120693620134072CF4DDBA
:10180000074B1A6801239340D0221206936180206F
:10181000FEF71EFE03B030BD1C2D0120682F0120F5
:10182000F03C011078120020014B18787047C04638
:101830005D2D012070B50500354B1870354B1B68C8
:1018400096225200934208DA334A590016208854EF
:101850005218557001332F4A1360002441E0EB0702
:1018600003D40820FEF7CEFD39E00820FEF7F0FD96
:1018700035E0EB0704D580200001FEF7C3FD2EE024
:1018800080200001FEF7E4FD29E0EB0704D580206D
:101890004001FEF7B7FD22E080204001FEF7D8FDB1
:1018A0001DE0EB0704D580208001FEF7ABFD16E0BC
:1018B00080208001FEF7CCFD11E0EB0703D510205E
:1018C000FEF7A0FD0BE01020FEF7C2FD07E0EA07DF
:1018D00015D501229A401300D022120653616D08DB
:1018E0000134072C12DCA3000C4A9B58632BEED961
:1018F000643B042BF3D89B00094AD3589F4601222E
:101900009A401300D02212069361E8E770BDC046EA
:101910005D2D01201C2D0120682F01209812002030
:10192000383D011030B583B0040000230193019BC2
:10193000002BFCD1254A1268962149008A4208DA18
:1019400023495000D625455409184C7001321F49CF
:101950000A60002C13D14020FEF754FD80200001C6
:10196000FEF750FD80204001FEF74CFD80208001F5
:10197000FEF748FD1020FEF745FD18E00133072B68
:101980000BDC9A0013495258632AF7D80121914081
:101990000A00D02109064A62F0E74020FEF758FD10
:1019A0000D4B1878FFF746FF03B030BD0134072C0C
:1019B000FADCA300074A9B58632BF7D801229A4010
:1019C0001300D02212069362F0E7C0461C2D0120BE
:1019D000682F0120981200205D2D012070B50400B1
:1019E0000500172809D8032858D3C31E9AB2142A11
:1019F00054D89300534AD3589F46B0239B00984233
:101A00005DD00FD9E0239B00984254D020D9F02319
:101A10009B0098424FD0203398421FD0403B9842C1
:101A20001CD03BE0013BFF3B98424CD007D9A023A0
:101A30009B00984232D10420FEF7E4FC2EE0030024
:101A4000813BFF3B9BB2012B28D8FFF7A3FB31E082
:101A5000403B98420AD02033984204D12000FFF73F
:101A6000F3FA002026E0603B984217D12000FFF7F0
:101A700019FB00201EE0344B18781BE0334B18880C
:101A8000000A17E0314B187814E0314B1888000A2F
:101A900010E02F4B18780DE0FFF79CFB23B2002BD2
:101AA0003FDB8023DB019C4202D32A4B1D68651972
:101AB000294B585D70BD2000FFF7B4FAEEE7042013
:101AC000FEF7C6FCEAE704F0E1FDFFF7A1FA00200B
:101AD000F0E7224B1868FEF74DFC7F235840C0B258
:101AE000012290437F2303401B4C6375D0221206D2
:101AF0005168490B01220A40D20113430222934349
:101B0000174A1188C91202220A401343637504F070
:101B100057FF607DCEE7FFF7DBFDCBE7FFF784FEE5
:101B2000C8E7C0231B029C4205D90E4B9C46644467
:101B30000D4B185DBEE70B4B9C4664440B4B18687D
:101B40002418F5E74C3D01105E2D0120542D012095
:101B5000522D0120B02C012040320120E83C011020
:101B60004C2D01200080FFFFBC120020C82C01205A
:101B700010B56D282FD01FD84D2837D05D2800D143
:101B80003149324A137A0220834301388343137266
:101B9000D268002A2CD10A78002A4AD104221343A1
:101BA0002A4A13720023CB56002B47DB274A137AAD
:101BB00008218B43137210BD7D28E2D11202D21886
:101BC00090B2FFF737FD0100204A138801339BB222
:101BD00001331380D5E71D4C6088801880B2FFF771
:101BE00029FD0100238801332380CAE71849C8E78B
:101BF000164C208AFFF7F2FE0023E36000280CD188
:101C0000124A137A04210B43137203060BD40F4AB2
:101C1000137A08218B431372CDE70C4A137A0421FF
:101C20008B431372F1E7094A137A08210B431372AD
:101C3000C1E704229343054A1372B3E7034A137AB8
:101C400008210B431372B6E7CB310120C4310120C8
:101C5000CA31012010B50200172808D803B2002BA2
:101C600019D0172817D88300424CE3589F46B02359
:101C70009B0098425FD018D9E0239B0098425ED029
:101C800029D9F0239B00984259D02033984228D07C
:101C9000403B984225D08023DB01984202D3364B4B
:101CA0001A688218354B995426E0013BFF3B984255
:101CB0004BD007D9A0239B009842ECD10420FEF71B
:101CC000A1FB19E00300813BFF3B9BB2012BE2D853
:101CD000FFF7D2FB10E0403B984208D020339842F7
:101CE00002D1FFF7B1F907E0603B9842D3D1FFF78B
:101CF000D9F901E0224B197010BD224A1088FF2348
:101D00000340090219431180F6E71E4B1888FF2291
:101D1000904301431980EFE71B4A1088FF230340DB
:101D2000090219431180E7E7174B1888FF229043F7
:101D300001431980E0E70420FEF78AFBDCE7FFF7A8
:101D400071F9D9E7FFF768FAD6E704F09FFCFFF7CF
:101D50005FF9D1E70800FFF7E7FCCDE70800FFF7E0
:101D600013FDC9E70800FFF765FDC5E70800FFF7A9
:101D7000D9FDC1E7A03D0110B02C01204032012067
:101D80005E2D0120542D0120522D012070B56A28AE
:101D90003AD02AD84A2842D05A2800D1304C237849
:101DA000802B3ED02F4A137A02218B4313722D4B86
:101DB000DB68002B3BD121780139C9B22170294B56
:101DC000DB68002B38D12378002B3CD1254A137ACD
:101DD00004210B4313720023E356002B39DB214A05
:101DE000137A08218B43137270BD7A28D7D112025F
:101DF000D21890B2FFF71EFC04001A4A1388013370
:101E00009BB201331380CAE7164D6888801880B2F0
:101E1000FFF710FC04002B8801332B80BFE7124C26
:101E2000BDE7104A137A02210B431372BFE70D4B33
:101E3000188AFFF7D3FDBEE70A4D288AFFF70AFF8D
:101E40000023EB60BFE7074A137A04218B43137228
:101E5000C1E7044A137A08210B431372C4E7C04652
:101E6000CB310120C4310120CA31012070B56C286A
:101E70003AD02AD84C2842D05C2800D1304C314B83
:101E8000DB68002B3DD121780131C9B221702D4B87
:101E9000DB68002B3AD12378802B3ED0294A137A75
:101EA00002218B4313722378002B3CD1254A137AED
:101EB00004210B4313720023E356002B39DB214A24
:101EC000137A08218B43137270BD7C28D7D112027C
:101ED000D21890B2FFF7AEFB04001A4A1388013300
:101EE0009BB201331380CAE7164D6888801880B210
:101EF000FFF7A0FB04002B8801332B80BFE7124CB7
:101F0000BDE7104B188AFFF769FDBCE70D4D288A25
:101F1000FFF7A0FE0023EB60BDE70A4A137A022117
:101F20000B431372BFE7074A137A04218B431372E2
:101F3000C1E7044A137A08210B431372C4E7C04671
:101F4000CB310120C4310120CA31012010B56F28E6
:101F500027D017D84F282FD05F2800D11B491C4B02
:101F6000DB68002B2AD100230B70194A137A022157
:101F70008B4301398B4304210B43DBB208218B4394
:101F8000137210BD7F28EAD11202D21890B2FFF767
:101F900051FB01000E4A138801339BB201331380B9
:101FA000DDE70B4C6088801880B2FFF743FB01002F
:101FB000238801332380D2E70649D0E7044C208AE6
:101FC0000021FFF747FE0023E360CEE7CB3101207D
:101FD000C4310120CA31012070B5602842D032D806
:101FE00040284AD0502800D1374C384BDB68002BB2
:101FF00045D121784942C9B22170344BDB68002BAE
:1020000042D12378802B46D0304A137A02218B4369
:1020100013722378002B44D02C4A137A01210B43EE
:1020200013722378002B42D1284A137A04210B43E0
:1020300013720023E356002B3FDB244A137A082156
:102040008B43137270BD7028CFD11202D21890B298
:10205000FFF7F0FA04001D4A138801339BB20133E5
:102060001380C2E7194D6888801880B2FFF7E2FA42
:1020700004002B8801332B80B7E7154CB5E7134BD1
:10208000188AFFF7ABFCB4E7104D288AFFF7E2FD92
:102090000023EB60B5E70D4A137A02210B4313725C
:1020A000B7E70A4A137A01218B431372B9E7074A4B
:1020B000137A04218B431372BBE7044A137A082175
:1020C0000B431372BEE7C046CB310120C43101205F
:1020D000CA31012070B5682847D037D848284FD07A
:1020E000582800D1394C0023E356002B4ADB384AEC
:1020F000137A01218B431372354BDB68002B47D1D8
:1021000021784900C9B22170314BDB68002B44D1E2
:102110002378002B48D12E4A137A04210B431372E3
:102120000023E356002B45DB294A137A08218B4311
:102130001372274B1B7A09221A40082A40D0012A21
:102140003ED002229343224A13723DE07828CAD13E
:102150001202D21890B2FFF76DFA04001C4A1388DD
:1021600001339BB201331380BDE7194D6888801895
:1021700080B2FFF75FFA04002B8801332B80B2E7AF
:10218000144CB0E7124A137A01210B431372B3E7E0
:102190000F4B188AFFF722FCB2E70D4D288AFFF794
:1021A00059FD0023EB60B3E7094A137A04218B43FE
:1021B0001372B5E7064A137A08210B431372B8E786
:1021C00002221343024A137270BDC046CB31012074
:1021D000C4310120CA31012070B5632839D029D813
:1021E000432841D0532800D12C4C2D4BDB68002BC9
:1021F0003CD12178C943C9B22170294BDB68002B3F
:1022000039D1274A137A02218B4301210B43DBB2D8
:1022100013722278002A35D104221343204A137204
:102220000023E356002B32DB1D4A137A08218B432F
:10223000137270BD7328D8D11202D21890B2FFF772
:10224000F9F90400164A138801339BB20133138055
:10225000CBE7134D6888801880B2FFF7EBF90400D4
:102260002B8801332B80C0E70E4CBEE70C4B188A3D
:10227000FFF7B4FBBDE70A4D288AFFF7EBFC00230C
:10228000EB60BEE704229343054A1372C8E7044A91
:10229000137A08210B431372CBE7C046CB310120E0
:1022A000C4310120CA31012070B564283DD02DD839
:1022B000442845D0542800D1314C2378DB0741D540
:1022C000304A137A01210B4313722E4BDB68002B2B
:1022D0003ED12178490821702A4BDB68002B3CD184
:1022E000284B1B7ADA073FD502221343254A137283
:1022F0002378002B3DD1234A137A04210B43137218
:10230000204A137A08218B43137270BD7428D4D1EC
:102310001202D21890B2FFF78DF90400194A1388FF
:1023200001339BB201331380C7E7164D68888018CC
:1023300080B2FFF77FF904002B8801332B80BCE7C4
:10234000114CBAE70F4A137A01218B431372BCE791
:102350000C4B188AFFF742FBBBE70A4D288AFFF7B0
:1023600079FC0023EB60BBE702229343054A13721A
:10237000BEE7044A137A04218B431372C0E7C046B8
:10238000CB310120C4310120CA31012070B567284A
:1023900044D034D847284CD0572800D1354C237826
:1023A000DB0748D5344A137A01210B431372324BB1
:1023B000DB68002B45D123785B08237040221A424A
:1023C00002D0C03A134323702B4BDB68002B3DD166
:1023D0002378002B42D1284A137A04210B4313722D
:1023E000254B1B7A0822934301321A40082A3BD01E
:1023F000012A39D0022293431F4A137238E077280A
:10240000CDD11202D21890B2FFF714F904001A4A83
:10241000138801339BB201331380C0E7164D6888DF
:10242000801880B2FFF706F904002B8801332B8057
:10243000B5E7124CB3E7104A137A01218B431372AC
:10244000B5E70D4B188AFFF7C9FAB4E721780A4DB2
:10245000288AFFF7FFFB0023EB60B9E7064A137AEF
:1024600004218B431372BBE702221343024A137207
:1024700070BDC046CB310120C4310120CA310120DA
:1024800070B569284FD03FD8492857D0592800D176
:102490003D4C3E4B1B7A01251D400022A256002ACE
:1024A0004EDB01229343394A1372384BDB68002B11
:1024B0004BD123785B00DBB22370002D02D00122C8
:1024C00013432370314BDB68002B43D12378002B5F
:1024D00048D12E4A137A04210B4313720023E3568A
:1024E000002B45DB294A137A08218B431372274BB3
:1024F0001B7A09221A40082A40D0012A3ED0022223
:102500009343224A13723DE07928C2D11202D218B5
:1025100090B2FFF78FF804001C4A138801339BB276
:1025200001331380B5E7194D6888801880B2FFF732
:1025300081F804002B8801332B80AAE7144CA8E70C
:1025400001221343114A1372AFE7104B188AFFF7A9
:1025500045FAAEE721780D4D288AFFF77BFB002373
:10256000EB60B3E7094A137A04218B431372B5E792
:10257000064A137A08210B431372B8E70222134369
:10258000024A137270BDC046CB310120C431012014
:10259000CA31012070B566284ED03ED8462856D0A4
:1025A000562800D13C4C3D4B1B7A012215001D40A2
:1025B00021780A424DD01343384A1372374BDB68F7
:1025C000002B4BD123785B082370002D03D0802291
:1025D000524213432370314BDB68002B43D12378E5
:1025E000002B48D12D4A137A04210B431372002388
:1025F000E356002B45DB294A137A08218B431372DB
:10260000264B1B7A09221A40082A40D0012A3ED0C4
:1026100002229343214A13723DE07628C3D112026D
:10262000D21890B2FFF706F804001C4A1388013351
:102630009BB201331380B6E7184D6888801880B2CA
:10264000FEF7F8FF04002B8801332B80ABE7144C16
:10265000A9E701229343114A1372AFE70F4B188A7F
:10266000FFF7BCF9AEE721780C4D288AFFF7F2FAA4
:102670000023EB60B3E7094A137A04218B431372FA
:10268000B5E7064A137A08210B431372B8E7022212
:102690001343024A137270BDCB310120C4310120B3
:1026A000CA31012070B504000500E0235B009842A8
:1026B0005DD014D8172809D8032837D3C31E9AB27F
:1026C000142A33D893004A4AD3589F460300813BCB
:1026D000FF3B9BB2012B29D8FEF75CFD32E0D023F3
:1026E0009B00984217D010D9E8239B00984207D04E
:1026F00029D9F0239B0098422BD02033984215D142
:102700002000FEF7A1FC00201CE0803B984227D06F
:102710004033984204D12000FEF7C4FC002011E0B1
:10272000803B984202D10420FDF76CFE23B2002BBF
:102730004CDB8023DB019C4202D32E4B1D686519C4
:102740002D4B585D70BD403B9842D9D02033984204
:10275000ECD12000FEF766FCE8E7284B1878F1E79B
:102760000420FDF775FEE1E7FEF734FDDEE703F038
:102770008DFFFEF74DFC0020E4E7214B1868FDF7C4
:10278000F9FD7F235840C0B20123984303007F2006
:102790001840194C6075D0231B065A68520B012350
:1027A0001340DB01184302239843164B1A88D212B8
:1027B000022313401843607504F002F9607DC1E7FD
:1027C000FEF786FFBEE7FFF72FF8BBE7C0231B022B
:1027D0009C4205D90C4B9C4664440C4B185DB1E7F8
:1027E000094B9C4664440A4B18682418F5E7C04618
:1027F000003E0110B02C0120403201205E2D01204E
:10280000E83C01104C2D01200080FFFFBC1200208D
:10281000C82C012010B5140000216B2819D07B288A
:1028200020D0194A138801339BB201331380137AE5
:10283000022293434AB2002A1ADB08229343124A27
:102840001372002919D1104A137A04210B43137211
:1028500010BD0D4A5088C01880B2FFF723FF210039
:102860000140DEE798B2FFF71DFF21000140D8E7E5
:1028700008221343044A1372E3E7034A137A04213C
:102880008B431372E4E7C046C431012010B53328EE
:102890000DD0382814D0322800D010BD134CA08899
:1028A000013080B2A080FFF7FDFEA071F5E70F4C6C
:1028B000A088013080B2A080FFF7F4FEE071ECE761
:1028C0000A4CA088013080B2A080FFF7EBFE80B2F6
:1028D00000026080A088013080B2A080FFF7E2FE95
:1028E00080B26388C0186080D7E7C046C431012039
:1028F00070B50024C42800D16AE020D8A4285BD099
:102900000FD9B4283FD112029B1898B2FFF7CAFE24
:1029100084B23E490B8801339BB201330B800631F0
:1029200031E0842829D094282DD190B2FFF7BAFE47
:1029300084B236490B8801330B80063123E0E4284A
:102940004DD0F4280DD112029B1898B2FFF7AAFEC1
:1029500084B22E490B8801339BB201330B800731BF
:1029600011E0D4280FD190B2FFF79CFE84B2274922
:102970000B8801330B80073105E094B223490B88A3
:1029800001330B8006310878204008701F4A137A03
:102990000220834313720A78002A2CD104221343A5
:1029A0001A4A13720023CB56002B29DB174A137ADD
:1029B00008218B43137270BD144D6888101880B2C3
:1029C000FFF770FE84B22B8801332B80A91DDAE754
:1029D00094B20E490B8801330B800731D3E70B4DBE
:1029E0006888101880B2FFF75DFE84B22B8801332F
:1029F0002B80E91DC7E704229343044A1372D1E7F1
:102A0000024A137A08210B431372D4E7C431012020
:102A100070B50024C82800D16AE020D8A8285BD06F
:102A20000FD9B8283FD112029B1898B2FFF73AFE8F
:102A300084B23E490B8801339BB201330B800631CF
:102A400031E0882829D098282DD190B2FFF72AFEAE
:102A500084B236490B8801330B80063123E0E82825
:102A60004DD0F8280DD112029B1898B2FFF71AFE2C
:102A700084B22E490B8801339BB201330B8007319E
:102A800011E0D8280FD190B2FFF70CFE84B227498D
:102A90000B8801330B80073105E094B223490B8882
:102AA00001330B8006310878604008701F4A137AA2
:102AB0000220834313720A78002A2CD10422134384
:102AC0001A4A13720023CB56002B29DB174A137ABC
:102AD00008218B43137270BD144D6888101880B2A2
:102AE000FFF7E0FD84B22B8801332B80A91DDAE7C4
:102AF00094B20E490B8801330B800731D3E70B4D9D
:102B00006888101880B2FFF7CDFD84B22B8801339E
:102B10002B80E91DC7E704229343044A1372D1E7CF
:102B2000024A137A08210B431372D4E7C4310120FF
:102B300070B50024CA2800D16AE020D8AA285BD04A
:102B40000FD9BA283FD112029B1898B2FFF7AAFDFD
:102B500084B23E490B8801339BB201330B800631AE
:102B600031E08A2829D09A282DD190B2FFF79AFD1A
:102B700084B236490B8801330B80063123E0EA2802
:102B80004DD0FA280DD112029B1898B2FFF78AFD9A
:102B900084B22E490B8801339BB201330B8007317D
:102BA00011E0DA280FD190B2FFF77CFD84B22749FB
:102BB0000B8801330B80073105E094B223490B8861
:102BC00001330B8006310878204308701F4A137ABE
:102BD0000220834313720A78002A2CD10422134363
:102BE0001A4A13720023CB56002B29DB174A137A9B
:102BF00008218B43137270BD144D6888101880B281
:102C0000FFF750FD84B22B8801332B80A91DDAE732
:102C100094B20E490B8801330B800731D3E70B4D7B
:102C20006888101880B2FFF73DFD84B22B8801330D
:102C30002B80E91DC7E704229343044A1372D1E7AE
:102C4000024A137A08210B431372D4E7C4310120DE
:102C500010B50021C52800D167E020D8A52858D09C
:102C60000FD9B5283FD11002181880B2FFF71AFD0E
:102C700081B23D4C238801339BB20133238006345B
:102C800031E0852829D095282DD190B2FFF70AFD93
:102C900081B2354C238801332380063423E0E528B4
:102CA0004AD0F5280DD11002181880B2FFF7FAFCAF
:102CB00081B22D4C238801339BB20133238007342A
:102CC00011E0D5280FD190B2FFF7ECFC81B2264C71
:102CD000238801332380073405E091B2224C2388F6
:102CE00001332380063400202056084040B21E4B9A
:102CF0001B7A0222934300282AD1042213431A4A42
:102D00001372002829DB184A137A08218B431372A7
:102D100010BD154C6088101880B2FFF7C3FC81B25B
:102D20002388013323800634DDE791B20E4C2388DB
:102D3000013323800734D6E70B4C6088101880B22B
:102D4000FFF7B0FC81B22388013323800734CAE740
:102D500004229343044A1372D3E7034A137A0821E7
:102D60000B431372D4E7C046C431012070B5002173
:102D7000E3286AD015D8C3282CD0D32833D194B2F5
:102D80002000FFF78FFC0500601CFFF78BFC2D0275
:102D9000A9B280B2091889B24F4A1388013313804F
:102DA00021E0F3281FD112029A1894B22000FFF7F5
:102DB00079FC05000134A0B2FFF774FC2D02A9B222
:102DC00080B2091889B2444A138801339BB2013397
:102DD000138008E012029A1891B23F4A1388013317
:102DE0009BB2013313803C4A93791B02D0790200D5
:102DF0001A43521892B20343802424021800204040
:102E0000234202D00BB2002B34DB002805D10BB2D9
:102E1000002B02DB13B2002B2FDB2F4C237A022571
:102E2000AB432372002802D00BB2002B2EDB09B279
:102E3000002928DB13B2002B01DB002826D126490C
:102E40000B7A012083430B7225E0234E74881419FA
:102E5000A4B22000FFF726FC05000134A0B2FFF762
:102E600021FC2D02A9B280B2091889B2338801333E
:102E70003380B8E713B2002BC7DB174C237A022547
:102E80002B432372CEE713B2002BD3DB12490B7A0C
:102E9000012003430B72002A11D10F490B7A042041
:102EA00003430B7213B2002B0FDB0B490B7A082084
:102EB00083430B72084B110A9971DA7170BD064990
:102EC0000B7A042083430B72ECE703490B7A08204A
:102ED00003430B72EEE7C046C431012070B50021F8
:102EE000AC285AD015D88C282CD09C2833D194B239
:102EF0002000FFF7D7FB0500601CFFF7D3FB2D0276
:102F0000A9B280B2091889B24A4A138801331380E2
:102F100021E0BC281FD112029A1894B22000FFF7BA
:102F2000C1FB05000134A0B2FFF7BCFB2D02A9B222
:102F300080B2091889B23F4A138801339BB201332A
:102F4000138008E012029A1891B23A4A13880133AA
:102F50009BB201331380374B5A88531A9BB212B27B
:102F6000002A2FDB002A02DB08B2002836DB314CB6
:102F7000207A0225A8432072002A02DB08B200282A
:102F800036DB09B200292DDB19B200292EDB2949D5
:102F90000A7A012082430A722FE0264E748814199F
:102FA000A4B22000FFF77EFB05000134A0B2FFF7BA
:102FB00079FB2D02A9B280B2091889B23388013396
:102FC0003380C8E708B20028CCDB18B20028C9DB80
:102FD000184C207A022528432072CDE718B2002829
:102FE000C5DAF5E719B20029CEDA01E0002ACEDB16
:102FF00010490A7A012002430A72002B0DD10D49B3
:103000000A7A042002430A721BB2002B0BDB094A26
:10301000137A08218B43137270BD06490A7A042083
:1030200082430A72F0E7034A137A08210B431372B2
:10303000F2E7C046C431012070B50021A32853D067
:1030400015D883282CD0932833D194B22000FFF7D1
:1030500029FB0500601CFFF725FB2D02A9B280B2F9
:10306000091889B2504A13880133138021E0B3282C
:103070001FD112029A1894B22000FFF713FB05002B
:103080000134A0B2FFF70EFB2D02A9B280B20918DD
:1030900089B2454A138801339BB20133138008E09B
:1030A00012029A1891B2404A138801339BB201333D
:1030B00013803D4A93791B02D07902001A43521AB9
:1030C00092B203438024240218002040234220D0DF
:1030D0000BB2002B1DDB13B2002B1ADB324C237A10
:1030E00002252B4323721EE02F4E74881419A4B2BC
:1030F0002000FFF7D7FA05000134A0B2FFF7D2FA9B
:103100002D02A9B280B2091889B233880133338005
:10311000CFE7002802D10BB2002B28DB224C237A08
:103120000225AB432372002802D10BB2002B28DB0F
:1031300009B200291FDB13B2002B20DB1A490B7ADE
:10314000012083430B72002A21D117490B7A0420F6
:1031500003430B7213B2002B1FDB13490B7A0820B9
:1031600083430B72104B110A9971DA7170BD13B25F
:10317000002BD3DAB2E713B2002BDCDA01E000282F
:10318000DCD109490B7A012003430B72DBE70649C6
:103190000B7A042083430B72DCE703490B7A082087
:1031A00003430B72DEE7C046C431012010B51F4C4B
:1031B000A088013080B2A080FFF774FA2072A08846
:1031C000013080B2A080FFF76DFAE071A088013075
:1031D00080B2A080FFF766FAA071A088013080B2AB
:1031E000A080FFF75FFA80B200026080A088013003
:1031F00080B2A080FFF756FA80B2638818436080DF
:10320000A088013080B2A080FFF74CFA80B20002A3
:103210002080A088013080B2A080FFF743FA80B2FE
:10322000238818430138208010BDC046C4310120D6
:1032300010B50B4CA088013080B2A080FFF732FAA5
:1032400080B200022080A088013080B2A080FFF709
:1032500029FA80B2238818430138208010BDC04667
:10326000C431012070B5EC2846D011D8CC2824D028
:10327000DC282AD195B22800FFF714FA2E4CA07151
:10328000681CFFF70FFAE0712388013323801CE0EC
:10329000FC281AD11202D21894B22000FFF702FAC9
:1032A000254DA8710134A0B2FFF7FCF9E8712B8815
:1032B00001339BB201332B8007E01F498A71CB7128
:1032C0000B8801339BB201330B801B490A7A02231E
:1032D0009A438B791B02C9790B4321D104210A43FC
:1032E00015490A728022120213421ED0124A137A22
:1032F00008210B43137270BD0F4D688894B21018EB
:1033000080B2FFF7CFF9A8716888201880B2013029
:1033100080B2FFF7C7F9E8712B8801332B80D4E71F
:1033200004218A4304490A72DCE7034A137A08211C
:103330008B431372DFE7C046C431012070B5C92842
:1033400000D18AE022D8A92800D17AE010D9B92882
:1033500040D1120290B2C01880B2FFF7A3F9020068
:1033600069490B8801339BB201330B80063131E090
:1033700089282AD099282DD190B2FFF793F902001D
:1033800061490B8801330B80063123E0E9286AD0BC
:10339000F9280ED1120290B2C01880B2FFF782F95C
:1033A000020059490B8801339BB201330B8007316E
:1033B00010E0D9280ED190B2FFF774F902005249FB
:1033C0000B8801330B80073104E04F490B88013330
:1033D0000B80063108784C4B1C7A012323409B1844
:1033E000DBB21B18DBB20B7044B2002C47DB002CA5
:1033F00001DB15064ED4444D2B7A0226B3432B72C3
:103400000B78002B4AD1404D2B7A042633432B7284
:103410000023CB56002B47DB3B4D2B7A0826B343CA
:103420002B72002C46DB130647D40023CB56002B0F
:1034300001DB002C45DB344C237A0125AB4323729E
:1034400044E0314C6088801880B2FFF72BF902000D
:10345000238801332380A11DBCE72B490B8801334E
:103460000B800731B6E7284C6088801880B2FFF7E0
:1034700019F90200238801332380E11DAAE715060C
:10348000B5D45DB2002DB2DB1F4D2B7A022633433B
:103490002B72B5E75BB2002BADDAF5E71A4D2B7A4C
:1034A0000426B3432B72B3E7174D2B7A0826334318
:1034B0002B72B6E71306B6D503E00023CB56002BDC
:1034C000B3DB114C237A01252B43237208231C0004
:1034D0000440034201D0130709D4130702D50B7827
:1034E0001B0704D50B781B0707D4002C05D0064A10
:1034F000137A20210B43137270BD034A137A2021E3
:103500008B431372F8E7C046C431012070B5BB2865
:1035100000D17FE014D9EB2800D190E02BD9FB2813
:103520003AD1120290B2C01880B2FFF7BBF8020085
:1035300069490B8801339BB201330B8007312BE0C3
:103540009B285DD00DD9AB2826D1634C60888018AC
:1035500080B2FFF7A7F80200238801332380A11D62
:103560001AE01B2815D08B2816D15B490B88013334
:103570000B80063110E0CB285BD0DB280CD190B259
:10358000FFF790F8020054490B8801330B80073194
:1035900002E05149CA79063108781318DBB20B7082
:1035A00044B2002C57DB002C04DB150602D45BB2BE
:1035B000002B55DB484D2B7A0226B3432B720B7838
:1035C000002B53D1444D2B7A042633432B72002316
:1035D000CB56002B50DB404D2B7A0826B3432B7281
:1035E000002C4FDB130650D40023CB56002B01DBFD
:1035F000002C4EDB384C237A0125AB4323724DE07F
:1036000090B2FFF74FF8020033490B8801330B806B
:103610000631C1E7120290B2C01880B2FFF742F83B
:1036200002002D490B8801339BB201330B80063118
:10363000B2E729490B8801330B800731ACE7264CF0
:103640006088801880B2FFF72DF8020023880133CC
:103650002380E11DA0E71506A5D55DB2002DA2DBF4
:103660001D4D2B7A022633432B72A8E71A4D2B7A75
:103670000426B3432B72AAE7174D2B7A082633434F
:103680002B72ADE71306ADD503E00023CB56002B1C
:10369000AADB114C237A01252B43237208231C003B
:1036A0000440034201D0130709D4130702D50B7855
:1036B0001B0704D50B781B0707D4002C05D0064A3E
:1036C000137A20210B43137270BD034A137A202111
:1036D0008B431372F8E7C046C431012010B5C628E9
:1036E00000D169E021D8A6285AD010D9B62840D1F7
:1036F000120290B2C01880B2FEF7D4FF02003D4C17
:10370000238801339BB201332380063431E08628BD
:103710002AD096282DD190B2FEF7C4FF0200354C76
:10372000238801332380063423E0E6284AD0F62894
:103730000ED1120290B2C01880B2FEF7B3FF0200A1
:103740002C4C238801339BB201332380073410E0D3
:10375000D6280ED190B2FEF7A5FF0200254C238893
:1037600001332380073404E0224C23880133238073
:10377000063420490B7A022083430B722270002A00
:103780002CD10A000B7A04210B4313720023E35659
:10379000002B29DB174A137A08218B43137210BDC3
:1037A000144C6088801880B2FEF77CFF02002388EA
:1037B000013323800634DCE70E4C23880133238059
:1037C0000734D6E70B4C6088801880B2FEF76AFF9A
:1037D00002002388013323800734CAE7054A137A9D
:1037E00004218B431372D1E7024A137A08210B4359
:1037F0001372D4E7C431012070B5C12800D17EE036
:1038000021D8A1286FD010D9B12840D1120290B28E
:10381000C01880B2FEF746FF020055490B880133FD
:103820009BB201330B80063131E081282AD09128E8
:103830002DD190B2FEF736FF02004D490B880133BF
:103840000B80063123E0E1285FD0F1280ED112026F
:1038500090B2C01880B2FEF725FF020044490B88E1
:1038600001339BB201330B80073110E0D1280ED118
:1038700090B2FEF717FF02003D490B8801330B8021
:10388000073104E03A490B8801330B8006310C788C
:10389000A31ADBB264B2002C43DB002C01DB11065F
:1038A0004AD43348017A0225A9430172002B47D13B
:1038B0002F48017A0425294301725BB2002B45DBB6
:1038C0002B49087A0825A8430872002C01DB110651
:1038D00047D4120640D4002B41DB254A137A01213C
:1038E0008B43137242E0224C6088801880B2FEF74E
:1038F000D9FE0200238801332380A11DC7E71C499C
:103900000B8801330B800731C1E7194C60888018A0
:1039100080B2FEF7C7FE0200238801332380E11D39
:10392000B5E71106B9D459B20029B6DB1048017ABF
:10393000022529430172B9E759B20029B1DAF5E746
:103940000B48017A0425A9430172B6E70848017AB9
:10395000082529430172B8E7002BBCDA01E0002CEE
:10396000BBDB034A137A01210B43137270BDC046BF
:10397000C431012070B5C22800D18AE022D8A22823
:1039800000D17AE010D9B22840D1120290B2C0180A
:1039900080B2FEF787FE02005B490B8801339BB2C1
:1039A00001330B80063131E082282AD092282DD1B4
:1039B00090B2FEF777FE020053490B8801330B806B
:1039C000063123E0E2286AD0F2280ED1120290B22A
:1039D000C01880B2FEF766FE02004B490B88013327
:1039E0009BB201330B80073110E0D2280ED190B288
:1039F000FEF758FE020044490B8801330B80073163
:103A000004E041490B8801330B80063108783E4BB6
:103A10001C7A012323409B18DBB2C31ADBB20B7064
:103A200040B2002847DB002801DB14064ED4364C98
:103A3000237A0225AB4323720B78002B4AD1324CF8
:103A4000237A04252B4323720023CB56002B47DB1C
:103A50002D4C237A0825AB432372002801DB130683
:103A60004BD4130642D40023CB56002B43DB264A0B
:103A7000137A01218B43137244E0234C6088801831
:103A800080B2FEF70FFE0200238801332380A11DC0
:103A9000BCE71D490B8801330B800731B6E71A4C90
:103AA0006088801880B2FEF7FDFD02002388013394
:103AB0002380E11DAAE71406B5D45CB2002CB2DB6A
:103AC000114C237A02252B432372B5E75BB2002BFE
:103AD000ADDAF5E70C4C237A0425AB432372B3E748
:103AE000094C237A08252B432372B6E70023CB56D3
:103AF000002BB8DA01E00028B9DB034A137A012170
:103B00000B43137270BDC046C431012070B5C0288C
:103B100000D183E021D8A02874D010D9B02840D19A
:103B2000120290B2C01880B2FEF7BCFD02005849E4
:103B30000B8801339BB201330B80063131E08028C2
:103B40002AD090282DD190B2FEF7ACFD020050494A
:103B50000B8801330B80063123E0E02864D0F02885
:103B60000ED1120290B2C01880B2FEF79BFD020087
:103B700047490B8801339BB201330B80073110E0BA
:103B8000D0280ED190B2FEF78DFD020040490B887F
:103B900001330B80073104E03D490B8801330B8072
:103BA00006310B78981AC0B208705BB2002B47DB65
:103BB000002B01DB14064ED4354C207A0225A84395
:103BC0002072087800284AD1314C207A04252843F5
:103BD000207200200856002847DB2D4C207A08254B
:103BE000A8432072002B01DB10064BD4120642D4EE
:103BF00000228A56002A43DB254A137A01218B438F
:103C0000137244E0224C6088801880B2FEF74AFDAF
:103C10000200238801332380A11DC2E71C490B88C1
:103C200001330B800731BCE7194C6088801880B2E3
:103C3000FEF738FD0200238801332380E11DB0E741
:103C40001406B5D444B2002CB2DB114C207A022504
:103C500028432072B5E740B20028ADDAF5E70C4CF6
:103C6000207A0425A8432072B3E7094C207A08255E
:103C700028432072B6E700228A56002AB8DA01E00B
:103C8000002BB9DB024A137A01210B43137270BD7A
:103C9000C431012003B2002B10DB8023DB019842EA
:103CA0002DD203001A4AD35C1B021A4A90422AD82A
:103CB0000130174A105CC01880B27047C0231B0245
:103CC00098420FD9144BC318144AD35C1B02144AF0
:103CD00090420DD9134A94466044104A105CC018B3
:103CE00080B2EAE7104B1A680B4BC3189B18EBE73E
:103CF0000C4A944660440C4A12688018EDE70B4B5E
:103D00001B68C318CEE70130084A12688018D0E754
:103D100040320120FE3F00000080FFFFBC12002067
:103D2000FFBF00000180FFFFC82C0120B02C012044
:103D300070B50024CE2840D021D8AE2800D174E040
:103D40000FD9BE2843D11002C01880B2FFF7A2FFDE
:103D5000040041490B8801339BB201330B800431CD
:103D600035E08E2856D09E2831D190B2FFF792FFD1
:103D7000040039490B8801330B80043127E0EE2819
:103D80003CD0FE280DD11002C01880B2FFF782FF90
:103D9000040031490B8801339BB201330B8002319F
:103DA00015E0DE2813D190B2FFF774FF04002A4912
:103DB0000B8801330B80023109E012021A43140010
:103DC00025490B8801339BB201330B8002310C80F3
:103DD000214A137A0220834313720A88002A30D1C1
:103DE000042213431C4A137200228B5E002B2DDB2E
:103DF000194A137A08218B43137270BD164D6888D7
:103E0000801880B2FFF746FF04002B8801332B8017
:103E1000A91CDCE712021A4314000F490B88013376
:103E20009BB201330B800431D1E70B4D68888018B9
:103E300080B2FFF72FFF04002B8801332B80291D50
:103E4000C5E704229343044A1372CDE7024A137A6A
:103E500008210B431372D0E7C431012070B5040070
:103E60000D000600C1235B0098420DD2023B984230
:103E700057D2172840D803B2002B3DD017283BD883
:103E80008300334AD3589F46C0239B00984226D0D4
:103E90000FD9E0239B0098423FD01DD9F0239B000F
:103EA00098423AD02033984220D0403B98421DD0CF
:103EB00022E0803B98422CD04033984203D104202A
:103EC000FCF7C6FA18E0013BFF3B984214D102F020
:103ED000DDFBFDF79DF81BE0403B984203D120003D
:103EE000FDF7E0F814E02033984205D12000FDF7FB
:103EF000ABF80DE0174B197023B2002B08DB8023C1
:103F0000DB019C4202D3144B1E68A619134B9D552E
:103F100070BD0420FCF776FAEEE72000FDF782F88A
:103F2000EAE7FDF7A9FAF3E7FDF776F9E4E7080019
:103F3000FDF7FAFBECE70800FDF77CFCE8E708007A
:103F4000FDF7F0FCE4E70800FDF71EFCE0E7C046E3
:103F5000543E01105E2D0120B02C01204032012082
:103F6000F8B515000024622819D0722827D01F4AFE
:103F7000138801339BB201331380137A02229343D7
:103F800062B2002A26DB08229343184A1372002CDF
:103F900025D1164A137A04210B431372F8BD9EB241
:103FA000124F7888181880B2FEF77CFB0543ECB2FC
:103FB0007888301880B22100FFF750FFD7E79EB213
:103FC0003000FEF76FFB0543ECB221003000FFF735
:103FD00045FFCCE708221343044A1372D7E7034A8C
:103FE000137A04218B431372D8E7C046C4310120F1
:103FF000F8B515000026612819D0712827D01F4A6E
:10400000138801339BB201331380137A0222934346
:1040100072B2002A26DB08229343184A1372002E3C
:1040200025D1164A137A04210B431372F8BD9CB2B2
:10403000124F7888181880B2FEF734FB05402E0026
:104040007888201880B22900FFF708FFD7E79CB2D4
:104050002000FEF727FB05402E0029002000FFF777
:10406000FDFECCE708221343044A1372D7E7034A44
:10407000137A04218B431372D8E7C046C431012060
:10408000F8B515000024652819D0752827D01F4AD7
:10409000138801339BB201331380137A02229343B6
:1040A00062B2002A26DB08229343184A1372002CBE
:1040B00025D1164A137A04210B431372F8BD9EB220
:1040C000124F7888181880B2FEF7ECFA4540ECB22F
:1040D0007888301880B22100FFF7C0FED7E79EB283
:1040E0003000FEF7DFFA4540ECB221003000FFF768
:1040F000B5FECCE708221343044A1372D7E7034AFC
:10410000137A04218B431372D8E7C046C4310120CF
:1041100010B537280CD03C2812D0362800D010BD5E
:104120000F4B9888421E9A809979FFF797FEF6E721
:104130000B4B9888421E9A80D979FFF78FFEEEE7E5
:10414000074CA088431EA380A178FFF787FEA088B4
:10415000431EA3806188090AFFF780FEDFE7C0469F
:10416000C431012010B5010000200024D72945D01A
:104170002CD8A72939D0B7290AD112021A43100026
:104180002C4A9479138801339BB20133138007E0E2
:10419000972905D190B2274B9C791A8801321A8051
:1041A0002100FFF75BFE234B1B7A02229343002C76
:1041B00034D1042213431F4A137264B2002C32DB41
:1041C0001C4A137A08218B43137210BDE7291CD0B7
:1041D000F729E5D112021A431000164AD479138840
:1041E00001339BB201331380DAE7124B5888101861
:1041F00080B29C791A8801321A80D1E790B20D4BB7
:10420000DC791A8801321A80CAE70A4B58881018DC
:1042100080B2DC791A8801321A80C1E70422934304
:10422000044A1372C9E7034A137A08210B43137235
:10423000CBE7C046C431012070B5244CA088431E92
:10424000A38021780131C9B2FFF708FEA088431E80
:10425000A380218801310912C9B2FFF7FFFDA088B0
:10426000431EA380A178FFF7F9FDA088431EA38019
:104270006188090AFFF7F2FDA088431EA380A17997
:10428000FFF7ECFDA088431EA380E179FFF7E6FD70
:10429000A088431EA380217AFFF7E0FD237A102235
:1042A000134323720A48FEF7FDF905000948FEF79B
:1042B000F9F9ADB22D02ADB22D18ADB2013D258098
:1042C000054A13680133136070BDC046C431012034
:1042D000FAFF0000FBFF00004433022070B5224CBF
:1042E000A088431EA38021780131C9B2FFF7B6FD33
:1042F000A088431EA380218801310912C9B2FFF7AB
:10430000ADFDA088431EA380A178FFF7A7FDA0887C
:10431000431EA3806188090AFFF7A0FDA088431E01
:10432000A380A179FFF79AFDA088431EA380E179BD
:10433000FFF794FDA088431EA380217AFFF78EFD2E
:10434000237A1022134323720848FEF7ABF90500C5
:104350000748FEF7A7F9ADB22D02ADB22D18ADB2E8
:10436000013D258070BDC046C4310120EEFF000034
:10437000EFFF000070B5AD283BD01CD88D2853D07E
:104380009D2850D190B2FFF785FC013885B2384C9A
:104390002188013189B22180A088431EA380C9B23F
:1043A000FFF75CFDA088431EA3802188090AFFF760
:1043B00055FD258037E0BD2835D112021343013B5E
:1043C0009CB22B4D2988013189B2013189B201316A
:1043D00089B22980A888431EAB80C9B2FFF73EFD91
:1043E000A888431EAB802988090AFFF737FD2C8077
:1043F00019E01F4C6088121892B2013A95B22188D8
:10440000013189B2013189B22180A088431EA38085
:10441000C9B2FFF723FDA088431EA3802188090AA3
:10442000FFF71CFD258070BD114B198853B2002B7E
:1044300019DB92B28A1892B2013294B2013189B278
:10444000013189B20A4D2980A888431EAB80C9B2C8
:10445000FFF704FDA888431EAB802988090AFFF7EF
:10446000FDFC2C80DFE7013AFF3A92B2E2E7C0465A
:10447000C431012070B504000B00090ADDB2FFF75A
:10448000EDFC0134A0B22900FFF7E8FC70BD00008C
:1044900010B5010000200024EF292BD0FF291ED0E9
:1044A000DF2915D02100FFF7E5FF1C4B1B7A022204
:1044B0009343002C26D104221343184A137224B2CA
:1044C000002C24DB154A137A08218B43137210BD8C
:1044D00090B2124B5C881A8801321A80E2E712020D
:1044E0001A4310000D4A5488138801339BB20133DC
:1044F0001380D7E7094B5C88121990B21A880132F1
:104500001A80CFE704229343044A1372D7E7034A81
:10451000137A08210B431372D9E7C046C431012036
:1045200010B5010000200024AF292BD0BF291ED0D8
:104530009F2915D02100FFF79DFF1C4B1B7A0222FB
:104540009343002C27D104221343184A137224B238
:10455000002C25DB154A137A08218B43137210BDFA
:1045600090B2124B9C881A8801321A80E2E712023C
:104570001A4310000D4A9488138801339BB201330B
:104580001380D7E7094B5888101880B29C881A8886
:1045900001321A80CEE704229343044A1372D6E70D
:1045A000024A137A08210B431372D8E7C431012061
:1045B00010B5010000200024ED2931D0FD2921D0C3
:1045C000DD2915D02100FFF755FF214B1B7A022270
:1045D0009343002C30D1042213431D4A137224B29A
:1045E000002C2EDB1A4A137A08218B43137210BD5C
:1045F00090B2174B9C792402DA7914431A8801325D
:104600001A80DFE712021A431000114A947924023B
:10461000D3791C43138801339BB201331380D1E754
:104620000B4B5888101880B29C792402DA79144315
:104630001A8801321A80C5E704229343044A137290
:10464000CDE7034A137A08210B431372CFE7C04624
:10465000C4310120002300E00133022B08D81A01E5
:104660000449525A8242F7D11B01CB1801225A60E9
:104670007047C046E8090020F8B5002706E0390178
:10468000314A52185268002A1BD10137022F5AD8DA
:1046900039012D4A52189268002A03D02B4A127A07
:1046A000D306F2D43901284A5218D268002AE6D03B
:1046B000274A1268002AE2D0234A5218002151608A
:1046C000E3E7214E0F00731800225A601F4CA088A8
:1046D000431EA3802178FFF7C1FBA088431EA3805F
:1046E0002188090AFFF7BAFBA088431EA380A1789E
:1046F000FFF7B4FBA088431EA3806188090AFFF777
:10470000ADFBA088431EA380A179FFF7A7FBA0887B
:10471000431EA380E179FFF7A1FBA088431EA3807D
:10472000217AFFF79BFBB85BFDF7BCFF0502B85B86
:10473000013080B2FDF7B6FF00B228432080237A13
:10474000102213432372F8BDE8090020C431012070
:10475000740A002010B50B4A138801339BB21380F2
:10476000094A1288934200D010BD084A13784021AC
:104770000B43DBB213701B07F6D50548FFF76AFF42
:10478000F2E7C046542D0120522D01205E2D01205C
:10479000F4FF000010B50C4A138801339BB213805C
:1047A000002B08D1094A138801339BB21380802261
:1047B000D200934200D010BD044B00221A8004485E
:1047C000FFF748FFF7E7C0464E2D0120502D01208E
:1047D000FCFF0000F8B503F071F804000D00244B55
:1047E0001B68002B07D0234B1A685B68801A99411D
:1047F0000A1E27D123D0204B1A685B6820002900AD
:10480000801A99410600002903D117D11B498E4215
:1048100014D91A48002112184B4117490A604B60FD
:10482000144B1A685B6820002900801A99410A1EFF
:1048300016D112D00E4A136801331360F8BD104B25
:104840009842D8D90B4B1C605D600E48FFF702FF01
:10485000074A1368013B1360CDE7094B9842E9D939
:10486000044B1C605D600748FFF7F4FEE6E7C046B6
:10487000982C0120F82101200022012040420F0045
:10488000400D0300FCFF000010B50023FF2B04DCEB
:10489000174A2021D1540133F8E7154A0021D15499
:1048A000144B1B68002B0FD0012B17D01248FDF7BB
:1048B000F9FE04021148FDF7F5FE00B22043104B4B
:1048C0001880F1221A7210BD0E4B10221A600E4B86
:1048D00010321A600D4B0E4A1A60E7E7094B14229A
:1048E0001A60094B3C321A60084B0A4A1A60DDE72D
:1048F00048330220700A0020FEFF0000FFFF000086
:10490000C43101201C0A0020180A0020DC310120DB
:10491000C0120120200A0020054B064A12681A75B1
:104920005A7D02218A435A75034B00221A80704730
:1049300040320120BC1201204C2D012070B5214CC9
:104940002088FDF7AFFE204D28702088013080B20E
:10495000FDF7A8FE06002088023080B2FDF7A2FE17
:1049600003001A4A002111602188194A1160287831
:104970008100184A8D5832002100A847238801334E
:104980002380FFF7E7FEFFF7E5FEFFF7E3FEFFF703
:10499000E1FEFFF7DFFEFFF7DDFEFFF7DBFEFFF7CF
:1049A000D9FEFFF7D7FEFFF7D5FEFFF7D3FEFFF7DF
:1049B000D1FEFFF7EFFEFFF75FFEFCF759FCFFF7B4
:1049C00009FF70BDC431012041330220443302206D
:1049D0004C340220780E002010B582B01D4A1368B6
:1049E000013313601C4B9B69DB0614D51B4A13680B
:1049F000013313600FE0184B9B69DB06FBD4164BA9
:104A00001B680B7001320131002AF4D06B4607336A
:104A10001B78002B09D1104B9B6910210A001A400A
:104A200019420DD16B46D91DEEE70D4C22680D4998
:104A30008B54206801300C4905F080F82160EAE7CA
:104A4000054B9B69DB0603D4084A136801331360E6
:104A500002B010BDD82B012000800340DC2B0120C8
:104A6000E02B01206063022088130000D42B01207A
:104A70000120704770470000014B00221A60704708
:104A8000E82C01207047000010B50449044801F0EB
:104A900063FC002800D0012010BDC046D4400110A6
:104AA0003C78022010B50449044801F055FC002868
:104AB00000D0012010BDC046E44001103C78022027
:104AC000F0B5C64600B594B0654B1B68002B10D1FD
:104AD000A1339846624B5F680023624A137005AAAF
:104AE000137001AB10223900404601F023FD3D0058
:104AF00021E0A3239846EDE705AC2B0022005A499C
:104B00000AA804F0C3FF0AA956480AF0C7F8002310
:104B1000237001AB10222900404601F00BFD10E08C
:104B200005A80AF02FF905AB9C46604402224F49C4
:104B300006F06AF801353B007F33AB4225DB2B07DB
:104B4000DAD0EB171B0FEA180F241440E41A01AE59
:104B5000325D47490AA804F099FF0AA941480AF0C2
:104B60009DF8325D434B9B5C68218B43D8D06B46EC
:104B700040395B181A7000236A46013152181370CD
:104B80000AA905A80AF08AF8D4E7364C20000AF0F2
:104B9000F9F820180322384906F036F805A9200054
:104BA0000AF07CF8354B1A68354B1968354D2300EF
:104BB000280004F06BFF28000AF0E4F80200324BF2
:104BC0001860324C3249200004F060FF00232000BE
:104BD00015E06B46DA1C1470002108E02D4B9B6930
:104BE0009B06FBD414782B4B1C6001310132002949
:104BF000F4D003780D3B5A425341DBB201300478C4
:104C0000002C29D0002BE4D1234B02229B5EA3422F
:104C100004D06B46DA1C1470002116E06B46DA1CD7
:104C20000D231370002104E015781A4B1D6001312B
:104C300001320029EDD1174B9B699B06FBD4F3E7AA
:104C40001478144B1C60013101320029D1D1114B71
:104C50009B699B06FBD4F3E714B004BC9046F0BDFF
:104C6000E080022008400220FC40011014410110A5
:104C70000C410110616401103C4C011040270120DF
:104C80001C130120EC4B0220942C012018800220E0
:104C900018410110008003400881022070B52248AD
:104CA000002102F043FD0221082001F0D9FE02217B
:104CB000092001F0D5FEE1211C4D4902280001F038
:104CC000DFFF2A6BC0231B021A4080246401184BAB
:104CD00023431A60EA6A10263240164B23431A60B7
:104CE0001549152003F09CFB0121152003F080FBE2
:104CF000AE636A6B38231340104A14432360104894
:104D000006F0EAF806F0D8F80220FBF7A1FB6420D1
:104D100002F038FD0220FBF775FB0023094A1370EF
:104D2000094A136070BDC04640420F000080034036
:104D3000308003402C800340D94900103480034068
:104D40002C4101103C780220D02B0120F0B5CE463A
:104D5000474680B585B00500002301AA13703A4A82
:104D60001370C31D394AD356002B0ADB364C200082
:104D70000AF008F820180222354905F045FF0524FD
:104D80002EE0314C200009F0FDFF201802223149AD
:104D900005F03AFFF3E767192C4B9946DA5D1209E3
:104DA0002D4B9846190001A804F070FE264E01A96B
:104DB000300009F073FF300009F0E4FF30180222E0
:104DC000264905F021FF4B46DB5D0F221A40414684
:104DD00001A804F05BFE01A9300009F05FFF013C6F
:104DE000002C0DDB052CD6D06319184AD25C1C4967
:104DF00001A804F04BFE01A9134809F04FFFEEE7AC
:104E0000114C200009F0BEFF20180322154905F0BF
:104E1000FBFE06350D4B5A57002A0EDB104901A840
:104E200004F034FE084C01A9200009F037FF2000EF
:104E300005B00CBC90469946F0BD52420A4901A803
:104E400004F024FEEEE7C046C44B022040320120AD
:104E5000104101104441011048410110144101105A
:104E600050410110584101105C41011030B593B020
:104E7000424B00221A70002414E02200404908A886
:104E800004F004FE3D4D08A9280009F007FFE000EA
:104E90003C4B9C466044FFF759FF0100280009F095
:104EA000FDFE0134092CE8DD374B1A68374B1968D1
:104EB000374C384B0493384B039318001638029044
:104EC00018002C380190423B00932C4B200004F03A
:104ED000DDFD200009F056FF0300304A1060304A23
:104EE0001268304C3049200004F0D0FD002320002F
:104EF00027E01F236B4419700022002A1BD12B4985
:104F000089698906FBD41C7828490C600132013379
:104F1000F3E71F236B440D221A70002204E01D7872
:104F2000224C256001320133002A14D11F4CA469A0
:104F3000A406FBD4F3E703780D3B5A425341DBB29E
:104F400001300178002916D0002BD2D1184B022253
:104F50009B5E8B42DDD01F236B4419700022002A18
:104F6000E9D1124989698906FBD41C780F490C6084
:104F700001320133F3E713B030BDC04608400220D0
:104F800064410110FF200000402701201813012078
:104F9000EC4B02203C78022022320120942C01208C
:104FA000302701201880022070410110008003404A
:104FB0000881022070B505000024062C0ED8E300FD
:104FC000074A9958280001F0C7F9002801D1013497
:104FD000F3E7E400024B1C196368984770BDC046B4
:104FE000B014012010B50248FFF7E4FF10BDC04621
:104FF0005034022070B505000024062C0ED8E300C2
:10500000074A9958280001F0A7F9002801D1013476
:10501000F3E7E400024B1C196368984770BDC04673
:10502000E0120120F8B507000E000024B44211DAA6
:10503000094B1D68681CFA21890004F07FFD074BAD
:105040001B68994206D03A5D054B5A55024B1960D0
:105050000134EBE7F8BDC046EC260120F026012024
:10506000D8470220F0B5C64600B50A4D0A4E811950
:105070002B681C1A631C9846084F1A00380005F06C
:10508000C3FD42463900300005F0BEFD2C6004BC73
:105090009046F0BDD02B01203C780220905B02208E
:1050A00070B51B4B18601B4B19601B4B00221A601C
:1050B0001A4B01321A601A4B18601A4B1D68144BB8
:1050C0001A68002A12DD174B196800290EDD1248F4
:1050D0000368154CE65C154CE65401330360013956
:1050E000104B1960013A0A4B1A60E8E70D4B1D603E
:1050F000094B1868FFF7B6FF054B1B68002B05D15D
:10510000064B00221A60034B1B68984770BDC046CF
:10511000F4260120387802208C5B0220042701202D
:105120002C2C0120D02B01203C780220503402206E
:1051300010B5044B1868FFF795FF034B01221A6066
:1051400010BDC046182C0120282C012010B5084B9A
:105150001B68002B07D0074B1868FFF783FF044B31
:1051600000221A6010BD034B1868FFF77BFFF9E7B8
:10517000282C0120182C012010B550210220FCF70A
:10518000ADF80849084801F0E7F8002800D110BD43
:10519000064B1868FFF766FF054B58680549FFF78F
:1051A0007FFFF4E7D44001103C780220182C012046
:1051B000E0800220E54F001010B504006E210120B0
:1051C000FCF78CF82401094804196168084801F0CB
:1051D000C3F8002800D110BD064B1868FFF742FF46
:1051E000054B1A68054B1A60F5E7C046D049011017
:1051F0003C780220182C0120E0800220302701207A
:1052000010B5040069210120FCF768F82401074863
:1052100004196168064801F09FF8002800D110BD0C
:10522000044B1868FFF71EFFF9E7C046D04901108C
:105230003C780220182C012010B563210120FCF7D6
:105240004DF80649064801F087F8002800D110BD46
:10525000044B1868FFF706FFF9E7C04684410110C8
:105260003C780220182C012010B563210120FCF7A6
:1052700035F80649064801F06FF8002800D110BD46
:10528000044B1868FFF7EEFEF9E7C04694410110A1
:105290003C780220182C012010B550210220FCF788
:1052A0001DF80849084801F057F8002800D110BD42
:1052B000064B1868FFF7D6FE054B18680549FFF73F
:1052C000EFFEF4E7A04101103C780220182C0120E9
:1052D000E08002203D5A001030B583B02B4809F021
:1052E00051FD02002A4B18602A4C2B49200004F083
:1052F000CDFB0023200034E06B4607331A700022F8
:1053000004E01C7825490C6001320133002A22D1C7
:10531000224989698906FBD4F3E76B4607330D21DF
:105320001970002104E01D781C4C25600131013307
:10533000002920D1194CA469A406FBD4F3E71C78FA
:1053400016490C6001320133002A04D113498969DE
:105350008906FBD4F3E703780D3B5A425341DBB295
:1053600001300278002A0BD0002BC5D10C4B022152
:105370005B5E9342D1D06B4607331A700022E3E79D
:10538000084B01321A6003B030BDC046EC4B02201E
:10539000942C012018800220B041011000800340AD
:1053A00008810220E82C012010B51C220349044882
:1053B00005F02AFCFFF790FF10BDC046C441011064
:1053C000EC4B022010B5064B5A681B680549CA54BD
:1053D0000549064804F05AFBFFF77EFF10BDC046A2
:1053E000E080022040320120E0410110EC4B02201D
:1053F000F0B5C64600B594B03F4B1B68002B10D1EA
:10540000A13398463C4B5F6800233C4A137005AAC1
:10541000137001AB10223900404601F08BF83D00BB
:1054200021E0A3239846EDE705AC2B002200344988
:105430000AA804F02BFB0AA9304809F02FFC00232E
:10544000237001AB10222900404601F073F810E0F0
:1054500005A809F097FC05AB9C4660440222294947
:1054600005F0D2FB01353B007F33AB4225DB2B0738
:10547000DAD0EB171B0FEA180F241440E41A01AE20
:10548000325D21490AA804F001FB0AA91B4809F072
:1054900005FC325D1D4B9B5C68218B43D8D06B466D
:1054A00040395B181A7000236A4601315218137094
:1054B0000AA905A809F0F2FBD4E7104C200009F076
:1054C00061FC20180322124905F09EFB05A920006B
:1054D00009F0E4FB200009F055FC201803220D49D7
:1054E00005F092FB21000C4809F044FCFFF7F4FEA4
:1054F00014B004BC9046F0BDE080022008400220B9
:10550000F4410110144101100C41011061640110BB
:105510003C4C011088440110EC4B022000B585B0D2
:10552000094B1A00163A0949029119002C310191D0
:105530001900163100910649064804F0A7FAFFF752
:10554000CBFE05B000BDC046F63101203C780220FC
:1055500000420110EC4B022030B583B0294809F01D
:1055600011FC0200284B1860284C2949200004F047
:105570008DFA0023200034E06B4607331A700022B6
:1055800004E01C7823490C6001320133002A22D147
:10559000204989698906FBD4F3E76B4607330D215F
:1055A0001970002104E01D781A4C25600131013387
:1055B000002920D1174CA469A406FBD4F3E71C787A
:1055C00014490C6001320133002A04D11149896960
:1055D0008906FBD4F3E703780D3B5A425341DBB213
:1055E00001300278002A0BD0002BC5D10A4B0221D2
:1055F0005B5E9342D1D06B4607331A700022E3E71B
:1056000003B030BDEC4B0220942C01201880022006
:1056100018410110008003400881022000B583B0CA
:10562000094A53681068094A1354094A126809491B
:10563000096801900093084B084804F027FAFFF727
:105640008BFF03B000BDC046E08002204032012045
:1056500040270120201301201C420110EC4B0220A6
:1056600010B584B00F4B03AA996811701B68002B0A
:1056700016D1A1200B4C03AB0122616800F073FF2F
:10568000094B1A68094B196863680193A368009372
:10569000074B084804F0FAF9FFF75EFF04B010BDAD
:1056A000A320E7E7E080022040270120201301200B
:1056B00024420110EC4B0220F0B593B006000F001D
:1056C00000232D4A137003AA1370040019E003ADE0
:1056D00000943B002A00294908A804F0D7F908A93A
:1056E000254809F0DBFA00232B7010E003A809F02D
:1056F00049FB03AB9C4660440222214905F084FA31
:10570000013433007F33A3421FDB2307DFD01D4D5D
:105710002A5D1D4908A804F0B9F908A9164809F03E
:10572000BDFA2A5D194B9B5C68218B43DED06B462A
:1057300048395B181A7000236A46013152181370F9
:1057400008A903A809F0AAFADAE70B4C200009F02F
:1057500019FB201803220E4905F056FA03A9200070
:1057600009F09CFA200009F00DFB201803220949DA
:1057700005F04AFA13B0F0BD084002202C42011097
:1057800014410110403201200C41011061640110EC
:105790003C4C01108844011010B507490020FFF768
:1057A0008BFF064B1A68064B1968064B064804F037
:1057B0006DF9FFF7D1FE10BD3842011040270120DE
:1057C0001C13012008400220EC4B022010B5084BAE
:1057D00018680849FFF770FF074B1A68074B1968EC
:1057E000074B084804F052F9FFF7B6FE10BDC0465B
:1057F000E080022038420110402701201C130120C4
:1058000008400220EC4B022010B5064B18680649F0
:10581000FFF752FF0549064804F038F9FFF75CFD31
:1058200010BDC046E08002208844011008400220DC
:10583000EC4B02200E4B0F4A116819609188998039
:1058400092799A71002200E0013253000A495B5CB0
:10585000FF2B0AD00949097A0B42F5D05100064BBB
:105860005B185978024B9954EEE701487047C046DF
:105870002413012040420110D8090020C431012026
:1058800070B53F4B1B78002B2ED13E4B1B789B00F5
:105890003D4A9A583D4C3E49200004F0F7F83D4DF2
:1058A0002100280009F066FA04223B49200005F097
:1058B000ABF92100280009F0F1F90024374B1B68EF
:1058C000A34213DD364B1868001980B2FCF7EAFEDC
:1058D00002002E4D3349280004F0D8F829002D4845
:1058E00009F0DCF90134E9E7254AD3E72E4D2A888F
:1058F000264C2E49200004F0C9F8264E2100300025
:1059000009F0CCF9AA882A49200004F0BFF8210048
:10591000300009F0C3F9AA792649200004F0B6F84E
:105920002100300009F0BAF9EA792349200004F097
:10593000ADF82100300009F0B1F9AA79EB791F49DF
:10594000200004F0A3F82100300009F0A7F96A88CC
:105950001B49200004F09AF82100300009F09EF95C
:105960002D7AFFF767FF03002A001649200004F094
:105970008DF82100300009F091F9FFF7ADFC70BD02
:10598000302C012041330220780A002008400220F8
:1059900048420110EC4B02204C42011044330220DB
:1059A0004C34022050420110C431012058420110F1
:1059B00064420110704201107C42011088420110C3
:1059C00098420110A442011010B5094A7323D35C18
:1059D0005B18DC17240F1B190F211940091B054BFD
:1059E0009C46614450547421535C0133535410BDA0
:1059F00040320120B020000010B5034B1868002190
:105A0000FFF7E2FF10BDC046E080022070B506003F
:105A10000D00002404E021000930FFF7D5FF013418
:105A2000AC420ADA305D0A28F9D00D28F7D00428F4
:105A3000F1D02100FFF7C8FFF1E770BD10B50C4BA6
:105A40001B68012B08D0022B0CD0002B00D010BDFE
:105A50000848FFF7CFFAFAE7074B19680548FFF740
:105A6000E1FAF4E7044B19680248FFF7CFFFEEE7CD
:105A7000E8250120503402202C2C012070B50500AF
:105A8000002400E001341F2C19D863001B199B006F
:105A90000B4A9B5C032BF5D163001B199B00D318A9
:105AA0005868290009F022F90028EBD1054B1C6049
:105AB000054B01221A60054A13680133136070BD5B
:105AC000301301203C2D0120402D0120182D0120F4
:105AD00010B5074B01221A6053210020FBF7FEFB93
