:020000041000EA
:1000000000B5324B212058609868022188439860DF
:10001000D860186158612E4B002199600221596106
:100020000121F02299502B49196001219960352056
:1000300000F044F80222904214D00621196600F024
:1000400034F8196E01211966002018661A6600F04E
:100050002CF8196E196E196E052000F02FF8012189
:100060000842F9D1002199601B49196000215960AB
:100070001A491B48016001219960EB211966A021F2
:10008000196600F012F800219960164914480160C1
:100090000121996001BC002800D000471248134993
:1000A000086003C880F30888084703B5996A0420EC
:1000B0000142FBD001200142F8D103BD02B5186610
:1000C0001866FFF7F2FF186E186E02BD00000240BE
:1000D000000000180000070000035F00212200005C
:1000E000F4000018222000A00001001008ED00E03C
:1000F00000000000000000000000000074B24E7A12
:1001000000200420F7010010C3010010C5010010F9
:10011000C1010010C1010010C1010010C101001097
:10012000C1010010C1010010C1010010C701001081
:10013000C1010010C1010010C9010010CB01001065
:10014000CD010010CD010010CD010010CD01001037
:10015000CD010010CD010010CD010010CD01001027
:10016000CD010010CD010010CD010010CD01001017
:10017000CD010010CD010010CD010010CD01001007
:10018000CD010010CD010010CD010010CD010010F7
:10019000CD010010CD010010CD010010CD010010E7
:1001A000CD010010CD010010CD010010CD010010D7
:1001B000CD010010CD010010CD010010CD010010C7
:1001C00000BE00BE00BE00BE00BE00BE00F04BF888
:1001D000103800BEF2EB88714C7801107478011071
:1001E0003402001090A31AE700202149086006C8D5
:1001F00081F3088810471F48006800282FD10DA4FC
:100200000ECC002902D000F012F8F9E71A491B4A77
:10021000002000E001C19142FCD1194988471949E9
:1002200088471949884700BEFDE701C901C29A42C3
:10023000FBD3704774780110C000002030220120E9
:10024000E49902100000042000000420E499021048
:1002500000100420001004200000000070470B482C
:1002600009F0E4FF0047EFF30580C0B270470000DB
:1002700008ED00E0000000D0302201206C8B02204D
:10028000CD8600101D050010E187001057560000B4
:1002900006005250ABB36053886301100600525001
:1002A000861C030298630110060052505422A29D3E
:1002B000A863011005005250DE65F468E49902104D
:1002C000F8B5C0460448054B10B5834203D0044B33
:1002D000002B00D0984710BD302201203022012091
:1002E0000000000006480749091A8B10C90FC918F9
:1002F00010B5491003D0044B002B00D0984710BD17
:1003000030220120302201200000000010B5074CEF
:100310002378002B09D1FFF7D5FF054B002B02D026
:10032000044800E000BF0123237010BD50230120CA
:1003300000000000D8430110054B10B5002B03D07E
:100340000449054800E000BFFFF7CCFF10BDC046E0
:100350000000000054230120D843011001238340F2
:10036000D02212069361936153610022002000E0C5
:100370000132072A0EDCD0231B0680214903996134
:1003800059614000C0B25B689B02F1D5012318435C
:10039000C0B2EDE7704730B501258540D0231B067C
:1003A0009D6100230BE0D02000068024E4018461DD
:1003B0004900D02000068024E404446101339342C4
:1003C00010DAD02000068024E4048461501E0C0062
:1003D00004412000C007E6D5D02000068024E401B7
:1003E0004461E5E7D0231B065D6130BD10B582B0E6
:1003F00001000F4B18880F4B98420DD0014389B272
:100400000B4C218010220F20FFF7C5FF2288094BDB
:100410009A4207D002B010BD00230093009B002B2E
:10042000FCD1EBE700230193019B002BFCD1F1E70A
:10043000A62E01200920000010B582B00E4B984274
:100440000DD00E4C21888143218010220F20FFF710
:10045000A2FF2288084B9A4207D002B010BD0023A9
:100460000093009B002BFCD1EBE700230193019B41
:10047000002BFCD1F1E7C04609200000A62E012088
:1004800010B5174B1B78042B21D010D8012B18D096
:10049000032B1BD106F018FE124B1B68002B15D046
:1004A000104B00221A600E4B04321A700EE0052B1E
:1004B0000CD10D4B1B68002B08D0094B01221A7080
:1004C00004E006F0E9FD064B03221A7010BD06F0A9
:1004D00001FE054B00221A60014B05321A70F5E748
:1004E000C8040020782D01207828012010B500F0E4
:1004F000B7FF05F085FF06F0EDFBFFF7C1FF05F044
:10050000D9FCF4E710B506F08BFC00F0A9FF05F06C
:1005100077FF06F0DFFB05F0CDFC10BD10B51B200A
:1005200006F074FED024240680231B0563626361F9
:100530000D2006F06BFE0E2006F068FE0F2006F080
:1005400065FE162006F062FE152006F05FFE1A20FA
:1005500006F05CFE132006F059FE142006F056FE4D
:10056000122006F053FE002006F050FE012006F097
:100570004DFE022006F04AFE032006F047FE04204E
:1005800006F044FE052006F041FE062006F03EFE81
:10059000072006F03BFE01220021002006F01CFE91
:1005A00001220021012006F017FE01220021022075
:1005B00006F012FE01220021032006F00DFE0122AA
:1005C0000021042006F008FE01220021052006F08B
:1005D00003FE01220021062006F0FEFD012200217B
:1005E000072006F0F9FD0A2006F010FE0B2006F0A9
:1005F0000DFE0C2006F00AFE112006F007FE10206A
:1006000006F004FE00220121102006F0E5FD002284
:100610000121112006F0E0FD8023DB0163628022CE
:100620009201A262636280231B0263628023DB0368
:10063000636280239B03A3628023DB0463628023C5
:100640001B03636280235B0363628022D2026262C7
:100650008022D200626280221201626280225201F4
:10066000626263610120FFF7C1FE0A2007F02EFCE1
:1006700000F08EF800F058F90BF00EF804F0BAF91B
:1006800004F0D0FB14480DF0F7FE06F003FB04F075
:10069000F5F9002402E006F0C3FB01349F2CFADDDB
:1006A0000E4B1B68002B09D00D4B01221A600C4B1E
:1006B0001B68002BFBD101E004F002FA07F0A2FC5A
:1006C000084A002309F048FE1343F5D1064A7C335B
:1006D0000021D154F0E7C046ED0400101C29012090
:1006E00078280120002D3101A033012082B00300C1
:1006F000019064205843002801D00138FBE702B084
:10070000704700B583B080236A461371793B03407C
:10071000502040421843507101AA0221782005F070
:10072000A2FF03B000BD10B582B001AA80211170F4
:10073000030910242343537091700F231840D07085
:100740007C39782005F08FFF02B010BD10B5054B45
:100750001A887F2111401980034B18680822FFF77F
:100760001AFE10BDA82E0120E443011010B5064B5F
:1007700019888022114389B21980044B1868082215
:10078000FFF709FE10BDC046A82E0120E44301106A
:1007900010B5FFF7EBFFFA24E4002000FFF7A6FFF7
:1007A000FFF7D4FF2000FFF7A1FFFFF7DFFF2000D6
:1007B000FFF79CFF05F0BCFE782005F0D1FE8020FD
:1007C00005F0CEFEAE2005F0CBFE802005F0C8FE81
:1007D000D52005F0C5FE802005F0C2FEA02005F062
:1007E000BFFE802005F0BCFEA82005F0B9FE8020E9
:1007F00005F0B6FE1F2005F0B3FE802005F0B0FE28
:10080000D32005F0ADFE802005F0AAFE002005F003
:10081000A7FE802005F0A4FEAD2005F0A1FE8020FB
:1008200005F09EFE8E2005F09BFE802005F098FED0
:10083000D82005F095FE802005F092FE052005F0F9
:100840008FFE802005F08CFEA12005F089FE80201F
:1008500005F086FEC82005F083FE802005F080FEAE
:10086000DA2005F07DFE802005F07AFE122005F0EA
:1008700077FE802005F074FE912005F071FE802047
:1008800005F06EFE3F2005F06BFE802005F068FE4F
:100890003F2005F065FE802005F062FE3F2005F058
:1008A0005FFE802005F05CFE3F2005F059FE8020B1
:1008B00005F056FE812005F053FE802005F050FE25
:1008C000184B187805F04CFE802005F049FED92021
:1008D00005F046FE802005F043FED22005F040FEE4
:1008E000802005F03DFEDB2005F03AFE802005F07B
:1008F00037FE342005F034FE802005F031FEA620BE
:1009000005F02EFE802005F02BFEA42005F028FE29
:10091000802005F025FEAF2005F022FE05F012FE36
:1009200010BDC046C904002070B5002503E005F0E5
:1009300009FE0135EDB2032D16D82800FFF7E1FEC0
:100940000020FFF7F0FE05F0F3FD782005F008FE2B
:10095000402005F005FE0024832CE8D8002005F097
:10096000FFFD0134E4B2F7E770BD02000021002072
:1009700005E04000012313401843521001310729BC
:10098000F7DD704770B515008400041B64007F34E8
:100990000320401AC0B2FFF7B4FEE0B2FFF7C3FE77
:1009A00005F0C6FD782005F0DBFD402005F0D8FD00
:1009B0000024042C0DDCAB005B190421091B5B181F
:1009C000074AD05CFFF7D1FFC0B205F0C9FD013482
:1009D000EFE7002005F0C4FD05F0B4FD70BDC04692
:1009E000CC04002010B500F01BFD10BD70B50E004A
:1009F00014002278002A06D0451C01343100FFF78C
:100A0000F1FF2800F5E770BD30B585B004000D009A
:100A1000054901A809F0DEFB01AA29002000FFF723
:100A2000E5FF05B030BDC046F04301100023024A87
:100A30001360024A13607047882801208C28012027
:100A400070B5002508E0202221002800FFF7CAFF2A
:100A50000134032CF7DD0135142D01DC0024F8E707
:100A6000FFF7E4FF70BD0000064B00221A60064A43
:100A7000136801331360032B02DD130000221A6098
:100A80007047C046882801208C28012070B50400DA
:100A9000094B1968094D02002868FFF7A7FF2000DD
:100AA0000EF0ECFC2B689C4660442860142800DCA7
:100AB00070BDFFF7D9FFFBE78C28012088280120B3
:100AC0007047704770470000024BDA795988521816
:100AD0005A80704724330120054B588899790902C0
:100AE000DA790A435A80020A9A71D8717047C0466F
:100AF00024330120024A5388013B93807047C0464B
:100B000024330120024A9388013353807047C04642
:100B1000243301200F4A9379D371127A02218A4338
:100B2000002B0CD104210A430A490A725BB2002B44
:100B30000ADB084A137A08218B4313727047042199
:100B40008A4304490A72F1E7024A137A08210B43E7
:100B50001372F3E7243301200F4AD3799371127A89
:100B600002218A43002B0CD104210A430A490A724C
:100B70005BB2002B0ADB084A137A08218B431372FD
:100B8000704704218A4304490A72F1E7024A137A42
:100B900008210B431372F3E724330120054A137A2B
:100BA0003F218B431900062010563F2303400B437F
:100BB0001372704724330120014B1A7A9A717047DF
:100BC00024330120024A137A01218B4313727047A8
:100BD00024330120024A137A01210B431372704718
:100BE00024330120024A137A10210B4313727047F9
:100BF00024330120024A137A10218B431372704769
:100C000024330120092802D0342812D070470B4A1F
:100C10005388013B9BB25380002B04D1137A0421EB
:100C20000B431372F2E7054A137A04218B431372C4
:100C3000ECE7024A9388013B9380E7E724330120E5
:100C4000082802D0312812D070470B4A538801334C
:100C50009BB25380002B04D1137A04210B431372EF
:100C6000F2E7054A137A04218B431372ECE7024A38
:100C7000938801339380E7E72433012053B2002B9C
:100C800009DB12B22038C3B20F2B00D989E09800DB
:100C9000594B1B589F46013AFF3AF3E757490B88D7
:100CA0009A1801320A8080E0544B1B7A05211942C0
:100CB00000D076E051490B889A1801320A8074E01E
:100CC0004E4B1B7A052119426BD04C490B889A1860
:100CD00001320A8069E0494B1B7ADB0761D447493E
:100CE0000B889A1801320A805FE0444B1B7ADB07BD
:100CF00057D542490B889A1801320A8055E03F4B7C
:100D00001B7A5B074DD43D490B889A1801320A8043
:100D10004BE03A4B1B7A5B0743D538490B889A184E
:100D200001320A8041E0354B1B7A9B0739D43349A5
:100D30000B889A1801320A8037E0304B1B7A9B07E8
:100D40002FD52E490B889A1801320A802DE02B4BA3
:100D50001B7A1B0725D429490B889A1801320A806F
:100D600023E0264B1B7A1B071BD524490B889A18B6
:100D700001320A8019E0214B197A0A230B400A2B11
:100D800001D0002B0DD11D490B889A1801320A8021
:100D90000BE01A4B197A0A230B40022B06D0082BC2
:100DA00004D0164A138801331380704713490B8807
:100DB0009A1801320A80F8E7104B1B7A5907F0D4D1
:100DC0000A210B400A2B01D0002BEAD10B490B88DA
:100DD0009A1801320A80E8E7084B1B7A590705D4B4
:100DE0000A210B40082B01D0022BDAD103490B88D2
:100DF0009A1801320A80D8E7F84301102433012001
:100E000010B5224B9A790F201040197A8B0628D5FD
:100E1000931D092800D90633C80700D560339F2BDE
:100E200000DD6033992B03DD012001431748017277
:100E3000190618D51548017A082421430172002BA0
:100E400017D11248017A0424214301725A40120634
:100E500015D50E490A7A022002430A720B4A937191
:100E600010BD1300D5E70948017A0824A143017297
:100E7000E5E70648017A0424A1430172E6E7034945
:100E80000A7A022082430A72E8E7C046243301202E
:100E9000094A9179D3794B43190A9171D3711B0691
:100EA00004D5137A01210B4313727047024A137A57
:100EB00001218B431372F8E72433012030B52C4B0A
:100EC000D9799A79531ADBB252B2002A28DB002A68
:100ED00002DB48B200282FDB254C207A0225A843EC
:100EE0002072002B2CD1224C207A0425284320721A
:100EF0005BB2002B2ADB1E4C207A0825A843207207
:100F0000002A02DB48B200282BDB49B2002923DB90
:100F1000002B24DB164A137A01218B43137225E040
:100F200048B20028D3DB58B20028D0DB104C207A1E
:100F3000022528432072D4E758B20028CCDAF5E71E
:100F40000B4C207A0425A8432072D1E7084C207A64
:100F5000082528432072D3E7002BD9DA01E0002AC4
:100F6000D8DB034A137A01210B43137230BDC0460C
:100F70002433012030B52C48C1798279531ADBB271
:100F8000837152B2002A28DB002A02DB48B2002813
:100F90002FDB254C207A0225A8432072002B2CD170
:100FA000214C207A0425284320725BB2002B2ADBD7
:100FB0001D4C207A0825A8432072002A02DB48B283
:100FC00000282BDB49B2002923DB002B24DB164A47
:100FD000137A01218B43137225E048B20028D3DB3A
:100FE00058B20028D0DB104C207A0225284320720A
:100FF000D4E758B20028CCDAF5E70B4C207A042568
:10100000A8432072D1E7084C207A08252843207293
:10101000D3E7002BD9DA01E0002AD8DB024A137AA1
:1010200001210B43137230BD2433012010B51B4A3C
:1010300093791B02D2791343D2071DD517490A7A37
:10104000012002430A725808144A127AD10719D5AE
:1010500002210A4311490A72002818D10F490A7A5D
:10106000042422430A720D4A117A0824A143117202
:101070005B0A9371D07110BD08490A7A012082433E
:101080000A72E0E702218A4304490A72E4E703494D
:101090000A7A0424A2430A72E5E7C04624330120F9
:1010A00022498A791202CB7913431AB2002A22DB31
:1010B0001E490A7A012082430A725B009BB2002B10
:1010C0001ED11A490A7A042002430A721AB2002A6F
:1010D0001CDB16490A7A082082430A72134A127AE4
:1010E00009211140082917D0012915D002218A436E
:1010F0000E490A7214E00A7A012002430A72DCE700
:101100000A490A7A042082430A72DFE707490A7A09
:10111000082002430A72E1E702210A4303490A72E6
:10112000024A190A9171D3717047C04624330120D5
:101130006E2807D07E2804D112021A43013A054BCB
:101140001A807047034B5988521892B2013A1A809C
:10115000F7E7C04624330120034B1A68012393406C
:10116000D022120693617047EC430110E0239B00EC
:10117000984203D04033984204D07047034B00227A
:101180001A60FAE7014B01221A60F6E7740A0020A0
:10119000E8239B0098420CD04033984211D0803B0A
:1011A000984200D0704700230E4A13600E4A136025
:1011B000F8E70C4A13688021C9018C466344136028
:1011C000F0E7094B1B68002B04D1074B8022120269
:1011D0001A60E7E78022D20194466344024A136012
:1011E000E0E7C0460C2E0120242E012010B5284A2D
:1011F000136801331360C0239B00984207D040332B
:10120000984220D0813BFF3B98423BD010BD214CFF
:1012100000232380204B1A88802111407F22114314
:1012200089B219801D4B18680822FFF7B4F81C48D2
:10123000437D022293431A002188C91202230B40E6
:1012400013434375E2E7134C238801339BB2238099
:10125000114A1088802101407F204340194389B200
:1012600011800E4B18680822FFF795F80C48437D53
:10127000022293431A002188C91202230B40134310
:101280004375C3E705F016FDFFF766FFBEE7C046EE
:101290003C2E0120AA2E0120A82E0120E44301109B
:1012A000A0330120094B1A6801321A601A68084BF2
:1012B0009A420ADD054B00221A60064A1368594219
:1012C0004B411360044B01221A6070477C280120B7
:1012D0009F8601008028012084280120C0235B0014
:1012E000984204D08223FF33984205D07047034BC5
:1012F0001B687F201840F9E70020F7E7442D012004
:10130000044A517C80235B420B435374024B0122FD
:101310001A707047A0330120B81200200E4B1B78C2
:10132000DAB2012B02D0022A0BD070471128FCD16F
:101330000A4B5B7C5BB2002BF7DA074B02221A7078
:10134000F3E71228F1D1044B03221A70034A517CAF
:101350007F230B405374E8E7B8120020A03301202C
:1013600070B50C00132800D070BD0E4B1D68681CB2
:10137000FA21890008F086FF0B4B1B6899420CD0BC
:101380000A4B00221A600A4B5C55064B1960094A49
:10139000537C20210B435374E6E7044B01221A606F
:1013A000E2E7C0463C28012040280120F82D01201A
:1013B000803D0220A033012010B5054B1B68002B97
:1013C00000D110BD034BD97C1320FFF7C9FFF8E70C
:1013D000F82D0120A033012010B5040000230020C7
:1013E00000E001338B4204DAE25C8242F9DD100056
:1013F000F7E710BD70B50022042A0DDC83001B182E
:101400009B18064DEE5C8B005B189B188024644291
:101410003443EC540132EFE770BDC046CC040020E9
:101420000B004900C918CB00591A0918044B1B6856
:101430005B5C0449CA54044B01221A607047C046E1
:101440003C330120A8340220FC280120024B19540F
:10145000024B01221A60704738330120FC2801201A
:10146000F0B583B0052005F015F8534B1B68002B31
:1014700004D1524B1B68002B00D181E000234E4A5F
:1014800013604E4A1360002425E00226FF36310027
:101490002800FFF7AFFF019535000BE0484B1B68B4
:1014A000002B35D00226FF3631002800FFF7A2FFBF
:1014B00001953500434B1F683900200008F0E2FE1B
:1014C00006003900200008F0DDFE08002A00310087
:1014D000FFF758FA01343C4B1B68A34221DB3B4B1E
:1014E0001B681B5D3A4AD55C3A4A12689342E1D1C7
:1014F000394B1B68002BDDD0384B1B68002BCDD03F
:101500002F4B1B68002BC0D0019580256D00D1E7C3
:101510000226FF3631002800FFF76CFF01953500E9
:10152000C8E7002606E02E4B9A5D31001420FFF735
:1015300029FA0136032EF6DD6B1EFF3B012B00D985
:1015400001950198431C274A9918D35C682293435C
:101550001FD0C2B2244B1A550B78682293431AD07D
:101560006B461D791421200008F08CFE0600142122
:10157000200008F087FE162046431C488019455479
:10158000114B1C6822001249194809F0E1FE0023A2
:101590000AE02022DEE72025E4E716215943134A1A
:1015A0005218002151750133032BF6DD0E4B00223A
:1015B0001A5503B0F0BDC046FC2801208428012044
:1015C0004C2D01201C0A0020180A00203C33012069
:1015D000A8340220442D0120502D01208028012014
:1015E00038330120B86C0110C42F01204033012092
:1015F000C02E0120F0B5C64600B5C0235B0098425E
:1016000006D08223FF33984253D004BC9046F0BDED
:101610004BB2002B14DB0B00403BDBB23F2B1AD943
:10162000072923D804293AD2012932D00029ECD045
:101630000239C9B20129E8D84E4B00221A60E4E70A
:101640007F2319404B4B19604B4B01221A604B4BC7
:1016500000221A60D9E73F231940464B1960464BD8
:1016600000221A60454B01321A60CEE70B00083B9E
:10167000DBB2072BC9D88A1001231A404048026008
:101680004A1013403F4A1360012319403E4B196032
:10169000BBE7FFF7D5F9374B00221A60B5E74A10D0
:1016A00001231340394A136001231940384B196054
:1016B000ABE7384B01221A602F4B1B68002B13D06D
:1016C0002C4B1B68344AD154344A012010602F4AF5
:1016D0001268002A18D001229B18264A1360FF2B9B
:1016E00002DD1300FF221A60244B1B68002B00D17F
:1016F0008BE7204B1D68EB175B0FEA180726164097
:10170000F31A9C46002403E001225242E4E701342C
:10171000042C1EDCEA17072313405B19DB109A0028
:10172000D3181B190122904610006246904040B227
:101730001B4FFA5C824352B2FA5404273F1B0E003F
:101740003E41370046463E42E1D002431448C2546F
:10175000DDE70E4B1B68002B09D00123ED18054B6C
:101760001D60502D00DC50E750221A604DE7012328
:101770005B42F3E7442D01205C2D0120582D012010
:1017800000290120502D01204C2D0120482D012041
:10179000542D012084280120A8340220FC28012097
:1017A000CC04002003B2002B0DDB0F4B0122DA60CA
:1017B00018828023DB01984202D30C4B1B68C018AF
:1017C0000B4BC0187047C0231B02984205D9094B28
:1017D0009C466044084BC018F4E7064B9C466044A6
:1017E000064B1B68C018F5E7243301200C2E01209E
:1017F000A03301200080FFFFBC120020242E012016
:10180000002380225200934205DC034AD15C034A44
:10181000D1540133F5E77047A8340220A0330220E9
:10182000002380225200934205DC054AD15C054A20
:10183000D1540133F5E7044BFF3A1A607047C046B4
:10184000A0330220A8340220FC28012010B5002378
:10185000002000E00133072B0EDC40089A000E49FF
:101860005158D02212065268CA40D207F2D58022BF
:1018700052421043C0B2EDE7084B1B68962252005B
:10188000934208DA064A5900E2248C5452185070E8
:101890000133024A136010BD78120020782E012017
:1018A000C830012010B5144B1B6896225200934299
:1018B00008DA124A590012248C545218507001331D
:1018C0000D4A1360002309E09A000D495158012286
:1018D0008A40D02109068A6140080133072B0ADCBF
:1018E000C207F1D59A000649515801228A40D021F9
:1018F00009064A61F0E710BD782E0120C8300120AA
:101900007812002030B583B000230193019C002C95
:10191000FCD1204B1B6896225200934208DA1E4AE3
:101920005900D2258D54521850700133194A136052
:101930000323184003281FD1184B1A680123934032
:10194000D022120653617D30FEF776FD08E0A2003A
:10195000134BD25801239340D02212065362013414
:10196000072CF4DD14E0A2000D4BD2580123934064
:10197000D022120693620134072CF4DD074B1A685B
:1019800001239340D022120693618020FEF754FD7C
:1019900003B030BD782E0120C8300120E84301108B
:1019A00078120020014B18787047C046BB2E0120EA
:1019B00070B50500354B1870354B1B6896225200E8
:1019C000934208DA334A5900162088545218557049
:1019D00001332F4A1360002441E0EB0703D40820B1
:1019E000FEF704FD39E00820FEF726FD35E0EB07A1
:1019F00004D580200001FEF7F9FC2EE080200001D4
:101A0000FEF71AFD29E0EB0704D580204001FEF720
:101A1000EDFC22E080204001FEF70EFD1DE0EB070B
:101A200004D580208001FEF7E1FC16E080208001D3
:101A3000FEF702FD11E0EB0703D51020FEF7D6FC00
:101A40000BE01020FEF7F8FC07E0EA0715D50122AD
:101A50009A401300D022120653616D080134072CFE
:101A600012DCA3000C4A9B58632BEED9643B042B79
:101A7000F3D89B00094AD3589F4601229A4013008D
:101A8000D02212069361E8E770BDC046BB2E01204C
:101A9000782E0120C830012098120020384401100F
:101AA00030B583B000230193019B002BFCD1224A67
:101AB0001268962149008A4208DA20495400D62546
:101AC00065540919487001321B490A6000281CD16D
:101AD0004020FEF7B1FC80252D012800FEF786FC92
:101AE000802464012000FEF781FC80208001FEF745
:101AF0007DFC1020FEF77AFCD0231B069D6180221E
:101B0000D2009A619C6115E00133072B0BDC9A002F
:101B10000B495258632AF7D8012191400A00D0217D
:101B200009064A62F0E74020FEF786FC054B18786C
:101B3000FFF73EFF03B030BD782E0120C8300120F2
:101B400098120020BB2E012070B504000500172854
:101B500009D8032858D3C31E9AB2142A54D8930024
:101B6000534AD3589F46B0239B0098425DD00FD96B
:101B7000E0239B00984254D020D9F0239B00984248
:101B80004FD0203398421FD0403B98421CD03BE0BE
:101B9000013BFF3B98424CD007D9A0239B009842C1
:101BA00032D10420FEF722FC2EE00300813BFF3BF4
:101BB0009BB2012B28D8FFF791FB31E0403B9842C4
:101BC0000AD02033984204D12000FFF7E1FA002028
:101BD00026E0603B984217D12000FFF707FB00206A
:101BE0001EE0344B18781BE0334B1888000A17E0CE
:101BF000314B187814E0314B1888000A10E02F4B55
:101C000018780DE0FFF78AFB23B2002B3FDB80231F
:101C1000DB019C4202D32A4B1D686519294B585D94
:101C200070BD2000FFF7A2FAEEE70420FEF704FCE7
:101C3000EAE705F03FF8FFF78FFA0020F0E7224BC4
:101C40001868FEF78BFB7F235840C0B201229043F7
:101C50007F2303401B4C6375D02212065168490B49
:101C600001220A40D201134302229343174A1188EA
:101C7000C91202220A401343637505F03FFA607DE2
:101C8000CEE7FFF7E3FDCBE7FFF78CFEC8E7C02305
:101C90001B029C4205D90E4B9C4664440D4B185DBB
:101CA000BEE70B4B9C4664440B4B18682418F5E7C1
:101CB0004C440110BC2E0120B22E0120B02E012078
:101CC0000C2E0120A0330120E0430110AA2E012098
:101CD0000080FFFFBC120020242E012010B56D28CB
:101CE0002FD01FD84D2837D05D2800D13149324A36
:101CF000137A02208343013883431372D268002A87
:101D00002CD10A78002A4AD1042213432A4A13729A
:101D10000023CB56002B47DB274A137A08218B433D
:101D2000137210BD7D28E2D11202D21890B2FFF7D3
:101D300039FD0100204A138801339BB2013313801F
:101D4000D5E71D4C6088801880B2FFF72BFD01009D
:101D5000238801332380CAE71849C8E7164C208A34
:101D6000FFF7F2FE0023E36000280CD1124A137A39
:101D700004210B43137203060BD40F4A137A082174
:101D80008B431372CDE70C4A137A04218B431372F1
:101D9000F1E7094A137A08210B431372C1E70422C1
:101DA0009343054A1372B3E7034A137A08210B439E
:101DB0001372B6E72B330120243301202A3301208C
:101DC00010B50200172808D803B2002B19D0172825
:101DD00017D88300424CE3589F46B0239B0098429B
:101DE0005FD018D9E0239B0098425ED029D9F02318
:101DF0009B00984259D02033984228D0403B9842CB
:101E000025D08023DB01984202D3364B1A68821812
:101E1000354B995426E0013BFF3B98424BD007D904
:101E2000A0239B009842ECD10420FEF7DFFA19E0D2
:101E30000300813BFF3B9BB2012BE2D8FFF7DAFBAB
:101E400010E0403B984208D02033984202D1FFF77F
:101E50009FF907E0603B9842D3D1FFF7C7F901E053
:101E6000224B197010BD224A1088FF23034009023B
:101E700019431180F6E71E4B1888FF229043014357
:101E80001980EFE71B4A1088FF230340090219431A
:101E90001180E7E7174B1888FF2290430143198010
:101EA000E0E70420FEF7C8FADCE7FFF75FF9D9E7BF
:101EB000FFF756FAD6E704F0FDFEFFF74DF9D1E73C
:101EC0000800FFF7EFFCCDE70800FFF71BFDC9E7AF
:101ED0000800FFF76DFDC5E70800FFF7E1FDC1E76A
:101EE000A04401100C2E0120A0330120BC2E0120A3
:101EF000B22E0120B02E012070B56A283AD02AD81F
:101F00004A2842D05A2800D1304C2378802B3ED02A
:101F10002F4A137A02218B4313722D4BDB68002B5F
:101F20003BD121780139C9B22170294BDB68002BE4
:101F300038D12378002B3CD1254A137A04210B4356
:101F400013720023E356002B39DB214A137A082150
:101F50008B43137270BD7A28D7D11202D21890B277
:101F6000FFF720FC04001A4A138801339BB20133A7
:101F70001380CAE7164D6888801880B2FFF712FCFC
:101F800004002B8801332B80BFE7124CBDE7104AB9
:101F9000137A02210B431372BFE70D4B188AFFF728
:101FA000D3FDBEE70A4D288AFFF70AFF0023EB6046
:101FB000BFE7074A137A04218B431372C1E7044A2F
:101FC000137A08210B431372C4E7C0462B33012058
:101FD000243301202A33012070B56C283AD02AD846
:101FE0004C2842D05C2800D1304C314BDB68002BB0
:101FF0003DD121780131C9B221702D4BDB68002B16
:102000003AD12378802B3ED0294A137A02218B4380
:1020100013722378002B3CD1254A137A04210B43F9
:1020200013720023E356002B39DB214A137A08216F
:102030008B43137270BD7C28D7D11202D21890B294
:10204000FFF7B0FB04001A4A138801339BB2013337
:102050001380CAE7164D6888801880B2FFF7A2FB8C
:1020600004002B8801332B80BFE7124CBDE7104BD7
:10207000188AFFF769FDBCE70D4D288AFFF7A0FE1F
:102080000023EB60BDE70A4A137A02210B43137267
:10209000BFE7074A137A04218B431372C1E7044A4E
:1020A000137A08210B431372C4E7C0462B33012077
:1020B000243301202A33012010B56F2827D017D8E8
:1020C0004F282FD05F2800D11B491C4BDB68002B09
:1020D0002AD100230B70194A137A02218B4301394C
:1020E0008B4304210B43DBB208218B43137210BDD9
:1020F0007F28EAD11202D21890B2FFF753FB0100F9
:102100000E4A138801339BB201331380DDE70B4C79
:102110006088801880B2FFF745FB010023880133F7
:102120002380D2E70649D0E7044C208A0021FFF73C
:1021300047FE0023E360CEE72B3301202433012048
:102140002A33012070B5602842D032D840284AD0C6
:10215000502800D1374C384BDB68002B45D1217813
:102160004942C9B22170344BDB68002B42D123783D
:10217000802B46D0304A137A02218B431372237886
:10218000002B44D02C4A137A01210B43137223787D
:10219000002B42D1284A137A04210B4313720023E7
:1021A000E356002B3FDB244A137A08218B4313723A
:1021B00070BD7028CFD11202D21890B2FFF7F2FA98
:1021C00004001D4A138801339BB201331380C2E718
:1021D000194D6888801880B2FFF7E4FA04002B8854
:1021E00001332B80B7E7154CB5E7134B188AFFF77F
:1021F000ABFCB4E7104D288AFFF7E2FD0023EB604B
:10220000B5E70D4A137A02210B431372B7E70A4A66
:10221000137A01218B431372B9E7074A137A042119
:102220008B431372BBE7044A137A08210B431372E2
:10223000BEE7C0462B330120243301202A3301207E
:1022400070B5682847D037D848284FD0582800D1D3
:10225000394C0023E356002B4ADB384A137A01211C
:102260008B431372354BDB68002B47D12178490033
:10227000C9B22170314BDB68002B44D12378002B8D
:1022800048D12E4A137A04210B4313720023E356DC
:10229000002B45DB294A137A08218B431372274B05
:1022A0001B7A09221A40082A40D0012A3ED0022275
:1022B0009343224A13723DE07828CAD11202D21801
:1022C00090B2FFF76FFA04001C4A138801339BB2E7
:1022D00001331380BDE7194D6888801880B2FFF77D
:1022E00061FA04002B8801332B80B2E7144CB0E76D
:1022F000124A137A01210B431372B3E70F4B188A6A
:10230000FFF722FCB2E70D4D288AFFF759FD0023A5
:10231000EB60B3E7094A137A04218B431372B5E7E4
:10232000064A137A08210B431372B8E702221343BB
:10233000024A137270BDC0462B33012024330120A2
:102340002A33012070B5632839D029D8432841D0D9
:10235000532800D12C4C2D4BDB68002B3CD121782D
:10236000C943C9B22170294BDB68002B39D1274AF8
:10237000137A02218B4301210B43DBB213722278C3
:10238000002A35D104221343204A13720023E35656
:10239000002B32DB1D4A137A08218B43137270BD68
:1023A0007328D8D11202D21890B2FFF7FBF90400BB
:1023B000164A138801339BB201331380CBE7134DC8
:1023C0006888801880B2FFF7EDF904002B8801338C
:1023D0002B80C0E70E4CBEE70C4B188AFFF7B4FB0E
:1023E000BDE70A4D288AFFF7EBFC0023EB60BEE750
:1023F00004229343054A1372C8E7044A137A08215A
:102400000B431372CBE7C0462B330120243301204A
:102410002A33012070B564283DD02DD8442845D0FA
:10242000542800D1314C2378DB0741D5304A137A48
:1024300001210B4313722E4BDB68002B3ED1217818
:10244000490821702A4BDB68002B3CD1284B1B7AB2
:10245000DA073FD502221343254A13722378002B53
:102460003DD1234A137A04210B431372204A137A75
:1024700008218B43137270BD7428D4D11202D21874
:1024800090B2FFF78FF90400194A138801339BB209
:1024900001331380C7E7164D6888801880B2FFF7B4
:1024A00081F904002B8801332B80BCE7114CBAE77B
:1024B0000F4A137A01218B431372BCE70C4B188A25
:1024C000FFF742FBBBE70A4D288AFFF779FC0023A0
:1024D000EB60BBE702229343054A1372BEE7044A4E
:1024E000137A04218B431372C0E7C0462B330120BB
:1024F000243301202A33012070B5672844D034D812
:1025000047284CD0572800D1354C2378DB0748D5D5
:10251000344A137A01210B431372324BDB68002BD0
:1025200045D123785B08237040221A4202D0C03A7A
:10253000134323702B4BDB68002B3DD12378002BFA
:1025400042D1284A137A04210B431372254B1B7A7C
:102550000822934301321A40082A3BD0012A39D07D
:10256000022293431F4A137238E07728CDD112021A
:10257000D21890B2FFF716F904001A4A13880133F3
:102580009BB201331380C0E7164D6888801880B273
:10259000FFF708F904002B8801332B80B5E7124CB4
:1025A000B3E7104A137A01218B431372B5E70D4B41
:1025B000188AFFF7C9FAB4E721780A4D288AFFF78D
:1025C000FFFB0023EB60B9E7064A137A04218B4333
:1025D0001372BBE702221343024A137270BDC04656
:1025E0002B330120243301202A33012070B56928C0
:1025F0004FD03FD8492857D0592800D13D4C3E4BA9
:102600001B7A01251D400022A256002A4EDB012222
:102610009343394A1372384BDB68002B4BD1237834
:102620005B00DBB22370002D02D001221343237024
:10263000314BDB68002B43D12378002B48D12E4A45
:10264000137A04210B4313720023E356002B45DB5E
:10265000294A137A08218B431372274B1B7A0922CC
:102660001A40082A40D0012A3ED002229343224A2F
:1026700013723DE07928C2D11202D21890B2FFF74E
:1026800091F804001C4A138801339BB20133138074
:10269000B5E7194D6888801880B2FFF783F8040009
:1026A0002B8801332B80AAE7144CA8E7012213439F
:1026B000114A1372AFE7104B188AFFF745FAAEE7DD
:1026C00021780D4D288AFFF77BFB0023EB60B3E7F1
:1026D000094A137A04218B431372B5E7064A137A29
:1026E00008210B431372B8E702221343024A137204
:1026F00070BDC0462B330120243301202A33012032
:1027000070B566284ED03ED8462856D0562800D1FF
:102710003C4C3D4B1B7A012215001D4021780A429A
:102720004DD01343384A1372374BDB68002B4BD123
:1027300023785B082370002D03D08022524213437C
:102740002370314BDB68002B43D12378002B48D119
:102750002D4A137A04210B4313720023E356002BF6
:1027600045DB294A137A08218B431372264B1B7AC7
:1027700009221A40082A40D0012A3ED0022293435F
:10278000214A13723DE07628C3D11202D21890B2CA
:10279000FFF708F804001C4A138801339BB2013389
:1027A0001380B6E7184D6888801880B2FEF7FAFFEC
:1027B00004002B8801332B80ABE7144CA9E70122DE
:1027C0009343114A1372AFE70F4B188AFFF7BCF916
:1027D000AEE721780C4D288AFFF7F2FA0023EB6070
:1027E000B3E7094A137A04218B431372B5E7064A0B
:1027F000137A08210B431372B8E702221343024AEB
:10280000137270BD2B330120243301202A330120A1
:1028100070B504000500E0235B0098425DD014D839
:10282000172809D8032837D3C31E9AB2142A33D8DD
:1028300093004A4AD3589F460300813BFF3B9BB21B
:10284000012B29D8FEF74AFD32E0D0239B009842A5
:1028500017D010D9E8239B00984207D029D9F0233C
:102860009B0098422BD02033984215D12000FEF7D0
:102870008FFC00201CE0803B984227D040339842D8
:1028800004D12000FEF7B2FC002011E0803B98420A
:1028900002D10420FDF7AAFD23B2002B4CDB8023DC
:1028A000DB019C4202D32E4B1D6865192D4B585DF0
:1028B00070BD403B9842D9D020339842ECD12000E3
:1028C000FEF754FCE8E7284B1878F1E70420FDF701
:1028D000B3FDE1E7FEF722FDDEE704F0EBF9FEF7DA
:1028E0003BFC0020E4E7214B1868FDF737FD7F2310
:1028F0005840C0B20123984303007F201840194C70
:102900006075D0231B065A68520B01231340DB016C
:10291000184302239843164B1A88D21202231340FD
:102920001843607504F0EAFB607DC1E7FEF78EFF97
:10293000BEE7FFF737F8BBE7C0231B029C4205D96F
:102940000C4B9C4664440C4B185DB1E7094B9C460C
:1029500064440A4B18682418F5E7C0460045011086
:102960000C2E0120A0330120BC2E0120E0430110D9
:10297000AA2E01200080FFFFBC120020242E01207F
:1029800010B5140000216B2819D07B2820D0194ADB
:10299000138801339BB201331380137A02229343CD
:1029A0004AB2002A1ADB08229343124A1372002902
:1029B00019D1104A137A04210B43137210BD0D4A2A
:1029C0005088C01880B2FFF723FF21000140DEE7E6
:1029D00098B2FFF71DFF21000140D8E708221343FA
:1029E000044A1372E3E7034A137A04218B431372F8
:1029F000E4E7C0462433012010B533280DD0382831
:102A000014D0322800D010BD134CA088013080B201
:102A1000A080FFF7FDFEA071F5E70F4CA088013004
:102A200080B2A080FFF7F4FEE071ECE70A4CA088CA
:102A3000013080B2A080FFF7EBFE80B20002608020
:102A4000A088013080B2A080FFF7E2FE80B26388E8
:102A5000C0186080D7E7C0462433012070B5002439
:102A6000C42800D16AE020D8A4285BD00FD9B428AC
:102A70003FD112029B1898B2FFF7CAFE84B23E49BA
:102A80000B8801339BB201330B80063131E084287F
:102A900029D094282DD190B2FFF7BAFE84B23649DE
:102AA0000B8801330B80063123E0E4284DD0F42855
:102AB0000DD112029B1898B2FFF7AAFE84B22E49DC
:102AC0000B8801339BB201330B80073111E0D4280E
:102AD0000FD190B2FFF79CFE84B227490B880133D7
:102AE0000B80073105E094B223490B8801330B803A
:102AF00006310878204008701F4A137A0220834369
:102B000013720A78002A2CD1042213431A4A137232
:102B10000023CB56002B29DB174A137A08218B435D
:102B2000137270BD144D6888101880B2FFF770FEE4
:102B300084B22B8801332B80A91DDAE794B20E49A9
:102B40000B8801330B800731D3E70B4D68881018D1
:102B500080B2FFF75DFE84B22B8801332B80E91D24
:102B6000C7E704229343044A1372D1E7024A137A57
:102B700008210B431372D4E72433012070B50024DD
:102B8000C82800D16AE020D8A8285BD00FD9B8287F
:102B90003FD112029B1898B2FFF73AFE84B23E4929
:102BA0000B8801339BB201330B80063131E088285A
:102BB00029D098282DD190B2FFF72AFE84B2364949
:102BC0000B8801330B80063123E0E8284DD0F8282C
:102BD0000DD112029B1898B2FFF71AFE84B22E494B
:102BE0000B8801339BB201330B80073111E0D828E9
:102BF0000FD190B2FFF70CFE84B227490B88013346
:102C00000B80073105E094B223490B8801330B8018
:102C100006310878604008701F4A137A0220834307
:102C200013720A78002A2CD1042213431A4A137211
:102C30000023CB56002B29DB174A137A08218B433C
:102C4000137270BD144D6888101880B2FFF7E0FD54
:102C500084B22B8801332B80A91DDAE794B20E4988
:102C60000B8801330B800731D3E70B4D68881018B0
:102C700080B2FFF7CDFD84B22B8801332B80E91D94
:102C8000C7E704229343044A1372D1E7024A137A36
:102C900008210B431372D4E72433012070B50024BC
:102CA000CA2800D16AE020D8AA285BD00FD9BA2858
:102CB0003FD112029B1898B2FFF7AAFD84B23E4999
:102CC0000B8801339BB201330B80063131E08A2837
:102CD00029D09A282DD190B2FFF79AFD84B23649B7
:102CE0000B8801330B80063123E0EA284DD0FA2807
:102CF0000DD112029B1898B2FFF78AFD84B22E49BB
:102D00000B8801339BB201330B80073111E0DA28C5
:102D10000FD190B2FFF77CFD84B227490B880133B5
:102D20000B80073105E094B223490B8801330B80F7
:102D300006310878204308701F4A137A0220834323
:102D400013720A78002A2CD1042213431A4A1372F0
:102D50000023CB56002B29DB174A137A08218B431B
:102D6000137270BD144D6888101880B2FFF750FDC3
:102D700084B22B8801332B80A91DDAE794B20E4967
:102D80000B8801330B800731D3E70B4D688810188F
:102D900080B2FFF73DFD84B22B8801332B80E91D03
:102DA000C7E704229343044A1372D1E7024A137A15
:102DB00008210B431372D4E72433012010B50021FE
:102DC000C52800D167E020D8A52858D00FD9B5284C
:102DD0003FD11002181880B2FFF71AFD81B23D4CA6
:102DE000238801339BB201332380063431E08528E8
:102DF00029D095282DD190B2FFF70AFD81B2354C2C
:102E0000238801332380063423E0E5284AD0F528BF
:102E10000DD11002181880B2FFF7FAFC81B22D4CC8
:102E2000238801339BB201332380073411E0D52876
:102E30000FD190B2FFF7ECFC81B2264C238801330E
:102E40002380073405E091B2224C2388013323808C
:102E5000063400202056084040B21E4B1B7A022246
:102E6000934300282AD1042213431A4A13720028DC
:102E700029DB184A137A08218B43137210BD154CB5
:102E80006088101880B2FFF7C3FC81B22388013339
:102E900023800634DDE791B20E4C23880133238072
:102EA0000734D6E70B4C6088101880B2FFF7B0FCEF
:102EB00081B22388013323800734CAE70422934375
:102EC000044A1372D3E7034A137A08210B4313729F
:102ED000D4E7C0462433012070B50021E3286AD02E
:102EE00015D8C3282CD0D32833D194B22000FFF7B3
:102EF0008FFC0500601CFFF78BFC2D02A9B280B28D
:102F0000091889B24F4A13880133138021E0F3284E
:102F10001FD112029A1894B22000FFF779FC050025
:102F20000134A0B2FFF774FC2D02A9B280B20918D7
:102F300089B2444A138801339BB20133138008E0FD
:102F400012029A1891B23F4A138801339BB201339F
:102F500013803C4A93791B02D07902001A4352181D
:102F600092B203438024240218002040234202D05E
:102F70000BB2002B34DB002805D10BB2002B02DB97
:102F800013B2002B2FDB2F4C237A0225AB43237285
:102F9000002802D00BB2002B2EDB09B2002928DB5F
:102FA00013B2002B01DB002826D126490B7A012021
:102FB00083430B7225E0234E74881419A4B22000B9
:102FC000FFF726FC05000134A0B2FFF721FC2D021B
:102FD000A9B280B2091889B2338801333380B8E7C7
:102FE00013B2002BC7DB174C237A02252B43237225
:102FF000CEE713B2002BD3DB12490B7A0120034337
:103000000B72002A11D10F490B7A042003430B7273
:1030100013B2002B0FDB0B490B7A082083430B7292
:10302000084B110A9971DA7170BD06490B7A0420B8
:1030300083430B72ECE703490B7A082003430B72BE
:10304000EEE7C0462433012070B50021AC285AD0E9
:1030500015D88C282CD09C2833D194B22000FFF7AF
:10306000D7FB0500601CFFF7D3FB2D02A9B280B28D
:10307000091889B24A4A13880133138021E0BC2819
:103080001FD112029A1894B22000FFF7C1FB05006D
:103090000134A0B2FFF7BCFB2D02A9B280B209181F
:1030A00089B23F4A138801339BB20133138008E091
:1030B00012029A1891B23A4A138801339BB2013333
:1030C0001380374B5A88531A9BB212B2002A2FDB57
:1030D000002A02DB08B2002836DB314C207A0225B8
:1030E000A8432072002A02DB08B2002836DB09B2AE
:1030F00000292DDB19B200292EDB29490A7A01208B
:1031000082430A722FE0264E74881419A4B220005C
:10311000FFF77EFB05000134A0B2FFF779FB2D021B
:10312000A9B280B2091889B2338801333380C8E765
:1031300008B20028CCDB18B20028C9DB184C207A72
:10314000022528432072CDE718B20028C5DAF5E73A
:1031500019B20029CEDA01E0002ACEDB10490A7A42
:10316000012002430A72002B0DD10D490A7A042076
:1031700002430A721BB2002B0BDB094A137A0821A7
:103180008B43137270BD06490A7A042082430A7287
:10319000F0E7034A137A08210B431372F2E7C046A3
:1031A0002433012070B50021A32853D015D88328DB
:1031B0002CD0932833D194B22000FFF729FB0500CF
:1031C000601CFFF725FB2D02A9B280B2091889B255
:1031D000504A13880133138021E0B3281FD1120213
:1031E0009A1894B22000FFF713FB05000134A0B237
:1031F000FFF70EFB2D02A9B280B2091889B2454A29
:10320000138801339BB20133138008E012029A182D
:1032100091B2404A138801339BB2013313803D4A77
:1032200093791B02D07902001A43521A92B20343D7
:103230008024240218002040234220D00BB2002B0F
:103240001DDB13B2002B1ADB324C237A02252B43F1
:1032500023721EE02F4E74881419A4B22000FFF7C9
:10326000D7FA05000134A0B2FFF7D2FA2D02A9B2B5
:1032700080B2091889B2338801333380CFE7002840
:1032800002D10BB2002B28DB224C237A0225AB4360
:103290002372002802D10BB2002B28DB09B20029CF
:1032A0001FDB13B2002B20DB1A490B7A012083436A
:1032B0000B72002A21D117490B7A042003430B72A9
:1032C00013B2002B1FDB13490B7A082083430B72C8
:1032D000104B110A9971DA7170BD13B2002BD3DA59
:1032E000B2E713B2002BDCDA01E00028DCD1094997
:1032F0000B7A012003430B72DBE706490B7A0420AB
:1033000083430B72DCE703490B7A082003430B72FB
:10331000DEE7C0462433012010B51F4CA0880130E1
:1033200080B2A080FFF774FA2072A088013080B2CA
:10333000A080FFF76DFAE071A088013080B2A08014
:10334000FFF766FAA071A088013080B2A080FFF775
:103350005FFA80B200026080A088013080B2A08055
:10336000FFF756FA80B2638818436080A088013066
:1033700080B2A080FFF74CFA80B200022080A088C3
:10338000013080B2A080FFF743FA80B2238818434F
:103390000138208010BDC0462433012010B50B4CED
:1033A000A088013080B2A080FFF732FA80B200021C
:1033B0002080A088013080B2A080FFF729FA80B277
:1033C000238818430138208010BDC04624330120D3
:1033D00070B5EC2846D011D8CC2824D0DC282AD1CE
:1033E00095B22800FFF714FA2E4CA071681CFFF765
:1033F0000FFAE0712388013323801CE0FC281AD1E6
:103400001202D21894B22000FFF702FA254DA871DB
:103410000134A0B2FFF7FCF9E8712B8801339BB2AD
:1034200001332B8007E01F498A71CB710B88013370
:103430009BB201330B801B490A7A02239A438B7992
:103440001B02C9790B4321D104210A4315490A7291
:103450008022120213421ED0124A137A08210B4313
:10346000137270BD0F4D688894B2101880B2FFF7C8
:10347000CFF9A8716888201880B2013080B2FFF7B8
:10348000C7F9E8712B8801332B80D4E704218A43E4
:1034900004490A72DCE7034A137A08218B4313724A
:1034A000DFE7C0462433012070B5C92800D18AE087
:1034B00022D8A92800D17AE010D9B92840D1120227
:1034C00090B2C01880B2FFF7A3F9020069490B88D7
:1034D00001339BB201330B80063131E089282AD0B9
:1034E00099282DD190B2FFF793F9020061490B881A
:1034F00001330B80063123E0E9286AD0F9280ED188
:10350000120290B2C01880B2FFF782F90200594946
:103510000B8801339BB201330B80073110E0D928AF
:103520000ED190B2FFF774F9020052490B880133B3
:103530000B80073104E04F490B8801330B800631C3
:1035400008784C4B1C7A012323409B18DBB21B18D4
:10355000DBB20B7044B2002C47DB002C01DB1506FC
:103560004ED4444D2B7A0226B3432B720B78002B9A
:103570004AD1404D2B7A042633432B720023CB567D
:10358000002B47DB3B4D2B7A0826B3432B72002CD4
:1035900046DB130647D40023CB56002B01DB002C5F
:1035A00045DB344C237A0125AB43237244E0314C94
:1035B0006088801880B2FFF72BF90200238801335E
:1035C0002380A11DBCE72B490B8801330B800731F9
:1035D000B6E7284C6088801880B2FFF719F902001E
:1035E000238801332380E11DAAE71506B5D45DB217
:1035F000002DB2DB1F4D2B7A022633432B72B5E729
:103600005BB2002BADDAF5E71A4D2B7A0426B343F3
:103610002B72B3E7174D2B7A082633432B72B6E78C
:103620001306B6D503E00023CB56002BB3DB114CB9
:10363000237A01252B43237208231C0004400342F4
:1036400001D0130709D4130702D50B781B0704D543
:103650000B781B0707D4002C05D0064A137A2021CB
:103660000B43137270BD034A137A20218B431372EC
:10367000F8E7C0462433012070B5BB2800D17FE0B5
:1036800014D9EB2800D190E02BD9FB283AD11202B3
:1036900090B2C01880B2FFF7BBF8020069490B88EE
:1036A00001339BB201330B8007312BE09B285DD0A7
:1036B0000DD9AB2826D1634C6088801880B2FFF703
:1036C000A7F80200238801332380A11D1AE01B28DC
:1036D00015D08B2816D15B490B8801330B8006313E
:1036E00010E0CB285BD0DB280CD190B2FFF790F82C
:1036F000020054490B8801330B80073102E0514925
:10370000CA79063108781318DBB20B7044B2002C6A
:1037100057DB002C04DB150602D45BB2002B55DB13
:10372000484D2B7A0226B3432B720B78002B53D1D2
:10373000444D2B7A042633432B720023CB56002BA7
:1037400050DB404D2B7A0826B3432B72002C4FDB05
:10375000130650D40023CB56002B01DB002C4EDB8C
:10376000384C237A0125AB4323724DE090B2FFF72A
:103770004FF8020033490B8801330B800631C1E753
:10378000120290B2C01880B2FFF742F802002D4931
:103790000B8801339BB201330B800631B2E7294914
:1037A0000B8801330B800731ACE7264C608880180A
:1037B00080B2FFF72DF80200238801332380E11D3A
:1037C000A0E71506A5D55DB2002DA2DB1D4D2B7A15
:1037D000022633432B72A8E71A4D2B7A0426B343F3
:1037E0002B72AAE7174D2B7A082633432B72ADE7CD
:1037F0001306ADD503E00023CB56002BAADB114CFA
:10380000237A01252B43237208231C000440034222
:1038100001D0130709D4130702D50B781B0704D571
:103820000B781B0707D4002C05D0064A137A2021F9
:103830000B43137270BD034A137A20218B4313721A
:10384000F8E7C0462433012010B5C62800D169E04E
:1038500021D8A6285AD010D9B62840D1120290B249
:10386000C01880B2FEF7D4FF02003D4C238801331C
:103870009BB201332380063431E086282AD0962873
:103880002DD190B2FEF7C4FF0200354C23880133DE
:103890002380063423E0E6284AD0F6280ED112020F
:1038A00090B2C01880B2FEF7B3FF02002C4C238800
:1038B00001339BB201332380073410E0D6280ED1A8
:1038C00090B2FEF7A5FF0200254C23880133238028
:1038D000073404E0224C2388013323800634204936
:1038E0000B7A022083430B722270002A2CD10A002B
:1038F0000B7A04210B4313720023E356002B29DBC0
:10390000174A137A08218B43137210BD144C608838
:10391000801880B2FEF77CFF0200238801332380E9
:103920000634DCE70E4C2388013323800734D6E7C6
:103930000B4C6088801880B2FEF76AFF0200238873
:10394000013323800734CAE7054A137A04218B43E5
:103950001372D1E7024A137A08210B431372D4E79A
:103960002433012070B5C12800D17EE021D8A128E0
:103970006FD010D9B12840D1120290B2C01880B2D5
:10398000FEF746FF020055490B8801339BB2013315
:103990000B80063131E081282AD091282DD190B2B8
:1039A000FEF736FF02004D490B8801330B800631CC
:1039B00023E0E1285FD0F1280ED1120290B2C018A6
:1039C00080B2FEF725FF020044490B8801339BB209
:1039D00001330B80073110E0D1280ED190B2FEF7F1
:1039E00017FF02003D490B8801330B80073104E0CB
:1039F0003A490B8801330B8006310C78A31ADBB2ED
:103A000064B2002C43DB002C01DB11064AD433489E
:103A1000017A0225A9430172002B47D12F48017A70
:103A20000425294301725BB2002B45DB2B49087A40
:103A30000825A8430872002C01DB110647D41206A2
:103A400040D4002B41DB254A137A01218B431372AA
:103A500042E0224C6088801880B2FEF7D9FE020056
:103A6000238801332380A11DC7E71C490B8801333C
:103A70000B800731C1E7194C6088801880B2FEF7CF
:103A8000C7FE0200238801332380E11DB5E711063C
:103A9000B9D459B20029B6DB1048017A022529436E
:103AA0000172B9E759B20029B1DAF5E70B48017A9A
:103AB0000425A9430172B6E70848017A082529437D
:103AC0000172B8E7002BBCDA01E0002CBBDB034A33
:103AD000137A01210B43137270BDC04624330120B9
:103AE00070B5C22800D18AE022D8A22800D17AE09D
:103AF00010D9B22840D1120290B2C01880B2FEF79D
:103B000087FE02005B490B8801339BB201330B80B7
:103B1000063131E082282AD092282DD190B2FEF7CA
:103B200077FE020053490B8801330B80063123E0F6
:103B3000E2286AD0F2280ED1120290B2C01880B2E8
:103B4000FEF766FE02004B490B8801339BB201333E
:103B50000B80073110E0D2280ED190B2FEF758FE4C
:103B6000020044490B8801330B80073104E04149CE
:103B70000B8801330B80063108783E4B1C7A0123F9
:103B800023409B18DBB2C31ADBB20B7040B2002893
:103B900047DB002801DB14064ED4364C237A02257D
:103BA000AB4323720B78002B4AD1324C237A042585
:103BB0002B4323720023CB56002B47DB2D4C237A5B
:103BC0000825AB432372002801DB13064BD41306F0
:103BD00042D40023CB56002B43DB264A137A012123
:103BE0008B43137244E0234C6088801880B2FEF748
:103BF0000FFE0200238801332380A11DBCE71D496D
:103C00000B8801330B800731B6E71A4C60888018A7
:103C100080B2FEF7FDFD0200238801332380E11D01
:103C2000AAE71406B5D45CB2002CB2DB114C237A9F
:103C300002252B432372B5E75BB2002BADDAF5E723
:103C40000C4C237A0425AB432372B3E7094C237A47
:103C500008252B432372B6E70023CB56002BB8DA96
:103C600001E00028B9DB034A137A01210B431372E8
:103C700070BDC0462433012070B5C02800D183E058
:103C800021D8A02874D010D9B02840D1120290B207
:103C9000C01880B2FEF7BCFD020058490B88013302
:103CA0009BB201330B80063131E080282AD0902866
:103CB0002DD190B2FEF7ACFD020050490B880133C4
:103CC0000B80063123E0E02864D0F0280ED11202E8
:103CD00090B2C01880B2FEF79BFD020047490B88E6
:103CE00001339BB201330B80073110E0D0280ED195
:103CF00090B2FEF78DFD020040490B8801330B8026
:103D0000073104E03D490B8801330B8006310B7805
:103D1000981AC0B208705BB2002B47DB002B01DBA6
:103D200014064ED4354C207A0225A8432072087818
:103D300000284AD1314C207A0425284320720020E3
:103D40000856002847DB2D4C207A0825A84320720E
:103D5000002B01DB10064BD4120642D400228A56F7
:103D6000002A43DB254A137A01218B43137244E076
:103D7000224C6088801880B2FEF74AFD020023883A
:103D800001332380A11DC2E71C490B8801330B803E
:103D90000731BCE7194C6088801880B2FEF738FD07
:103DA0000200238801332380E11DB0E71406B5D457
:103DB00044B2002CB2DB114C207A02252843207239
:103DC000B5E740B20028ADDAF5E70C4C207A0425BF
:103DD000A8432072B3E7094C207A082528432072B3
:103DE000B6E700228A56002AB8DA01E0002BB9DBD8
:103DF000024A137A01210B43137270BD2433012050
:103E000003B2002B10DB8023DB0198422DD203008C
:103E10001A4AD35C1B021A4A90422AD80130174A28
:103E2000105CC01880B27047C0231B0298420FD9A3
:103E3000144BC318144AD35C1B02144A90420DD988
:103E4000134A94466044104A105CC01880B2EAE7F6
:103E5000104B1A680B4BC3189B18EBE70C4A94469F
:103E600060440C4A12688018EDE70B4B1B68C318BE
:103E7000CEE70130084A12688018D0E7A03301204D
:103E8000FE3F00000080FFFFBC120020FFBF0000CB
:103E90000180FFFF242E01200C2E012070B500248C
:103EA000CE2840D021D8AE2800D174E00FD9BE284A
:103EB00043D11002C01880B2FFF7A2FF04004149AD
:103EC0000B8801339BB201330B80043135E08E281F
:103ED00056D09E2831D190B2FFF792FF04003949A5
:103EE0000B8801330B80043127E0EE283CD0FE28FC
:103EF0000DD11002C01880B2FFF782FF04003149D3
:103F00000B8801339BB201330B80023115E0DE28B0
:103F100013D190B2FFF774FF04002A490B880133D4
:103F20000B80023109E012021A43140025490B8864
:103F300001339BB201330B8002310C80214A137A8A
:103F40000220834313720A88002A30D104221343CB
:103F50001C4A137200228B5E002B2DDB194A137A48
:103F600008218B43137270BD164D6888801880B28B
:103F7000FFF746FF04002B8801332B80A91CDCE7E8
:103F800012021A4314000F490B8801339BB201330C
:103F90000B800431D1E70B4D6888801880B2FFF7A1
:103FA0002FFF04002B8801332B80291DC5E7042235
:103FB0009343044A1372CDE7024A137A08210B4354
:103FC0001372D0E72433012070B504000D00060001
:103FD000C1235B0098420DD2023B984257D217286A
:103FE00040D803B2002B3DD017283BD88300334A7A
:103FF000D3589F46C0239B00984226D00FD9E02378
:104000009B0098423FD01DD9F0239B0098423AD0A4
:104010002033984220D0403B98421DD022E0803B84
:1040200098422CD04033984203D10420FCF704FA84
:1040300018E0013BFF3B984214D102F03BFEFDF734
:104040008BF81BE0403B984203D12000FDF7CEF8EF
:1040500014E02033984205D12000FDF799F80DE0D7
:10406000174B197023B2002B08DB8023DB019C4225
:1040700002D3144B1E68A619134B9D5570BD042026
:10408000FCF7B4F9EEE72000FDF770F8EAE7FDF77A
:10409000B1FAF3E7FDF764F9E4E70800FDF702FC85
:1040A000ECE70800FDF784FCE8E70800FDF7F8FC02
:1040B000E4E70800FDF726FCE0E7C04654450110A0
:1040C000BC2E01200C2E0120A0330120F8B51500D4
:1040D0000024622819D0722827D01F4A1388013380
:1040E0009BB201331380137A0222934362B2002AF7
:1040F00026DB08229343184A1372002C25D1164A56
:10410000137A04210B431372F8BD9EB2124F7888C4
:10411000181880B2FEF77CFB0543ECB278883018A3
:1041200080B22100FFF750FFD7E79EB23000FEF7C4
:104130006FFB0543ECB221003000FFF745FFCCE7F1
:1041400008221343044A1372D7E7034A137A04215F
:104150008B431372D8E7C04624330120F8B515000D
:104160000026612819D0712827D01F4A13880133EF
:104170009BB201331380137A0222934372B2002A56
:1041800026DB08229343184A1372002E25D1164AC3
:10419000137A04210B431372F8BD9CB2124F788836
:1041A000181880B2FEF734FB05402E0078882018DE
:1041B00080B22900FFF708FFD7E79CB22000FEF786
:1041C00027FB05402E0029002000FFF7FDFECCE76D
:1041D00008221343044A1372D7E7034A137A0421CF
:1041E0008B431372D8E7C04624330120F8B515007D
:1041F0000024652819D0752827D01F4A1388013359
:104200009BB201331380137A0222934362B2002AD5
:1042100026DB08229343184A1372002C25D1164A34
:10422000137A04210B431372F8BD9EB2124F7888A3
:10423000181880B2FEF7ECFA4540ECB278883018D6
:1042400080B22100FFF7C0FED7E79EB23000FEF734
:10425000DFFA4540ECB221003000FFF7B5FECCE7B5
:1042600008221343044A1372D7E7034A137A04213E
:104270008B431372D8E7C0462433012010B537288A
:104280000CD03C2812D0362800D010BD0F4B988897
:10429000421E9A809979FFF797FEF6E70B4B9888B4
:1042A000421E9A80D979FFF78FFEEEE7074CA0886F
:1042B000431EA380A178FFF787FEA088431EA3803A
:1042C0006188090AFFF780FEDFE7C046243301203A
:1042D00010B5010000200024D72945D02CD8A729EB
:1042E00039D0B7290AD112021A4310002C4A947906
:1042F000138801339BB20133138007E0972905D15E
:1043000090B2274B9C791A8801321A802100FFF75E
:104310005BFE234B1B7A02229343002C34D10422F0
:1043200013431F4A137264B2002C32DB1C4A137A07
:1043300008218B43137210BDE7291CD0F729E5D162
:1043400012021A431000164AD479138801339BB223
:1043500001331380DAE7124B5888101880B29C7929
:104360001A8801321A80D1E790B20D4BDC791A8895
:1043700001321A80CAE70A4B5888101880B2DC79DB
:104380001A8801321A80C1E704229343044A137247
:10439000C9E7034A137A08210B431372CBE7C046DF
:1043A0002433012070B5244CA088431EA3802178BB
:1043B0000131C9B2FFF708FEA088431EA3802188FF
:1043C00001310912C9B2FFF7FFFDA088431EA38087
:1043D000A178FFF7F9FDA088431EA3806188090A30
:1043E000FFF7F2FDA088431EA380A179FFF7ECFD43
:1043F000A088431EA380E179FFF7E6FDA088431E55
:10440000A380217AFFF7E0FD237A10221343237261
:104410000A48FEF7FDF905000948FEF7F9F9ADB2C3
:104420002D02ADB22D18ADB2013D2580054A1368AD
:104430000133136070BDC04624330120FAFF000031
:10444000FBFF0000A434022070B5224CA088431E5C
:10445000A38021780131C9B2FFF7B6FDA088431EC1
:10446000A380218801310912C9B2FFF7ADFDA088F0
:10447000431EA380A178FFF7A7FDA088431EA38059
:104480006188090AFFF7A0FDA088431EA380A179D7
:10449000FFF79AFDA088431EA380E179FFF794FD02
:1044A000A088431EA380217AFFF78EFD237A102275
:1044B000134323720848FEF7ABF905000748FEF7DF
:1044C000A7F9ADB22D02ADB22D18ADB2013D2580D8
:1044D00070BDC04624330120EEFF0000EFFF000056
:1044E00070B5AD283BD01CD88D2853D09D2850D115
:1044F00090B2FFF785FC013885B2384C2188013134
:1045000089B22180A088431EA380C9B2FFF75CFD59
:10451000A088431EA3802188090AFFF755FD258046
:1045200037E0BD2835D112021343013B9CB22B4D1D
:104530002988013189B2013189B2013189B22980DA
:10454000A888431EAB80C9B2FFF73EFDA888431E72
:10455000AB802988090AFFF737FD2C8019E01F4C32
:104560006088121892B2013A95B22188013189B25D
:10457000013189B22180A088431EA380C9B2FFF710
:1045800023FDA088431EA3802188090AFFF71CFD94
:10459000258070BD114B198853B2002B19DB92B2E4
:1045A0008A1892B2013294B2013189B2013189B2D2
:1045B0000A4D2980A888431EAB80C9B2FFF704FDCD
:1045C000A888431EAB802988090AFFF7FDFC2C80D0
:1045D000DFE7013AFF3A92B2E2E7C0462433012016
:1045E00070B504000B00090ADDB2FFF7EDFC0134E1
:1045F000A0B22900FFF7E8FC70BD000010B5010073
:1046000000200024EF292BD0FF291ED0DF2915D050
:104610002100FFF7E5FF1C4B1B7A02229343002C7D
:1046200026D104221343184A137224B2002C24DB2F
:10463000154A137A08218B43137210BD90B2124BA6
:104640005C881A8801321A80E2E712021A431000CD
:104650000D4A5488138801339BB201331380D7E786
:10466000094B5C88121990B21A8801321A80CFE780
:1046700004229343044A1372D7E7034A137A0821AA
:104680000B431372D9E7C0462433012010B5010053
:1046900000200024AF292BD0BF291ED09F2915D080
:1046A0002100FFF79DFF1C4B1B7A02229343002C35
:1046B00027D104221343184A137224B2002C25DB9D
:1046C000154A137A08218B43137210BD90B2124B16
:1046D0009C881A8801321A80E2E712021A431000FD
:1046E0000D4A9488138801339BB201331380D7E7B6
:1046F000094B5888101880B29C881A8801321A8099
:10470000CEE704229343044A1372D6E7024A137A8F
:1047100008210B431372D8E72433012010B50100A0
:1047200000200024ED2931D0FD2921D0DD2915D02C
:104730002100FFF755FF214B1B7A02229343002CE7
:1047400030D1042213431D4A137224B2002C2EDBF5
:104750001A4A137A08218B43137210BD90B2174B7B
:104760009C792402DA7914431A8801321A80DFE72F
:1047700012021A431000114A94792402D3791C437F
:10478000138801339BB201331380D1E70B4B588858
:10479000101880B29C792402DA7914431A88013205
:1047A0001A80C5E704229343044A1372CDE7034AF3
:1047B000137A08210B431372CFE7C046243301203C
:1047C000002300E00133022B08D81A010449525A91
:1047D0008242F7D11B01CB1801225A607047C046B4
:1047E000E8090020F8B5002706E03901314A5218DF
:1047F0005268002A1BD10137022F5AD839012D4A9D
:1048000052189268002A03D02B4A127AD306F2D4A7
:104810003901284A5218D268002AE6D0274A12687D
:10482000002AE2D0234A521800215160E3E7214ECA
:104830000F00731800225A601F4CA088431EA380EB
:104840002178FFF7C1FBA088431EA3802188090AB5
:10485000FFF7BAFBA088431EA380A178FFF7B4FB43
:10486000A088431EA3806188090AFFF7ADFBA088DA
:10487000431EA380A179FFF7A7FBA088431EA38056
:10488000E179FFF7A1FBA088431EA380217AFFF7FF
:104890009BFBB85BFDF7BCFF0502B85B013080B243
:1048A000FDF7B6FF00B228432080237A102213437D
:1048B0002372F8BDE809002024330120740A002087
:1048C00010B50B4A138801339BB21380094A128832
:1048D000934200D010BD084A137840210B43DBB24D
:1048E00013701B07F6D50548FFF76AFFF2E7C046CD
:1048F000B22E0120B02E0120BC2E0120F4FF0000BA
:1049000010B50C4A138801339BB21380002B08D1D9
:10491000094A138801339BB213808022D20093424C
:1049200000D010BD044B00221A800448FFF748FF56
:10493000F7E7C046AC2E0120AE2E0120FCFF0000A0
:10494000F8B503F05FFB04000D00244B1B68002B3F
:1049500007D0234B1A685B68801A99410A1E27D139
:1049600023D0204B1A685B6820002900801A9941E7
:104970000600002903D117D11B498E4214D91A48C9
:10498000002112184B4117490A604B60144B1A68FA
:104990005B6820002900801A99410A1E16D112D0A6
:1049A0000E4A136801331360F8BD104B9842D8D9F2
:1049B0000B4B1C605D600E48FFF702FF074A13684F
:1049C000013B1360CDE7094B9842E9D9044B1C60C9
:1049D0005D600748FFF7F4FEE6E7C046F42D0120CE
:1049E000382301204023012040420F00400D0300E6
:1049F000FCFF000010B5184B1B68002B11D0012BD9
:104A00001CD0FCF71DF81548FDF702FF04021448FE
:104A1000FDF7FEFE00B22043124B1880F1221A72FD
:104A200010BD114B10221A60104C20212000FCF701
:104A3000D3FC0F4B18600F4B1C60E2E70A4B1422AB
:104A40001A600D4C50212000FCF7C6FC084B186082
:104A5000084B1C60D5E7C046700A0020FEFF00002E
:104A6000FFFF0000243301201C0A0020C012012097
:104A7000180A00203C330120200A00200B4B1A8822
:104A80000B4B1B889A420BD00A4B00221A75094A1D
:104A9000537D02218B435375074B00221A807047C8
:104AA000064B1A68034B1A75F1E7C046A42E012085
:104AB000A22E0120A0330120AA2E0120BC12012029
:104AC00070B5224C2088FDF7A3FE214D2870208868
:104AD000013080B2FDF79CFE06002088023080B2D3
:104AE000FDF796FE03001B4A0021116021881A4A37
:104AF000116028788100194A8D5832002100A8479A
:104B0000238801332380FFF7DBFEFFF7D9FEFFF791
:104B1000D7FEFFF7D5FEFFF7D3FEFFF7D1FEFFF775
:104B2000CFFEFFF7CDFEFFF7CBFEFFF7C9FEFFF785
:104B3000C7FEFFF7C5FEFFF7E3FEFCF7B3FBFFF789
:104B400051FEFCF739FCFFF7FBFE70BD243301205A
:104B5000A1340220A4340220AC350220780E0020BB
:104B600010B582B01D4A1368013313601C4B9B695A
:104B7000DB0614D51B4A1368013313600FE0184B92
:104B80009B69DB06FBD4164B1B680B7001320131AD
:104B9000002AF4D06B4607331B78002B09D1104B49
:104BA0009B6910210A001A4019420DD16B46D91D8C
:104BB000EEE70D4C22680D498B54206801300C49FA
:104BC00005F060FB2160EAE7054B9B69DB0603D437
:104BD000084A13680133136002B010BD2C2D012068
:104BE00000800340302D0120342D0120C0640220BC
:104BF00088130000282D0120012070477047000015
:104C0000014B00221A607047442E012070470000BB
:104C100010B50449044801F05FFD002800D00120D0
:104C200010BDC046D4470110A87E022010B504492B
:104C3000044801F051FD002800D0012010BDC046FD
:104C4000E4470110A87E0220F0B5C64600B594B036
:104C5000654B1B68002B10D1A1339846624B5F68EF
:104C60000023624A137005AA137001AB10223900A9
:104C7000404601F05BFF3D0021E0A3239846EDE7AD
:104C800005AC2B0022005A490AA805F0A3FA0AA98C
:104C900056480AF07FFB0023237001AB1022290045
:104CA000404601F043FF10E005A80AF0E7FB05AB22
:104CB0009C46604402224F4906F04AFB01353B0006
:104CC0007F33AB4225DB2B07DAD0EB171B0FEA183B
:104CD0000F241440E41A01AE325D47490AA805F0DA
:104CE00079FA0AA941480AF055FB325D434B9B5CB7
:104CF00068218B43D8D06B4640395B181A7000236B
:104D00006A460131521813700AA905A80AF042FB3D
:104D1000D4E7364C20000AF0B1FB201803223849B2
:104D200006F016FB05A920000AF034FB354B1A6883
:104D3000354B1968354D2300280005F04BFA280043
:104D40000AF09CFB0200324B1860324C32492000C2
:104D500005F040FA0023200015E06B46DA1C1470C1
:104D6000002108E02D4B9B699B06FBD414782B4B4C
:104D70001C60013101320029F4D003780D3B5A4206
:104D80005341DBB201300478002C29D0002BE4D150
:104D9000234B02229B5EA34204D06B46DA1C1470A4
:104DA000002116E06B46DA1C0D231370002104E08D
:104DB00015781A4B1D60013101320029EDD1174BD6
:104DC0009B699B06FBD4F3E71478144B1C600131FC
:104DD00001320029D1D1114B9B699B06FBD4F3E72B
:104DE00014B004BC9046F0BD4C87022068410220FC
:104DF000FC470110144801100C480110B96C011057
:104E00005854011090280120281301204C4D0220F5
:104E1000F02D0120848602201848011000800340F4
:104E2000A088022070B52248002103F023F8022157
:104E3000082002F0B9F90221092002F0B5F9E121B8
:104E40001C4D4902280002F0BFFA2A6BC0231B0246
:104E50001A4080246401184B23431A60EA6A102622
:104E60003240164B23431A601549152003F07CFE8F
:104E70000121152003F060FEAE636A6B38231340F6
:104E8000104A14432360104806F0CAFB06F0B8FB32
:104E90000220FBF7D1FA642003F018F80220FBF798
:104EA000A5FA0023094A1370094A136070BDC04671
:104EB00040420F0000800340308003402C800340BC
:104EC000614B0010348003402C480110A87E022062
:104ED000242D0120F0B5CE46474680B585B00500AB
:104EE000002301AA13703A4A1370C31D394AD356DE
:104EF000002B0ADB364C20000AF0C0FA20180222F0
:104F0000354906F025FA05242EE0314C20000AF040
:104F1000B5FA20180222314906F01AFAF3E76719A8
:104F20002C4B9946DA5D12092D4B9846190001A8C1
:104F300005F050F9264E01A930000AF02BFA300096
:104F40000AF09CFA30180222264906F001FA4B4674
:104F5000DB5D0F221A40414601A805F03BF901A98B
:104F600030000AF017FA013C002C0DDB052CD6D0DE
:104F70006319184AD25C1C4901A805F02BF901A954
:104F800013480AF007FAEEE7114C20000AF076FA0F
:104F900020180322154906F0DBF906350D4B5A5748
:104FA000002A0EDB104901A805F014F9084C01A9EC
:104FB00020000AF0EFF9200005B00CBC904699469D
:104FC000F0BD52420A4901A805F004F9EEE7C046D7
:104FD000244D0220A0330120104801104448011044
:104FE0004848011014480110F043011050480110C6
:104FF0005448011030B593B0424B00221A7000247F
:1050000014E02200404908A805F0E4F83D4D08A945
:1050100028000AF0BFF9E0003C4B9C466044FFF7D3
:1050200059FF010028000AF0B5F90134092CE8DD28
:10503000374B1A68374B1968374C384B0493384B49
:10504000039318001638029018002C380190423B48
:1050500000932C4B200005F0BDF820000AF00EFA5A
:105060000300304A1060304A1268304C304920004A
:1050700005F0B0F80023200027E01F236B441970CF
:105080000022002A1BD12B4989698906FBD41C7890
:1050900028490C6001320133F3E71F236B440D22D2
:1050A0001A70002204E01D78224C25600132013381
:1050B000002A14D11F4CA469A406FBD4F3E703789B
:1050C0000D3B5A425341DBB201300178002916D022
:1050D000002BD2D1184B02229B5E8B42DDD01F23C6
:1050E0006B4419700022002AE9D1124989698906A6
:1050F000FBD41C780F490C6001320133F3E713B085
:1051000030BDC046684102205C480110FF2000000D
:1051100090280120241301204C4D0220A87E02205B
:1051200082330120F02D0120742801208486022082
:105130006848011000800340A088022070B5050077
:105140000024062C0ED8E300074A9958280001F0E5
:10515000C3FA002801D10134F3E7E400024B1C1923
:105160006368984770BDC0461C15012010B5024801
:10517000FFF7E4FF10BDC046B035022070B5050052
:10518000002400E00134072C0CD8E300064A9958AB
:10519000280001F0A1FA0028F4D0E400024B1C1909
:1051A0006368984770BDC046E4120120F8B5070057
:1051B0000E000024B44211DA094B1D68681CFA2164
:1051C000890005F05FF8074B1B68994206D03A5DED
:1051D000054B5A55024B19600134EBE7F8BDC04648
:1051E0002C2801203028012038490220F0B5C6467D
:1051F00000B50A4D0A4E81192B681C1A631C98468B
:10520000084F1A00380006F0A3F842463900300073
:1052100006F09EF82C6004BC9046F0BD242D0120C1
:10522000A87E0220F05C022070B51B4B18601B4B5F
:1052300019601B4B00221A601A4B01321A601A4B7C
:1052400018601A4B1D68144B1A68002A12DD174BA0
:10525000196800290EDD12480368154CE65C154CF0
:10526000E654013303600139104B1960013A0A4BCF
:105270001A60E8E70D4B1D60094B1868FFF7B6FF91
:10528000054B1B68002B05D1064B00221A60034B0F
:105290001B68984770BDC04638280120A47E0220B4
:1052A000EC5C022048280120882D0120242D0120BB
:1052B000A87E0220B035022010B5044B1868FFF715
:1052C00095FF034B01221A6010BDC0466C2D0120D2
:1052D000842D012010B5084B1B68002B07D0074B0D
:1052E0001868FFF783FF044B00221A6010BD034BC0
:1052F0001868FFF77BFFF9E7842D01206C2D012052
:1053000010B550210220FCF7A1F80849084801F027
:10531000E3F9002800D110BD064B1868FFF766FFBF
:10532000054B58680549FFF77FFFF4E7D4470110A4
:10533000A87E02206C2D01204C8702206D510010A8
:1053400010B504006E210120FCF780F82401094803
:1053500004196168084801F0BFF9002800D110BDA8
:10536000064B1868FFF742FF054B1A68054B1A6099
:10537000F5E7C046BC510110A87E02206C2D01202B
:105380004C8702207428012010B5040069210120F7
:10539000FCF75CF82401074804196168064801F02D
:1053A0009BF9002800D110BD044B1868FFF71EFFC1
:1053B000F9E7C046BC510110A87E02206C2D0120E7
:1053C00010B563210120FCF741F80649064801F0B9
:1053D00083F9002800D110BD044B1868FFF706FFC1
:1053E000F9E7C0467C480110A87E02206C2D012000
:1053F00010B563210120FCF729F80649064801F0A1
:105400006BF9002800D110BD044B1868FFF7EEFEC1
:10541000F9E7C0468C480110A87E02206C2D0120BF
:1054200070B586B064210220FCF710F84D494E4853
:1054300001F052F9002801D106B070BD4B4B18683D
:10544000FFF7D4FE4A4B1D681D2DF5DC0024A54254
:105450000ADD2B206043474BC018474909F0C2FFC3
:1054600000282AD00134F2E70023002BE4D12B33AB
:105470005D43404EA819404C210009F0F7FF280079
:105480001030801904303D494B680A684D69039516
:105490000D690295CD68019589680091384904F03D
:1054A00099FE384B1868210009F09CFF002806D0AF
:1054B0002F4A136801331360BEE70123D5E72C4B55
:1054C0001A682B235A4310322A4BD21804322E4C1E
:1054D0002E49200004F07EFE0023200033E0172236
:1054E0006A441470002104E01478294B1C600131D7
:1054F0000132002921D1264B9B699B06FBD4F3E79F
:1055000017226A440D231370002104E01578204B04
:105510001D600131013200291FD11D4B9B699B0683
:10552000FBD4F3E71A4B9B699B06FBD41478184B0A
:105530001C60013101320029F4D003780D3B5A423E
:105540005341DBB201300478002CB1D0002BC6D11E
:10555000104B02229B5EA342D2D017226A441470E1
:105560000021E8E798480110A87E02206C2D012058
:105570003428012018790220788802204C870220E4
:10558000E0480110E012012084860220F448011056
:1055900000800340A088022010B550210220FBF7B4
:1055A00055FF0849084801F097F8002800D110BDC0
:1055B000064B1868FFF71AFE054B18680549FFF7F8
:1055C00033FEF4E70C490110A87E02206C2D012067
:1055D0004C870220755D001030B583B02B4809F070
:1055E0004DFF02002A4B18602A4C2B49200004F082
:1055F000F1FD0023200034E06B4607331A700022CF
:1056000004E01C7825490C6001320133002A22D1C4
:10561000224989698906FBD4F3E76B4607330D21DC
:105620001970002104E01D781C4C25600131013304
:10563000002920D1194CA469A406FBD4F3E71C78F7
:1056400016490C6001320133002A04D113498969DB
:105650008906FBD4F3E703780D3B5A425341DBB292
:1056600001300278002A0BD0002BC5D10C4B02214F
:105670005B5E9342D1D06B4607331A700022E3E79A
:10568000084B01321A6003B030BDC0464C4D0220B9
:10569000F02D0120848602201C4901100080034067
:1056A000A0880220442E012010B51C220349044882
:1056B00005F04EFEFFF790FF10BDC04630490110C7
:1056C0004C4D022010B5064B5A681B680549CA5458
:1056D0000549064804F07EFDFFF77EFF10BDC04679
:1056E0004C870220A03301204C4901104C4D022070
:1056F000F0B5C64600B594B03E4B1B68002B11D1E7
:10570000A13398463B4B5F6800233B4A137005AAC0
:10571000137001AB10223900404601F007FA3C003B
:10572000002523E0A3239846ECE705AD23002A00DB
:1057300032490AA804F04EFD0AA92F4809F02AFEB2
:1057400000232B7001AB10222100404601F0EEF93E
:10575000002511E005A809F091FE05AB9C466044C8
:105760000222274905F0F4FD013501343B007F3367
:10577000A3421FDB2307D8D001AE725D21490AA8DE
:1057800004F028FD0AA91C4809F004FE725D1E4BB6
:105790009B5C68218B43DDD06B4640395B181A70E7
:1057A00000236A460131521813700AA905A809F0AE
:1057B000F1FDD9E7104C200009F060FE201803220B
:1057C000124905F0C5FD05A9200009F0E3FD200000
:1057D00009F054FE201803220D4905F0B9FD2100FF
:1057E0000C4809F043FEFFF7F7FE14B004BC9046E6
:1057F000F0BDC0464C87022068410220604901107C
:10580000144801100C480110B96C011058540110D3
:10581000F44B01104C4D022000B585B0094B1A0025
:10582000163A0949029119002C31019119001631DB
:1058300000910649064804F0CDFCFFF7CDFE05B007
:1058400000BDC04656330120A87E02206C490110DD
:105850004C4D022030B583B0294809F00FFE0200FC
:10586000284B1860284C2949200004F0B3FC002381
:10587000200034E06B4607331A70002204E01C78E5
:1058800023490C6001320133002A22D12049896961
:105890008906FBD4F3E76B4607330D21197000210D
:1058A00004E01D781A4C256001310133002920D114
:1058B000174CA469A406FBD4F3E71C7814490C60C8
:1058C00001320133002A04D1114989698906FBD4C8
:1058D000F3E703780D3B5A425341DBB201300278C3
:1058E000002A0BD0002BC5D10A4B02215B5E9342EC
:1058F000D1D06B4607331A700022E3E703B030BD06
:105900004C4D0220F02D0120848602201848011001
:1059100000800340A088022000B583B0094A536884
:105920001068094A1354094A126809490968019024
:105930000093084B084804F04DFCFFF78BFF03B0C1
:1059400000BDC0464C870220A033012090280120D2
:105950002C130120884901104C4D0220F0B593B062
:1059600006000F0000232D4A137003AA13700400D1
:1059700019E003AD00943B002A00294908A804F06F
:1059800029FC08A9254809F005FD00232B7010E02B
:1059900003A809F073FD03AB9C4660440222214931
:1059A00005F0D6FC013433007F33A3421FDB23070D
:1059B000DFD01D4D2A5D1D4908A804F00BFC08A985
:1059C000164809F0E7FC2A5D194B9B5C68218B4364
:1059D000DED06B4648395B181A7000236A460131E5
:1059E0005218137008A903A809F0D4FCDAE70B4C8D
:1059F000200009F043FD201803220E4905F0A8FC01
:105A000003A9200009F0C6FC200009F037FD20188A
:105A10000322094905F09CFC13B0F0BD6841022047
:105A20009049011014480110A03301200C480110C6
:105A3000B96C011058540110F44B011010B507490E
:105A40000020FFF78BFF064B1A68064B1968064BC0
:105A5000064804F0BFFBFFF7FDFE10BD9C49011096
:105A60009028012028130120684102204C4D02207B
:105A700010B5084B18680849FFF770FF074B1A6804
:105A8000074B1968074B084804F0A4FBFFF7E2FE38
:105A900010BDC0464C8702209C490110902801206F
:105AA00028130120684102204C4D022010B5064BFE
:105AB00018680649FFF752FF0549064804F08AFBBB
:105AC000FFF78AFD10BDC0464C870220F44B011041
:105AD000684102204C4D022000B583B0084B01AA5A
